:020000040000FA
:0600000002010A0227FCC8
:03002B00022204AA
:030033000221E6C1
:03003B0002222579
:0300430002219AFD
:030053000228720E
:03006B000221C0AF
:100083000226ABE5C754F84401F5C7790122000005
:100093000080FB120086B900030200F4E4792178A2
:1000A30008B800028004F709D8FCE479297802B87B
:1000B30000028004F709D8FCE4900281782E790FBE
:1000C3008002F0A3D8FCD9FA9010AEAA82AB839039
:1000D300013A782B79028015E493A3AC82AD838A2D
:1000E300828B83F0A3AA82AB838C828D83D8E9D9D8
:1000F300E775829F7583C9740412011C758291751B
:100103008300740012011C75D00075813F7518813E
:10011300751902759F00020096C09FF59FE473D086
:100123009F22D083D082C09FE493C0E0740193C028
:10013300E0740293F59F22FF544920424C4520412D
:100143006C6C00000000000000000000001100FFC4
:10015300005C076E0798076207FF0000B4000028E1
:10016300002800283075A000A000A000A00000080F
:100173000008E001F0001000100010001000100053
:10018300100050005000500010001000D007000075
:10019300000000000F00010005003075070010008B
:1001A300010081FF00000000FF00091E090609FF8E
:1001B30002020208025000A0000000E803023C9182
:1001C3000100002591022C91010000271102829069
:1001D3000100008405022C910100002811022A91DC
:1001E3000100009A05022C910100002911023091AF
:1001F3000100009C05022C910100002A110232919A
:100203000800009D05022C910100002B110236917C
:100213000100002C11FFFF0100FF20023C910100AF
:10022300002291022C9101000091110238910000EB
:100233000000000228910300007E067A137A137AE5
:10024300137A137A137A137A137A137A137A137A43
:10025300137A137A13FC151A16F6153A1752173434
:1002630017120125F8C9041201257CF80312012590
:1002730086F803120125C4F8031201250DF90312B0
:10028300012547F903120125A1F903120125C2F93A
:1002930003120125CBF90312012518FA03120125D4
:1002A30041FA031201254BFA0312012555FA0312F1
:1002B3000125C1FA0312012553FB031201259DFBFE
:1002C30003120125D3FB031201255FFC0312012551
:1002D300A0FC03120125D7FC03120125F6FC03122F
:1002E3000125FFFC03120125C7FD0312012511FEA1
:1002F30003120125F4C404120125FBC904120125CC
:100303004BB80412012581B804120125B7B80412B1
:10031300012502BA0412012535C9041201254BC96E
:100323000412012555C904120125B79704120125AA
:10033300CC97041201257F9804120125BF9804125B
:100343000125D898041201251399041201256099F7
:1003530004120125929904120125D499041201254E
:10036300DF9B04120125C7FF01120125F6FF0112CD
:100373000125B1C804120125DAC604120125EBC612
:100383000412012550CA041201258FCA0412012543
:10039300E3CA0412012590C704120125A0C7041261
:1003A3000125BBC70412012523C804120125F0C38C
:1003B3000412012575C404120125DBC404120125AE
:1003C3000AC10412012533C1041201259EC104127E
:1003D3000125EFC1041201254AC204120125DFB22F
:1003E30004120125F4B20412012510B404120125EC
:1003F30084B4041201259EB404120125B5B4041279
:100403000125C8B404120125E2B404120125F9B48C
:10041300041201251FB50412012570B5041201252C
:10042300EC9B04120125039C041201257D9C0412FC
:100433000125619D04120125389F0412012540A363
:1004430004120125D0A3041201255CA40412012582
:10045300F5A40412012586A5041201258FA5041213
:1004630001250DA60412012520A60412012536A696
:100473000412012596A604120125A9A6041201253A
:100483000C2C00120125A22C00120125422D001272
:100493000125A12E00120125F82F00120125963007
:1004A30000120125C739001201250F410012012551
:1004B3003C4A00120125874B0012012538560012D1
:1004C3000125E756001201259658001201257C5993
:1004D30000120125BF590012012553FF0212012505
:1004E300C4FF02120125CFFF02120125DFFF021212
:1004F3000125EAFF02120125CABD041201251CBE13
:1005030004120125A6BE041201250DBF0412012504
:1005130013B0041201253DB0041201250BB10412DE
:100523000125E6B1041201256DB20412012554E23E
:10053300031201251BE30312012552E303120125D4
:100543007CE303120125DCE30312012532E40312E9
:10055300012597E4031201252FE5031201253EE649
:1005630003120125D5E70312012562E803120125D1
:10057300C9E803120125E0E803120125FAE9031291
:1005830001253CBA0412012579BA041201258FBA58
:1005930004120125BEBA04120125F4BA041201257E
:1005A3000BBB0412012522BB0412012555BB041207
:1005B30001258CBB04120125DFBB04120125F6BB08
:1005C300041201250DBC041201253FFE031201256F
:1005D30056FE0312012587FE03120125C2FE0312F4
:1005E3000125ECFE0312012516FF031201252DFF41
:1005F3000312012544FF031201255BFF03120125AA
:1006030084FF0312012597FF03120125ADFF031297
:100613000125C0FF03120125E7FF03120125A3A74C
:1006230002120125A7A802120125D4A8021201254E
:100633001FA9021201252AA9021201254DA902129E
:10064300012561A90212012590A90212012592A98F
:1006530002120125B5A902120125BBAA0212012526
:10066300FFAB02120125C3AC0212012598AD0212A1
:10067300012509AE0212012595AE0212012598AE9D
:100683000212012520AF021201255BAF02120125E0
:10069300C2AF02120125C5AF02120125FCAF02123F
:1006A300012525B002120125D0B0021201255AB14D
:1006B30002120125A9B102120125B6B102120125C8
:1006C300B9B10212012519B2021201251CB202129C
:1006D300012555B202120125A0B2021201251FB352
:1006E3000212012522B3021201256CB30212012565
:1006F3006FB302120125E6B302120125E9B3021218
:10070300012578B4021201257BB4021201250AB532
:10071300021201251AB5021201254AB5021201255A
:1007230057B5021201255AB502120125DBB5021293
:100733000125E8B502120125D6B60212012588B7B4
:1007430002120125D5C603120125CDC703120125C7
:1007530001C80312012583C803120125A3C803128C
:100763000125EBC8031201253EC903120125A2C9C5
:10077300031201252FCA03120125E9CA0312012519
:10078300F8CD0312012583CF03120125A6CF03124F
:100793000125509304120125ED94041201253D9582
:1007A300041201250D96041201256C9604120125ED
:1007B3007A9604120125A39604120125B2F10312BD
:1007C3000125DAF10312012508F2031201253FF294
:1007D300031201259DF2031201252BF403120125B7
:1007E30076F403120125C1F40312012501F5031266
:1007F300012547F50312012575F50312012532F68C
:10080300031201253CF60312012549F603120125C3
:100813007CF60312012548F70312012554F703124E
:1008230001256CF70312012576F703120125F4F76E
:1008330003120125EBC504120125F9C50412012594
:1008430011C60412012529C60412012541C604124A
:100853000125B7C70212012563C802120125DEC8AC
:1008630002120125FFC9021201253BCA021201250A
:10087300D5CA021201257ECB0212012565CC0212D4
:100883000125C9CD0212012520CE02120125A1CED8
:100893000212012591CF02120125DECF021201259A
:1008A30064D00212012596D002120125AAD20212A7
:1008B3000125ECD2021201250AD3021201258DD3A0
:1008C3000212012561D40212012529D50212012544
:1008D30036D702120125CFB103120125A2B20312AA
:1008E30001254BB30312012597B3031201254EB41F
:1008F3000312012567B40312012581B403120125F4
:1009030031B503120125BDB503120125A9B60312A2
:100913000125D8B603120125EBB70312012533B81D
:1009230003120125F4B80312012558B90312012556
:10093300BBB903120125EBB90312012565BA0312F2
:10094300012508BC0312012544BC0312012560BC28
:10095300031201252DC8041201259D9F04120125B0
:10096300B39F04120125D99F04120125F5A0041297
:100973000125FFA00412012534A2041201252CA392
:100983000412012536A30412012500800412012557
:10099300308104120125638104120125AD81041203
:1009A3000125748304120125D8D50112012551D6DE
:1009B3000112012561D601120125C3D601120125B9
:1009C30054D7011201253AD80112012566D8011224
:1009D3000125A3D801120125BAD80112012546D950
:1009E3000112012550D90112012562D901120125F5
:1009F3009AD901120125FDD9011201255CDA0112F0
:100A030001259FDA01120125AADA01120125B5DABF
:100A1300011201256CDB011201256FDB0112012597
:100A230072DB0112012575DB0112012578DB01124E
:100A3300012562DC01120125C5DC0112012527DD38
:100A430001120125C5DD01120125E5DE0112012593
:100A5300CCE00112012585E20112012561E30112B7
:100A6300012515E40112012552E70112012500E8D1
:100A7300011201256FE901120125EFEA0112012597
:100A830096EB01120125DFEB0112012516EC011291
:100A93000125B3EC011201253EED011201254FD7CB
:100AA30002120125A4D70212012503D9021201253E
:100AB30013D90212012540D9021201259CD9021231
:100AC3000125A3DA021201256DDB02120125CDDC1B
:100AD3000212012510DD02120125B5DD02120125E6
:100AE30002DE0212012528DE0212012536E002127F
:100AF30001253BE00212012540E2021201258DE2AD
:100B03000212012500E30212012533E3021201253B
:100B1300D5E3021201257EE402120125B6E4021296
:100B23000125B9E40212012501E50212012543E57D
:100B3300021201259AE50212012537AD041201259F
:100B43004AAD0412012558AD04120125A0AD0412CB
:100B53000125B6AD04120125FDAD0412012511AF27
:100B6300041201259EAF04120125E9AF04120125E9
:100B730024BD0112012534BD0112012597BD0112C7
:100B83000125DCBD0112012592BE011201256DBFB5
:100B93000112012596BF01120125C6BF01120125CD
:100BA30006C201120125EDC301120125C5C50112BB
:100BB300012509C70112012570C9011201257ECA49
:100BC30001120125D0CB01120125DACC0112012536
:100BD3001CCD0112012554CD0112012576CD011240
:100BE3000125D9CD011201259BD20112012535D34F
:100BF3000112012573D30112012592D3011201259C
:100C0300ECD301120125ECD40112012571D5011297
:100C130001251BEE0112012525EE01120125C9EE66
:100C2300011201250CEF0112012520EF011201250C
:100C330058EF01120125A1EF01120125CAEF01129C
:100C430001250FF00112012558F00112012580F052
:100C53000112012509F101120125C2F10112012539
:100C6300D8F10112012514F2011201253CF20112FF
:100C7300012574F201120125A7F201120125DEF20A
:100C830001120125FDF20112012526F301120125AE
:100C93009FF301120125B4F301120125C9F30112D7
:100CA3000125DEF30112012513F4011201254DF490
:100CB3000112012571F4011201253AF501120125F2
:100CC30050F5011201256FF50112012582F501127C
:100CD300012597F501120125ACF50112012522F634
:100CE3000112012536F6011201258EF601120125A6
:100CF3009DF601120125F9F60112012533F70112C0
:100D0300012568F70112012594F701120125C2F7A5
:100D130001120125F5F7011201250AF80112012537
:100D23001FF8011201254FF8011201259AF801124B
:100D33000125F9F8011201253AF90112012576F985
:100D430001120125A1F90112012510FA0112012551
:100D53004DFA0112012578FA01120125A8FA0112B0
:100D63000125D3FA01120125FDFA0112012534FBF5
:100D73000112012569FB01120125A6FB01120125C0
:100D8300D0FB0112012500FC011201252AFC0112EE
:100D9300012554FC011201257FFC01120125A8FC49
:100DA30001120125FFFC0112012541FD011201255C
:100DB3006CFD01120125D0FD01120125FAFD01127E
:100DC300012525FE0112012550FE0112012580FE99
:100DD30001120125C9FE01120125F3FE01120125AD
:100DE30018FF011201259FFF0112012584C204127D
:100DF3000125D7C204120125F9B70212012527B82C
:100E03000212012582B90212012562BA02120125DA
:100E130081BA02120125FEBA0212012541BB021258
:100E23000125BCBC021201252BBD0212012556BFB0
:100E330002120125DAC1021201258BC20212012519
:100E430081C30212012521C4021201251FC502120A
:100E5300012579C60212012504C70212012579C7AB
:100E6300021201256CBF04120125D5BF041201250E
:100E730029C0041201254BC00412012572C00412BB
:100E83000125A3C004120125C4C004120125E38E69
:100E930004120125508F04120125978F0412012596
:100EA300AF9004120125AB91041201258E92041216
:100EB3000125CB76001201250D7700120125DF777E
:100EC30000120125B87800120125B279001201251C
:100ED300947A00120125FD7A00120125947B0012F9
:100EE3000125B17B00120125CD7B00120125767C03
:100EF30000120125EA7C00120125567D001201250E
:100F0300597D00120125827D00120125FC7D00120E
:100F13000125957E00120125FA7E001201250F7F1F
:100F230000120125557F001201256E7F0012012555
:100F3300D37F00120125D67F00120125FEA90412DA
:100F430001253AAA0412012578AA0412012542AB0D
:100F530004120125B1AB04120125ECAB04120125E7
:100F63002AAC041201255AAC0412012581AC0412E7
:100F73000125EFAC041201254191011201253093A3
:100F830001120125F395011201252F960112012566
:100F93005C96011201254997011201258C970112D4
:100FA3000125D39701120125E59701120125259803
:100FB3000112012566980112012575980112012578
:100FC300A29801120125ED9801120125249901121D
:100FD30001257E9901120125A49901120125D899B1
:100FE30001120125FB9901120125999A011201258C
:100FF300D19A011201254B9B011201259D9B0112E0
:1010030001252A9C01120125A69E01120125D39FC9
:101013000112012540A001120125B8A001120125EA
:10102300CEA2011201250CA3011201257AA40112FB
:1010330001259BA401120125E0A401120125E0A5CD
:1010430001120125C6A70112012531A801120125AC
:1010530081A801120125B2AD0112012502AE0112D0
:10106300012540AE011201254DB00112012538B111
:1010730001120125CAB20112012502B30112012591
:10108300A4B30112012584B401120125B5B40112E0
:101093000125DFB40112012509B5011201253EB571
:1010A3000112012563B50112012582B50112012543
:1010B300AFB50112012525B601120125A6B601120D
:1010C3000125EEB60112012510B70112012532B830
:1010D30001120125F6B80112012527B901120125D4
:1010E3008AB901120125AFB9011201259BBA011278
:1010F3000125B7BA0112012563BB01120125EABB21
:101103000112012515BC011201255CBC0112012548
:101113009CBC01120125D5BC01120125F7BC0112AB
:101123000125A5B50412012517B6041201256DB6D4
:1011330004120125B1B604120125D1B6041201250A
:101143001EB70412012566B704120125B9B70412AC
:1011530001250AB804120125D1D00312012550D16B
:101163000312012512D70312012521D803120125E9
:1011730089D90312012520DA03120125E25900124D
:1011830001252B5A00120125585A001201258B5AAA
:10119300001201259B5A00120125A75A00120125AE
:1011A300B85A001201259F5B00120125FD5B001256
:1011B3000125325C00120125695C00120125AC5D3A
:1011C30000120125FF5D00120125505E001201256A
:1011D300BB5E001201255F5F001201251160001242
:1011E30001256F6000120125DF60001201253261C5
:1011F30000120125756200120125DB63001201252F
:10120300B26400120125C36400120125FF640012B9
:1012130001250F65001201252F6500120125326596
:1012230000120125006600120125D1660012012576
:101233007267001201252868001201255568001203
:101243000125A868001201251069001201256469AF
:10125300001201259D6900120125196A001201255A
:10126300C16A001201258C6B001201252E6C00123D
:101273000125A36C00120125066D00120125646D82
:1012830000120125956D001201253C6E0012012507
:101293008B6E00120125727000120125C1700012BD
:1012A30001250871001201258E71001201251672A5
:1012B300001201255D7200120125827200120125C0
:1012C300CD7200120125FD72001201254573001233
:1012D3000125BF7300120125037400120125147543
:1012E30000120125C3750012012524760012012581
:1012F300807600120125997600120125D5BC0312D0
:10130300012528BD0312012534BD0312012509BEA1
:101313000312012530BE031201256BBE0312012502
:10132300D7BE0312012513BF0312012549BF0312C0
:10133300012582BF031201259ABF03120125EFBFC6
:101343000312012508C00312012551C00312012510
:1013530064C0031201257EC00312012594C0031249
:101363000125C7C1031201250EC30312012510C4B1
:10137300031201250AC503120125012C00120125C0
:10138300278504120125968804120125CF890412AA
:101393000125CC9A03120125429D03120125489D84
:1013A30003120125B09F0312012517A20312012581
:1013B3001A8A04120125B08A04120125678B0412CC
:1013C3000125918B04120125848D04120125AC8E15
:1013D3000412012500800212012534800212012526
:1013E300598C02120125AD8D02120125B88E02120D
:1013F30001253890021201251A91021201255491F8
:1014030002120125779102120125B99102120125D9
:10141300C291021201250C920212012516920212A8
:101423000125C09202120125999302120125ED9321
:10143300021201254F9402120125A29402120125E2
:10144300D194021201250E95021201250D96021266
:1014530001257999021201257F9902120125059F21
:10146300021201257EA30212012554A702120125AF
:10147300ACA60412012522A70412012538A70412E1
:10148300012579A704120125B3A7041201252CA86D
:101493000412012567A804120125DAA80412012504
:1014A30018A90412012521A9041201252DA904124A
:1014B300012549A90412012574A9041201258AA949
:1014C30004120125CEA9041201254ADA03120125CB
:1014D3005DDA0312012577DA03120125A0DA03127C
:1014E3000125E3DA0312012522DB0312012560DB68
:1014F30003120125C5DB03120125DADB03120125E3
:10150300E5DB03120125F2DB0312012509DC0312DB
:10151300012517DC0312012526DC031201253BDC20
:101523000312012550DC031201255BDC03120125A4
:1015330067DC0312012574DC0312012587DC031227
:10154300012592DC03120125B7DC03120125BCDC63
:101553000312012556DD03120125BCDD031201250B
:10156300CCDD03120125E1DD03120125F6DD0312B3
:10157300012510DE031201252BDE0312012548DEAF
:101583000312012553DE031201250FDF0312012588
:10159300FBDF0312012517E0031201252EE00312DE
:1015A300012539E0031201254EE00312012562E013
:1015B30003120125C3E003120125C9E0031201252B
:1015C300CFE003120125D5E003120125E9E0031260
:1015D300012510E1031201254BE10312012564E10A
:1015E30003120125A4E103120125D7E1031201250A
:1015F300FDF4021201251FF502120125FFF5021267
:101603000125D6F80212012502FA0212012526FB52
:1016130002120125D8FB0212012579FC02120125D1
:1016230005800312012589800312012538810312E5
:101633000125978203120125B88403120125A4858D
:1016430003120125D98503120125FB850312012508
:10165300AA8603120125A28803120125CB8803124F
:1016630001255D89031201258F89031201259C89B8
:1016730003120125F38903120125198A0312012597
:10168300868C03120125898D03120125E18D031236
:10169300012587E60212012591E70212012578E868
:1016A3000212012582E8021201258CE802120125AB
:1016B300AEE802120125BAE80212012553EA02122A
:1016C300012582EA021201259EEB02120125F7EBA6
:1016D300021201255DED021201253CEE02120125E5
:1016E30098EE0212012505EF0212012540EF0212C6
:1016F30001257FEF0212012538F20212012552F271
:1017030002120125DEF202120125ECF2021201257A
:1017130045F30212012553F302120125C6F3021207
:1017230001252AF40212012574F402120125A1A64F
:1017330003120125C3A603120125E9A803120125FB
:10174300FEAB0312012516AD03120125C9AD031229
:101753000125ABAE0312012525BC041201254ABCA9
:1017630004120125BCBC0412012538EA0312012529
:1017730041EA031201254AEA0312012521EB031270
:101783000125D2EC0312012508ED0312012542EDD8
:101793000312012578ED03120125B2ED0312012591
:1017A300E6ED0312012512EE031201255BEE03128F
:1017B300012595EE03120125DEEE0312012536EF16
:1017C300031201256BEF03120125C6EF0312012556
:1017D30000F00312012551F00312012587F00312D3
:1017E3000125C1F003120125EFF00312012512F1C7
:1017F300031201252F8E03120125628E0312012588
:10180300A58E03120125B08E03120125BB8E031290
:101813000125C68E03120125D18E031201253D92A7
:10182300031201251093031201258A930312012544
:101833000194031201250E94031201251B94031234
:1018430001252594031201252F94031201254B949E
:10185300031201255B94031201259D9403120125B4
:10186300C39403120125CD9403120125D7940312C7
:101873000125E19403120125EE9403120125F89446
:10188300031201250295031201250C95031201256C
:101893001695031201256095031201257D95031208
:1018A30001259A9503120125AA9503120125B495E2
:1018B300031201250F96031201251C96031201251D
:1018C300E09603120125EA9603120125F49603120A
:1018D3000125FE96031201251B9703120125389754
:1018E30003120125FC970312012506980312012513
:1018F300139803120125209803120125419803121E
:1019030001254A980312012571980312012598981D
:1019130003120125BD9803120125C6980312012560
:10192300D59803120125ED9803120125F6980312A9
:1019330001250599031201251499031201251D9907
:10194300031201252C99031201253C990312012549
:101953005B990312012568990312012575990312F6
:101963000125859903120125929903120125A29954
:1019730003120125B29903120125C299031201250D
:10198300F49903120125FE99031201250E9A0312FD
:1019930001251E9A031201252B9A03120125509A41
:1019A300031201255D9A031201256D9A0312012585
:1019B300779A03120125849A031201258E9A031242
:1019C30001259E9A03120125A89A03120125B29AB2
:1019D30003120125C29A0312012599CA0412012593
:1019E300C5CA04E066701008A3E066700A08A3E0A5
:1019F30066700408A3E06622C3E7960809E7960821
:101A030009E7960809E79622C3E09608A3E096083B
:101A1300A3E09608A3E09622C008C3E096F5080861
:101A2300A3E096420808A3E096420808A3E096457F
:101A3300087001D3D00822080808EAC0E0EBC0E030
:101A430086F0E7A4FA180986F0E7A42AFA180986AB
:101A5300F0E7A42AFA180986F0E7A42AFA1986F00F
:101A6300E7A4FBE5F02AFA190886F0E7A42BFBE5C7
:101A7300F03AFA190886F0E7A42BFBE5F03AFA18D6
:101A8300180986F0E7A4C5F02BFBE43AFA1908E736
:101A9300C5F0C6A426F6E5F03BFBE43AFA1886F057
:101AA300E7A4F6E5F00826F6E43B08F6E43A08F680
:101AB300D0E0FBD0E0FA22E4CFC0E0E4CEC0E0E423
:101AC300CDC0E0E4CCC0E075F020C3E633F608E611
:101AD30033F608E633F608E633F6181818EC33FC49
:101AE300ED33FDEE33FEEF33FFC3EC9709ED9709BA
:101AF300EE9709EF97191919400FFFEC97FC09EDC1
:101B030097FD09EE97FE191906D5F0BEECF709ED1E
:101B1300F709EEF709EFF7191919D0E0FCD0E0FD4A
:101B2300D0E0FED0E0FF226016080808C6C313C643
:101B330018C613C618C613C618C613C6D5E0EA22BC
:101B43007009080808226016181818C6C333C60897
:101B5300C633C608C633C608C633C6D5E0EA22E68E
:101B630027F60809E637F60809E637F60809E637DF
:101B7300F622E026F608A3E036F608A3E036F608D8
:101B8300A3E036F622E026F008A3E036F008A3E04F
:101B930036F008A3E036F022C3E697F60809E69785
:101BA300F60809E697F60809E697F622C3E096F0E9
:101BB30008A3E096F008A3E096F008A3E096F022CD
:101BC300E657F60809E657F60809E657F60809E660
:101BD30057F622E056F608A3E056F608A3E056F6B9
:101BE30008A3E056F622E056F008A3E056F008A357
:101BF300E056F008A3E056F022E046F608A3E046DC
:101C0300F608A3E046F608A3E046F622E066F608E7
:101C1300A3E066F608A3E066F608A3E066F622E012
:101C2300F608A3E0F608A3E0F608A3E0F622E6F040
:101C330008A3E6F008A3E6F008A3E6F022E0FAA37F
:101C4300E0FBA3E0FCA3E0FD22EAF0A3EBF0A3ECAE
:101C5300F0A3EDF022CAC0E0E6F0A308DAFAD0E080
:101C6300FA22CAC0E0E0A3C582CCC582C583CDC534
:101C730083F0A3C582CCC582C583CDC583DAE6D004
:101C8300E0CA22C3E498F8E499F9121CC78026C37A
:101C9300E49AFAE49BFBE920E7E9121CC7E498F80D
:101CA300E499F922C3E498F8E499F9121CC7E4987B
:101CB300F8E499F9C3E49AFAE49BFB22EB20E7CF1B
:101CC300E920E7E0B90010BB0008E88AF084F8AA2D
:101CD300F022E4FBC8FA22EB70227B10C833C8C998
:101CE30033C9335007C39AC3DBF280069A50012AE3
:101CF300DBEAC833F4C8C933F4C9FA2275F008E43F
:101D0300C833C8C933C933C99AC99B5004C92AC93E
:101D13003BD5F0ECFBC833F4C8E4C9FA22600D08E4
:101D2300C6A2E713C618C613C6D5E0F322600C0893
:101D3300C6C313C618C613C6D5E0F42270042260C6
:101D43000D18C6C333C608C633C6D5E0F41822251A
:101D53001810AF08F518400215198008F51840024D
:101D63001519D2AF22C0D0251810AF08F5185002AC
:101D730005198008F51850020519D2AFD0D02225D5
:101D830018F58210AF08F518400215198008F518E8
:101D930040021519D2AF851983222518F582E4353F
:101DA30019F58322E4732518C582C0E0E51934FFD1
:101DB300C583C0E0E518C3958224F810AF08858376
:101DC300198582188008858319858218D2AFCEF0D1
:101DD300A3E520F0A37808E608F0A3DEFAEFF0A36A
:101DE300E58124FAF8E608F0A3E608F0A3E608F094
:101DF300A30808E608F0A3E608F0A315811581D02F
:101E0300E0FED0E0F8158115811581E8C0E0EEC051
:101E1300E0222518C582C0E0E51934FFC583C0E080
:101E2300E518C3958224F910AF08858319858218B4
:101E33008008858319858218D2AFCEF0A3E520F000
:101E4300A37808E608F0A3DEFAEFF0A3E58124FB0C
:101E5300F8E608F0A3E608F0A30808E608F0A3E60E
:101E630008F0A315811581D0E0FED0E0F8158115A7
:101E730081E8C0E0EEC0E022851983851882E0A3E3
:101E8300FEE0A3F5207808E0A3F608DFFAE0A3FF5D
:101E9300E0A3C0E0E0A3C0E0E0A3C0E0E0A3C0E0B3
:101EA300E0A3C0E010AF08858218858319800885F8
:101EB3008218858319D2AFD083D08202012285197B
:101EC30083851882E0A3FEE0A3F5207808E0A3F65B
:101ED30008DFFAE0A3FFE0A3C0E0E0A3C0E0E0A3D3
:101EE300C0E0E0A3C0E010AF0885821885831980A5
:101EF30008858218858319D2AFD083D08222C0D0BF
:101F03002518C582C0E0E51934FFC583C0E0E51894
:101F1300C3958224F310AF0885831985821880083E
:101F2300858319858218D2AFC8F0A3E9F0A3EAF03C
:101F3300A3EBF0A37908E709F0A3D8FAECF0A3ED3B
:101F4300F0A3EEF0A3EFF0A3D0E0F0A3D0E0F0A372
:101F5300D0E0F0A3E520F0A3E5F0F0A322851983F8
:101F6300851882E0C0E0A3E0F9A3E0FAA3E0FBA3B5
:101F73007808E0F608A3DFFAE0FCA3E0FDA3E0FEA7
:101F8300A3E0FFA3E0C0E0A3E0C0E0A3E0F5D0A39B
:101F9300E0F520A3E0A3F5F010AF0885831985824F
:101FA300188008858319858218D2AFD082D083D058
:101FB300E0F8D0E03274048006740280027401C039
:101FC300E0F404121D82D0E0121C58227404800431
:101FD30074028000CCC0E0EDC0E0E518C39CCCAD3A
:101FE3001950011D10AF068C188D1980068C188DA1
:101FF30019D2AF121C65D0E0FDD0E0FC22D083D013
:1020030082C5F0E493A3C5F0C395F0F5F0E493A380
:10201300C395F04005E5F0048001E475F002A425C2
:1020230082F582E5F03583F583E493A3C0E0E4937E
:10203300C0E022D083D082E9C0E0E493A3C386F05A
:10204300C5F095F0F908E493A386F0C5F095F07018
:102053000BE493A3C3994005E9048002A3E475F05C
:1020630002A42582F582E5F03583F583D0E0F9E417
:1020730093A3C0E0E493C0E022D083D082CCC0E03D
:10208300E493A360061220A61470FAE493A36006F7
:102093001220C51470FAD0E0FCE493A3C0E0E493EB
:1020A300C0E022C0E0E493A3D39C5010E493A3C305
:1020B3009C400AD0E0D0E0D0E0022099A3A3A3D0B3
:1020C300E022C0E0E493A36C7009D0E0D0E0D0E05C
:1020D300022099A3A3D0E022D083D082ECC0E0ED0C
:1020E300C0E0E493A3FCE493A3FDED4C600D122147
:1020F30027EC24FFFCED34FFFD80EFE493A3FCE425
:1021030093A3FDED4C600D122166EC24FFFCED342E
:10211300FFFD80EFD0E0FDD0E0FCE493A3C0E0E45A
:1021230093C0E022C0E0C3E4939608740193961829
:10213300400FE4936670080874019366187000708A
:1021430019A3A3C3E49396087401939618A3A34019
:102153000DD0E0D0E0D0E0022117A3A3A3A3A3A353
:10216300D0E022C0E0C0F088F0E493667008087401
:10217300019366187000A8F0A3A3700BD0F0D0E011
:0E218300D0E0D0E0022117A3A3D0F0D0E022DC
:10219400C2AF02000022C0E074F2121F01A2AFE439
:1021A40033FED2AFC2C0E5D1A2E4500653D1EF1240
:1021B400047AEEA2E092AF7F01021F60C0E074F2E5
:1021C400121F01A2AFE433FED2AFE589A2E15003AE
:1021D4001203D8758900C2C5EEA2E092AF7F010256
:1021E4001F60C0E074F2121F01A2AFE433FED2AF4D
:1021F400E58BA2E050031203D8758B00C2E880D8A7
:10220400C0E0C0D0E8C0E0E9C0E0E5A8D2AFC2C7F2
:10221400A2E7A2E792AFD0E0F9D0E0F8D0D0D0E0C6
:1022240032C0E0C0D0E8C0E0E9C0E0C008C009C0E6
:1022340082C083A2AFE433F9D2AF900477E0F8A36D
:10224400E0687008539AFBA374018026C2E99004E5
:1022540077E0F50874012508F074F72508F5827411
:10226400033400F583E0F5C1900477E0C394804023
:1022740002E4F0E9A2E092AFD083D082D009D00882
:10228400D0E0F9D0E0F8D0D0D0E03274F5121E15C9
:10229400EAFEEBFFEE2434F8EF3400F988088909EC
:1022A400EE24351223BBF8EE24371223BBF50AECD7
:1022B400850AF0A4FCAAF0850AF0EDA42AFDE82C16
:1022C400F8E43DF97A257B00121CC7EA850882856B
:1022D4000983F074075AF87401B800028004C33308
:1022E400D8FCFBEA131313541FF8EE28F8EF34005C
:1022F400F9E8245DF582E91223BE5B6003EA801CE1
:10230400EE24361223BBF5F0EA84A8F0EE28F8EFA9
:102314003400F9E82438F582E91223BEF97F040277
:102324001EC174F5121E15EAFEEBFFEE24341223CF
:10233400BBC0E0EE2435F582EF3400F583D0E0F045
:102344008E828F83A3A3A3A3A3E0FAA3E0FB8E82D0
:102354008F83A3A3A3A3A3A3A3E0FCA3E0FDECC3E7
:102364009AF50AED9BF50BEE247FF508EF3400F5A2
:1023740009850882F583E06401702BEE2480F582E0
:10238400EF3400F583121FD31223C47402121D68A4
:10239400E960137C997D0AEEFAEFFB12128485083A
:1023A40082850983E4F0AC0AAD0BEEFAEFFB12224E
:1023B4008F122BF3022321F582EF3400F583E02200
:1023C400C082C083851882851983E0F8A3E0F9C32D
:1023D400EA9CEB9D5010C3EC98ED99401BC3EA981E
:1023E400EB995014800EC3EA98EB994007C3EC981C
:1023F400ED994004790180027900D083D08222EAE9
:10240400C39CFAEB9DFB2274ED121E15900753E05A
:1024140064086005E06407702C9061C8E060269051
:102424000781E0F874FF68601CE875F005A4C8AA89
:10243400F02AF9748328FE740739FF8E828F83A3F0
:10244400A3A3E0700579000225B4EE2468F510EF2B
:102454003400F511906060E0851082851183F07579
:10246400082C75090B750A00750B00E5D914F50ED7
:10247400E5D95403F50F601CEE2482F50CEF34000B
:10248400F50D7403650F6058E50E6013EE246712B2
:1024940023BB700B793DEEFAEFFB1212B480A690C9
:1024A4000B27E064016026850C82850D83E06004BF
:1024B400780480027800850E0AE50AC398FA95E04C
:1024C400FB120F8A8A0A8B0BEA450B70061215BAA7
:1024D400022449850C82850D83E070048A088B09E7
:1024E40078008016E5D9C0E08812E5082512F58247
:1024F400E5093400F583D0E0F008E8C3950E40E424
:10250400850C82850D83E0602874FC250EF50E7819
:1025140008121FBCAC0EA90FEEFAEFFB1213747471
:1025240002121D68E9700AAA0AAB0B1204FE022407
:10253400987403650F6058850E0C750D00780C12A5
:102544001FBCAC08AD09AA0AAB0B121338740212F3
:102554001D68851082851183E0F8748068700575A4
:102564000C7F8002880CE50CF5087808121FC0E582
:102574000FF5087808121FC0A90EAC0AAD0B90071E
:1025840081E0FA7B00120DF27402121D68801C9027
:102594000753E06408AC08AD097009EEFAEFFB12CA
:1025A40013A48007EEFAEFFB12145E1215C679012C
:1025B4007F0C021EC174F3121E1574FC121D52EA24
:1025C400FEEBFF8908A2AFE433F509C2AFEE246342
:1025D400F50AEF3400F50B8010AA0AAB0B1212EACD
:1025E4001204FE900AA0E004F0850A82850B83E0C1
:1025F400F8A3E0F9E849602FE82402FAE93400FB83
:10260400EA2402F50CEB3400F50D780C121FBC8A99
:10261400828B83E0FCA3E0F9EEFAEFFB1212DE7486
:1026240002121D68E960B2900AA0E06057900AA106
:10263400E0F8900AA0E0C398500C74026508704456
:10264400900AA2E0603E8E828F83A3A3A3A3E085B9
:1026540018828519831226987402121D9DE8122689
:1026640098900A9FE028F07402121D9DAC82AD83FD
:10267400851882851983AA82AB837901120DFE9095
:102684000AA0E4F0E509A2E092AF7404121D687F89
:1026940006021EC1F0A3E4F0900AA0E0F8220000B4
:1026A4008521878522C622C0E074EF121F01A2AFE4
:1026B400E433FEC2AF759B00906182E0A2E0501249
:1026C400E591A2E0500C7591FE740165217003122E
:1026D400240BE0A2E55051E591A2E5504B7591DF42
:1026E400900753E064076005E06408702374016593
:1026F4002170357901900781E0FA75F005A4CAA824
:10270400F028FB74832AFA74073BFB1225B980185E
:10271400E0640D7013900775E004F064287002E41F
:10272400F07A00E0F91215E4906182E0A2E6400339
:102734000227D2E591A2E640030227D27591BF9009
:102744000753E0640570081214A01214AC8003123D
:1027540014A6752100121524E9900754F07900128B
:1027640015061211A07A017B00900752E0F91202BB
:10277400CA907803E064427055900B2BE014F0701B
:102784004DC2AF12278A00782AD0E0F618D0E0F6BE
:10279400E59F540770057509FF800375097FC4C060
:1027A400E07829E6F50808E65509F509740B780878
:1027B400121D30D0E02508F8906270E0A2E740F8DE
:1027C400E8C333906272F0906270E0D2E0F09061FE
:1027D40081E0A2E35009E5E9A2E3500375E9F7A318
:1027E400E0A2E75009E591A2E7500375917FEEA2BC
:1027F400E092AF7F04021F60C0E0C0D0C082C083FB
:10280400906183E0A2E05009E5BFA2E0500375BFE8
:10281400FEE0A2E15009E5BFA2E1500375BFFDE06F
:10282400A2E25009E5BFA2E2500375BFFBE0A2E3B8
:102834005009E5BFA2E3500375BFF7E0A2E45009D5
:10284400E5BFA2E4500375BFEFE0A2E55009E5BF80
:10285400A2E5500375BFDFE0A2E65009E5BFA2E69A
:10286400500375BFBFD083D082D0D0D0E032C0E057
:1028740074F2121F01E5A7A2E4500FE5A1A2E450EF
:102884000953A7EF75A1EF1228C6E5A7A2E5500CDE
:10289400E5A1A2E5500653A7DF75A1DFE5A7A2E1F4
:1028A4005009E5A1A2E1500375A1FDE5A7A2E250FC
:1028B4000CE5A1A2E2500653A7FB75A1FB7F010220
:1028C4001F6074F8121E15752101900753E0640609
:1028D40070077A007B00121488A2AFE433FED2AFF3
:1028E400900759E0640170187A207B00900752E049
:1028F400F912034E7A207B00900752E0F91202D0BD
:10290400906182E0D2E6F0900B28E0602185C62237
:102914008016900758E064017008E5C654F8440531
:10292400F5C653BEFC1226A47401652160E4EEA230
:10293400E092AF7F01021EC18E238F2485822885F9
:102944008327851882851983E0CEA3E0CF8528826A
:10295400852783EBC9EAC8EDCBECCA75F010C3E850
:1029640033C8E933C9EA33CAEB33CBC3EA9EF5264D
:10297400EB9FF525B35004AB25AA26EC33CCED33FD
:10298400CDD5F0DAAE23AF242274F1121E158A08D5
:102994008B098C0A8D0B9090E67808121BD6740F65
:1029A400121D9D780C121C229090E6780C121BD6F6
:1029B4007808790C1219FB9090C250107808790CA1
:1029C400121B9B7808121A1B4014800E780C79088D
:1029D400121B9B780C121A1B500479018002790097
:1029E4007F08021EC174ED121E158A088B098C0A19
:1029F4008D0B9090E67808121BD67413121D9D78E7
:102A04000C121C229090E6780C121BD6780C7908D4
:102A14001219FB40117808790C121B9BAA08AB0908
:102A2400AC0AAD0B8022751000751100751200758B
:102A340013017810790C121B9B78107908121B6211
:102A4400AA10AB11AC12AD137F0C021EC19090E61C
:102A54007808121C228A828B837808121BE97F046F
:102A6400021EC174F5121E158C828D837808121C07
:102A7400228A828B837808121BAF122ABBC3E09888
:102A8400F0A3E099122AAD401E90910E7808121C12
:102A9400228A828B837808121B888E828F83E0249B
:102AA40020F0A3E0344EF080A4F08E828F83C3E044
:102AB4009420A3E0944E22EA2404F8EB3400F9E8CD
:102AC400FEE9FF8C828D83A3A3A3A3E0F8A3E0F91E
:102AD4008E828F832274F5121E15E9FE900AB4E0EB
:102AE400FAA3E0FBEEC333F8E433F9741328F58258
:102AF400749039F583E02AF508A3E03BF5097808DA
:102B0400121FBC9090D2121C4012293C7402121D58
:102B1400688A088B098C0A8D0B74107808121B2A9A
:102B2400AA08AB097F04021EC174F1121E158A0C97
:102B34008B0D8C0E8D0F740F121D9DE0FAA3E0FB1C
:102B44007411121D9DE0F508A3E0F5097808121F21
:102B5400BCEA2401F508EB3400F509E4F50AF50BA9
:102B6400780C7908121A3A9090CE7808121C2278C0
:102B74000C7908121A3AAA0CAB0DAC0EAD0F12293F
:102B84003C7402121D688B09EA450960047A0180CD
:102B9400027A00EC2AFCED3400FD7413121D9DE052
:102BA400F8A3E0F9E8FEE9FFECF8EDF97A717B02AD
:102BB400121CC788088909E4F50AF50B8E828F83F5
:102BC4007808121C31ECF8EDF97A717B02121CC7FB
:102BD4008A088B0974057808121D3F8E828F83A39F
:102BE400A3A3A3E508F0A3E509F07F08021EC1C072
:102BF40082C083E9906000F0D083D0822202012257
:102C0400FFFFFFFFFFFFFFFF74F7121DA9E9900408
:102C14007DF012181290047DE0F912095A1209A8E5
:102C240090047DE0F91209AE90047DE0F9120B7076
:102C340090910E121C4012099090910E121C401299
:102C44000B8E7AAF7B1012026A7CAF7D1079001272
:102C5400098A7CC47D107A02790112098A79017A81
:102C6400517B901203E479027A437B901203E47956
:102C7400037A5E7B901203E47CE67D047A10790289
:102C840012057C7CF67D047A10790312057C7C7E27
:102C94007D047A04790412057C7F01021E7B74F49E
:102CA400121DA98A088B09EB5480607290047DE0A0
:102CB400F91202B28A0A8B0BAE0AAF0BEE4F6056C2
:102CC4008E828F83E0246F600924FE703C12048C92
:102CD400803AA3E0640E70378E828F83A3A3A3A3EC
:102CE400A3121FD3EE24FDF582EF34FFF583E02415
:102CF400F9FC8E828F83A3A3A31240CFFB790E121B
:102D04000E1C7402121D6880061204B0E96007EEFE
:102D1400FAEFFB12029AAA08E50964808016EB54C4
:102D24004060147C7E7D047A047904120576AA0836
:102D3400E5096440FB80047A007B00024B8274F452
:102D4400121DA974F9121D52EAFEEBFF8518828543
:102D54001983E4125446F8A3E0F988828983E0C019
:102D6400E07401121D9DD0E012549CA882A983E056
:102D7400FCA3E0FBECFA7402121D9DEAF0A3EBF055
:102D8400E82402F8E91253B6C0E07404121D9DD081
:102D9400E012549C08A9837405121D9D1249F27413
:102DA40002121D9DE0F508A3E085080AF50B7407DF
:102DB400780A121D30780A1220360100044D2ECDF7
:102DC4002DE02DF32D102E2D2E7401121D9DAA829F
:102DD400AB83E508547FF912049880687401121DCE
:102DE4009DAA82AB83E508547FF912049E80558521
:102DF4001882851983AC82AD837401121D9DAA8249
:102E0400AB83E508547FF91204A4803885188285C1
:102E14001983AC82AD837401121D9DAA82AB83E534
:102E240008547FF91204AA801B851882851983AC83
:102E340082AD837401121D9DAA82AB83E508547F81
:102E4400F9120492E9F5088003750801EEFAEFFB24
:102E540012029A9004AE747FF0A37406F0E508A3FE
:102E6400F07402121D9DE09004B1F07402121D9DD5
:102E7400A3E044FC9004B2F0851882851983E090A5
:102E840004B3F07CAE7D04851882851983E02406A2
:102E9400FA79FF120E2279007407024B7F74EB1249
:102EA4001DA98A828B83ECFEEDFFA3A3A3A3E0F507
:102EB4000AA3E0F50B8E828F83E41259738582088E
:102EC400858309E914600C146055147003022FCC37
:102ED400022FD2850A82850B83E0F9850882850951
:102EE40083E0FAC394325010E924FE601014600D9C
:102EF40014700574046A600A7A02022FD474106A8A
:102F040070F67CB47D0412057CE9FA6003022FD4C8
:102F1400850882850983E08E828F83F0022FD48511
:102F24000A82850B83E0F50C850882850983E0FA23
:102F3400E50C24FE600D14600A1470BC74046A70FD
:102F4400B7800574106A70B0E50A2402FEE50B34FC
:102F540000FFEEFCEFFDA90C120576E9FA74046596
:102F64000C706D8E828F83E0F50CE4F50DF50EF593
:102F74000F850A82850B83A3A3122FE8121B4378C3
:102F84000C7910121B62850A82850B83A3A3122F6E
:102F9400DB121B43780C7910121B62850A82850BA5
:102FA40083A3A3A3A3A3E0F508E4F509F50AF50BAD
:102FB40074187808121B43780C7908121B62900469
:102FC4007E780C121C31800812036C022EFC7A01EC
:102FD400EAF97F0D021E7BA3A3E0F510E4F511745A
:102FE40010781022A3E0F510E4F511F512F513742E
:102FF4000878102274F4121DA974F4121D52890861
:103004008A828B83A3A3A3A31253F9E0FEA3E0FD5A
:10301400EE2400E43DFFE82402FCE93400FDE50869
:1030240024F6602624F87044123077121FBC740210
:10303400121D9DAA82AB83120EF47402121D68E95C
:10304400702C12308B120E7C8024123077121FBC2D
:103054007402121D9DAA82AB83120EE27402121D29
:1030640068E9700A12308B120E7680027901740CB2
:10307400024B7F8A828B83A3A3A3E024FEF50AE498
:1030840034FFF50B780A2290047D1239A5EEFAEF8D
:10309400FB2274EE121DA974E7121D52890C8A0ECC
:1030A4008B0F8A828B83A3A3A3A31240B98C828D36
:1030B400831240CFF9EA2400F50AE439F50B7508C8
:1030C4003C750991EC2403FAED3400FBEC2402FE78
:1030D400ED3400FFE50C122000011D4A391D315565
:1030E400319331CB311B325332F6322E3302343A20
:1030F400347834B034EE34263564359C352E366657
:1031040036DC364A394A390A37A737DF3763384A53
:103114003991384A39CD381D398518828519838506
:1031240082088583097808121FBC1239B212062A54
:103134007402121D68E9F50D600302394D85188289
:10314400851983AC82AD83AA0AAB0B1205CA023976
:103154004585188285198385820885830978081234
:103164001FBC850E82850F831240FB121FBC0C0C02
:10317400EFFD7A0079001206367404121D68E9F531
:103184000D600302394D12399A1209B4023945858A
:1031940018828519838582088583097808121FBCE3
:1031A4001239B21206427402121D68E9F50D600369
:1031B40002394D851882851983AC82AD83AA0AAB86
:1031C4000B1205D00239458518828519838582083A
:1031D4008583097808121FBC850E82850F831240EF
:1031E400FB121FBC0C0CEFFD7A00790012064E7422
:1031F40004121D68E9F50D600302394D7402121DB5
:103204009D121FD390047DE0F97402121D9D1239A2
:10321400821209D80233F1851882851983858208C0
:103224008583097808121FBC1239B212065A740237
:10323400121D68E9F50D600302394D851882851960
:1032440083AC82AD83AA0AAB0B1205D6023945853D
:1032540018828519838582108583117810121FBC0A
:1032640012396C121FBC0C0CEFFD7A0079001206A7
:10327400667404121D68E9F50D600302394D740487
:10328400121D9D12395A121FBC7407121D9D85828E
:103294000E85830F780E121FBC7C027D00AA08AB3A
:1032A400091207387404121D68E9700302385D8539
:1032B4001882851983E064017002A3E06003023878
:1032C4005D7402121D9DE0F47003A3E0F460030238
:1032D400385D1240E6121FC07408121D9DE0F97497
:1032E40009121D9DAC82AD83AA0AAB0B1209C00260
:1032F400391685188285198385820885830978089B
:10330400121FBC1239B21206727402121D68E9F55A
:103314000D600302394D851882851983AC82AD8313
:10332400AA0AAB0B1205DC0239458518828519837C
:103334008582088583097808121FBC850E82850F53
:10334400831240FB121FBC0C0CEFFD7A00790012B3
:10335400067E7404121D68E9F50D600302394D748C
:1033640004121D9D123963121FBC7407121D9D8522
:1033740082088583097808121FBC7C027D007A2E9E
:103384007B911207387404121D68E9601A740212E2
:103394001D9D121FD390047DE0F97402121D9D122D
:1033A40039821209C680467404121D9D12396312B3
:1033B4001FBC7407121D9D85820885830978081235
:1033C4001FBC7C027D007A2C7B9112073874041296
:1033D4001D68E960207402121D9D121FD390047DA4
:1033E400E0F97402121D9D1239821209CC74021282
:1033F4001D6802394512399A1209E40239458518C3
:10340400828519838582088583097808121FBC1276
:1034140039B212068A7402121D68E9F50D600302BE
:10342400394D851882851983AC82AD83AA0AAB0B0A
:103434001205E2023945851882851983858208853B
:1034440083097808121FBC850E82850F831240FB06
:10345400121FBC0C0CEFFD7A00790012069674045E
:10346400121D68E9F50D600302394D12399A1209EB
:10347400DE0239458518828519838582088583098A
:103484007808121FBC1239B21206A27402121D6807
:10349400E9F50D600302394D851882851983AC82E4
:1034A400AD83AA0AAB0B1205E8023945851882855B
:1034B40019838582088583097808121FBC850E82CA
:1034C400850F831240FB121FBC0C0CEFFD7A0079B0
:1034D400001206C07404121D68E9F50D6003023978
:1034E4004D12399A1209EA023945851882851983E1
:1034F4008582088583097808121FBC1239B2120626
:10350400CC7402121D68E9F50D600302394D85186B
:1035140082851983AC82AD83AA0AAB0B1205EE0235
:103524003945851882851983858208858309780839
:10353400121FBC850E82850F831240FB121FBC0C28
:103544000CEFFD7A0079001206D87404121D68E9A4
:10355400F50D600302394D12399A1209F00239450A
:103564008518828519838582088583097808121F46
:10357400BC1239B21206E47402121D68E9F50D603A
:103584000302394D851882851983AC82AD83AA0A5A
:10359400AB0B1205F402394585188285198385829F
:1035A400108583117810121FBC12396C121FBC0CC9
:1035B4000CEFFD7A00790012067E7404121D68E98E
:1035C400F50D600302394D7404121D9D12395A120F
:1035D4001FBC7407121D9D85820E85830F780E1201
:1035E4001FBC7C027D00AA08AB09120738740412C0
:1035F4001D68E9700302385D851882851983E064CB
:10360400017002A3E0600302385D7402121D9DE0A4
:10361400F47003A3E0F4600302385D90047DE0F9E4
:10362400AA0AAB0B1209BA02394585188285198397
:103634008582088583097808121FBC1239B21206E4
:10364400F07402121D68E9F50D600302394D851806
:1036540082851983AC82AD83AA0AAB0B1205FA02E8
:1036640039458518828519838582088583097808F8
:10367400121FBC850E82850F83A3A3A3E024FC1232
:103684004105121FBCEC2404FCED3400FD8A828B3E
:1036940083E0FA8E828F83E0F91206A87404121D67
:1036A40068E9F50D600302394D7418121D9DE07030
:1036B4000912399A120A020239457417121D9D1211
:1036C4004945AC82AD83AA0AAB0B70061209F60217
:1036D40039451209FC02394585188285198385828A
:1036E400088583097808121FBC1239B21206B47413
:1036F40002121D68E9F50D600302394DAA0AAB0BED
:103704001206000239458518828519838582088549
:1037140083097808121FBC850E82850F831240FB33
:10372400121FBC0C0CEFFD7A0079001206FC740425
:10373400121D68E9F50D600302394D900507125416
:1037440010700F7A737B0012030C900507EAF0A344
:10375400EBF09005071254106043900506E0C39403
:1037640005400302385DE0F9740129F07508177506
:1037740009007808121FBC7402121D9DAC82AD832F
:10378400E975F017A4F8A9F0900507E028FAA3E07A
:1037940039FB1202707402121D6802394D750D1343
:1037A40002394D85188285198385820885830978B5
:1037B40008121FBC1239B21207087402121D68E9FC
:1037C400F50D600302394D851882851983AC82ADED
:1037D40083AA0AAB0B12060602394585188285199D
:1037E400838582088583097808121FBC850E82852B
:1037F4000F831240FB121FBC0C0CEFFD7A01790001
:103804001207147404121D68E9F50D600302394DA2
:1038140090050712541060411240E6121FC0740153
:10382400121D9D1240E9121FC0900506E0F9900593
:1038340007123982120A0E7402121D68E9F50D602E
:103844000A9005071240CFFB120312900507E4F01B
:10385400A3F0900506F002394D750D0202394D852D
:1038640018828519838582088583097808121FBC0C
:103874001239B212071A7402121D68E9F50D6003B9
:1038840002394DAA0AAB0B12060C0239458518827F
:103894008519838582088583097808121FBC12392B
:1038A4008A121FBC0C0C0CEBFD7A0079001207265F
:1038B4007404121D68E9F50D600302394D8E828F80
:1038C4008312399D120ADA807885188285198385D6
:1038D40082088583097808121FBC12398A121FBC1A
:1038E4000C0C0CEBFD7A0079001207267404121DEF
:1038F40068E9F50D70531240E6121FC08E828F8363
:10390400E0F97401121D9DAC82AD83AA0AAB0B12BF
:103914000AD47401121D688028851882851983854C
:1039240082088583097808121FBC1239B212072C49
:103934007402121D68E9F50D700FAA0AAB0B12058B
:10394400C4E9F50D8003750D01A90D1204D4741991
:10395400121D680256E2E0F50E750F00780E22E0A3
:10396400F508750900780822850E82850F83A3A3C4
:10397400A3E024FEF50EE434FFF50F780E22124086
:10398400B9AA0AAB0B22850E82850F83A3A3A3E0F9
:1039940024FD1241052290047D1239A5AA0AAB0B1D
:1039A40022E0F9851882851983AC82AD8322850EC5
:1039B40082850F83A3A3A3E024FEFCE434FFFD1A55
:1039C400EFFB2274EA121DA974E0121D52890E8ABB
:1039D400828B83A3A3A3A3E0F508A3E0F5098508DC
:1039E40082F583E0FCA3E0F9EC2400F50CE439F55E
:1039F4000DE5082405F512E5093400F513E508245E
:103A040004F510E5093400F511E5082402FEE50982
:103A14003400FFE5082403F50AE5093400F50BE555
:103A24000E12207C0016026E3A04743B06B93A0862
:103A3400323B0AC63B0C4A3C0E8C3C10B03A125046
:103A44003D16923D1B0C401D524030D83A32D83AB4
:103A540034083C36CE3C380F3D3A553E3C463F3E5A
:103A6400883F40CA3F42923DA7407407121D9D857E
:103A740082088583097808121FBC1240F7121FBC04
:103A8400EEFCEFFD7A0079001206367404121D680C
:103A9400E9F50A60030240AA1240DE121D9DAC82C1
:103AA400AD83AA0CAB0D1209B40240A21240D41289
:103AB40009BA0240A21240E6121FC08A828B83A375
:103AC400A3A3E024FEF9EEFCEFFDAA0CAB0D120952
:103AD400C002409D1240BF7404687001E960030293
:103AE4003F408E828F83E0FA850A82850B83E0F95A
:103AF400EA2400FCE439FD851082851183E0FA850F
:103B04001282851383E0F9EAF508E439F509743083
:103B1400650E7808700C121FBC1240D41209C6023C
:103B24003BBE121FBC1240D41209CC023BBE740728
:103B3400121D9D8582088583097808121FBC1240D6
:103B4400F7121FBCEEFCEFFD7A00790012067E74BA
:103B540004121D68E9F50A60030240AA1240DE124D
:103B64001D9DAC82AD83AA0CAB0D1209D20240A2FA
:103B74007407121D9D8582088583097808121FBC6D
:103B84001240F7121FBCEEFCEFFD7A00790012061A
:103B94004E7404121D68E9F50A60030240AA740910
:103BA400121D9D121FD390047DE0F97409121D9D0E
:103BB4001240B9AA0CAB0D1209D87402121D680286
:103BC40040A27407121D9D85820885830978081216
:103BD4001FBC1240F7121FBCEEFCEFFD7A00790007
:103BE4001206967404121D68E9F50A60030240AADD
:103BF4001240DE121D9DAC82AD83AA0CAB0D1209DE
:103C0400DE0240A27407121D9D858208858309780F
:103C140008121FBC1240F7121FBCEEFCEFFD7A0025
:103C2400790012067E7404121D68E9F50A60030225
:103C340040AA1240DE121D9DAC82AD83AA0CAB0DCE
:103C44001209E40240A27407121D9D85820885832F
:103C5400097808121FBC1240F7121FBCEEFCEFFDDE
:103C64007A0079001206C07404121D68E9F50A602E
:103C7400030240AA1240DE121D9DAC82AD83AA0C41
:103C8400AB0D1209EA0240A27407121D9D85820839
:103C94008583097808121FBC1240F7121FBCEEFC82
:103CA400EFFD7A0079001206D87404121D68E9F554
:103CB4000A60030240AA1240DE121D9DAC82AD834D
:103CC400AA0CAB0D1209F00240A27407121D9D85C7
:103CD40082088583097808121FBC1240F7121FBCA2
:103CE400EEFCEFFD7A0179001206A87404121D6837
:103CF400E9F50A60030240AA7407121D9DAC82AD67
:103D040083AA0CAB0D1209F60240A27407121D9D82
:103D14008582088583097808121FBC1240F7121F98
:103D2400BCEEFCEFFD7A0179011206A87404121DA1
:103D340068E9F50A60030240AA7407121D9DAC826B
:103D4400AD83AA0CAB0D1209FC0240A27407121D2C
:103D54009D8582088583097808121FBC1240F712DA
:103D64001FBCEEFCEFFD7A0079001206A874041261
:103D74001D68E9F50A60030240AA1240DE121D9D87
:103D8400AC82AD83AA0CAB0D120A020240A28A8255
:103D94008B83A3A3A3E0FA24FEF8E434FFF9C3E879
:103DA4009405E99400A2D265D0335003023F4074D5
:103DB400FA2AF5147404121D9DE514F0FA7B00121E
:103DC400030C7405121D9DEAF0A3EBF07405121D9B
:103DD4009DE0FA4B7003023F348E828F8312494D6B
:103DE4008518828519831249F3851082851183E031
:103DF400FC851282851383E0F9ECF87402121D9D90
:103E04001249F27404121D9DE0F50A750B00780A3C
:103E1400121FBCE5082406FCE5093400FD120270FB
:103E24007402121D687416650E90047D70081240A9
:103E3400EF120A0880061240EF120A26E9F50AE595
:103E44000A70030240AA7405121D9D1240CF023F5E
:103E54002D1240BFC3E89401E99400A2D265D03387
:103E64005003023F408E828F83E0F50F74FF250FCD
:103E7400C394054003023F3AE50F75F017A4FAAB6B
:103E8400F012030C8A088B09AE08AF09EE4F7003D9
:103E9400023F34850A08850B09751000805985088E
:103EA40082850983E02404F512A3858208858309A9
:103EB400E51075F017A4F8A9F0EE28F50AEF39F526
:103EC4000B780A121FBC85120A750B00780A121FA0
:103ED400BCAC08AD097A0079001206FC7404121D0A
:103EE40068E9F50A60030240AAE5082512F508E529
:103EF400093400F5090510E510C3950F40A01240E0
:103F0400E6121FC07508017808121FC0A90FEEFC45
:103F1400EFFDAA0CAB0D120A0E7402121D68E9F52E
:103F24000A70030240AAEEFAEFFB1203120240AA3F
:103F3400750A130240AA750A020240AA750A04020D
:103F440040AA7407121D9D8582088583097808128A
:103F54001FBC1240F7121FBCEEFCEFFD7A00790083
:103F64001206967404121D68E9F50A60030240AA59
:103F74001240DE121D9DAC82AD83AA0CAB0D120A59
:103F8400140240A27407121D9D8582088583097856
:103F940008121FBC1240F7121FBCEEFCEFFD7A00A2
:103FA40079001206C07404121D68E9F50A60030260
:103FB40040AA1240DE121D9DAC82AD83AA0CAB0D4B
:103FC400120A1A0240A27407121D9D858208858375
:103FD400097808121FBC1240F7121FBCEEFCEFFD5B
:103FE4007A0079001206A87404121D68E9F50A60C3
:103FF400030240AA1240DE121D9DAC82AD83AA0CBE
:10400400AB0D120A200240A27407121D9D8582087E
:104014008583097808121FBC8A828B831239901217
:104024001FBCAC0AAD0B7A00790012072674041287
:104034001D68E9F50A706F8E828F831240E1121DAC
:104044009DAC82AD83AA0CAB0D120ADA80507407C2
:10405400121D9D8582088583097808121FBC8A82F7
:104064008B83123990121FBCAC0AAD0B7A00790015
:104074001207267404121D68E9F50A70291240E635
:10408400121FC08E828F83E0F97408121D9DAC82CA
:10409400AD83AA0CAB0D120AD47401121D68E9F5A4
:1040A4000A8003750A01A90A1204D47420121D6837
:1040B4007F0E021E7BE0FCA3E0FD228A828B83A399
:1040C400A3A3E024FEF8E434FFF922E0FAA3E022FB
:1040D40090047DE0F9AA0CAB0D2290047DE0F97404
:1040E400072290047DE0F5087808221239A5AA0C6D
:1040F400AB0D228A828B83A3A3A3E024FE12410585
:1041040022F508E434FFF50978082274EA121DA99F
:1041140074A5121D528C0C8D0D8A828B83A3A3A3CC
:10412400A3E0FEA3E0FF750E00EE2402F50AEF34CF
:1041340000F50B8E828F83A3858208858309E9703D
:10414400030241DD24FD70030242E51470030243BF
:104154003914700302437C1470030244381470034E
:104164000244981470030244AF147003024387148A
:10417400700302441F1470030244BA14700302470C
:10418400C814700302485C14700302474A14700395
:104194000246B71470030246AE1470030243DD24D2
:1041A400E170030247D91470030248051470030236
:1041B400484A1470030248651470030248DB147003
:1041C400030248ED1470030249001470030248F519
:1041D4001470030249000249058E828F83E0F514AE
:1041E4007C107900AA0AAB0B1202EEE9701B750C65
:1041F40010750D00780C121FBCAC0AAD0B7AE67B6F
:10420400041202707402121D68EE2412F50AEF34CF
:1042140000F50B7C107900AA0AFB1202EEE9701B70
:10422400750C10750D00780C121FBCAC0AAD0B7A1E
:10423400F67B041202707402121D68EE24221253DB
:10424400CEF50CE4F50DF50FEE2423F582EF1253B1
:10425400C7122FE9121B43780C7910121B62EE244B
:1042640024F582EF1253C7122FDD121B43780C7909
:1042740010121B62EE2425F582EF1253C712493A3D
:10428400121B43780C7910121B62E50C450D450E88
:10429400450F600890047E780C121C31750A7E75F7
:1042A4000B04780A121FBC750AF6750B04780A12FF
:1042B4001FBC7CE67D04850882850983E0FBAA1483
:1042C40090047DE0F91203727404121D68E9F50E7E
:1042D40090047DE0FC7D007A267B001207BC024935
:1042E40008750A00750B00740A121D9DAC82AD831B
:1042F40075839075829A7406121C65750C06F50D0B
:10430400780C121FBC740C121D9DAC82AD83AA08DC
:10431400AB091202827402121D68E9640160068509
:10432400080A85090BAA0AAB0B8E828F83E0F91267
:1043340007D40248F090047DE0C0E07410121D9D83
:10434400D0E01249DFE0C0E07411121D9DD0E012EC
:104354004A06C0E07412121D9DD0E01249D6E0C096
:10436400E07413121D9DD0E0F07410121D9DAA82FA
:10437400AB831207440248F090047DE0F912074A27
:104384000248F090047D1249451249DFE0C0E07410
:1043940001121D9DD0E0124A06C0E07402121D9D58
:1043A400D0E0124A1DC0E07403121D9DD0E0124AF1
:1043B40011121FBCEEFCEFFD7406121D9DAA82AB08
:1043C400831202707402121D68851882851983AAEB
:1043D40082AB831207920248F012495985188285EC
:1043E40019831249F8FAA3E0F9EAF87402121D9D40
:1043F400124A2A7404121D9D124A2A7406121D9D23
:10440400124A2A7408121D9D1249F28518828519D0
:1044140083AA82AB8312079E0248F0850A82850B29
:1044240083E0FC124963E439FB90047DE0F912084F
:10443400520248F08E828F83124945124A06C0E028
:104444007401121D9DD0E0124A11121FBCEEFCEF44
:10445400FD7404121D9DAA82AB83120270740212B1
:104464001D68EE240612492BC0E07408121D9DD06D
:10447400E01249D6E0C0E07409121D9DD0E0F08539
:104484001882851983AA82AB8390047DE0F912080F
:10449400D60248F0AC0AAD0BE0FB8E828F83E0FAC3
:1044A40090047DE0F91208DC0248F090047DE0F904
:1044B4001208E20248F0750C00750D007C187D00AE
:1044C40079007414121D9DAA82AB831202881249CA
:1044D40059F87414121D9DE81249F8C0E0741612BC
:1044E4001D9DD0E01249D6AE82AF83E0C0E07417C0
:1044F400121D9DD0E01249D60EAF837508107509C0
:10450400007808121FBCEEFCEFFD741A121D9DAA60
:1045140082AB831202707402121D68124928C0E033
:104524007428121D9DD0E0124A1DC0E0742B121D88
:104534009DD0E01249E5A30E0EAF83A2E0E433FC64
:10454400EAA2E15004D2F08002C2F0A2F0E433F80F
:10455400EAA2E25004D2F08002C2F0A2F0E433F501
:1045640008EAA2E35004D2F08002C2F0A2F0E433DD
:10457400F50A750B00EAA2E45004D2F08002C2F0FE
:10458400A2F0E433F50E750F00EAA2E55004D2F070
:104594008002C2F07429121D9D124982121D3F121D
:1045A400490F121D3FEA450A54EFFA7404780E12BB
:1045B4001D3FEA450E12491A121D3FEA4508F874D8
:1045C40029121D9D1249F28E828F83E0A30EAF83C0
:1045D400700302469BE0C0E0740A121D9DD0E012F5
:1045E4004A1DC0E0740B121D9DD0E0124A1DC0E0AC
:1045F400740C121D9DD0E0124A1DC0E0740D121DF2
:104604009DD0E01249E5A2E0E433FCEAA2E15004C3
:10461400D2F08002C2F0A2F0E433F8EAA2E250043D
:10462400D2F08002C2F0A2F0E433F508EAA2E3502B
:1046340004D2F08002C2F0A2F0E433F50AEAA2E464
:104644005004D2F08002C2F0A2F0E433F50CEAA2E6
:10465400E55004D2F08002C2F0740E121D9D12497E
:1046640082121D3F12490F121D3FEA450A54EFFA08
:104674007404780C121D3FEA450C12491A121D3FAE
:10468400EA4508F8740E121D9D1249F2740A121DAF
:104694009D85820C85830DAC0CAD0D7414121D9D8B
:1046A400AA82AB8312085E0248F0124969120864B8
:1046B4000248F01249A0121FBCEEFCEFFD74421236
:1046C4001D9DAA82AB831202707402121D68EE242F
:1046D40010FEEF3400FF8E828F831240CFF9EAF888
:1046E4007450121D9D1249F2EE2402FEEF3400FFB5
:1046F400750C08780C121FBCEEFCEFFD7454121DEF
:104704009DAA82AB831202707402121D688E828F7E
:1047140083A3A3A3A3A3A3A3A3E0C0E0745A121D7D
:104724009DD0E0F0750B01780B121FC07441121D6F
:104734009DAC82AD83A90AAA08AB0912087674015C
:10474400121D680248F01249A0121FBCEEFCEFFDD6
:10475400742E121D9DAA82AB831202707402121D64
:1047640068124928F50CE4F50F122FE8121B437860
:104774000C7910121B628E828F83122FDB121B4363
:10478400780C7910121B628E828F83A3A3A3124923
:104794003A121B43780C7910121B62743C121D9D53
:1047A400E50CF0A3E50DF0A3E50EF0A3E50FF0741E
:1047B4002C121D9DAC82AD83A90AAA08AB0912086C
:1047C400580248F0124963FCE439FDAA0AAB0B1203
:1047D400086A0248F08E828F83E0FA7B00850882A3
:1047E40085098312494D2400E439FDEA64267003E7
:1047F400024900EA942740030249001207BC024818
:10480400F078FF79FF8E828F83E0FA7B00F46020DA
:10481400EA6426601BEAC3942750151207C28A086B
:104824008B09A808A90974FF68700374FF697003F1
:10483400750E02850C82850D837402F0E89004B431
:10484400F0E9A30248FDEE2410FCEF3400FDEEFA7B
:10485400EFFB1208340248F0124969120954024865
:10486400F0E0F50EF58285820C750D002404FAE45F
:104874003400FB12030C8A088B09EA450960538E45
:10488400828F83E08A828B83F0A3E50EF0EA240210
:10489400EB34000A0AFBE5082404F8E5093400F9BE
:1048A4008A828B831249F2780C121FBCAC0AAD0BBE
:1048B4008A828B831240CFFB1202707402121D682D
:1048C400AA08AB091208E8E9F50E6038AA08AB0992
:1048D4008012750E13802D8E828F83E0F91208EEFC
:1048E400EA4B6018120312801B1208F4E9F50E80DB
:1048F40013750E028C828D83E4F08008750E02809D
:1049040003750E01A90E745B0240B1EA450854F721
:10491400FA7403780A22541FFAA2F0E433F50874F7
:1049240005780822EE241012492F22FEEF3400FFEE
:104934008E828F83E022E0F510E4F512741878106B
:1049440022E085188285198322E0FC850A82850B82
:1049540083E0F9EC2212495D221249C8F9EA2212D5
:10496400495D240022850A82850B83E0F98E828FBB
:1049740083E0FC850882850983E0FBECFA22E0549D
:10498400FEFAA3E0FBEA4C54FDFAE8C333F8EA4824
:10499400F8EBF9E854FBFA74027808221249C8F8D3
:1049A400E4C8F9EA2400F508E439F5090E0EAF0B62
:1049B4008E828F83E0F50AA3AE82AF83750C1088D4
:1049C4000D780C228E828F83E0FA85088285098314
:1049D400E0221249DA221249DFA322F08E828F8369
:1049E400221249DAE0FA22F9851882851983E8F05F
:1049F400A3E9F022F0A3E9F00E0EAF0B8E828F83B1
:104A0400E022F0AE08AF098E828F83E022124A22A0
:104A1400750806750900780822124A22E022124914
:104A2400DFA30EAF8322E8F0A3E9F0EE24021249DB
:104A34002FFAA3E0F9EAF82274F4121DA974FD1206
:104A44001D52EAFEEBFF851882851983E4F0F50810
:104A5400F50904121D9DE4F07402121D9D7401F009
:104A64007C2C7D0079007A827B041202888E828FEE
:104A740083E0245E605324F2606D147003024B1DC6
:104A840024E16003024B427402121D9D8582088555
:104A940083097808121FBC7403121D9D8582088542
:104AA40083097808121FBC7404121D9D8582088531
:104AB40083097808121FBC7C827D04EEFAEFFB1296
:104AC40004B67406121D6880718518828519838561
:104AD40082088583097808121FBC7C827D04EEFA63
:104AE400EFFB1204BC804E7401121D9D8582088563
:104AF40083097808121FBC7402121D9D85820885E3
:104B040083097808121FBC7C827D04EEFAEFFB1245
:104B140004C27404121D6880218518828519838556
:104B240082088583097808121FBC7C827D04EEFA12
:104B3400EFFB1204C87402121D688A088B09740200
:104B4400121D9DE06007EEFAEFFB12029A851882AF
:104B5400851983E0600AAC08AD09FA79FF120E22C8
:104B6400E508450960117401121D9DE06401700798
:104B7400AA08AB0912031279007403121D687F049A
:104B8400021E7B74E8121DA974FE121D52EAFEEB8C
:104B9400FF8C088D09741E121D9D1253F9751000A7
:104BA400750A00750B007401F0EC2406F8ED34006E
:104BB400F9EC2405FAED3400FBEC2404F516ED348D
:104BC40000F5178C828D83A3858214858315EE24CA
:104BD40003125877858212858313741C121D9D124B
:104BE40040B9741C121D9DECF0A3ED125446605D97
:104BF400147003024CE3147003024DE014700302BA
:104C04004DF4147003024DFF147003024E1A147015
:104C140003024ED4147003024EEE147003024F5379
:104C2400147003024F6F14700302502314700302B4
:104C34004FE91470030252A41470030252DC14707E
:104C4400030251E41470030252050253658508827D
:104C5400850983E4125548121FBC12537E12027058
:104C64007402121D681255A3C0E01253BFD0E0F0C5
:104C7400750A10780A121FBC7CE67D04E508240C32
:104C8400FAE5093400FB1202707402121D68780AF6
:104C9400121FBC7CF67D04E508241CFAE5093400E7
:104CA400FB1202707402121D68851282851383E060
:104CB40070217CE67D047A1079021205767CF67DFB
:104CC400047A1079031205767C7E7D047A047904D3
:104CD40012057685080A85090B75102C0253658523
:104CE4001282851383E06003024DB3850E82850F23
:104CF40083E07003024DC833333354F82404F510B1
:104D0400FA7B0012030C8A0A8B0BEA450B70030230
:104D14004DAA8A828B837401F0A3740612551485FC
:104D2400128285138312550D850E82850F831255C9
:104D34000D8E828F831259B61249EB7E0080501279
:104D440053E612550D1253E6A312550D751606754A
:104D540017007816121FBC7402121D9DE02402FC79
:104D6400A3E03400FDAA0CAB0D1202707402121DF4
:104D740068E50C2406F50CE50D3400F50D0E8518D8
:104D840082851983E02408F8A3E034001249EB85F6
:104D94000E82850F83E0F8EEC39840A3741C121DA5
:104DA4009D12540280088512828513837413F08542
:104DB4001282851383E0700C850E82850F83E06078
:104DC40003025365850882850983740112551DF019
:104DD400850882850983A3A3A3E4800B85088285C3
:104DE400098374021255601255407510040253650C
:104DF40085088285098374030251EC85088285093C
:104E040083740412546C8E828F8312594012553E5F
:104E1400751003025365850882850983740512544D
:104E24006404125621121FBC12538D1202707402B4
:104E3400121D688E828F83A3A3A3A3A3A3A3A3A3FA
:104E4400A312594D1254DCC0E01253BFD0E01254E7
:104E54007FC0E0E508240C1253C3D0E0F0EE240C2C
:104E6400F582EF1253C7A3E0C0E0E508240D125306
:104E7400C3D0E0F0EE240E1253B4C0E0E508240ED3
:104E84001253C3D0E012549CE0C0E0E508240F1292
:104E940053C3D0E0F0EE24101253B4C0E0E508246C
:104EA400101253C3D0E012549CE0C0E0E508241172
:104EB4001253C3D0E0F0EE24121253CEC0E0E50842
:104EC40024121253C3D0E0125540751013025365D7
:104ED40085088285098374061254641255F2850884
:104EE4000A85090B751006025365850882850983B6
:104EF400740712546414F085128285138312594185
:104F040012544C12594D12544C1254C1125475E09F
:104F14008A828B831254B08882898312552B12544F
:104F2400CA850882850983A3A3A3A3A3A3A3A31269
:104F3400547512593D1254DC850882850983A3A354
:104F4400A3A3A3A3A3A312553E75100B0253658517
:104F54000882850983740812561E121FBC12538DD1
:104F64001202707402121D68025298850882850923
:104F740083740912561E121FBC12538D12027074D0
:104F840002121D688E828F83A3A3A3A3A3A3A3A34A
:104F9400A3A3780C121C22850882850983A3A3A3EA
:104FA400A3A3A3A3A3A3A3125558121C22E50DF592
:104FB4000CE508240B125551121C227410780C12A3
:104FC4001B2AE508240C125551121C227418780C63
:104FD400121B2AE508240D1253C3E50C1255407523
:104FE400100E025365850882850983740B12554897
:104FF400121FBC12537E1202707402121D681255E5
:10500400A3C0E01253BFD0E012547FC0E0E50824EF
:105014000C1253C3D0E012554075100D0253657540
:10502400106A7A6A7B0012030C8A0A8B0BEA450B1E
:1050340070030251CD741C121D9D125402F07C6A3F
:105044007D007900120288850A82850B83740A1216
:1050540055C4850E82850F83A31254D0125503F9CB
:10506400E849603C12548412558A121FBC8E828F08
:10507400831254381202707402121D68125399126A
:1050840054191255031254A3121FBC8E828F83121B
:1050940053D21202707402121D68E50824088004B9
:1050A400E508241C1253AE125408604D125484A314
:1050B400A3A3A312558A121FBC8E828F83A3A312AB
:1050C40054361202707402121D68E508241012533B
:1050D400AE1254171254D01259B51254A3121FBC55
:1050E4008E828F83A3A3A3A31253D21202707402DD
:1050F400121D68E50824088004E508241CF508E569
:10510400093400F509EE240CF582EF1253C712544A
:1051140010604C8508828509837401125597121F0B
:10512400BCEE240CF582EF1253C712543E120270E7
:105134007402121D68E5082410F508E5093400F529
:1051440009750C06780C121FBC1253CB2410125391
:10515400DB1202707402121D68E50824068004E55F
:1051640008241712539D12540870030253658508CE
:10517400828509837401125597121FBC8E828F8316
:105184001254361202707402121D6812539912548A
:1051940017780C121C22125603121C22E50D8508E6
:1051A4008285098312560B121C227410780C121B70
:1051B4002A125603121C227418780C121B2A850812
:1051C40082850983E50C025364850882850983740A
:1051D4000A12546C850882850983A3A37413800B77
:1051E400850882850983740E12551DF0850E82850B
:1051F4000F831258841254B6125540751005025389
:1052040065850882850983740F12546474061255E7
:10521400F28E828F83A3A3A3A3A3A3E088828983AE
:105224001254B0850882850983A3A3A3A3A3A3A3CF
:1052340012552BA31254CAF8A2E0E433F50AE85439
:105244000260047A0280027A00EA420AE8540460A6
:10525400047A0480027A00EA420AE8540860047A74
:105264000880027A00EA420AE8541060047A108046
:10527400027A00EA420AE854206004782080027826
:1052840000E8450A850882850983A3A3A3A3A3A3F1
:10529400A3A3A3F085080A85090B75100A025365B8
:1052A400850882850983740C1255601254B6F07512
:1052B4000A06780A121FBC12586E12027074021287
:1052C4001D68EE240B1253CEC0E01253BFD0E0127F
:1052D400554075100C0253651253CB240DF510FA8A
:1052E4007B0012030C8A0A8B0BEA450B606A8A82E4
:1052F4008B83740D1255C48E828F8312593D1255BF
:10530400E5750C06750D00780C121FBC12586EAAB8
:1053140008AB091202707402121D68E5082406F530
:1053240008E5093400F509EE240B1253CE1254F1AA
:105334001254F1F50C780C121FBCEE240DF582EF1B
:105344001253C712543E1202707402121D68741C68
:10535400121D9D12540280088512828513837413D2
:10536400F0741A121D9D1253ECE510F0AA0AAB0B4F
:105374007402121D687F10021E7BAC0EAD0FE5088F
:105384002403FAE5093400FB22EE2404FCEF340084
:10539400FD1AAB1722E50824101253A122F508E5E3
:1053A400093400F5098E828F83221253A1A3A3220C
:1053B400F8EF3400F988828983E022E508240BF5AC
:1053C40082E50912543122EE240C1254FB22A3A3C9
:1053D400A3A3A3A3E02412FCA3E03400FDAA08AB1A
:1053E40009228518828519831253F022E0F8A3E07C
:1053F400F5838882221259BAF9888289832212534A
:10540400F0740122A3A3A3A3A3A3A3A31259BAF9DB
:10541400E84922A3A3A3A3A3A312542122A3A3E094
:10542400F8A3E012542B22C82410F582E83400F5C6
:105434008322A3A3A3A3A3A3A3A31240B9AA08AB43
:1054440009221249DAA3E022A3A3125452221254CD
:10545400562212545A22F08E828F83A3A3A3A3222E
:10546400F08514828515832212547022125574F02B
:105474002212547922125456A3A322F01254F82271
:10548400850882850983740112549022125494224F
:105494001255E98E828F8322F088828983A3221297
:1054A400542BA31255DE750C08780C22125479A3E0
:1054B400E022F01254BB22850E82850F83A3E0857F
:1054C400168285178322125532A3E02212594512FF
:1054D4005490A3A3A3A3A3221254E2A3E022A3A360
:1054E400A3A3A3A3A3A3A3125536A3A3221255DFF8
:1054F4001254F822EE240CF582EF125431E02212F9
:1055040059451256141259BA22E0850C82850D832E
:10551400F0A385820C85830D221254708512828536
:105524001383125951A32212553212596B22125568
:10553400362212545AA3A3A3A322A3A3F085080AD4
:1055440085090B2212556D750A06780A22F582E543
:1055540009125431E50C1254EB780C2212556D8566
:105564000E82850F831258882212557412557E229A
:10557400F0851482851583740622F08512828513C2
:1055840083125891F022A31259B5C8241A12542E2A
:105594001259451255E5750C10750D00780C228EC4
:1055A400828F83A3A3A3A3A3A3A3A3A312594512E6
:1055B40054E212596BA3A3A3F0EE240B1254FB2262
:1055C400F0A374061255E58512828513831255DE05
:1055D400850E82850F831255DE22E08508828509B7
:1055E400831255E922F0A385820885830922125685
:1055F4002A1254BB125452A3E08A828B83F0228570
:105604000882850983E50C125614125421780C2261
:10561400125494A3A3A3A3A3A32212557412562A2B
:10562400750A06780A2212557E850E82850F83122A
:10563400588CF02274EE121DA9EAFEEBFF8C088D43
:10564400097412121D9DE0F510A3E0F511EE240576
:10565400F50CEF3400F50D8E828F83A385820A85C5
:10566400830B8E828F83A3A3121FD3850A82850B9B
:1056740083E0F9850C82850D83E04480FC7D04AAD7
:1056840008AB091204CE7402121D68E9F50E850AEE
:1056940082850B83E0703A890AE508250AFAE50950
:1056A4003400FBEE2406FCEF3400FD850C82850DEE
:1056B40083E014600A24F6600B24F8600C80121254
:1056C4000ED08008120EE88003120EFAEA250EF5B9
:1056D4000E851082851183E50EF0AA08AB097F0AB6
:1056E400021E7B74EE121DA9EAFEEBFF8C088D09E5
:1056F4007412121D9DE0F510A3E0F5117414121D2F
:105704009D1253F9750C00E4F0EE240412587785C9
:10571400820A85830BE06003025824EC2406FAED28
:105724003400FB12586E850E82850F83E014605A94
:1057340014605D1460601460631460651460671421
:1057440060691470030257D71460651460671460AD
:105754006914606B14606D14606F1460711460736D
:1057640014607514607724FC700302580F147003DE
:1057740002581414700302581924FD700302581EB1
:1057840024FE700302581E025824120624025821D3
:1057940012063002582112063C0258211206488093
:1057A4007C1206548077120660807212066C806D3B
:1057B4001206848068120690806312069C805E1232
:1057C40006BA80591206C680541206D2804F1206B9
:1057D400DE804A12067880451206EA8040EE241CD8
:1057E4001253CE8A828B83F0EE241DF582EF12537E
:1057F400C7125884A3A3A3A3F0E5082408FAE50973
:105804003400FB1206AEEA240280131206F6800D61
:10581400120702800812070E8003120720EAF50C13
:105824008E828F83A3A3121FD3850A82850B83E004
:10583400F9850E82850F83E0FC7D05AA08AB091269
:1058440004CE7402121D68850882850983A3A3A36C
:10585400A3A3E50CF07406250C851082851183F052
:10586400EEFAEFFB120B460256DEEE2405FCEF3493
:1058740000FD22F50EEF3400F50F8E828F83A322F4
:105884001258882212588C22125891A32212595568
:10589400A32274F2121DA98C088D09740E121D9D89
:1058A400E0FEA3E0FF750A00EA2404F8EB3400F9F3
:1058B400E8FCE9FD8A828B83A3A882A983E0702790
:1058C4008C828D83E07020EA2405125930125941EC
:1058D40012595EF0EA240712593012594DA3125995
:1058E4005EA3A3F0750A048A828B83A3A3121FD339
:1058F40088828983E0F98C828D83E04480FC7D0575
:10590400AA08AB091204CE7402121D6885088285A8
:105914000983A3A3A3A3A3E50AF07406250A8E8230
:105924008F83F0AA08AB097F06021E7BF50AEB34CD
:1059340000F50B850A82F58322A3A3A3A31259457C
:1059440022E0850882850983221259512212595571
:1059540022E0850882850983A322A3A3A3A3A3A38A
:1059640012597312596B2212588CA3A3A3A322F0C9
:10597400850A82850B83A32274F7121DA9E9FEEC24
:105984008A828B83F0EDA3F0EE8A828B83A3A3F04B
:105994007409121D9D1259BAF9E88A828B83A3A354
:1059A400A3F0E98A828B83A3A3A3A3F07905022C35
:1059B4009DA3A3A3A3A3E0F8A3E022E924FC600D24
:1059C40014600E24F9601224FD600A800E79408070
:1059D4000A79418006794280027943020122C08219
:1059E400C0839061907404F0A37448F0A3E4F09031
:1059F40061807440F09061BC7407F09061877469B1
:105A0400F09061B67416F079001211A679021211A1
:105A1400AC902C04E493F46006E493F912118279B7
:105A2400051215AE025E49C082C083E9540FF99095
:105A34006185E0696012E5C654804449F5C6E59E77
:105A4400547F644970F8E9F053C680E59E547F7032
:105A5400FA025E4974F7121DA9E5A8FE53A87E1246
:105A6400118EC2BA539AFEC289759B00C2C212112A
:105A74009475A91175B90512119AD2BA439A017491
:105A8400805E42A8026998C082C083906181E4F07C
:105A9400A3F0A3F0025E4975E90075910075BF009B
:105AA400020122C082C083906181E4F0A374C0F03B
:105AB400A3E480DFC082C08374F8121D529007559E
:105AC40012766B7003025B97900755E05440602395
:105AD4007908851882851983AA82AB8312130885F5
:105AE4001882851983AA82AB83120DCE900755E0E4
:105AF40054BFF0E054806010790C7A4C7B0B121385
:105B040008900755E0547FF0E0A2E0500F790012AE
:105B140011A6120DD4900755E054FEF0E054026033
:105B24000F79011211A6120DD4900755E054FDF01F
