:020000040000FA
:0600000002011D02219B1C
:03002B00022901A6
:0300530002220E78
:03006B000228CF99
:10008300022007E5C754F84401F5C77901220000AF
:100093000080FB120086B90003020107E47921788E
:1000A30008B800028004F709D8FCE479297802B87B
:1000B30000028004F709D8FCE490028178C579072F
:1000C3008002F0A3D8FCD9FA781A90014D7A01BACC
:1000D30000028007E493A3F608DAF9900945AA829F
:1000E300AB8390014E783B79048015E493A3AC82F3
:1000F300AD838A828B83F0A3AA82AB838C828D83A8
:10010300D8E9D9E775829B75837F740012012F7537
:100113008291758300740012012F75D00075813FA1
:10012300751881751902759F00020096C09FF59F8F
:10013300E473D09F22D083D082C09FE493C0E07445
:100143000193C0E0740293F59F2201FF0000B40005
:100153000028002800283075A000A000A000A000FF
:1001630000080008E001F00010001000100010006B
:100173001000100050005000500010001000D00775
:100183000000000000000F000100050030750700AB
:100193001000010081FF00000000FF8606A4068C0A
:1001A30006FF02020208025000A0000000E803025A
:1001B300B881010000A78102AE810100009C090201
:1001C300AC81010000B30202AE810100009D09026F
:1001D300DE81010000C90202AE810100009E090216
:1001E300B081010000CB0202AE810100009F090231
:1001F300C481080000CC0202AE81010000A0090204
:10020300B481010000A109FF0100FF2002B88101B0
:100213000000A18102AE81010000050A02B681003F
:100223000000000002AA8103000019035C0C5C0CAF
:100233005C0C5C0C5C0C5C0C5C0C5C0C5C0C5C0C7B
:100243005C0C5C0C5C0CF00E080FEA0EFFFF020264
:1002530002020202020202010D000000100102B8B4
:1002630081010000A48102AE81010000480A02BEA0
:10027300810100005D0702AE81010000490A02C04E
:1002830081010000158102AE810100004A0A02C209
:1002930081010000F98002AE810100004B0A02E4F3
:1002A30081010000938002AE810100004C0A02CE5E
:1002B30081010000818002AE810100004D0A02CC61
:1002C30081010000B78002AE810100004E0A02CA1C
:1002D30081010000A58002AE810100004F0A02C81F
:1002E30081010000078102AE81010000500A02C6AD
:1002F30081010000510A01E803053F100AFF0001D4
:100303003075030201060000000000000000000039
:1003130000000000000000000000000000000000DA
:100323000000FFFF0600800CE803140953696D7099
:100333006C65424C455065726970686572616C0505
:100343001250002003020A000201050302F0FF53CA
:10035300696D706C6520424C452050657269706808
:100363006572616C2E13000034130A436861726175
:100373006374657269737469632031000243686151
:100383007261637465726973746963203200084330
:1003930068617261637465726973746963203300A1
:1003A3001043686172616374657269737469632071
:1003B30034000243686172616374657269737469BE
:1003C3006320350002B8810100009B8102AE8101E8
:1003D3000000640B02D2810300002F090222810175
:1003E3000000650B02AE81010000760B02D481018F
:1003F30000003009022281010000770B02AE810167
:100403000000880B02D6810200003109022281011B
:100413000000890B02AE810100009A0B02D8810013
:100423000000320902AA810300003309022281017C
:1004330000009B0B02AE81010000AC0B02DA8104C9
:1004430000003909022281010000AD0B104B6579D0
:100453002050726573732053746174650002B88110
:100463000100009E8102AE81010000460C02E28180
:100473000000003E0902AA810300003F0902228115
:10048300010000470C1201384298031201385998B1
:10049300031201388A9803120138C59803120138F0
:1004A300EF98031201381999031201383099031296
:1004B30001384799031201385E990312013887996D
:1004C300031201389A9903120138B09903120138C3
:1004D300C39903120138EA990312013879F501121D
:1004E30001387DF601120138B5F601120138D8F64C
:1004F30001120138E3F60112013806F7011201383F
:1005030015F801120138EAF80112013865F90112F0
:100513000138EDF90112013828FA011201385FFAA6
:1005230001120138EDFA01120138C6FB011201383C
:1005330026FC0112013831FC01120138B0FC011212
:100543000138B3FC01120138B6FC0112013845FD34
:100553000112013848FD0112013878FD01120138FA
:10056300A2FD0112013890FE0112013842FF01126F
:100573000138DFDC0212013807DD0212013835DDF4
:10058300021201386CDD02120138CADD0212013891
:1005930015DE0212013860DE02120138A0DE0212FB
:1005A3000138E6DE0212013814DF02120138D1DF0E
:1005B30002120138DBDF02120138E8DF02120138D0
:1005C3001BE002120138E7E002120138F3E00212E5
:1005D30001380BE10212013815E102120138B1A40E
:1005E30003120138BFA403120138D7A40312013840
:1005F300EFA4031201385ACA0112013806CB0112C3
:10060300013881CB01120138A2CC01120138DECCB2
:100613000112013887CD011201386ECE0112013863
:10062300D2CF0112013829D001120138AAD0011208
:1006330001389AD101120138E7D1011201386DD284
:10064300011201389FD201120138B3D401120138CB
:10065300F5D40112013813D50112013896D50112D0
:1006630001386AD60112013832D7011201380FCB93
:1006730002120138E2CB021201388BCC021201388C
:10068300DECC021201388ECD021201381ACE0212CC
:10069300013806CF0212013835CF0212013848D093
:1006A3000212013890D00212013865D102120138CA
:1006B300A1D102120138BDD102120138CBA6031217
:1006C300013864FC021201387AFC02120138A0FCE2
:1006D30002120138BCFD02120138C6FD02120138B4
:1006E300FBFE02120138F3FF02120138B8D70212DF
:1006F3000138E8D8021201381BD90212013865D932
:10070300021201382CDB0212013809AB0112013845
:1007130073AB01120138D2AC01120138E2AC011201
:1007230001380FAD0112013866AD011201380FAE69
:100733000112013816AF01120138E0AF011201387E
:1007430040B10112013883B10112013828B20112FC
:10075300013875B2011201389BB201120138A9B4F4
:1007630001120138AEB401120138B3B601120138D7
:1007730000B70112013873B701120138A6B701128D
:10078300013848B801120138F1B80112013829B90A
:10079300011201382CB90112013874B90112013860
:1007A300B4B9011201380BBA011201385B8A031282
:1007B3000138738A03120138BB8A03120138D18AC4
:1007C30003120138188B031201382C8C03120138E1
:1007D300B98C03120138048D031201383029001239
:1007E30001383C2900120138772900120138BC294D
:1007F300001201387C2A00120138022B0012013842
:10080300672B00120138932B00120138CC2B0012F6
:1008130001380A2E00120138EE2F00120138D431AC
:100823000012013817330012013865350012013800
:10083300773600120138C23700120138D23800125D
:100843000138EF38001201382A39001201384C39C7
:1008530000120138AF3900120138703E001201381E
:10086300053F00120138563F001201387D3F001248
:100873000138CF3F00120138ED3F001201384740E5
:1008830000120138304100120138A642001201382B
:100893002A43001201384EE60212013858E60212CA
:1008A30001389BE602120138B6E60212013846E728
:1008B300021201386EE702120138ABE70212013867
:1008C300E2E7021201380BE80212013880E8021253
:1008D300013895E802120138AAE802120138DBE870
:1008E30002120138EFE80212013814E9021201384A
:1008F3004EE9021201387AE902120138B2E9021212
:10090300013831EA021201387AEA02120138A4EA04
:1009130002120138CFEA02120138C79F03120138CD
:10092300E99A02120138179B02120138659C0212E0
:100933000138459D02120138649D02120138E19D80
:1009430002120138249E021201387A9F02120138E2
:100953003BA002120138C2A20212013863A30212A1
:10096300013859A40212013856A502120138B0A663
:10097300021201383BA702120138439D03120138CA
:10098300AC9D03120138009E03120138279E031207
:100993000138589E0312013891EF02120138FEEF1D
:1009A3000212013845F0021201385DF102120138DA
:1009B30059F2021201383CF302120138EAB2021270
:1009C30001382CB302120138FEB302120138D7B436
:1009D30002120138D1B502120138B3B6021201383E
:1009E3001CB702120138D2B70212013846B80212FC
:1009F3000138B2B802120138DBB80212013855B916
:100A030002120138EEB90212013853BA0212013848
:100A130068BA02120138AEBA02120138C7BA02121A
:100A230001382CBB021201382FBB02120138628736
:100A3300031201388A8703120138C8870312013869
:100A4300868803120138ED880312013809890312DD
:100A53000138318903120138618903120138708921
:100A630003120138ED8903120138138A0312013886
:100A7300F8BA01120138D6BC0112013808BF0112BD
:100A8300013844BF0112013871BF011201385BC044
:100A930001120138A6C001120138F1C00112013858
:100AA30003C10112013843C10112013878C1011297
:100AB3000138C6C101120138F5C10112013818C24B
:100AC3000112013865C201120138EAC2011201386C
:100AD30004C50112013843C70112013884C701124A
:100AE300013826C90112013867C901120138DAC970
:100AF3000112013830CA01120138D48D02120138B3
:100B0300D28E021201386B95021201388C970212B1
:100B13000138579902120138BF9A021201389143E2
:100B2300001201384044001201386D4400120138AC
:100B3300B34400120138F34500120138894700120B
:100B430001380348001201381E4800120138994841
:100B530000120138F34900120138534B00120138D7
:100B6300594C00120138BA4D00120138D34D00120E
:100B73000138314E001201381F4F00120138524F15
:100B830000120138C24F001201383C5000120138E4
:100B930086500012013850510012013825520012BC
:100BA30001380453001201388F5300120138FD53EA
:100BB300001201387154001201389C54001201389C
:100BC3005B5500120138C05600120138DD56001281
:100BD3000138FC5600120138ED5700120138125843
:100BE300001201383C5800120138B758001201387E
:100BF3001159001201387A5A00120138285B001289
:100C03000138695B001201380080021201384E80FE
:100C1300021201385A800212013838810212013857
:100C23006981021201389A81021201381A82021272
:100C33000138528202120138A48202120138E18281
:100C430002120138FE84021201382487021201388D
:100C53000F8902120138F98A02120138252900127C
:100C63000138F69601120138269701120138FF9DCB
:100C730001120138849F0112013881A50112013844
:100C830069A601120138A6A601120138C9A60112EC
:100C93000138FAA60112013803A7011201380DA782
:100CA30001120138FBA701120138F1A80112013822
:100CB300E78101120138E68501120138EC85011242
:100CC3000138278D0112013840920112013800804A
:100CD30003120138968003120138AC8003120138E5
:100CE300228103120138968103120138D481031241
:100CF3000138488203120138C18203120138CA82C3
:100D030003120138D68203120138EB820312013831
:100D13002983031201383F83031201389E83031290
:100D23000138FEF3021201380BF40212013825F4E4
:100D33000212013864F402120138A2F402120138DB
:100D430007F5021201381CF50212013827F50212C9
:100D5300013834F5021201384BF50212013859F506
:100D63000212013864F50212013870F502120138DB
:100D73007FF5021201388AF502120138ADF502122D
:100D8300013854F60212013864F6021201387EF675
:100D9300021201389BF602120138B7F6021201382B
:100DA300DCF602120138E7F602120138FCF60212F1
:100DB300013810F70212013871F70212013877F780
:100DC300021201387DF70212013883F7021201384B
:100DD3009BF702120138CEF70212013850D90112E3
:100DE3000138D4D90112013883DA01120138E2DB68
:100DF3000112013803DE01120138EFDE011201385E
:100E030024DF0112013846DF01120138F5DF011238
:100E13000138EDE10112013816E201120138A8E2AE
:100E230001120138DAE201120138E7E20112013856
:100E33003EE30112013864E301120138D1E50112E6
:100E43000138D4E6011201382CE7011201382F7161
:100E53000012013839720012013820730012013870
:100E63002A73001201384C730012013858730012B0
:100E73000138F174001201382075001201383C76F4
:100E830000120138957600120138FB770012013801
:100E9300DA7800120138367900120138A37900128A
:100EA3000138DE79001201381D7A00120138D67C30
:100EB30000120138F07C001201387C7D00120138E9
:100EC3008A7D00120138E37D00120138F17D0012A2
:100ED3000138647E00120138C87E00120138127F87
:100EE30000120138BCA702120138DEA70212013832
:100EF30004AA0212013819AD0212013831AE0212EE
:100F03000138E4AE02120138C6AF02120138FC996F
:100F130003120138219A03120138939A03120138FC
:100F230095C3021201389EC302120138A7C30212ED
:100F330001387EC4021201382FC60212013865C679
:100F4300021201389FC602120138D5C602120138B7
:100F53000FC70212013843C7021201386FC70212CA
:100F63000138B8C702120138F2C7021201383BC870
:100F73000212013893C802120138C8C8021201389C
:100F830023C9021201385DC902120138AEC9021227
:100F93000138E4C9021201381ECA021201384CCAD0
:100FA300021201386FCA0212013888A503120138F0
:100FB300B4A5031201380FA60312013819A60312B0
:100FC300013829A60312013832D2021201383CD269
:100FD300021201387AD202120138C3D20212013846
:100FE300FDD20212013857D30212013878D302120C
:100FF300013881D302120138CED302120138F7D35C
:101003000212013801D4021201386DD402120138E0
:10101300FFD40212013849D5021201387FD50212DA
:1010230001380BD6021201384CD60212013883D68E
:101033000212013895D602120138B4D602120138D1
:10104300BDD6021201388AD702120138DBA203127D
:101053000138849403120138BA9403120138F094CE
:10106300031201383B960312013833A603120138E9
:1010730049A60312013853A6031201389DA6031291
:1010830001384FA703120138F7EA021201380CEBBB
:1010930002120138BCEB02120138FCEB02120138D8
:1010A30015EC0212013850EC021201389DEC0212C9
:1010B3000138CFEC0212013811ED0212013812EFA0
:1010C3000212013884EF02120138E4A1031201383D
:1010D3000DA2031201383CA20312013854A20312D9
:1010E300013896A2031201382E8D03120138538D55
:1010F300031201387D8D03120138AEA703120138A4
:10110300995B00120138FE5D001201389F5F0012E7
:101113000138536000120138E660001201386B6138
:1011230000120138906100120138E66400120138A0
:101133006C65001201389F6600120138D9660012EF
:1011430001380E6700120138CE68001201382B698E
:1011530000120138746900120138DF690012013886
:10116300506A00120138826A001201389A6A00122A
:101173000138E36B00120138F36B001201380E6D76
:1011830000120138306D00120138666D001201380B
:101193001A6F00120138A76F00120138E66F0012B0
:1011A30001380A71001201384EA803120138B3FF47
:1011B30001120138F2FF011201385FA8031201384E
:1011C300D2A303120138E2A303120138F7A30312D7
:1011D3000138ABA403120138E0A00312013865A162
:1011E30003120138CBA1031201389E9E031201386A
:1011F300C59E031201381B9F031201382D9F031252
:1012030001387D9F03120138BB9F03120138BE9F33
:10121300031201384BF8021201385FF80212013849
:10122300D9F802120138BDF90212013894FB0212F7
:101233000138F9FB0212013850FC02120138F87F21
:10124300001201383F9203120138DA930312013876
:101253003B9403120138819403120138A19B0312BA
:101263000138F39B031201387D9C03120138E49C7F
:1012730003120138FA8F0312013824900312013844
:10128300F29003120138CD910312013853BB0212BD
:1012930001381ABC0212013851BC021201387BBC5E
:1012A30002120138DBBC0212013831BD02120138CF
:1012B30096BD021201382EBE021201383DBF021242
:1012C3000138D4C00212013861C102120138C8C109
:1012D30002120138DFC102120138F9C202120138C9
:1012E30037C3021201387AE701120138FBEA01120F
:1012F300013883EC01120138DAEC01120138F9EC00
:101303000112013877ED011201380DEF0112013896
:10131300F2EF0112013800F401120138D6F4011280
:1013230001389CE10212013849E4021201386FE5E9
:101333000212013819E602120138CE830312013872
:10134300138403120138308403120138E684031234
:1013530001383985031201380F86031201382987B2
:1013630003120138759603120138BA960312013835
:101373000E9703120138919703120138099803124B
:10138300013804A80312013830A803E0667010087E
:10139300A3E066700A08A3E066700408A3E066226F
:1013A300C3E7960809E7960809E7960809E796222E
:1013B300C3E09608A3E09608A3E09608A3E096226C
:1013C300C008C3E096F50808A3E096420808A3E026
:1013D30096420808A3E09645087001D3D008220876
:1013E3000808EAC0E0EBC0E086F0E7A4FA18098633
:1013F300F0E7A42AFA180986F0E7A42AFA1809865E
:10140300F0E7A42AFA1986F0E7A4FBE5F02AFA1913
:101413000886F0E7A42BFBE5F03AFA190886F0E713
:10142300A42BFBE5F03AFA18180986F0E7A4C5F0F7
:101433002BFBE43AFA1908E7C5F0C6A426F6E5F053
:101443003BFBE43AFA1886F0E7A4F6E5F00826F643
:10145300E43B08F6E43A08F6D0E0FBD0E0FA22E4F5
:10146300CFC0E0E4CEC0E0E4CDC0E0E4CCC0E075A2
:10147300F020C3E633F608E633F608E633F608E66B
:1014830033F6181818EC33FCED33FDEE33FEEF336F
:10149300FFC3EC9709ED9709EE9709EF971919190F
:1014A300400FFFEC97FC09ED97FD09EE97FE191924
:1014B30006D5F0BEECF709EDF709EEF709EFF719DA
:1014C3001919D0E0FCD0E0FDD0E0FED0E0FF2260AF
:1014D30016080808C6C313C618C613C618C613C60B
:1014E30018C613C6D5E0EA22700908080822601658
:1014F300181818C6C333C608C633C608C633C60889
:10150300C633C6D5E0EA22E627F60809E637F60829
:1015130009E637F60809E637F622E026F608A3E0DF
:1015230036F608A3E036F608A3E036F622E026F006
:1015330008A3E036F008A3E036F008A3E036F02273
:10154300C3E697F60809E697F60809E697F6080949
:10155300E697F622C3E096F008A3E096F008A3E02E
:1015630096F008A3E096F022E657F60809E657F648
:101573000809E657F60809E657F622E056F608A3E7
:10158300E056F608A3E056F608A3E056F622E05626
:10159300F008A3E056F008A3E056F008A3E056F0E5
:1015A30022E0F608A3E0F608A3E0F608A3E0F6229B
:1015B300E6F008A3E6F008A3E6F008A3E6F022E0CD
:1015C300FAA3E0FBA3E0FCA3E0FD22EAF0A3EBF027
:1015D300A3ECF0A3EDF022CAC0E0E6F0A308DAFA28
:1015E300D0E0FA22CAC0E0E0A3C582CCC582C5839D
:1015F300CDC583F0A3C582CCC582C583CDC583DAAF
:10160300E6D0E0CA22C3E498F8E499F912164980B7
:1016130026C3E49AFAE49BFBE920E7E9121649E4BE
:1016230098F8E499F922C3E498F8E499F912164971
:10163300E498F8E499F9C3E49AFAE49BFB22EB20DB
:10164300E7CFE920E7E0B90010BB0008E88AF0849F
:10165300F8AAF022E4FBC8FA22EB70227B10C8330D
:10166300C8C933C9335007C39AC3DBF280069A5003
:10167300012ADBEAC833F4C8C933F4C9FA2275F086
:1016830008E4C833C8C933C933C99AC99B5004C9CC
:101693002AC93BD5F0ECFBC833F4C8E4C9FA22608D
:1016A3000D08C6A2E713C618C613C6D5E0F3226019
:1016B3000C08C6C313C618C613C6D5E0F4227004BB
:1016C30022600D18C6C333C608C633C6D5E0F41866
:1016D30022251810AF08F518400215198008F518CF
:1016E30040021519D2AF22C0D0251810AF08F51843
:1016F300500205198008F51850020519D2AFD0D051
:10170300222518F58210AF08F51840021519800834
:10171300F51840021519D2AF851983222518F582D1
:10172300E43519F58322E4732518C582C0E0E51971
:1017330034FFC583C0E0E518C3958224F810AF08D1
:101743008583198582188008858319858218D2AF0D
:10175300CEF0A3E520F0A37808E608F0A3DEFAEFC5
:10176300F0A3E58124FAF8E608F0A3E608F0A3E67F
:1017730008F0A30808E608F0A3E608F0A31581150E
:1017830081D0E0FED0E0F8158115811581E8C0E035
:10179300EEC0E0222518C582C0E0E51934FFC583F9
:1017A300C0E0E518C3958224F910AF088583198535
:1017B30082188008858319858218D2AFCEF0A3E5FD
:1017C30020F0A37808E608F0A3DEFAEFF0A3E581A2
:1017D30024FBF8E608F0A3E608F0A30808E608F0FF
:1017E300A3E608F0A315811581D0E0FED0E0F8153B
:1017F300811581E8C0E0EEC0E02285198385188257
:10180300E0A3FEE0A3F5207808E0A3F608DFFAE002
:10181300A3FFE0A3C0E0E0A3C0E0E0A3C0E0E0A337
:10182300C0E0E0A3C0E010AF08858218858319806B
:1018330008858218858319D2AFD083D082020135FF
:10184300851983851882E0A3FEE0A3F5207808E0DC
:10185300A3F608DFFAE0A3FFE0A3C0E0E0A3C0E043
:10186300E0A3C0E0E0A3C0E010AF08858218858341
:10187300198008858218858319D2AFD083D082223C
:10188300C0D02518C582C0E0E51934FFC583C0E088
:10189300E518C3958224F310AF0885831985821850
:1018A3008008858319858218D2AFC8F0A3E9F0A315
:1018B300EAF0A3EBF0A37908E709F0A3D8FAECF078
:1018C300A3EDF0A3EEF0A3EFF0A3D0E0F0A3D0E0FC
:1018D300F0A3D0E0F0A3E520F0A3E5F0F0A3228588
:1018E3001983851882E0C0E0A3E0F9A3E0FAA3E03E
:1018F300FBA37808E0F608A3DFFAE0FCA3E0FDA36E
:10190300E0FEA3E0FFA3E0C0E0A3E0C0E0A3E0F5B6
:10191300D0A3E0F520A3E0A3F5F010AF0885831969
:101923008582188008858319858218D2AFD082D02A
:1019330083D0E0F8D0E0327404800674028002742D
:1019430001C0E0F404121704D0E01215DA22740483
:10195300800474028000CCC0E0EDC0E0E518C39CB5
:10196300CCAD1950011D10AF068C188D1980068C53
:10197300188D19D2AF1215E7D0E0FDD0E0FC22D0CC
:1019830083D082E9C0E0E493A3C386F0C5F095F069
:10199300F908E493A386F0C5F095F0700BE493A3E4
:1019A300C3994005E9048002A3E475F002A42582EB
:1019B300F582E5F03583F583D0E0F9E493A3C0E045
:1019C300E493C0E022D083D082ECC0E0EDC0E0E439
:1019D30093A3FCE493A3FDED4C600D121A14EC24C5
:1019E300FFFCED34FFFD80EFE493A3FCE493A3FD40
:1019F300ED4C600D121A53EC24FFFCED34FFFD8017
:101A0300EFD0E0FDD0E0FCE493A3C0E0E493C0E0BA
:101A130022C0E0C3E49396087401939618400FE440
:101A23009366700808740193661870007019A3A375
:101A3300C3E49396087401939618A3A3400DD0E0D2
:101A4300D0E0D0E0021A04A3A3A3A3A3A3D0E0226F
:101A5300C0E0C0F088F0E4936670080874019366F0
:101A6300187000A8F0A3A3700BD0F0D0E0D0E0D0A2
:0B1A7300E0021A04A3A3D0F0D0E02290
:101A800074F5121797EAFEEBFFEE2434F8EF3400FA
:101A9000F988088909EE2435F582EF3400F583E0F2
:101AA000F8EE2437F582EF3400F583E0F50AEC8593
:101AB0000AF0A4FCAAF0850AF0EDA42AFDE82CF8AF
:101AC000E43DF97A257B00121649EA8508828509EA
:101AD00083F0F8740758F97401B900028004C33325
:101AE000D9FCFAE8131313541FF8EE28F8EF34006A
:101AF000F9E8245DF582E93400F583E05A6008EEE8
:101B00002434F582EF802CEE2434F582EF3400F596
:101B100083E0C0E0EE2436F582EF3400F583E0F593
:101B2000F0D0E084A8F0EE28F8EF3400F9E824388B
:101B3000F582E93400F583E0F97F0402184374F577
:101B4000121797EAFEEBFFEE2434F582EF3400F52E
:101B500083E0C0E0EE2435F582EF3400F583D0E079
:101B6000F08E828F83A3A3A3A3A3A3A3C082C08369
:101B70008E828F83A3A3A3A3A3E0F8A3E0F9D0836D
:101B8000D082E0C398F508A3E099F509EE247FF52B
:101B900082EF3400F583E064017069EE2480F58201
:101BA000EF3400F583E0F8A3E0F98E828F83A3A3DE
:101BB000A3A3A3A3A3E0FCA3E0FD8E828F83A3A332
:101BC000A3A3A3E0FAA3E0FBC3EA9CEB9D5010C3E0
:101BD000EC98ED99402EC3EA98EB995027800EC3FC
:101BE000EA98EB994007C3EC98ED9940177CDC7DAF
:101BF00004EEFAEFFB120BBAEE247FF582EF34000D
:101C0000F583E4F0EE2434F8EF3400F9E8FCE9FD64
:101C1000EE2435F582EF3400F583E0F8EE2437F555
:101C200082EF3400F583E0F50AE508850AF0A4F5B3
:101C300008AAF0850AF0E509A42AF509E82508F8BC
:101C4000E43509F97A257B00121649EA8C828D83E6
:101C5000F0F8740758F97401B900028004C333D94D
:101C6000FCFAE8131313541FF8EE28F8EF3400F9C8
:101C7000E8245DF582E93400F583E05A6008EE243B
:101C800034F582EF802CEE2434F582EF3400F583B6
:101C9000E0C0E0EE2436F582EF3400F583E0F5F0A5
:101CA000D0E084A8F0EE28F8EF3400F9E82438F505
:101CB00082E93400F583E0F91228BB021B39C082A7
:101CC000C083851882851983E0F8A3E0F9C3EA9CF4
:101CD000EB9D5010C3EC98ED99401BC3EA98EB992B
:101CE0005014800EC3EA98EB994007C3EC98ED9925
:101CF0004004790180027900D083D08222EAC39C1B
:101D0000FAEB9DFB2274EF1217979003A2E0640890
:101D10006005E06407702A9061C8E060249003D0F9
:101D2000E0F4601DE0F875F003A4C8AAF02AF97485
:101D3000D228FE740339FF8E828F83A3A3A3E070A1
:101D400003021E35906060E0C0E0EE2468F582EF8B
:101D50003400F583D0E0F0750C45750D057508006D
:101D6000750900E5D914F50AE5D95403F50E601795
:101D70007403650E605CE50A6010EE2467F582EF7F
:101D80003400F583E07003021E1A900540E0640100
:101D9000602AEE2482F582EF3400F583E060047857
:101DA0000480027800850A08E508C398FA95E0FBEC
:101DB000120A828A088B09EA45097005120DBE8055
:101DC00074EE2482F582EF3400F583E070048A0C0F
:101DD0008B0DE50A6012850C82850D83F50BE5D924
:101DE000F0A3150BE50B70F6EE2482F582EF3400BC
:101DF000F583E0604474FC250AF50A780C12193E5C
:101E0000AC0AA90EEEFAEFFB120C5674021216EA97
:101E1000E97026AA08AB09121262793D8E828F837F
:101E2000A3A3A3A3E0FA7B00120956EEFAEFFB127C
:101E30000BD2120C68790080747403650E605685AD
:101E40000A10751100781012193EAC0CAD0DAA08DD
:101E5000AB09120C3274021216EAEE2468F582EF16
:101E60003400F583E064807004747F8001E0F50C39
:101E7000780C121942E50EF50C780C121942A90AD9
:101E8000AC08AD099003D0E0FA7B0012091A740285
:101E90001216EA80139003A2E06408600BAC0CAD4C
:101EA0000DEEFAEFFB120CC2120DCA79017F0A0285
:101EB000184374F512179774FC1216D4EAFEEBFF60
:101EC0008908A2AFE433F509C2AF806AEE2463F853
:101ED000EF3400F97A007B00A2AFE433F50AC2AF19
:101EE00088828983E0FCA3E0FDEC4D603A8882891A
:101EF00083E0FAA3E0FB8A828B83E0FCA3E0FD8809
:101F0000828983ECF0A3EDF08A828B83E4F0A3F066
:101F100088828983E0FCA3E0FDEC4D700A88828909
:101F200083A3A3E4F0A3F0E50AA2E092AF12126249
:101F30009004E3E004F0EE2463F582EF3400F583CF
:101F4000E0F8A3E0F9E849603DEE2463F582EF3460
:101F500000F583E02402FAA3E03400FBEA2402F552
:101F60000AEB3400F50B780A12193E8A828B83E063
:101F7000FCA3E0F9EEFAEFFB120BF674021216EA7C
:101F8000E97003021ECC9004E3E060639004E4E097
:101F9000F89004E3E0C398500C7402650870509008
:101FA00004E5E0604A8E828F83A3A3A3A3E0851893
:101FB00082851983F0A3E4F09004E3E0F874021240
:101FC000171FE8F0A3E4F09004E3E0F89004E2E0E7
:101FD00028F0740212171FAC82AD83851882851910
:101FE00083AA82AB8379011209269004E3E4F0E529
:101FF00009A2E092AF74041216EA021B3900000035
:102000008521878522C622C0E0C0D0E8C0E0E9C0B3
:10201000E0EAC0E0EBC0E0ECC0E0EDC0E0EEC0E024
:10202000C008C009C00AC00BC082C083C0F0A2AF04
:10203000E433FEC2AF759B00906182E0A2E05012D3
:10204000E591A2E0500C7591FE74016521700312B8
:102050001D05E0A2E55051E591A2E5504B7591DFD9
:102060009003A2E064076005E064087023740165D2
:1020700021703579019003D0E0FA75F003A4CAA865
:10208000F028FB74D22AFA74033BFB121EB28018AC
:10209000E0640D70139003C4E004F064287002E45F
:1020A000F07A00E0F9120DD0906182E0A2E64003E0
:1020B00002214EE591A2E6400302214E7591BF90A8
:1020C00003A2E064057008120CF8120D04800312DC
:1020D0000CFE752100120D5EE99003A3F079001249
:1020E0000D52120B307A017B009003A1E0F912101F
:1020F00022907803E064427055900544E014F0703B
:102100004DC2AF12210600782AD0E0F618D0E0F6D2
:10211000E59F540770057509FF800375097FC4C0EA
:10212000E07829E6F50808E65509F509740B780802
:102130001216B2D0E02508F8906270E0A2E740F8ED
:10214000E8C333906272F0906270E0D2E0F0906188
:1021500081E0A2E35009E5E9A2E3500375E9F7A3A2
:10216000E0A2E75009E591A2E7500375917FEEA246
:10217000E092AFD0F0D083D082D00BD00AD009D07B
:1021800008D0E0FED0E0FDD0E0FCD0E0FBD0E0FAEB
:10219000D0E0F9D0E0F8D0D0D0E032C0E0C0D0C07C
:1021A00082C083906183E0A2E05009E5BFA2E050C5
:1021B0000375BFFEE0A2E15009E5BFA2E15003753F
:1021C000BFFDE0A2E25009E5BFA2E2500375BFFBEC
:1021D000E0A2E35009E5BFA2E3500375BFF7E0A218
:1021E000E45009E5BFA2E4500375BFEFE0A2E5505B
:1021F00009E5BFA2E5500375BFDFE0A2E65009E59F
:10220000BFA2E6500375BFBFD083D0828088C0E0F4
:10221000C0D0E8C0E0E9C0E0EAC0E0EBC0E0ECC05C
:10222000E0EDC0E0C0F0E5A7A2E6500FE5A1A2E610
:10223000500953A7BF75A1BF122273E5A7A2E550AD
:102240000CE5A1A2E5500653A7DF75A1DFE5A7A223
:10225000E15009E5A1A2E1500375A1FDE5A7A2E2C5
:10226000500CE5A1A2E2500653A7FB75A1FBD0F0EC
:1022700002218474F81217977521019003A2E0647B
:10228000067015120C868A828B83A3A3A3A3A3A333
:10229000E0FAA3E0FB120CE6A2AFE433FED2AF906B
:1022A00003A8E0640170187A207B009003A1E0F994
:1022B0001210AC7A207B009003A1E0F91210289054
:1022C0006182E0D2E6F0900541E0602185C622807F
:1022D000169003A7E064017008E5C654F84405F5BC
:1022E000C653BEFC1220007401652160E4EEA2E03A
:1022F00092AF7F01021843008E238F2485822885A8
:102300008327851882851983E0CEA3E0CF852882B4
:10231000852783EBC9EAC8EDCBECCA75F010C3E89A
:1023200033C8E933C9EA33CAEB33CBC3EA9EF52697
:10233000EB9FF525B35004AB25AA26EC33CCED3347
:10234000CDD5F0DAAE23AF242274E912179774F8D2
:102350001216D4851882851983ECF0A3EDF08A0853
:102360008B099003A2E024F7C39405500675080179
:102370000224E0120C868A0A8B0BAE0AAF0BEE4FDA
:1023800070030224DDAC08AD09740212171FAA8283
:10239000AB83120D168E828F83A3A3750CFF750D70
:1023A000FF750EFF750F00780C12157E7402121760
:1023B0001F7510FF7511FF7512FF7513007810124D
:1023C000157E780C79101213A3502A780C7910120C
:1023D00015437508017509C8750A00750B00780862
:1023E000790C1213A35052850C08850D09850E0A2D
:1023F000850F0B80507514017515C875160075177B
:102400000085100885110985120A85130B78087953
:102410000C121543781479081213A3401C75080098
:10242000750900750A00750B0178087910121543BB
:102430007808790C12150A800C7508017509007569
:102440000A00750B00740978081214EB750C19F565
:102450000DF50EF50F7808790C1214628E828F83B9
:10246000A3A3A3A3A3A3E0F8A3E0F97AD07B03126C
:102470001649880C890DE4F50EF50F7808790C12D1
:10248000150A740612171FE0F8A3E0F97AD07B034F
:10249000121649E8FA8A0CE4F50D7808790C121343
:1024A000A350077808790C1215439003A2E0640842
:1024B000600AE064066005E06405702D750C0D7817
:1024C0000C79081213A34021750CF4750DFF750EDD
:1024D000FF750FFF7808790C12150A800C7508003B
:1024E000750900750A00750B00851882851983E04F
:1024F000F8A3E0F583888278081215B374081216E1
:10250000EA7F1002184374F7121797120D289005EE
:102510003FE064017010906245E4F0A3F053F4F3DF
:1025200043FE0C5390F3120CD4E5C654804449F595
:10253000C6E59E547F644970F8906185740FF090F1
:10254000053DE0F47002A3E0604E90053EE06008B7
:1025500014601B14602E80407508017509009005F9
:102560003DE078081216C1E508F45280802A75080B
:102570000175090090053DE078081216C1E508F4E0
:102580005290801475080175090090053DE07808A7
:102590001216C1E508F452A079007F0202184374B4
:1025A000F7121797E9FEEAFF74016E700C7A807BD0
:1025B000009003A1E0F9121022902928E493F4601E
:1025C00008E493F9120B24800953C680E59E547FDA
:1025D00070FA120CDA90053FE064017003120B3CB4
:1025E00090053DE0F47002A3E0604B90053EE06092
:1025F0000814601A14602C803D750801750900905C
:10260000053DE078081216C1E5084280802875086B
:102610000175090090053DE078081216C1E50842F1
:1026200090801375080175090090053DE078081247
:1026300016C1E50842A0120D28120C868A088B09E3
:10264000A808A909E8496015E5E170FCE82414F53B
:1026500082E93400F583E0F46003E0F5E174016F92
:10266000700A7A019003A1E0F912107602259A749B
:10267000ED1217978A088B098C0A8D0B74131217A9
:102680001F780C1215A47808790C1213A375100189
:102690007511C875120075130050127808790C1264
:1026A0001543781079081213A350168010780C790E
:1026B000081215437810790C1213A3400479018095
:1026C0000279007F0C02184374ED1217978A088B69
:1026D000098C0A8D0B741312171F780C1215A4782D
:1026E0000C79081213A340117808790C121543AA2B
:1026F00008AB09AC0AAD0B8022751000751100758E
:1027000012007513017810790C12154378107908AE
:1027100012150AAA10AB11AC12AD1380A68A828BD7
:10272000837508FF7509FF750AFF750B007808129D
:1027300015917F0402184374F51217978C828D83CC
:1027400078081215A48A828B837808121557EA2418
:1027500004F8EB3400F98C828D83A3A3A3A3E0FCDF
:10276000A3E0FD88828983C3E09CF0A3E09DF0880C
:10277000828983C3E09420A3E0944E40268A828B12
:10278000837508FF7509FF750AFF750BFF7808123E
:1027900015308A828B83A3A3A3A3E02420F0A3E0B7
:1027A000344EF002271D74F5121797E9FE9004F7D6
:1027B000E0FAA3E0FBEEC333F8E433F974C928F57B
:1027C00082748039F583E02AF508A3E03BF50978A7
:1027D0000812193E7A407B427C0F7D001222F87469
:1027E000021216EA8A088B098C0A8D0B741078087D
:1027F0001214D2AA08AB097F0402184374F112170D
:10280000978A0C8B0D8C0E8D0F740F12171FE0FA28
:10281000A3E0FB741112171FE0F508A3E0F5097897
:102820000812193EEA2401F508EB3400F509E4F535
:102830000AF50B780C79081213E275087175090214
:10284000780C79081213E2AA0CAB0DAC0EAD0F1286
:1028500022F874021216EA8B09EA450960047A012B
:1028600080027A00EC2AFCED3400FD741312171F6D
:10287000E0F8A3E0F9E8FEE9FFECF8EDF97A717B06
:1028800002121649880889098E828F8378081215EA
:10289000B3ECF8EDF97A717B021216498A088B09BC
:1028A000740578081216C18E828F83A3A3A3A3E5B3
:1028B00008F0A3E509F07F08021843C082C083E94D
:1028C000906000F0D083D08222C2AF02000022C00C
:1028D000E074F2121883A2AFE433FED2AFE589A20E
:1028E000E04006E589A2E1500312120275890075E5
:1028F0008900C2C5751A00EEA2E092AF7F010218EE
:10290000E2C0E0C0D0E8C0E0E9C0E0E5A8D2AFC2D4
:10291000C7751A00A2E7A2E792AFD0E0F9D0E0F8BD
:10292000D0D0D0E032020135FFFFFFFFFFFFFFFFF5
:10293000C082C083E9900A04F0022BBF74F712171B
:102940002BE99002E1F07C197D037AFF7BFF1208EE
:102950006C9002E274FFF0A3F0A3E4F0A3F0790519
:102960001207F49002E1E0F91207167A8A7B081246
:102970000A347F010217FD74F412172B8A088B09A1
:10298000EB548060309002E1E0F912100A8A0A8B61
:102990000BAE0AAF0BEE4F60138E828F83E064B0F4
:1029A000700312080CEEFAEFFB120FF8AA08E50903
:1029B0006480FB80047A007B00022B8E74F2121775
:1029C0002B74FC1216D4EAFEEBFFEE4F6038740253
:1029D00012171FEEF0A3EF122DF3ECF0A3ED122D62
:1029E000F3AA82AB83120710E9F508707374121210
:1029F000171F1239A7E50A450B60658E828F831277
:102A00002A6AEE4F700575080280557A067B00121F
:102A1000105E8A0C8B0DA80CA90DE849700575088D
:102A200013803D88828983E4122A74A3A3EEF0A365
:102A3000EF123E40E50AF0A3E50BF09002E7122A00
:102A4000FC9002E76017E0FCA3E08003EAFCEBFDEA
:102A50008C828D83122AFC70F38C828D831238CC89
:102A6000A90874041216EA024042A3A3A3A3E0FE3D
:102A7000A3E0FF22F0A3F0888289832274F2121768
:102A80002B890AE975F017A4FEAFF09002E6E4F096
:102A90009002E4122AFC600A1210649002E4E4F04E
:102AA000A3F0EEFAEFFB12105E8A088B09EA4509E3
:102AB000602FEEFCEFFD7900120FE69002E4E508CE
:102AC000F0A3E509F07B008008122AE6E4F0A3F009
:102AD0000BEBC3950A40F2E50A9002E6F07900801C
:102AE000027913024042EB75F017A4F8A9F09002A6
:102AF000E4E028FAA3E0398A82F58322123662EAFA
:102B00004B2274F412172B750800750900740C120F
:102B1000171F123E14FEE9FF800CE5082401F5089A
:102B2000E5093400F509C3E5089CE5099D503285A7
:102B3000080A85090B7403780A1216C1EA250AF8F7
:102B4000EB350BF988828983A3A3A3A3A3A312392E
:102B5000A7EE650A7003EF650B70BFE8FAE9FB802A
:102B6000047A007B00802774F412172B7900EAA204
:102B7000E0501B750844750981780812193E7C04E1
:102B80007D007A067B0A1207EE74021216EA7F04B1
:102B90000217FDC082C0839002E7122BC6601C881A
:102BA000828983A3A3E06A7003A3E06B8882898390
:102BB00070E8A3A3A3A312365E80047A007B00D042
:102BC00083D082020135124115E8492274EE1217B2
:102BD0002B74FC1216D4EAFEEBFF8518828519834C
:102BE000E4F0A3F0EE24021238B0EE2405122DE139
:102BF000EE2404F50EEF1231C6E024FE603924FC09
:102C0000604624FE605224FE605E24FE7003022CA7
:102C1000E624FE7003022D5E24FE7003022D6D2457
:102C2000FE7003022D7C24FC7003022D8B24FE70A9
:102C300003022D9A022DD79003007417F0A3E4121B
:102C40002DFB12048E022DD7851882851983AC8244
:102C5000AD83120812022DA7851882851983AC82D4
:102C6000AD83120818022DA7850C08850D09740282
:102C700012171FAC82AD8385088285098312365EE8
:102C80001207348A0C8B0DAC0CAD0DEC4D6042E498
:102C9000F50CF50D780C12193E750C00750D0378C6
:102CA0000C12193E750C01750D03780C12193E7447
:102CB0000812171F12195579161236581208547433
:102CC000081216EAE9F50C700B1236541204A680AD
:102CD0000F750C01850882850983122DE91238CC05
:102CE000850C08022DAA740212171FAC82AD8385D1
:102CF0000C82850D8312365E1207348A108B11AC5C
:102D000010AD11EC4D6043850C82850D83A3A31299
:102D10001955751000751103781012193E751001C0
:102D2000751103781012193E740812171F121955E5
:102D3000791612365812085474081216EAE9F50981
:102D4000700B1236541204AC800F750901850C8289
:102D5000850D83122DE91238CC850908804C851821
:102D600082851983AC82AD8312081E803A85188251
:102D7000851983AC82AD83120824802B8518828547
:102D80001983AC82AD8312082A801C8518828519AC
:102D900083AC82AD83120830800D8518828519833B
:102DA000AC82AD83120836E9F508E50860298E8209
:102DB0008F83A3E06414601F850E82850F83E090EB
:102DC0000300122DF31241119003011238CCE508D3
:102DD000A3122DFB120488EEFAEFFB1207B20237A2
:102DE000B8F50CEF3400F50D2212411585188285D7
:102DF000198322F085188285198322F07C007D03D7
:102E0000850A82850B831236622274EE12172B74A8
:102E1000FC1216D48A0A8B0B8C0E8D0FEA2405F552
:102E200008EB3400F5097C157D0079007A007B03FE
:102E3000120FE6E5082402F50CE509122DE48518C9
:102E400082851983858210858311781012193E8539
:102E50000882850983A3A3A3A312330E12193EE5AA
:102E6000082405F510E5093400F511781012193E13
:102E7000850C82850D8312366812072E7406121691
:102E8000EA8A108B11AE10AF11E50A2402F50AE5AB
:102E90000B1238B3EE4F7003022FD080177402125A
:102EA000171F12365E88828983EAF0A3EBF0900345
:102EB00000E004F0900300E0C394054003022FD02B
:102EC000E4F510F511781012193E7510E97511022C
:102ED000781012193E7510EA751102781012193E19
:102EE000740612171F1219557910EEFCEFFD1236F9
:102EF0005812085474081216EAE9705E8508828533
:102F00000983A3A3A3A3A3A3A3E0F89002E9E06825
:102F1000704812330E12193E7CEA7D02E50824083F
:102F2000FAE5093400FB120FE074021216EAE960B8
:102F3000298E828F83A3A3A3A312365E900300E0A1
:102F4000F510740278101216C174012510F5827400
:102F5000033511F583EAF0A3EBF0740212171F8515
:102F60008210858311781012193E740212171F12F5
:102F70001955850C82850D8312412612073A740477
:102F80001216EA8A108B11AE10AF11900300E0F513
:102F900010751100740278101216C174002510F813
:102FA00074033511F988828983A3122AFC70030205
:102FB0002E94E82403F8E93400F9EE4F6003022E62
:102FC0009D8882898374FFF0A3F0900300E004F0F1
:102FD000900300E0600A12365412049A7900800BC4
:102FE0008508828509831238C3790A0237B874EAE2
:102FF00012172B74FE1216D48C128D13EA2405F5C9
:103000000CEB124290122A6E750800750900EA2432
:1030100002F510EB3400F51185188285198385823D
:103020000A85830B780A12193E850C82850D83A3CD
:10303000A3A3A31231D012193EE50C2405F50AE52D
:103040000D1238B3780A12193E850C82850D831251
:10305000412412072E74061216EA8A0A8B0BEA45DF
:103060000B7003023181EA2404F50EEB1231C61213
:103070002A6E8A828B83A3A3A3E0F985108285112F
:103080008312365E12071CE9F5096003023181E400
:10309000F514F515781412193E7514E975150278B2
:1030A0001412193E7514EA751502781412193E743B
:1030B0000612171F1219557913AC0AAD0B85108231
:1030C00085118312365E12085474081216EAE9F567
:1030D0000960030231819002E9E0F8E5087009E037
:1030E0002402900301F08017900301E0FCE8240221
:1030F000FAE43400FBEA6C7001EB60030231858571
:103100000882AA8212330594141232FD5073850E80
:1031100082850F83E0C0E074022A1231BDD0E0F056
:103120000508850E82850F83A3E0C0E085080A7438
:1031300002250A1231BDD0E0F005089002E91231F3
:10314000D012193E7CEA7D0285080A7402250AFA2B
:1031500074033400FB120FCE74021216EA9002E9D7
:10316000E02508F50874FF6E700374FF6F6012EEBF
:1031700024010EEF3400FFE508C39414500302301D
:1031800018E50860131235498510828511831236BF
:103190005E1204A079008014E509700375090A85A0
:1031A0001282851383EEF0A3EFF0A90974021216C0
:1031B000EA7F0E0217FD85080C7402250CF5827457
:1031C000033400F583223400F50F850E82F5832247
:1031D000123E532274EE12172B74FE1216D48C0E6C
:1031E0008D0FEA2405F50CEB122DE4750B0090030E
:1031F00000E4F0F50AEA2402F508EB3400F5098052
:1032000049900300E0FA9002E9E0F81233059417C0
:103210001232FD400D900300E0F87416C39890023E
:10322000E9F012330E12193E7CEA7D0274012AFA8B
:1032300074033400FB120FCE74021216EA9002E9F6
:10324000E0F8900300E028F0050AE50C2416F5826A
:10325000E50D1231C1E0F8E50AC39840030232E6F9
:10326000900300E0C39416507DE50AC333F8E433BD
:10327000F9E50C28FEE50D39FF851882851983AC28
:1032800082AD838E828F8312365E1207348A108B52
:1032900011AC10AD11EC4D7005750B018043E4F5D8
:1032A00010F511781012193E7510E9751102781099
:1032B00012193E7510EA751102781012193E740643
:1032C00012171F121955791685088285098312363F
:1032D0005E12085474081216EAE9F50B7003023204
:1032E000011238BF80107C007D0385088285098328
:1032F00012365E1204B2A90B74020237BAE99400C6
:10330000C365D03322EA28F8E43400F9E822E0F576
:103310001075110078102274EA12172B74FC121623
:10332000D48A0C8B0D8C128D13EA2405F50AEB124E
:1033300038B3750800750900E50A2402F510E50B9D
:103340003400F511740212171F85820E85830F78E1
:103350000E12193E850A82850B83A3A3A3A3123DF7
:10336000FF12193EE50A2405F50EE50B3400F50FB2
:10337000780E12193E8510828511831238B91236E3
:103380005812072E74061216EA8A0E8B0FAE0EAF75
:103390000FE50C2402F50EE50D3400F50F80408892
:1033A00082898374FFF005081231B674FFF00508B6
:1033B0009002E9E0F50C750D00780C12193E7CEADC
:1033C0007D0285080C7402250CFA74033400FB128C
:1033D0000FCE74021216EA9002E9E02508F508EE15
:1033E0004F60718E828F83A3A3A3E0F9850E82853F
:1033F0000F8312365E12071CE9F509EE2404122D24
:10340000E1E97044E4F514F515781412193E7514C9
:10341000E9751502781412193E7514EA75150278CB
:103420001412193E740812171F1219557911EEFC67
:10343000EFFD850E82850F8312365E1208547408E4
:103440001216EAE9F5096027850C82850D8312358D
:103450003F1238CCE5087003023525123549850E38
:1034600082850F8312365E1204B8790002353A85E0
:103470000882AA82EA9002E97009E024049003011C
:10348000F08022E0F8900301E0F514E82404FCE465
:103490003400FDEC65147001ED70C0123305941218
:1034A0001232FD50B6850C82850D83E0C0E07402B7
:1034B0002A1231BDD0E0F00508850C82850D83A36A
:1034C000E0C0E01231B6D0E012355B85820C858316
:1034D0000D780C12193E740412171F12195585101D
:1034E0008285118312412612073A74041216EA8A61
:1034F0000C8B0DAE0CAF0D85080C7402250CF87406
:10350000033400F9EE4F700302339F85188285194A
:1035100083E08882898312355BA3E0C0E01231B674
:10352000D0E00233ADE509700375090A850A82858A
:103530000B8312353F1238CCA90974040231AE1244
:10354000411585128285138322900301E0F5F0E591
:103550000884900300F07C007D0322F005088518A4
:10356000828519832274EC12172B74FE1216D48AEA
:10357000088B098C0E8D0FEA2405FEEB3400FF85C5
:103580001882851983AC82AD838E828F8312365E5A
:103590001207348A0A8B0BEE2418122DE1EA450B30
:1035A000700302362F1237A1503285188285198395
:1035B00012365E1208488A108B11EA4511606B7949
:1035C00012AC0AAD0B85088285098312365E851020
:1035D00082851183121729E9F50A7058E4F50AF576
:1035E0000B780A12193E8E828F83A3A3E0F50A7826
:1035F0000A12193EEE24031238B0780A12193E8ED0
:10360000828F8312366812085A74061216EAE9F598
:103610000A7021850C82850D83E0701F85088285E4
:10362000098312365E1204BE8011750A0E80097578
:103630000A018004E50A60031238BF850C82850DFB
:1036400083E0600479008002A90A74021216EA7FFE
:103650000C0217FD7C007D03850A82850B831236E0
:103660006222E0FAA3E0FB22E0FCA3E0FD850882F1
:103670008509831236622274EE12172B74FE12161D
:10368000D48A088B098C0C8D0DEA2405FEEB3400DE
:10369000FF750E00851882851983AC82AD838E82FA
:1036A0008F8312365E1207348A0A8B0BEA450B7041
:1036B0000302378D1237A150358518828519831280
:1036C000365E1208488A0E8B0FEA450F605E79124B
:1036D000AC0AAD0B85088285098312365E850E82A1
:1036E000850F83121729E9F50E60030237908508CC
:1036F000828509831239A7AA0AFB12083C8A108B1B
:1037000011A810A911E849701E7AFF7BFF12083C2E
:103710008A108B11A810A911E849606C88828983EE
:10372000E50AF0A3E50BF0750A008007750E0E8020
:103730005F050A9002E6E0FAE50AC39A504AE50AF4
:1037400075F017A4FAABF088828983A3A3E02AFA64
:10375000A3E03BFB8A828B831238B9EC4D70D275A3
:103760000A17750B00780A12193EEEFCEFFD120FD6
:10377000CE74021216EAEEFCEFFD850882850983FD
:1037800012365E1204C48014750E098003750E0192
:1037900012410D850C82850D831238CCA90E0232A0
:1037A000F8E5082402F508E5093400F5098A828B5A
:1037B00083A3A3A3E0A2E52274041216EA7F0A02FF
:1037C00017FD74EC12172B8C108D11EA2405F50CE3
:1037D000EB122DE4750F00EA2402F50AEB1238B360
:1037E000850A82F58312365E12083C8A088B09EA44
:1037F000450970030238A5750E008071850C82851D
:103800000D83E06401704F8E828F83A3A31219553C
:103810008E828F83A3A3A3A3E0F512751300781201
:1038200012193EEE2405F512EF3400F5137812124A
:10383000193E12365812085A74061216EAE9F50FA4
:103840006014850C82850D83E4F012410D85108291
:103850008511831238CC7C177D007900EEFAEFFBDE
:10386000120FE68E828F83E4F0A3F0050E9002E63D
:10387000E0F8E50EC398501EE50E75F017A4F8A900
:10388000F0850882850983A3A312429A1238B9EC05
:103890004D60030237FC85088285098374FFF0A31D
:1038A000F0E50F70061236581204CAA90F02364FFF
:1038B000F50AEF3400F50B22A3E0FCA3E0FD228E15
:1038C000828F83124115850E82850F83E8F0A3E96C
:1038D000F022C082C0839002E2E06A7003A3E06B32
:1038E00070067AE27B0280047A007B00022BBFC064
:1038F00082C08378008C828D83E06A7003A3E06BC2
:103900007010E875F003A4F8A9F0EC28FAED39FB83
:103910008015088C828D83A3A3A3E06A7003A3E0C3
:103920006B60DF7A007B00022BBF74F612172B123C
:1039300008068A828B83E582458370067A007B00C5
:103940008007A3A3A3A312365E023FBE74F2121730
:103950002BE9FE740E12171F1239A7741012171FCD
:10396000123E1F8C828D83E064027036A312411BCD
:10397000F50CA3E0F9A80C7402687003742969704F
:1039800021750C02750D00780C12193E7808121979
:103990003E780A12193EEEF912087E74061216EAF3
:1039A00080027901024042E0F50AA3E0F50B22749F
:1039B000E812172B74FB1216D4E985188285198337
:1039C000F08A168B17ECFEEDFF751000741D1217B0
:1039D0001F124111741D12171F1238CC8E828F8353
:1039E000A3A3A3E0A2E4502D741D12171F12365E8C
:1039F0001208488A828B83E58245837003023DF07A
:103A0000790AEEFCEFFDAA16AB17121729E9F5109B
:103A10006003023DF3741F12171F123E1F74211220
:103A2000171F1239A7742312171FE0F50EA3E0F534
:103A30000F8E828F83E064026003023D9EA31241D9
:103A400011850882850983A3858212858313EE245C
:103A500006122DE188828983E0FAA3E0F9EA2400C6
:103A6000F514E439F51578141219C801000028017D
:103A700028933A07000228583B0328C53A00298FAB
:103A80003C0129BA3C02295B3C03298F3C042939BB
:103A90003D9E3DE50E450F6003023D99850C8285F4
:103AA0000D83123E14FAE9FB8A828B83E0850A8239
:103AB000850B83123E4A12193E8A828B83A3E0FC57
:103AC000A3E0023D23E50E450F6003023D99850A00
:103AD00082850B837401F0123E2785088285098355
:103AE000F07C007D008E828F83A3A3A3A3E024013A
:103AF000FAA3E03400FB120734EA4B60418A828B60
:103B000083E02402F8850A82850B83E028F0EA240A
:103B100004F8EB3400F988828983E08512828513EA
:103B200083123E5C123E4A12193E8A828B831238FF
:103B3000B8E5082403FAE5093400FB023D28850AAC
:103B400082850B83E02404F07C047D007900AA12B6
:103B5000AB13120FE6023DF3E50E450F6003023D85
:103B600099123E27FEA3E0FF850A82850B83740429
:103B7000F0EE850882850983F0EF85128285138334
:103B8000F0740312171FAC82AD83EEFAEFFB12073D
:103B9000348A0C8B0DEA450D7003023C3C8A828B03
:103BA00083A3A3122A6A740112171F85820E8583CC
:103BB0000F780E12193E740512171F1219557CFF4B
:103BC0007DFF12073A74041216EA8B0FEA450F7054
:103BD00033850C82850D83123DFF12193E850C82C0
:103BE000850D83A31219557C027D007AB27B811268
:103BF000056674041216EAE9700A740112171F743C
:103C0000FFF0A3F08E828F83E064027039750C029E
:103C1000750D00780C12193E8E828F831238B8E52C
:103C2000082404FAE5093400FB120FCE74021216C0
:103C3000EA850A82850B83E0240280097401121749
:103C40001FEEF0A3EFF0740112171F123E10F07474
:103C50000112171FA3123E08023D93E50E450F60A7
:103C600003023D99850C82850D831238B9AA16ABE3
:103C700017120872850A82850B837402F0EA8508A0
:103C800082850983F0851282851383EB023D96E5D8
:103C90000E450F6003023D99123E27F8A3E0F98517
:103CA0000A82850B837402F0E8850882850983F017
:103CB000E9851282851383023D96850C82850D83EA
:103CC00012365E120FC8EAFC8C82A882C3950EE4FD
:103CD000950F405FE8650E7002E50F70047C008070
:103CE00022851882851983E0FAE50E2AFAE50F3459
:103CF00000FBC3EA98EB94005003E08005E50ECC8E
:103D0000C39CFCEC850A82850B83F08C0A750B0042
:103D1000780A12193E850C82850D83E0250EFCA3DE
:103D2000E0350FFDAA08AB09120FCE74021216EA95
:103D3000023DF3751007023DF3E50E450F705A85FD
:103D40000C82850D83124111850A82850B837407CD
:103D5000122A76123E08122A76A3E0851282851373
:103D600083F0E82402FAE93400FB8A828B83123E56
:103D700008123E37123E10A3123E40123E19F0E8E0
:103D80002405F8E93400F988828983123E19A312C8
:103D90003E5CA3A3A3A3F0805A75100B8055741D3D
:103DA00012171F12365E1208068A828B83E582453F
:103DB00083603D124111880C890DE8450D60317812
:103DC0000E12193E780A12193E780812193E74062E
:103DD00012171FE0F9EEFCEFFDAA16AB17850C8257
:103DE000850D8312172974061216EAE9F51080036F
:103DF00075100EA91074051216EA7F100217FDE067
:103E0000F50E750F00780E22E08508828509832261
:103E1000123E6622124115E822123E66A3A322E05A
:103E2000F508A3E0F50922850C82850D83E0F8A34F
:103E3000E0F5838882E022A3A3F08A828B83A32209
:103E4000F088828983A3A3A3A322F08A828B8312A2
:103E50003E5322E0F50A750B00780A22F088828929
:103E600083A3123E6622E0850882850983A3A322EC
:103E700074EE12172B74FE1216D48A0A8B0BECFA0E
:103E8000EDFB741412171FE0F510A3E0F511741682
:103E900012171FE0FE741812171FE0F50EA3E0F5CD
:103EA0000F851882851983AC82AD831207348A0C82
:103EB0008B0DEA450D604985188285198312365E9F
:103EC0001208068A828B83E5824583602FA3A312A2
:103ED0003E1FE50845096024780E12193E7810123D
:103EE000193EEEF9AC0CAD0DAA0AAB0B8508828524
:103EF000098312172974041216EA8006790E8002CB
:103F000079010232F874F612172B74FE1216D4746B
:103F10000C12171F123E14851882851983F0740144
:103F200012171FE9F0E4F508F509780812193E7533
:103F30000802780812193E740412171F858208853A
:103F40008309780812193E12085A74061216EA7488
:103F5000021216EA806874F712172BEAFEEBFF894B
:103F6000087C197D03120872EA5402600BA908EE5E
:103F7000FAEFFB1207288002790102297274F61207
:103F8000172B74FF6A700374FF6B70168C828D831D
:103F9000123FC3E4F08C828D83A3A3A3123FC3A37B
:103FA00080181208428A088B09A808A909E8496004
:103FB0000D8882898374FF122A74A3A3E4F07F0220
:103FC0000217FD74FFF0A3F08C828D83A3A32274EB
:103FD000F612172B1208428A828B83E58245836092
:103FE00006A3A3E0FA80027A007B0080D174F2126B
:103FF000172B8A088B09ECFEEDFF740E12171FE0D9
:10400000F50A1208428A0C8B0DA80CA90DE849701C
:1040100026EEFCEFFD7AFF7BFF1208428A0C8B0D27
:10402000A80CA90DE849700479118016888289834B
:10403000E508F0A3E509F088828983A3A3E50AF0E7
:1040400079007F060217FD74EE12172BEAFEEBFFD4
:104050008C088D09890C741412171F1241117416E3
:1040600012171F12365E750D00E849600302410504
:104070007402650C6003024100741212171F124192
:104080001BFCA3E0F9EC2400F50EE439F50FEAF48B
:10409000F8EBF4F9EC58F8E50F59F9E849705CE5EC
:1040A000082406F8ED3400F9880A890B8882F58324
:1040B0001241261208728A108B11E50E65107004E9
:1040C000E50F65116042780E12193E850A82850B54
:1040D0008312412612087874021216EAE9F50D706F
:1040E00027780E12193E850882850983A3A3124101
:1040F0002412089074021216EA800D750D80800853
:10410000750D0D8003750D0BA90D0237BD8E828FC5
:104110008312411522E0F8A3E0F9221241158882AA
:104120008983E022A3A3E0FCA3E0FDEEFAEFFB22EB
:1041300074E812172B74E71216D485188285198338
:10414000EAF0A3EBF08C168D17890E75080075093F
:1041500000743112171FE0F512A3E0F51374331247
:10416000171FE0F514A3E0F515743512171FE0F5DD
:104170000FE50975F003A4F8A9F085188285198365
:1041800012429AE0F47003A3E0F4700302427DEE61
:104190002402F50CEF124290E0700302427D851676
:1041A0000A85170B780A12193EAC14AD15AA12AB8A
:1041B000131207FA74021216EA8A0A8B0BEA450BED
:1041C000700302427DE4F510F511781012193E7467
:1041D0000612171F858210858311781012193E74FC
:1041E0000912171F858210858311781012193E85D8
:1041F0001282851383A3A3A3A31219557914AC0AC1
:10420000AD0B8E828F8312365E120854740812161C
:10421000EAE97069850A82850B83A3A3A3A31241EF
:1042200011740212171F1238CC850C82850D83E0A1
:10423000A2E05018A90E740212171FAC82AD838E33
:10424000828F8312365E12074CE94208850C828504
:104250000D83E0A2E15026E50FF50A780A12194213
:10426000A90E740312171FAC82AD838E828F831246
:10427000365E12074674011216EAE942080509E59E
:1042800009C394025003024171A9087419023DF751
:104290003400F50D850C82F58322E028FEA3E03979
:1042A000FF8E828F832274F212172BEAFEEBFF89B6
:1042B0000B7401650B600E7402650B706A79011254
:1042C0000A52E97062EEFAEFFB12083C8A088B0989
:1042D000EA45096047750A00800B7C177D0079006C
:1042E000120FE6050A9002E6E0F8E50AC3985021AD
:1042F000E50A75F017A4F8A9F0850882850983A35B
:10430000A3E028FAA3E039FB8A828B83122BC670C4
:10431000C985088285098374FFF0A3F07C197D03A9
:10432000EEFAEFFB12086C02404274F212172B8A6D
:10433000088B09ECFEEDFF740E12171F1239A790BF
:104340000A04E0F4603D7A097B00120FF2EA4B6048
:10435000328A828B8374B1F0A3E4123E39A3123EF9
:1043600037A3E508F0A3E509124386EEF0A3EF12A8
:104370004386A3A3E50AF0A3E50BF0900A04E0F955
:10438000120FFE024042F08A828B83A3A3A3A3A351
:1043900022C082C0839061907404F0A37448F0A39B
:1043A0007402F09061807440F09061BC7403F090EE
:1043B00061877419F0906265741BF0906249E0C3E4
:1043C000941390619C400A7409F0906066740180B7
:1043D00007740DF0906066E4F090619A7433F0A376
:1043E0007455F09061A0743AF090053FE06401705C
:1043F00009C2919003A6746780059003A67461F0CA
:1044000090292EE493906186F0902928E493F4603B
:1044100027E493540FF8906185E0686012E5C65474
:10442000804449F5C6E59E547F644970F8E8F0532E
:10443000C680E59E547F70FA7905120DB20245ECF4
:10444000C082C083E9540FF9906185E0696012E58C
:10445000C654804449F5C6E59E547F644970F8E926
:10446000F053C680E59E547F70FA0245ECC082C0CE
:1044700083E5A8F853A87E906181E4F0A3F0A3F04F
:10448000C2BA539AFEC289759B00C2C275E9007513
:10449000910075BF0075A91175B905906181F0A3F0
:1044A00074C0F0A3E4F0D2BA439A0174805842A8D1
:1044B0000245ECC082C08374F81216D49003A4E0C5
:1044C000F8A3E0F9E84970030245E19003A4E05441
:1044D0004060237908851882851983AA82AB8312EC
:1044E0000C14851882851983AA82AB831209029065
:1044F00003A4E054BFF0E054806010790C7A657B2F
:1045000005120C149003A4E0547FF0E0A2E05031B7
:1045100090619A7433F0A37455F09061A0743AF0EE
:1045200090053FE064017009C2919003A674678012
:10453000059003A67461F01209089003A4E054FEEC
:10454000F0E05402603190619A743FF0A3745AF025
:104550009061A0747FF090053FE064017009D291F2
:104560009003A6747180059003A6746AF01209087E
:104570009003A4E054FDF0E05404601390292CE46F
:1045800093906186F012090E9003A4E054FBF0E0D2
:104590005408601390292DE493906186F012090E5F
:1045A0009003A4E054F7F0E05410601390292EE437
:1045B00093906186F012090E9003A4E054EFF0E0AE
:1045C0005420600A12090E9003A4E054DFF0A3E027
:1045D0005401600D120B3C1209149003A5E054FE27
:1045E000F074081216EA0245ECF0A3F0D083D082F2
:1045F00002013574EC12172B74F41216D48518824C
:10460000851983AC82AD83758381758287740412AA
:1046100015E790292C93F4600302477F907808E017
:10462000C39402500302475F740412171FAC82AD9B
:104630008375838175822A74081215E7851882852F
:104640001983858212858313740412171FAC82ADFF
:1046500083750EFF750FFF7FFF7E00750C48750D8B
:1046600078801574086E70030246F374096E700347
:104670000246F3740A6E607B850C82850D83780890
:104680001215A48C828D83A909E50AC9F8881074D3
:104690001878081214D2E5104508F8C3E098A3E092
:1046A00099850C82850D8378081215A440188C8298
:1046B0008D83741878081214D2E5104508F8E0C309
:1046C00098F8A3E0801C741878081214D2E51045FD
:1046D00008FAE9FB8C828D83E0F8A3E0F9EAC3983D
:1046E000F8EB99F9C3E8950EE9950F5006880E8905
:1046F0000FEEFF0EE50C2404F50CE50D3400F50D6E
:10470000EEC39413500302466374FF650E70047485
:10471000FF650F60238F08740278081216C1744871
:104720002508F58274783509F58378081215A48573
:104730001282851383E508F0EC2402FCED3400FDC1
:10474000851282851383A3858212858313740C12CC
:10475000171FE5826C7003E5836D60030246517597
:104760000801750900780812193E740212171FAC6F
:1047700082AD837A4B7B0A1211DE74021216EA7440
:104780000C1216EA7F0C0217FDC082C0839061AE46
:104790007468F0A3746AF090624574FBF0A304F0AF
:1047A00053F4FD43FE0290053F7401F09061A0E0D8
:1047B000643A90619A70237433F0A37455F0906159
:1047C000A0743AF0740164017009C2919003A67458
:1047D0006780289003A674618021743FF0A3745A07
:1047E000F09061A0747FF0740164017009D291901F
:1047F00003A6747180059003A6746A0245EB7F08D6
:104800000217FDC082C0839004F1E06401700A9039
:1048100004F6E06004790C800279000245ECC08265
:10482000C08375E1F19004F4E0605B1460091460EA
:104830005F14605714705E120B4E9004EAE0F97A30
:10484000EB7B04120D347AD67BBE7C897D8E120DF3
:104850006A7A557B557C557D00120D409004F5E039
:10486000F9120D4C7901120DA69004E8E0F8A3E0CE
:10487000C82416F582E83400F5837466F0A3740B3F
:10488000F079000245EC120B5480AF120B5A80AA4B
:10489000120B6080A5791280EA74F012172B75D97B
:1048A0000D9004D5E0A2E0E4331313F89004EAE09D
:1048B000C4333354C0484401F5D978E87904888278
:1048C0008983A3A3A3E0F5D988828983A3A882A9B9
:1048D00083E864EE7003E9640470E378D5790488B2
:1048E000828983A3E0F5D988828983A3A882A983DA
:1048F000E864DB7003E9640470E575E1959004D524
:10490000E0F97AD67B04120D3A900A2674FAF0A3E5
:10491000740AF0A3745CF0A3740CF0A3745CF0A3AD
:10492000740CF0A3745CF0A3740CF0A37400F0A3F7
:10493000740BF0A3745CF0A3740CF0A37418F0A3D0
:10494000740BF0900A34745CF0A3740CF0A3745CE4
:10495000F0A3740CF0A3745CF0A3740CF0A3745C6B
:10496000F0A3740CF0A3745CF0A3740CF0A3745C5B
:10497000F0A3740CF09004F4E064019004E8701269
:10498000E0F8A3E0F5838882A3A375080075090801
:104990008010E0F8A3E0F5838882A3A3750804756E
:1049A0000900750A00750B00780812151D750CFFBB
:1049B000750DFF750EFF750F007808790C12156BD9
:1049C0009004E8E0F8A3E0C8240EF582E83400F58E
:1049D0008378081215B39004E8E0F8A3E0C8241423
:1049E000F582E83400F5837413F09003A27402F0AA
:1049F0000247FE74F712172B9004FAE02407F5D94A
:104A00009004EAE0C4333354C0F5D978E8790488D7
:104A1000828983A3A3A3E0F5D988828983A3A8828E
:104A2000A983E864EE7003E9640470E39004FAE09B
:104A3000601F78E87904FAE82413F582E93400F578
:104A400083E0F5D988828983A3A882A9831AEA70B2
:104A5000E690051AE02407F5D99004EAE0C4333360
:104A600054C04404F5D978E8790488828983A3A3E3
:104A7000A3E0F5D988828983A3A882A983E864EE9C
:104A80007003E9640470E390051AE0601F78E87928
:104A900004FAE82433F582E93400F583E0F5D98897
:104AA000828983A3A882A9831AEA70E675E19590AA
:104AB0000A267406F0A3740BF0A3745CF0A3740CC4
:104AC000F0A3745CF0A3740CF0A3745CF0A3740CFA
:104AD000F0A37400F0A3740BF0A3745CF0A3740C47
:104AE000F0A37418F0A3740BF0900A34745CF0A374
:104AF000740CF0A3745CF0A3740CF0A3745CF0A3CA
:104B0000740CF0A3745CF0A3740CF0A3745CF0A3B9
:104B1000740CF0A3745CF0A3740CF09004E8E0F85B
:104B2000A3E0C8240EF582E83400F58374FFF0A3F7
:104B3000F0A3F0A3F09004E8E0F8A3E0C82414F593
:104B400082E83400F5837412F09003A27401F0FF40
:104B50000217FD74F712172B9004FAE02407F5D919
:104B60009004EAE0C4333354C04402F5D978E879BC
:104B70000488828983A3A3A3E0F5D988828983A3CB
:104B8000A882A983E864EE7003E9640470E39004EA
:104B9000FAE0601F78E87904FAE82413F582E93432
:104BA00000F583E0F5D988828983A3A882A9831AB6
:104BB000EA70E675E195900A267412F0A3740BF082
:104BC000A37412F0A3740BF0A37412F0A3740BF08F
:104BD000A37412F0A3740BF0A37412F0A3740BF07F
:104BE000A37412F0A3740BF0A37418F0A3740BF069
:104BF000900A34745CF0A3740CF0A3745CF0A3749A
:104C00000CF0A3745CF0A3740CF0A3745CF0A374B8
:104C10000CF0A3745CF0A3740CF0A3745CF0A374A8
:104C20000CF09004E8E0F8A3E0C8240EF582E83424
:104C300000F58374FFF0A3F0A3F0A3F09004E8E084
:104C4000F8A3E0C82414F582E83400F5837414F066
:104C50009003A27404F0024F1A74F712172B9004F9
:104C6000FAE02407F5D99004EAE0C4333354C04491
:104C700006F5D978E8790488828983A3A3A3E0F5AF
:104C8000D988828983A3A882A983E864EE7003E9A6
:104C9000640470E39004FAE0601F78E87904FAE8AD
:104CA0002413F582E93400F583E0F5D988828983FD
:104CB000A3A882A9831AEA70E690051AE02407F5F2
:104CC000D99004EAE0C4333354C04404F5D978E8F9
:104CD000790488828983A3A3A3E0F5D98882898394
:104CE000A3A882A983E864EE7003E9640470E390EA
:104CF000051AE0601F78E87904FAE82433F582E9C0
:104D00003400F583E0F5D988828983A3A882A9833A
:104D10001AEA70E675E195900A26740CF0A3740BFC
:104D2000F0A3745CF0A3740CF0A3745CF0A3740C97
:104D3000F0A3745CF0A3740CF0A3745CF0A3740C87
:104D4000F0A3745CF0A3740CF0A37418F0A3740BBC
:104D5000F0900A34745CF0A3740CF0A3745CF0A3BC
:104D6000740CF0A3745CF0A3740CF0A3745CF0A357
:104D7000740CF0A3745CF0A3740CF0A3745CF0A347
:104D8000740CF09004E8E0F8A3E0C8240EF582E883
:104D90003400F58374FFF0A3F0A3F0A3F09004E8CF
:104DA000E0F8A3E0C82414F582E83400F583741514
:104DB000F09003A27403F0024F1AC082C0839004E3
:104DC000E8E0F8A3E0C82406F582E83400F583E4BF
:104DD0000245E974F712172B9003D0E0F875F00341
:104DE000A4C8AAF02AF974D228F8740339F9E8247F
:104DF00005FAE93400FB8A828B83E0FCA3E0FD889E
:104E0000828983A3A3A3A3A3A3A3A3A3ECF0A3EDED
:104E1000F088828983A3A3A3A3A3A3A3E024FFF81C
:104E2000A3E034FFF98A828B83E8F0A3E9F0024F14
:104E30001A74F712172BEAFEEBFF9061D0E06003C3
:104E4000024F0E75D90E75D90375D904EE248BF572
:104E500082EF3400F583E5822408F8E5833400F915
:104E6000E0F5D9A3E865827003E9658370F2EE246A
:104E700083F582EF3400F583E5822404F8E583347A
:104E800000F9E0F5D9A3E865827003E9658370F263
:104E900075E1957908EE248BFAEF3400FB120C08CB
:104EA0007904EE2483FAEF3400FB120C087C00EE48
:104EB000F8EFF9ECFAC3E49AFA95E0FBEE2AFAEF80
:104EC0003BFBEA248AF582EB3400F583E0C0E0E89E
:104ED00024AAF582E93400F583D0E0F00C888289B9
:104EE00083A3A882A983ECC3940840C7EE246FF57E
:104EF00082EF3400F583E0F8A3E0F9EE2471F58247
:104F0000EF3400F583E8F0A3E9F07901800279003D
:104F10008008F0EEA2E092AF79007F010217FDC099
:104F200082C08375D90275D90375D90575E195EAF3
:104F3000246FF582EB3400F583E0F8A3E0F9EA246E
:104F400071F582EB3400F583E8F0A3E9F079010212
:104F500045EC74F612172BEAFEEBFF90054574063C
:104F6000F0750845750905780812193E7C0179032A
:104F7000120C5074021216EA75D90675D90375829F
:104F800045758305E0F5D9A3E582644A7004E5839D
:104F9000640570F075E1959003A2E06408701EEE60
:104FA000246FF582EF3400F583E0F8A3E0F9EE24F6
:104FB00071F582EF3400F583E8F0A3E9F07901029E
:104FC000522074F612172BEAFEEBFF9061D0E070CE
:104FD000667801900545740BF09003A2E0640770B9
:104FE00019750845750905780812193E7C01790381
:104FF000120C5074021216EA7805740128F5D9755E
:10500000D903758245758305E8FAE0F5D9A31AEA54
:1050100070F875E195EE246FF582EF3400F583E0CA
:10502000F8A3E0F9EE2471F582EF3400F583E8F09F
:10503000A3E9F079018002790002522074F7121777
:105040002BEAFEEBFF75D90375D90375D90DEE2454
:10505000DDF582EF3400F583E0F5D975E19579044B
:10506000120D70EE246FF582EF3400F583E0F8A3A3
:10507000E0F9EE2471F582EF3400F583E8F0A3E95E
:10508000F07901024F1A74F612172BEAFEEBFF902B
:1050900061D0E0F87480C398FAEE2482F582EF3490
:1050A00000F583E06004780480027800E8240BF8BF
:1050B000EAC398500302514B7D09900545EDF0EE8F
:1050C00024E2F8EF3400F97A467B057C088882896F
:1050D00083E08A828B83F088828983A3A882A98354
:1050E0008A828B83A3AA82AB831CEC70E0EE2482BD
:1050F000F582EF3400F583E0601D750845750905FC
:10510000780812193E7C097903EEFAEFFB120C5075
:1051100074021216EA7D0D74012DF5D975D9037547
:1051200082457583058D08E0F5D9A31508E508705B
:10513000F675E1957904120D70EE241DF582EF34B9
:1051400000F583E4F0A3F079018002790002522097
:1051500074F612172BEAFEEBFF9061D0E0F8748032
:10516000C398FAEE2482F582EF3400F583E0600400
:10517000780480027800E82408F8EAC39850030213
:10518000521E7806900545740CF09003BFE0900520
:1051900046F09003C0E0900547F09003C1E0900511
:1051A00048F09003C2E0900549F09003C3E09005F9
:1051B0004AF0EE2482F582EF3400F583E0601B753F
:1051C0000845750905780812193E7C067903EEFA40
:1051D000120C5074021216EA780A740128F5D97577
:1051E000D9037582457583058808E0F5D9A31508AC
:1051F000E50870F675E1957904120D70EE246FF5EF
:1052000082EF3400F583E0F8A3E0F9EE2471F58233
:10521000EF3400F583E8F0A3E9F07901800279002A
:105220007F020217FD74F612172BEAFEEBFF906166
:10523000D0E0F87480C398FAEE2482F582EF34004F
:10524000F583E06004780480027800E82404F8EA3A
:10525000C39850030252FF7802900545E8F0EE240F
:10526000F4F582EF3400F583E0900546F0EE2482F9
:10527000F582EF3400F583E0601B7508457509057C
:10528000780812193E7C027903EEFA120C5074026F
:105290001216EA7806740128F5D975D90375824586
:1052A0007583058808E0F5D9A31508E50870F6753B
:1052B000E195EE2473F582EF3400F583E4F0EE24FB
:1052C0007FF582EF3400F583E4F0EE241DF582EFE4
:1052D0003400F583E4F0A3F07904120D70EE240D90
:1052E000F582EF3400F583E0F8A3E0F9EE2471F5E0
:1052F00082EF3400F583E8F0A3E9F07901800279C8
:105300000002522074F612172B9061D0E0F87480DE
:10531000C398FCEA2482F582EB3400F583E0600454
:10532000780480027800E82404F8ECC398405B79A4
:10533000029005457407F0EA24F5F582EB3400F598
:1053400083E0900546F0EA2482F582EB3400F58391
:10535000E06018750845750905780812193E7C0249
:1053600009120C5074021216EA7906740129F5D953
:1053700075D903758245758305E9F8E0F5D9A31859
:10538000E870F875E1957901800279000252207485
:10539000F512172BE9FCA2AFE433F50AC2AF7D008A
:1053A00080010DEA246EF582EB3400F583E0F8ED20
:1053B000C398501A8D08EA2508F8EB3400F9E82460
:1053C0006AF582E93400F583E06C70D68024EA2423
:1053D0006EF8EB3400F9E0FEEA2EFAEB3400FBEA5B
:1053E000246AF582EB3400F583ECF088828983E04F
:1053F00004F0E50AA2E092AF7F030217FD74F612F3
:10540000172BA2AFE433FDC2AFEA246EF582EB3472
:1054100000F583E014F07C0060368C08EA2508F87B
:10542000EB3400F9E8246BF582E93400F583E0C041
:10543000E0E8246AF582E93400F583D0E0F00CEA74
:10544000246EF582EB3400F583E0F8ECC39840CA93
:10545000EA246DF582EB3400F58374FFF0EA2469E9
:10546000F582EB3400F583E4F0EDA2E092AF025256
:1054700020C082C083E5A8F8C2AFEA246AF582EBB7
:105480003400F583E9F0EA2469F582EB3400F58312
:10549000E4F0E8A2E7A2E792AF0245EC74F312173A
:1054A0002BEAFEEBFFECFAEDFB8A828B83A3A3A32E
:1054B000A3E0541FF0EE2436F582EF3400F583E4C8
:1054C000F0F50AEEFCEFFD8A828B83E0C0E0EC246D
:1054D0005DF582ED3400F583D0E0F0750B00E50A50
:1054E00033333354F8F50C8A828B83E0F508750961
:1054F00000E50B78081216A2E508A2E0502FEE2472
:1055000036F8EF3400F988828983E0F508EE250843
:10551000F508EF3400F509E5082438F582E509348B
:1055200000F583E50CF088828983E004F0050B0523
:105530000CE50BC3940840AF050A8A828B83A3AAAB
:1055400082AB838C828D83A3AC82AD83E50AC39446
:105550000550030254C77F050217FD74F712172B7D
:105560009003CEE0640170030256B97A009003D430
:10557000E060030256B97401F0A3E4F0A3F09004D4
:105580003404F0900439F09003D7E4F0A3F0A3F0D2
:10559000A3F09003E104F0900407E4F09003EAF034
:1055A000A3F0A3F0A3F0A3F0A3F0A3F0900451F0B4
:1055B000900445F090043A7480F0A3E4F090044025
:1055C000F09004BCF0A3F0A3F0A3F0A3F0A3F0A329
:1055D000F0A3F09004C5F0900454F09004A4F0A35C
:1055E000F0A3F0A3F0A3F0A3F0A3F0A3F0A3F0A323
:1055F000F09004B0F09004B2F09004AEF09004C8C3
:10560000F0A3F0A3F0A3F0A3F0A3F0A3F0A3F0782D
:10561000CE7903E8246EF582E93400F58374FFF057
:105620000A88828983A3A882A983EAC3940440E3F9
:105630007ACE7B0378DC790488828983E0C0E0EA53
:105640002461F582EB3400F583D0E0F08882898311
:10565000A3A882A9838A828B83A3AA82AB83E864EE
:10566000E17003E9640470D07ACE7B0378B57903E6
:1056700088828983A3E0C0E0EA24E6F582EB340067
:10568000F583D0E0F088828983A3A882A9838A82E7
:105690008B83A3AA82AB83E864BD7003E9640370C3
:1056A000CF9003CEE004F0640170089003D6E09040
:1056B00003D0F07AD27B0380047A007B00024F1A79
:1056C000C082C0839003D5E4F09003D4F09003CE61
:1056D000F0A3F0A374FFF075E1F10245ECC082C0C5
:1056E00083780079009003D5E0600478D27903884C
:1056F000828983A3A3A3A3E0F90245EC74F61217F1
:105700002BEAFEEBFFEE2463F582EF3400F583E035
:10571000F8A3E0F9E84970030257A1EE2463F8EF1B
:105720003400F97A007B00A2AFE433F508C2AF88F9
:10573000828983E0FCA3E0FDEC4D603A8882898396
:10574000E0FAA3E0FB8A828B83E0FCA3E0FD888281
:105750008983ECF0A3EDF08A828B83E4F0A3F088D8
:10576000828983E0FCA3E0FDEC4D700A8882898386
:10577000A3A3E4F0A3F0E508A2E092AF12126290B6
:1057800004E2E004F09004E3E004F0EE2463F58228
:10579000EF3400F583E0F8A3E0F9E849600302572D
:1057A0001B8E828F83A3A3A3E0600F8E828F83A3BF
:1057B000A3A3E4F09003CFE014F09003CEE014F044
:1057C00070069003D074FFF08E828F83A3A3E4F061
:1057D0009004E1E0700D9003CFE064017005790062
:1057E000120D52EEFAEFFB120C8002522074F712E7
:1057F000172BEAFEEBFF8E828F83A3A3A3A3E0FA0D
:105800007B00120956EEFAEFFB120BD2120C680263
:105810004F1AC082C08378B5790388828983A3E454
:10582000F088828983A3A882A983E864BD7003E914
:10583000640370E69003B674010245EB74F6121728
:105840002BEAFEEBFFEC2403F8ED3400F98808891D
:1058500009EC2407F8ED3400F9E8FCE9FD8C828DB1
:1058600083E0F8A3E0F9850882850983E0FAA3E0E4
:10587000FB121649EE240DF582EF3400F583E8F0B3
:10588000A3E9F08C828D83E0F8A3E0F98508828596
:105890000983E0FAA3E0FB1216498B09EA45096087
:1058A00013EE240DF582EF3400F583E02401F0A31C
:1058B000E03400F002522074F612172BEAFEEBFFE0
:1058C000EE242EF582EF3400F583E0FCA3E0FD78B2
:1058D0000079FAECFAEDFB121649EE246FF582EF2F
:1058E0003400F583E8F0A3E9F0780079FAECFAEDFA
:1058F000FB1216498B09EA45096013EE246FF58205
:10590000EF3400F583E02401F0A3E03400F002520C
:105910002074EC12172BEAFEEBFF741412171F7899
:10592000081215A4120D108A0C8B0D8C0E8D0F759C
:105930001002751100751200751300780C791012A1
:10594000150A7510FF7511FF7512FF780C7910128A
:10595000156B780C12193A8E828F83E0F8A3E0F56C
:10596000838882A3A31215C212266F74041216EA4A
:10597000E96003025A758E828F83E02402F8A3E067
:105980003400F9E8FAE9FB8A828B83780812153033
:105990008A828B837508FF7509FF750AFF750B00F6
:1059A0007808121591EE240BF582EF3400F583C0D0
:1059B00082C0838E828F83A3A3A3A3A3E02401F8D4
:1059C000A3E03400F9D083D082E0687003A3E069DB
:1059D00070057901025A778E828F83A3A3A3A3A3B4
:1059E000A3A3E02401F0A3E03400F0EE2473F582D9
:1059F000EF3400F583E064017036EE2474F582EF35
:105A00003400F583E0F8A3E0F98E828F83A3A3A38B
:105A1000A3A3A3A3E0687003A3E0697013EE24744A
:105A2000F582EF3400F583E02401F0A3E03400F0C8
:105A3000EE247FF582EF3400F583E064017036EEEA
:105A40002480F582EF3400F583E0F8A3E0F98E823C
:105A50008F83A3A3A3A3A3A3A3E0687003A3E06918
:105A60007013EE2480F582EF3400F583E02401F01A
:105A7000A3E03400F0790002478474F612172BE992
:105A8000FEECFFEA2462F582EB3400F583E064016A
:105A90006003025B239061D0E0F508EA2482F5827E
:105AA000EB3400F583E060047804800278007480B1
:105AB000C39508FC95E0FDEF28F8E43400F9E824EC
:105AC00002F8E93400F9EC98ED99A2D265D03340A0
:105AD0004E740A12171FE0F508A3E0F509EA2482C4
:105AE000F582EB3400F583E06015780812193EEF7B
:105AF000FCEEF9120C5074021216EA74042FFF74B3
:105B0000012FF5D98ED9EF600F850882850983F8BA
:105B1000E0F5D9A318E870F875E195790080067969
:105B200007800279FF02522074F712172BA2AFE40C
:105B300033FEC2AF8A828B83E0F8A3E0F9E8498A9A
