:020000040000FA
:0600000002011D02207444
:03002B0002271F8A
:030053000220EA9E
:03006B000226ED7D
:10008300021F23E5C754F84401F5C7790122000094
:100093000080FB120086B90003020107E47921788E
:1000A30008B800028004F709D8FCE479297802B87B
:1000B30000028004F709D8FCE490028178C579072F
:1000C3008002F0A3D8FCD9FA781A90014D7A01BACC
:1000D30000028007E493A3F608DAF9900945AA829F
:1000E300AB8390014E783B79048015E493A3AC82F3
:1000F300AD838A828B83F0A3AA82AB838C828D83A8
:10010300D8E9D9E77582FE75839D740312012F75B3
:100113008291758300740012012F75D00075813FA1
:10012300751881751902759F00020096C09FF59F8F
:10013300E473D09F22D083D082C09FE493C0E07445
:100143000193C0E0740293F59F2201FF0000B40005
:100153000028002800283075A000A000A000A000FF
:1001630000080008E001F00010001000100010006B
:100173001000100050005000500010001000D00775
:100183000000000000000F000100050030750700AB
:100193001000010081FF00000000FF8606A4068C0A
:1001A30006FF02020208025000A0000000E803025A
:1001B3000690010000EF8F0202900100009C0902EB
:1001C300F68F010000B3020202900100009D0902B4
:1001D300F88F010000C9020202900100009E09028B
:1001E300FA8F010000CB020202900100009F090276
:1001F300FC8F080000CC02020290010000A009025B
:10020300FE8F010000A109FF0100FF2002069001FB
:100213000000E38F020290010000050A0200900033
:100223000000000002F48F0300001903B60CB60CA3
:10023300B60CB60CB60CB60CB60CB60CB60CB60CAB
:10024300B60CB60CB60C920FAA0F8C0FFFFF02026E
:1002530002020202020202010D0000001001020666
:1002630090010000EC8F020290010000480A022670
:10027300900100005D07020290010000490A021884
:1002830090010000138F0202900100004A0A021637
:1002930090010000F78E0202900100004B0A021445
:1002A30090010000A38E0202900100004C0A02128A
:1002B30090010000B58E0202900100004D0A021069
:1002C30090010000918E0202900100004E0A020E7E
:1002D300900100007F8E0202900100004F0A020C81
:1002E30090010000058F020290010000500A020AEB
:1002F30090010000510A01E803053F100AFF0001C5
:100303003075030201060000000000000000000039
:1003130000000000000000000000000000000000DA
:100323000000FFFF0600800CE803140953696D7099
:100333006C65424C455065726970686572616C0505
:100343001250002003020A000201050302F0FF53CA
:10035300696D706C6520424C452050657269706808
:100363006572616CD0130000D6130A436861726131
:100373006374657269737469632031000243686151
:100383007261637465726973746963203200084330
:1003930068617261637465726973746963203300A1
:1003A3001043686172616374657269737469632071
:1003B30034000243686172616374657269737469BE
:1003C30063203500020690010000E68F02029001CF
:1003D3000000640B021C900300002F0902F28F013E
:1003E3000000650B020290010000760B021E9001D3
:1003F3000000300902F28F010000770B0202900126
:100403000000880B022090020000310902F28F01E4
:100413000000890B0202900100009A0B0222900057
:100423000000320902F48F030000330902F28F0146
:1004330000009B0B020290010000AC0B022490040D
:100443000000390902F28F010000AD0B104B6579F2
:1004530020507265737320537461746500020690B3
:10046300010000E98F020290010000460C022C906B
:100473000000003E0902F48F0300003F0902F28FDF
:10048300010000470C12013838FE021201384FFEFA
:100493000212013880FE02120138BBFE021201383B
:1004A300E5FE021201380FFF0212013826FF021285
:1004B30001383DFF0212013854FF021201387DFF5B
:1004C3000212013890FF02120138A6FF021201380E
:1004D300B9FF02120138E0FF02120138019802123B
:1004E30001380599021201383D99021201386099C9
:1004F300021201386B99021201388E9902120138E7
:100503009D9A02120138729B02120138ED9B02126E
:100513000138759C02120138B09C02120138E79C25
:1005230002120138759D021201384E9E02120138E3
:10053300AE9E02120138B99E02120138389F021290
:1005430001383B9F021201383E9F02120138CD9FB2
:1005530002120138D09F0212013800A002120138A2
:100563002AA00212013818A102120138CAA10212EC
:100573000138CDDB02120138F5DB0212013823DC2E
:10058300021201385ADC02120138B8DC02120138B7
:1005930003DD021201384EDD021201388EDD021234
:1005A3000138D4DD0212013802DE02120138BFDE47
:1005B30002120138C9DE02120138D6DE02120138F6
:1005C30009DF02120138D5DF02120138E1DF02121E
:1005D3000138F9DF0212013803E002120138309CBE
:1005E300031201383E9C03120138569C0312013852
:1005F3006E9C0312013827B001120138D3B00112E7
:1006030001384EB1011201386FB201120138ABB299
:100613000112013854B3011201383BB401120138FD
:100623009FB501120138F6B50112013877B60112F0
:10063300013867B701120138B4B7011201383AB86B
:10064300011201386CB80112013880BA0112013865
:10065300C2BA01120138E0BA0112013863BB0112B8
:10066300013837BC01120138FFBC011201383AC509
:10067300021201380DC602120138B6C60212013841
:1006830009C702120138B9C70212013845C802125C
:10069300013831C90212013860C90212013873CA24
:1006A30002120138BBCA0212013890CB0212013880
:1006B300CCCB02120138E8CB02120138627F001260
:1006C30001389FFA02120138B5FA02120138DBFA37
:1006D30002120138F7FB0212013801FC0212013841
:1006E30036FD021201382EFE02120138E3D1021246
:1006F300013813D30212013846D30212013890D3C2
:100703000212013857D50212013838A001120138FC
:10071300A2A00112013801A20112013811A2011293
:1007230001383EA20112013895A2011201383EA3FD
:100733000112013845A4011201380FA50112013835
:100743006FA601120138B2A60112013857A7011290
:100753000138A4A701120138CAA701120138D8A988
:1007630001120138DDA901120138E2AB011201388F
:100773002FAC01120138A2AC01120138D5AC011221
:10078300013877AD0112013820AE0112013858AE9D
:10079300011201385BAE01120138A3AE0112013818
:1007A300E3AE011201383AAF011201389483031208
:1007B3000138AC8303120138F483031201380A842D
:1007C300031201385184031201386585031201387D
:1007D300F285031201383D86031201384C270012BB
:1007E3000138582700120138932700120138D827FF
:1007F300001201389828001201381E29001201380E
:10080300832900120138AF2900120138E8290012A8
:100813000138262C001201380A2E00120138F02F5D
:1008230000120138333100120138813300120138CC
:10083300933400120138DE3500120138EE3600120F
:1008430001380B3700120138463700120138683778
:1008530000120138CB37001201388C3C00120138EA
:10086300213D00120138723D00120138993D0012FA
:100873000138EB3D00120138093E00120138633E96
:10088300001201384C3F00120138C24000120138F7
:100893004641001201383CE50212013846E50212D6
:1008A300013889E502120138A4E50212013834E661
:1008B300021201385CE60212013899E6021201388D
:1008C300D0E602120138F9E6021201386EE702128D
:1008D300013883E70212013898E702120138C9E7A9
:1008E30002120138DDE70212013802E80212013870
:1008F3003CE80212013868E802120138A0E802124B
:1009030001381FE90212013868E90212013892E93D
:1009130002120138BDE90212013846970312013869
:100923000080021201382E80021201387C810212EB
:1009330001385C82021201387B8202120138F8828C
:10094300021201383B8302120138918402120138EA
:10095300528502120138D987021201387A880212AD
:1009630001387089021201386D8A02120138C78B6F
:1009730002120138528C02120138C2940312013858
:100983002B95031201387F9503120138A6950312A4
:100993000138D795031201387FEE02120138ECEECD
:1009A3000212013833EF021201384BF00212013800
:1009B30047F1021201382AF202120138E9F6011254
:1009C30001382BF701120138FDF701120138D6F86F
:1009D30001120138D0F901120138B2FA01120138BB
:1009E3001BFB01120138D1FB0112013845FC011236
:1009F3000138B1FC01120138DAFC0112013854FD4F
:100A030001120138EDFD0112013852FE01120138C5
:100A130067FE01120138ADFE01120138C6FE011254
:100A230001382BFF011201382EFF01120138697CB6
:100A330000120138917C00120138CF7C001201387A
:100A43008D7D00120138F47D00120138107E0012F2
:100A53000138387E00120138687E00120138777E33
:100A630000120138F47E001201381A7F0012013897
:100A7300319001120138CF9101120138EA9301122A
:100A83000138269401120138539401120138389524
:100A9300011201387F9501120138C3950112013803
:100AA300D5950112013815960112013842960112AB
:100AB30001388D9601120138CD9601120138FB964B
:100AC300011201384D9701120138DD9701120138E7
:100AD3007B9A01120138919C01120138CF9C0112BB
:100AE3000138609E01120138A59E011201381C9F36
:100AF30001120138669F01120138919F01120138DA
:100B030005AC0212013884AC0212013846B202125B
:100B1300013855B302120138BDB40212013854B57D
:100B2300021201384357001201388C570012013862
:100B3300B95700120138EC5700120138F957001267
:100B43000138055800120138175800120138FE58B1
:100B5300001201385C590012013891590012013812
:100B6300D45A00120138215B00120138455B001290
:100B73000138B25B00120138705C00120138295D44
:100B830000120138965D00120138485E00120138E8
:100B9300585E00120138DF5E001201389E5F0012BA
:100BA3000138CB5F00120138446000120138A160A4
:100BB30000120138EB600012013881610012013824
:100BC3004C6200120138016300120138766300128F
:100BD3000138D763001201384164001201387A6486
:100BE300001201381C65001201382C66001201380E
:100BF3006C6600120138896600120138A86600127B
:100C03000138EF660012013814670012013841679A
:100C130000120138BB6700120138FC67001201386B
:100C2300206900120138D06900120138276A0012C6
:100C33000138916A00120138AA6A001201383BA2F6
:100C4300021201388EA2021201389AA2021201384E
:100C53006FA30212013896A302120138D1A3021224
:100C630001383DA40212013879A402120138B2A45A
:100C730002120138CAA4021201381FA50212013858
:100C830038A50212013881A50212013894A5021277
:100C93000138AEA502120138C4A502120138F7A625
:100CA300021201383EA80212013840A9021201388B
:100CB3003AAA02120138FDFF01120138B2E901120A
:100CC3000138E2E901120138AAED0112013801EFFE
:100CD30001120138CAEF011201384AF10112013839
:100CE3001BF20112013858F2011201387BF2011292
:100CF3000138B9F201120138C2F2011201380CF3C2
:100D03000112013816F301120138C0F30112013840
:100D130099F401120138EDF4011201384FF5011273
:100D23000138A2F501120138D1F5011201380EF68E
:100D330001120138DC6A00120138436E00120138D7
:100D4300496E00120138CB73001201384478001247
:100D530001381A7C0012013805F7021201387BF7BB
:100D63000212013891F702120138D2F70212013848
:100D73000CF80212013885F802120138C0F8021289
:100D8300013833F90212013871F9021201387AF984
:100D93000212013886F902120138A2F9021201384F
:100DA300CDF902120138E3F9021201380CFA0212EA
:100DB30001386FFA021201380AD7021201381DD71F
:100DC3000212013837D70212013860D702120138F4
:100DD300A3D702120138E2D70212013820D8021237
:100DE300013885D8021201389AD802120138A5D8E1
:100DF30002120138B2D802120138C9D802120138DE
:100E0300D7D802120138E2D802120138EED8021202
:100E1300013801D9021201380CD9021201382FD935
:100E230002120138D6D902120138E6D9021201386A
:100E330000DA021201381DDA0212013839DA02121D
:100E430001385EDA0212013869DA021201387EDAF9
:100E53000212013892DA02120138F3DA021201386F
:100E6300F9DA02120138FFDA0212013805DB021245
:100E730001381DDB0212013850DB0212013889CD23
:100E8300011201380DCE01120138BCCE0112013816
:100E93001BD0011201383CD20112013828D30112B0
:100EA30001385DD3011201387FD3011201382ED4EA
:100EB3000112013826D6011201384FD6011201382A
:100EC300E1D60112013813D70112013820D70112DC
:100ED300013877D7011201389DD7011201380ADA98
:100EE300011201380DDB0112013865DB01120138F3
:100EF30018BF0112013822C00112013809C10112C1
:100F0300013813C10112013835C10112013841C141
:100F130001120138DAC20112013809C30112013882
:100F230025C4011201387EC401120138E4C501123F
:100F33000138C3C6011201381FC7011201388CC71B
:100F430001120138C7C70112013806C8011201385E
:100F5300BFCA01120138D9CA0112013865CB011287
:100F6300013873CB01120138CCCB01120138DACB33
:100F7300011201384DCC01120138B1CC01120138F4
:100F8300FBCC01120138D38C02120138F58C02120A
:100F930001381B8F02120138309202120138489334
:100FA30002120138FB9302120138DD940212013858
:100FB3007B9103120138A09103120138129203129C
:100FC3000138C0BD02120138C9BD02120138D2BDB9
:100FD30002120138A9BE021201385AC002120138A6
:100FE30090C002120138CAC00212013800C10212B5
:100FF30001383AC1021201386EC1021201389AC196
:1010030002120138E3C1021201381DC20212013873
:1010130066C202120138BEC202120138F3C20212C2
:1010230001384EC30212013888C302120138D9C3F2
:10103300021201380FC40212013849C402120138E6
:1010430077C4021201389AC40212013852FF011206
:1010530001387EFF01120138D9FF01120138E3FF85
:1010630001120138F3FF011201385DCC021201387D
:1010730067CC02120138A5CC02120138EECC021261
:10108300013828CD0212013882CD02120138A3CDD6
:1010930002120138ACCD02120138F9CD0212013827
:1010A30022CE021201382CCE0212013898CE02123F
:1010B30001382ACF0212013874CF02120138AACFA5
:1010C3000212013836D00212013877D002120138E9
:1010D300AED002120138C0D002120138DFD00212A2
:1010E3000138E8D002120138B5D1021201385A9AF8
:1010F30003120138BD8D03120138F38D0312013839
:10110300298E03120138748F03120138079D0312CD
:1011130001381D9D03120138279D03120138719D6B
:10112300031201389F9D03120138E5E902120138C9
:10113300FAE902120138AAEA02120138EAEA0212B3
:10114300013803EB021201383EEB021201388BEB3C
:1011530002120138BDEB02120138FFEB0212013813
:1011630000EE0212013872EE021201386399031283
:1011730001388C9903120138BB9903120138D399B2
:1011830003120138159A03120138678603120138D6
:101193008C8603120138B68603120138569E031259
:1011A3000138AD4100120138124400120138B34531
:1011B30000120138674600120138FA46001201385E
:1011C3007F4700120138A44700120138FA4A00127F
:1011D3000138804B00120138B34C00120138ED4C3A
:1011E30000120138224D00120138E24E001201387C
:1011F3003F4F00120138884F00120138F34F00129D
:101203000138645000120138965000120138AE5074
:1012130000120138F7510012013807520012013849
:101223002253001201384453001201387A5300123A
:1012330001382E5500120138BB5500120138FA55FA
:10124300001201381E5700120138E67F00120138E0
:10125300AC9E03120138EB9E031201383F9F031229
:101263000138519B03120138619B03120138769BAD
:10127300031201382A9C031201385F9803120138C4
:10128300E498031201384A99031201381D96031298
:1012930001384496031201389A9603120138AC962A
:1012A30003120138FC96031201383A9703120138EE
:1012B3003D9703120138ECF20212013800F30212D7
:1012C30001387AF3021201385EF40212013835F65E
:1012D300021201389AF602120138F1F602120138AD
:1012E300F87F00120138788B03120138138D031233
:1012F3000138748D03120138BA8D0312013820931B
:1013030003120138729303120138FC93031201385C
:101313006394031201383389031201385D89031280
:1013230001382B8A03120138068B031201387EB56C
:101333000212013845B6021201387CB60212013896
:10134300A6B60212013806B7021201385CB70212C0
:101353000138C1B70212013859B80212013868B90D
:1013630002120138FFBA021201388CBB0212013893
:10137300F3BB021201380ABC0212013824BD021267
:10138300013862BD02120138B3DB0112013834DFC8
:1013930001120138BCE00112013813E101120138D6
:1013A30032E101120138B0E10112013846E30112C2
:1013B30001382BE40112013839E8011201380FE931
:1013C300011201388AE00212013837E302120138B0
:1013D3005DE40212013807E50212013800800312AE
:1013E30001384580031201386280031201381881E5
:1013F300031201386B810312013841820312013851
:101403005B8303120138AE8F03120138F38F03128B
:101413000138479003120138CA90031201384291F0
:1014230003120138F59E03120138219F03E0667011
:101433001008A3E066700A08A3E066700408A3E03E
:101443006622C3E7960809E7960809E7960809E7BD
:101453009622C3E09608A3E09608A3E09608A3E0CB
:101463009622C008C3E096F50808A3E09642080850
:10147300A3E096420808A3E09645087001D3D0087C
:1014830022080808EAC0E0EBC0E086F0E7A4FA18F7
:101493000986F0E7A42AFA180986F0E7A42AFA18BD
:1014A3000986F0E7A42AFA1986F0E7A4FBE5F02AF7
:1014B300FA190886F0E7A42BFBE5F03AFA19088637
:1014C300F0E7A42BFBE5F03AFA18180986F0E7A435
:1014D300C5F02BFBE43AFA1908E7C5F0C6A426F6D3
:1014E300E5F03BFBE43AFA1886F0E7A4F6E5F008EA
:1014F30026F6E43B08F6E43A08F6D0E0FBD0E0FA3F
:1015030022E4CFC0E0E4CEC0E0E4CDC0E0E4CCC050
:10151300E075F020C3E633F608E633F608E633F663
:1015230008E633F6181818EC33FCED33FDEE33FE02
:10153300EF33FFC3EC9709ED9709EE9709EF97197E
:101543001919400FFFEC97FC09ED97FD09EE97FE83
:10155300191906D5F0BEECF709EDF709EEF709EF17
:10156300F7191919D0E0FCD0E0FDD0E0FED0E0FF80
:10157300226016080808C6C313C618C613C618C6C1
:1015830013C618C613C6D5E0EA2270090808082254
:101593006016181818C6C333C608C633C608C63340
:1015A300C608C633C6D5E0EA22E627F60809E637B9
:1015B300F60809E637F60809E637F622E026F608C4
:1015C300A3E036F608A3E036F608A3E036F622E0F9
:1015D30026F008A3E036F008A3E036F008A3E036CF
:1015E300F022C3E697F60809E697F60809E697F6A8
:1015F3000809E697F622C3E096F008A3E096F00800
:10160300A3E096F008A3E096F022E056F608A3E0E4
:1016130056F608A3E056F608A3E056F622E056F085
:1016230008A3E056F008A3E056F008A3E056F02222
:10163300E0F608A3E0F608A3E0F608A3E0F622E646
:10164300F008A3E6F008A3E6F008A3E6F022E0FA28
:10165300A3E0FBA3E0FCA3E0FD22EAF0A3EBF0A3ED
:10166300ECF0A3EDF022CAC0E0E6F0A308DAFAD06A
:10167300E0FA22CAC0E0E0A3C582CCC582C583CD0F
:10168300C583F0A3C582CCC582C583CDC583DAE605
:10169300D0E0CA22C3E498F8E499F91216D8802658
:1016A300C3E49AFAE49BFBE920E7E91216D8E4982D
:1016B300F8E499F922C3E498F8E499F91216D8E406
:1016C30098F8E499F9C3E49AFAE49BFB22EB20E748
:1016D300CFE920E7E0B90010BB0008E88AF084F8FE
:1016E300AAF022E4FBC8FA22EB70227B10C833C8AD
:1016F300C933C9335007C39AC3DBF280069A50013A
:101703002ADBEAC833F4C8C933F4C9FA2275F008EE
:10171300E4C833C8C933C933C99AC99B5004C92A19
:10172300C93BD5F0ECFBC833F4C8E4C9FA22600D19
:1017330008C6A2E713C618C613C6D5E0F322600C89
:1017430008C6C313C618C613C6D5E0F42270042214
:10175300600D18C6C333C608C633C6D5E0F41822D5
:10176300251810AF08F518400215198008F5184020
:10177300021519D2AF22C0D0251810AF08F51850A2
:101783000205198008F51850020519D2AFD0D022EE
:101793002518F58210AF08F518400215198008F5D1
:1017A3001840021519D2AF851983222518F582E452
:1017B3003519F58322E4732518C582C0E0E5193491
:1017C300FFC583C0E0E518C3958224F810AF0885F0
:1017D30083198582188008858319858218D2AFCE34
:1017E300F0A3E520F0A37808E608F0A3DEFAEFF013
:1017F300A3E58124FAF8E608F0A3E608F0A3E608D7
:10180300F0A30808E608F0A3E608F0A31581158104
:10181300D0E0FED0E0F8158115811581E8C0E0EE37
:10182300C0E0222518C582C0E0E51934FFC583C096
:10183300E0E518C3958224F910AF088583198582E2
:10184300188008858319858218D2AFCEF0A3E520CE
:10185300F0A37808E608F0A3DEFAEFF0A3E581240D
:10186300FBF8E608F0A3E608F0A30808E608F0A3EF
:10187300E608F0A315811581D0E0FED0E0F81581CC
:101883001581E8C0E0EEC0E022851983851882E067
:10189300A3FEE0A3F5207808E0A3F608DFFAE0A3AF
:1018A300FFE0A3C0E0E0A3C0E0E0A3C0E0E0A3C08A
:1018B300E0E0A3C0E010AF08858218858319800893
:1018C300858218858319D2AFD083D08202013585F2
:1018D3001983851882E0A3FEE0A3F5207808E0A32E
:1018E300F608DFFAE0A3FFE0A3C0E0E0A3C0E0E076
:1018F300A3C0E0E0A3C0E010AF0885821885831978
:101903008008858218858319D2AFD083D08222C004
:10191300D02518C582C0E0E51934FFC583C0E0E5D2
:1019230018C3958224F310AF088583198582188024
:1019330008858319858218D2AFC8F0A3E9F0A3EA1A
:10194300F0A3EBF0A37908E709F0A3D8FAECF0A32E
:10195300EDF0A3EEF0A3EFF0A3D0E0F0A3D0E0F01E
:10196300A3D0E0F0A3E520F0A3E5F0F0A3228519CE
:1019730083851882E0C0E0A3E0F9A3E0FAA3E0FBCB
:10198300A37808E0F608A3DFFAE0FCA3E0FDA3E0F8
:10199300FEA3E0FFA3E0C0E0A3E0C0E0A3E0F5D036
:1019A300A3E0F520A3E0A3F5F010AF088583198524
:1019B30082188008858319858218D2AFD082D0839C
:1019C300D0E0F8D0E032740480067402800274011F
:1019D300C0E0F404121793D0E01216692274048055
:1019E3000474028000CCC0E0EDC0E0E518C39CCCD9
:1019F300AD1950011D10AF068C188D1980068C1877
:101A03008D19D2AF121676D0E0FDD0E0FC22D08340
:101A1300D082E9C0E0E493A3C386F0C5F095F0F962
:101A230008E493A386F0C5F095F0700BE493A3C389
:101A3300994005E9048002A3E475F002A42582F528
:101A430082E5F03583F583D0E0F9E493A3C0E0E4C5
:101A530093C0E022D083D082ECC0E0EDC0E0E493F9
:101A6300A3FCE493A3FDED4C600D121AA3EC24FF39
:101A7300FCED34FFFD80EFE493A3FCE493A3FDEDC1
:101A83004C600D121AE2EC24FFFCED34FFFD80EFF5
:101A9300D0E0FDD0E0FCE493A3C0E0E493C0E022F7
:101AA300C0E0C3E49396087401939618400FE4933F
:101AB30066700808740193661870007019A3A3C3B5
:101AC300E49396087401939618A3A3400DD0E0D035
:101AD300E0D0E0021A93A3A3A3A3A3A3D0E022C060
:101AE300E0C0F088F0E49366700808740193661808
:101AF3007000A8F0A3A3700BD0F0D0E0D0E0D0E04A
:0A1B0300021A93A3A3D0F0D0E02251
:101B100074F5121826EAFEEBFFEE2434F8EF3400D9
:101B2000F988088909EE2435121C3CF8EE24371296
:101B30001C3CF50AEC850AF0A4FCAAF0850AF0ED3D
:101B4000A42AFDE82CF8E43DF97A257B001216D88A
:101B5000EA850882850983F074075AF87401B80091
:101B6000028004C333D8FCFBEA131313541FF8EEAE
:101B700028F8EF3400F9E8245DF582E9121C3F5B98
:101B80006003EA801CEE2436121C3CF5F0EA84A8BF
:101B9000F0EE28F8EF3400F9E82438F582E9121C59
:101BA0003FF97F040218D274F5121826EAFEEBFF03
:101BB000EE2434121C3CC0E0EE2435F582EF3400F4
:101BC000F583D0E0F08E828F83A3A3A3A3A3E0FAD2
:101BD000A3E0FB8E828F83A3A3A3A3A3A3A3E0FC14
:101BE000A3E0FDECC39AF50AED9BF50BEE247FF51F
:101BF00008EF3400F509850882F583E06401702B55
:101C0000EE2480F582EF3400F5831219E4121C45AE
:101C10007402121779E960137CDC7D04EEFAEFFBA5
:101C2000120BDE850882850983E4F0AC0AAD0BEE69
:101C3000FAEFFB121B101226D9021BA2F582EF3419
:101C400000F583E022C082C083851882851983E075
:101C5000F8A3E0F9C3EA9CEB9D5010C3EC98ED9912
:101C6000401BC3EA98EB995014800EC3EA98EB9995
:101C70004007C3EC98ED994004790180027900D0C7
:101C800083D08222EAC39CFAEB9DFB2274ED1218EA
:101C9000269003A2E064086005E06407702C906160
:101CA000C8E060269003D0E0F874FF68601CE87517
:101CB000F003A4C8AAF02AF974D228FE740339FFED
:101CC0008E828F83A3A3A3E070057900021E2CEE01
:101CD0002468F510EF3400F511906060E085108203
:101CE000851183F0750A45750B05750800750900A7
:101CF000E5D914F50EE5D95403F50F601CEE2482E6
:101D0000F50CEF3400F50D7403650F6058E50E60B7
:101D100013EE2467121C3C700B793DEEFAEFFB12B8
:101D20000C0280A6900540E064016026850C828547
:101D30000D83E06004780480027800850E08E508D1
:101D4000C398FA95E0FB120A828A088B09EA4509D2
:101D50007006120E60021CCA850C82850D83E0702D
:101D6000048A0A8B0B78008016E5D9C0E08812E55A
:101D70000A2512F582E50B3400F583D0E0F008E87F
:101D8000C3950E40E4850C82850D83E0602874FCC9
:101D9000250EF50E780A1219CDAC0EA90FEEFAEF4A
:101DA000FB120CB07402121779E9700AAA08AB0989
:101DB000121304021D197403650F6058850E0C750B
:101DC0000D00780C1219CDAC0AAD0BAA08AB0912A4
:101DD0000C747402121779851082851183E0F874EF
:101DE00080687005750C7F8002880CE50CF50A7818
:101DF0000A1219D1E50FF50A780A1219D1A90EAC09
:101E000008AD099003D0E0FA7B0012091A7402129F
:101E1000177980139003A2E06408600BAC0AAD0B45
:101E2000EEFAEFFB120D46120E6C79017F0C0218D0
:101E3000D274F312182674FC121763EAFEEBFF89C2
:101E400008A2AFE433F509C2AFEE2463F50AEF341C
:101E500000F50B8010AA0AAB0B120C2C1213049085
:101E600004E3E004F0850A82850B83E0F8A3E0F93F
:101E7000E849602FE82402FAE93400FBEA2402F57D
:101E80000CEB3400F50D780C1219CD8A828B83E0AF
:101E9000FCA3E0F9EEFAEFFB120C207402121779A2
:101EA000E960B29004E3E060579004E4E0F8900445
:101EB000E3E0C398500C7402650870449004E5E0B8
:101EC000603E8E828F83A3A3A3A3E0851882851929
:101ED00083121F1074021217AEE8121F109004E252
:101EE000E028F074021217AEAC82AD8385188285AB
:101EF0001983AA82AB8379011209269004E3E4F0E6
:101F0000E509A2E092AF74041217797F060218D295
:101F1000F0A3E4F09004E3E0F82200008521878537
:101F200022C622C0E074EF121912A2AFE433FEC23F
:101F3000AF759B00906182E0A2E05012E591A2E0B3
:101F4000500C7591FE740165217003121C8CE0A287
:101F5000E55051E591A2E5504B7591DF9003A2E069
:101F600064076005E06408702374016521703579A9
:101F7000019003D0E0FA75F003A4CAA8F028FB741E
:101F8000D22AFA74033BFB121E318018E0640D70F4
:101F9000139003C4E004F064287002E4F07A00E0D7
:101FA000F9120E72906182E0A2E6400302204AE537
:101FB00091A2E6400302204A7591BF9003A2E0641B
:101FC000057008120D88120D948003120D8E752174
:101FD00000120E00E99003A3F07900120DF4120B29
:101FE000487A017B009003A1E0F91210C4907803B5
:101FF000E064427055900544E014F0704DC2AF1299
:10200000200200782AD0E0F618D0E0F6E59F5407C9
:1020100070057509FF800375097FC4C0E07829E663
:10202000F50808E65509F509740B7808121741D030
:10203000E02508F8906270E0A2E740F8E8C333902A
:102040006272F0906270E0D2E0F0906181E0A2E311
:102050005009E5E9A2E3500375E9F7A3E0A2E750D0
:1020600009E591A2E7500375917FEEA2E092AF7F60
:1020700004021971C0E0C0D0C082C083906183E0C7
:10208000A2E05009E5BFA2E0500375BFFEE0A2E167
:102090005009E5BFA2E1500375BFFDE0A2E250097F
:1020A000E5BFA2E2500375BFFBE0A2E35009E5BF24
:1020B000A2E3500375BFF7E0A2E45009E5BFA2E434
:1020C000500375BFEFE0A2E55009E5BFA2E550035C
:1020D00075BFDFE0A2E65009E5BFA2E6500375BF79
:1020E000BFD083D082D0D0D0E032C0E074F21219D9
:1020F00012E5A7A2E4500FE5A1A2E4500953A7EF0F
:1021000075A1EF12213EE5A7A2E5500CE5A1A2E5DD
:10211000500653A7DF75A1DFE5A7A2E15009E5A1AD
:10212000A2E1500375A1FDE5A7A2E2500CE5A1A232
:10213000E2500653A7FB75A1FB7F0102197174F8E9
:102140001218267521019003A2E0640670077A0038
:102150007B00120D70A2AFE433FED2AF9003A8E073
:10216000640170187A207B009003A1E0F912114EEF
:102170007A207B009003A1E0F91210CA906182E0FE
:10218000D2E6F0900541E0602185C62280169003DA
:10219000A7E064017008E5C654F84405F5C653BECF
:1021A000FC121F1C7401652160E4EEA2E092AF7F77
:1021B000010218D28E238F248582288583278518D3
:1021C00082851983E0CEA3E0CF852882852783EB23
:1021D000C9EAC8EDCBECCA75F010C3E833C8E933DF
:1021E000C9EA33CAEB33CBC3EA9EF526EB9FF5254C
:1021F000B35004AB25AA26EC33CCED33CDD5F0DAC1
:10220000AE23AF242274E912182674FA121763EA77
:10221000FEEBFF8C088D099003A2E024F7C3940520
:102220005006751001022330120CE68A0A8B0BEA65
:10223000450B700302232D120DA68A0C8B0D120D77
:10224000A6EA650C7003EB650D60ECEEFCEFFD8516
:102250001882851983AA82AB83120DAC850A828508
:102260000B83A3A3780C121633908FC3780C12162D
:102270000D8518828519837814121633908FC378D0
:102280001412160D780C7914121445501F780C791D
:10229000141215E5908F63780C1214654047850C75
:1022A00010850D11850E12850F138045908F638563
:1022B00014108515118516128517137810790C12D4
:1022C00015E57810121465501C7510007511007515
:1022D0001200751301781079141215E57810790C35
:1022E0001215AC800C751001751100751200751374
:1022F000007409781012158D908F8B780C1216339C
:102300007810790C1215049003A2E06408600AE0CA
:1023100064066005E064057020908F6778101214E1
:10232000655016908F6B78101215BF800C751000D9
:102330007511007512007513008508828509837870
:102340001012164274061217797F100218D274F711
:10235000121826120DBE90053FE0640170109062C5
:1023600045E4F0A3F053F4F343FE0C5390F3120D45
:102370005EE5C654804449F5C6E59E547F644970C5
:10238000F8906185740FF090053DE0F47002A3E0D1
:10239000602C75080175090090053DE0780812175A
:1023A00050E508F4FAA3E0600814600A14600C8099
:1023B0000DEA52808008EA52908003EA52A0790028
:1023C0007F020218D274F7121826E9FEEAFF7401A0
:1023D0006E700C7A807B009003A1E0F91210C4901B
:1023E0002744E493F46008E493F9120B2A8009531C
:1023F000C680E59E547F70FA120D6490053FE0643C
:10240000017003120B6090053DE0F47002A3E060E0
:102410002A75080175090090053DE07808121750EB
:10242000AA08A3E0600814600A14600C800DEA4258
:10243000808008EA42908003EA42A0120CE68A08F3
:102440008B09A808A909E8496017E5E170FCE824B0
:1024500014F582E93400F583E0F874FF68600288BF
:10246000E174016F700A7A019003A1E0F91211186A
:102470000223C074F11218268A088B098C0A8D0B6E
:10248000908FC3780812160D740F1217AE780C12C5
:102490001633908FC3780C12160D7808790C12142D
:1024A00045908F6350107808790C1215E578081262
:1024B00014654014800E780C79081215E5780C121A
:1024C000146550047901800279007F080218D274E3
:1024D000ED1218268A088B098C0A8D0B908FC37811
:1024E0000812160D74131217AE780C121633908F53
:1024F000C3780C12160D780C790812144540117827
:1025000008790C1215E5AA08AB09AC0AAD0B8022BC
:102510007510007511007512007513017810790C93
:102520001215E5781079081215ACAA10AB11AC128F
:10253000AD137F0C0218D2908FC378081216338A1D
:10254000828B8378081216207F040218D274F51249
:1025500018268C828D8378081216338A828B8378B2
:10256000081215F91225A1C3E098F0A3E0991225ED
:1025700093401E908F9F78081216338A828B83783F
:10258000081215D28E828F83E02420F0A3E0344E0F
:10259000F080A4F08E828F83C3E09420A3E0944E59
:1025A00022EA2404F8EB3400F9E8FEE9FF8C828D7E
:1025B00083A3A3A3A3E0F8A3E0F98E828F83227400
:1025C000F5121826E9FE9004F7E0FAA3E0FBEEC34B
:1025D00033F8E433F974E728F582748E39F583E033
:1025E0002AF508A3E03BF50978081219CD908FCFA2
:1025F0001216511221B474021217798A088B098CB1
:102600000A8D0B74107808121574AA08AB097F04A0
:102610000218D274F11218268A0C8B0D8C0E8D0FB5
:10262000740F1217AEE0FAA3E0FB74111217AEE0BC
:10263000F508A3E0F50978081219CDEA2401F50898
:10264000EB3400F509E4F50AF50B780C790812145F
:1026500084908F777808121633780C7908121484D6
:10266000AA0CAB0DAC0EAD0F1221B4740212177987
:102670008B09EA450960047A0180027A00EC2AFCA1
:10268000ED3400FD74131217AEE0F8A3E0F9E8FE94
:10269000E9FFECF8EDF97A717B021216D888088907
:1026A00009E4F50AF50B8E828F837808121642EC46
:1026B000F8EDF97A717B021216D88A088B09740535
:1026C00078081217508E828F83A3A3A3A3E508F086
:1026D000A3E509F07F080218D2C082C083E99060A8
:1026E00000F0D083D08222C2AF02000022C0E0748A
:1026F000F2121912A2AFE433FED2AFE589A2E04094
:1027000006E589A2E150031212A4758900758900BB
:10271000C2C5751A00EEA2E092AF7F01021971C026
:10272000E0C0D0E8C0E0E9C0E0E5A8D2AFC2C7751C
:102730001A00A2E7A2E792AFD0E0F9D0E0F8D0D03B
:03274000D0E032B4
:10274400FFFFFFFFFFFFFFFFC082C083E9900A0481
:10275400F00229DB74F71217BAE99002E1F07C1950
:102764007D037AFF7BFF12086C9002E274FFF0A3F2
:10277400F0A3E4F0A3F079051207F49002E1E0F984
:102784001207167A8A7B08120A347F0102188C74A5
:10279400F41217BA8A088B09EB548060309002E176
:1027A400E0F91210AC8A0A8B0BAE0AAF0BEE4F6045
:1027B400138E828F83E064B0700312080CEEFAEF7C
:1027C400FB12109AAA08E5096480FB80047A007B56
:1027D400000229AA74F21217BA74FC121763EAFEF3
:1027E400EBFFEE4F603874021217AEEEF0A3EF1257
:1027F4002C0FECF0A3ED122C0FAA82AB831207105E
:10280400E9F508707374121217AE1237C3E50A455E
:102814000B60658E828F83122886EE4F70057508D3
:102824000280557A067B001211008A0C8B0DA80CCD
:10283400A90DE8497005750813803D88828983E4F1
:10284400122890A3A3EEF0A3EF123C5CE50AF0A3D8
:10285400E50BF09002E71229189002E76017E0FCFC
:10286400A3E08003EAFCEBFD8C828D8312291870AF
:10287400F38C828D831236E8A90874041217790246
:102884003E5EA3A3A3A3E0FEA3E0FF22F0A3F0888F
:102894008289832274F21217BA890AE975F017A49F
:1028A400FEAFF09002E6E4F09002E4122918600A08
:1028B4001211069002E4E4F0A3F0EEFAEFFB121119
:1028C400008A088B09EA4509602FEEFCEFFD7900C8
:1028D4001210889002E4E508F0A3E509F07B00807B
:1028E40008122902E4F0A3F00BEBC3950A40F2E5C9
:1028F4000A9002E6F0790080027913023E5EEB75DD
:10290400F017A4F8A9F09002E4E028FAA3E0398AC9
:1029140082F5832212347EEA4B2274F41217BA75BC
:102924000800750900740C1217AE123C30FEE9FF62
:10293400800CE5082401F508E5093400F509C3E530
:10294400089CE5099D503285080A85090B740378B3
:102954000A121750EA250AF8EB350BF988828983A5
:10296400A3A3A3A3A3A31237C3EE650A7003EF6561
:102974000B70BFE8FAE9FB80047A007B00802774BF
:10298400F41217BA7900EAA2E0501B75084C7509D5
:102994008F78081219CD7C047D007A067B0A120711
:1029A400EE74021217797F0402188CC082C08390DF
:1029B40002E71229E2601C88828983A3A3E06A707B
:1029C40003A3E06B8882898370E8A3A3A3A31234D2
:1029D4007A80047A007B00D083D082020135123FD2
:1029E40031E8492274EE1217BA74FC121763EAFE36
:1029F400EBFF851882851983E4F0A3F0EE2402121C
:102A040036CCEE2405122BFDEE2404F50EEF122F26
:102A1400E2E024FE603924FC604624FE605224FE79
:102A2400605E24FE7003022B0224FE7003022B7AE4
:102A340024FE7003022B8924FE7003022B9824FCCD
:102A44007003022BA724FE7003022BB6022BF39013
:102A540003007417F0A3E4122C1712048E022BF354
:102A6400851882851983AC82AD83120812022BC3A8
:102A7400851882851983AC82AD83120818022BC392
:102A8400850C08850D0974021217AEAC82AD8385DE
:102A9400088285098312347A1207348A0C8B0DACB0
:102AA4000CAD0DEC4D6042E4F50CF50D780C1219EB
:102AB400CD750C00750D03780C1219CD750C0175CC
:102AC4000D03780C1219CD74081217AE1219E4799B
:102AD400161234741208547408121779E9F50C703C
:102AE4000B1234701204A6800F750C0185088285C0
:102AF4000983122C051236E8850C08022BC67402D1
:102B04001217AEAC82AD83850C82850D8312347AA4
:102B14001207348A108B11AC10AD11EC4D60438553
:102B24000C82850D83A3A31219E47510007511039B
:102B340078101219CD75100175110378101219CD82
:102B440074081217AE1219E4791612347412085468
:102B54007408121779E9F509700B1234701204AC79
:102B6400800F750901850C82850D83122C051236A0
:102B7400E8850908804C851882851983AC82AD8369
:102B840012081E803A851882851983AC82AD83129F
:102B94000824802B851882851983AC82AD831208A2
:102BA4002A801C851882851983AC82AD8312083073
:102BB400800D851882851983AC82AD83120836E9AD
:102BC400F508E50860298E828F83A3E06414601FF2
:102BD400850E82850F83E0900300122C0F123F2D87
:102BE4009003011236E8E508A3122C17120488EEAC
:102BF400FAEFFB1207B20235D4F50CEF3400F50DF1
:102C040022123F3185188285198322F08518828526
:102C1400198322F07C007D03850A82850B8312349C
:102C24007E2274EE1217BA74FC1217638A0A8B0B95
:102C34008C0E8D0FEA2405F508EB3400F5097C159C
:102C44007D0079007A007B03121088E5082402F5E0
:102C54000CE509122C00851882851983858210855C
:102C6400831178101219CD850882850983A3A3A343
:102C7400A312312A1219CDE5082405F510E509340B
:102C840000F51178101219CD850C82850D8312344C
:102C94008412072E74061217798A108B11AE10AFA6
:102CA40011E50A2402F50AE50B1236CFEE4F700344
:102CB400022DEC801774021217AE12347A888289BE
:102CC40083EAF0A3EBF0900300E004F0900300E04B
:102CD400C394054003022DECE4F510F511781012AD
:102CE40019CD7510E975110278101219CD7510EA15
:102CF40075110278101219CD74061217AE1219E468
:102D04007910EEFCEFFD1234741208547408121793
:102D140079E9705E850882850983A3A3A3A3A3A38D
:102D2400A3E0F89002E9E068704812312A1219CD44
:102D34007CEA7D02E5082408FAE5093400FB121058
:102D4400827402121779E960298E828F83A3A3A368
:102D5400A312347A900300E0F5107402781012176D
:102D64005074012510F58274033511F583EAF0A33C
:102D7400EBF074021217AE8582108583117810125D
:102D840019CD74021217AE1219E4850C82850D83D5
:102D9400123F4212073A74041217798A108B11AE4B
:102DA40010AF11900300E0F5107511007402781053
:102DB40012175074002510F874033511F9888289AC
:102DC40083A31229187003022CB0E82403F8E93411
:102DD40000F9EE4F6003022CB98882898374FFF0F6
:102DE400A3F0900300E004F0900300E0600A1234C2
:102DF4007012049A7900800B850882850983123643
:102E0400DF790A0235D474EA1217BA74FE12176312
:102E14008C128D13EA2405F50CEB1240AC12288AAF
:102E2400750800750900EA2402F510EB3400F51169
:102E340085188285198385820A85830B780A12197D
:102E4400CD850C82850D83A3A3A3A3122FEC1219A5
:102E5400CDE50C2405F50AE50D1236CF780A1219D2
:102E6400CD850C82850D83123F4012072E74061205
:102E740017798A0A8B0BEA450B7003022F9DEA240B
:102E840004F50EEB122FE212288A8A828B83A3A305
:102E9400A3E0F985108285118312347A12071CE9A4
:102EA400F5096003022F9DE4F514F5157814121941
:102EB400CD7514E975150278141219CD7514EA75D7
:102EC400150278141219CD74061217AE1219E4798A
:102ED40013AC0AAD0B85108285118312347A120863
:102EE400547408121779E9F5096003022F9D9002C2
:102EF400E9E0F8E5087009E02402900301F0801786
:102F0400900301E0FCE82402FAE43400FBEA6C706C
:102F140001EB6003022FA1850882AA821231219459
:102F2400141231195073850E82850F83E0C0E0744A
:102F3400022A122FD9D0E0F00508850E82850F836E
:102F4400A3E0C0E085080A7402250A122FD9D0E054
:102F5400F005089002E9122FEC1219CD7CEA7D02EB
:102F640085080A7402250AFA74033400FB121070EF
:102F740074021217799002E9E02508F50874FF6ECF
:102F8400700374FF6F6012EE24010EEF3400FFE54E
:102F940008C394145003022E34E5086013123365F9
:102FA40085108285118312347A1204A0790080146A
:102FB400E509700375090A851282851383EEF0A36F
:102FC400EFF0A90974021217797F0E02188C850894
:102FD4000C7402250CF58274033400F5832234004A
:102FE400F50F850E82F58322123C6F2274EE1217C0
:102FF400BA74FE1217638C0E8D0FEA2405F50CEBE0
:10300400122C00750B00900300E4F0F50AEA240288
:10301400F508EB3400F5098049900300E0FA9002CA
:10302400E9E0F81231219417123119400D90030090
:10303400E0F87416C3989002E9F012312A1219CDFF
:103044007CEA7D0274012AFA74033400FB121070C6
:1030540074021217799002E9E0F8900300E028F076
:10306400050AE50C2416F582E50D122FDDE0F8E5DE
:103074000AC3984003023102900300E0C39416503F
:103084007DE50AC333F8E433F9E50C28FEE50D3990
:10309400FF851882851983AC82AD838E828F83125B
:1030A400347A1207348A108B11AC10AD11EC4D70C8
:1030B40005750B018043E4F510F51178101219CD54
:1030C4007510E975110278101219CD7510EA751191
:1030D4000278101219CD74061217AE1219E479167B
:1030E40085088285098312347A12085474081217E9
:1030F40079E9F50B700302301D1236DB80107C0079
:103104007D0385088285098312347A1204B2A90BDF
:1031140074020235D6E99400C365D03322EA28F854
:10312400E43400F9E822E0F51075110078102274F7
:10313400EA1217BA74FC1217638A0C8B0D8C128D69
:1031440013EA2405F50AEB1236CF75080075090059
:10315400E50A2402F510E50B3400F5117402121788
:10316400AE85820E85830F780E1219CD850A82856D
:103174000B83A3A3A3A3123C1B1219CDE50A2405B8
:10318400F50EE50B3400F50F780E1219CD8510827B
:103194008511831236D512347412072E7406121751
:1031A400798A0E8B0FAE0EAF0FE50C2402F50EE5F7
:1031B4000D3400F50F80408882898374FFF0050880
:1031C400122FD274FFF005089002E9E0F50C750D9A
:1031D40000780C1219CD7CEA7D0285080C74022556
:1031E4000CFA74033400FB121070740212177990F5
:1031F40002E9E02508F508EE4F60718E828F83A303
:10320400A3A3E0F9850E82850F8312347A12071C7A
:10321400E9F509EE2404122BFDE97044E4F514F5F4
:103224001578141219CD7514E9751502781412194C
:10323400CD7514EA75150278141219CD7408121795
:10324400AE1219E47911EEFCEFFD850E82850F8331
:1032540012347A1208547408121779E9F5096027B0
:10326400850C82850D8312335B1236E8E508700302
:10327400023341123365850E82850F8312347A122C
:1032840004B87900023356850882AA82EA9002E9DA
:103294007009E02404900301F08022E0F890030117
:1032A400E0F514E82404FCE43400FDEC651470013A
:1032B400ED70C0123121941212311950B6850C826E
:1032C400850D83E0C0E074022A122FD9D0E0F00506
:1032D40008850C82850D83A3E0C0E0122FD2D0E0D4
:1032E40012337785820C85830D780C1219CD740402
:1032F4001217AE1219E4851082851183123F42120F
:10330400073A74041217798A0C8B0DAE0CAF0D8535
:10331400080C7402250CF874033400F9EE4F7003A2
:103324000231BB851882851983E088828983123330
:1033340077A3E0C0E0122FD2D0E00231C9E50970D2
:103344000375090A850A82850B8312335B1236E8FA
:10335400A9097404022FCA123F318512828513838E
:1033640022900301E0F5F0E50884900300F07C006E
:103374007D0322F005088518828519832274EC12D6
:1033840017BA74FE1217638A088B098C0E8D0FEA24
:103394002405FEEB3400FF851882851983AC82ADC9
:1033A400838E828F8312347A1207348A0A8B0BEE4F
:1033B4002418122BFDEA450B700302344B1235BD61
:1033C400503285188285198312347A1208488A107B
:1033D4008B11EA4511606B7912AC0AAD0B8508823A
:1033E40085098312347A8510828511831217B8E90E
:1033F400F50A7058E4F50AF50B780A1219CD8E8295
:103404008F83A3A3E0F50A780A1219CDEE240312E0
:1034140036CC780A1219CD8E828F83123484120826
:103424005A7406121779E9F50A7021850C82850D04
:1034340083E0701F85088285098312347A1204BEE2
:103444008011750A0E8009750A018004E50A60037B
:103454001236DB850C82850D83E0600479008002DE
:10346400A90A74021217797F0C02188C7C007D0360
:10347400850A82850B8312347E22E0FAA3E0FB22C4
:10348400E0FCA3E0FD85088285098312347E227462
:10349400EE1217BA74FE1217638A088B098C0C8D0E
:1034A4000DEA2405FEEB3400FF750E0085188285B5
:1034B4001983AC82AD838E828F8312347A120734DF
:1034C4008A0A8B0BEA450B70030235A91235BD50ED
:1034D4003585188285198312347A1208488A0E8B2E
:1034E4000FEA450F605E7912AC0AAD0B8508828540
:1034F400098312347A850E82850F831217B8E9F591
:103504000E60030235AC8508828509831237C3AA8D
:103514000AFB12083C8A108B11A810A911E8497003
:103524001E7AFF7BFF12083C8A108B11A810A91188
:10353400E849606C88828983E50AF0A3E50BF0759D
:103544000A008007750E0E805F050A9002E6E0FA15
:10355400E50AC39A504AE50A75F017A4FAABF08855
:10356400828983A3A3E02AFAA3E03BFB8A828B83AC
:103574001236D5EC4D70D2750A17750B00780A1205
:1035840019CDEEFCEFFD1210707402121779EEFCE7
:10359400EFFD85088285098312347A1204C48014ED
:1035A400750E098003750E01123F29850C82850D65
:1035B400831236E8A90E023114E5082402F508E561
:1035C400093400F5098A828B83A3A3A3E0A2E52230
:1035D40074041217797F0A02188C74EC1217BA8CCF
:1035E400108D11EA2405F50CEB122C00750F00EA7E
:1035F4002402F50AEB1236CF850A82F58312347A57
:1036040012083C8A088B09EA450970030236C17521
:103614000E008071850C82850D83E06401704F8EED
:10362400828F83A3A31219E48E828F83A3A3A3A3FF
:10363400E0F51275130078121219CDEE2405F51277
:10364400EF3400F51378121219CD12347412085A9B
:103654007406121779E9F50F6014850C82850D83C1
:10366400E4F0123F298510828511831236E87C1715
:103674007D007900EEFAEFFB1210888E828F83E4CE
:10368400F0A3F0050E9002E6E0F8E50EC398501E94
:10369400E50E75F017A4F8A9F0850882850983A3BF
:1036A400A31240B61236D5EC4D60030236188508D5
:1036B4008285098374FFF0A3F0E50F700612347459
:1036C4001204CAA90F02346BF50AEF3400F50B2279
:1036D400A3E0FCA3E0FD228E828F83123F31850E8E
:1036E40082850F83E8F0A3E9F022C082C0839002B0
:1036F400E2E06A7003A3E06B70067AE27B02800466
:103704007A007B000229DBC082C08378008C828D22
:1037140083E06A7003A3E06B7010E875F003A4F80B
:10372400A9F0EC28FAED39FB8015088C828D83A36F
:10373400A3A3E06A7003A3E06B60DF7A007B00025E
:1037440029DB74F61217BA1208068A828B83E58283
:10375400458370067A007B008007A3A3A3A31234D9
:103764007A023DDA74F21217BAE9FE740E1217AE39
:103774001237C374101217AE123C3B8C828D83E057
:1037840064027036A3123F37F50CA3E0F9A80C7459
:10379400026870037429697021750C02750D007834
:1037A4000C1219CD78081219CD780A1219CDEEF938
:1037B40012087E740612177980027901023E5EE0D7
:1037C400F50AA3E0F50B2274E81217BA74FB12177A
:1037D40063E9851882851983F08A168B17ECFEED50
:1037E400FF751000741D1217AE123F2D741D1217B1
:1037F400AE1236E88E828F83A3A3A3E0A2E4502DF9
:10380400741D1217AE12347A1208488A828B83E52B
:103814008245837003023C0C790AEEFCEFFDAA1684
:10382400AB171217B8E9F5106003023C0F741F12AE
:1038340017AE123C3B74211217AE1237C374231215
:1038440017AEE0F50EA3E0F50F8E828F83E06402DD
:103854006003023BBAA3123F2D850882850983A326
:10386400858212858313EE2406122BFD88828983B8
:10387400E0FAA3E0F9EA2400F514E439F515781424
:10388400121A57010000280128AF380700022874D3
:10389400390328E1380029AB3A0129D63A022977BD
:1038A4003A0329AB3A0429553BBA3BE50E450F6070
:1038B40003023BB5850C82850D83123C30FAE9FB8B
:1038C4008A828B83E0850A82850B83123C661219F7
:1038D400CD8A828B83A3E0FCA3E0023B3FE50E4547
:1038E4000F6003023BB5850A82850B837401F012D5
:1038F4003C43850882850983F07C007D008E828F9D
:1039040083A3A3A3A3E02401FAA3E03400FB1207DA
:1039140034EA4B60418A828B83E02402F8850A8270
:10392400850B83E028F0EA2404F8EB3400F988825C
:103934008983E0851282851383123C78123C6612D7
:1039440019CD8A828B831236D4E5082403FAE5095B
:103954003400FB023B44850A82850B83E02404F097
:103964007C047D007900AA12AB13121088023C0F6C
:10397400E50E450F6003023BB5123C43FEA3E0FF96
:10398400850A82850B837404F0EE85088285098399
:10399400F0EF851282851383F074031217AEAC82A4
:1039A400AD83EEFAEFFB1207348A0C8B0DEA450D5A
:1039B4007003023A588A828B83A3A3122886740167
:1039C4001217AE85820E85830F780E1219CD7405F9
:1039D4001217AE1219E47CFF7DFF12073A74041229
:1039E40017798B0FEA450F7033850C82850D83128E
:1039F4003C1B1219CD850C82850D83A31219E47C1E
:103A0400027D007A047B901205667404121779E92A
:103A1400700A74011217AE74FFF0A3F08E828F83C4
:103A2400E064027039750C02750D00780C1219CD22
:103A34008E828F831236D4E5082404FAE509340013
:103A4400FB1210707402121779850A82850B83E0C9
:103A54002402800974011217AEEEF0A3EFF0740192
:103A64001217AE123C2CF074011217AEA3123C24B0
:103A7400023BAFE50E450F6003023BB5850C828522
:103A84000D831236D5AA16AB17120872850A8285E1
:103A94000B837402F0EA850882850983F08512821B
:103AA400851383EB023BB2E50E450F6003023BB581
:103AB400123C43F8A3E0F9850A82850B837402F073
:103AC400E8850882850983F0E985128285138302DB
:103AD4003BB2850C82850D8312347A12106AEAFC9B
:103AE4008C82A882C3950EE4950F405FE8650E7042
:103AF40002E50F70047C008022851882851983E01A
:103B0400FAE50E2AFAE50F3400FBC3EA98EB9400B9
:103B14005003E08005E50ECCC39CFCEC850A82854D
:103B24000B83F08C0A750B00780A1219CD850C8270
:103B3400850D83E0250EFCA3E0350FFDAA08AB0933
:103B44001210707402121779023C0F751007023CB0
:103B54000FE50E450F705A850C82850D83123F2D9B
:103B6400850A82850B837407122892123C2412283A
:103B740092A3E0851282851383F0E82402FAE934E3
:103B840000FB8A828B83123C24123C53123C2CA3EC
:103B9400123C5C123C35F0E82405F8E93400F9885D
:103BA400828983123C35A3123C78A3A3A3A3F0809B
:103BB4005A75100B8055741D1217AE12347A120800
:103BC400068A828B83E5824583603D123F2D880CF3
:103BD400890DE8450D6031780E1219CD780A121955
:103BE400CD78081219CD74061217AEE0F9EEFCEF89
:103BF400FDAA16AB17850C82850D831217B87406BF
:103C0400121779E9F510800375100EA910740512C6
:103C140017797F1002188CE0F50E750F00780E22CC
:103C2400E085088285098322123C8222123F31E812
:103C340022123C82A3A322E0F508A3E0F509228521
:103C44000C82850D83E0F8A3E0F5838882E022A34B
:103C5400A3F08A828B83A322F088828983A3A3A3FF
:103C6400A322F08A828B83123C6F22E0F50A750B43
:103C740000780A22F088828983A3123C8222E0859C
:103C84000882850983A3A32274EE1217BA74FE1264
:103C940017638A0A8B0BECFAEDFB74141217AEE06F
:103CA400F510A3E0F51174161217AEE0FE741812A5
:103CB40017AEE0F50EA3E0F50F851882851983ACE5
:103CC40082AD831207348A0C8B0DEA450D60498559
:103CD400188285198312347A1208068A828B83E546
:103CE400824583602FA3A3123C3BE5084509602469
:103CF400780E1219CD78101219CDEEF9AC0CAD0D69
:103D0400AA0AAB0B8508828509831217B8740412BA
:103D140017798006790E8002790102311474F61243
:103D240017BA74FE121763740C1217AE123C308566
:103D34001882851983F074011217AEE9F0E4F508CE
:103D4400F50978081219CD75080278081219CD748E
:103D5400041217AE85820885830978081219CD12DA
:103D6400085A74061217797402121779806874F766
:103D74001217BAEAFEEBFF89087C197D0312087258
:103D8400EA5402600BA908EEFAEFFB12072880023E
:103D9400790102278E74F61217BA74FF6A700374DD
:103DA400FF6B70168C828D83123DDFE4F08C828D64
:103DB40083A3A3A3123DDFA380181208428A088BB1
:103DC40009A808A909E849600D8882898374FF124B
:103DD4002890A3A3E4F07F0202188C74FFF0A3F0F0
:103DE4008C828D83A3A32274F61217BA1208428A16
:103DF400828B83E58245836006A3A3E0FA80027A7E
:103E0400007B0080D174F21217BA8A088B09ECFE89
:103E1400EDFF740E1217AEE0F50A1208428A0C8BFD
:103E24000DA80CA90DE8497026EEFCEFFD7AFF7B86
:103E3400FF1208428A0C8B0DA80CA90DE8497004E6
:103E44007911801688828983E508F0A3E509F08852
:103E5400828983A3A3E50AF079007F0602188C7493
:103E6400EE1217BAEAFEEBFF8C088D09890C741464
:103E74001217AE123F2D74161217AE12347A750D46
:103E840000E8496003023F217402650C6003023FAD
:103E94001C74121217AE123F37FCA3E0F9EC240095
:103EA400F50EE439F50FEAF4F8EBF4F9EC58F8E51B
:103EB4000F59F9E849705CE5082406F8ED3400F977
:103EC400880A890B8882F583123F421208728A108D
:103ED4008B11E50E65107004E50F65116042780ED4
:103EE4001219CD850A82850B83123F421208787419
:103EF40002121779E9F50D7027780E1219CD85088D
:103F040082850983A3A3123F4012089074021217FA
:103F140079800D750D808008750D0D8003750D0B6E
:103F2400A90D0235D98E828F83123F3122E0F8A386
:103F3400E0F922123F3188828983E022A3A3E0FCC6
:103F4400A3E0FDEEFAEFFB2274E81217BA74E7124D
:103F54001763851882851983EAF0A3EBF08C168D1C
:103F640017890E75080075090074311217AEE0F553
:103F740012A3E0F51374331217AEE0F514A3E0F5C1
:103F84001574351217AEE0F50FE50975F003A4F8C2
:103F9400A9F08518828519831240B6E0F47003A352
:103FA400E0F47003024099EE2402F50CEF1240ACE9
:103FB400E0700302409985160A85170B780A1219D6
:103FC400CDAC14AD15AA12AB131207FA7402121772
:103FD400798A0A8B0BEA450B7003024099E4F510C9
:103FE400F51178101219CD74061217AE858210855A
:103FF400831178101219CD74091217AE85821085B9
:10400400831178101219CD851282851383A3A3A37B
:10401400A31219E47914AC0AAD0B8E828F83123487
:104024007A1208547408121779E97069850A82852E
:104034000B83A3A3A3A3123F2D74021217AE12364F
:10404400E8850C82850D83E0A2E05018A90E740265
:104054001217AEAC82AD838E828F8312347A12072C
:104064004CE94208850C82850D83E0A2E15026E5E7
:104074000FF50A780A1219D1A90E74031217AEACFF
:1040840082AD838E828F8312347A120746740112B2
:104094001779E942080509E509C394025003023F70
:1040A4008DA9087419023C133400F50D850C82F5B2
:1040B4008322E028FEA3E039FF8E828F832274F2EC
:1040C4001217BAEAFEEBFF890B7401650B600E74DC
:1040D40002650B706A7901120A52E97062EEFAEF16
:1040E400FB12083C8A088B09EA45096047750A00F7
:1040F400800B7C177D007900121088050A9002E677
:10410400E0F8E50AC3985021E50A75F017A4F8A968
:10411400F0850882850983A3A3E028FAA3E039FB8C
:104124008A828B831229E270C98508828509837487
:10413400FFF0A3F07C197D03EEFAEFFB12086C028A
:104144003E5E74F21217BA8A088B09ECFEEDFF7416
:104154000E1217AE1237C3900A04E0F4603D7A09D8
:104164007B00121094EA4B60328A828B8374B1F024
:10417400A3E4123C55A3123C53A3E508F0A3E509BC
:104184001241A2EEF0A3EF1241A2A3A3E50AF0A309
:10419400E50BF0900A04E0F91210A0023E5EF08AEA
:1041A400828B83A3A3A3A3A32274F01217BA74FA75
:1041B400121763890BECFEEDFF750A008A088B0960
:1041C4007808121A11000410E043F0410E4228420C
:1041D40040425E4276429942B142C542EF42774341
:1041E40088439F43BA43E043E04305437401650BAE
:1041F40060030243DB8E828F83E0F8C394034003A1
:104204000243DBE8900AF00243B77402650B6003D3
:104214000243DB8E828F83124ADD900AF1E8F0A319
:10422400E90243B77401650B60030243DB124408DF
:1042340040030243DBE89007660243B77401650B51
:1042440060030243DB8E828F83E0F8C3940540034E
:104254000243DBE89007670243B77401650B600310
:104264000243DB12440840030243DBE89007680280
:1042740043B77410650B60030243DB7508107509BE
:104284000078081219CD7A697B0712107074021233
:1042940017790244017401650B60030243DB124485
:1042A4000840030243DBE89007790243B7740165D1
:1042B4000B60030243DB8E828F83E0900AF4024397
:1042C400B77404650B60030243DB8E828F83780C22
:1042D400121633908FCF780C12146550030243DB0F
:1042E40090077B780C121642024401E960030243F2
:1042F400DB1206D4E97005121208806090080E8063
:104304006E7407650B60030243DB750806750900CC
:1043140078081219CD8E828F83A3AC82AD83740288
:104324001217AEAA82AB8312107674021217797C2C
:10433400007D00851882851983AA82AB838E828FC3
:1043440083E0F91211AEE9F508C3940A400302436D
:10435400FE1206D4E9700CA90812120E7950121339
:1043640082806F740F2508F58274083400F5837415
:104374000180407401650B705E1244085059E89046
:10438400077A802F7401650B704D8E828F83E0F85D
:10439400C3940A5042E8900AF380187401650B70C4
:1043A400368E828F83E0F874F928C3940A5028E883
:1043B400900AF5F080477401650B701B90080DE0BE
:1043C400F88E828F83E090080DF0E87030E064018D
:1043D400702B1211FC8026750A188021C3EA9427D9
:1043E400EB940050157402650B700F8E828F83124C
:1043F4004EDC120572E9F50A8003750A02A90A74F3
:1044040006024AD28E828F83E0F8C394022274F0AB
:104414001217BA74CC1217638C0A8D0B74201217FE
:10442400AEAC82AD8375838F7582347406121676B2
:1044340074201217AEAC82AD831211AEE9F5087484
:10444400441217AEE0FEE9C3940A400302458075A6
:10445400F006E9A4F50974261217AEAC82AD837A8E
:104464000E74202509F912137CE9700974321217AD
:10447400AEE0FF80027F00900AF0E06402700474F2
:10448400018001E4F50D780D1219D1EEFDEFFCA9C0
:1044940008AA0AAB0B12123274011217797C147D2C
:1044A400007900740C1217AEAA82AB8312108874C0
:1044B4000C1217AEAC82AD837A1074242509F9125C
:1044C400137CE9703C7C1079FF740C1217AEAA823D
:1044D400AB831210E8E97029741C1217AEAC82ADDC
:1044E400837A0474252509F912137C740C1217AE0F
:1044F400AC82AD83EFA2E0E433F9AA0AAB0B120558
:10450400FC851882851983AC82AD837A0C7470257E
:1045140008F912137CE97053851882851983AA82DD
:10452400AB831211DE750800E50875F003A4F8A941
:10453400F0851882851983E58228F8E583124CE614
:10454400124ED6601D88828983A3A3E0F50E750FF1
:1045540000780E1219CDAA0AAB0B1208607402126D
:1045640017790508E508C3940440BDEFA2E1500C97
:10457400900765E0F9AA0AAB0B12086674046E7022
:1045840027900AF0E06402701F7A00900779E060D7
:10459400010A900766E06004780480027800E84A23
:1045A400F9AA0AAB0B1206BC79007434024AD2741D
:1045B400F01217BAEAFEEBFF8C088D09750A0AE9B6
:1045C400600C146009146037146079024662121199
:1045D400F0E9F50AC3940A4003024662E508450976
:1045E400607C750E06750F00780E1219CDEEFCEF87
:1045F400FDAA08AB091210707402121779805F7556
:104604000B00750E06750F00780E1219CDEEFCEF37
:10461400FDE50B75F00EA4F8A9F0748728FA740769
:1046240039FB1210827402121779E9600C850B0AA7
:10463400E50AC3940A50278016050BE50BC3940AB8
:10464400501C80BE1211F6E9F50AC3940A500FE516
:104654000845096009AA08AB09A90A1211EAA90ABE
:10466400024AD574F41217BA890875091574FF6AD9
:10467400700374FF6B70277E00AC087A027B00EE37
:10468400F91211CCE960037509000EEEC3940A40D7
:10469400E8E50860537A207B12120A64804A120A01
:1046A400468A0A8B0BAE0AAF0BEE4F60387C007D56
:1046B40000EE2405FAEF3400FB8E828F83A3A3A3BC
:1046C400A3E0F91211AEE9C3940A500CAC087A02C3
:1046D4007B001211CC750900E508600CEEFAEFFBC3
:1046E4001212208003750914A9098005740E12178B
:1046F400797F0402188C74F21217BAECFEEDFF7580
:104704000815740E1217AEE0F50AA3E0F50B74FF5A
:104714006A700374FF6B7021750900AC0AAD0BEE6F
:10472400FAEFFBA9091211D2E96003750800050923
:10473400E509C3940A503F80E2120A468A828B83B9
:10474400E5824583602D7C007D00E5822405FAE541
:10475400833400FBA3A3A3A3E0F91211AEE9C3942D
:104764000A5013AC0AAD0BEEFAEFFB1211D2750826
:10477400008003750814A908025518C082C08390EC
:10478400077FEAF0A3EBF0900765E0FC7D007A2652
:104794007B00120572900765E0F91207DC0253737F
:1047A40074F01217BA74EC121763EAFEEBFFEE24EE
:1047B4000CF50CEF3400F50DEE2405F50EEF340086
:1047C400F50FEE2409F50AEF3400F50BEE2403F59A
:1047D40008EF3400F5098E828F83A3A3E024FA70D6
:1047E40003024A7624FD70030249911470030248BF
:1047F4007D14601024FD700302496814700302499B
:10480400C5024ACE1257136048E0F5838882124AE3
:10481400DD880E890FE8450F6037850C82850D838E
:10482400E0F50C780C1219D1EE240BF582EF124C42
:10483400ADF9850A82850B83124EDC0A0A0AAB099C
:10484400850E82850F831217B87401121779024AF4
:10485400CE850A82850B831219E490077B121651C8
:1048640012060E7402121779E97003024ACE790116
:10487400850A82850B83024A418E828F83A38582B7
:104884000A85830BE0600302494B850E82850F8302
:10489400E0A2E0400302494B900819125716600346
:1048A40002494B7C0E7D007900851882851983AA04
:1048B40082AB83121088850C82850D8312533EEAE5
:1048C4004B6010750C06750D00780C1219CDEA2496
:1048D40010801B125338120A46EA4B7003024ACE68
:1048E400750C06750D00780C1219CDEA2405FCEB45
:1048F4003400FD74021217AEAA82AB8312107074D6
:1049040002121779850E82850F83E0A2E25004D249
:10491400F08002C2F0A2F0E433F8740C1217AEE097
:1049240048F0EEFCEFFD851882851983AA82AB83DB
:104934001211E4E970117A027B00900765E0F91224
:1049440010C47900024AD01257137003024ACE12DF
:104954004AE37003024ACE850A82850B83E0FC7920
:1049640001024A6A1257137003024ACE124ADA89C4
:104974000BE8450B7003024ACE8E828F83A3E0FCC2
:1049840079021253388882850B83024A717C007D38
:1049940000EE2404FAEF3400FB850882850983E0E5
:1049A400F91211AEE9F8C3940A4003024ACEEE2488
:1049B4000AFCEF124EB2E8A42425F9121376024A37
:1049C400CE12533890077AE06007900AF3E0F9803A
:1049D4006F900AF0E0700479058065120A468A0C2B
:1049E4008B0DA80CA90DE82404F50CE93400F50D91
:1049F4008E828F83A3A3A3A3A3A3A3E0A2E0504624
:104A0400E8497003024ACE850C82850D83E0FE607E
:104A140035850A82850B83E05410702A740E1217B0
:104A2400AEAC82AD83E82405FAE93400FBEEF9125A
:104A340011AEE97011790385088285098312533E0A
:104A4400120608024ACEAC0EAD0F850C82850D838A
:104A5400E0F912533812122C125713606D124AE304
:104A640060687C0079001253388E828F831217B8E5
:104A740080581206D4E9705290080EE06401701553
:104A840012120890080EE4F07C0AFDF97A0F7B08F4
:104A9400121088802D750A00850A08740F2508FEF7
:104AA40074083400FF8E828F83E06401700BA90ABE
:104AB40012120E8E828F83E4F0050AE50AC3940A6B
:104AC40040D679501213821211FC79017414121712
:104AD400797F0802188C124AF2E0F8A3E0F9221256
:104AE4004AF2E0F8A3E0F9E8FEE9FFEE4F22E0F530
:104AF400838882A3A32274F41217BA74F212176380
:104B0400EAFE8C0B75F006E9A42420F508851882CA
:104B1400851983AC82AD837A0EF912137CE9705740
:104B24007C0679FF851882851983AA82AB831210CB
:104B3400E8E97043740C1217AE124ADDE8F509E592
:104B44000B6005EE42098004EEF45209850982AA3D
:104B540082E86A7001E9601B740C1217AEEAF0A3D4
:104B6400E4F0851882851983AC82AD837A0EA90896
:104B74001213767901800279000246F074F212175A
:104B8400BA74E6121763890A8A088B09ECFEEDFFF2
:104B9400740C1217AEAC82AD837A0E75F006E9A4DC
:104BA4002420F912137CE96003024CA07C0679FFEF
:104BB400740C1217AEAA82AB831210E8E9600302E8
:104BC4004CA07470250AF50B851882851983AC8274
:104BD400AD837A0CF912137CE96003024C9C8518AE
:104BE40082851983AA82AB831211DEE50845097018
:104BF4002C7C0C7900851882851983AA82AB8312D8
:104C040010E8E96003024C9C7C0C7D007900851857
:104C140082851983AA82AB83121088805D851882ED
:104C2400851983AC82AD83AA08AB091211D88A0C0A
:104C34008B0DA80CA90DE8497028EE4F605E85180D
:104C440082851983AC82AD837A007B001211D8EA85
:104C5400F8EBF9EA4B604588828983E508F0A3E51F
:104C640009F0124CA7FAEE6A7001EF602BEEF04FD8
:104C7400700888828983E4F0A3F0851882851983FB
:104C8400AA82AB831211DE851882851983AC82ADAA
:104C9400837A0CA90B121376790180027900741AB5
:104CA400025515E82402F582E93400F583E0227404
:104CB400F71217BA7F00EF75F003A4F8A9F0EC28F7
:104CC400F8ED124CE6E06A7003A3E06B7006E8FAB4
:104CD400E9FB800B0FEFC3940440DB7A007B0002F6
:104CE400509139F9888289832274F71217BA7E00A9
:104CF400EE75F003A4F8A9F0EA28F8EB124CE6E00C
:104D0400F4FCA3E0F4FD88828983ECF0A3EDF012B7
:104D14004CA7F4F00EEEC3940440D502509174F203
:104D24001217BA74F4121763EAFEEBFF8C088D09AC
:104D34009008191257167051EE4F7003024EABECE7
:104D440045097003024EAB1211F0E9900AF6F0C364
:104D5400940A4035750B007C0679FFE50B75F00E5F
:104D6400A4FAABF074812AFA74073BFB1210E8E949
:104D74006005850B0A800C050BE50BC3940A40D72C
:104D8400750A0AE50A900AF6F0900AF6E0C3940A56
:104D94004003024EAB75F006E0A4FB9008191257CD
:104DA40016706FEEFCEFFD7A0E74202BF912137659
:104DB4007C0C7D0079FF851882851983AA82AB83D8
:104DC400121088851882851983AC82AD837A0C9081
:104DD4000AF6E02470F9121376750C0E750D00783E
:104DE4000C1219CDEEFCEFFD900AF6E075F00EA45E
:104DF400F8A9F0748128FA740739FB121070740250
:104E0400121779900819E508F0A3E509F079000272
:104E14004EADE0C82406124ECF601A7A1B74212BC3
:104E2400F9121376124EBB2406F582E83400F5839A
:104E3400E4F0A380D7124EBB240A124ECF60107A3E
:104E44001B74222BF9121376124EBB240A80DA1239
:104E54004EBB240C124ECF60107A1074232BF9121F
:104E64001376124EBB240C80C0124EC4124ECF6077
:104E74002A7A1074242BF9121376124EC4F582E8A0
:104E8400124CAD2410FCA3E0124EB2900AF6E0A43A
:104E94002425F9121376124EC4808E90080DE0601A
:104EA400031212381212267901740C0255153400BB
:104EB400FD7A0475F00622900819E0F8A3E0C822F0
:104EC400900819E0F8A3E0C8240822F582E8340029
:104ED400F583124EDCEC4D22E0FCA3E0FD2274F4D9
:104EE4001217BA74F2121763EAFEEBFFE9C3940ACD
:104EF4005004EE4F70047902803E85188285198330
:104F0400AC82AD837A0E75F006E9A42420F912135D
:104F14007CE9F5087020750A06750B00780A1219E9
:104F2400CD74021217AEAC82AD83EEFAEFFB121011
:104F3400707402121779A9080246F074F41217BAB1
:104F4400EAFEEBFF750800750A06750B00780A1275
:104F540019CDEEFCEFFDE50875F00EA4F8A9F07488
:104F64008128FA740739FB1210827402121779E946
:104F74006004A908800B0508E508C3940A40C879B1
:104F84000A0246F574F71217BA74F0121763EAFEB0
:104F9400EBFF750800851882851983AC82AD837A8E
:104FA4001075F006E508A42423F912137CE9702C8B
:104FB4007C1079FF851882851983AA82AB8312102D
:104FC400E8E97018EEFCEFFD851882851983AA8242
:104FD400AB831205DEE97004A908800B0508E50817
:104FE400C3940A40B0790A7410121779025091746C
:104FF400F71217BA750800E50875F00EA4F8A9F0C1
:10500400748128FE740739FFEEFCEFFD7A0E75F00B
:1050140006E508A42420F912137CE9602C7C067DA3
:105024000079FFEEFAEFFB1210887C067D0079FF11
:10503400EE2406FAEF3400FB121088EE240CF582FD
:10504400EF3400F583E4F0A3F00508E508C3940AFF
:1050540040A590080DE06003121238121226802D2C
:1050640074F71217BA7E007F007C0679FFEF75F0A3
:105074000EA4FAABF074812AFA74073BFB1210E811
:10508400E970010E0FEFC3940A40DEEEF97F0102CE
:10509400188C74F71217BA7E00EEF912120E0EEE87
:1050A400C3940A5003E960F180E374F31217BA74ED
:1050B400CB121763E9FE900AF6E06E701B7A017B4F
:1050C40000900765E0F91210CA7A027B0090076528
:1050D400E0F91210CA12124475F006EEA4FF74200F
:1050E4002FF50874271217AEAC82AD837A0EA90887
:1050F40012137CE960030251E87C0679FF742712DD
:1051040017AEAA82AB831210E8E960030251E87C6F
:105114000E7D0079FF74271217AEAA82AB8312109A
:10512400887C1B7D0079FF740C1217AEAA82AB83B6
:105134001210887C0C7D0079FF851882851983AA5A
:1051440082AB8312108874271217AEAC82AD837AB7
:105154000EA908121376E9F508740C1217AEAC8286
:10516400AD837A1B74212FF9121376E9F509740CB7
:105174001217AEAC82AD837A1B74222FF912137608
:10518400E9F50A740C1217AEAC82AD837A1074235D
:105194002FF9121376E9F50B740C1217AEAC82AD2D
:1051A400837A1074242FF9121376E9F50C740C1217
:1051B40017AEAC82AD837A0474252FF9121376E905
:1051C400FF851882851983AC82AD837A0C74702EA6
:1051D400F9121376E9F8E509450A450B450C4F48E1
:1051E40042088003750800A90874351217797F05F1
:1051F40002188C74F71217BAE9900765F01211FCC3
:1052040002509174F41217BAEAFEEBFF5480700353
:1052140002529F900765E0F91210AC8A088B09EAE4
:105224004509607078018A828B83E02450603D14C4
:10523400600624E1604F8052A3A3A3A3E0704E8ACA
:10524400828B83A3A3A3A3A3A3A31219E48A828BAF
:1052540083A3A3A3A3A3124EDC8A828B83A3A312EA
:10526400533E1211BA74021217798021A3A3A3A387
:10527400E0641E701879008A828B83A3A312533EC4
:105284001211B480081211C6E9F8E86007AA08AB45
:105294000912109AEEFAEF64808065EE54026023DE
:1052A4007C007D007A007B001211E4E960117A0130
:1052B4007B00900765E0F91210C4EE6402803F7A27
:1052C400028046EEA2E0503F12531212533E1212D5
:1052D4003EE9602F125713601F124ADA88088909C1
:1052E400E8450960137C00790112531212533E857C
:1052F40008828509831217B8121244EE6401FAEF8A
:10530400FB80087A0180027A007B000246F590084F
:1053140019E0F8A3124AF2A3227F0202188CC08279
:10532400C083900765E0F98A828B83A312533E12EF
:105334000866803B850882850983E0FAA3E0FB22A6
:10534400C082C08374FF121763121202E9C394026D
:10535400851882851983400474028002740AF0ACB3
:1053640082AD837A0179051206EC7401121779D0A3
:1053740083D08202013574F21217BA74E8121763EB
:10538400EAFEEBFF890A8C088D097C187D00790000
:10539400851882851983AA82AB83121088851882A6
:1053A400851983EEF0A3EFF0900767E0C0E0740284
:1053B4001217AED0E0F0900768E0C0E07403121753
:1053C400AED0E0F0900AF5E0C0E074171217AED04A
:1053D400E0F074151217AEE054FEF8A3E0F9900A59
:1053E400F4E0A2E0E433FAE84AF874151217AE12B6
:1053F4005524A2E15004D2F08002C2F0E854FDFA30
:10540400A2F0E43333F8EA48F874151217AE1255D3
:1054140024A2E35004D2F08002C2F0E854F7FAA2C6
:10542400F0E433F50C750D007403780C1217501268
:10543400551D1217AE125524A2E45004D2F0800276
:10544400C2F0E854EFFAA2F0E433F50C7404780CDB
:1054540012175012551D1217AE125524A2E550040E
:10546400D2F08002C2F0E854DFFAA2F0E433F50C83
:105474007405780C12175012551D1217AE125524CC
:10548400A2E25004D2F08002C2F0E854FBFAA2F087
:10549400E433F50C7402780C12175012551D1217D0
:1054A400AEE8F0A3E9F0900768E0601D750C107891
:1054B4000C1219CD7C697D0774061217AEAA82AB53
:1054C400831210707402121779900779E06011E565
:1054D4000A600974151217AEE04402F078018002E4
:1054E400780074141217AEE048F0900766E0600488
:1054F40078048002780074141217AEE048F0AC0807
:10550400AD09851882851983AA82AB8312060274B9
:10551400181217797F0602188CEA450CF8741522C4
:10552400E8F0A3E9F0900AF4E02274F31217BA74D5
:10553400E5121763EAFEEBFF8C098D0A7428121733
:10554400AEE0F50C75F006E9A4F87408650A700479
:1055540074228002742128F50B7C1B7D0079008560
:105564001882851983AA82AB8312108885188285D4
:105574001983AC82AD837A1BA90B12137CE97032B8
:10558400741A1217AEE024F9C3940A5025E50CF5F9
:105594000B780B1219D174011217AEAC82AD83E5EE
:1055A40009A2E0E433F9EEFAEFFB120614740112D7
:1055B4001779741B0251EF74F71217BA1208DE75CB
:1055C4000800E50875F00EA4F8A9F0748128FE74AB
:1055D4000739FF7C0679FFEEFAEFFB1210E8E97059
:1055E40009EEFAEFFB79001208E40508E508C39414
:1055F4000A40CF02509174F61217BA74FD12176361
:10560400EAFEEBFF90081B125716703975081D75DA
:10561400090878081219CD7508027509007808126E
:1056240019CD7508F475098F78081219CD7CFF7DA2
:10563400FF7A017B0012072E740612177990081B5B
:10564400EAF0A3EBF090081B12571670030256FD04
:10565400E4F508F50978081219CD74041217AE851B
:10566400820885830978081219CD74041217AE854F
:10567400820885830978081219CD90081D1219E44F
:10568400790290081B12570B1208547408121779E8
:10569400E97034851882851983E0FA74011217AE13
:1056A400E0F9EA2400F508E439F509EA4509601748
:1056B40078081219CD90081B125315A312570B1218
:1056C40011BA7402121779E4F508F5097808121969
:1056D400CD90081D1219E47CFF7DFF90081B125326
:1056E4003E12073A740412177990081BEAF0A3EBF0
:1056F400F090081B12571670047901800279007427
:105704000312177902531D124EDCEEFAEFFB2290BE
:10571400077FE0F8A3E0F9E84922C082C08390083B
:1057240019125716601090081912533E12109A90CD
:105734000819E4F0A3F0900AF6740AF0025373C057
:1057440082C0839061907404F0A37448F0A3E4F0E1
:105754009061807440F09061BC7407F0906187742C
:1057640069F09061B67416F07900120B4E7902124A
:105774000B54902744E493F46006E493F9120B2A43
:105784007905120E54025B3EC082C083E9540FF9BE
:10579400906185E0696012E5C654804449F5C6E528
:1057A4009E547F644970F8E9F053C680E59E547FA7
:1057B40070FA025B3E74F71217BAE5A8FE53A87E8E
:1057C400120B36C2BA539AFEC289759B00C2C2122A
:1057D4000B3C75A91175B905120B42D2BA439A0153
:1057E40074805E42A80260D5C082C083906181E467
:1057F400F0A3025B3B75E90075910075BF000201DF
:1058040035C082C083906181E4F0A374C0F0A3E446
:10581400025B3DC082C08374F81217639003A41224
:105824006A6E70030258F69003A4E0544060237932
:1058340008851882851983AA82AB83120C4A8518BD
:1058440082851983AA82AB831209029003A4E054CF
:10585400BFF0E054806010790C7A657B05120C4A25
:105864009003A4E0547FF0E0A2E0500F7900120B03
:105874004E1209089003A4E054FEF0E05402600FB5
:105884007901120B4E1209089003A4E054FDF0E0D4
:105894005404600F7900120B5412090E9003A4E013
:1058A40054FBF0E05408600F7901120B5412090EF6
:1058B4009003A4E054F7F0E05410600F7902120B47
:1058C4005412090E9003A4E054EFF0E05420600F4A
:1058D4007903120B5412090E9003A4E054DFF0A3D1
:1058E400E05401600D120B601209149003A5E054FA
:1058F400FEF07408121779025B3EC082C083E9602F
:105904000514602A804F90619A7433F0A37455F0A3
:105914009061A0743AF090053FE064017009C2916F
:105924009003A67467802D9003A67461802690610D
:105934009A743FF0A3745AF09061A0747FF09005BC
:105944003FE064017009D2919003A67471800590C0
:1059540003A6746AF0025B3EC082C083E9600B1444
:10596400600D14601714600C8020902748801590F7
:105974002749801090053FE06401700590274A8014
:105984000390274BE493906186F0025B3E74EE1221
:1059940017BA74F4121763851882851983AC82AD23
:1059A4008375838F7582BB7404121676902748938F
:1059B400F46003025ABB907808E0C39402500302D7
:1059C4005A9B74041217AEAC82AD8375838F7582B3
:1059D400267408121676FC7EFF7FFF8E0C7D008CE9
:1059E4008285820E800F74086D606D74096D606825
:1059F400740A6D60638D08750900740278081217C3
:105A040050125AC5121633A909E50AC9F888107448
:105A1400187808121574E5104508FAE9FBE50EC379
:105A240033F8E433F974041217AEE58228F582E5FD
:105A34008339125FC5C3E89AE99B4008E8C39AF822
:105A4400E99B8006EAC398F8EB99F9C3E89EE99FBD
:105A54005006E8FEE9FF8D0C0DEDC39413408774E6
:105A6400FF6E700374FF6F6024850C08740278085D
:105A7400121750125AC5121633851882851983E5F8
:105A840082250EF582E583126464E508F00CECC30C
:105A9400940450030259DB75080175090078081253
:105AA40019CD74021217AEAC82AD837AD27B09127F
:105AB40012807402121779740C1217797F0A021873
:105AC4008C74482508F58274783509F583780822A2
:105AD400C082C083906186E0F890274BE49368709D
:105AE4000990274AE493906186F09061AE7468F05F
:105AF400A3746AF090624574FBF0A304F053F4FDC0
:105B040043FE0290053F7401F09061A0E0643A7096
:105B140004790080027901120B4E025B3EC082C000
:105B2400839004F1E06401700A9004F6E060047963
:105B34000C800279008003F0A3F0D083D0820201AC
