:020000040000FA
:0600000002010A0229447E
:03002B0002230DA0
:0300330002232E77
:030053000229BAC5
:03007B000222CA94
:100083000227F3E5C754F84401F5C77901220000BC
:100093000080FB120086B900030200F4E4792178A2
:1000A3000FB800028004F709D8FCE479307802B86D
:1000B30000028004F709D8FCE490028178D9790D15
:1000C3008002F0A3D8FCD9FA900F59AA82AB83908F
:1000D300013A786179028015E493A3AC82AD838AF7
:1000E300828B83F0A3AA82AB838C828D83D8E9D9D8
:1000F300E77582447583D3740412011C758291756C
:100103008300740012011C75D00075813F7518813E
:10011300751902759F00020096C09FF59FE473D086
:100123009F22D083D082C09FE493C0E0740193C028
:10013300E0740293F59F22FF544920424C4520412D
:100143006C6C00000000000000000000001100FFC4
:100153000000033000310032003300340035003634
:1001630000370038003900300031003200330034EA
:100173000035003600370038003900821AD71AD705
:100183001AD71AD71ADF1AF8070A083408FE07FF26
:100193000000B4000028002800283075A000A0004B
:1001A300A000A00000080008E001F000100010000B
:1001B30010001000100010005000500050001000FC
:1001C3001000D0070000000000000F000100050030
:1001D300307507001000010081FF00000000FF9C44
:1001E30009BA09A209FF02020208025000A0000096
:1001F30000E803023A9101000035910242910100A7
:100203000008100250910100002F040242910100E6
:10021300000910024E9101000045040242910100C1
:10022300000A10024C9101000047040242910100B0
:10023300000B10024A910800004804024291010099
:10024300000C100248910100000D10FFFF0100FF98
:1002530020023A91010000329102429101000072A2
:10026300100246910000000000024491030000299F
:10027300051614161416141614161416141614163A
:1002830014161416141614161416149816B6169279
:1002930016D617EE17D0171201259DD30412012588
:1002A30017FA0312012521FA031201255FFA03123B
:1002B3000125A8FA03120125E2FA031201253CFBEA
:1002C300031201255DFB0312012566FB03120125C1
:1002D300B3FB03120125DCFB03120125E6FB03122A
:1002E3000125F0FB031201255CFC03120125EEFC42
:1002F3000312012538FD031201256EFD03120125AA
:10030300FAFD031201253BFE0312012572FE0312BF
:10031300012591FE031201259AFE0312012562FFB6
:1003230003120125ACFF0312012532CE041201256D
:10033300A0D3041201254AC1041201257FC104126E
:100343000125B5C10412012500C304120125DAD227
:1003530004120125F0D204120125FAD20412012558
:10036300819E04120125969E04120125499F0412C1
:100373000125899F04120125A29F04120125DD9FF7
:10038300041201252AA0041201255CA004120125F0
:100393009EA004120125A9A20412012589D40412E6
:1003A3000125B8D404120125D4D104120125D8FFA4
:1003B3000112012540D4041201257FD40412012522
:1003C300E9FF01120125B6D004120125C6D004129B
:1003D3000125DED00412012546D1041201252ECDBC
:1003E30004120125B3CD0412012519CE04120125EF
:1003F30053FF0212012556FF021201258FFF02123D
:100403000125E2FF02120125B6A204120125CAA2A8
:100413000412012544A30412012528A40412012572
:10042300FFA5041201256EB9041201250FBA0412A7
:1004330001254DBA0412012599BA0412012559BBAD
:10044300041201258CBB04120125B3BB0412012540
:10045300C5BB04120125D9BB04120125E7BB041255
:100463000125542D00120125CF2D001201256F2ED9
:1004730000120125CE2F001201252531001201257E
:10048300C33100120125F43A001201253C42001247
:100493000125694B00120125B44C00120125655753
:1004A30000120125145800120125C3590012012519
:1004B300A95A00120125EC5A0012012518D0041282
:1004C300012589D00412012594D004120125A4D05A
:1004D30004120125AFD00412012582C8041201259C
:1004E300D4C8041201255EC904120125C5C904122A
:1004F3000125A2B604120125CCB6041201259AB730
:100503000412012575B804120125FCB80412012553
:10051300F87700120125BF7800120125F678001242
:100523000125207900120125807900120125D67951
:10053300001201253B7A00120125D37A001201250E
:10054300E27B00120125797D00120125067E00124F
:1005530001256D7E00120125847E001201259E7FF8
:100563000012012558D20412012588D20412012554
:10057300BDD204120125BFD204120125C1D2041237
:100583000125D2D204120125D4D204120125D7D2D7
:1005930004120125CCBE0412012539BF0412012522
:1005A3005BBF0412012593BF04120125C9BF0412C6
:1005B300012592B004120125D5B004120125F3B030
:1005C3000412012529B30412012561B30412012584
:1005D30086B304120125F5D304120125FDF203129B
:1005E3000125E2F303120125D3F403120125E4F4F8
:1005F30003120125F5F4031201253FF5031201252A
:10060300DCF6031201253DF8031201256DF80312F0
:1006130001253BF9031201259BF9031201253AC376
:100623000412012577C3041201258DC30412012589
:10063300BCC304120125F2C30412012509C4041228
:10064300012520C40412012553C4041201258AC4C0
:1006530004120125DDC404120125F4C4041201258A
:100663000BC50412012523C5041201253AC5041242
:1006730001256BC504120125A6C504120125D0C5A9
:1006830004120125FAC50412012511C6041201251D
:1006930028C6041201253FC60412012568C60412A8
:1006A30001257BC60412012591C604120125A4C6A7
:1006B30004120125CBC604120125A3A702120125AA
:1006C300A7A802120125D4A8021201251FA902120C
:1006D30001252AA9021201254DA90212012561A9AA
:1006E3000212012590A90212012592A902120125E5
:1006F300B5A902120125BBAA02120125FFAB021202
:100703000125C3AC0212012598AD0212012509AEE1
:100713000212012595AE0212012598AE021201259F
:1007230020AF021201255BAF02120125C2AF0212F4
:100733000125C5AF02120125FCAF0212012525B028
:1007430002120125D0B0021201255AB1021201256D
:10075300A9B102120125B6B102120125B9B10212E3
:10076300012519B2021201251CB20212012555B24C
:1007730002120125A0B2021201251FB302120125A4
:1007830022B3021201256CB3021201256FB30212C8
:100793000125E6B302120125E9B30212012578B45B
:1007A300021201257BB4021201250AB502120125AA
:1007B3001AB5021201254AB50212012557B50212D4
:1007C30001255AB502120125DBB502120125E8B550
:1007D30002120125D6B60212012588B7021201259D
:1007E300D5C603120125CDC70312012501C8031283
:1007F300012583C803120125A3C803120125EBC8F1
:10080300031201253EC903120125A2C903120125C2
:100813002FCA03120125E9CA03120125F8CD0312D9
:10082300012583CF03120125A6CF031201251A9AAE
:1008330004120125B79B04120125079C041201250C
:10084300D79C04120125369D04120125449D0412F0
:1008530001256D9D041201250080041201252880C5
:10086300041201255680041201258D8004120125EE
:10087300EB8004120125798204120125C48204123B
:1008830001250F83041201254F830412012595834B
:1008930004120125C3830412012580840412012557
:1008A3008A8404120125978404120125CA84041240
:1008B3000125968504120125A28504120125BA8516
:1008C30004120125C4850412012542860412012560
:1008D30029CF0412012537CF041201254FCF04126B
:1008E300012567CF041201257FCF04120125B7C765
:1008F3000212012563C802120125DEC80212012576
:10090300FFC9021201253BCA02120125D5CA0212F0
:1009130001257ECB0212012565CC02120125C9CD2A
:100923000212012520CE02120125A1CE02120125B9
:1009330091CF02120125DECF0212012564D00212EB
:10094300012596D002120125AAD202120125ECD26A
:10095300021201250AD3021201258DD302120125A9
:1009630061D40212012529D50212012536D70212BC
:100973000125CFB103120125A2B2031201254BB306
:100983000312012597B3031201254EB40312012567
:1009930067B40312012581B40312012531B5031293
:1009A3000125BDB503120125A9B603120125D8B649
:1009B30003120125EBB70312012533B803120125F6
:1009C300F4B80312012558B903120125BBB9031268
:1009D3000125EBB90312012565BA0312012508BCF1
:1009E3000312012544BC0312012560BC0312012537
:1009F30050D10412012564A6041201257AA604121B
:100A03000125A0A604120125BCA704120125C6A72F
:100A130004120125FBA804120125F3A904120125E0
:100A2300FDA904120125CA8604120125FA870412BE
:100A330001252D88041201257788041201253E8A99
:100A430004120125E9D50112012562D601120125FF
:100A530072D601120125D4D60112012565D70112E0
:100A630001254BD80112012577D801120125B4D8ED
:100A730001120125CBD80112012557D901120125F5
:100A830061D90112012573D901120125ABD90112D4
:100A930001250EDA011201256DDA01120125B0DA02
:100AA30001120125BBDA01120125C6DA0112012563
:100AB3007DDB0112012580DB0112012583DB01129D
:100AC300012586DB0112012589DB0112012573DC77
:100AD30001120125D6DC0112012538DD01120125A1
:100AE300D6DD01120125F6DE01120125DDE001123A
:100AF300012596E20112012572E30112012526E484
:100B03000112012563E70112012511E801120125F4
:100B130080E90112012500EB01120125A7EB011267
:100B23000125F0EB0112012527EC01120125C4EC8C
:100B3300011201254FED011201254FD702120125A4
:100B4300A4D70212012503D90212012513D90212D7
:100B5300012540D9021201259CD902120125A3DAED
:100B6300021201256DDB02120125CDDC02120125E3
:100B730010DD02120125B5DD0212012502DE02128B
:100B8300012528DE0212012536E0021201253BE091
:100B93000212012540E2021201258DE20212012513
:100BA30000E30212012533E302120125D5E3021209
:100BB30001257EE402120125B6E402120125B9E4FF
:100BC3000212012501E50212012543E50212012566
:100BD3009AE502120125C6B304120125D9B3041202
:100BE3000125E7B3041201252FB40412012545B4EE
:100BF300041201258CB404120125A0B504120125A9
:100C03002DB60412012578B60412012535BD011253
:100C1300012545BD01120125A8BD01120125EDBD28
:100C230001120125A3BE011201257EBF0112012578
:100C3300A7BF01120125D7BF0112012517C2011257
:100C43000125FEC301120125D6C5011201251AC7CC
:100C53000112012581C9011201258FCA0112012543
:100C6300E1CB01120125EBCC011201252DCD01129F
:100C7300012565CD0112012587CD01120125EACD9C
:100C830001120125ACD20112012546D3011201251F
:100C930084D301120125A3D301120125FDD301122F
:100CA3000125FDD40112012582D5011201252CEE67
:100CB3000112012536EE01120125DAEE011201259A
:100CC3001DEF0112012531EF0112012569EF011218
:100CD3000125B2EF01120125DBEF0112012520F0FE
:100CE3000112012569F00112012591F0011201257C
:100CF3001AF101120125D3F101120125E9F10112C3
:100D0300012525F2011201254DF20112012585F27B
:100D130001120125B8F201120125EFF2011201259A
:100D23000EF30112012537F301120125B0F301126D
:100D33000125C5F301120125DAF301120125EFF3B1
:100D43000112012524F4011201255EF4011201258B
:100D530082F4011201254BF50112012561F50112FF
:100D6300012580F50112012593F501120125A8F54E
:100D730001120125BDF50112012533F601120125EA
:100D830047F6011201259FF601120125AEF6011265
:100D930001250AF70112012544F70112012579F70C
:100DA30001120125A5F701120125D3F7011201252F
:100DB30006F8011201251BF80112012530F8011272
:100DC300012560F801120125ABF8011201250AF98A
:100DD300011201254BF90112012587F901120125A1
:100DE300B2F90112012521FA011201255EFA01125D
:100DF300012589FA01120125B9FA01120125E4FA44
:100E0300011201250EFB0112012545FB01120125EB
:100E13007AFB01120125B7FB01120125E1FB011247
:100E2300012511FC011201253BFC0112012565FC82
:100E33000112012590FC01120125B9FC01120125C3
:100E430010FD0112012552FD011201257DFD011244
:100E53000125E1FD011201250BFE0112012536FEDC
:100E63000112012561FE0112012591FE01120125E6
:100E7300DAFE0112012504FF0112012529FF0112E7
:100E83000125B0FF01120125C2CB0412012515CCA7
:100E930004120125F9B70212012527B80212012510
:100EA30082B90212012562BA0212012581BA021225
:100EB3000125FEBA0212012541BB02120125BCBC69
:100EC300021201252BBD0212012556BF0212012574
:100ED300DAC1021201258BC20212012581C302125B
:100EE300012521C4021201251FC50212012579C65D
:100EF3000212012504C70212012579C70212012536
:100F030024CA041201258DCA04120125E1CA041260
:100F1300012503CB041201252ACB041201255BCB47
:100F2300041201257CCB04120125AD950412012581
:100F33001A96041201256196041201257997041269
:100F430001257598041201255899041201254ADADE
:100F5300031201258CDA031201255EDB031201253E
:100F630037DC0312012531DD0312012513DE0312E1
:100F730001257CDE0312012513DF0312012530DF77
:100F8300031201254CDF03120125F5DF03120125AE
:100F930069E003120125D5E003120125D8E003120D
:100FA300012501E1031201257BE10312012514E26E
:100FB3000312012579E2031201258EE203120125B2
:100FC300D4E203120125EDE20312012552E30312D9
:100FD300012555E30312012559AD0412012595ADF1
:100FE30004120125D3AD041201259DAE041201257F
:100FF3000CAF0412012547AF0412012585AF04127B
:101003000125B5AF04120125DCAF041201254AB056
:101013000412012552910112012541930112012568
:101023000496011201254096011201256D960112C5
:1010330001255A97011201259D9701120125E49775
:1010430001120125F6970112012536980112012597
:10105300779801120125869801120125B398011290
:101063000125FE98011201253599011201258F9959
:1010730001120125B59901120125E99901120125F2
:101083000C9A01120125AA9A01120125E29A011272
:1010930001255C9B01120125AE9B011201253B9C9E
:1010A30001120125B79E01120125E49F01120125BA
:1010B30051A001120125C9A001120125DFA20112CD
:1010C30001251DA3011201258BA401120125ACA446
:1010D30001120125F1A401120125F1A50112012537
:1010E300D7A70112012542A80112012592A80112D6
:1010F3000125C3AD0112012513AE0112012551AE25
:10110300011201255EB00112012549B10112012529
:10111300DBB20112012513B301120125B5B301128C
:10112300012595B401120125C6B401120125F0B4BD
:10113300011201251AB5011201254FB5011201252E
:1011430074B50112012593B501120125C0B5011231
:10115300012536B601120125B7B601120125FFB6E6
:101163000112012521B70112012543B801120125FE
:1011730007B90112012538B9011201259BB90112E2
:101183000125C0B901120125ACBA01120125C8BA63
:101193000112012574BB01120125FBBB01120125BC
:1011A30026BC011201256DBC01120125ADBC011243
:1011B3000125E6BC0112012508BD011201251FBC52
:1011C3000412012591BC04120125E7BC0412012578
:1011D3002BBD041201254BBD0412012598BD041239
:1011E3000125E0BD0412012533BE0412012584BE8E
:1011F30004120125D1D00312012550D10312012578
:1012030012D70312012521D80312012589D903120C
:10121300012520DA031201250F5B00120125585B1B
:1012230000120125855B00120125B85B0012012520
:10123300C85B00120125D45B00120125E55B001297
:101243000125CC5C001201252A5D001201255F5D9A
:1012530000120125965D00120125D95E00120125B9
:101263002C5F001201257D5F00120125E85F00124B
:1012730001258C60001201253E61001201259C614D
:10128300001201250C62001201255F620012012584
:10129300A26300120125086500120125DF65001213
:1012A3000125F065001201252C66001201253C661C
:1012B300001201255C66001201255F6600120125FC
:1012C3002D6700120125FE67001201259F68001299
:1012D3000125556900120125826900120125D5698E
:1012E300001201253D6A00120125916A00120125B1
:1012F300CA6A00120125466B00120125EE6B00122B
:101303000125B96C001201255B6D00120125D06D1A
:1013130000120125336E00120125916E0012012582
:10132300C26E00120125696F00120125B86F001209
:1013330001259F7100120125EE71001201253572FE
:1013430000120125BB72001201254373001201250F
:101353008A7300120125AF7300120125FA7300127C
:1013630001252A7400120125727400120125EC7400
:101373000012012530750012012541760012012566
:10138300F07600120125517700120125AD77001286
:101393000125C67700120125D5BC0312012528BDFE
:1013A3000312012534BD0312012509BE03120125D1
:1013B30030BE031201256BBE03120125D7BE0312F3
:1013C300012513BF0312012549BF0312012582BF63
:1013D300031201259ABF03120125EFBF0312012552
:1013E30008C00312012551C00312012564C0031272
:1013F30001257EC00312012594C003120125C7C134
:10140300031201250EC30312012510C40312012583
:101413000AC503120125492D00120125F18B04127F
:101423000125608F04120125999004120125CC9A9D
:1014330003120125429D03120125489D0312012534
:10144300B09F0312012517A203120125E490041291
:1014530001257A91041201253192041201255B9230
:10146300041201254E9404120125769504120125D8
:10147300008002120125348002120125598C0212C8
:101483000125AD8D02120125B88E02120125389077
:10149300021201251A91021201255491021201250B
:1014A300779102120125B99102120125C29102120C
:1014B30001250C9202120125169202120125C092F7
:1014C30002120125999302120125ED9302120125BF
:1014D3004F9402120125A29402120125D194021203
:1014E30001250E95021201250D9602120125799907
:1014F300021201257F9902120125059F021201257F
:101503007EA30212012554A70212012507AA041281
:1015130001257DAA0412012593AA04120125D4AA48
:10152300041201250EAB0412012587AB0412012519
:10153300C2AB0412012535AC0412012573AC0412AD
:1015430001257CAC0412012588AC04120125A4AC4E
:1015530004120125CFAC04120125E5AC04120125C8
:1015630029AD0412012579E3031201258CE303124B
:101573000125A6E303120125CFE30312012512E49B
:101583000312012551E4031201258FE403120125FF
:10159300F4E40312012509E50312012514E50312FE
:1015A300012521E50312012538E50312012546E54E
:1015B3000312012555E5031201256AE503120125EE
:1015C3007FE5031201258AE50312012596E503123F
:1015D3000125A3E503120125B6E503120125C1E5A3
:1015E30003120125E6E503120125EBE503120125AC
:1015F30085E603120125EBE603120125FBE6031240
:10160300012510E70312012525E7031201253FE712
:10161300031201255AE70312012577E70312012577
:1016230082E7031201253EE8031201252AE903128A
:10163300012546E9031201255DE90312012568E945
:10164300031201257DE90312012591E90312012506
:10165300F2E903120125F8E903120125FEE9031259
:10166300012504EA0312012518EA031201253FEAC2
:10167300031201257AEA0312012593EA03120125D5
:10168300D3EA0312012506EB03120125FDF402122E
:1016930001251FF502120125FFF502120125D6F8D7
:1016A3000212012502FA0212012526FB021201256C
:1016B300D8FB0212012579FC0212012505800312D1
:1016C30001258980031201253881031201259782A0
:1016D30003120125B88403120125A48503120125F1
:1016E300D98503120125FB8503120125AA8603125E
:1016F3000125A28803120125CB88031201255D89E8
:10170300031201258F89031201259C8903120125E8
:10171300F38903120125198A03120125868C03120A
:101723000125898D03120125E18D0312012587E629
:101733000212012591E70212012578E80212012520
:1017430082E8021201258CE802120125AEE802129A
:101753000125BAE80212012553EA0212012582EAA1
:10176300021201259EEB02120125F7EB021201255D
:101773005DED021201253CEE0212012598EE0212E4
:10178300012505EF0212012540EF021201257FEF2B
:101793000212012538F20212012552F2021201252A
:1017A300DEF202120125ECF20212012545F30212C8
:1017B300012553F302120125C6F3021201252AF46F
:1017C3000212012574F402120125A1A603120125B8
:1017D300C3A603120125E9A803120125FEAB0312D8
:1017E300012516AD03120125C9AD03120125ABAEC8
:1017F30003120125DDC60412012502C704120125C7
:1018030074C70412012583EB031201258CEB031229
:10181300012595EB031201256CEC031201251DEE46
:101823000312012553EE031201258DEE0312012548
:10183300C3EE03120125FDEE0312012531EF03125E
:1018430001255DEF03120125A6EF03120125E0EF49
:101853000312012529F00312012581F0031201254A
:10186300B6F00312012511F1031201254BF1031206
:1018730001259CF103120125D2F1031201250CF27B
:10188300031201253AF2031201255DF20312012529
:101893002F8E03120125628E03120125A58E0312DA
:1018A3000125B08E03120125BB8E03120125C68EBE
:1018B30003120125D18E031201253D920312012546
:1018C3001093031201258A93031201250194031235
:1018D30001250E94031201251B940312012525945F
:1018E300031201252F94031201254B9403120125A2
:1018F3005B94031201259D9403120125C3940312E3
:101903000125CD9403120125D79403120125E194F7
:1019130003120125EE9403120125F8940312012505
:101923000295031201250C95031201251695031246
:1019330001256095031201257D95031201259A95D2
:1019430003120125AA9503120125B495031201255B
:101953000F96031201251C9603120125E09603122C
:101963000125EA9603120125F49603120125FE963A
:10197300031201251B970312012538970312012532
:10198300FC970312012506980312012513980312ED
:1019930001252098031201254198031201254A9835
:1019A300031201257198031201259898031201254A
:1019B300BD9803120125C69803120125D598031279
:1019C3000125ED9803120125F698031201250599C7
:1019D300031201251499031201251D9903120125F0
:1019E3002C99031201253C99031201255B990312DB
:1019F300012568990312012575990312012585991B
:101A030003120125929903120125A29903120125BC
:101A1300B29903120125C29903120125F499031205
:101A23000125FE99031201250E9A031201251E9A20
:101A3300031201252B9A03120125509A0312012543
:101A43005D9A031201256D9A03120125779A0312F9
:101A53000125849A031201258E9A031201259E9A69
:101A630003120125A89A03120125B29A0312012534
:101A7300C29A03120125BBD404120125DC7F001294
:101A8300010002020000205104AA1609000102030A
:101A93000109024300020100801909040000010248
:101AA300020100052400100104240202052406009B
:101AB30001052401000107058203400040090401D8
:101AC30000020A0000000705840240000107050424
:101AD300024000019D1A0000C01A0000E066701069
:101AE30008A3E066700A08A3E066700408A3E06632
:101AF30022C3E7960809E7960809E7960809E796D7
:101B030022C3E09608A3E09608A3E09608A3E09614
:101B130022C008C3E096F50808A3E096420808A38C
:101B2300E096420808A3E09645087001D3D0082246
:101B3300BB0102E722C082C08389828A83BB000380
:101B4300E08002E493D083D08222BB000EC082C027
:101B5300838A838982F0D083D08222BB0101F7225A
:101B6300080808EAC0E0EBC0E086F0E7A4FA180929
:101B730086F0E7A42AFA180986F0E7A42AFA1809D6
:101B830086F0E7A42AFA1986F0E7A4FBE5F02AFA1F
:101B9300190886F0E7A42BFBE5F03AFA190886F05A
:101BA300E7A42BFBE5F03AFA18180986F0E7A4C579
:101BB300F02BFBE43AFA1908E7C5F0C6A426F6E5CC
:101BC300F03BFBE43AFA1886F0E7A4F6E5F00826C2
:101BD300F6E43B08F6E43A08F6D0E0FBD0E0FA225C
:101BE300E4CFC0E0E4CEC0E0E4CDC0E0E4CCC0E0AC
:101BF30075F020C3E633F608E633F608E633F60855
:101C0300E633F6181818EC33FCED33FDEE33FEEF34
:101C130033FFC3EC9709ED9709EE9709EF9719196D
:101C230019400FFFEC97FC09ED97FD09EE97FE199C
:101C33001906D5F0BEECF709EDF709EEF709EFF752
:101C4300191919D0E0FCD0E0FDD0E0FED0E0FF226E
:101C53006016080808C6C313C618C613C618C613E9
:101C6300C618C613C6D5E0EA227009080808226020
:101C730016181818C6C333C608C633C608C633C6F3
:101C830008C633C6D5E0EA22E627F60809E637F6A2
:101C93000809E637F60809E637F622E026F608A330
:101CA300E036F608A3E036F608A3E036F622E0268F
:101CB300F008A3E036F008A3E036F008A3E036F01E
:101CC30022C3E697F60809E697F60809E697F608A9
:101CD30009E697F622C3E096F008A3E096F008A37E
:101CE300E096F008A3E096F022E657F60809E657D7
:101CF300F60809E657F60809E657F622E056F6080D
:101D0300A3E056F608A3E056F608A3E056F622E051
:101D130056F008A3E056F008A3E056F008A3E056F7
:101D2300F022E046F608A3E046F608A3E046F608EC
:101D3300A3E046F622E066F608A3E066F608A3E011
:101D430066F608A3E066F622E0F608A3E0F608A329
:101D5300E0F608A3E0F622E6F008A3E6F008A3E61F
:101D6300F008A3E6F022E0FAA3E0FBA3E0FCA3E083
:101D7300FD22EAF0A3EBF0A3ECF0A3EDF022CAC03E
:101D8300E0E6F0A308DAFAD0E0FA22CAC0E0E0A362
:101D9300C582CCC582C583CDC583F0A3C582CCC51E
:101DA30082C583CDC583DAE6D0E0CA22C3E498F8BE
:101DB300E499F9121DF08026C3E49AFAE49BFBE947
:101DC30020E7E9121DF0E498F8E499F922C3E498B6
:101DD300F8E499F9121DF0E498F8E499F9C3E49A48
:101DE300FAE49BFB22EB20E7CFE920E7E0B9001000
:101DF300BB0008E88AF084F8AAF022E4FBC8FA22C0
:101E0300EB70227B10C833C8C933C9335007C39A58
:101E1300C3DBF280069A50012ADBEAC833F4C8C94F
:101E230033F4C9FA2275F008E4C833C8C933C93397
:101E3300C99AC99B5004C92AC93BD5F0ECFBC833E6
:101E4300F4C8E4C9FA22600D08C6A2E713C618C68F
:101E530013C6D5E0F322600C08C6C313C618C61315
:101E6300C6D5E0F422700422600D18C6C333C60839
:101E7300C633C6D5E0F41822251810AF08F518406C
:101E83000215198008F51840021519D2AF22C0D0E7
:101E9300251810AF08F518500205198008F51850D9
:101EA300020519D2AFD0D0222518F58210AF08F55C
:101EB30018400215198008F51840021519D2AF858C
:101EC3001983222518F582E43519F58322E4732555
:101ED30018C582C0E0E51934FFC583C0E0E518C327
:101EE300958224F810AF08858319858218800885A8
:101EF3008319858218D2AFCEF0A3E520F0A378082A
:101F0300E608F0A3DEFAEFF0A3E58124FAF8E60889
:101F1300F0A3E608F0A3E608F0A30808E608F0A398
:101F2300E608F0A315811581D0E0FED0E0F8158115
:101F330015811581E8C0E0EEC0E0222518C582C0F6
:101F4300E0E51934FFC583C0E0E518C3958224F9A1
:101F530010AF0885831985821880088583198582C7
:101F630018D2AFCEF0A3E520F0A37808E608F0A3DB
:101F7300DEFAEFF0A3E58124FBF8E608F0A3E60818
:101F8300F0A30808E608F0A3E608F0A3158115817D
:101F9300D0E0FED0E0F815811581E8C0E0EEC0E0A6
:101FA30022851983851882E0A3FEE0A3F520780833
:101FB300E0A3F608DFFAE0A3FFE0A3C0E0E0A3C0DC
:101FC300E0E0A3C0E0E0A3C0E0E0A3C0E010AF08FE
:101FD3008582188583198008858218858319D2AF75
:101FE300D083D082020122851983851882E0A3FE63
:101FF300E0A3F5207808E0A3F608DFFAE0A3FFE00A
:10200300A3C0E0E0A3C0E0E0A3C0E0E0A3C0E01011
:10201300AF088582188583198008858218858319FE
:10202300D2AFD083D08222C0D02518C582C0E0E5CC
:102033001934FFC583C0E0E518C3958224F310AFBC
:10204300088583198582188008858319858218D2AB
:10205300AFC8F0A3E9F0A3EAF0A3EBF0A37908E794
:1020630009F0A3D8FAECF0A3EDF0A3EEF0A3EFF0A0
:10207300A3D0E0F0A3D0E0F0A3D0E0F0A3E520F0FC
:10208300A3E5F0F0A322851983851882E0C0E0A3BD
:10209300E0F9A3E0FAA3E0FBA37808E0F608A3DFE6
:1020A300FAE0FCA3E0FDA3E0FEA3E0FFA3E0C0E0B1
:1020B300A3E0C0E0A3E0F5D0A3E0F520A3E0A3F5FF
:1020C300F010AF08858319858218800885831985E8
:1020D3008218D2AFD082D083D0E0F8D0E03274043B
:1020E300800A74038006740280027401C0E0F40461
:1020F300121EABD0E0121D81227404800874038089
:102103000474028000CCC0E0EDC0E0E518C39CCCB1
:10211300AD1950011D10AF068C188D1980068C184F
:102123008D19D2AF121D8ED0E0FDD0E0FC22D083FA
:10213300D082C5F0E493A3C5F0C395F0F5F0E49322
:10214300A3C395F04005E5F0048001E475F002A413
:102153002582F582E5F03583F583E493A3C0E0E4BB
:1021630093C0E022D083D082E9C0E0E493A3C38686
:10217300F0C5F095F0F908E493A386F0C5F095F067
:10218300700BE493A3C3994005E9048002A3E475AB
:10219300F002A42582F582E5F03583F583D0E0F9DA
:1021A300E493A3C0E0E493C0E022D083D082CCC008
:1021B300E0E493A360061221D71470FAE493A360BA
:1021C300061221F61470FAD0E0FCE493A3C0E0E415
:1021D30093C0E022C0E0E493A3D39C5010E493A304
:1021E300C39C400AD0E0D0E0D0E00221CAA3A3A35D
:1021F300D0E022C0E0E493A36C7009D0E0D0E0D03B
:10220300E00221CAA3A3D0E022D083D082ECC0E0B5
:10221300EDC0E0E493A3FCE493A3FDED4C600D1249
:102223002258EC24FFFCED34FFFD80EFE493A3FC84
:10223300E493A3FDED4C600D122297EC24FFFCED1B
:1022430034FFFD80EFD0E0FDD0E0FCE493A3C0E0D9
:10225300E493C0E022C0E0C3E4939608740193962C
:1022630018400FE4936670080874019366187000B1
:102273007019A3A3C3E49396087401939618A3A3B8
:10228300400DD0E0D0E0D0E0022248A3A3A3A3A353
:10229300A3D0E022C0E0C0F088F0E49366700808A1
:1022A30074019366187000A8F0A3A3700BD0F0D04C
:0F22B300E0D0E0D0E0022248A3A3D0F0D0E02298
:1022C400C2AF02000022C0E074F212202AA2AFE4DE
:1022D40033FED2AFE58AA2E250079002CAE0D2E010
:1022E400F0E58AA2E350079002CAE0D2E1F0758AD1
:1022F40000C2EB7A107B009002C6E0F9120300EEF4
:10230400A2E092AF7F01022089C0E0C0D0E8C0E023
:10231400E9C0E0E5A8D2AFC2C7A2E7A2E792AFD076
:10232400E0F9D0E0F8D0D0D0E032C0E074F112206F
:102334002AE59DA2E650FA906206E0FAA2E2503540
:10234400A826E890620BF0F508852709740478083C
:10235400121E59E508906207F0852608852709743E
:10236400097808121E59E508543E906209F09062FB
:1023740001E0D2E0F07823EA46F6906202E0F50844
:1023840075090074047808121E687823E50846F677
:1023940008E50946F6906204E0F508750900740939
:1023A4007808121E687824E50946F6EAA2E050038C
:1023B40075250174065A6003752500E58BA2E55066
:1023C40006758BDF75250012058E758B00C2E87FBC
:1023D4000202208974F5121F3EEAFEEBFFEE24345C
:1023E400F8EF3400F988088909EE2435122504F839
:1023F400EE2437122504F50AEC850AF0A4FCAAF0B1
:10240400850AF0EDA42AFDE82CF8E43DF97A257B51
:1024140000121DF0EA850882850983F074075AF8D2
:102424007401B800028004C333D8FCFBEA1313130D
:10243400541FF8EE28F8EF3400F9E8245DF582E93A
:102444001225075B6003EA801CEE2436122504F58E
:10245400F0EA84A8F0EE28F8EF3400F9E82438F51F
:1024640082E9122507F97F04021FEA74F5121F3E60
:10247400EAFEEBFFEE2434122504C0E0EE2435F529
:1024840082EF3400F583D0E0F08E828F83A3A3A380
:10249400A3A3E0FAA3E0FB8E828F83A3A3A3A3A349
:1024A400A3A3E0FCA3E0FDECC39AF50AED9BF50BB6
:1024B400EE247FF508EF3400F509850882F583E002
:1024C4006401702BEE2480F582EF3400F583122131
:1024D4000412250D7402121E91E960137C447D09D7
:1024E400EEFAEFFB121320850882850983E4F0AC31
:1024F4000AAD0BEEFAEFFB1223D8122D3B02246A2D
:10250400F582EF3400F583E022C082C0838518820F
:10251400851983E0F8A3E0F9C3EA9CEB9D5010C34E
:10252400EC98ED99401BC3EA98EB995014800EC3C4
:10253400EA98EB994007C3EC98ED9940047901803F
:10254400027900D083D08222EAC39CFAEB9DFB225D
:1025540074ED121F3E9005FEE064086005E0640718
:10256400702C9061C8E0602690062CE0F874FF6837
:10257400601CE875F005A4C8AAF02AF9742E28FE98
:10258400740639FF8E828F83A3A3A3E070057900BC
:102594000226FDEE2468F510EF3400F5119060601A
:1025A400E0851082851183F07508D7750909750ACD
:1025B40000750B00E5D914F50EE5D95403F50F6049
:1025C4001CEE2482F50CEF3400F50D7403650F60E6
:1025D40058E50E6013EE2467122504700B793DEE66
:1025E400FAEFFB12135080A69009D2E06401602632
:1025F400850C82850D83E060047804800278008570
:102604000E0AE50AC398FA95E0FB1210268A0A8B93
:102614000BEA450B7006121656022592850C82852C
:102624000D83E070048A088B0978008016E5D9C010
:10263400E08812E5082512F582E5093400F583D017
:10264400E0F008E8C3950E40E4850C82850D83E034
:10265400602874FC250EF50E78081220E9AC0EA94A
:102664000FEEFAEFFB1214107402121E91E9700AB5
:10267400AA0AAB0B1204E00225E17403650F60584B
:10268400850E0C750D00780C1220E9AC08AD09AA72
:102694000AAB0B1213D47402121E91851082851199
:1026A40083E0F87480687005750C7F8002880CE5FF
:1026B4000CF50878081220EDE50FF50878081220CB
:1026C400EDA90EAC0AAD0B90062CE0FA7B00120EBD
:1026D4008E7402121E91801C9005FEE06408AC0802
:1026E400AD097009EEFAEFFB1214408007EEFAEF21
:1026F400FB1214FA12166279017F0C021FEA74F3BA
:10270400121F3E74FC121E7BEAFEEBFF8908A2AF87
:10271400E433F509C2AFEE2463F50AEF3400F50B98
:102724008010AA0AAB0B1213861204E090094BE046
:1027340004F0850A82850B83E0F8A3E0F9E8496098
:102744002FE82402FAE93400FBEA2402F50CEB3406
:1027540000F50D780C1220E98A828B83E0FCA3E05B
:10276400F9EEFAEFFB12137A7402121E91E960B2C9
:1027740090094BE0605790094CE0F890094BE0C396
:1027840098500C74026508704490094DE0603E8EC8
:10279400828F83A3A3A3A3E08518828519831227BC
:1027A400E17402121EC6E81227E190094AE028F0FB
:1027B4007402121EC6AC82AD83851882851983AA61
:1027C40082AB837901120E9A90094BE4F0E509A2D9
:1027D400E092AF7404121E917F06021FEAF0A3E494
:1027E400F090094BE0F822008528878529C622C08D
:1027F400E074EF12202AA2AFE433FEC2AF759B004F
:10280400906182E0A2E05012E591A2E0500C759133
:10281400FE740165287003122554E0A2E55051E5C9
:1028240091A2E5504B7591DF9005FEE064076005C9
:10283400E064087023740165287035790190062CD2
:10284400E0FA75F005A4CAA8F028FB742E2AFA74DD
:10285400063BFB1227028018E0640D7013900620DB
:10286400E004F064287002E4F07A00E0F9121680C3
:10287400906182E0A2E6400302291AE591A2E640B3
:102884000302291A7591BF9005FEE06405700812D1
:10289400153C12154880031215427528001215C004
:1028A400E99005FFF079001215A212123C7A017B1F
:1028B400009005FDE0F9120300907803E064427093
:1028C400559009D6E014F0704DC2AF1228D20078AA
:1028D40031D0E0F618D0E0F6E59F5407700575098D
:1028E400FF800375097FC4C0E07830E6F50808E688
:1028F4005509F509740B7808121E59D0E02508F81B
:10290400906270E0A2E740F8E8C333906272F090FE
:102914006270E0D2E0F0906181E0A2E35009E5E961
:10292400A2E3500375E9F7A3E0A2E75009E591A2F9
:10293400E7500375917FEEA2E092AF7F04022089F5
:10294400C0E0C0D0C082C083906183E0A2E050099F
:10295400E5BFA2E0500375BFFEE0A2E15009E5BF68
:10296400A2E1500375BFFDE0A2E25009E5BFA2E277
:10297400500375BFFBE0A2E35009E5BFA2E3500397
:1029840075BFF7E0A2E45009E5BFA2E4500375BFA8
:10299400EFE0A2E55009E5BFA2E5500375BFDFE013
:1029A400A2E65009E5BFA2E6500375BFBFD083D0AD
:1029B40082D0D0D0E032C0E074F212202AE5A7A27F
:1029C400E4500FE5A1A2E4500953A7EF75A1EF125B
:1029D4002A0EE5A7A2E5500CE5A1A2E5500653A7EF
:1029E400DF75A1DFE5A7A2E15009E5A1A2E150034B
:1029F40075A1FDE5A7A2E2500CE5A1A2E2500653A1
:102A0400A7FB75A1FB7F0102208974F8121F3E7594
:102A140028019005FEE0640670077A007B00121519
:102A240024A2AFE433FED2AF900604E06401701830
:102A34007A207B009005FDE0F91203847A207B0064
:102A44009005FDE0F9120306906182E0D2E6F09071
:102A540009D3E0602185C6298016900603E064014D
:102A64007008E5C654F84405F5C653BEFC1227ECBD
:102A74007401652860E4EEA2E092AF7F01021FEAD0
:102A84008E2A8F2B85822F85832E85188285198324
:102A9400E0CEA3E0CF852F82852E83EBC9EAC8ED73
:102AA400CBECCA75F010C3E833C8E933C9EA33CABA
:102AB400EB33CBC3EA9EF52DEB9FF52CB35004AB5F
:102AC4002CAA2DEC33CCED33CDD5F0DAAE2AAF2BD6
:102AD4002274F1121F3E8A088B098C0A8D0B909088
:102AE400F67808121CFF740F121EC6780C121D4BC8
:102AF4009090F6780C121CFF7808790C121AF49056
:102B040090BA50107808790C121CC47808121B145F
:102B14004014800E780C7908121CC4780C121B1413
:102B240050047901800279007F08021FEA74ED12D3
:102B34001F3E8A088B098C0A8D0B9090F678081238
:102B44001CFF7413121EC6780C121D4B9090F6785D
:102B54000C121CFF780C7908121AF44011780879C9
:102B64000C121CC4AA08AB09AC0AAD0B8022751068
:102B7400007511007512007513017810790C121C80
:102B8400C478107908121C8BAA10AB11AC12AD13C7
:102B94007F0C021FEA9090F67808121D4B8A828BF4
:102BA400837808121D127F04021FEA74F5121F3E77
:102BB4008C828D837808121D4B8A828B837808124D
:102BC4001CD8122C03C3E098F0A3E099122BF54013
:102BD4001E9090DE7808121D4B8A828B837808122F
:102BE4001CB18E828F83E02420F0A3E0344EF08069
:102BF400A4F08E828F83C3E09420A3E0944E22EA53
:102C04002404F8EB3400F9E8FEE9FF8C828D83A3F9
:102C1400A3A3A3E0F8A3E0F98E828F832274F512B4
:102C24001F3EE9FE90095FE0FAA3E0FBEEC333F830
:102C3400E433F9745928F582749039F583E02AF560
:102C440008A3E03BF50978081220E990911E121DB3
:102C540069122A847402121E918A088B098C0A8DC7
:102C64000B74107808121C53AA08AB097F04021FC6
:102C7400EA74F1121F3E8A0C8B0D8C0E8D0F740FAB
:102C8400121EC6E0FAA3E0FB7411121EC6E0F5089A
:102C9400A3E0F50978081220E9EA2401F508EB34E9
:102CA40000F509E4F50AF50B780C7908121B63901A
:102CB400911A7808121D4B780C7908121B63AA0C20
:102CC400AB0DAC0EAD0F122A847402121E918B0947
:102CD400EA450960047A0180027A00EC2AFCED34AA
:102CE40000FD7413121EC6E0F8A3E0F9E8FEE9FF44
:102CF400ECF8EDF97A717B02121DF088088909E479
:102D0400F50AF50B8E828F837808121D5AECF8EDC4
:102D1400F97A717B02121DF08A088B097405780810
:102D2400121E688E828F83A3A3A3A3E508F0A3E5F4
:102D340009F07F08021FEAC082C083E9906000F0B6
:102D4400D083D08222020122FFFFFFFFFFFFFFFF9B
:102D540074F7121ED2E99002FCF01218AE9002FC35
:102D6400E0F91209F6120A449002FCE0F9120A4A48
:102D74009002FCE0F9120C0C9090DE121D69120A0C
:102D84002C9090DE121D69120C2A7A5A7B0F1202C3
:102D9400A07C5A7D0F7900120A267C6F7D0F7A027F
:102DA4007901120A267C657D037A10790212055E88
:102DB4007C757D037A10790312055E7CFD7D027AB1
:102DC40004790412055E7F01021FA474F4121ED25A
:102DD4008A088B09EB548060729002FCE0F91202BD
:102DE400E88A0A8B0BAE0AAF0BEE4F60568E828FC9
:102DF40083E0246F600924FE703C12046E803AA3C1
:102E0400E0640E70378E828F83A3A3A3A3A3122141
:102E140004EE24FDF582EF34FFF583E024F9FC8E03
:102E2400828F83A3A3A31241FCFB790E120EB87404
:102E340002121E918006120492E96007EEFAEFFB7B
:102E44001202D0AA08E50964808016EB544060148D
:102E54007CFD7D027A047904120558AA08E5096408
:102E640040FB80047A007B00024CAF74F4121ED243
:102E740074F9121E7BEAFEEBFF851882851983E440
:102E8400125573F8A3E0F988828983E0C0E07401E5
:102E9400121EC6D0E01255C9A882A983E0FCA3E0A3
:102EA400FBECFA7402121EC6EAF0A3EBF0E824026B
:102EB400F8E91254E3C0E07404121EC6D0E01255BF
:102EC400C908A9837405121EC6124B1F7402121E70
:102ED400C6E0F508A3E085080AF50B7407780A1222
:102EE4001E59780A1221670100047A2FFA2E0D2F39
:102EF400202F3D2F5A2F7401121EC6AA82AB83E5E0
:102F040008547FF912047A80687401121EC6AA82DA
:102F1400AB83E508547FF9120480805585188285B7
:102F24001983AC82AD837401121EC6AA82AB83E5F9
:102F340008547FF91204868038851882851983AC79
:102F440082AD837401121EC6AA82AB83E508547F46
:102F5400F912048C801B851882851983AC82AD8399
:102F64007401121EC6AA82AB83E508547FF91204C9
:102F740074E9F5088003750801EEFAEFFB1202D03C
:102F840090032D747FF0A37406F0E508A3F0740297
:102F9400121EC6E0900330F07402121EC6A3E04471
:102FA400FC900331F0851882851983E0900332F098
:102FB4007C2D7D03851882851983E02406FA79FF28
:102FC400120EBE79007407024CAC74EB121ED28A46
:102FD400828B83ECFEEDFFA3A3A3A3E0F50AA3E099
:102FE400F50B8E828F83E4125AA0858208858309AB
:102FF400E914600C1460551470030230F90230FFB8
:10300400850A82850B83E0F9850882850983E0FAC5
:10301400C394325010E924FE601014600D1470053E
:1030240074046A600A7A0202310174106A70F67CD0
:10303400337D0312055EE9FA6003023101850882DB
:10304400850983E08E828F83F0023101850A8285AF
:103054000B83E0F50C850882850983E0FAE50C24EE
:10306400FE600D14600A1470BC74046A70B78005A5
:1030740074106A70B0E50A2402FEE50B3400FFEE1A
:10308400FCEFFDA90C120558E9FA7404650C706D87
:103094008E828F83E0F50CE4F50DF50EF50F850AAD
:1030A40082850B83A3A3123115121C6C780C791042
:1030B400121C8B850A82850B83A3A3123108121C70
:1030C4006C780C7910121C8B850A82850B83A3A360
:1030D400A3A3A3E0F508E4F509F50AF50B74187841
:1030E40008121C6C780C7908121C8B9002FD780C69
:1030F400121D5A80081203A20230297A01EAF97FCC
:103104000D021FA4A3A3E0F510E4F51174107810C8
:1031140022A3E0F510E4F511F512F5137408781004
:103124002274F4121ED274F4121E7B89088A828BD4
:1031340083A3A3A3A3125526E0FEA3E0FDEE24007F
:10314400E43DFFE82402FCE93400FDE50824F660D0
:103154002624F870441231A41220E97402121EC607
:10316400AA82AB83120F907402121E91E9702C1282
:1031740031B8120F1880241231A41220E9740212FB
:103184001EC6AA82AB83120F7E7402121E91E970CE
:103194000A1231B8120F1280027901740C024CAC7D
:1031A4008A828B83A3A3A3E024FEF50AE434FFF50B
:1031B4000B780A229002FC123AD2EEFAEFFB227448
:1031C400EE121ED274E7121E7B890C8A0E8B0F8AB4
:1031D400828B83A3A3A3A31241E68C828D83124125
:1031E400FCF9EA2400F50AE439F50B75083A750987
:1031F40091EC2403FAED3400FBEC2402FEED3400E0
:10320400FFE50C122131011D773A4A328232C03275
:10321400F8324833803323345B342F356735A53592
:10322400DD351B3653369136C9365B37933709384B
:10323400773A773A3738D4380C399039773ABE39F7
:10324400773AFA394A3A851882851983858208853E
:10325400830978081220E9123ADF1206C6740212B2
:103264001E91E9F50D6003023A7A85188285198367
:10327400AC82AD83AA0AAB0B120666023A728518B9
:103284008285198385820885830978081220E98557
:103294000E82850F831242281220E90C0CEFFD7A6E
:1032A4000079001206D27404121E91E9F50D600330
:1032B400023A7A123AC7120A50023A728518828583
:1032C400198385820885830978081220E9123ADF78
:1032D4001206DE7402121E91E9F50D6003023A7AB9
:1032E400851882851983AC82AD83AA0AAB0B1206BA
:1032F4006C023A7285188285198385820885830950
:1033040078081220E9850E82850F83124228122044
:10331400E90C0CEFFD7A0079001206EA7404121E1F
:1033240091E9F50D6003023A7A7402121EC6122165
:10333400049002FCE0F97402121EC6123AAF120A9B
:103344007402351E85188285198385820885830950
:1033540078081220E9123ADF1206F67402121E915E
:10336400E9F50D6003023A7A851882851983AC82E7
:10337400AD83AA0AAB0B120672023A7285188285D3
:10338400198385821085831178101220E9123A99E5
:103394001220E90C0CEFFD7A007900120702740484
:1033A400121E91E9F50D6003023A7A7404121EC6E6
:1033B400123A871220E97407121EC685820E85838D
:1033C4000F780E1220E97C027D00AA08AB091207CF
:1033D400D47404121E91E9700302398A8518828517
:1033E4001983E064017002A3E0600302398A740265
:1033F400121EC6E0F47003A3E0F4600302398A12DB
:1034040042131220ED7408121EC6E0F97409121E4C
:10341400C6AC82AD83AA0AAB0B120A5C023A43859E
:10342400188285198385820885830978081220E922
:10343400123ADF12070E7402121E91E9F50D6003B1
:10344400023A7A851882851983AC82AD83AA0AABC5
:103454000B120678023A72851882851983858208D0
:1034640085830978081220E9850E82850F8312422C
:10347400281220E90C0CEFFD7A00790012071A7467
:1034840004121E91E9F50D6003023A7A7404121EC7
:10349400C6123A901220E97407121EC68582088566
:1034A400830978081220E97C027D007A3C7B911222
:1034B40007D47404121E91E9601A7402121EC61213
:1034C40021049002FCE0F97402121EC6123AAF12F3
:1034D4000A6280467404121EC6123A901220E974DD
:1034E40007121EC685820885830978081220E97CA4
:1034F400027D007A427B911207D47404121E91E972
:1035040060207402121EC61221049002FCE0F974B9
:1035140002121EC6123AAF120A687402121E9102F7
:103524003A72123AC7120A80023A728518828519D1
:103534008385820885830978081220E9123ADF120C
:1035440007267402121E91E9F50D6003023A7A858A
:103554001882851983AC82AD83AA0AAB0B12067E4E
:10356400023A7285188285198385820885830978D1
:10357400081220E9850E82850F831242281220E961
:103584000C0CEFFD7A0079001207327404121E91BC
:10359400E9F50D6003023A7A123AC7120A7A023A3E
:1035A40072851882851983858208858309780812B3
:1035B40020E9123ADF12073E7402121E91E9F50D5A
:1035C4006003023A7A851882851983AC82AD83AA96
:1035D4000AAB0B120684023A728518828519838518
:1035E400820885830978081220E9850E82850F8375
:1035F4001242281220E90C0CEFFD7A007900120720
:103604005C7404121E91E9F50D6003023A7A123AD1
:10361400C7120A86023A7285188285198385820840
:1036240085830978081220E9123ADF1207687402C8
:10363400121E91E9F50D6003023A7A851882851904
:1036440083AC82AD83AA0AAB0B12068A023A728556
:10365400188285198385820885830978081220E9F0
:10366400850E82850F831242281220E90C0CEFFD8F
:103674007A0079001207747404121E91E9F50D6042
:1036840003023A7A123AC7120A8C023A72851882F5
:1036940085198385820885830978081220E9123AFE
:1036A400DF1207807402121E91E9F50D6003023ADD
:1036B4007A851882851983AC82AD83AA0AAB0B1272
:1036C4000690023A72851882851983858210858353
:1036D4001178101220E9123A991220E90C0CEFFD2E
:1036E4007A00790012071A7404121E91E9F50D602C
:1036F40003023A7A7404121EC6123A871220E9743D
:1037040007121EC685820E85830F780E1220E97C6F
:10371400027D00AA08AB091207D47404121E91E9B1
:10372400700302398A851882851983E06401700266
:10373400A3E0600302398A7402121EC6E0F4700327
:10374400A3E0F4600302398A9002FCE0F9AA0AAB10
:103754000B120A56023A72851882851983858208EB
:1037640085830978081220E9123ADF12078C740263
:10377400121E91E9F50D6003023A7A8518828519C3
:1037840083AC82AD83AA0AAB0B120696023A728509
:10379400188285198385820885830978081220E9AF
:1037A400850E82850F83A3A3A3E024FC1242321268
:1037B40020E9EC2404FCED3400FD8A828B83E0FADA
:1037C4008E828F83E0F91207447404121E91E9F586
:1037D4000D6003023A7A7418121EC6E07009123A98
:1037E400C7120A9E023A727417121EC6124A72ACAB
:1037F40082AD83AA0AAB0B7006120A92023A7212C5
:103804000A98023A7285188285198385820885830D
:103814000978081220E9123ADF1207507402121EC6
:1038240091E9F50D6003023A7AAA0AAB0B12069CE1
:10383400023A7285188285198385820885830978FE
:10384400081220E9850E82850F831242281220E98E
:103854000C0CEFFD7A0079001207987404121E9183
:10386400E9F50D6003023A7A90038612553D700F14
:103874007A737B00120342900386EAF0A3EBF09084
:10388400038612553D6043900385E0C394054003CD
:1038940002398AE0F9740129F0750817750900786E
:1038A400081220E97402121EC6AC82AD83E975F0D9
:1038B40017A4F8A9F0900386E028FAA3E039FB12D4
:1038C40002A67402121E91023A7A750D13023A7A14
:1038D40085188285198385820885830978081220D2
:1038E400E9123ADF1207A47402121E91E9F50D6081
:1038F40003023A7A851882851983AC82AD83AA0AB9
:10390400AB0B1206A2023A7285188285198385824E
:103914000885830978081220E9850E82850F8312B1
:1039240042281220E90C0CEFFD7A0179001207B04D
:103934007404121E91E9F50D6003023A7A9003862D
:1039440012553D60411242131220ED7401121EC63D
:103954001242161220ED900385E0F9900386123A84
:10396400AF120AAA7402121E91E9F50D600A9003BF
:10397400861241FCFB120348900386E4F0A3F09006
:103984000385F0023A7A750D02023A7A8518828527
:10399400198385820885830978081220E9123ADFA1
:1039A4001207B67402121E91E9F50D6003023A7A09
:1039B400AA0AAB0B1206A8023A72851882851983EB
:1039C40085820885830978081220E9123AB7122003
:1039D400E90C0C0CEBFD7A0079001207C274041296
:1039E4001E91E9F50D6003023A7A8E828F83123AB2
:1039F400CA120B768078851882851983858208859A
:103A0400830978081220E9123AB71220E90C0C0C49
:103A1400EBFD7A0079001207C27404121E91E9F5D5
:103A24000D70531242131220ED8E828F83E0F974CD
:103A340001121EC6AC82AD83AA0AAB0B120B7074C2
:103A440001121E9180288518828519838582088534
:103A5400830978081220E9123ADF1207C8740212A7
:103A64001E91E9F50D700FAA0AAB0B120660E9F579
:103A74000D8003750D01A90D1204B67419121E915F
:103A840002580FE0F50E750F00780E22E0F5087568
:103A94000900780822850E82850F83A3A3A3E0245E
:103AA400FEF50EE434FFF50F780E221241E6AA0A61
:103AB400AB0B22850E82850F83A3A3A3E024FD1202
:103AC4004232229002FC123AD2AA0AAB0B22E0F94B
:103AD400851882851983AC82AD8322850E82850F79
:103AE40083A3A3A3E024FEFCE434FFFD1AEFFB222E
:103AF40074EA121ED274E0121E7B890E8A828B83B2
:103B0400A3A3A3A3E0F508A3E0F509850882F58340
:103B1400E0FCA3E0F9EC2400F50CE439F50DE5082C
:103B24002405F512E5093400F513E5082404F5101D
:103B3400E5093400F511E5082402FEE5093400FF27
:103B4400E5082403F50AE5093400F50BE50E122116
:103B5400AD0016029B3B04A13C06E63B085F3C0A11
:103B6400F33C0C773D0EB93D10DD3B127D3E16BF94
:103B74003E1B39411D7F4130053C32053C34353D07
:103B840036FB3D383C3E3A823F3C73403EB54040B4
:103B9400F74042BF3ED4417407121EC68582088591
:103BA400830978081220E91242241220E9EEFCEF7E
:103BB400FD7A0079001206D27404121E91E9F50A06
:103BC40060030241D712420B121EC6AC82AD83AA17
:103BD4000CAB0D120A500241CF124201120A5602D6
:103BE40041CF1242131220ED8A828B83A3A3A3E058
:103BF40024FEF9EEFCEFFDAA0CAB0D120A5C0241A7
:103C0400CA1241EC7404687001E9600302406D8ECD
:103C1400828F83E0FA850A82850B83E0F9EA240027
:103C2400FCE439FD851082851183E0FA85128285D2
:103C34001383E0F9EAF508E439F5097430650E7880
:103C440008700C1220E9124201120A62023CEB12C3
:103C540020E9124201120A68023CEB7407121EC6E4
:103C640085820885830978081220E91242241220EB
:103C7400E9EEFCEFFD7A00790012071A7404121EB3
:103C840091E9F50A60030241D712420B121EC6AC39
:103C940082AD83AA0CAB0D120A6E0241CF740712D7
:103CA4001EC685820885830978081220E9124224F9
:103CB4001220E9EEFCEFFD7A0079001206EA7404A2
:103CC400121E91E9F50A60030241D77409121EC657
:103CD4001221049002FCE0F97409121EC61241E696
:103CE400AA0CAB0D120A747402121E910241CF7415
:103CF40007121EC685820885830978081220E912F6
:103D040042241220E9EEFCEFFD7A0079001207321A
:103D14007404121E91E9F50A60030241D712420BA2
:103D2400121EC6AC82AD83AA0CAB0D120A7A0241F4
:103D3400CF7407121EC6858208858309780812206D
:103D4400E91242241220E9EEFCEFFD7A0079001218
:103D5400071A7404121E91E9F50A60030241D7128E
:103D6400420B121EC6AC82AD83AA0CAB0D120A80A4
:103D74000241CF7407121EC685820885830978081C
:103D84001220E91242241220E9EEFCEFFD7A0079B8
:103D94000012075C7404121E91E9F50A60030241E3
:103DA400D712420B121EC6AC82AD83AA0CAB0D1205
:103DB4000A860241CF7407121EC6858208858309CC
:103DC40078081220E91242241220E9EEFCEFFD7A71
:103DD4000079001207747404121E91E9F50A600355
:103DE4000241D712420B121EC6AC82AD83AA0CABA1
:103DF4000D120A8C0241CF7407121EC685820885F3
:103E0400830978081220E91242241220E9EEFCEF1B
:103E1400FD7A0179001207447404121E91E9F50A2F
:103E240060030241D77407121EC6AC82AD83AA0C8C
:103E3400AB0D120A920241CF7407121EC685820886
:103E440085830978081220E91242241220E9EEFC45
:103E5400EFFD7A0179011207447404121E91E9F509
:103E64000A60030241D77407121EC6AC82AD83AA4E
:103E74000CAB0D120A980241CF7407121EC685823C
:103E84000885830978081220E91242241220E9EEF9
:103E9400FCEFFD7A0079001207447404121E91E9C4
:103EA400F50A60030241D712420B121EC6AC82AD62
:103EB40083AA0CAB0D120A9E0241CF8A828B83A384
:103EC400A3A3E0FA24FEF8E434FFF9C3E89405E977
:103ED4009400A2D265D033500302406D74FA2AF5DF
:103EE400147404121EC6E514F0FA7B001203427423
:103EF40005121EC6EAF0A3EBF07405121EC6E0FA22
:103F04004B70030240618E828F83124A7A85188235
:103F1400851983124B20851082851183E0FC85125C
:103F240082851383E0F9ECF87402121EC6124B1F4B
:103F34007404121EC6E0F50A750B00780A1220E913
:103F4400E5082406FCE5093400FD1202A6740212F9
:103F54001E917416650E9002FC700812421C120A1F
:103F6400A4800612421C120AC2E9F50AE50A70038B
:103F74000241D77405121EC61241FC02405A124176
:103F8400ECC3E89401E99400A2D265D03350030253
:103F9400406D8E828F83E0F50F74FF250FC3940567
:103FA4004003024067E50F75F017A4FAABF0120363
:103FB400428A088B09AE08AF09EE4F7003024061D4
:103FC400850A08850B0975100080598508828509C2
:103FD40083E02404F512A3858208858309E510751E
:103FE400F017A4F8A9F0EE28F50AEF39F50B780AD2
:103FF4001220E985120A750B00780A1220E9AC0830
:10400400AD097A0079001207987404121E91E9F53B
:104014000A60030241D7E5082512F508E5093400D2
:10402400F5090510E510C3950F40A01242131220A4
:10403400ED75080178081220EDA90FEEFCEFFDAA3A
:104044000CAB0D120AAA7402121E91E9F50A700350
:104054000241D7EEFAEFFB1203480241D7750A1367
:104064000241D7750A020241D7750A040241D77486
:1040740007121EC685820885830978081220E91272
:1040840042241220E9EEFCEFFD7A00790012073297
:104094007404121E91E9F50A60030241D712420B1F
:1040A400121EC6AC82AD83AA0CAB0D120AB002413B
:1040B400CF7407121EC685820885830978081220EA
:1040C400E91242241220E9EEFCEFFD7A0079001295
:1040D400075C7404121E91E9F50A60030241D712C9
:1040E400420B121EC6AC82AD83AA0CAB0D120AB6EB
:1040F4000241CF7407121EC6858208858309780899
:104104001220E91242241220E9EEFCEFFD7A007934
:10411400001207447404121E91E9F50A6003024177
:10412400D712420B121EC6AC82AD83AA0CAB0D1281
:104134000ABC0241CF7407121EC685820885830912
:1041440078081220E98A828B83123ABD1220E9ACE6
:104154000AAD0B7A0079001207C27404121E91E9A9
:10416400F50A706F8E828F8312420E121EC6AC82C5
:10417400AD83AA0CAB0D120B7680507407121EC6C9
:1041840085820885830978081220E98A828B831244
:104194003ABD1220E9AC0AAD0B7A0079001207C2CD
:1041A4007404121E91E9F50A70291242131220EDCB
:1041B4008E828F83E0F97408121EC6AC82AD83AA86
:1041C4000CAB0D120B707401121E91E9F50A8003F9
:1041D400750A01A90A1204B67420121E917F0E02F8
:1041E4001FA4E0FCA3E0FD228A828B83A3A3A3E0A7
:1041F40024FEF8E434FFF922E0FAA3E0229002FC62
:10420400E0F9AA0CAB0D229002FCE0F974072290AD
:1042140002FCE0F508780822123AD2AA0CAB0D226F
:104224008A828B83A3A3A3E024FE12423222F508E0
:10423400E434FFF50978082274EA121ED274A51238
:104244001E7B8C0C8D0D8A828B83A3A3A3A3E0FE1B
:10425400A3E0FF750E00EE2402F50AEF3400F50B1F
:104264008E828F83A3858208858309E970030243C4
:104274000A24FD700302441214700302446614708D
:10428400030244A91470030245651470030245C572
:104294001470030245DC1470030244B41470030266
:1042A400454C1470030245E71470030248F514707A
:1042B400030249891470030248771470030247E427
:1042C4001470030247DB14700302450A24E17003EF
:1042D4000249061470030249321470030249771428
:1042E4007003024992147003024A08147003024ACC
:1042F4001A147003024A2D147003024A2214700324
:10430400024A2D024A328E828F83E0F5147C1079A2
:1043140000AA0AAB0B120324E9701B750C10750D6F
:1043240000780C1220E9AC0AAD0B7A657B0312020B
:10433400A67402121E91EE2412F50AEF3400F50B56
:104344007C107900AA0AFB120324E9701B750C1077
:10435400750D00780C1220E9AC0AAD0B7A757B035D
:104364001202A67402121E91EE24221254FBF50CC2
:10437400E4F50DF50FEE2423F582EF1254F4123117
:1043840016121C6C780C7910121C8BEE2424F58206
:10439400EF1254F412310A121C6C780C7910121CAE
:1043A4008BEE2425F582EF1254F4124A67121C6C2A
:1043B400780C7910121C8BE50C450D450E450F60E9
:1043C400089002FD780C121D5A750AFD750B0278CF
:1043D4000A1220E9750A75750B03780A1220E97C24
:1043E400657D03850882850983E0FBAA149002FC9D
:1043F400E0F91203A87404121E91E9F50E9002FC70
:10440400E0FC7D007A267B00120858024A35750AC2
:1044140000750B00740A121EC6AC82AD83758390BE
:104424007582AA7406121D8E750C06F50D780C1291
:1044340020E9740C121EC6AC82AD83AA08AB091223
:1044440002B87402121E91E96401600685080A85A7
:10445400090BAA0AAB0B8E828F83E0F91208700253
:104464004A1D9002FCE0C0E07410121EC6D0E01297
:104474004B0CE0C0E07411121EC6D0E0124B33C0E6
:10448400E07412121EC6D0E0124B03E0C0E07413B5
:10449400121EC6D0E0F07410121EC6AA82AB83129C
:1044A40007E0024A1D9002FCE0F91207E6024A1DE9
:1044B4009002FC124A72124B0CE0C0E07401121E0E
:1044C400C6D0E0124B33C0E07402121EC6D0E01214
:1044D4004B4AC0E07403121EC6D0E0124B3E1220B9
:1044E400E9EEFCEFFD7406121EC6AA82AB8312022B
:1044F400A67402121E91851882851983AA82AB8341
:1045040012082E024A1D124A8685188285198312C2
:104514004B25FAA3E0F9EAF87402121EC6124B57AF
:104524007404121EC6124B577406121EC6124B5741
:104534007408121EC6124B1F851882851983AA821D
:10454400AB8312083A024A1D850A82850B83E0FC7C
:10455400124A90E439FB9002FCE0F91208EE024A98
:104564001D8E828F83124A72124B33C0E074011283
:104574001EC6D0E0124B3E1220E9EEFCEFFD74049F
:10458400121EC6AA82AB831202A67402121E91EEF8
:104594002406124A58C0E07408121EC6D0E0124B1A
:1045A40003E0C0E07409121EC6D0E0F085188285CD
:1045B4001983AA82AB839002FCE0F9120972024AC1
:1045C4001DAC0AAD0BE0FB8E828F83E0FA9002FCF7
:1045D400E0F9120978024A1D9002FCE0F912097E02
:1045E400024A1D750C00750D007C187D007900745D
:1045F40014121EC6AA82AB831202BE124A86F87433
:1046040014121EC6E8124B25C0E07416121EC6D042
:10461400E0124B03AE82AF83E0C0E07417121EC6F3
:10462400D0E0124B030EAF837508107509007808AB
:104634001220E9EEFCEFFD741A121EC6AA82AB83A7
:104644001202A67402121E91124A55C0E074281276
:104654001EC6D0E0124B4AC0E0742B121EC6D0E036
:10466400124B12A30E0EAF83A2E0E433FCEAA2E1E4
:104674005004D2F08002C2F0A2F0E433F8EAA2E2DD
:104684005004D2F08002C2F0A2F0E433F508EAA2AA
:10469400E35004D2F08002C2F0A2F0E433F50A75CC
:1046A4000B00EAA2E45004D2F08002C2F0A2F0E4CB
:1046B40033F50E750F00EAA2E55004D2F08002C271
:1046C400F07429121EC6124AAF121E68124A3C1216
:1046D4001E68EA450A54EFFA7404780E121E68EA5A
:1046E400450E124A47121E68EA4508F87429121E3C
:1046F400C6124B1F8E828F83E0A30EAF837003021A
:1047040047C8E0C0E0740A121EC6D0E0124B4AC08B
:10471400E0740B121EC6D0E0124B4AC0E0740C12B7
:104724001EC6D0E0124B4AC0E0740D121EC6D0E083
:10473400124B12A2E0E433FCEAA2E15004D2F0806E
:1047440002C2F0A2F0E433F8EAA2E25004D2F0800C
:1047540002C2F0A2F0E433F508EAA2E35004D2F076
:104764008002C2F0A2F0E433F50AEAA2E45004D2D3
:10477400F08002C2F0A2F0E433F50CEAA2E55004A2
:10478400D2F08002C2F0740E121EC6124AAF121E7C
:1047940068124A3C121E68EA450A54EFFA74047817
:1047A4000C121E68EA450C124A47121E68EA4508B4
:1047B400F8740E121EC6124B1F740A121EC685828E
:1047C4000C85830DAC0CAD0D7414121EC6AA82ABFD
:1047D400831208FA024A1D124A96120900024A1D5F
:1047E400124ACD1220E9EEFCEFFD7442121EC6AA55
:1047F40082AB831202A67402121E91EE2410FEEF05
:104804003400FF8E828F831241FCF9EAF87450124F
:104814001EC6124B1FEE2402FEEF3400FF750C0877
:10482400780C1220E9EEFCEFFD7454121EC6AA8225
:10483400AB831202A67402121E918E828F83A3A3ED
:10484400A3A3A3A3A3A3E0C0E0745A121EC6D0E09E
:10485400F0750B01780B1220ED7441121EC6AC8268
:10486400AD83A90AAA08AB091209127401121E9198
:10487400024A1D124ACD1220E9EEFCEFFD742E12FD
:104884001EC6AA82AB831202A67402121E91124A99
:1048940055F50CE4F50F123115121C6C780C7910D7
:1048A400121C8B8E828F83123108121C6C780C7947
:1048B40010121C8B8E828F83A3A3A3124A67121C2F
:1048C4006C780C7910121C8B743C121EC6E50CF02B
:1048D400A3E50DF0A3E50EF0A3E50FF0742C121E72
:1048E400C6AC82AD83A90AAA08AB091208F4024A2D
:1048F4001D124A90FCE439FDAA0AAB0B1209060208
:104904004A1D8E828F83E0FA7B00850882850983A5
:10491400124A7A2400E439FDEA64267003024A2D1F
:10492400EA94274003024A2D120858024A1D78FFD0
:1049340079FF8E828F83E0FA7B00F46020EA64269C
:10494400601BEAC39427501512085E8A088B09A8D5
:1049540008A90974FF68700374FF697003750E0277
:10496400850C82850D837402F0E8900333F0E9A38B
:10497400024A2AEE2410FCEF3400FDEEFAEFFB129B
:1049840008D0024A1D124A961209F0024A1DE0F5A7
:104994000EF58285820C750D002404FAE43400FBC4
:1049A4001203428A088B09EA450960538E828F8379
:1049B400E08A828B83F0A3E50EF0EA2402EB340054
:1049C4000A0AFBE5082404F8E5093400F98A828B15
:1049D40083124B1F780C1220E9AC0AAD0B8A828B30
:1049E400831241FCFB1202A67402121E91AA08ABA8
:1049F40009120984E9F50E6038AA08AB098012751A
:104A04000E13802D8E828F83E0F912098AEA4B609F
:104A140018120348801B120990E9F50E8013750ED5
:104A2400028C828D83E4F08008750E028003750E7B
:104A340001A90E745B0241DEEA450854F7FA7403D7
:104A4400780A22541FFAA2F0E433F50874057808B2
:104A540022EE2410124A5C22FEEF3400FF8E828F75
:104A640083E022E0F510E4F5127418781022E08552
:104A7400188285198322E0FC850A82850B83E0F97C
:104A8400EC22124A8A22124AF5F9EA22124A8A24AC
:104A94000022850A82850B83E0F98E828F83E0FCF5
:104AA400850882850983E0FBECFA22E054FEFAA330
:104AB400E0FBEA4C54FDFAE8C333F8EA48F8EBF9B2
:104AC400E854FBFA7402780822124AF5F8E4C8F9AB
:104AD400EA2400F508E439F5090E0EAF0B8E828F37
:104AE40083E0F50AA3AE82AF83750C10880D780CB1
:104AF400228E828F83E0FA850882850983E0221260
:104B04004B0722124B0CA322F08E828F8322124B6E
:104B140007E0FA22F9851882851983E8F0A3E9F001
:104B240022F0A3E9F00E0EAF0B8E828F83E022F009
:104B3400AE08AF098E828F83E022124B4F750806B0
:104B4400750900780822124B4FE022124B0CA30E79
:104B5400AF8322E8F0A3E9F0EE2402124A5CFAA340
:104B6400E0F9EAF82274F4121ED274FD121E7BEAF4
:104B7400FEEBFF851882851983E4F0F508F5090436
:104B8400121EC6E4F07402121EC67401F07C2C7D61
:104B94000079007A017B031202BE8E828F83E024A7
:104BA4005E605324F2606D147003024C4A24E16089
:104BB40003024C6F7402121EC6858208858309782D
:104BC400081220E97403121EC685820885830978B9
:104BD400081220E97404121EC685820885830978A8
:104BE400081220E97C017D03EEFAEFFB12049874AD
:104BF40006121E9180718518828519838582088525
:104C0400830978081220E97C017D03EEFAEFFB1298
:104C1400049E804E7401121EC6858208858309781D
:104C2400081220E97402121EC68582088583097859
:104C3400081220E97C017D03EEFAEFFB1204A47450
:104C440004121E9180218518828519838582088526
:104C5400830978081220E97C017D03EEFAEFFB1248
:104C640004AA7402121E918A088B097402121EC6C9
:104C7400E06007EEFAEFFB1202D0851882851983F3
:104C8400E0600AAC08AD09FA79FF120EBEE50845EA
:104C94000960117401121EC6E064017007AA08AB12
:104CA4000912034879007403121E917F04021FA4A1
:104CB40074E8121ED274FE121E7BEAFEEBFF8C080F
:104CC4008D09741E121EC6125526751000750A0031
:104CD400750B007401F0EC2406F8ED3400F9EC24B3
:104CE40005FAED3400FBEC2404F516ED3400F51759
:104CF4008C828D83A3858214858315EE2403125937
:104D0400A4858212858313741C121EC61241E67494
:104D14001C121EC6ECF0A3ED125573605D147003F3
:104D2400024E10147003024F0D147003024F21142D
:104D34007003024F2C147003024F47147003025087
:104D44000114700302501B1470030250801470038A
:104D540002509C1470030251501470030251161433
:104D640070030253D11470030254091470030253E4
:104D74001114700302533202549285088285098308
:104D8400E41256751220E91254AB1202A6740212F0
:104D94001E911256D0C0E01254ECD0E0F0750A1007
:104DA400780A1220E97C657D03E508240CFAE509FC
:104DB4003400FB1202A67402121E91780A1220E932
:104DC4007C757D03E508241CFAE5093400FB120216
:104DD400A67402121E91851282851383E070217CD1
:104DE400657D037A1079021205587C757D037A106B
:104DF40079031205587CFD7D027A04790412055862
:104E040085080A85090B75102C0254928512828537
:104E14001383E06003024EE0850E82850F83E07009
:104E240003024EF533333354F82404F510FA7B00AF
:104E34001203428A0A8B0BEA450B7003024ED78A8F
:104E4400828B837401F0A374061256418512828505
:104E5400138312563A850E82850F8312563A8E8238
:104E64008F83125AE3124B187E008050125513128E
:104E7400563A125513A312563A751606751700784A
:104E8400161220E97402121EC6E02402FCA3E034C8
:104E940000FDAA0CAB0D1202A67402121E91E50CC1
:104EA4002406F50CE50D3400F50D0E8518828519E0
:104EB40083E02408F8A3E03400124B18850E8285A1
:104EC4000F83E0F8EEC39840A3741C121EC612555B
:104ED4002F80088512828513837413F085128285CE
:104EE4001383E0700C850E82850F83E06003025407
:104EF40092850882850983740112564AF0850882D6
:104F0400850983A3A3A3E4800B85088285098374A0
:104F14000212568D12566D75100402549285088241
:104F240085098374030253198508828509837404EF
:104F34001255998E828F83125A6D12566B75100317
:104F440002549285088285098374051255910412CE
:104F5400574E1220E91254BA1202A67402121E917C
:104F64008E828F83A3A3A3A3A3A3A3A3A3A3125A51
:104F74007A125609C0E01254ECD0E01255ACC0E0ED
:104F8400E508240C1254F0D0E0F0EE240CF582EF86
:104F94001254F4A3E0C0E0E508240D1254F0D0E06C
:104FA400F0EE240E1254E1C0E0E508240E1254F091
:104FB400D0E01255C9E0C0E0E508240F1254F0D047
:104FC400E0F0EE24101254E1C0E0E508241012547D
:104FD400F0D0E01255C9E0C0E0E50824111254F005
:104FE400D0E0F0EE24121254FBC0E0E508241212C3
:104FF40054F0D0E012566D75101302549285088255
:10500400850983740612559112571F85080A85096C
:105014000B75100602549285088285098374071261
:10502400559114F0851282851383125A6E125579A4
:10503400125A7A1255791255EE1255A2E08A828BD1
:10504400831255DD888289831256581255F78508D4
:1050540082850983A3A3A3A3A3A3A3A31255A21286
:105064005A6A125609850882850983A3A3A3A3A3B8
:10507400A3A3A312566B75100B0254928508828564
:105084000983740812574B1220E91254BA1202A66B
:105094007402121E910253C585088285098374091E
:1050A40012574B1220E91254BA1202A67402121EAD
:1050B400918E828F83A3A3A3A3A3A3A3A3A3A37863
:1050C4000C121D4B850882850983A3A3A3A3A3A364
:1050D400A3A3A3A3125685121D4BE50DF50CE508F9
:1050E400240B12567E121D4B7410780C121C53E5BF
:1050F40008240C12567E121D4B7418780C121C5383
:10510400E508240D1254F0E50C12566D75100E02CC
:105114005492850882850983740B1256751220E90E
:105124001254AB1202A67402121E911256D0C0E0A1
:105134001254ECD0E01255ACC0E0E508240C125433
:10514400F0D0E012566D75100D02549275106A7A03
:105154006A7B001203428A0A8B0BEA450B70030236
:1051640052FA741C121EC612552FF07C6A7D007907
:10517400001202BE850A82850B83740A1256F185D9
:105184000E82850F83A31255FD125630F9E849604B
:105194003C1255B11256B71220E98E828F831255F4
:1051A400651202A67402121E911254C612554612BA
:1051B40056301255D01220E98E828F831254FF127A
:1051C40002A67402121E91E50824088004E508244E
:1051D4001C1254DB125535604D1255B1A3A3A3A381
:1051E4001256B71220E98E828F83A3A3125563123D
:1051F40002A67402121E91E50824101254DB125503
:10520400441255FD125AE21255D01220E98E828FB3
:1052140083A3A3A3A31254FF1202A67402121E9125
:10522400E50824088004E508241CF508E509340091
:10523400F509EE240CF582EF1254F412553D604C3E
:1052440085088285098374011256C41220E9EE246C
:105254000CF582EF1254F412556B1202A67402126A
:105264001E91E5082410F508E5093400F509750CCC
:1052740006780C1220E91254F82410125508120270
:10528400A67402121E91E50824068004E50824177A
:105294001254CA1255357003025492850882850946
:1052A4008374011256C41220E98E828F83125563CF
:1052B4001202A67402121E911254C6125544780C9E
:1052C400121D4B125730121D4BE50D8508828509BE
:1052D40083125738121D4B7410780C121C5312573A
:1052E40030121D4B7418780C121C538508828509E2
:1052F40083E50C025491850882850983740A12554A
:1053040099850882850983A3A37413800B85088279
:10531400850983740E12564AF0850E82850F831216
:1053240059B11255E312566D751005025492850851
:1053340082850983740F125591740612571F8E8249
:105344008F83A3A3A3A3A3A3E0888289831255DD3B
:10535400850882850983A3A3A3A3A3A3A3125658F4
:10536400A31255F7F8A2E0E433F50AE85402600406
:105374007A0280027A00EA420AE8540460047A0459
:1053840080027A00EA420AE8540860047A0880023B
:105394007A00EA420AE8541060047A1080027A0023
:1053A400EA420AE854206004782080027800E84544
:1053B4000A850882850983A3A3A3A3A3A3A3A3A304
:1053C400F085080A85090B75100A02549285088233
:1053D400850983740C12568D1255E3F0750A06780C
:1053E4000A1220E912599B1202A67402121E91EEAF
:1053F400240B1254FBC0E01254ECD0E012566D752D
:10540400100C0254921254F8240DF510FA7B001279
:1054140003428A0A8B0BEA450B606A8A828B837487
:105424000D1256F18E828F83125A6A125712750C1E
:1054340006750D00780C1220E912599BAA08AB09D5
:105444001202A67402121E91E5082406F508E50965
:105454003400F509EE240B1254FB12561E12561E8C
:10546400F50C780C1220E9EE240DF582EF1254F4B9
:1054740012556B1202A67402121E91741C121EC6DF
:1054840012552F80088512828513837413F0741AC1
:10549400121EC6125519E510F0AA0AAB0B740212BB
:1054A4001E917F10021FA4AC0EAD0FE5082403FA71
:1054B400E5093400FB22EE2404FCEF3400FD1AABB2
:1054C4001722E50824101254CE22F508E509340009
:1054D400F5098E828F83221254CEA3A322F8EF34CF
:1054E40000F988828983E022E508240BF582E50926
:1054F40012555E22EE240C12562822A3A3A3A3A3C2
:10550400A3E02412FCA3E03400FDAA08AB09228521
:10551400188285198312551D22E0F8A3E0F58388CB
:105524008222125AE7F9888289832212551D740156
:1055340022A3A3A3A3A3A3A3A3125AE7F9E849228E
:10554400A3A3A3A3A3A312554E22A3A3E0F8A3E00D
:1055540012555822C82410F582E83400F58322A39A
:10556400A3A3A3A3A3A3A31241E6AA08AB092212EF
:105574004B07A3E022A3A312557F221255832212C4
:10558400558722F08E828F83A3A3A3A322F08514D0
:10559400828515832212559D221256A1F02212559E
:1055A400A622125583A3A322F0125625228508822F
:1055B40085098374011255BD221255C12212571652
:1055C4008E828F8322F088828983A322125558A366
:1055D40012570B750C08780C221255A6A3E022F082
:1055E4001255E822850E82850F83A3E085168285F5
:1055F40017832212565FA3E022125A721255BDA3DA
:10560400A3A3A3A32212560FA3E022A3A3A3A3A39D
:10561400A3A3A3A3125663A3A32212570C125625C5
:1056240022EE240CF582EF12555EE022125A721219
:105634005741125AE722E0850C82850D83F0A38539
:10564400820C85830D2212559D8512828513831247
:105654005A7EA32212565F125A98221256632212BD
:105664005587A3A3A3A322A3A3F085080A85090B46
:105674002212569A750A06780A22F582E50912550D
:105684005EE50C125618780C2212569A850E828505
:105694000F831259B5221256A11256AB22F085146B
:1056A40082851583740622F085128285138312592C
:1056B400BEF022A3125AE2C8241A12555B125A727F
:1056C400125712750C10750D00780C228E828F8380
:1056D400A3A3A3A3A3A3A3A3A3125A7212560F12A4
:1056E4005A98A3A3A3F0EE240B12562822F0A37415
:1056F4000612571285128285138312570B850E8268
:10570400850F8312570B22E085088285098312577F
:105714001622F0A385820885830922125757125551
:10572400E812557FA3E08A828B83F0228508828564
:105734000983E50C12574112554E780C221255C1BB
:10574400A3A3A3A3A3A3221256A1125757750A0613
:10575400780A221256AB850E82850F831259B9F04E
:105764002274EE121ED2EAFEEBFF8C088D0974122D
:10577400121EC6E0F510A3E0F511EE2405F50CEFBA
:105784003400F50D8E828F83A385820A85830B8E68
:10579400828F83A3A3122104850A82850B83E0F9F7
:1057A400850C82850D83E04480FC7D04AA08AB0946
:1057B4001204B07402121E91E9F50E850A82850B5B
:1057C40083E0703A890AE508250AFAE5093400FB02
:1057D400EE2406FCEF3400FD850C82850D83E01475
:1057E400600A24F6600B24F8600C8012120F6C809F
:1057F40008120F848003120F96EA250EF50E851009
:1058040082851183E50EF0AA08AB097F0A021FA462
:1058140074EE121ED2EAFEEBFF8C088D097412128C
:105824001EC6E0F510A3E0F5117414121EC612553D
:1058340026750C00E4F0EE24041259A485820A852E
:10584400830BE06003025951EC2406FAED3400FBAB
:1058540012599B850E82850F83E014605A14605D93
:1058640014606014606314606514606714606914E4
:10587400700302590414606514606714606914604D
:105884006B14606D14606F14607114607314607530
:1058940014607724FC700302593C147003025941CC
:1058A40014700302594624FD700302594B24FE7000
:1058B4000302594B0259511206C002594E1206CC2A
:1058C40002594E1206D802594E1206E4807C120682
:1058D400F080771206FC8072120708806D12072090
:1058E400806812072C8063120738805E1207568086
:1058F40059120762805412076E804F12077A804A49
:1059040012071480451207868040EE241C1254FBB3
:105914008A828B83F0EE241DF582EF1254F412591F
:10592400B1A3A3A3A3F0E5082408FAE5093400FB16
:1059340012074AEA24028013120792800D12079E6E
:1059440080081207AA80031207BCEAF50C8E828F26
:1059540083A3A3122104850A82850B83E0F9850EB3
:1059640082850F83E0FC7D05AA08AB091204B0749C
:1059740002121E91850882850983A3A3A3A3A3E52C
:105984000CF07406250C851082851183F0EEFAEF75
:10599400FB120BE202580BEE2405FCEF3400FD224F
:1059A400F50EEF3400F50F8E828F83A3221259B5C2
:1059B400221259B9221259BEA322125A82A3227466
:1059C400F2121ED28C088D09740E121EC6E0FEA3BC
:1059D400E0FF750A00EA2404F8EB3400F9E8FCE976
:1059E400FD8A828B83A3A882A983E070278C828D91
:1059F40083E07020EA2405125A5D125A6E125A8B03
:105A0400F0EA2407125A5D125A7AA3125A8BA3A3FE
:105A1400F0750A048A828B83A3A3122104888289E5
:105A240083E0F98C828D83E04480FC7D05AA08AB79
:105A3400091204B07402121E91850882850983A399
:105A4400A3A3A3A3E50AF07406250A8E828F83F02C
:105A5400AA08AB097F06021FA4F50AEB3400F50B74
:105A6400850A82F58322A3A3A3A3125A7222E08596
:105A7400088285098322125A7E22125A8222E085E4
:105A84000882850983A322A3A3A3A3A3A3125AA0D4
:105A9400125A98221259B9A3A3A3A322F0850A8209
:105AA400850B83A32274F7121ED2E9FEEC8A828B43
:105AB40083F0EDA3F0EE8A828B83A3A3F074091222
:105AC4001EC6125AE7F9E88A828B83A3A3A3F0E9DE
:105AD4008A828B83A3A3A3A3F07905022DCAA3A36F
:105AE400A3A3A3E0F8A3E022E924FC600D14600E54
:105AF40024F9601224FD600A800E7940800A7941FD
:105B04008006794280027943020122C082C08390D8
:105B140061907404F0A37448F0A3E4F0906180747D
:105B240040F09061BC7407F09061877469F09061F3
:105B3400B67416F079001212427902121248902DAE
