:020000040000FA
:0600000002011D02219324
:03002B0002290E99
:030033000228F0B0
:0300530002220680
:03006B000228C7A1
:10008300021FFFE5C754F84401F5C77901220000B8
:100093000080FB120086B90003020107E47921788E
:1000A30008B800028004F709D8FCE479297802B87B
:1000B30000028004F709D8FCE490028178A879074C
:1000C3008002F0A3D8FCD9FA781A90014D7A01BACC
:1000D30000028007E493A3F608DAF9900928AA82BC
:1000E300AB8390014E780279048015E493A3AC822C
:1000F300AD838A828B83F0A3AA82AB838C828D83A8
:10010300D8E9D9E77582BC7583AA740312012F75E8
:100113008291758300740012012F75D00075813FA1
:10012300751881751902759F00020096C09FF59F8F
:10013300E473D09F22D083D082C09FE493C0E07445
:100143000193C0E0740293F59F2201FF0000B40005
:100153000028002800283075A000A000A000A000FF
:1001630000080008E001F00010001000100010006B
:100173001000100050005000500010001000D00775
:100183000000000000000F000100050030750700AB
:100193001000010081FF00000000FF4D066B0653B5
:1001A30006FF02020208025000A0000000E803025A
:1001B300498201000033820245820100007F090267
:1001C3006982010000B30202458201000080090236
:1001D3006782010000C90202458201000081090211
:1001E3005382010000CB0202458201000082090212
:1001F3004F82080000CC02024582010000830902FD
:100203003F820100008409FF0100FF2002498201AF
:1002130000003682024582010000E80902418200A3
:10022300000000000273820300001903230C230C57
:10023300230C230C230C230C230C230C230C230C43
:10024300230C230C230CB70ECF0EB10EFFFF0202BB
:1002530002020202020202010D0000001001024923
:100263008201000039820245820100002B0A0271DB
:10027300820100005D070245820100002C0A02553D
:10028300820100006A810245820100002D0A0257A3
:100293008201000041810245820100002E0A0259B9
:1002A30082010000CD800245820100002F0A025B1B
:1002B300820100009780024582010000300A026536
:1002C30082010000A980024582010000310A026D0B
:1002D30082010000DF80024582010000320A026FC2
:1002E300820100004F81024582010000330A024B64
:1002F30082010000340A01E803053F100AFF0001F0
:100303003075030201060000000000000000000039
:1003130000000000000000000000000000000000DA
:100323000000FFFF0600800CE803140953696D7099
:100333006C65424C455065726970686572616C0505
:100343001250002003020A000201060302F0FF53C9
:10035300696D706C6520424C452050657269706808
:100363006572616C3113000037130A43686172616F
:100373006374657269737469632031000243686151
:100383007261637465726973746963203200084330
:1003930068617261637465726973746963203300A1
:1003A3001043686172616374657269737469632071
:1003B30034000243686172616374657269737469BE
:1003C300632035000249820100003C82024582011C
:1003D3000000470B027782030000190902438201E0
:1003E3000000480B024582010000590B026B820199
:1003F30000001A090243820100005A0B02458201E0
:1004030000006B0B0263820200001B09024382019E
:1004130000006C0B0245820100007D0B026182002B
:1004230000001C090273820300001D0902438201BC
:1004330000007E0B0245820100008F0B025F8204E5
:1004430000002309024382010000900B1201381AB5
:100453009B03120138319B03120138629B03120183
:10046300389D9B03120138C79B03120138F19B038C
:10047300120138089C031201381F9C0312013836FD
:100483009C031201385F9C03120138729C03120112
:1004930038889C031201389B9C03120138C29C03C9
:1004A300120138EAB202120138EEB3021201382601
:1004B300B40212013849B40212013854B4021201D1
:1004C3003877B40212013886B5021201385BB602DE
:1004D300120138D6B6021201385EB70212013899FA
:1004E300B702120138D0B7021201385EB802120106
:1004F3003837B90212013897B902120138A2B9028A
:1005030012013821BA0212013824BA021201382723
:10051300BA02120138B6BA02120138B9BA0212018C
:1005230038E9BA0212013813BB0212013801BC02C6
:10053300120138B3BC02120138C5E602120138EDCC
:10054300E6021201381BE70212013852E7021201D8
:1005530038B0E702120138FBE70212013846E8021D
:1005630012013886E802120138CCE802120138FA87
:10057300E802120138B7E902120138C1E902120197
:1005830038CEE90212013801EA02120138CDEA023B
:10059300120138D9EA02120138F1EA02120138FBDA
:1005A300EA0212013809A70312013817A70312013F
:1005B300382FA70312013847A703120138F2CA01E3
:1005C3001201389ECB0112013819CC011201383ABD
:1005D300CD0112013876CD011201381FCE0112016F
:1005E3003806CF011201386AD001120138C1D00197
:1005F30012013842D10112013832D2011201387F7F
:10060300D20112013805D30112013837D301120187
:10061300384BD5011201388DD501120138ABD50104
:100623001201382ED60112013802D701120138CA3D
:10063300D7011201383ED50212013811D602120138
:1006430038BAD6021201380DD702120138BDD702CB
:1006530012013849D80212013835D902120138641F
:10066300D90212013877DA02120138BFDA02120115
:100673003894DB02120138D0DB02120138ECDB02C2
:10068300120138D9A903120138CE8303120138E4C9
:1006930083031201380A84031201382685031201E9
:1006A300383085031201386586031201385D8703EC
:1006B3001201389EE102120138CEE2021201380122
:1006C300E3021201384BE30212013812E502120170
:1006D30038A1AB011201380BAC011201386AAD012C
:1006E3001201387AAD01120138A7AD01120138FEAB
:1006F300AD01120138A7AE01120138AEAF011201EC
:100703003878B001120138D8B1011201381BB20197
:10071300120138C0B2011201380DB301120138338E
:10072300B30112013841B50112013846B501120176
:10073300384BB70112013898B7011201380BB801D1
:100743001201383EB801120138E0B80112013889AC
:10075300B901120138C1B901120138C4B90112013A
:10076300380CBA011201384CBA01120138A3BA018C
:100773001201384591031201385D9103120138A526
:100783009103120138BB9103120138029203120143
:1007930038169303120138A39303120138EE93031F
:1007A3001201383C2900120138482900120138830C
:1007B3002900120138C82900120138882A001201C1
:1007C300380E2B00120138732B001201389F2B00B7
:1007D300120138D82B00120138162E00120138FAF4
:1007E3002F00120138E031001201382333001201C7
:1007F30038713500120138833600120138CE3700C4
:10080300120138DE3800120138FB38001201383685
:100813003900120138583900120138BB390012016E
:10082300387C3E00120138113F00120138623F004C
:10083300120138893F00120138DB3F00120138F9F9
:100843003F001201385340001201383C41001201AD
:1008530038B2420012013836430012013882EB02EB
:100863001201388CEB02120138CFEB02120138EA85
:10087300EB021201387AEC02120138A2EC021201E7
:1008830038DFEC0212013816ED021201383FED0297
:10089300120138B4ED02120138C9ED02120138DE3B
:1008A300ED021201380FEE0212013823EE0212019B
:1008B3003848EE0212013882EE02120138AEEE021F
:1008C300120138E6EE0212013865EF02120138AE6A
:1008D300EF02120138D8EF0212013803F0021201BD
:1008E3003818A303120138E99A02120138179B0240
:1008F300120138659C02120138459D0212013864C9
:100903009D02120138E19D02120138249E02120158
:10091300387A9F021201383BA002120138C2A202A8
:1009230012013863A30212013859A4021201385686
:10093300A502120138B0A6021201383BA702120128
:1009430038BDA10312013826A2031201387AA2038B
:10095300120138A1A203120138D2A203120138B83E
:10096300F40212013825F5021201386CF502120166
:100973003884F60212013880F70212013863F80254
:1009830012013811F60112013853F601120138250C
:10099300F701120138FEF701120138F8F8011201CC
:1009A30038DAF90112013843FA01120138F9FA0170
:1009B3001201386DFB01120138D9FB011201380213
:1009C300FC011201387CFC0112013815FD011201F2
:1009D300387AFD011201388FFD01120138D5FD016E
:1009E300120138EEFD0112013853FE01120138568F
:1009F300FE011201384C8E03120138748E0312016A
:100A030038B28E03120138708F03120138D78F0367
:100A1300120138F38F031201381B90031201384B74
:100A230090031201385A9003120138D79003120130
:100A330038FD900312013890BB011201386EBD01DD
:100A4300120138A0BF01120138DCBF0112013809BD
:100A5300C001120138F3C0011201383EC101120175
:100A63003889C1011201389BC101120138DBC10170
:100A730012013810C2011201385EC2011201388D11
:100A8300C201120138B0C201120138FDC2011201C4
:100A93003882C3011201389CC501120138DBC7013A
:100AA3001201381CC801120138BEC901120138FFF6
:100AB300C90112013872CA01120138C8CA011201F0
:100AC30038D48D02120138D28E021201386B95028E
:100AD3001201388C9702120138579902120138BF5C
:100AE3009A021201389D43001201384C440012014E
:100AF30038794400120138BF4400120138FF450021
:100B03001201389547001201380F48001201382AA4
:100B13004800120138A54800120138FF49001201AC
:100B2300385F4B00120138654C00120138C64D0086
:100B3300120138DF4D001201383D4E001201382BEF
:100B43004F001201385E4F00120138CE4F001201E0
:100B5300384850001201389250001201385C51009D
:100B63001201383152001201381053001201389B20
:100B730053001201380954001201387D5400120148
:100B830038A85400120138675500120138CC5600BA
:100B9300120138E95600120138085700120138F9DA
:100BA30057001201381E580012013848580012012C
:100BB30038C358001201381D5900120138865A00F3
:100BC300120138345B00120138755B0012013800E2
:100BD30080021201384E80021201385A800212013B
:100BE300383881021201386981021201389A810270
:100BF3001201381A8202120138528202120138A4F9
:100C03008202120138E18202120138FE84021201CB
:100C1300382487021201380F8902120138F98A0237
:100C2300120138F07F001201388E9701120138BE8D
:100C33009701120138979E011201381CA00112017D
:100C43003819A60112013801A7011201383EA70184
:100C530012013861A70112013892A7011201389BD2
:100C6300A701120138A5A70112013893A8011201A7
:100C73003889A9011201387F82011201387E860169
:100C8300120138848601120138BF8D01120138D850
:100C93009201120138008003120138968003120179
:100CA30038AC800312013822810312013896810384
:100CB300120138D48103120138488203120138C16A
:100CC3008203120138CA8203120138D68203120149
:100CD30038EB82031201382983031201383F83035F
:100CE3001201389E830312013825F90212013832AA
:100CF300F9021201384CF9021201388BF902120180
:100D030038C9F9021201382EFA0212013843FA02E5
:100D13001201384EFA021201385BFA0212013872DC
:100D2300FA0212013880FA021201388BFA02120118
:100D33003897FA02120138A6FA02120138B1FA0200
:100D4300120138D4FA021201387BFB021201388BEC
:100D5300FB02120138A5FB02120138C2FB02120189
:100D630038DEFB0212013803FC021201380EFC02CA
:100D730012013823FC0212013837FC0212013898A1
:100D8300FC021201389EFC02120138A4FC0212017B
:100D930038AAFC02120138C2FC02120138F5FC0227
:100DA300120138E8D9011201386CDA011201381B3B
:100DB300DB011201387ADC011201389BDE011201DA
:100DC3003887DF01120138BCDF01120138DEDF0191
:100DD3001201388DE00112013885E201120138AEAB
:100DE300E20112013840E30112013872E3011201FA
:100DF300387FE301120138D6E301120138FCE30125
:100E030012013869E6011201386CE701120138C496
:100E1300E7011201383B71001201384572001201DB
:100E2300382C7300120138367300120138587300DE
:100E3300120138647300120138FD74001201382C5A
:100E43007500120138487600120138A176001201AC
:100E530038077800120138E6780012013842790029
:100E6300120138AF7900120138EA790012013829EA
:100E73007A00120138E27C00120138FC7C00120176
:100E830038887D00120138967D00120138EF7D000D
:100E9300120138FD7D00120138707E00120138D432
:100EA3007E001201381E7F00120138BCA702120116
:100EB30038DEA70212013804AA0212013819AD0262
:100EC30012013831AE02120138E4AE02120138C603
:100ED300AF02120138D49C03120138F99C031201AA
:100EE300386B9D03120138C4CD02120138CDCD02F7
:100EF300120138D6CD02120138ADCE021201385E8E
:100F0300D00212013894D002120138CED00212015D
:100F13003804D1021201383ED10212013872D102D3
:100F23001201389ED102120138E7D1021201382191
:100F3300D2021201386AD202120138C2D20212015D
:100F430038F7D20212013852D3021201388CD3027D
:100F5300120138DDD30212013813D4021201384DC5
:100F6300D4021201387BD4021201389ED40212013A
:100F73003896A803120138C2A8031201381DA90329
:100F830012013827A90312013837A90312013824A3
:100F9300BD021201382EBD021201386CBD021201CE
:100FA30038B5BD02120138EFBD0212013849BE0245
:100FB3001201386ABE0212013842C1021201384BD3
:100FC300C10212013898C102120138C1C1021201D3
:100FD30038CBC10212013837C202120138C9C2022A
:100FE30012013813C30212013849C302120138D562
:100FF300C30212013816C4021201384DC402120191
:10100300385FC4021201387EC40212013887C40259
:1010130012013854C50212013835A50312013829CB
:1010230099031201385F990312013895990312014C
:1010330038E09A0312013841A90312013857A90372
:1010430012013861A903120138ABA9031201385DFB
:10105300AA031201382BF00212013840F0021201E8
:1010630038F0F00212013830F10212013849F1026E
:1010730012013884F102120138D1F102120138034E
:10108300F20212013845F20212013846F40212014B
:10109300387AFE01120138A3FE01120138D2FE0193
:1010A3001201386AFF01120138ACFF01120138182E
:1010B30094031201383D940312013867940312011B
:1010C3003814AB03120138A55B001201380A5E0025
:1010D300120138AB5F001201385F6000120138F271
:1010E30060001201387761001201389C610012011F
:1010F30038F26400120138786500120138AB6600DB
:10110300120138E566001201381A6700120138DA55
:101113006800120138376900120138806900120132
:1011230038EB69001201385C6A001201388E6A00DC
:10113300120138A66A00120138EF6B00120138FF62
:101143006B001201381A6D001201383C6D00120158
:1011530038726D00120138266F00120138B36F0028
:10116300120138F26F00120138167100120138E0D3
:10117300A703120138F1A703120138A77F00120158
:1011830038E67F00120138EDFF021201382CA60366
:101193001201383CA60312013851A6031201380389
:1011A300A70312013831A403120138B6A4031201B4
:1011B300381CA5031201381BA00312013844A003F5
:1011C300120138AAA003120138CAA0031201381B66
:1011D300A10312013876A103120138B0A103120151
:1011E30038B3A103120138FB8A03120138108B03B1
:1011F3001201383B8C03120138B78C031201382BD0
:101203008D03120138458D031201385C8D031201E1
:10121300386F8D03120138898D03120138A08D03B5
:10122300120138C68D03120138178E03120138DC00
:10123300AB03120138ECAB03120138EFAB0312011D
:1012430038F87F00120138E496031201387F9803BF
:10125300120138E0980312013826990312013879F4
:101263009E03120138CB9E03120138559F031201CE
:1012730038BC9F0312013872FD021201389CFD0233
:101283001201386AFE0212013845FF021201388248
:10129300C50212013849C60212013880C602120182
:1012A30038AAC6021201380AC70212013860C702FF
:1012B300120138C5C7021201385DC8021201386C29
:1012C300C90212013803CB0212013890CB0212017A
:1012D30038F7CB021201380ECC0212013828CD02A6
:1012E30012013866CD0212013812E8011201389357
:1012F300EB011201381BED0112013872ED011201ED
:101303003891ED011201380FEE01120138A5EF01FA
:101313001201388AF00112013898F4011201386E73
:10132300F50112013861DC02120138DCDE02120120
:101333003887DF02120138AAE0021201381DE102E8
:10134300120138678703120138AC8703120138C9C9
:1013530087031201387F8803120138D288031201F0
:1013630038A88903120138C28A031201386AAB0311
:10137300120138B7FF0212013896AB03120138BECF
:10138300AB03E066701008A3E066700A08A3E0668A
:10139300700408A3E06622C3E7960809E7960809E4
:1013A300E7960809E79622C3E09608A3E09608A308
:1013B300E09608A3E09622C008C3E096F50808A3C8
:1013C300E096420808A3E096420808A3E096450881
:1013D3007001D3D00822080808EAC0E0EBC0E08619
:1013E300F0E7A4FA180986F0E7A42AFA180986F0A8
:1013F300E7A42AFA180986F0E7A42AFA1986F0E77F
:10140300A4FBE5F02AFA190886F0E7A42BFBE5F024
:101413003AFA190886F0E7A42BFBE5F03AFA181814
:101423000986F0E7A4C5F02BFBE43AFA1908E7C5EF
:10143300F0C6A426F6E5F03BFBE43AFA1886F0E79B
:10144300A4F6E5F00826F6E43B08F6E43A08F6D0FD
:10145300E0FBD0E0FA22E4CFC0E0E4CEC0E0E4CD8C
:10146300C0E0E4CCC0E075F020C3E633F608E63311
:10147300F608E633F608E633F6181818EC33FCEDF5
:1014830033FDEE33FEEF33FFC3EC9709ED9709EE1F
:101493009709EF97191919400FFFEC97FC09ED977E
:1014A300FD09EE97FE191906D5F0BEECF709EDF725
:1014B30009EEF709EFF7191919D0E0FCD0E0FDD0D8
:1014C300E0FED0E0FF226016080808C6C313C61862
:1014D300C613C618C613C618C613C6D5E0EA2270CB
:1014E30009080808226016181818C6C333C608C6A8
:1014F30033C608C633C608C633C6D5E0EA22E62794
:10150300F60809E637F60809E637F60809E637F676
:1015130022E026F608A3E036F608A3E036F608A391
:10152300E036F622E026F008A3E036F008A3E03622
:10153300F008A3E036F022C3E697F60809E697F62B
:101543000809E697F60809E697F622C3E096F0083D
:10155300A3E096F008A3E096F008A3E096F022E655
:1015630057F60809E657F60809E657F60809E65755
:10157300F622E056F608A3E056F608A3E056F6086E
:10158300A3E056F622E056F008A3E056F008A3E0E5
:1015930056F008A3E056F022E0F608A3E0F608A30D
:1015A300E0F608A3E0F622E6F008A3E6F008A3E6D7
:1015B300F008A3E6F022E0FAA3E0FBA3E0FCA3E03B
:1015C300FD22EAF0A3EBF0A3ECF0A3EDF022CAC0F6
:1015D300E0E6F0A308DAFAD0E0FA22CAC0E0E0A31A
:1015E300C582CCC582C583CDC583F0A3C582CCC5D6
:1015F30082C583CDC583DAE6D0E0CA22C3E498F876
:10160300E499F91216408026C3E49AFAE49BFBE9B5
:1016130020E7E9121640E498F8E499F922C3E49824
:10162300F8E499F9121640E498F8E499F9C3E49AB6
:10163300FAE49BFB22EB20E7CFE920E7E0B90010B7
:10164300BB0008E88AF084F8AAF022E4FBC8FA2277
:10165300EB70227B10C833C8C933C9335007C39A10
:10166300C3DBF280069A50012ADBEAC833F4C8C907
:1016730033F4C9FA2275F008E4C833C8C933C9334F
:10168300C99AC99B5004C92AC93BD5F0ECFBC8339E
:10169300F4C8E4C9FA22600D08C6A2E713C618C647
:1016A30013C6D5E0F322600C08C6C313C618C613CD
:1016B300C6D5E0F422700422600D18C6C333C608F1
:1016C300C633C6D5E0F41822251810AF08F5184024
:1016D3000215198008F51840021519D2AF22C0D09F
:1016E300251810AF08F518500205198008F5185091
:1016F300020519D2AFD0D0222518F58210AF08F514
:1017030018400215198008F51840021519D2AF8543
:101713001983222518F582E43519F58322E473250C
:1017230018C582C0E0E51934FFC583C0E0E518C3DE
:10173300958224F810AF088583198582188008855F
:101743008319858218D2AFCEF0A3E520F0A37808E1
:10175300E608F0A3DEFAEFF0A3E58124FAF8E60841
:10176300F0A3E608F0A3E608F0A30808E608F0A350
:10177300E608F0A315811581D0E0FED0E0F81581CD
:1017830015811581E8C0E0EEC0E0222518C582C0AE
:10179300E0E51934FFC583C0E0E518C3958224F959
:1017A30010AF08858319858218800885831985827F
:1017B30018D2AFCEF0A3E520F0A37808E608F0A393
:1017C300DEFAEFF0A3E58124FBF8E608F0A3E608D0
:1017D300F0A30808E608F0A3E608F0A31581158135
:1017E300D0E0FED0E0F815811581E8C0E0EEC0E05E
:1017F30022851983851882E0A3FEE0A3F5207808EB
:10180300E0A3F608DFFAE0A3FFE0A3C0E0E0A3C093
:10181300E0E0A3C0E0E0A3C0E0E0A3C0E010AF08B5
:101823008582188583198008858218858319D2AF2C
:10183300D083D082020135851983851882E0A3FE07
:10184300E0A3F5207808E0A3F608DFFAE0A3FFE0C1
:10185300A3C0E0E0A3C0E0E0A3C0E0E0A3C0E010C9
:10186300AF088582188583198008858218858319B6
:10187300D2AFD083D08222C0D02518C582C0E0E584
:101883001934FFC583C0E0E518C3958224F310AF74
:10189300088583198582188008858319858218D263
:1018A300AFC8F0A3E9F0A3EAF0A3EBF0A37908E74C
:1018B30009F0A3D8FAECF0A3EDF0A3EEF0A3EFF058
:1018C300A3D0E0F0A3D0E0F0A3D0E0F0A3E520F0B4
:1018D300A3E5F0F0A322851983851882E0C0E0A375
:1018E300E0F9A3E0FAA3E0FBA37808E0F608A3DF9E
:1018F300FAE0FCA3E0FDA3E0FEA3E0FFA3E0C0E069
:10190300A3E0C0E0A3E0F5D0A3E0F520A3E0A3F5B6
:10191300F010AF088583198582188008858319859F
:101923008218D2AFD082D083D0E0F8D0E0327404F2
:101933008006740280027401C0E0F4041216FBD026
:10194300E01215D1227404800474028000CCC0E03C
:10195300EDC0E0E518C39CCCAD1950011D10AF06D6
:101963008C188D1980068C188D19D2AF1215DED004
:10197300E0FDD0E0FC22D083D082E9C0E0E493A371
:10198300C386F0C5F095F0F908E493A386F0C5F09B
:1019930095F0700BE493A3C3994005E9048002A377
:1019A300E475F002A42582F582E5F03583F583D052
:1019B300E0F9E493A3C0E0E493C0E022D083D082B3
:1019C300ECC0E0EDC0E0E493A3FCE493A3FDED4C95
:1019D300600D121A0BEC24FFFCED34FFFD80EFE4E5
:1019E30093A3FCE493A3FDED4C600D121A4AEC247F
:1019F300FFFCED34FFFD80EFD0E0FDD0E0FCE4938D
:101A0300A3C0E0E493C0E022C0E0C3E4939608746B
:101A130001939618400FE493667008087401936667
:101A23001870007019A3A3C3E493960874019396E6
:101A330018A3A3400DD0E0D0E0D0E00219FBA3A38C
:101A4300A3A3A3A3D0E022C0E0C0F088F0E4936690
:101A530070080874019366187000A8F0A3A3700BB4
:101A6300D0F0D0E0D0E0D0E00219FBA3A3D0F0D0B7
:021A7300E0226F
:101A780074F512178EEAFEEBFFEE2434F8EF34000B
:101A8800F988088909EE2435F582EF3400F583E0FA
:101A9800F8EE2437F582EF3400F583E0F50AEC859B
:101AA8000AF0A4FCAAF0850AF0EDA42AFDE82CF8B7
:101AB800E43DF97A257B00121640EA8508828509FB
:101AC80083F0F8740758F97401B900028004C3332D
:101AD800D9FCFAE8131313541FF8EE28F8EF340072
:101AE800F9E8245DF582E93400F583E05A6008EEF0
:101AF8002434F582EF802CEE2434F582EF3400F59F
:101B080083E0C0E0EE2436F582EF3400F583E0F59B
:101B1800F0D0E084A8F0EE28F8EF3400F9E8243893
:101B2800F582E93400F583E0F97F0402183A74F588
:101B380012178EEAFEEBFFEE2434F582EF3400F53F
:101B480083E0C0E0EE2435F582EF3400F583D0E081
:101B5800F08E828F83A3A3A3A3A3A3A3C082C08371
:101B68008E828F83A3A3A3A3A3E0F8A3E0F9D08375
:101B7800D082E0C398F508A3E099F509EE247FF533
:101B880082EF3400F583E064017069EE2480F58209
:101B9800EF3400F583E0F8A3E0F98E828F83A3A3E6
:101BA800A3A3A3A3A3E0FCA3E0FD8E828F83A3A33A
:101BB800A3A3A3E0FAA3E0FBC3EA9CEB9D5010C3E8
:101BC800EC98ED99402EC3EA98EB995027800EC304
:101BD800EA98EB994007C3EC98ED9940177CDC7DB7
:101BE80004EEFAEFFB120B81EE247FF582EF34004E
:101BF800F583E4F0EE2434F8EF3400F9E8FCE9FD6D
:101C0800EE2435F582EF3400F583E0F8EE2437F55D
:101C180082EF3400F583E0F50AE508850AF0A4F5BB
:101C280008AAF0850AF0E509A42AF509E82508F8C4
:101C3800E43509F97A257B00121640EA8C828D83F7
:101C4800F0F8740758F97401B900028004C333D955
:101C5800FCFAE8131313541FF8EE28F8EF3400F9D0
:101C6800E8245DF582E93400F583E05A6008EE2443
:101C780034F582EF802CEE2434F582EF3400F583BE
:101C8800E0C0E0EE2436F582EF3400F583E0F5F0AD
:101C9800D0E084A8F0EE28F8EF3400F9E82438F50D
:101CA80082E93400F583E0F91228B3021B31C082BF
:101CB800C083851882851983E0F8A3E0F9C3EA9CFC
:101CC800EB9D5010C3EC98ED99401BC3EA98EB9933
:101CD8005014800EC3EA98EB994007C3EC98ED992D
:101CE8004004790180027900D083D08222EAC39C23
:101CF800FAEB9DFB2274EF12178E9003A2E06408A2
:101D08006005E06407702A9061C8E060249003D001
:101D1800E0F4601DE0F875F003A4C8AAF02AF9748D
:101D2800D228FE740339FF8E828F83A3A3A3E070A9
:101D380003021E2D906060E0C0E0EE2468F582EF9B
:101D48003400F583D0E0F0750C45750D0575080075
:101D5800750900E5D914F50AE5D95403F50E60179D
:101D68007403650E605CE50A6010EE2467F582EF87
:101D78003400F583E07003021E12900540E0640110
:101D8800602AEE2482F582EF3400F583E06004785F
:101D98000480027800850A08E508C398FA95E0FBF4
:101DA800120A498A088B09EA45097005120D8580CF
:101DB80074EE2482F582EF3400F583E070048A0C17
:101DC8008B0DE50A6012850C82850D83F50BE5D92C
:101DD800F0A3150BE50B70F6EE2482F582EF3400C4
:101DE800F583E0604474FC250AF50A780C1219356D
:101DF800AC0AA90EEEFAEFFB120C1D74021216E1E2
:101E0800E97026AA08AB09121265793D8E828F8384
:101E1800A3A3A3A3E0FA7B0012091DEEFAEFFB12BD
:101E28000B99120C2F790080747403650E60568527
:101E38000A107511007810121935AC0CAD0DAA08EE
:101E4800AB09120BF974021216E1EE2468F582EF61
:101E58003400F583E064807004747F8001E0F50C41
:101E6800780C121939E50EF50C780C121939A90AF3
:101E7800AC08AD099003D0E0FA7B001208E17402C7
:101E88001216E180139003A2E06408600BAC0CAD5D
:101E98000DEEFAEFFB120C89120D9179017F0A02FF
:101EA800183A74F512178E74FC1216CBEAFEEBFF83
:101EB8008908A2AFE433F509C2AF806AEE2463F85B
:101EC800EF3400F97A007B00A2AFE433F50AC2AF21
:101ED80088828983E0FCA3E0FDEC4D603A88828922
:101EE80083E0FAA3E0FB8A828B83E0FCA3E0FD8811
:101EF800828983ECF0A3EDF08A828B83E4F0A3F06F
:101F080088828983E0FCA3E0FDEC4D700A88828911
:101F180083A3A3E4F0A3F0E50AA2E092AF1212654E
:101F28009004E3E004F0EE2463F582EF3400F583D7
:101F3800E0F8A3E0F9E849603DEE2463F582EF3468
:101F480000F583E02402FAA3E03400FBEA2402F55A
:101F58000AEB3400F50B780A1219358A828B83E074
:101F6800FCA3E0F9EEFAEFFB120BBD74021216E1C6
:101F7800E97003021EC49004E3E060639004E4E0A7
:101F8800F89004E3E0C398500C7402650870509010
:101F980004E5E0604A8E828F83A3A3A3A3E085189B
:101FA80082851983F0A3E4F09004E3E0F874021248
:101FB8001716E8F0A3E4F09004E3E0F89004E2E0F8
:101FC80028F07402121716AC82AD83851882851921
:101FD80083AA82AB8379011208ED9004E3E4F0E56B
:101FE80009A2E092AF74041216E1021B310000004E
:101FF8008521878522C622C0E0C0D0E8C0E0E9C0BC
:10200800E0EAC0E0EBC0E0ECC0E0EDC0E0EEC0E02C
:10201800C008C009C00AC00BC082C083C0F0A2AF0C
:10202800E433FEC2AF759B00906182E0A2E05012DB
:10203800E591A2E0500C7591FE74016521700312C0
:102048001CFDE0A2E55051E591A2E5504B7591DFEA
:102058009003A2E064076005E064087023740165DA
:1020680021703579019003D0E0FA75F003A4CAA86D
:10207800F028FB74D22AFA74033BFB121EAA8018BC
:10208800E0640D70139003C4E004F064287002E467
:10209800F07A00E0F9120D97906182E0A2E6400321
:1020A800022146E591A2E640030221467591BF90C0
:1020B80003A2E064057008120CBF120CCB80031257
:1020C8000CC5752100120D25E99003A3F0790012C3
:1020D8000D19120AF77A017B009003A1E0F9120F9B
:1020E800EF907803E064427055900544E014F07076
:1020F8004DC2AF1220FE00782AD0E0F618D0E0F6E4
:10210800E59F540770057509FF800375097FC4C0F2
:10211800E07829E6F50808E65509F509740B78080A
:102128001216A9D0E02508F8906270E0A2E740F8FE
:10213800E8C333906272F0906270E0D2E0F0906190
:1021480081E0A2E35009E5E9A2E3500375E9F7A3AA
:10215800E0A2E75009E591A2E7500375917FEEA24E
:10216800E092AFD0F0D083D082D00BD00AD009D083
:1021780008D0E0FED0E0FDD0E0FCD0E0FBD0E0FAF3
:10218800D0E0F9D0E0F8D0D0D0E032C0E0C0D0C084
:1021980082C083906183E0A2E05009E5BFA2E050CD
:1021A8000375BFFEE0A2E15009E5BFA2E150037547
:1021B800BFFDE0A2E25009E5BFA2E2500375BFFBF4
:1021C800E0A2E35009E5BFA2E3500375BFF7E0A220
:1021D800E45009E5BFA2E4500375BFEFE0A2E55063
:1021E80009E5BFA2E5500375BFDFE0A2E65009E5A7
:1021F800BFA2E6500375BFBFD083D0828088C0E0FD
:10220800C0D0E8C0E0E9C0E0EAC0E0EBC0E0ECC064
:10221800E0EDC0E0C0F0E5A7A2E6500FE5A1A2E618
:10222800500953A7BF75A1BF12226BE5A7A2E550BD
:102238000CE5A1A2E5500653A7DF75A1DFE5A7A22B
:10224800E15009E5A1A2E1500375A1FDE5A7A2E2CD
:10225800500CE5A1A2E2500653A7FB75A1FBD0F0F4
:1022680002217C74F812178E7521019003A2E06494
:10227800067015120C4D8A828B83A3A3A3A3A3A374
:10228800E0FAA3E0FB120CADA2AFE433FED2AF90AC
:1022980003A8E0640170187A207B009003A1E0F99C
:1022A8001210797A207B009003A1E0F9120FF590C3
:1022B8006182E0D2E6F0900541E0602185C6228087
:1022C800169003A7E064017008E5C654F84405F5C4
:1022D800C653BEFC121FF87401652160E4EEA2E04B
:1022E80092AF7F0102183A008E238F2485822885B9
:1022F8008327851882851983E0CEA3E0CF852882BD
:10230800852783EBC9EAC8EDCBECCA75F010C3E8A2
:1023180033C8E933C9EA33CAEB33CBC3EA9EF5269F
:10232800EB9FF525B35004AB25AA26EC33CCED334F
:10233800CDD5F0DAAE23AF242274E912178E74F8E3
:102348001216CB851882851983ECF0A3EDF08A0864
:102358008B099003A2E024F7C39405500675080181
:102368000224D8120C4D8A0A8B0BAE0AAF0BEE4F23
:1023780070030224D5AC08AD097402121716AA829C
:10238800AB83120CDD8E828F83A3A3750CFF750DB2
:10239800FF750EFF750F00780C1215757402121771
:1023A800167510FF7511FF7512FF7513007810125E
:1023B8001575780C791012139A502A780C79101226
:1023C800153A7508017509C8750A00750B00780873
:1023D800790C12139A5052850C08850D09850E0A3E
:1023E800850F0B80507514017515C8751600751783
:1023F8000085100885110985120A85130B7808795C
:102408000C12153A7814790812139A401C750800B2
:10241800750900750A00750B017808791012153ACC
:102428007808790C121501800C750801750900757A
:102438000A00750B00740978081214E2750C19F576
:102448000DF50EF50F7808790C1214598E828F83CA
:10245800A3A3A3A3A3A3E0F8A3E0F97AD07B031274
:102468001640880C890DE4F50EF50F7808790C12E2
:1024780015017406121716E0F8A3E0F97AD07B0369
:10248800121640E8FA8A0CE4F50D7808790C121354
:102498009A50077808790C12153A9003A2E064085C
:1024A800600AE064066005E06405702D750C0D781F
:1024B8000C790812139A4021750CF4750DFF750EEE
:1024C800FF750FFF7808790C121501800C7508004C
:1024D800750900750A00750B00851882851983E057
:1024E800F8A3E0F583888278081215AA74081216F2
:1024F800E17F1002183A74F712178E120CEF90054C
:102508003FE064017010906245E4F0A3F053F4F3E7
:1025180043FE0C5390F3120C9BE5C654804449F5D6
:10252800C6E59E547F644970F8906185740FF090F9
:10253800053DE0F47002A3E0604E90053EE06008BF
:1025480014601B14602E8040750801750900900501
:102558003DE078081216B8E508F45280802A75081C
:102568000175090090053DE078081216B8E508F4F1
:102578005290801475080175090090053DE07808AF
:102588001216B8E508F452A079007F0202183A74CE
:10259800F712178EE9FEEAFF74016E700C7A807BE1
:1025A800009003A1E0F9120FEF902934E493F4604E
:1025B80008E493F9120AEB800953C680E59E547F1C
:1025C80070FA120CA190053FE064017003120B032E
:1025D80090053DE0F47002A3E0604B90053EE0609A
:1025E8000814601A14602C803D7508017509009064
:1025F800053DE078081216B8E5084280802875087D
:102608000175090090053DE078081216B8E5084202
:1026180090801375080175090090053DE07808124F
:1026280016B8E50842A0120CEF120C4D8A088B0967
:10263800A808A909E8496015E5E170FCE82414F543
:1026480082E93400F583E0F46003E0F5E174016F9A
:10265800700A7A019003A1E0F912104302259274DE
:10266800ED12178E8A088B098C0A8D0B74131217BA
:1026780016780C12159B7808790C12139A751001AC
:102688007511C875120075130050127808790C126C
:10269800153A7810790812139A50168010780C7928
:1026A8000812153A7810790C12139A4004790180AF
:1026B8000279007F0C02183A74ED12178E8A088B83
:1026C800098C0A8D0B7413121716780C12159B7847
:1026D8000C790812139A40117808790C12153AAA45
:1026E80008AB09AC0AAD0B80227510007511007596
:1026F80012007513017810790C12153A78107908C0
:10270800121501AA10AB11AC12AD1380A68A828BE8
:10271800837508FF7509FF750AFF750B00780812A5
:1027280015887F0402183A74F512178E8C828D83EF
:10273800780812159B8A828B83780812154EEA2432
:1027480004F8EB3400F98C828D83A3A3A3A3E0FCE7
:10275800A3E0FD88828983C3E09CF0A3E09DF08814
:10276800828983C3E09420A3E0944E40268A828B1A
:10277800837508FF7509FF750AFF750BFF78081246
:1027880015278A828B83A3A3A3A3E02420F0A3E0C8
:10279800344EF002271574F512178EE9FE9004F7EF
:1027A800E0FAA3E0FBEEC333F8E433F9741228F53A
:1027B80082748139F583E02AF508A3E03BF50978AE
:1027C800081219357A407B427C0F7D001222F07482
:1027D800021216E18A088B098C0A8D0B741078088E
:1027E8001214C9AA08AB097F0402183A74F1121727
:1027F8008E8A0C8B0D8C0E8D0F740F121716E0FA43
:10280800A3E0FB7411121716E0F508A3E0F50978A8
:1028180008121935EA2401F508EB3400F509E4F546
:102828000AF50B780C79081213D975087175090225
:10283800780C79081213D9AA0CAB0DAC0EAD0F1297
:1028480022F074021216E18B09EA450960047A0144
:1028580080027A00EC2AFCED3400FD74131217167E
:10286800E0F8A3E0F9E8FEE9FFECF8EDF97A717B0E
:1028780002121640880889098E828F8378081215FB
:10288800AAECF8EDF97A717B021216408A088B09D6
:10289800740578081216B88E828F83A3A3A3A3E5C4
:1028A80008F0A3E509F07F0802183AC082C083E95E
:1028B800906000F0D083D08222C2AF02000022C014
:1028C800E074F212187AA2AFE433FED2AFE589A21F
:1028D800E150031211D5758900C2C5751A00EEA220
:1028E800E092AF7F010218D9C0E074F212187AA200
:1028F800AFE433FED2AFE58BA2E050031211D575D9
:102908008B00C2E880D5C0E0C0D0E8C0E0E9C0E0F4
:10291800E5A8D2AFC2C7751A00A2E7A2E792AFD066
:0A292800E0F9D0E0F8D0D0D0E032A2
:10293400FFFFFFFFFFFFFFFFC082C083E99009E7AD
:10294400F0022BCB74F7121722E99002E1F07C1904
:102954007D037AFF7BFF1208339002E274FFF0A339
:10296400F0A3E4F0A3F079051207BB9002E1E0F9CB
:102974001206DD7A517B081209FB7F010217F474F9
:10298400F41217228A088B09EB548060309002E11C
:10299400E0F9120FD78A0A8B0BAE0AAF0BEE4F6029
:1029A400138E828F83E064B070031207D3EEFAEFC4
:1029B400FB120FC5AA08E5096480FB80047A007B3A
:1029C40000022B9A74F212172274FC1216CBEAFE40
:1029D400EBFFEE4F60387402121716EEF0A3EF12FD
:1029E4002DFFECF0A3ED122DFFAA82AB831206D7C4
:1029F400E9F508707374121217161239B3E50A4513
:102A04000B60658E828F83122A76EE4F70057508EF
:102A14000280557A067B0012102B8A0C8B0DA80CB1
:102A2400A90DE8497005750813803D88828983E4FF
:102A3400122A80A3A3EEF0A3EF123E4CE50AF0A302
:102A4400E50BF09002E7122B089002E76017E0FC18
:102A5400A3E08003EAFCEBFD8C828D83122B0870CB
:102A6400F38C828D831238D8A90874041216E102FB
:102A7400404EA3A3A3A3E0FEA3E0FF22F0A3F088AB
:102A84008289832274F2121722890AE975F017A445
:102A9400FEAFF09002E6E4F09002E4122B08600A24
:102AA4001210319002E4E4F0A3F0EEFAEFFB1210FE
:102AB4002B8A088B09EA4509602FEEFCEFFD7900AB
:102AC400120FAD9002E4E508F0A3E509F07B008065
:102AD40008122AF2E4F0A3F00BEBC3950A40F2E5E6
:102AE4000A9002E6F079008002791302404EEB75F9
:102AF400F017A4F8A9F09002E4E028FAA3E0398AD8
:102B040082F5832212366EEA4B2274F41217227570
:102B14000800750900740C121716123E20FEE9FF16
:102B2400800CE5082401F508E5093400F509C3E53E
:102B3400089CE5099D503285080A85090B740378C1
:102B44000A1216B8EA250AF8EB350BF9888289834C
:102B5400A3A3A3A3A3A31239B3EE650A7003EF657D
:102B64000B70BFE8FAE9FB80047A007B00802774CD
:102B7400F41217227900EAA2E0501B7508D47509F3
:102B84008178081219357C047D007AE97B091207E3
:102B9400B574021216E17F040217F4C082C0839058
:102BA40002E7122BD2601C88828983A3A3E06A7097
:102BB40003A3E06B8882898370E8A3A3A3A31236DE
:102BC4006A80047A007B00D083D0820201351241EE
:102BD40021E8492274EE12172274FC1216CBEAFE85
:102BE400EBFF851882851983E4F0A3F0EE2402122A
:102BF40038BCEE2405122DEDEE2404F50EEF12314F
:102C0400D2E024FE603924FC604624FE605224FE97
:102C1400605E24FE7003022CF224FE7003022D6A0F
:102C240024FE7003022D7924FE7003022D8824FCF7
:102C34007003022D9724FE7003022DA6022DE3904B
:102C440003007417F0A3E4122E07120455022DE3B7
:102C5400851882851983AC82AD831207D9022DB3FE
:102C6400851882851983AC82AD831207DF022DB3E8
:102C7400850C08850D097402121716AC82AD838584
:102C8400088285098312366A1206FB8A0C8B0DAC06
:102C94000CAD0DEC4D6042E4F50CF50D780C1219F9
:102CA40035750C00750D03780C121935750C01750A
:102CB4000D03780C121935740812171612194C7971
:102CC4001612366412081B74081216E1E9F50C702A
:102CD4000B12366012046D800F750C018508828515
:102CE4000983122DF51238D8850C08022DB674020A
:102CF400121716AC82AD83850C82850D8312366A59
:102D04001206FB8A108B11AC10AD11EC4D6043859B
:102D14000C82850D83A3A312194C75100075110341
:102D240078101219357510017511037810121935C0
:102D3400740812171612194C791612366412081BED
:102D440074081216E1E9F509700B12366012047367
:102D5400800F750901850C82850D83122DF51238BB
:102D6400D8850908804C851882851983AC82AD8387
:102D74001207E5803A851882851983AC82AD8312E7
:102D840007EB802B851882851983AC82AD831207EB
:102D9400F1801C851882851983AC82AD831207F7F4
:102DA400800D851882851983AC82AD831207FDE9F5
:102DB400F508E50860298E828F83A3E06414601F00
:102DC400850E82850F83E0900300122DFF12411DB2
:102DD4009003011238D8E508A3122E0712044FEE0F
:102DE400FAEFFB1207790237C4F50CEF3400F50D46
:102DF4002212412185188285198322F08518828543
:102E0400198322F07C007D03850A82850B831236A8
:102E14006E2274EE12172274FC1216CB8A0A8B0BE4
:102E24008C0E8D0FEA2405F508EB3400F5097C15AA
:102E34007D0079007A007B03120FADE5082402F5CA
:102E44000CE509122DF08518828519838582108579
:102E540083117810121935850882850983A3A3A3E9
:102E6400A312331A121935E5082405F510E50934BF
:102E740000F5117810121935850C82850D831236F0
:102E8400741206F574061216E18A108B11AE10AF97
:102E940011E50A2402F50AE50B1238BFEE4F700360
:102EA400022FDC8017740212171612366A88828980
:102EB40083EAF0A3EBF0900300E004F0900300E059
:102EC400C394054003022FDCE4F510F511781012C9
:102ED40019357510E975110278101219357510EA53
:102EE4007511027810121935740612171612194C3E
:102EF4007910EEFCEFFD12366412081B74081216EA
:102F0400E1E9705E850882850983A3A3A3A3A3A333
:102F1400A3E0F89002E9E068704812331A121935F8
:102F24007CEA7D02E5082408FAE5093400FB120F67
:102F3400A774021216E1E960298E828F83A3A3A3EA
:102F4400A312366A900300E0F5107402781012168A
:102F5400B874012510F58274033511F583EAF0A3E2
:102F6400EBF0740212171685821085831178101203
:102F74001935740212171612194C850C82850D83AB
:102F840012413212070174041216E18A108B11AE39
:102F940010AF11900300E0F5107511007402781061
:102FA4001216B874002510F874033511F988828953
:102FB40083A3122B087003022EA0E82403F8E9343B
:102FC40000F9EE4F6003022EA98882898374FFF012
:102FD400A3F0900300E004F0900300E0600A1236CE
:102FE400601204617900800B850882850983123898
:102FF400CF790A0237C474EA12172274FE1216CB70
:103004008C128D13EA2405F50CEB12429C122A7AD9
:10301400750800750900EA2402F510EB3400F51177
:1030240085188285198385820A85830B780A12198B
:1030340035850C82850D83A3A3A3A31231DC121959
:1030440035E50C2405F50AE50D1238BF780A121986
:1030540035850C82850D831241301206F5740612F3
:1030640016E18A0A8B0BEA450B700302318DEA24C0
:1030740004F50EEB1231D2122A7A8A828B83A3A32F
:10308400A3E0F985108285118312366A1206E3E9FA
:10309400F509600302318DE4F514F515781412195D
:1030A400357514E975150278141219357514EA7515
:1030B40015027814121935740612171612194C7960
:1030C40013AC0AAD0B85108285118312366A12087F
:1030D4001B74081216E1E9F509600302318D9002B0
:1030E400E9E0F8E5087009E02402900301F0801794
:1030F400900301E0FCE82402FAE43400FBEA6C707B
:1031040001EB6003023191850882AA821233119483
:10311400141233095073850E82850F83E0C0E07466
:10312400022A1231C9D0E0F00508850E82850F838A
:10313400A3E0C0E085080A7402250A1231C9D0E070
:10314400F005089002E91231DC1219357CEA7D029F
:1031540085080A7402250AFA74033400FB120F95D9
:1031640074021216E19002E9E02508F50874FF6E76
:10317400700374FF6F6012EE24010EEF3400FFE55C
:1031840008C394145003023024E508601312355523
:1031940085108285118312366A12046779008014BF
:1031A400E509700375090A851282851383EEF0A37D
:1031B400EFF0A90974021216E17F0E0217F48508D4
:1031C4000C7402250CF58274033400F58322340058
:1031D400F50F850E82F58322123E5F2274EE1217DC
:1031E4002274FE1216CB8C0E8D0FEA2405F50CEB1F
:1031F400122DF0750B00900300E4F0F50AEA2402A6
:10320400F508EB3400F5098049900300E0FA9002D8
:10321400E9E0F81233119417123309400D900300BA
:10322400E0F87416C3989002E9F012331A121935B3
:103234007CEA7D0274012AFA74033400FB120F95B0
:1032440074021216E19002E9E0F8900300E028F01D
:10325400050AE50C2416F582E50D1231CDE0F8E5FA
:103264000AC39840030232F2900300E0C39416505C
:103274007DE50AC333F8E433F9E50C28FEE50D399E
:10328400FF851882851983AC82AD838E828F831269
:10329400366A1206FB8A108B11AC10AD11EC4D701E
:1032A40005750B018043E4F510F5117810121935FA
:1032B4007510E975110278101219357510EA751137
:1032C400027810121935740612171612194C791651
:1032D40085088285098312366A12081B740812163F
:1032E400E1E9F50B700302320D1238CB80107C003B
:1032F4007D0385088285098312366A120479A90B35
:1033040074020237C6E99400C365D03322EA28F870
:10331400E43400F9E822E0F5107511007810227405
:10332400EA12172274FC1216CB8A0C8B0D8C128DA8
:1033340013EA2405F50AEB1238BF75080075090075
:10334400E50A2402F510E50B3400F5117402121796
:103354001685820E85830F780E121935850A8285AB
:103364000B83A3A3A3A3123E0B121935E50A24056C
:10337400F50EE50B3400F50F780E12193585108221
:103384008511831238C51236641206F574061216B6
:10339400E18A0E8B0FAE0EAF0FE50C2402F50EE59D
:1033A4000D3400F50F80408882898374FFF005088E
:1033B4001231C274FFF005089002E9E0F50C750DB6
:1033C40000780C1219357CEA7D0285080C740225FC
:1033D4000CFA74033400FB120F9574021216E19078
:1033E40002E9E02508F508EE4F60718E828F83A311
:1033F400A3A3E0F9850E82850F8312366A1206E3D1
:10340400E9F509EE2404122DEDE97044E4F514F510
:103414001578141219357514E975150278141219F2
:10342400357514EA751502781412193574081217D3
:103434001612194C7911EEFCEFFD850E82850F836F
:1034440012366A12081B74081216E1E9F50960279E
:10345400850C82850D8312354B1238D8E50870032C
:10346400023531123555850E82850F8312366A1264
:10347400047F7900023546850882AA82EA9002E92F
:103484007009E02404900301F08022E0F890030125
:10349400E0F514E82404FCE43400FDEC6514700148
:1034A400ED70C0123311941212330950B6850C8298
:1034B400850D83E0C0E074022A1231C9D0E0F00522
:1034C40008850C82850D83A3E0C0E01231C2D0E0F0
:1034D40012356785820C85830D780C1219357404B6
:1034E40012171612194C851082851183124132125B
:1034F400070174041216E18A0C8B0DAE0CAF0D8516
:10350400080C7402250CF874033400F9EE4F7003B0
:103514000233AB851882851983E08882898312354A
:1035240067A3E0C0E01231C2D0E00233B9E509700C
:103534000375090A850A82850B8312354B1238D824
:10354400A90974040231BA124121851282851383B8
:1035540022900301E0F5F0E50884900300F07C007C
:103564007D0322F005088518828519832274EC12E4
:10357400172274FE1216CB8A088B098C0E8D0FEA63
:103584002405FEEB3400FF851882851983AC82ADD7
:10359400838E828F8312366A1206FB8A0A8B0BEEA5
:1035A4002418122DEDEA450B700302363B1237AD99
:1035B400503285188285198312366A12080F8A10D0
:1035C4008B11EA4511606B7912AC0AAD0B85088248
:1035D40085098312366A851082851183121720E9C2
:1035E400F50A7058E4F50AF50B780A1219358E823B
:1035F4008F83A3A3E0F50A780A121935EE24031287
:1036040038BC780A1219358E828F831236741208E8
:103614002174061216E1E9F50A7021850C82850DE4
:1036240083E0701F85088285098312366A12048537
:103634008011750A0E8009750A018004E50A600389
:103644001238CB850C82850D83E0600479008002FA
:10365400A90A74021216E17F0C0217F47C007D03A0
:10366400850A82850B8312366E22E0FAA3E0FB22E0
:10367400E0FCA3E0FD85088285098312366E22747E
:10368400EE12172274FE1216CB8A088B098C0C8D4D
:103694000DEA2405FEEB3400FF750E0085188285C3
:1036A4001983AC82AD838E828F8312366A1206FB35
:1036B4008A0A8B0BEA450B70030237991237AD5017
:1036C4003585188285198312366A12080F8A0E8B83
:1036D4000FEA450F605E7912AC0AAD0B850882854E
:1036E400098312366A850E82850F83121720E9F545
:1036F4000E600302379C8508828509831239B3AAB8
:103704000AFB1208038A108B11A810A911E849704A
:103714001E7AFF7BFF1208038A108B11A810A911CF
:10372400E849606C88828983E50AF0A3E50BF075AB
:103734000A008007750E0E805F050A9002E6E0FA23
:10374400E50AC39A504AE50A75F017A4FAABF08863
:10375400828983A3A3E02AFAA3E03BFB8A828B83BA
:103764001238C5EC4D70D2750A17750B00780A1221
:103774001935EEFCEFFD120F9574021216E1EEFC02
:10378400EFFD85088285098312366A12048B801442
:10379400750E098003750E01124119850C82850D81
:1037A400831238D8A90E023304E5082402F508E58B
:1037B400093400F5098A828B83A3A3A3E0A2E5223E
:1037C40074041216E17F0A0217F474EC1217228CA7
:1037D400108D11EA2405F50CEB122DF0750F00EA9B
:1037E4002402F50AEB1238BF850A82F58312366A81
:1037F4001208038A088B09EA450970030238B17577
:103804000E008071850C82850D83E06401704F8EFB
:10381400828F83A3A312194C8E828F83A3A3A3A3A5
:10382400E0F5127513007812121935EE2405F5121D
:10383400EF3400F513781212193512366412082188
:1038440074061216E1E9F50F6014850C82850D8368
:10385400E4F01241198510828511831238D87C173F
:103864007D007900EEFAEFFB120FAD8E828F83E4B8
:10387400F0A3F0050E9002E6E0F8E50EC398501EA2
:10388400E50E75F017A4F8A9F0850882850983A3CD
:10389400A31242A61238C5EC4D600302380885080D
:1038A4008285098374FFF0A3F0E50F700612366475
:1038B400120491A90F02365BF50AEF3400F50B22CE
:1038C400A3E0FCA3E0FD228E828F83124121850EAA
:1038D40082850F83E8F0A3E9F022C082C0839002BE
:1038E400E2E06A7003A3E06B70067AE27B02800474
:1038F4007A007B00022BCBC082C08378008C828D3F
:1039040083E06A7003A3E06B7010E875F003A4F819
:10391400A9F0EC28FAED39FB8015088C828D83A37D
:10392400A3A3E06A7003A3E06B60DF7A007B00026C
:103934002BCB74F61217221207CD8A828B83E58271
:10394400458370067A007B008007A3A3A3A31236E5
:103954006A023FCA74F2121722E9FE740E12171695
:103964001239B37410121716123E2B8C828D83E019
:1039740064027036A3124127F50CA3E0F9A80C7475
:10398400026870037429697021750C02750D007842
:103994000C1219357808121935780A121935EEF90E
:1039A40012084574061216E18002790102404EE0C5
:1039B400F50AA3E0F50B2274E812172274FB121621
:1039C400CBE9851882851983F08A168B17ECFEEDF6
:1039D400FF751000741D12171612411D741D121765
:1039E400161238D88E828F83A3A3A3E0A2E4502DAD
:1039F400741D12171612366A12080F8A828B83E519
:103A04008245837003023DFC790AEEFCEFFDAA16A1
:103A1400AB17121720E9F5106003023DFF741F1263
:103A24001716123E2B74211217161239B37423126F
:103A34001716E0F50EA3E0F50F8E828F83E0640283
:103A44006003023DAAA312411D850882850983A350
:103A5400858212858313EE2406122DED88828983D4
:103A6400E0FAA3E0F9EA2400F514E439F515781432
:103A74001219BF0100002801289F3A070002286498
:103A84003B0328D13A00299B3C0129C63C02296703
:103A94003C03299B3C0429453DAA3DE50E450F60A6
:103AA40003023DA5850C82850D83123E20FAE9FBB5
:103AB4008A828B83E0850A82850B83123E56121913
:103AC400358A828B83A3E0FCA3E0023D2FE50E45FB
:103AD4000F6003023DA5850A82850B837401F012F1
:103AE4003E33850882850983F07C007D008E828FB9
:103AF40083A3A3A3A3E02401FAA3E03400FB1206EA
:103B0400FBEA4B60418A828B83E02402F8850A82B7
:103B1400850B83E028F0EA2404F8EB3400F988826A
:103B24008983E0851282851383123E68123E561201
:103B340019358A828B831238C4E5082403FAE5090F
:103B44003400FB023D34850A82850B83E02404F0B3
:103B54007C047D007900AA12AB13120FAD023DFF65
:103B6400E50E450F6003023DA5123E33FEA3E0FFC0
:103B7400850A82850B837404F0EE850882850983A7
:103B8400F0EF851282851383F07403121716AC824A
:103B9400AD83EEFAEFFB1206FB8A0C8B0DEA450DA2
:103BA4007003023C488A828B83A3A3122A76740191
:103BB40012171685820E85830F780E121935740537
:103BC40012171612194C7CFF7DFF120701740412A0
:103BD40016E18B0FEA450F7033850C82850D831235
:103BE4003E0B121935850C82850D83A312194C7C6A
:103BF400027D007A477B8212052D74041216E1E9D6
:103C0400700A740112171674FFF0A3F08E828F836A
:103C1400E064027039750C02750D00780C121935C8
:103C24008E828F831238C4E5082404FAE50934002F
:103C3400FB120F9574021216E1850A82850B83E04C
:103C4400240280097401121716EEF0A3EFF0740138
:103C5400121716123E1CF07401121716A3123E140A
:103C6400023D9FE50E450F6003023DA5850C82854C
:103C74000D831238C5AA16AB17120839850A828536
:103C84000B837402F0EA850882850983F085128229
:103C9400851383EB023DA2E50E450F6003023DA5AB
:103CA400123E33F8A3E0F9850A82850B837402F08F
:103CB400E8850882850983F0E985128285138302E9
:103CC4003DA2850C82850D8312366A120F8FEAFCA1
:103CD4008C82A882C3950EE4950F405FE8650E7050
:103CE40002E50F70047C008022851882851983E028
:103CF400FAE50E2AFAE50F3400FBC3EA98EB9400C8
:103D04005003E08005E50ECCC39CFCEC850A82855B
:103D14000B83F08C0A750B00780A121935850C8216
:103D2400850D83E0250EFCA3E0350FFDAA08AB0941
:103D3400120F9574021216E1023DFF751007023D41
:103D4400FFE50E450F705A850C82850D8312411DC7
:103D5400850A82850B837407122A82123E14122A62
:103D640082A3E0851282851383F0E82402FAE93401
:103D740000FB8A828B83123E14123E43123E1CA324
:103D8400123E4C123E25F0E82405F8E93400F98887
:103D9400828983123E25A3123E68A3A3A3A3F080C5
:103DA4005A75100B8055741D12171612366A1207B5
:103DB400CD8A828B83E5824583603D12411D880C48
:103DC400890DE8450D6031780E121935780A1219FB
:103DD4003578081219357406121716E0F9EEFCEF5F
:103DE400FDAA16AB17850C82850D83121720740665
:103DF4001216E1E9F510800375100EA9107405126E
:103E040016E17F100217F4E0F50E750F00780E220C
:103E1400E085088285098322123E7222124121E83C
:103E240022123E72A3A322E0F508A3E0F50922853D
:103E34000C82850D83E0F8A3E0F5838882E022A359
:103E4400A3F08A828B83A322F088828983A3A3A30D
:103E5400A322F08A828B83123E5F22E0F50A750B5F
:103E640000780A22F088828983A3123E7222E085B8
:103E74000882850983A3A32274EE12172274FE120A
:103E840016CB8A0A8B0BECFAEDFB7414121716E0AE
:103E9400F510A3E0F5117416121716E0FE7418124B
:103EA4001716E0F50EA3E0F50F851882851983AC8B
:103EB40082AD831206FB8A0C8B0DEA450D604985A1
:103EC400188285198312366A1207CD8A828B83E59C
:103ED400824583602FA3A3123E2BE5084509602485
:103EE400780E1219357810121935EEF9AC0CAD0DA7
:103EF400AA0AAB0B85088285098312172074041261
:103F040016E18006790E8002790102330474F612F8
:103F1400172274FE1216CB740C121716123E20854B
:103F24001882851983F07401121716E9F0E4F50874
:103F3400F5097808121935750802780812193574CC
:103F44000412171685820885830978081219351218
:103F5400082174061216E174021216E1806874F7DF
:103F6400121722EAFEEBFF89087C197D0312083937
:103F7400EA5402600BA908EEFAEFFB1206EF800286
:103F8400790102297E74F612172274FF6A70037491
:103F9400FF6B70168C828D83123FCFE4F08C828D80
:103FA40083A3A3A3123FCFA380181208098A088B06
:103FB40009A808A909E849600D8882898374FF1259
:103FC4002A80A3A3E4F07F020217F474FFF0A3F0A5
:103FD4008C828D83A3A32274F61217221208098AF5
:103FE400828B83E58245836006A3A3E0FA80027A8C
:103FF400007B0080D174F21217228A088B09ECFE30
:10400400EDFF740E121716E0F50A1208098A0C8BDC
:104014000DA80CA90DE8497026EEFCEFFD7AFF7B94
:10402400FF1208098A0C8B0DA80CA90DE84970042D
:104034007911801688828983E508F0A3E509F08860
:10404400828983A3A3E50AF079007F060217F4743A
:10405400EE121722EAFEEBFF8C088D09890C74140A
:1040640012171612411D741612171612366A750DA0
:1040740000E84960030241117402650C60030241C7
:104084000C7412121716124127FCA3E0F9EC240059
:10409400F50EE439F50FEAF4F8EBF4F9EC58F8E529
:1040A4000F59F9E849705CE5082406F8ED3400F985
:1040B400880A890B8882F5831241321208398A10E2
:1040C4008B11E50E65107004E50F65116042780EE2
:1040D400121935850A82850B8312413212083F7406
:1040E400021216E1E9F50D7027780E1219358508CC
:1040F40082850983A3A31241301208577402121651
:10410400E1800D750D808008750D0D8003750D0B14
:10411400A90D0237C98E828F8312412122E0F8A3B0
:10412400E0F92212412188828983E022A3A3E0FCE2
:10413400A3E0FDEEFAEFFB2274E812172274E712F3
:1041440016CB851882851983EAF0A3EBF08C168DC3
:1041540017890E7508007509007431121716E0F5F9
:1041640012A3E0F5137433121716E0F514A3E0F567
:10417400157435121716E0F50FE50975F003A4F868
:10418400A9F08518828519831242A6E0F47003A36E
:10419400E0F47003024289EE2402F50CEF12429C13
:1041A400E0700302428985160A85170B780A1219F2
:1041B40035AC14AD15AA12AB131207C17402121652
:1041C400E18A0A8B0BEA450B7003024289E4F5107D
:1041D400F511781012193574061217168582108598
:1041E40083117810121935740912171685821085F7
:1041F40083117810121935851282851383A3A3A322
:10420400A312194C7914AC0AAD0B8E828F8312362B
:104214006A12081B74081216E1E97069850A82851E
:104224000B83A3A3A3A312411D7402121716123801
:10423400D8850C82850D83E0A2E05018A90E740283
:10424400121716AC82AD838E828F8312366A1207E0
:1042540013E94208850C82850D83E0A2E15026E52E
:104264000FF50A780A121939A90E7403121716AC3D
:1042740082AD838E828F8312366A12070D74011207
:1042840016E1E942080509E509C394025003024115
:104294007DA9087419023E033400F50D850C82F5DE
:1042A4008322E028FEA3E039FF8E828F832274F2FA
:1042B400121722EAFEEBFF890B7401650B600E7482
:1042C40002650B706A7901120A19E97062EEFAEF5D
:1042D400FB1208038A088B09EA45096047750A003E
:1042E400800B7C177D007900120FAD050A9002E661
:1042F400E0F8E50AC3985021E50A75F017A4F8A977
:10430400F0850882850983A3A3E028FAA3E039FB9A
:104314008A828B83122BD270C985088285098374A3
:10432400FFF0A3F07C197D03EEFAEFFB12083302D1
:10433400404E74F21217228A088B09ECFEEDFF74CA
:104344000E1217161239B39009E7E0F4603D7A09AA
:104354007B00120FBFEA4B60328A828B8374B1F008
:10436400A3E4123E45A3123E43A3E508F0A3E509E6
:10437400124392EEF0A3EF124392A3A3E50AF0A333
:10438400E50BF09009E7E0F9120FCB02404EF08AFA
:10439400828B83A3A3A3A3A322C082C08390619032
:1043A4007404F0A37448F0A37402F0906180744024
:1043B400F09061BC7403F09061877419F0906265A9
:1043C400741BF0906249E0C3941390619C400A749A
:1043D40009F090606674018007740DF0906066E4E3
:1043E400F090619A7433F0A37455F09061A0743A1C
:1043F400F090053FE064017009C2919003A67467D0
:1044040080059003A67461F090293AE49390618644
:10441400F0902934E493F46027E493540FF8906106
:1044240085E0686012E5C654804449F5C6E59E54AB
:104434007F644970F8E8F053C680E59E547F70FAB3
:104444007905120D790245F8C082C083E9540FF949
:10445400906185E0696012E5C654804449F5C6E57B
:104464009E547F644970F8E9F053C680E59E547FFA
:1044740070FA0245F8C082C083E5A8F853A87E907C
:104484006181E4F0A3F0A3F0C2BA539AFEC2897525
:104494009B00C2C275E90075910075BF0075A91132
:1044A40075B905906181F0A374C0F0A3E4F0D2BAA9
:1044B400439A0174805842A80245F8C082C08374AC
:1044C400F81216CB9003A4E0F8A3E0F9E8497003CE
:1044D4000245ED9003A4E0544060237908851882D6
:1044E400851983AA82AB83120BDB85188285198315
:1044F400AA82AB831208C99003A4E054BFF0E0542D
:10450400806010790C7A657B05120BDB9003A4E0C4
:10451400547FF0E0A2E0503190619A7433F0A374B8
:1045240055F09061A0743AF090053FE06401700981
:10453400C2919003A6746780059003A67461F0127B
:1045440008CF9003A4E054FEF0E05402603190617F
:104554009A743FF0A3745AF09061A0747FF09005B0
:104564003FE064017009D2919003A67471800590B4
:1045740003A6746AF01208CF9003A4E054FDF0E09F
:1045840054046013902938E493906186F01208D59E
:104594009003A4E054FBF0E054086013902939E43C
:1045A40093906186F01208D59003A4E054F7F0E0EC
:1045B4005410601390293AE493906186F01208D560
:1045C4009003A4E054EFF0E05420600A1208D59060
:1045D40003A4E054DFF0A3E05401600D120B0312B6
:1045E40008DB9003A5E054FEF074081216E10245BE
:1045F400F8F0A3F0D083D08202013574EC121722B4
:1046040074F41216CB851882851983AC82AD837538
:1046140083817582F374041215DE90293893F46053
:104624000302478B907808E0C39402500302476B5F
:104634007404121716AC82AD837583817582BA74C3
:10464400081215DE851882851983858212858313E5
:104654007404121716AC82AD83750EFF750FFF7FBD
:10466400FF7E00750C48750D78801574086E700314
:104674000246FF74096E70030246FF740A6E607B83
:10468400850C82850D83780812159B8C828D83A9F5
:1046940009E50AC9F88810741878081214C9E510D5
:1046A4004508F8C3E098A3E099850C82850D8378CA
:1046B4000812159B40188C828D8374187808121484
:1046C400C9E5104508F8E0C398F8A3E0801C741805
:1046D40078081214C9E5104508FAE9FB8C828D8329
:1046E400E0F8A3E0F9EAC398F8EB99F9C3E8950E6A
:1046F400E9950F5006880E890FEEFF0EE50C240491
:10470400F50CE50D3400F50DEEC394135003024689
:104714006F74FF650E700474FF650F60238F087457
:104724000278081216B874482508F5827478350999
:10473400F583780812159B851282851383E508F0AA
:10474400EC2402FCED3400FD851282851383A385DD
:104754008212858313740C121716E5826C7003E5BC
:10476400836D600302465D750801750900780812BF
:1047740019357402121716AC82AD837A4E7B0A1275
:1047840011AB74021216E1740C1216E17F0C0217BD
:10479400F4C082C0839061AE7468F0A3746AF09030
:1047A400624574FBF0A304F053F4FD43FE0290054C
:1047B4003F7401F09061A0E0643A90619A702374B0
:1047C40033F0A37455F09061A0743AF0740164015D
:1047D4007009C2919003A6746780289003A674613F
:1047E4008021743FF0A3745AF09061A0747FF07438
:1047F4000164017009D2919003A67471800590033D
:10480400A6746A0245F77F080217F4C082C0839039
:1048140004F1E06401700A9004F6E06004790C800D
:104824000279000245F8C082C08375E1F19004F476
:10483400E0605B14600914605F14605714705E12CA
:104844000B159004EAE0F97AEB7B04120CFB7AD6A0
:104854007BBE7C897D8E120D317A557B557C557DCE
:1048640000120D079004F5E0F9120D137901120DF1
:104874006D9004E8E0F8A3E0C82416F582E834005B
:10488400F583742DF0A3740BF079000245F8120B34
:104894001B80AF120B2180AA120B2780A5791280EE
:1048A400EA74F012172275D90D9004D5E0A2E0E461
:1048B400331313F89004EAE0C4333354C04844017A
:1048C400F5D978E8790488828983A3A3A3E0F5D98C
:1048D40088828983A3A882A983E864EE7003E964CB
:1048E4000470E378D5790488828983A3E0F5D988B4
:1048F400828983A3A882A983E864DB7003E9640442
:1049040070E575E1959004D5E0F97AD67B04120D33
:1049140001900A0974C1F0A3740AF0A37423F0A3EC
:10492400740CF0A37423F0A3740CF0A37423F0A309
:10493400740CF0A374C7F0A3740AF0A37423F0A357
:10494400740CF0A374DFF0A3740AF0900A177423B4
:10495400F0A3740CF0A37423F0A3740CF0A37423D9
:10496400F0A3740CF0A37423F0A3740CF0A37423C9
:10497400F0A3740CF0A37423F0A3740CF09004F46B
:10498400E064019004E87012E0F8A3E0F583888203
:10499400A3A37508007509088010E0F8A3E0F58367
:1049A4008882A3A3750804750900750A00750B00B5
:1049B4007808121514750CFF750DFF750EFF750F31
:1049C400007808790C1215629004E8E0F8A3E0C8B6
:1049D400240EF582E83400F58378081215AA9004B1
:1049E400E8E0F8A3E0C82414F582E83400F5837401
:1049F40013F09003A27402F002480A74F71217220B
:104A04009004FAE02407F5D99004EAE0C43333545F
:104A1400C0F5D978E8790488828983A3A3A3E0F553
:104A2400D988828983A3A882A983E864EE7003E904
:104A3400640470E39004FAE0601F78E87904FAE80B
:104A44002413F582E93400F583E0F5D9888289835B
:104A5400A3A882A9831AEA70E690051AE02407F550
:104A6400D99004EAE0C4333354C04404F5D978E857
:104A7400790488828983A3A3A3E0F5D988828983F2
:104A8400A3A882A983E864EE7003E9640470E39048
:104A9400051AE0601F78E87904FAE82433F582E91E
:104AA4003400F583E0F5D988828983A3A882A98399
:104AB4001AEA70E675E195900A0974CDF0A3740AB8
:104AC400F0A37423F0A3740CF0A37423F0A3740C68
:104AD400F0A37423F0A3740CF0A374C7F0A3740AB6
:104AE400F0A37423F0A3740CF0A374DFF0A3740A8E
:104AF400F0900A177423F0A3740CF0A37423F0A3AA
:104B0400740CF0A37423F0A3740CF0A37423F0A327
:104B1400740CF0A37423F0A3740CF0A37423F0A317
:104B2400740CF09004E8E0F8A3E0C8240EF582E8E1
:104B34003400F58374FFF0A3F0A3F0A3F09004E82D
:104B4400E0F8A3E0C82414F582E83400F583741275
:104B5400F09003A27401F0FF0217F474F712172205
:104B64009004FAE02407F5D99004EAE0C4333354FE
:104B7400C04402F5D978E8790488828983A3A3A381
:104B8400E0F5D988828983A3A882A983E864EE70BA
:104B940003E9640470E39004FAE0601F78E87904A0
:104BA400FAE82413F582E93400F583E0F5D9888224
:104BB4008983A3A882A9831AEA70E675E195900A0D
:104BC4000974D9F0A3740AF0A374D9F0A3740AF099
:104BD400A374D9F0A3740AF0A374D9F0A3740AF0EF
:104BE400A374D9F0A3740AF0A374D9F0A3740AF0DF
:104BF400A374DFF0A3740AF0900A177423F0A3746B
:104C04000CF0A37423F0A3740CF0A37423F0A37426
:104C14000CF0A37423F0A3740CF0A37423F0A37416
:104C24000CF0A37423F0A3740CF09004E8E0F8A350
:104C3400E0C8240EF582E83400F58374FFF0A3F095
:104C4400A3F0A3F09004E8E0F8A3E0C82414F582EC
:104C5400E83400F5837414F09003A27404F0024F56
:104C64002674F71217229004FAE02407F5D9900469
:104C7400EAE0C4333354C04406F5D978E8790488AB
:104C8400828983A3A3A3E0F5D988828983A3A88218
:104C9400A983E864EE7003E9640470E39004FAE025
:104CA400601F78E87904FAE82413F582E93400F502
:104CB40083E0F5D988828983A3A882A9831AEA703C
:104CC400E690051AE02407F5D99004EAE0C43333EA
:104CD40054C04404F5D978E8790488828983A3A36D
:104CE400A3E0F5D988828983A3A882A983E864EE26
:104CF4007003E9640470E390051AE0601F78E879B2
:104D040004FAE82433F582E93400F583E0F5D98820
:104D1400828983A3A882A9831AEA70E675E1959033
:104D24000A0974D3F0A3740AF0A37423F0A3740CD7
:104D3400F0A37423F0A3740CF0A37423F0A3740CF5
:104D4400F0A37423F0A3740CF0A37423F0A3740CE5
:104D5400F0A374DFF0A3740AF0900A177423F0A38D
:104D6400740CF0A37423F0A3740CF0A37423F0A3C5
:104D7400740CF0A37423F0A3740CF0A37423F0A3B5
:104D8400740CF0A37423F0A3740CF09004E8E0F81E
:104D9400A3E0C8240EF582E83400F58374FFF0A381
:104DA400F0A3F0A3F09004E8E0F8A3E0C82414F51D
:104DB40082E83400F5837415F09003A27403F002C2
:104DC4004F26C082C0839004E8E0F8A3E0C824061C
:104DD400F582E83400F583E40245F574F7121722EE
:104DE4009003D0E0F875F003A4C8AAF02AF974D2AD
:104DF40028F8740339F9E82405FAE93400FB8A82B7
:104E04008B83E0FCA3E0FD88828983A3A3A3A3A3EF
:104E1400A3A3A3A3ECF0A3EDF088828983A3A3A3A7
:104E2400A3A3A3A3E024FFF8A3E034FFF98A828BB1
:104E340083E8F0A3E9F0024F2674F7121722EAFE82
:104E4400EBFF9061D0E06003024F1A75D90E75D95B
:104E54000375D904EE248BF582EF3400F583E582E3
:104E64002408F8E5833400F9E0F5D9A3E8658270F5
:104E740003E9658370F2EE2483F582EF3400F58351
:104E8400E5822404F8E5833400F9E0F5D9A3E86564
:104E9400827003E9658370F275E1957908EE248BDD
:104EA400FAEF3400FB120BCF7904EE2483FAEF34CB
:104EB40000FB120BCF7C00EEF8EFF9ECFAC3E49A96
:104EC400FA95E0FBEE2AFAEF3BFBEA248AF582EB43
:104ED4003400F583E0C0E0E824AAF582E93400F563
:104EE40083D0E0F00C88828983A3A882A983ECC3D1
:104EF400940840C7EE246FF582EF3400F583E0F8A0
:104F0400A3E0F9EE2471F582EF3400F583E8F0A311
:104F1400E9F07901800279008008F0EEA2E092AF16
:104F240079007F010217F4C082C08375D90275D954
:104F34000375D90575E195EA246FF582EB3400F524
:104F440083E0F8A3E0F9EA2471F582EB3400F583F9
:104F5400E8F0A3E9F079010245F874F6121722EAA1
:104F6400FEEBFF9005457406F07508457509057854
:104F7400081219357C017903120C1774021216E118
:104F840075D90675D903758245758305E0F5D9A3EE
:104F9400E582644A7004E583640570F075E19590D8
:104FA40003A2E06408701EEE246FF582EF3400F56E
:104FB40083E0F8A3E0F9EE2471F582EF3400F58381
:104FC400E8F0A3E9F0790102522C74F6121722EAF0
:104FD400FEEBFF9061D0E070667801900545740B9C
:104FE400F09003A2E0640770197508457509057807
:104FF400081219357C017903120C1774021216E198
:105004007805740128F5D975D9037582457583052A
:10501400E8FAE0F5D9A31AEA70F875E195EE246F81
:10502400F582EF3400F583E0F8A3E0F9EE2471F59E
:1050340082EF3400F583E8F0A3E9F0790180027986
:105044000002522C74F7121722EAFEEBFF75D90303
:1050540075D90375D90DEE24DDF582EF3400F5839F
:10506400E0F5D975E1957904120D37EE246FF582D8
:10507400EF3400F583E0F8A3E0F9EE2471F582EF54
:105084003400F583E8F0A3E9F07901024F2674F6C1
:10509400121722EAFEEBFF9061D0E0F87480C39807
:1050A400FAEE2482F582EF3400F583E0600478049C
:1050B40080027800E8240BF8EAC3985003025157A1
:1050C4007D09900545EDF0EE24E2F8EF3400F97A1D
:1050D400467B057C0888828983E08A828B83F088FA
:1050E400828983A3A882A9838A828B83A3AA82ABA1
:1050F400831CEC70E0EE2482F582EF3400F583E04B
:10510400601D75084575090578081219357C0979FB
:1051140003EEFAEFFB120C1774021216E17D0D7404
:10512400012DF5D975D9037582457583058D08E080
:10513400F5D9A31508E50870F675E1957904120D03
:1051440037EE241DF582EF3400F583E4F0A3F07903
:10515400018002790002522C74F6121722EAFEEB47
:10516400FF9061D0E0F87480C398FAEE2482F5824F
:10517400EF3400F583E06004780480027800E824CA
:1051840008F8EAC398500302522A78069005457439
:105194000CF09003BFE0900546F09003C0E090054A
:1051A40047F09003C1E0900548F09003C2E09005F9
:1051B40049F09003C3E090054AF0EE2482F582EFB3
:1051C4003400F583E0601B750845750905780812FD
:1051D40019357C067903EEFA120C1774021216E1E3
:1051E400780A740128F5D975D90375824575830544
:1051F4008808E0F5D9A31508E50870F675E19579F6
:1052040004120D37EE246FF582EF3400F583E0F8D5
:10521400A3E0F9EE2471F582EF3400F583E8F0A3FE
:10522400E9F07901800279007F020217F474F61222
:105234001722EAFEEBFF9061D0E0F87480C398FA7D
:10524400EE2482F582EF3400F583E0600478048074
:10525400027800E82404F8EAC398500302530B7858
:1052640002900545E8F0EE24F4F582EF3400F5836E
:10527400E0900546F0EE2482F582EF3400F583E0F9
:10528400601B75084575090578081219357C027983
:1052940003EEFA120C1774021216E1780674012850
:1052A400F5D975D9037582457583058808E0F5D964
:1052B400A31508E50870F675E195EE2473F582EF01
:1052C4003400F583E4F0EE247FF582EF3400F583B7
:1052D400E4F0EE241DF582EF3400F583E4F0A3F04E
:1052E4007904120D37EE240DF582EF3400F583E0D6
:1052F400F8A3E0F9EE2471F582EF3400F583E8F0C9
:10530400A3E9F079018002790002522C74F6121795
:10531400229061D0E0F87480C398FCEA2482F5827C
:10532400EB3400F583E06004780480027800E8241C
:1053340004F8ECC398405B79029005457407F0EAE1
:1053440024F5F582EB3400F583E0900546F0EA2479
:1053540082F582EB3400F583E06018750845750921
:105364000578081219357C0209120C1774021216FA
:10537400E17906740129F5D975D9037582457583D8
:1053840005E9F8E0F5D9A318E870F875E195790115
:105394008002790002522C74F5121722E9FCA2AFA4
:1053A400E433F50AC2AF7D0080010DEA246EF58274
:1053B400EB3400F583E0F8EDC398501A8D08EA2524
:1053C40008F8EB3400F9E8246AF582E93400F5833F
:1053D400E06C70D68024EA246EF8EB3400F9E0FE29
:1053E400EA2EFAEB3400FBEA246AF582EB3400F58A
:1053F40083ECF088828983E004F0E50AA2E092AFAE
:105404007F030217F474F6121722A2AFE433FDC22D
:10541400AFEA246EF582EB3400F583E014F07C00EF
:1054240060368C08EA2508F8EB3400F9E8246BF5BB
:1054340082E93400F583E0C0E0E8246AF582E934C7
:1054440000F583D0E0F00CEA246EF582EB3400F52D
:1054540083E0F8ECC39840CAEA246DF582EB34008B
:10546400F58374FFF0EA2469F582EB3400F583E4F4
:10547400F0EDA2E092AF02522CC082C083E5A8F8FE
:10548400C2AFEA246AF582EB3400F583E9F0EA243A
:1054940069F582EB3400F583E4F0E8A2E7A2E79231
:1054A400AF0245F874F3121722EAFEEBFFECFAEDB3
:1054B400FB8A828B83A3A3A3A3E0541FF0EE2436BC
:1054C400F582EF3400F583E4F0F50AEEFCEFFD8A93
:1054D400828B83E0C0E0EC245DF582ED3400F5833B
:1054E400D0E0F0750B00E50A33333354F8F50C8A39
:1054F400828B83E0F508750900E50B78081216998C
:10550400E508A2E0502FEE2436F8EF3400F9888243
:105514008983E0F508EE2508F508EF3400F509E580
:10552400082438F582E5093400F583E50CF0888217
:105534008983E004F0050B050CE50BC3940840AF28
:10554400050A8A828B83A3AA82AB838C828D83A370
:10555400AC82AD83E50AC3940550030254D37F059E
:105564000217F474F71217229003CEE0640170035B
:105574000256C57A009003D4E060030256C5740154
:10558400F0A3E4F0A3F090043404F0900439F09014
:1055940003D7E4F0A3F0A3F0A3F09003E104F090A8
:1055A4000407E4F09003EAF0A3F0A3F0A3F0A3F05F
:1055B400A3F0A3F0900451F0900445F090043A74E1
:1055C40080F0A3E4F0900440F09004BCF0A3F0A3B6
:1055D400F0A3F0A3F0A3F0A3F0A3F09004C5F0901F
:1055E4000454F09004A4F0A3F0A3F0A3F0A3F0A358
:1055F400F0A3F0A3F0A3F0A3F09004B0F09004B2F1
:10560400F09004AEF09004C8F0A3F0A3F0A3F0A3CC
:10561400F0A3F0A3F0A3F078CE7903E8246EF5822A
:10562400E93400F58374FFF00A88828983A3A88291
:10563400A983EAC3940440E37ACE7B0378DC79043B
:1056440088828983E0C0E0EA2461F582EB3400F5C6
:1056540083D0E0F088828983A3A882A9838A828B7D
:1056640083A3AA82AB83E864E17003E9640470D085
:105674007ACE7B0378B5790388828983A3E0C0E07E
:10568400EA24E6F582EB3400F583D0E0F0888289E1
:1056940083A3A882A9838A828B83A3AA82AB83E88B
:1056A40064BD7003E9640370CF9003CEE004F0643A
:1056B4000170089003D6E09003D0F07AD27B038087
:1056C400047A007B00024F26C082C0839003D5E495
:1056D400F09003D4F09003CEF0A3F0A374FFF07520
:1056E400E1F10245F8C082C083780079009003D5C7
:1056F400E0600478D2790388828983A3A3A3A3E01A
:10570400F90245F874F6121722EAFEEBFFEE246361
:10571400F582EF3400F583E0F8A3E0F9E84970037B
:105724000257ADEE2463F8EF3400F97A007B00A24F
:10573400AFE433F508C2AF88828983E0FCA3E0FDBF
:10574400EC4D603A88828983E0FAA3E0FB8A828B7D
:1057540083E0FCA3E0FD88828983ECF0A3EDF08A6A
:10576400828B83E4F0A3F088828983E0FCA3E0FDCC
:10577400EC4D700A88828983A3A3E4F0A3F0E508C2
:10578400A2E092AF1212659004E2E004F09004E308
:10579400E004F0EE2463F582EF3400F583E0F8A32F
:1057A400E0F9E84960030257278E828F83A3A3A3FD
:1057B400E0600F8E828F83A3A3A3E4F09003CFE075
:1057C40014F09003CEE014F070069003D074FFF050
:1057D4008E828F83A3A3E4F09004E1E0700D900324
:1057E400CFE0640170057900120D19EEFAEFFB1297
:1057F4000C4702522C74F7121722EAFEEBFF8E823A
:105804008F83A3A3A3A3E0FA7B0012091DEEFAEF92
:10581400FB120B99120C2F024F26C082C08378B55D
:10582400790388828983A3E4F088828983A3A88288
:10583400A983E864BD7003E9640370E69003B67459
:10584400010245F774F6121722EAFEEBFFEC24037B
:10585400F8ED3400F988088909EC2407F8ED3400E0
:10586400F9E8FCE9FD8C828D83E0F8A3E0F9850872
:1058740082850983E0FAA3E0FB121640EE240DF5BD
:1058840082EF3400F583E8F0A3E9F08C828D83E0A5
:10589400F8A3E0F9850882850983E0FAA3E0FB1206
:1058A40016408B09EA45096013EE240DF582EF34A6
:1058B40000F583E02401F0A3E03400F002522C74DC
:1058C400F6121722EAFEEBFFEE242EF582EF3400E7
:1058D400F583E0FCA3E0FD780079FAECFAEDFB1225
:1058E4001640EE246FF582EF3400F583E8F0A3E967
:1058F400F0780079FAECFAEDFB1216408B09EA45D0
:10590400096013EE246FF582EF3400F583E024017F
:10591400F0A3E03400F002522C74EC121722EAFED9
:10592400EBFF7414121716780812159B120CD78A01
:105934000C8B0D8C0E8D0F751002751100751200F5
:10594400751300780C79101215017510FF7511FF8D
:105954007512FF780C7910121562780C1219318EB9
:10596400828F83E0F8A3E0F5838882A3A31215B99C
:1059740012266774041216E1E96003025A818E82CA
:105984008F83E02402F8A3E03400F9E8FAE9FB8A03
:10599400828B8378081215278A828B837508FF759A
:1059A40009FF750AFF750B007808121588EE240BA1
:1059B400F582EF3400F583C082C0838E828F83A387
:1059C400A3A3A3A3E02401F8A3E03400F9D083D077
:1059D40082E0687003A3E06970057901025A838E3E
:1059E400828F83A3A3A3A3A3A3A3E02401F0A3E032
:1059F4003400F0EE2473F582EF3400F583E06401A3
:105A04007036EE2474F582EF3400F583E0F8A3E0F9
:105A1400F98E828F83A3A3A3A3A3A3A3E068700337
:105A2400A3E0697013EE2474F582EF3400F583E08B
:105A34002401F0A3E03400F0EE247FF582EF34007B
:105A4400F583E064017036EE2480F582EF3400F5CE
:105A540083E0F8A3E0F98E828F83A3A3A3A3A3A377
:105A6400A3E0687003A3E0697013EE2480F582EF6D
:105A74003400F583E02401F0A3E03400F07900025F
:105A8400479074F6121722E9FEECFFEA2462F582CD
:105A9400EB3400F583E064016003025B2F9061D076
:105AA400E0F508EA2482F582EB3400F583E0600433
:105AB4007804800278007480C39508FC95E0FDEFBB
:105AC40028F8E43400F9E82402F8E93400F9EC9801
:105AD400ED99A2D265D033404E740A121716E0F540
:105AE40008A3E0F509EA2482F582EB3400F583E0AB
:105AF40060157808121935EFFCEEF9120C177402D0
:105B04001216E174042FFF74012FF5D98ED9EF60BA
:105B14000F850882850983F8E0F5D9A318E870F8A1
:105B240075E195790080067907800279FF02522C8D
