:020000040000FA
:0600000002011D022103B4
:03002B0002268E1C
:0300330002267032
:0300530002217611
:03006B0002264723
:10008300021F6FE5C754F84401F5C7790122000048
:100093000080FB120086B90003020107E4791B7894
:1000A30002B800028004F709D8FCE4791D7802B88D
:1000B30000028004F709D8FCE490028178F5790DF9
:1000C3008002F0A3D8FCD9FA781A90014D7A01BACC
:1000D30000028007E493A3F608DAF9900F75AA8269
:1000E300AB8390014E78D779018015E493A3AC825A
:1000F300AD838A828B83F0A3AA82AB838C828D83A8
:10010300D8E9D9E77582E47583D1740312012F7599
:100113008291758300740012012F75D00075813FA1
:10012300751881751902759F00020096C09FF59F8F
:10013300E473D09F22D083D082C09FE493C0E07445
:100143000193C0E0740293F59F2201B003C203EC54
:1001530003B603FF0000B400002800280028307510
:10016300A000A000A000A00000080008E001F0002B
:10017300100010001000100010001000500050007C
:10018300500010001000D0070000000000000F0016
:1001930001000500307507001000010081FF000019
:1001A3000000FF0202028A820100007A8202848236
:1001B300010000CD0F028082010000B2020284829E
:1001C300010000CE0F028882010000C802FFFF0178
:1001D30000FF20028A820100007D820284820100E6
:1001E30000FC0F02908200000000000282820300E4
:1001F30000A5031E0B1E0B1E0B1E0B1E0B1E0B1E40
:100203000B1E0B1E0B1E0B1E0B1E0B1E0B040D22B7
:100213000DFE0CFFFF01E803053F10020AFF00FE7D
:10022300FF12013884C7031201389AC70312013839
:10023300C9C703120138FFC70312013816C80312D6
:1002430001382DC80312013864C803120138B7C836
:1002530003120138CEC80312013855BF0312013807
:100263006CBF031201389DBF03120138D8BF0312BC
:10027300013802C0031201382CC00312013843C0F5
:10028300031201385AC00312013871C00312013836
:100293009AC003120138ADC003120138C3C0031260
:1002A3000138EDC00312013835AA0212013839AB07
:1002B3000212013866AB02120138BCAB02120138DC
:1002C300DFAB02120138F3AB02120138F5AB0212B5
:1002D300013818AC0212013827AD02120138EBAD18
:1002E30002120138C0AE0212013831AF02120138D6
:1002F300BDAF02120138C0AF0212013848B002127A
:10030300013883B002120138EAB002120138EDB0AD
:100313000212013824B1021201384DB10212013820
:10032300F8B10212013882B202120138D1B20212BC
:100333000138DEB202120138E1B20212013841B3D0
:10034300021201384CB302120138CBB30212013846
:10035300CEB302120138E1B302120138E4B3021240
:10036300013873B4021201388DB4021201389DB4FE
:1003730002120138CDB402120138DAB40212013884
:10038300DDB4021201385EB5021201384CB6021216
:100393000138FEB6021201384BCC0212013843CDAC
:1003A3000212013877CD02120138F9CD0212013859
:1003B30019CE0212013861CE02120138B4CE0212F4
:1003C300013818CF02120138A5CF021201385FD0CD
:1003D300021201386ED302120138F9D40212013825
:1003E3001CD502120138A1A7031201383EA903123A
:1003F3000138A2A90312013801AA031201380FAA76
:100403000312013838AA031201388D9103120138FF
:10041300B59103120138E391031201381A920312C2
:100423000138789203120138C392031201380E93F4
:10043300031201384E9303120138949303120138C7
:10044300C293031201387F94031201388994031273
:100453000138969403120138C99403120138959513
:1004630003120138A19503120138B995031201381B
:10047300C395031201384196031201384CCD031280
:1004830001385ACD0312013872CD031201388ACDD7
:1004930003120138A2CD031201383FEF01120138D4
:1004A300EBEF0112013866F00112013887F10112F6
:1004B3000138C3F1011201386CF20112013853F310
:1004C30001120138B7F4011201380EF50112013897
:1004D3008FF5011201387FF601120138CCF60112B3
:1004E300013852F70112013884F70112013898F9E3
:1004F30001120138DAF901120138F8F90112013851
:100503009AFA0112013862FB011201386FFD0112E0
:1005130001384CAB0312013862AB0312013888ABCC
:1005230003120138A4AC03120138AEAC0312013834
:10053300E3AD03120138DBAE03120138C99603128F
:1005430001386D9703120138A09703120138EA9717
:1005530003120138AD990312013806B001120138B4
:100563007FB0011201388FB0011201387DB1011241
:10057300013887B101120138ACB101120138B7B1AA
:1005830001120138A1B20112013804B3011201387A
:10059300BAB301120138A1B5011201385AB70112D9
:1005A300013836B801120138EAB80112013827BC04
:1005B30001120138D5BC0112013844BE01120138C1
:1005C300C4BF011201386BC001120138B4C001125B
:1005D3000138EBC00112013888C10112013813C27E
:1005E30001120138F0C20112013845C3011201386A
:1005F300A4C401120138B4C401120138E1C40112C8
:10060300013838C501120138E1C501120138E8C6C5
:1006130001120138B2C70112013812C9011201389F
:1006230055C901120138FAC90112013820CA011251
:1006330001382ECC0112013833CC0112013838CEE7
:100643000112013885CE01120138F8CE01120138AA
:100653002BCF01120138CDCF0112013876D0011210
:100663000138AED001120138B1D001120138F9D0EE
:10067300011201383BD10112013892D10112013824
:10068300B1B503120138C4B503120138D2B5031250
:1006930001381AB60312013830B60312013877B69F
:1006A300031201388BB70312013818B8031201384B
:1006B30063B803120138A06100120138B06100125F
:1006C30001381362001201385862001201380E63B8
:1006D30000120138E9630012013812640012013874
:1006E3004264001201388266001201386968001200
:1006F3000138416A00120138856B00120138EC6D34
:1007030000120138FA6E001201384C7000120138E1
:10071300567100120138987100120138D07100121D
:100723000138F2710012013855720012013817773F
:1007330000120138AC77001201380078001201383A
:100743002778001201386578001201388478001286
:100753000138DE7800120138DE7900120138637A3D
:1007630000120138E78503120138F18503120138BD
:10077300998603120138DC8603120138F7860312C7
:100783000138878703120138AF8703120138E787DF
:10079300031201381E8803120138478803120138F7
:1007A3008188031201389688031201386389031282
:1007B3000138868903120138A88903120138BD89DB
:1007C30003120138438A031201387D8A0312013868
:1007D300F58A031201383E8B03120138688B03122A
:1007E3000138938B0312013838CA03120138008091
:1007F300021201382E800212013889810212013857
:1008030069820212013888820212013805830212BA
:100813000138488302120138C38402120138328539
:10082300021201385D8702120138E1890212013890
:10083300928A02120138888B02120138288C021224
:100843000138268D02120138B18D02120138E5C834
:10085300031201384EC903120138A2C90312013829
:10086300D1C903120138F2C9031201384A9B03129A
:100873000138B79B03120138FE9B03120138169D02
:1008830003120138129E03120138F59E0312013838
:1008930033EE0212013875EE021201384EEF0212E6
:1008A300013848F0021201382AF10212013893F19B
:1008B30002120138AFF2021201381BF3021201389F
:1008C3001EF30212013847F302120138C1F3021278
:1008D300013866F4021201387BF402120138C1F4C4
:1008E30002120138DAF402120138DDF4021201387F
:1008F300E5AE0312013821AF031201385FAF0312D3
:10090300013829B00312013898B003120138D3B06B
:100913000312013811B10312013841B10312013836
:1009230068B103120138D6B10312013818B20312A9
:1009330001389D8201120138BC84011201389F865F
:1009430001120138DB8601120138088701120138D0
:10095300CF87011201381A88011201386588011204
:100963000138778801120138B78801120138EB8802
:10097300011201383989011201386A8901120138DB
:100983008D8901120138148A01120138FC8A01127F
:100993000138E98B01120138E28C01120138F18E22
:1009A30001120138939401120138E39401120138C2
:1009B3005A970112013859BB031201380EBD0312B5
:1009C30001389C44001201384B4500120138784528
:1009D30000120138C24500120138F84600120138EE
:1009E3008E480012013803490012013844490012AD
:1009F3000138964900120138074B001201384C4D5B
:100A030000120138464E00120138654E00120138BB
:100A1300844E00120138874E00120138B84F00127D
:100A23000138B050001201389C51001201380C52A9
:100A3300001201387E5200120138055300120138AA
:100A4300E05300120138B5540012013894550012D6
:100A530001381F56001201388D5600120138015714
:100A6300001201382C5700120138EB5700120138DD
:100A7300D85A00120138215B00120138645B00125E
:100A83000138DD5B00120138755C00120138665DC8
:100A9300001201388B5D00120138D15D001201385C
:100AA300FB5D00120138435E00120138BE5E001286
:100AB3000138185F001201388160001201382F617C
:100AC30000120138706100120138619C0212013872
:100AD300AF9C02120138BB9C02120138999D02128D
:100AE3000138CA9D02120138FB9D021201387B9E18
:100AF30002120138B39E02120138059F0212013817
:100B0300429F021201385FA10212013885A302122B
:100B1300013870A5021201385AA702120138F57F75
:100B230000120138BB8B03120138069003120138FF
:100B33004A9103120138EBE001120138A3E30112D9
:100B43000138A9E30112013863E60112013830E9E3
:100B530001120138CA7A001201386E7B0012013883
:100B6300407C001201386A7C00120138B87E001202
:100B73000138BC2600120138062700120138473518
:100B830000120138CC3600120138EF370012013859
:100B9300603E001201385B3F00120138983F00129B
:100BA3000138BB3F00120138FD3F001201380740F6
:100BB30000120138F54000120138EB4100120138F0
:100BC300844200120138D3A30312013869A403122B
:100BD30001387FA403120138F5A40312013869A573
:100BE30003120138A7A5031201381BA6031201380B
:100BF30094A6031201389DA603120138A9A6031275
:100C03000138BEA603120138FCA60312013812A74D
:100C13000312013871A70312013801F502120138DA
:100C23000EF50212013828F50212013867F5021297
:100C33000138A5F5021201380AF6021201381FF62F
:100C43000212013836F60212013844F60212013854
:100C530053F60212013868F6021201387DF60212C9
:100C6300013888F60212013894F602120138A1F60F
:100C730002120138B0F602120138BBF60212013833
:100C8300E0F60212013887F7021201389CF70212CC
:100C93000138B1F702120138CBF702120138E6F737
:100CA3000212013803F8021201380EF80212013859
:100CB300CAF802120138B6F902120138DBF902123E
:100CC3000138E6F902120138FBF9021201380FFA72
:100CD3000212013870FA0212013876FA0212013850
:100CE3007CFA0212013882FA021201389AFA0212CD
:100CF3000138CDFA02120138F5C10212013817C2C8
:100D030002120138F7C202120138CEC502120138AD
:100D1300FAC6021201381EC802120138D0C80212E4
:100D2300013871C902120138378E02120138BB8EA5
:100D3300021201386A8F02120138C9900212013877
:100D4300EA9202120138D693021201380B9402126E
:100D530001382D9402120138DC9402120138D49622
:100D630002120138FD96021201388F9702120138E0
:100D7300C19702120138CE97021201382598021248
:100D830001384B9802120138B89A02120138BB9B02
:100D930002120138139C021201387FD2011201386A
:100DA30089D30112013870D4011201387AD40112A7
:100DB30001389CD401120138A8D40112013841D65C
:100DC3000112013870D6011201388CD70112013893
:100DD300E5D7011201384BD9011201382ADA011281
:100DE300013886DA01120138F3DA011201382EDBF9
:100DF300011201386DDB0112013826DE01120138C0
:100E030040DE01120138CCDE01120138DADE0112B4
:100E1300013833DF0112013841DF01120138B4DF39
:100E23000112013818E00112013862E001120138A1
:100E3300FFC00312013824C10312013896C1031203
:100E43000138E7E602120138F0E602120138F9E64A
:100E530002120138D0E70212013881E90212013887
:100E6300B7E902120138F1E90212013827EA021246
:100E7300013861EA0212013895EA02120138C1EA27
:100E8300021201380AEB0212013844EB0212013854
:100E93008DEB02120138E5EB021201381AEC021253
:100EA300013875EC02120138AFEC0212013800ED83
:100EB3000212013836ED0212013870ED02120138C8
:100EC30093ED02120138D3CF03120138FFCF03127F
:100ED30001385AD00312013864D00312013874D098
:100EE3000312013847D60212013851D602120138D3
:100EF3008FD602120138D8D60212013812D7021245
:100F030001386CD7021201388DD70212013865DA25
:100F1300021201386EDA02120138BBDA021201380A
:100F2300E4DA02120138EEDA021201385ADB021255
:100F33000138ECDB0212013836DC021201386CDCBA
:100F430002120138F8DC0212013839DD02120138CD
:100F530070DD0212013882DD02120138A1DD0212B6
:100F63000138AADD0212013877DE0212013855CCAE
:100F73000312013864BD031201389ABD031201380C
:100F8300D0BD031201381BBF031201387ED00312F8
:100F9300013894D0031201389ED003120138E8D0EF
:100FA300031201384AFB021201385FFB02120138B7
:100FB3000FFC021201384FFC0212013868FC0212C6
:100FC3000138A3FC02120138F0FC0212013822FDA1
:100FD3000212013864FD0212013865FF0212013862
:100FE300D7FF0212013885D103120138E8C5031275
:100FF300013811C60312013840C603120138D8C69E
:1010030003120138F0C60312013832C70312013844
:10101300008003120138428003120138C480031296
:101023000138D980031201382A81031201387E81E5
:1010330003120138C38103120138D281031201382C
:10104300868203120138E1820312013830830312CE
:1010530001388683031201387B84031201387285B9
:1010630003120138AF850312013816D10312013878
:10107300739901120138F49B011201388E9D0112FC
:101083000138429E01120138D59E011201385A9F40
:10109300011201387F9F01120138D19F01120138DB
:1010A30086A3011201380CA4011201383FA50112D5
:1010B300013879A501120138AEA5011201386BA7D9
:1010C300011201389FA701120138FCA70112013850
:1010D30045A801120138ACA80112013825A9011253
:1010E300013854A9011201386CA901120138B5AABB
:1010F30001120138C5AA01120138E3AB011201380C
:1011030005AC011201383BAC01120138EAAD011202
:10111300013877AE01120138B6AE01120138CFAFF4
:10112300011201381DCF031201382ECF03120138EB
:101133003CD2031201387BD203120138E47F001240
:1011430001383BCE031201384BCE0312013863CE74
:101153000312013817CF0312013851CB03120138A0
:10116300D6CB031201383CCC03120138A4C20312BC
:101173000138CDC20312013833C30312013853C3FC
:1011830003120138A4C303120138FFC30312013849
:1011930039C4031201383CC40312013860B203128C
:1011A300013875B203120138A0B3031201381CB41D
:1011B3000312013890B403120138AAB403120138A0
:1011C300C1B403120138D4B403120138EEB40312CC
:1011D300013805B5031201382BB5031201387CB56C
:1011E30003120138B79F03120138CE9F031201384F
:1011F30048A0031201382CA10312013803A30312E0
:10120300013868A303120138BFA303120138F87F22
:101213000012013888FD0112013823FF0112013841
:1012230084FF01120138CAFF0112013846C40312B8
:10123300013898C40312013822C50312013889C545
:10124300031201388DB803120138B7B803120138FD
:1012530085B90312013860BA03120138E7BA0312E1
:101263000138A5DE021201386CDF02120138A3DF58
:1012730002120138CDDF021201382DE002120138CB
:1012830083E002120138E8E00212013880E1021221
:1012930001388FE20212013826E402120138B3E466
:1012A300021201381AE50212013831E5021201383F
:1012B3004BE60212013889E6021201386FB70212B7
:1012C300013879B80212013857B90212013888BBC4
:1012D3000212013854BC0212013877BC02120138E1
:1012E300ADBE02120138FFBE021201389DBF0212C9
:1012F3000138CEC00212013873C102120138CDFF8A
:101303000112013885D203120138BBD2031201380E
:10131300E3D203E76670100809E766700A0809E775
:101323006670040809E76622E066701008A3E066A9
:10133300700A08A3E066700408A3E06622C3E79678
:101343000809E7960809E7960809E79622C3E09695
:1013530008A3E09608A3E09608A3E09622C008C37A
:10136300E096F50808A3E096420808A3E096420831
:1013730008A3E09645087001D3D00822080808EABC
:10138300C0E0EBC0E086F0E7A4FA180986F0E7A412
:101393002AFA180986F0E7A42AFA180986F0E7A4BE
:1013A3002AFA1986F0E7A4FBE5F02AFA190886F071
:1013B300E7A42BFBE5F03AFA190886F0E7A42BFB28
:1013C300E5F03AFA18180986F0E7A4C5F02BFBE418
:1013D3003AFA1908E7C5F0C6A426F6E5F03BFBE4A4
:1013E3003AFA1886F0E7A4F6E5F00826F6E43B0897
:1013F300F6E43A08F6D0E0FBD0E0FA22E4CFC0E00E
:10140300E4CEC0E0E4CDC0E0E4CCC0E075F020C39E
:10141300E633F608E633F608E633F608E633F6185D
:101423001818EC33FCED33FDEE33FEEF33FFC3EC62
:101433009709ED9709EE9709EF97191919400FFFCF
:10144300EC97FC09ED97FD09EE97FE191906D5F007
:10145300BEECF709EDF709EEF709EFF7191919D003
:10146300E0FCD0E0FDD0E0FED0E0FF2260160808EB
:1014730008C6C313C618C613C618C613C618C613A0
:10148300C6D5E0EA22700908080822601618181861
:10149300C6C333C608C633C608C633C608C633C672
:1014A300D5E0EA22E627F60809E637F60809E63723
:1014B300F60809E637F622E026F608A3E036F60832
:1014C300A3E036F608A3E036F622E026F008A3E010
:1014D30036F008A3E036F008A3E036F022C3E6971F
:1014E300F60809E697F60809E697F60809E697F677
:1014F30022C3E096F008A3E096F008A3E096F00874
:10150300A3E096F022E657F60809E657F60809E63F
:1015130057F60809E657F622E056F608A3E056F612
:1015230008A3E056F608A3E056F622E056F008A317
:10153300E056F008A3E056F008A3E056F022E66771
:10154300F60809E667F60809E667F60809E667F6A6
:1015530022E0F608A3E0F608A3E0F608A3E0F622EB
:10156300E6F008A3E6F008A3E6F008A3E6F022E01D
:10157300FAA3E0FBA3E0FCA3E0FD22EAF0A3EBF077
:10158300A3ECF0A3EDF022CAC0E0E6F0A308DAFA78
:10159300D0E0FA22CAC0E0E0A3C582CCC582C583ED
:1015A300CDC583F0A3C582CCC582C583CDC583DAFF
:1015B300E6D0E0CA22C3E498F8E499F91215F98059
:1015C30026C3E49AFAE49BFBE920E7E91215F9E460
:1015D30098F8E499F922C3E498F8E499F91215F913
:1015E300E498F8E499F9C3E49AFAE49BFB22EB202C
:1015F300E7CFE920E7E0B90010BB0008E88AF084F0
:10160300F8AAF022E4FBC8FA22EB70227B10C8335D
:10161300C8C933C9335007C39AC3DBF280069A5053
:10162300012ADBEAC833F4C8C933F4C9FA2275F0D6
:1016330008E4C833C8C933C933C99AC99B5004C91C
:101643002AC93BD5F0ECFBC833F4C8E4C9FA2260DD
:101653000D08C6A2E713C618C613C6D5E0F3226069
:101663000C08C6C313C618C613C6D5E0F42270040B
:1016730022600D18C6C333C608C633C6D5E0F418B6
:1016830022251810AF08F518400215198008F5181F
:1016930040021519D2AF22C0D0251810AF08F51893
:1016A300500205198008F51850020519D2AFD0D0A1
:1016B300222518F58210AF08F51840021519800885
:1016C300F51840021519D2AF851983222518F58222
:1016D300E43519F58322E4732518C582C0E0E519C2
:1016E30034FFC583C0E0E518C3958224F810AF0822
:1016F3008583198582188008858319858218D2AF5E
:10170300CEF0A3E520F0A37808E608F0A3DEFAEF15
:10171300F0A3E58124FAF8E608F0A3E608F0A3E6CF
:1017230008F0A30808E608F0A3E608F0A31581155E
:1017330081D0E0FED0E0F8158115811581E8C0E085
:10174300EEC0E0222518C582C0E0E51934FFC58349
:10175300C0E0E518C3958224F910AF088583198585
:1017630082188008858319858218D2AFCEF0A3E54D
:1017730020F0A37808E608F0A3DEFAEFF0A3E581F2
:1017830024FBF8E608F0A3E608F0A30808E608F04F
:10179300A3E608F0A315811581D0E0FED0E0F8158B
:1017A300811581E8C0E0EEC0E022851983851882A7
:1017B300E0A3FEE0A3F5207808E0A3F608DFFAE053
:1017C300A3FFE0A3C0E0E0A3C0E0E0A3C0E0E0A388
:1017D300C0E0E0A3C0E010AF0885821885831980BC
:1017E30008858218858319D2AFD083D08202013550
:1017F300851983851882E0A3FEE0A3F5207808E02D
:10180300A3F608DFFAE0A3FFE0A3C0E0E0A3C0E093
:10181300E0A3C0E0E0A3C0E010AF08858218858391
:10182300198008858218858319D2AFD083D082228C
:10183300C0D02518C582C0E0E51934FFC583C0E0D8
:10184300E518C3958224F310AF08858319858218A0
:101853008008858319858218D2AFC8F0A3E9F0A365
:10186300EAF0A3EBF0A37908E709F0A3D8FAECF0C8
:10187300A3EDF0A3EEF0A3EFF0A3D0E0F0A3D0E04C
:10188300F0A3D0E0F0A3E520F0A3E5F0F0A32285D8
:101893001983851882E0C0E0A3E0F9A3E0FAA3E08E
:1018A300FBA37808E0F608A3DFFAE0FCA3E0FDA3BE
:1018B300E0FEA3E0FFA3E0C0E0A3E0C0E0A3E0F507
:1018C300D0A3E0F520A3E0A3F5F010AF08858319BA
:1018D3008582188008858319858218D2AFD082D07B
:1018E30083D0E0F8D0E0327404800674028002747E
:1018F30001C0E0F4041216B4D0E012158A22740475
:10190300800474028000CCC0E0EDC0E0E518C39C05
:10191300CCAD1950011D10AF068C188D1980068CA3
:10192300188D19D2AF121597D0E0FDD0E0FC22D06C
:1019330083D082E9C0E0E493A3C386F0C5F095F0B9
:10194300F908E493A386F0C5F095F0700BE493A334
:10195300C3994005E9048002A3E475F002A425823B
:10196300F582E5F03583F583D0E0F9E493A3C0E095
:10197300E493C0E022D083D082ECC0E0EDC0E0E489
:1019830093A3FCE493A3FDED4C600D1219C4EC2466
:10199300FFFCED34FFFD80EFE493A3FCE493A3FD90
:1019A300ED4C600D121A03EC24FFFCED34FFFD80B7
:1019B300EFD0E0FDD0E0FCE493A3C0E0E493C0E00B
:1019C30022C0E0C3E49396087401939618400FE491
:1019D3009366700808740193661870007019A3A3C6
:1019E300C3E49396087401939618A3A3400DD0E023
:1019F300D0E0D0E00219B4A3A3A3A3A3A3D0E02211
:101A0300C0E0C0F088F0E493667008087401936640
:101A1300187000A8F0A3A3700BD0F0D0E0D0E0D0F2
:0B1A2300E00219B4A3A3D0F0D0E02231
:101A300074F5121747EAFEEBFFEE2434F8EF34009A
:101A4000F988088909EE2435F582EF3400F583E042
:101A5000F8EE2437F582EF3400F583E0F50AEC85E3
:101A60000AF0A4FCAAF0850AF0EDA42AFDE82CF8FF
:101A7000E43DF97A257B001215F9EA85088285098B
:101A800083F0F8740758F97401B900028004C33375
:101A9000D9FCFAE8131313541FF8EE28F8EF3400BA
:101AA000F9E8245DF582E93400F583E05A6008EE38
:101AB0002434F582EF802CEE2434F582EF3400F5E7
:101AC00083E0C0E0EE2436F582EF3400F583E0F5E4
:101AD000F0D0E084A8F0EE28F8EF3400F9E82438DC
:101AE000F582E93400F583E0F97F040217F374F519
:101AF000121747EAFEEBFFEE2434F582EF3400F5CF
:101B000083E0C0E0EE2435F582EF3400F583D0E0C9
:101B1000F08E828F83A3A3A3A3A3A3A3C082C083B9
:101B20008E828F83A3A3A3A3A3E0F8A3E0F9D083BD
:101B3000D082E0C398F508A3E099F509EE247FF57B
:101B400082EF3400F583E064017069EE2480F58251
:101B5000EF3400F583E0F8A3E0F98E828F83A3A32E
:101B6000A3A3A3A3A3E0FCA3E0FD8E828F83A3A382
:101B7000A3A3A3E0FAA3E0FBC3EA9CEB9D5010C330
:101B8000EC98ED99402EC3EA98EB995027800EC34C
:101B9000EA98EB994007C3EC98ED9940177CBF7D1C
:101BA00007EEFAEFFB120A64EE247FF582EF3400B1
:101BB000F583E4F0EE2434F8EF3400F9E8FCE9FDB5
:101BC000EE2435F582EF3400F583E0F8EE2437F5A6
:101BD00082EF3400F583E0F50AE508850AF0A4F504
:101BE00008AAF0850AF0E509A42AF509E82508F80D
:101BF000E43509F97A257B001215F9EA8C828D8388
:101C0000F0F8740758F97401B900028004C333D99D
:101C1000FCFAE8131313541FF8EE28F8EF3400F918
:101C2000E8245DF582E93400F583E05A6008EE248B
:101C300034F582EF802CEE2434F582EF3400F58306
:101C4000E0C0E0EE2436F582EF3400F583E0F5F0F5
:101C5000D0E084A8F0EE28F8EF3400F9E82438F555
:101C600082E93400F583E0F9122633021AE974EFB1
:101C7000121747900479E064086005E06407702A51
:101C80009061C8E060249004A7E0F4601DE0F8755E
:101C9000F005A4C8AAF02AF974A928FE740439FF33
:101CA0008E828F83A3A3A3E07003021D9E906060C9
:101CB000E0C0E0EE2468F582EF3400F583D0E0F078
:101CC000750CFB750D07750800750900E5D914F54D
:101CD0000AE5D95403F50E60177403650E605CE5E0
:101CE0000A6010EE2467F582EF3400F583E070039C
:101CF000021D839007F6E06401602AEE2482F582DB
:101D0000EF3400F583E06004780480027800850AEF
:101D100008E508C398FA95E0FB1209448A088B0984
:101D2000EA45097005120CDA8074EE2482F582EF20
:101D30003400F583E070048A0C8B0DE50A6012858F
:101D40000C82850D83F50BE5D9F0A3150BE50B701F
:101D5000F6EE2482F582EF3400F583E0604474FCF3
:101D6000250AF50A780C1218EEAC0AA90EEEFAEF65
:101D7000FB120B18740212169AE97026AA08AB0916
:101D8000121232793D8E828F83A3A3A3A3E0FA7B44
:101D90000012082AEEFAEFFB120A88120B7879007B
:101DA00080747403650E6056850A107511007810F2
:101DB0001218EEAC0CAD0DAA08AB09120AF47402AD
:101DC00012169AEE2468F582EF3400F583E0648001
:101DD0007004747F8001E0F50C780C1218F2E50EA7
:101DE000F50C780C1218F2A90AAC08AD099004A7FA
:101DF000E0FA7B001207E8740212169A801390042E
:101E000079E06408700BAC0CAD0DEEFAEFFB120B31
:101E100048120CE679017F0A0217F374F51217478E
:101E200074FC121684EAFEEBFF8908A2AFE433F5D6
:101E300009C2AF806AEE2463F8EF3400F97A007BC0
:101E400000A2AFE433F50AC2AF88828983E0FCA325
:101E5000E0FDEC4D603A88828983E0FAA3E0FB8ADA
:101E6000828B83E0FCA3E0FD88828983ECF0A3ED04
:101E7000F08A828B83E4F0A3F088828983E0FCA35C
:101E8000E0FDEC4D700A88828983A3A3E4F0A3F0FF
:101E9000E50AA2E092AF1212329007C6E004F0EE1B
:101EA0002463F582EF3400F583E0F8A3E0F9E84914
:101EB000603DEE2463F582EF3400F583E02402FAFE
:101EC000A3E03400FBEA2402F50AEB3400F50B78BA
:101ED0000A1218EE8A828B83E0FCA3E0F9EEFAEF97
:101EE000FB120AB8740212169AE97003021E3590AA
:101EF00007C6E060639007C7E0F89007C6E0C398A4
:101F0000500C7402650870509007C8E0604A8E82D9
:101F10008F83A3A3A3A3E0851882851983F0A3E48C
:101F2000F09007C6E0F874021216CFE8F0A3E4F0D0
:101F30009007C6E0F89007C5E028F074021216CFAB
:101F4000AC82AD83851882851983AA82AB8379011F
:101F50001207F49007C6E4F0E509A2E092AF74041A
:101F600012169A021AE90000851B87851CC622C03A
:101F7000E0C0D0E8C0E0E9C0E0EAC0E0EBC0E0ECDF
:101F8000C0E0EDC0E0EEC0E0C008C009C00AC00B70
:101F9000C082C083C0F0A2AFE433FEC2AF759B0025
:101FA000906182E0A2E05012E591A2E0500C7591A0
:101FB000FE7401651B7003121C6EE0A2E55051E532
:101FC00091A2E5504B7591DF900479E064076005BC
:101FD000E0640870237401651B703579019004A7D3
:101FE000E0FA75F005A4CAA8F028FB74A92AFA74CF
:101FF000043BFB121E1B8018E0640D701390049BC1
:10200000E004F064287002E4F07A00E0F9120CECCD
:10201000906182E0A2E640030220B6E591A2E6408C
:10202000030220B67591BF900479E0640570081230
:102030000BF0120BFC8003120BF6751B00120C5CEC
:10204000E990047AF07900120C3E1209D47A017BEF
:1020500000900478E0F9120F44907803E064427035
:10206000559007FAE014F0704DC2AF12206E007860
:102070001ED0E0F618D0E0F6E59F5407700575090C
:10208000FF800375097FC4C0E0781DE6F50808E607
:102090005509F509740B7808121662D0E02508F886
:1020A000906270E0A2E740F8E8C333906272F0906B
:1020B0006270E0D2E0F0906181E0A2E35009E5E9CE
:1020C000A2E3500375E9F7A3E0A2E75009E591A266
:1020D000E7500375917FEEA2E092AFD0F0D083D0AD
:1020E00082D00BD00AD009D008D0E0FED0E0FDD0DD
:1020F000E0FCD0E0FBD0E0FAD0E0F9D0E0F8D0D0BE
:10210000D0E032C0E0C0D0C082C083906183E0A242
:10211000E05009E5BFA2E0500375BFFEE0A2E15028
:1021200009E5BFA2E1500375BFFDE0A2E25009E559
:10213000BFA2E2500375BFFBE0A2E35009E5BFA2D6
:10214000E3500375BFF7E0A2E45009E5BFA2E450F5
:102150000375BFEFE0A2E55009E5BFA2E5500375A6
:10216000BFDFE0A2E65009E5BFA2E6500375BFBF9E
:10217000D083D0828088C0E0C0D0E8C0E0E9C0E071
:10218000EAC0E0EBC0E0ECC0E0EDC0E0C0F0E5A7E5
:10219000A2E6500FE5A1A2E6500953A7BF75A1BF63
:1021A0001221DBE5A7A2E5500CE5A1A2E5500653FC
:1021B000A7DF75A1DFE5A7A2E15009E5A1A2E150E3
:1021C0000375A1FDE5A7A2E2500CE5A1A2E250062D
:1021D00053A7FB75A1FBD0F00220EC74F81217474F
:1021E000751B01900479E064067015120B9C8A82BD
:1021F0008B83A3A3A3A3A3A3E0FAA3E0FB120BDEAC
:10220000A2AFE433FED2AF90047FE0640170187A8D
:10221000207B00900478E0F9120FC87A207B0090B0
:102220000478E0F9120F4A906182E0D2E6F090075C
:10223000F7E0602185C61C801690047EE064017082
:1022400008E5C654F84405F5C653BEFC121F687471
:1022500001651B60E4EEA2E092AF7F010217F37408
:10226000E912174774F8121684851882851983ECD1
:10227000F0A3EDF08A088B09900479E024F7C39469
:102280000550067508010223F6120B9C8A0A8B0B77
:10229000AE0AAF0BEE4F70030223F3AC08AD097426
:1022A000021216CFAA82AB83120C0E8E828F83A3EA
:1022B000A3750CFF750DFF750EFF750F00780C12DE
:1022C000151B74021216CF7510FF7511FF7512FFE2
:1022D000751300781012151B780C791012134050EA
:1022E0002A780C79101214E07508017509C8750A6E
:1022F00000750B007808790C1213405052850C08B9
:10230000850D09850E0A850F0B8050751401751512
:10231000C875160075170085100885110985120A01
:1023200085130B7808790C1214E0781479081213CD
:1023300040401C750800750900750A00750B01788E
:102340000879101214E07808790C1214A7800C7523
:102350000801750900750A00750B007409780812E8
:102360001488750C19F50DF50EF50F7808790C1217
:1023700013FF8E828F83A3A3A3A3A3A3E0F8A3E0FC
:10238000F97AD07B031215F9880C890DE4F50EF566
:102390000F7808790C1214A774061216CFE0F8A370
:1023A000E0F97AD07B031215F9E8FA8A0CE4F50D0E
:1023B0007808790C12134050077808790C1214E051
:1023C000900479E06408600AE064066005E0640552
:1023D000702D750C0D780C79081213404021750C86
:1023E000F4750DFF750EFF750FFF7808790C121448
:1023F000A7800C750800750900750A00750B00852B
:102400001882851983E0F8A3E0F5838882780812A2
:102410001563740812169A7F100217F374F71217D7
:1024200047120C209007F5E064017010906245E4BB
:10243000F0A3F053F4F343FE0C5390F3120BCCE5EE
:10244000C654804449F5C6E59E547F644970F890AF
:102450006185740FF09007F3E0F47002A3E0604E22
:102460009007F4E0600814601B14602E804075082B
:10247000017509009007F3E07808121671E508F479
:102480005280802A7508017509009007F3E07808EA
:10249000121671E508F45290801475080175090050
:1024A0009007F3E07808121671E508F452A079005D
:1024B0007F020217F374F7121747E9FEEAFF74016F
:1024C0006E700C7A807B00900478E0F9120F4490D3
:1024D00026B4E493F46008E493F91209C880095320
:1024E000C680E59E547F70FA120BD29007F5E06427
:1024F0000170031209E09007F3E0F47002A3E060BA
:102500004B9007F4E0600814601A14602C803D754D
:1025100008017509009007F3E07808121671E508C4
:10252000428080287508017509009007F3E078085B
:10253000121671E508429080137508017509009024
:1025400007F3E07808121671E50842A0120C201279
:102550000B9C8A088B09A808A909E8496015E5E1E0
:1025600070FCE82414F582E93400F583E0F460039C
:10257000E0F5E174016F700A7A01900478E0F912D5
:102580000F980224B074ED1217478A088B098C0A41
:102590008D0B74131216CF780C1215547808790C21
:1025A0001213407510017511C87512007513005093
:1025B000127808790C1214E0781079081213405040
:1025C000168010780C79081214E07810790C121328
:1025D0004040047901800279007F0C0217F374ED0A
:1025E0001217478A088B098C0A8D0B74131216CFA9
:1025F000780C121554780C790812134040117808A1
:10260000790C1214E0AA08AB09AC0AAD0B80227554
:1026100010007511007512007513017810790C12F5
:1026200014E0781079081214A7AA10AB11AC12ADFF
:102630001380A6C082C083E9906000F0D083D0826E
:1026400022C2AF02000022C0E074F2121833A2AF1F
:10265000E433FED2AFE589A2E1500312118A7589F5
:1026600000C2C5751A00EEA2E092AF7F0102189277
:10267000C0E074F2121833A2AFE433FED2AFE58BA0
:10268000A2E0500312118A758B00C2E880D5C0E029
:10269000C0D0E8C0E0E9C0E0E5A8D2AFC2C7751A73
:1026A00000A2E7A2E792AFD0E0F9D0E0F8D0D0D016
:0226B000E03216
:1026B400FFFFFFFFFFFFFFFFC082C083784C790854
:1026C40088828983A3A3A3A3A3A3E4F08882898334
:1026D400A3A3A3A3A374FFF0E82418F8E93400F932
:1026E400E864AC7003E9640870D690084E74FFF097
:1026F40090084DE4F090084CF090084FF0A3F002DD
:102704003FB474EC1216DB90084FE0F508A3E0F533
:1027140009E508450970061209D402354285088284
:10272400850983E014601814601524FE601124C424
:102734007003022F4824C07003022F48023542E080
:10274400F9120B8A8A0A8B0BAE0AAF0B9004A6E02F
:102754007003022B46120A7CE9F875F005A4C8AA96
:10276400F02AF974A928F50C740439F50D850C8246
:10277400F583E0F50AA3E0F50BAC0AFDEEFAEFFBF6
:10278400120B84E9F50E7402650E7003022AEE8EB4
:10279400828F83E024FE600A24FE70030229D8029B
:1027A4003542EE65087003EF650960211209F29065
:1027B40007DAE0640170169007D9E070107901120D
:1027C4000CAA120C7A120CA47900120CB0E50E605B
:1027D40021E5082415F582E5093400F583E060124B
:1027E4009007D5E0F8A3E0F9A3E0687003A3E069DB
:1027F4007042120C088A0C8B0D8C0E8D0F75100311
:10280400751100751200751300780C79101214A755
:102814007510FF7511FF7512FF780C7910121508E9
:102824008E828F83A3A3E50CF0A3E50DF0A3E50E40
:10283400F0A3E4F0E5082415F582E5093400F583F6
:10284400E0640160030228F0850A82850B83A3A358
:10285400750CF1750DFF750EFF750FFF780C1214D2
:10286400BA780C1218EA8E828F83A3A3C082C08325
:102874009007D7E0F508A3E085080CF50DE4F50E04
:10288400F50FD083D082780C1214BAAA0CAB0DAC1D
:102894000EAD0F122585740412169AE9701F8E82EC
:1028A4008F83A3A3C082C0839007D7E0F508A3E079
:1028B400F509E4F50AF50BD083D0828014850A82E9
:1028C400850B83A3A37508F17509FF750AFF750BC2
:1028D400FF78081214BA750CFF750DFF750EFF759D
:1028E4000F007808790C121508022E40EE240EF51C
:1028F40082EF3400F5831219018E828F83A3A31211
:102904001572122585740412169AE9640160030293
:102914003463850A82850B83A3A3750CF1750DFFBF
:10292400750EFF750FFF780C1214BA780C1218EAA2
:102934008E828F83A3A3C082C0839007D7E0F5085B
:10294400A3E085080CF50DE4F50EF50FD083D082D5
:10295400780C1214BAAA0CAB0DAC0EAD0F1225856F
:10296400740412169AE9701F8E828F83A3A3C08207
:10297400C0839007D7E0F508A3E0F509E4F50AF56C
:102984000BD083D0828014850A82850B83A3A37520
:1029940008F17509FF750AFF750BFF78081214BA60
:1029A400750CFF750DFF750EFF750F007808790C17
:1029B400121508EE240EF582EF3400F58378081220
:1029C40015639007DDE06427700474258002E00439
:1029D400F0023463EE65087003EF65096031900717
:1029E400F1E0F91209F8850882850983E064027030
:1029F4001E9007DAE0640170169007D9E070107930
:102A040000120CAA120C7A120CA47901120CB0E573
:102A14000E60129007EBE0F8A3E0F9A3E0687003FE
:102A2400A3E0697039120C088A0C8B0D8C0E8D0F83
:102A3400751003751100751200751300780C791068
:102A44001214A77510FF7511FF7512FF780C791019
:102A54001215088E828F83A3A3780C121563850A3E
:102A640082850B83A3A3750CF1750DFF750EFF759D
:102A74000FFF780C1214BA780C1218EA8E828F8326
:102A8400A3A3C082C0839007EDE0F508A3E0850806
:102A94000CF50DE4F50EF50FD083D082780C1214EA
:102AA400BAAA0CAB0DAC0EAD0F1225857404121628
:102AB4009AE9701F8E828F83A3A3C082C08390077C
:102AC400EDE0F508A3E0F509E4F50AF50BD083D0B1
:102AD400828014850A82850B83A3A37508F1750986
:102AE400FF750AFF750BFF02324C85088285098346
:102AF400E0640270139007DAE06401700B9007D968
:102B0400E070057900120CAAE50C2404FEE50D34EE
:102B140000FF8E828F83E0F9120BC08E828F83E0D8
:102B24009004A7F07902FA75F005A4CAA8F028FB6E
:102B340074A92AFA74043BFB121E1BAA0AAB0B02EB
:102B4400353FEE65087003EF65098E828F8360035D
:102B5400022D62E024FE600A24FE7003022C9F0210
:102B6400353BEE2415F582EF3400F583E0604C909C
:102B740007D5E0F8A3E0F9A3E0687003A3E0696077
:102B84003A120C088A088B098C0A8D0B750C0A758D
:102B94000D00750E00750F007808790C1214A778D3
:102BA400081218EA8E828F83A3A312157212258548
:102BB400740412169AE9600302353B120C088A0861
:102BC4008B098C0A8D0B750C03750D00750E007541
:102BD4000F007808790C1214A7750CFF750DFF759A
:102BE4000EFF7808790C1215088E828F83A3A378C0
:102BF40008121563EE2415F582EF3400F583E064C2
:102C04000170328E828F83A3A3C082C0839007D7C2
:102C1400E0F508A3E0F509E4F50AD083D08278084A
:102C24001214BAEE240EF582EF3400F583780812FC
:102C3400156302353BEE240EF582EF3400F5831262
:102C440019018E828F83A3A3121572122585740431
:102C540012169AE96401600302353B8E828F83A3C6
:102C6400A3C082C0839007D7E0F508A3E0F509E488
:102C7400F50AD083D08278081214BAEE240EF582B5
:102C8400EF3400F58378081215639007DDE06427BC
:102C9400700474258002E00402353A9007EBE0F8F2
:102CA400A3E0F9A3E0687003A3E0696037120C089D
:102CB4008A088B098C0A8D0B750C0A750D00750E2C
:102CC40000750F007808790C1214A778081218EA16
:102CD4008E828F83A3A31215721225857404121693
:102CE4009AE97077EE2402F508EF3400F509120C26
:102CF400088A0C8B0D8C0E8D0F75100375110075E1
:102D04001200751300780C79101214A77510FF7552
:102D140011FF7512FF780C79101215088508828549
:102D24000983780C121563850882850983C082C0E3
:102D3400839007EDE0F508A3E0F509E4F50AF50B47
:102D4400D083D08278081214BAEE240EF582EF34C0
:102D540000F58378081215631209FE02353BE0245E
:102D6400FE600A24FE7003022E520235421209F25A
:102D74009007DAE0640170169007D9E070107901C9
:102D8400120CAA120C7A120CA47900120CB090073F
:102D9400D5E0F8A3E0F9A3E0687003A3E069603725
:102DA400120C088A088B098C0A8D0B750C0A750D98
:102DB40000750E00750F007808790C1214A77808B6
:102DC4001218EA8E828F83A3A312157212258574BA
:102DD4000412169AE97074EE2402F508EF3400F533
:102DE40009120C088A0C8B0D8C0E8D0F751003754F
:102DF4001100751200751300780C79101214A77560
:102E040010FF7511FF7512FF780C791012150885E3
:102E14000882850983780C121563850882850983E5
:102E2400C082C0839007D7E0F508A3E0F509E4F574
:102E34000AF50BD083D08278081214BAEE240EF56A
:102E440082EF3400F5837808121563023463900727
:102E5400F1E0F91209F8850882850983E0640270BB
:102E64001E9007DAE0640170169007D9E0701079BB
:102E740000120CAA120C7A120CA47901120CB09054
:102E840007EBE0F8A3E0F9A3E0687003A3E069604E
:102E940037120C088A088B098C0A8D0B750C0A757D
:102EA4000D00750E00750F007808790C1214A778C0
:102EB400081218EA8E828F83A3A312157212258535
:102EC400740412169AE97079EE2402F8EF3400F9CA
:102ED40088088909120C088A0C8B0D8C0E8D0F75CD
:102EE4001003751100751200751300780C79101217
:102EF40014A77510FF7511FF7512FF780C79101265
:102F04001508850882850983780C12156385088263
:102F1400850983C082C0839007EDE0F508A3E0F53E
:102F240009E4F50AF50BD083D08278081214BAEEBE
:102F3400240EF582EF3400F5837808121563120924
:102F4400FE0235359004A6E07003023359120A7C60
:102F5400E9F875F005A4C8AAF02AF974A928F510AF
:102F6400740439F511851082F583E0F508A3E0F5C2
:102F7400099004A7E0F875F005A4C8AAF02AF9742A
:102F8400A928F50C740439F50D90084DE054077028
:102F940003023267A3E0F9120B8A8A0A8B0BAE0A8A
:102FA400AF0BAC08AD09120B84E9F50E7402650E83
:102FB4007003023267850C82850D83A3A3A3A3E06B
:102FC400F875F08AA4C8AAF02AF974B128F50A742D
:102FD4000839F50BAA0AFB120BB4AA0AAB0B120BA5
:102FE400AE75128075130078121218EE7C007D60A5
:102FF400E50A2406FAE50B3401FB120AF474021202
:10300400169AA80AA90B906195E0C0E0E82486F519
:1030140082E93401F583D0E0F0906196E0C0E0E805
:103024002487F582E93401F583D0E0F0906197E0DC
:10303400C0E0E82488F582E93401F583D0E0F0901B
:103044006198E0C0E0E82489F582E93401F583D091
:10305400E0F08E828F83E024FE600A24FE70030277
:1030640031720232671209F29007DAE064017011DA
:103074009007D9E0700B120C7A120CA47900120C90
:10308400B0E50E60129007D5E0F8A3E0F9A3E0687C
:103094007003A3E0697036120C088A0C8B0D8C0E39
:1030A4008D0F751003751100751200780C791012CC
:1030B40014A77510FF7511FF7512FF780C791012A3
:1030C40015088E828F83A3A3780C1215638508825A
:1030D400850983A3A3750CF1750DFF750EFF750F9C
:1030E400FF780C1214BA780C1218EA8E828F83A31C
:1030F400A3C082C0839007D7E0F50CA3E0F50DE4EC
:10310400F50EF50FD083D082780C1214BAAA0CAB4A
:103114000DAC0EAD0F122585740412169AE9701FBA
:103124008E828F83A3A3C082C0839007D7E0F50863
:10313400A3E0F509E4F50AF50BD083D08280148569
:103144000882850983A3A37508F17509FF750AFF31
:10315400750BFF78081214BA750CFF750DFF750E08
:10316400FF750F007808790C121508023454900783
:10317400F1E0F91209F8E50E60129007EBE0F8A30C
:10318400E0F9A3E0687003A3E0697036120C088AC2
:103194000C8B0D8C0E8D0F751003751100751200BC
:1031A400780C79101214A77510FF7511FF7512FFB2
:1031B400780C79101215088E828F83A3A3780C12D1
:1031C4001563850882850983A3A3750CF1750DFF2A
:1031D400750EFF750FFF780C1214BA780C1218EAEA
:1031E4008E828F83A3A3C082C0839007EDE0F50C89
:1031F400A3E0F50DE4F50EF50FD083D082780C1220
:1032040014BAAA0CAB0DAC0EAD0F122585740412C2
:10321400169AE9701F8E828F83A3A3C082C0839005
:1032240007EDE0F508A3E0F509E4F50AF50BD08312
:10323400D0828014850882850983A3A37508F1755B
:1032440009FF750AFF750BFF78081214BA750CFF95
:10325400750DFF750EFF750F007808790C121508AF
:10326400023523E510650C7004E511650D70030249
:103274003337850C82850D83A3A3A3E07003023347
:103284001B850C82850D83A3A3A3A3E0F875F08AA4
:10329400A4C8AAF02AF974B128FE740839FFEEFA1A
:1032A400EFFB120BB4EEFAEFFB120BAE750A80754E
:1032B4000B00780A1218EE7C007D60EE2406FAEF0B
:1032C4003401FB120AF4740212169A906195E0C05C
:1032D400E0EE2486F582EF3401F583D0E0F09061CE
:1032E40096E0C0E0EE2487F582EF3401F583D0E068
:1032F400F0906197E0C0E0EE2488F582EF3401F5A8
:1033040083D0E0F0906198E0C0E0EE2489F582EF8C
:103314003401F583D0E0F0E5102404FEE511340017
:10332400FF8E828F83E0F9120BC08E828F83E09030
:1033340004A7F079029004A7E0FA75F005A4CAA8DE
:10334400F028FB74A92AFA74043BFB121E1BAA087A
:10335400AB0902353F90084DE05407700302354233
:10336400A3E0F9120B8A8A088B09AE08AF098E8292
:103374008F83E024FE600A24FE700302346B02355E
:10338400421209F29007DAE0640170169007D9E05E
:1033940070107901120CAA120C7A120CA479001282
:1033A4000CB09007D5E0F8A3E0F9A3E0687003A39C
:1033B400E0696037120C088A088B098C0A8D0B753A
:1033C4000C0A750D00750E00750F007808790C1243
:1033D40014A778081218EA8E828F83A3A312157299
:1033E400122585740412169AE97074EE2402F50805
:1033F400EF3400F509120C088A0C8B0D8C0E8D0F1E
:10340400751003751100751200751300780C79108E
:103414001214A77510FF7511FF7512FF780C79103F
:10342400121508850882850983780C1215638508AE
:1034340082850983C082C0839007D7E0F508A3E0A2
:10344400F509E4F50AF50BD083D08278081214BA92
:10345400EE240EF582EF3400F5837808121563909C
:10346400084E740202353A9007F1E0F91209F89017
:1034740007EBE0F8A3E0F9A3E0687003A3E0696058
:1034840037120C088A088B098C0A8D0B750C0A7587
:103494000D00750E00750F007808790C1214A778CA
:1034A400081218EA8E828F83A3A31215721225853F
:1034B400740412169AE97076EE2402F8EF3400F9D7
:1034C40088088909120C088A0C8B0D8C0E8D0F75D7
:1034D4001003751100751200751300780C79101221
:1034E40014A77510FF7511FF7512FF780C7910126F
:1034F4001508850882850983780C1215638508826E
:10350400850983C082C0839007EDE0F508A3E0F548
:1035140009E4F50AF50BD083D08278081214BAEEC8
:10352400240EF582EF3400F583780812156312092E
:10353400FE90084E7404F0EEFAEFFB120B7E7F0C43
:103544000217AD74F01216DBEAFEEBFFEE2402F86C
:10355400EF3400F988088909EE2406F8EF3400F9FD
:10356400880A890B8882F5831219058508828509E2
:1035740083121572120BE4740212169A850A82855C
:103584000B83121905850882850983121572120BA3
:10359400D8740212169AEE240EF582EF3400F583E5
:1035A400121572120BEA8E828F83E06440701CEE57
:1035B4002412F8EF3400F988828983E0906064F083
:1035C40088828983A3E09060658006906064E4F05B
:1035D400A3F090084FEEF0A3EFF0EE2416F582EF7F
:1035E4003400F583E0F8A3E0F58388821216D990BD
:1035F4006054E4F0A3F0A3F0A3F0A3F0A3F0A3F0CD
:10360400A3F0A3F0A3F0A3F0A3F0906182E0C2E6DC
:10361400F07591BFEE2415F582EF3400F583E06474
:10362400017003120C20E5E170FCEE2414F582EF26
:103634003400F583E0F46003E0F5E1EE2415F5824F
:10364400EF3400F5837401F090047FE0640170733B
:10365400120C088A088B098C0A8D0B78081218EA58
:103664008E828F83A3A31215721225DE74041216A0
:103674009A8A088B098C0A8D0B750C05750D0075DB
:103684000E00750F007808790C12137F7403780804
:1036940012146FE50824F4F508E5093401F50990DE
:1036A40007F7E06003120F6EE4F50AF50B780812D1
:1036B40018EA7A207B00900478E0F9120FBC7404B5
:1036C40012169A7F080217AD74EA1216DBEAFEEBB3
:1036D400FF8C148D15EE4F70030237E8120C088A24
:1036E400088B098C0A8D0B750C01750D00750E0085
:1036F400750F007808790C1214A7750CFF750DFF6F
:10370400750EFF7808790C1215088E828F83E06499
:103714000270149007D5E0F8A3E0F9A3E068700301
:10372400A3E06970248017E06404701D9007EBE047
:10373400F8A3E0F9A3E0687003A3E069700B8E823C
:103744008F83A3A3780812156375101A7511007579
:10375400120075130078081218EA851482851583FF
:10376400A3A31215721225DE740412169A8A0C8B06
:103774000D8C0E8D0F7810790C1213404066851451
:1037840082851583A3A3750CE7750DFF750EFF7570
:103794000FFF780C1214BA780C1218EA8E828F83F9
:1037A400A3A3121572122585740412169AE97034B3
:1037B400750C07750D00750E00750F007808790CEF
:1037C4001214A778081218EA8E828F83A3A3121505
:1037D40072122585740412169AE970047900800621
:1037E4007901800279027F0E0217AD74F01216DBA4
:1037F400890874FF6508600302397D90084DE05420
:10380400077003023E597A00784C790888828983CC
:10381400A3A3A3A3A3E06404703FEA75F018A4F87B
:10382400A9F0745228F582740839F583E0640170B4
:10383400377A00784C790888828983A3A3A3A3A349
:10384400E0640460030238D288828983A3A3A3A31B
:10385400A3A3E06401707780630AE82418F8E934CC
:1038640000F9EAC3940440A47A00784C7908888269
:103874008983A3A3A3A3A3E064017067EA75F01886
:10388400A4F8A9F0745228F582740839F583E06429
:103894000170627A00784C790888828983A3A3A393
:1038A400A3A3E06401600302395988828983A3A336
:1038B400A3A3A3A3E064016003023959EA75F018D5
:1038C400A4F8A9F0745128FA740839023E560AE89B
:1038D4002418F8E93400F9EAC39404500302383B8D
:1038E400023E590AE82418F8E93400F9EAC39404BA
:1038F40050030238727A00784C790888828983A34D
:10390400A3A3A3A3E064027061EA75F018A4F8A964
:10391400F0745228F582740839F583E06401705913
:103924007A00784C790888828983A3A3A3A3A3E0AF
:103934006402707A88828983A3A3A3A3A3A3E06407
:1039440001706BEA75F018A4F8A9F0745128FA74A0
:103954000839FB806F0AE82418F8E93400F9EAC34F
:103964009404500302389D023E590AE82418F8E9E9
:103974003400F9EAC3940440827A00784C790888C8
:10398400828983A3A3A3A3A3E06508703A888289EC
:1039940083A3A3A3A3A3A3E06401702BEA75F01887
:1039A400A4F8A9F0745128FE740839FF802C0AE8A1
:1039B4002418F8E93400F9EAC39404500302392ABC
:1039C4007A007B00023E5D0AE82418F8E93400F925
:1039D400EAC3940440A97E007F007A00784C7908F9
:1039E40088828983A3A3A3A3A3E06508701BEA7557
:1039F400F018A4F8A9F0745228F582740839F583F4
:103A0400E0640170137A0180110AE82418F8E9349B
:103A140000F9EAC3940440C87A00E508146010145D
:103A24007003023B9424FE7003023CA7023E597BC0
:103A340000784C790888828983A3A3A3A3A3E064B4
:103A4400027052EB75F018A4F8A9F0745228F582AC
:103A5400740839F583E06401704A7B00784C790876
:103A640088828983A3A3A3A3A3E064026003023B27
:103A74000288828983A3A3A3A3A3A3E06401707E25
:103A8400EB75F018A4F8A9F0745128F50A740839F4
:103A9400F50B023B1A0BE82418F8E93400F9EBC3E0
:103AA400940440917B00784C790888828983A3A38D
:103AB400A3A3A3E064046003023B5BEB75F018A4CA
:103AC400F8A9F0745228F582740839F583E064018A
:103AD4006003023B6D7B00784C790888828983A35C
:103AE400A3A3A3A3E064046003023B7888828983D0
:103AF400A3A3A3A3A3A3E064017079023CFB0BE896
:103B04002418F8E93400F9EBC394045003023A642E
:103B1400750A00750B00EAA2E05035850A82850B10
:103B240083A3A3750CF6750DFF750EFF750FFF7853
:103B34000C1214BA780C1218EA8E828F83A3A31283
:103B44001572122585740412169AE97003023E5305
:103B5400AA0AAB0B023E5D0BE82418F8E93400F91D
:103B6400EBC394045003023AAEEAA2E0501BEEFA0F
:103B7400EFFB80190BE82418F8E93400F9EBC3943F
:103B8400045003023ADF023DA07A007B00023E5D4E
:103B94007B00784C790888828983A3A3A3A3A3E03C
:103BA40064047040EB75F018A4F8A9F0745228F579
:103BB40082740839F583E0640170387B00784C79AD
:103BC4000888828983A3A3A3A3A3E06404600302F7
:103BD4003C5988828983A3A3A3A3A3A3E0640170AF
:103BE40074023CFB0BE82418F8E93400F9EBC394A5
:103BF4000440A37B00784C790888828983A3A3A31B
:103C0400A3A3E064017063EB75F018A4F8A9F07441
:103C14005228F582740839F583E06401705B7B00F7
:103C2400784C790888828983A3A3A3A3A3E06401C1
:103C3400705288828983A3A3A3A3A3A3E064017021
:103C440043EB75F018A4F8A9F0745128F50A740828
:103C540039F50B80440BE82418F8E93400F9EBC378
:103C640094045003023BC5023DA00BE82418F8E974
:103C74003400F9EBC394044080EAA2E0501EEEFA4B
:103C8400EFFB801C0BE82418F8E93400F9EBC3942B
:103C9400044091750A00750B00023DA67A007B0072
:103CA400023E5D7B00784C790888828983A3A3A3B4
:103CB400A3A3E064017055EB75F018A4F8A9F0749F
:103CC4005228F582740839F583E06401704D7B0055
:103CD400784C790888828983A3A3A3A3A3E0640111
:103CE4006003023D8E88828983A3A3A3A3A3A3E0D8
:103CF40064016003023D8EEB75F018A4F8A9F0741A
:103D04005128F50A740839F50B023DA60BE824186E
:103D1400F8E93400F9EBC39404408E7B00784C79C5
:103D24000888828983A3A3A3A3A3E0640260030297
:103D34003DE5EB75F018A4F8A9F0745228F58274E7
:103D44000839F583E064016003023DF77B00784C99
:103D5400790888828983A3A3A3A3A3E064026003F0
:103D6400023DFE88828983A3A3A3A3A3A3E06401E5
:103D74006003023DFEEB75F018A4F8A9F074512815
:103D8400F50A740839F50B023E160BE82418F8E915
:103D94003400F9EBC394045003023CD8750A00754F
:103DA4000B00EAA2E04003023B54850A82850B83A0
:103DB400A3A3750CF6750DFF750EFF750FFF780C38
:103DC4001214BA780C1218EA8E828F83A3A31215E8
:103DD40072122585740412169AE96003023B54801A
:103DE4006E0BE82418F8E93400F9EBC3940450038B
:103DF400023D25EAA2E0505D80550BE82418F8E95D
:103E04003400F9EBC394045003023D56750A00755F
:103E14000B00EAA2E04003023B54850A82850B832F
:103E2400A3A3750CF6750DFF750EFF750FFF780CC7
:103E34001214BA780C1218EA8E828F83A3A3121577
:103E440072122585740412169AE96003023B54EE3B
:103E5400FAEFFB80047A007B000236C774F6121670
:103E6400DB8909750800784C790888828983A3A3C3
:103E7400A3A3A3A3E06003023F3CE50875F018A4E4
:103E8400F8A9F0745128FE740839FF8E828F83A339
:103E94007401F08E828F83E509F0120C088E828FF4
:103EA40083A3A312157E8E828F83A3A3A3A3A3A3AC
:103EB400E4F0A3F0EE240EF582EF3400F58374FFF2
:103EC400F0A3F0A3F0A3F0EE2414F582EF3400F590
:103ED400837401F0EE2415F582EF3400F583740148
:103EE400F0EE2416F582EF3400F583E4F0A3F090AD
:103EF400084DE04509F090084CE004F06401600CC2
:103F0400748065096006744065097019E50875F0E8
:103F140018A4F8A9F0745128F8740839F990084FD6
:103F2400E8F0A3E9F0E50875F018A4F8A9F07451D5
:103F340028FA740839FB80180508E82418F8E934CD
:103F440000F9E508C394045003023E6E7A007B0036
:103F540080007F020217ADC082C0838A828B83E017
:103F6400F8A3E0F98A828B83E4F0A3F08882898342
:103F7400A3F088828983E0F4F890084DE058F0902B
:103F8400084CE014F0700B90084FE4F0A3F0900498
:103F940079F0801CC082C08390084CE0600A9008CD
:103FA4004FE0FAA3E0FB80047A007B008002E0F992
:103FB400D083D082020135C082C083E9FB7A0078C5
:103FC4004C790888828983A3A3A3A3A3E06B70160A
:103FD400EA75F018A4F8A9F0745228F58274083927
:103FE400F583E0F980110AE82418F8E93400F9EAC5
:103FF400C3940440CE790080B7C082C08390084C3B
:10400400023FB274F61216DBEAFEEBFF9061D0E0D9
:10401400C0E0EE2400F582EF3401F583D0E0F090A7
:1040240061D7E0F89061D5E0C398547FC0E0EE24F6
:1040340001F582EF3401F583D0E0F09061D6E0C35E
:1040440098547FC0E0EE2402F582EF3401F583D06A
:10405400E0F0701A9061C5E0A2E45012E0A2E750CB
:104064000DEE2402F582EF3401F5837480F0120C16
:10407400D4EE2401F582EF3401F583E07034EE24AC
:1040840002F582EF3401F583E070279061C5E0A268
:10409400E4501FE0A2E7501AEE2402F582EF340147
:1040A400F5837480F0EE2401F582EF3401F5837416
:1040B40080F075E1957800EE2400F582EF3401F587
:1040C40083E060279061D3E0C0E08808EE2508F51E
:1040D40082EF3400F583D0E0F008EE2400F582EF9F
:1040E4003401F583E0F9E8C39940D975E191023FC1
:1040F4005674F61216DBEAFEEBFF9061C8E0C0E0EE
:10410400EE2403F582EF3401F583D0E0F09061CF23
:10411400E0F89061CDE0C398547FC0E0EE2404F54C
:1041240082EF3401F583D0E0F09061CEE0C398547F
:104134007FC0E0EE2405F582EF3401F583D0E0F092
:10414400701A9061C5E0A2E05012E0A2E3500DEEB7
:104154002405F582EF3401F5837480F0120CDAEE55
:104164002404F582EF3401F583E07034EE2405F580
:1041740082EF3401F583E070279061C5E0A2E0503E
:104184001FE0A2E3501AEE2405F582EF3401F58313
:104194007480F0EE2404F582EF3401F5837480F02A
:1041A400120CE07A00EE2403F582EF3401F583E08B
:1041B400602F9061CBE0C0E08A08EE2508F8EF3468
:1041C40000F9E82480F582E93400F583D0E0F00AB0
:1041D400EE2403F582EF3401F583E0F8EAC3984056
:1041E400D175E181023F5674F41216DB8908A808E0
:1041F400E875F08AA4C8AAF02AF974B128FE7408F4
:1042040039FFEEFAEFFB120BB4EEFAEFFB120BAE32
:10421400750A80750B00780A1218EE7C007D60EE3A
:104224002406FAEF3401FB120AF4740212169A906F
:104234006195E0C0E0EE2486F582EF3401F583D089
:10424400E0F0906196E0C0E0EE2487F582EF34015F
:10425400F583D0E0F0906197E0C0E0EE2488F58229
:10426400EF3401F583D0E0F0906198E0C0E0EE24F3
:1042740089F582EF3401F583D0E0F07F040217ADB5
:1042840074F21216DB8908A808E875F08AA4C8AA93
:10429400F02AF974B128F8740839F99061C6E0FD80
:1042A400E054F0F075E1817C00E82403F582E93400
:1042B40001F583E0602B8C0AE8250AFAE93400FB57
:1042C400EA2480F582EB3400F583E09061CAF00CB7
:1042D400E82403F582E93401F583E0FAECC39A405B
:1042E400D5E82405F582E93401F583E060049061A2
:1042F400CEF0E82404F582E93401F583E06004900B
:1043040061CDF0ED9061C6F0A808E875F08AA4C804
:10431400AAF02AF974B128F8740839F9E0FCE054D9
:104324000FF075E1917A00E82400F582E93401F593
:1043340083E060238A0AE8250AF582E93400F583DC
:10434400E09061D2F00AE82400F582E93401F583B3
:10435400E0FBEAC39B40DDE82402F582E93401F581
:1043640083E060049061D6F0E82401F582E9340129
:10437400F583E060049061D5F0EC9061C6F08508A7
:1043840082AE82EEF875F08AA4C8AAF02AF974B154
:1043940028F50A740839F50B750C80750D00780C36
:1043A4001218EEE50A2406FCE50B3401FD7A007BC5
:1043B40060120AF4740212169AA80AA90BE8248659
:1043C400F582E93401F583E0906195F0E82487F5FE
:1043D40082E93401F583E0906196F0E82488F5825F
:1043E400E93401F583E0906197F0E82489F582E9E6
:1043F4003401F583E0906198F0EE75F005A4CEA841
:10440400F028FF74A92EF58274043FF583E0F8A325
:10441400E0F5838882E06480704190101D7436F06A
:10442400A3740BF0A3741EF0A3740BF0A37436F002
:10443400A3740BF0A37436F0A3740BF0A3741EF0F2
:10444400A3740BF0A37436F0A3740BF0A3743CF0C4
:10445400A3740BF0900479740880059004797407B0
:10446400F090102B741EF0A3740BF0A3741EF0A331
:10447400740BF0A3741EF0A3740BF0A3741EF0A3CA
:10448400740BF0A3741EF0A3740BF0A3741EF0A3BA
:10449400740BF07F060217ADC082C08390619074E4
:1044A40004F0A37448F0A37402F09061807440F0A7
:1044B4009061BC7403F09061877419F09062657424
:1044C4001BF0906249E0C3941390619C400A740904
:1044D400F090606674018007740DF0906066E4F0FB
:1044E40090619A7433F0A37455F09061A0743AF01B
:1044F4009007F5E064017009C29190047D746780AF
:104504000590047D7461F09026BAE493906186F07E
:104514009026B4E493F46027E493540FF8906185F3
:10452400E0686012E5C654804449F5C6E59E547FB0
:10453400644970F8E8F053C680E59E547F70FA79B8
:1045440005120CCE02493DC082C083E9540FF99094
:104554006185E0696012E5C654804449F5C6E59E6C
:10456400547F644970F8E9F053C680E59E547F7027
:10457400FA02493DC082C083E5A8F853A87E906141
:1045840081E4F0A3F0A3F0C2BA539AFEC289759BEA
:1045940000C2C275E90075910075BF0075A9117557
:1045A400B905906181F0A374C0F0A3E4F0D2BA43DA
:1045B4009A0174805842A802493DF002493DC082E4
:1045C400C08374F812168490047BE0F8A3E0F9E841
:1045D4004970030246F090047BE05440602379085C
:1045E400851882851983AA82AB83120AD68518821C
:1045F400851983AA82AB831207D090047BE054BF51
:10460400F0E054806010790C7A1B7B08120AD69073
:10461400047BE0547FF0E0A2E0503190619A74335F
:10462400F0A37455F09061A0743AF09007F5E0643B
:10463400017009C29190047D7467800590047D74B3
:1046440061F01207D690047BE054FEF0E05402605F
:104654003190619A743FF0A3745AF09061A0747F12
:10466400F09007F5E064017009D29190047D7471B3
:10467400800590047D746AF01207D690047BE054A0
:10468400FDF0E0540460139026B8E493906186F042
:104694001207DC90047BE054FBF0E05408601390B4
:1046A40026B9E493906186F01207DC90047BE05411
:1046B400F7F0E0541060139026BAE493906186F00A
:1046C4001207DC90047BE054EFF0E05420600A12FF
:1046D40007DC90047BE054DFF0A3E05401600D128A
:1046E40009E01207E290047CE054FEF0740812160C
:1046F4009A02493D74EC1216DB74F4121684851880
:1047040082851983AC82AD83758382758262740459
:104714001215979026B893F46003024884907808A1
:10472400E0C39402500302486474041216CFAC82AE
:10473400AD8375838275820174081215978518827A
:1047440085198385821285831374041216CFAC8273
:10475400AD83750EFF750FFF7FFF7E00750C4875E6
:104764000D78801574086E70030247F874096E7032
:10477400030247F8740A6E607B850C82850D83788A
:10478400081215548C828D83A909E50AC9F888108A
:104794007418780812146FE5104508F8C3E098A35C
:1047A400E099850C82850D83780812155440188C85
:1047B400828D837418780812146FE5104508F8E0A8
:1047C400C398F8A3E0801C7418780812146FE510DD
:1047D4004508FAE9FB8C828D83E0F8A3E0F9EAC38B
:1047E40098F8EB99F9C3E8950EE9950F5006880EF1
:1047F400890FEEFF0EE50C2404F50CE50D3400F5ED
:104804000DEEC39413500302476874FF650E7004E1
:1048140074FF650F60238F08740278081216717490
:10482400482508F58274783509F5837808121554FB
:10483400851282851383E508F0EC2402FCED340034
:10484400FD851282851383A3858212858313740CDC
:104854001216CFE5826C7003E5836D600302475640
:1048640075080175090078081218EE74021216CF43
:10487400AC82AD837AAE7B09121160740212169A6F
:10488400740C12169A7F0C0217ADC082C08390611B
:10489400AE7468F0A3746AF090624574FBF0A304EC
:1048A400F053F4FD43FE029007F57401F09061A00B
:1048B400E0643A90619A70237433F0A37455F090D5
:1048C40061A0743AF0740164017009C29190047D8E
:1048D4007467802890047D74618021743FF0A37410
:1048E4005AF09061A0747FF0740164017009D29150
:1048F40090047D7471800590047D746A0245BEC085
:1049040082C0839007D3E0640170119007D9E064FA
:10491400016019E07006A3E0640160109007EAE00A
:104924006401700C9007F0E064017004790C80025B
:1049340079008005E0F9122633D083D08202013554
:10494400C082C0839007DD7425F09007DB7401F00A
:10495400A3E4F07A01FB120C4A9007C9E0F8A3E043
:10496400C82416F582E83400F5837404F0A3740AAD
:10497400F09007DAE0640170169007D9E0701079BE
:1049840001120CAA120C7A120CA47900120CB602B1
:10499400493DC082C08374FA1216849007D2E06441
:1049A4000170081209EC9007D2E4F075E1F1900768
:1049B400C9E0F8A3E0C82415F582E83400F583744F
:1049C40001F09007D4E064017076908228C082855B
:1049D4001882851983AC82AD83758382D082740674
:1049E40012159775D90D9007CBE0C4333354C044E6
:1049F40003F5D978C9790788828983A3A3A3E0F54D
:104A0400D988828983A3A882A983E864CF7003E943
:104A1400640770E3851882851983A882A983888234
:104A24008983E0F5D9A3A882A98374061216CFE579
:104A340082687003E5836970E575E1957901800208
:104A44007900120C5090101D7454F0A3740BF0A351
:104A5400745AF0A3740BF0A37454F0A3740BF0A372
:104A64007454F0A3740BF0A3741EF0A3740BF0A39E
:104A7400741EF0A3740BF0A37460F0A3740BF09095
:104A8400102B741EF0A3740BF0A3741EF0A3740B0C
:104A9400F0A3741EF0A3740BF0A3741EF0A3740BA4
:104AA400F0A3741EF0A3740BF0A3741EF0A3740B94
:104AB400F09007CBE0F97ACC7B07120C2C9007DD41
:104AC400E0F91226337901120C567AD67BBE7C8922
:104AD4007D8E120C6E7A557B557C557D00120C38F8
:104AE4007900120CC29007C9E0F8A3E0C82414F5B9
:104AF40082E83400F5837416F09004797405F004A8
:104B04000246F274F71216DB8908A808E875F00566
:104B1400A4C8AAF02AF974A928FE740439FF9007DE
:104B2400E2E0F97AE37B07120C2C9007F0E0701AAC
:104B34007900120C8C9007B8E07004790080027937
:104B4400017AB97B07120C3280057901120C8C753D
:104B5400E1F175D9239007E2E0C4333354C044052E
:104B6400F5D978E0790788828983A3A3A3E0F5D9EE
:104B740088828983A3A882A983E864E67003E96430
:104B84000770E375D90075D90075D90075D900751A
:104B9400D90075D900EEF8EFF9E82404FAE93400F5
:104BA400FBE82422F582E93400F583E0F5D9888214
:104BB4008983A3A882A983EA687002EB6970E2EE94
:104BC400F8EFF9E824031AE93400FBE82426F58217
:104BD400E93400F583E0F5D988828983A3A882A902
:104BE40083EA687002EB6970E2EE242BF582EF34FD
:104BF40000F583E0F5D9EE242CF582EF3400F5833B
:104C0400E0F5D9EE242DF582EF3400F583E0F5D9F3
:104C1400EE242EF582EF3400F583E0F5D9EE242F4F
:104C2400F582EF3400F583E0F5D9EE2430F582EF18
:104C34003400F583E0F5D9EE2431F582EF3400F544
:104C440083E0F5D9EE2432F582EF3400F583E0F504
:104C5400D9EE2433F582EF3400F583E0F5D9EEF88C
:104C6400EFF9E82405FAE93400FBE8245DF582E96C
:104C74003400F583E0F5D988828983A3A882A983C7
:104C8400EA687002EB6970E2EE2437F582EF3400D3
:104C9400F583E0541FF8EE242AF582EF3400F583FF
:104CA400E0C43354E048F5D975E19590101D74249F
:104CB400F0A3740BF0A3742AF0A3740BF0A3741E76
:104CC400F0A3740BF0A3741EF0A3740BF0A3741E72
:104CD400F0A3740BF0A3741EF0A3740BF0A3743050
:104CE400F0A3740BF090102B741EF0A3740BF0A3BC
:104CF400741EF0A3740BF0A3741EF0A3740BF0A342
:104D0400741EF0A3740BF0A3741EF0A3740BF0A331
:104D1400741EF0A3740BF09007EFE0F91226337AB7
:104D2400D67BBE7C897D8E120C6E7A557B557C5564
:104D34007D00120C3890600DE4F07901120CC290E1
:104D440004797406F002530074E81216DB9007E04D
:104D5400E0F8A3E0F5838882A3A3780C121554909D
:104D640007F1E0FAF875F005A4C8ACF02CF974D793
:104D740028F582740439F583E0FEA3E0FFEEC33323
:104D8400FEEF33FF8E14F515751600751700850CAC
:104D940008850D09850E0A850F0B75100475110021
:104DA400751200751300780879101214A778081288
:104DB40018EA850C08850D09850E0A850F0B7808FD
:104DC40079141214A7780C79141213FFE4F516F56C
:104DD40017780879141214E08A0C750D007403789E
:104DE4000C121671E50D3395E0F50EF50F78087980
:104DF4000C1214A7750CFF750DFF750EFF7808795A
:104E04000C121508AA08AB09AC0A7D001225DE7441
:104E14000412169A8A088B09A808A909C3EE98EF08
:104E2400995006E82EF8E93FF9E890600EF0E9A3FE
:104E3400F0EEA3F0EFA3F090600D74C1F07F1002C8
:104E440017ADC082C0839007C9E0F8A3E0C8240668
:104E5400F582E83400F583E4F0A3F09007DD02491D
:104E640038C082C0839007E0E0F8A3E0C82406F5C8
:104E740082E83400F583E4F0A3F09007EF024938A8
:104E840002013574F61216DB9061D0E0F87480C329
:104E940098FCEA2482F582EB3400F583E060047820
:104EA4000480027800E8240EF8ECC3985003024F03
:104EB400B37C0C9007FBE4F0EA2476F582EB340033
:104EC400F583E09007FCF0EA2477F8EB3400F988E6
:104ED400828983E09007FDF088828983A3E09007AC
:104EE400FEF0EA2479F8EB3400F988828983E090B3
:104EF40007FFF088828983A3E0900800F0EA247B0E
:104F0400F8EB3400F988828983E0900801F0888204
:104F14008983A3E0900802F0EA247DF8EB3400F9D9
:104F240088828983E0900803F088828983A3E090D3
:104F34000804F0EA2474F8EB3400F98A828B83A322
:104F4400A3A3A3A3E0FEA3E0FF88828983E02EF05D
:104F5400A3E03FF088828983E0900805F088828985
:104F640083A3E0900806F0EA2482F582EB3400F58E
:104F740083E060177508FB75090778081218EE7945
:104F840003120B12740212169A7C1074012CF5D9B8
:104F940075D9037582FB758307ECFEE0F5D9A31E72
:104FA400EE70F875E1957904120C74790180027938
:104FB400000254B074F61216DB9061D0E0F87480ED
:104FC400C398FCEA2482F582EB3400F583E06004A4
:104FD400780480027800E8240AF8ECC398500302AD
:104FE40050AB7508089007FB7401F07CBF7D07780F
:104FF400FC79077E058C828D83E088828983F08C1E
:10500400828D83A3AC82AD8388828983A3A882A97D
:10501400831EEE70E0EA2480FCEB3400FD8A828B70
:1050240083A3A3A3A3A3E0FEA3E0FF8C828D83E06C
:105034002EF0A3E03FF08C828D83E088828983F098
:105044008C828D83A3AC82AD8388828983A308A9D3
:10505400838C828D83E088828983F0EA2482F582BE
:10506400EB3400F583E0601A7508FB7509077808CE
:105074001218EE7C087903120B12740212169A7538
:10508400080C74012508F5D975D9037582FB75835D
:1050940007AE08E0F5D9A31EEE70F875E195790422
:1050A400120C747901800279000254B074F712165C
:1050B400DBEAFEEBFF9061D0E0600302519775D903
:1050C4001875D90375D903EEF8EFF9E82408FAE95D
:1050D4003400FBE8249BF582E93400F583E0F5D93C
:1050E40088828983A3A882A983EA687002EB697025
:1050F400E2EE24A3F582EF3400F583E0F5D9EE2443
:10510400A4F582EF3400F583E0F5D9EE2493F5821B
:10511400EF3400F583E5822408F8E5833400F9E0F0
:10512400F5D9A3E865827003E9658370F2EE2487FC
:10513400F582EF3400F583E5822404F8E583340036
:10514400F9E0F5D9A3E865827003E9658370F27527
:10515400E1957908EE2493FAEF3400FB120ACA7938
:1051640004EE2487FAEF3400FB120ACA7904120C05
:1051740074EE246FF582EF3400F583E0F8A3E0F9D0
:10518400EE2471F582EF3400F583E8F0A3E9F079B9
:10519400018002790002530074F61216DBEAFEEB7A
:1051A400FF9007FB7406F07508FB75090778081271
:1051B40018EE7C017903120B12740212169A75D937
:1051C4000675D9037582FB758307E0F5D9A3E582DB
:1051D40064007004E583640870F075E195900479C7
:1051E400E06408701EEE246FF582EF3400F583E06E
:1051F400F8A3E0F9EE2471F582EF3400F583E8F0CA
:10520400A3E9F079010254B074F61216DBEAFEEB5E
:10521400FF9061D0E0705E9007FB740AF07508FBA4
:1052240075090778081218EE7C017903120B1274C1
:105234000212169A75D90675D9037582FB75830710
:10524400E0F5D9A3E58264007004E583640870F096
:1052540075E195EE246FF582EF3400F583E0F8A351
:10526400E0F9EE2471F582EF3400F583E8F0A3E968
:10527400F07901800279000254B074F61216DBEA68
:10528400FEEBFF9061D0E0706678019007FB740B31
:10529400F0900479E0640770197508FB75090778C4
:1052A400081218EE7C017903120B12740212169A7A
:1052B4007805740128F5D975D9037582FB758307C0
:1052C400E8FAE0F5D9A31AEA70F875E195EE246FCF
:1052D400F582EF3400F583E0F8A3E0F9EE2471F5EC
:1052E40082EF3400F583E8F0A3E9F07901800279D4
:1052F400000254B0F0EEA2E092AF79007F010217F1
:10530400AD74F61216DBEAFEEBFF9061D0E0F874A0
:1053140080C398FAEE2482F582EF3400F583E060CE
:1053240004780480027800E8240BF8EAC398500358
:105334000253DB7D099007FB7408F0EE24E4F8EFD8
:105344003400F97AFC7B077C0888828983E08A82AE
:105354008B83F088828983A3A882A9838A828B8322
:10536400A3AA82AB831CEC70E0EE2482F582EF34B6
:1053740000F583E0601D7508FB75090778081218AD
:10538400EE7C097903EEFAEFFB120B12740212168B
:105394009A7D0D74012DF5D975D9037582FB75833A
:1053A400078D08E0F5D9A31508E50870F675E195B1
:1053B4007904120C74EE246FF582EF3400F583E067
:1053C400F8A3E0F9EE2471F582EF3400F583E8F0F8
:1053D400A3E9F07901800279000254B074F6121640
:1053E400DBEAFEEBFF9061D0E0F87480C398FAEE3C
:1053F4002482F582EF3400F583E0600478048002AF
:105404007800E82408F8EAC39850030254AE7806FA
:105414009007FB740CF0900496E09007FCF0900465
:1054240097E09007FDF0900498E09007FEF0900458
:1054340099E09007FFF090049AE0900800F0EE24C1
:1054440082F582EF3400F583E0601B7508FB750973
:105454000778081218EE7C067903EEFA120B127420
:105464000212169A780A740128F5D975D90375823F
:10547400FB7583078808E0F5D9A31508E50870F6DD
:1054840075E1957904120C74EE246FF582EF340003
:10549400F583E0F8A3E0F9EE2471F582EF3400F52A
:1054A40083E8F0A3E9F07901800279007F02021712
:1054B400AD74F61216DBEAFEEBFF9061D0E0F874EF
:1054C40080C398FAEE2482F582EF3400F583E0601D
:1054D40004780480027800E82404F8EAC3985003AE
:1054E40002558F78029007FBE8F0EE24F6F582EF80
:1054F4003400F583E09007FCF0EE2482F582EF346B
:1055040000F583E0601B7508FB750907780812181D
:10551400EE7C027903EEFA120B12740212169A78D8
:1055240006740128F5D975D9037582FB758307883C
:1055340008E0F5D9A31508E50870F675E195EE24A1
:1055440073F582EF3400F583E4F0EE247FF582EF07
:105554003400F583E4F0EE241DF582EF3400F58386
:10556400E4F0A3F07904120C74EE240DF582EF3408
:1055740000F583E0F8A3E0F9EE2471F582EF34003E
:10558400F583E8F0A3E9F07901800279000254B0D0
:1055940074F61216DB9061D0E0F87480C398FCEACC
:1055A4002482F582EB3400F583E060047804800201
:1055B4007800E82404F8ECC398405B79029007FB78
:1055C4007407F0EA24F7F582EB3400F583E09007E2
:1055D400FCF0EA2482F582EB3400F583E060187570
:1055E40008FB75090778081218EE7C0209120B12E1
:1055F400740212169A7906740129F5D975D90375BE
:1056040082FB758307E9F8E0F5D9A318E870F8750B
:10561400E1957901800279000254B074F51216DB29
:10562400E9FCA2AFE433F50AC2AF7D0080010DEAC4
:10563400246EF582EB3400F583E0F8EDC398501A3C
:105644008D08EA2508F8EB3400F9E8246AF582E9C4
:105654003400F583E06C70D68024EA246EF8EB34D1
:1056640000F9E0FEEA2EFAEB3400FBEA246AF58244
:10567400EB3400F583ECF088828983E004F0E50ADA
:10568400A2E092AF7F030217AD74F61216DBA2AF4D
:10569400E433FDC2AFEA246EF582EB3400F583E017
:1056A40014F07C0060368C08EA2508F8EB3400F925
:1056B400E8246BF582E93400F583E0C0E0E8246A6D
:1056C400F582E93400F583D0E0F00CEA246EF5822B
:1056D400EB3400F583E0F8ECC39840CAEA246DF596
:1056E40082EB3400F58374FFF0EA2469F582EB342D
:1056F40000F583E4F0EDA2E092AF0254B0C082C0A2
:1057040083E5A8F8C2AFEA246AF582EB3400F58396
:10571400E9F0EA2469F582EB3400F583E4F0E8A2C9
:10572400E7A2E792AF02493D74F31216DBEAFEEBFF
:10573400FFECFAEDFB8A828B83A3A3A3A3E0541F9F
:10574400F0EE2436F582EF3400F583E4F0F50AEE4A
:10575400FCEFFD8A828B83E0C0E0EC245DF582EDF2
:105764003400F583D0E0F0750B00E50A333333548D
:10577400F8F50C8A828B83E0F508750900E50B784F
:1057840008121652E508A2E0502FEE2436F8EF3442
:1057940000F988828983E0F508EE2508F508EF34DE
:1057A40000F509E5082438F582E5093400F583E5B8
:1057B4000CF088828983E004F0050B050CE50BC32B
:1057C400940840AF050A8A828B83A3AA82AB838C98
:1057D400828D83A3AC82AD83E50AC3940550030292
:1057E40057577F050217AD74F71216DB9004A5E036
:1057F40064037003025AD17C0078A57904888289F5
:1058040083A3A3A3A3A3A3E06003025ABFECF87588
:10581400F005A4C8AAF02AF974A928FA740439FB7B
:105824008A828B83A3A37401F08A828B83A3A3A3AC
:10583400E4F0EC8A828B83A3A3A3A3F0EA2462F5A9
:1058440082EB3400F5837401F0EA2467F582EB34CB
:1058540000F5837401F08A828B83A3A3A3A3A3E43A
:10586400F0A3F08A828B83A3A3A3A3A3A3A3F0A38F
:10587400F0EA240FF582EB3400F5837401F0EA2496
:1058840035F582EB3400F583E4F0EA2418F582EB75
:105894003400F583E4F0A3F0A3F0A3F0EA241CF5AC
:1058A40082EB3400F583E4F0EA241DF582EB340046
:1058B400F583E4F0A3F0EA247FF582EB3400F5836A
:1058C400E4F0EA2473F582EB3400F583E4F0EA248F
:1058D40068F582EB3400F5837480F0EA2469F5827C
:1058E400EB3400F583E4F0EA246EF582EB3400F542
:1058F40083E4F0EA24ECF582EB3400F583E4F0EA87
:1059040024EDF582EB3400F583E4F0EA24EEF5822D
:10591400EB3400F583E4F0EA24EFF582EB3400F590
:1059240083E4F0EA24F0F582EB3400F583E4F0A399
:10593400F0EA24F2F582EB3400F583E4F0A3F0EA14
:1059440024F5F582EB3400F583E4F0EA2482F58251
:10595400EB3400F583E4F0EA24D2F582EB3400F56D
:1059640083E4F0EA24D3F582EB3400F583E4F0EA2F
:1059740024D4F582EB3400F583E4F0A3F0A3F0A380
:10598400F0EA24D8F582EB3400F583E4F0A3F0A325
:10599400F0A3F0EA24DEF582EB3400F583E4F0EAC8
:1059A40024E0F582EB3400F583E4F0EA24DCF582AC
:1059B400EB3400F583E4F0EA24E1F582EB3400F5FE
:1059C40083E4F0EA24E2F582EB3400F583E4F0EAC0
:1059D40024F8F582EB3400F583E4F0A3F0EA24FA2A
:1059E400F582EB3400F583E4F0A3F0EA24FCF582BD
:1059F400EB3400F583E4F0A3F0EA24FEF582EB3403
:105A040000F583E4F0A3F0EAF8EBF9E82404FCE9F8
:105A14003400FDE8246AF582E93400F58374FFF06C
:105A240088828983A3A882A983EC687002ED6970D7
:105A3400E2EAF8EBF97CBF7D078C828D83E0C0E05D
:105A4400E8245DF582E93400F583D0E0F08C828DA2
:105A540083A3AC82AD8388828983A3A882A983ECC3
:105A640064C47003ED640770D0EAF8EBF97C8C7DB4
:105A7400048C828D83A3E0C0E0E824E4F582E93459
:105A840000F583D0E0F08C828D83A3AC82AD838853
:105A9400828983A3A882A983EC64947003ED6404CF
:105AA40070CF9004A5E004F0640170258A828B8392
:105AB400A3A3A3A3E09004A7F080160CE82405F8A0
:105AC400E93401F9ECC3940350030258017A007BD2
:105AD40000025300C082C0838A828B83A3A3A3E005
:105AE400600F8A828B83A3A3A3E4F09004A6E0143E
:105AF400F09004A5E014F070069004A774FFF08AF7
:105B0400828B83A3A3E4F09007C4E0700D9004A6F5
:105B1400E0640170057900120C3E02493DC082C068
:105B24008378A5790488828983A3A3A3A3A3A3A3C9
