:020000040000FA
:0600000002011D0222A016
:03002B00021D189B
:030053000223166F
:03006B00021CE68E
:1000830002214FE5C754F84401F5C7790122000066
:100093000080FB120086B90003020107E47921788E
:1000A30008B800028004F709D8FCE479297802B87B
:1000B30000028004F709D8FCE490028178F1790703
:1000C3008002F0A3D8FCD9FA781A90014D7A01BACC
:1000D30000028007E493A3F608DAF9900971AA8273
:1000E300AB8390014E78C779048015E493A3AC8267
:1000F300AD838A828B83F0A3AA82AB838C828D83A8
:10010300D8E9D9E775823D7583AD740312012F7564
:100113008291758300740012012F75D00075813FA1
:10012300751881751902759F00020096C09FF59F8F
:10013300E473D09F22D083D082C09FE493C0E07445
:100143000193C0E0740293F59F2201FFFF0A41630C
:1001530063656C20456E61626C65000002140041AA
:100163006363656C2052616E676500001010104177
:100173006363656C20582D436F6F7264696E61749D
:10018300650000416363656C20592D436F6F726492
:10019300696E6174650000416363656C205A2D4389
:1001A3006F6F7264696E61746500000239900100BB
:1001B300001A900235900100007309026590030054
:1001C30000A0020231900100007409023590010081
:1001D300008209026390010000830902319001004B
:1001E3000085090235900100009209026190000028
:1001F30000A102022F90030000A40202319001002B
:100203000095090235900100009309025F900000F8
:1002130000A202022F90030000AA02023190010003
:1002230000A9090235900100009409025D900000C5
:1002330000A302022F90030000B0020231900100DC
:1002430000BD09110199010F1264040102399001E3
:10025300000002900235900100006E0A02579001DF
:1002630000006F0A022F90030000BE020269900192
:100273000000700A020202020202020202010D00E1
:100283000000100102399001000005900235900131
:1002930000009A0A025190010000C5020235900144
:1002A30000009B0A024F90010000138F023590015A
:1002B30000009C0A024D90010000F78E0235900168
:1002C30000009D0A024B90010000A38E02359001AD
:1002D30000009E0A0249900100007F8E02359001C2
:1002E30000009F0A024790010000B58E023590017D
:1002F3000000A00A024590010000918E0235900192
:100303000000A10A024390010000058F023590010D
:100313000000A20A024190010000A30A01E80305BC
:100323003F100A0B094B6579666F6264656D6F0256
:1003330001050702031802180418544920424C45CA
:10034300204B6579666F6200000000000000005CCE
:1003530008000062086808FF000130750302010607
:10036300000000000000000000000000000000008A
:10037300000000000000000000000000FFFF060076
:10038300800CE8030A041202399001000011900264
:100393003590010000AA0B022D90030000A2040275
:1003A30039900100001490023590010000AB0B025C
:1003B3002D90020000A3040239900100001790025F
:1003C3003590010000AC0B022190010000A404024F
:1003D3002F90030000A504104B65792050726573BC
:1003E30073205374617465000239900100000E900C
:1003F300023590010000FD0B021F90000000AB04CA
:10040300022F90030000AC04023190010000FE0BA8
:10041300FF0000B4000028002800283075A000A0C9
:1004230000A000A00000080008E001F00010001088
:100433000010001000100010005000500050001079
:10044300001000D0070000000000000F00010005AD
:1004530000307507001000010081FF00000000FF5D
:10046300800B9E0B860BFF02020208025000A000C5
:100473000000E8030239900100000B90023590015F
:1004830000008D0C022B90010000E4040235900162
:1004930000008E0C022990010000FA04023590013D
:1004A30000008F0C022790010000FC04023590012C
:1004B3000000900C022590080000FD040235900115
:1004C3000000910C022390010000920CFF0100FF39
:1004D300200239900100000890023590010000F6D7
:1004E3000C025B900000000000022F900300004A02
:1004F30005B011B011B011B011B011B011B011B0FD
:1005030011B011B011B011B011B0118C14A4148634
:1005130014120138C6D402120138D0D402120138A1
:100523000ED50212013857D50212013891D50212A5
:100533000138EBD5021201380CD60212013815D658
:100543000212013862D6021201388BD60212013828
:1005530095D60212013801D70212013893D702123D
:100563000138DDD70212013813D8021201389FD89F
:1005730002120138E0D80212013817D902120138E9
:1005830029D90212013848D90212013851D902126D
:1005930001381EDA02120138F5A503120138DEAC68
:1005A30003120138669A031201389C9A0312013828
:1005B300D29A031201381D9C03120138C2AB0312F5
:1005C3000138D8AB03120138E2AB031201382CAC6B
:1005D30003120138C7ED02120138DCED02120138B3
:1005E3008CEE02120138CCEE02120138E5EE021253
:1005F300013820EF021201386DEF021201389FEF2C
:1006030002120138E1EF02120138E2F1021201385D
:1006130054F202120138ECA60312013815A7031293
:10062300013844A7031201385CA7031201389EA7BF
:1006330003120138E7FA0212013842FB02120138B1
:100643005FFB021201386EFC02120138B9FC021280
:10065300013877FD021201386CFE02120138528D07
:1006630003120138898D03120138A88D0312013852
:10067300538E03120138E88E03120138708F031270
:1006830001385AAA031201387BAA031201380CABB2
:1006930003120138DFA3031201383CA4031201380B
:1006A30054A40312013872A4031201388DA4031257
:1006B3000138CAA403120138D8A4031201381093D5
:1006C300031201383593031201385F930312013883
:1006D30095AD031201387D4300120138E245001243
:1006E3000138834700120138374800120138CA48DD
:1006F300001201384F4900120138744900120138C1
:10070300CA4C00120138504D00120138834E0012BA
:100713000138BD4E00120138F24E00120138B250BA
:10072300001201380F5100120138585100120138DC
:10073300C3510012013834520012013866520012BC
:1007430001387E5200120138C75300120138D753C3
:1007530000120138F2540012013814550012013806
:100763004A5500120138FE56001201388B57001209
:100773000138CA5700120138EE580012013899A9FE
:1007830003120138AAA9031201384FAA0312013830
:10079300EBAD031201382AAE03120138E2FF021255
:1007A3000138E3A703120138F3A70312013808A89D
:1007B30003120138BCA803120138F1A40312013853
:1007C30076A503120138DCA503120138B9FE021223
:1007D3000138E0FE0212013836FF0212013848FFE9
:1007E3000212013898FF02120138D6FF02120138B3
:1007F300D9FF02120138CEF602120138E2F60212D4
:1008030001385CF70212013840F80212013817FA76
:10081300021201387CFA02120138D3FA02120138AB
:10082300F87F00120138219803120138BC99031292
:1008330001381D9A03120138639A03120138DDF758
:1008430001120138DAF9011201388AFB0112013869
:100853005FFC0112013800FD011201381FFD011276
:1008630001386CFE01120138ABFE01120138F3FEB0
:1008730001120138C99F031201381BA0031201386A
:10088300A5A0031201380CA103120138DC95031251
:100893000138069603120138D49603120138AF9734
:1008A30003120138E7BD02120138AEBE021201384D
:1008B300E5BE021201380FBF021201386FBF0212E8
:1008C3000138C5BF021201382AC002120138C2C062
:1008D30002120138D1C10212013868C30212013871
:1008E300F5C3021201385CC40212013873C4021248
:1008F30001388DC502120138CBC502120138A7DCBD
:100903000112013828E001120138B0E10112013867
:1009130007E20112013826E201120138A4E20112B2
:1009230001383AE4011201381FE5011201382DE9BB
:100933000112013803EA0112013833870312013827
:10094300B18703120138CE87031201385788031287
:100953000138828803120138148903120138208A6E
:1009630003120138579C031201389C9C031201386F
:10097300F09C03120138739D03120138EB9D03129F
:100983000138397E00120138507E00120138817E11
:1009930000120138BC7E00120138E67E00120138D5
:1009A300107F00120138277F001201383E7F0012AA
:1009B3000138557F001201387E7F00120138917F84
:1009C30000120138A77F00120138BA7F00120138E4
:1009D300E17F0012013801980212013805990212D1
:1009E30001383D99021201386099021201386B995E
:1009F300021201388E99021201389D9A02120138AF
:100A0300729B02120138ED9B02120138759C02128F
:100A13000138B09C02120138E79C02120138759D1F
:100A2300021201384E9E02120138AE9E02120138A4
:100A3300B99E02120138389F021201383B9F0212FD
:100A430001383E9F02120138CD9F02120138D09F18
:100A53000212013800A0021201382AA00212013842
:100A630018A102120138CAA1021201380AE90212BE
:100A7300013832E90212013860E90212013897E9BC
:100A830002120138F5E90212013840EA0212013874
:100A93008BEA02120138CBEA0212013811EB02127F
:100AA30001383FEB02120138FCEB0212013806EC6D
:100AB3000212013813EC0212013846EC021201381B
:100AC30012ED021201381EED0212013836ED021248
:100AD300013840ED02120138C2A803120138D0A830
:100AE30003120138E8A80312013800A903120138E0
:100AF3001BB101120138C7B10112013842B2011210
:100B0300013863B3011201389FB30112013848B4AD
:100B1300011201382FB50112013893B601120138C1
:100B2300EAB6011201386BB7011201385BB8011242
:100B33000138A8B8011201382EB90112013860B981
:100B43000112013874BB01120138B6BB011201381E
:100B5300D4BB0112013857BC011201382BBD01125D
:100B63000138F3BD01120138A3CD0212013876CE4C
:100B7300021201381FCF0212013872CF021201385C
:100B830022D002120138AED0021201389AD10212D9
:100B93000138C9D102120138DCD20212013824D340
:100BA30002120138F9D30212013835D40212013886
:100BB30051D4021201385AAC031201389A8303123A
:100BC3000138B08303120138D68303120138F2844B
:100BD30003120138FC8403120138318603120138F1
:100BE3002987031201384CDA021201387CDB021226
:100BF3000138AFDB02120138F9DB02120138C0DD24
:100C0300021201382CA10112013896A101120138F8
:100C1300F5A20112013805A30112013832A3011212
:100C2300013889A30112013832A40112013839A510
:100C33000112013803A60112013863A7011201381A
:100C4300A6A7011201384BA80112013898A8011276
:100C53000138BEA801120138CCAA01120138D1AA69
:100C630001120138D6AC0112013823AD011201384B
:100C730096AD01120138C9AD011201386BAE0112F4
:100C8300013814AF011201384CAF011201384FAFD4
:100C93000112013897AF01120138D7AF01120138A1
:100CA3002EB0011201383D90031201385590031202
:100CB30001389D9003120138B39003120138FA9062
:100CC300031201380E92031201389B92031201386A
:100CD300E692031201381C29001201382829001258
:100CE3000138632900120138A82900120138682A43
:100CF30000120138EE2A00120138532B001201387A
:100D03007F2B00120138B82B00120138F62D001288
:100D13000138DA2F00120138C031001201380333D1
:100D230000120138513500120138633600120138C0
:100D3300AE3700120138BE3800120138DB3800121A
:100D430001381639001201383839001201389B393D
:100D5300001201385C3E00120138F13E00120138E6
:100D6300423F00120138693F00120138BB3F0012B5
:100D73000138D93F001201383340001201381C41B9
:100D83000012013892420012013816430012013852
:100D930073DF021201387DDF02120138C0DF021255
:100DA3000138DBDF021201386BE00212013893E0F5
:100DB30002120138D0E00212013807E102120138B1
:100DC30030E102120138A5E102120138BAE1021240
:100DD3000138CFE10212013800E20212013814E2B5
:100DE3000212013839E20212013873E202120138A9
:100DF3009FE202120138D7E20212013881E30212A4
:100E03000138CAE302120138F4E3021201381FE485
:100E130002120138C6A203120138008002120138FF
:100E23002E80021201387C81021201385C82021288
:100E330001387B8202120138F882021201383B83A7
:100E430002120138918402120138528502120138CC
:100E5300D987021201387A88021201387089021286
:100E630001386D8A02120138C78B02120138528C85
:100E7300021201386BA103120138D4A10312013805
:100E830028A2031201384FA20312013880A20312D1
:100E9300013861F202120138CEF20212013815F361
:100EA300021201382DF40212013829F50212013819
:100EB3000CF6021201387EB502120138C0B50212D7
:100EC300013892B6021201386BB70212013865B8C5
:100ED3000212013847B902120138B0B902120138BF
:100EE30066BA02120138DABA0212013846BB02129C
:100EF30001386FBB02120138E9BB0212013882BC10
:100F030002120138E7BC02120138FCBC021201389C
:100F130042BD021201385BBD02120138C0BD02128C
:100F23000138C3BD02120138598A03120138818A7C
:100F330003120138BF8A031201387D8B0312013873
:100F4300E48B03120138008C03120138288C03123E
:100F53000138588C03120138678C03120138E48C72
:100F6300031201380A8D031201386C900112013803
:100F73000A92011201382594011201386194011279
:100F830001388E9401120138739501120138BA9514
:100F930001120138FE950112013810960112013831
:100FA3005096011201387D9601120138C89601123C
:100FB30001380897011201383697011201388897D2
:100FC30001120138189801120138B69A011201383A
:100FD300CC9C011201380A9D011201389B9E01121B
:100FE3000138E09E01120138579F01120138A19F79
:100FF30001120138C79F0112013805AC02120138F2
:1010030084AC0212013846B20212013855B30212FF
:101013000138BDB40212013854B502120138135914
:10102300001201385C590012013889590012013845
:10103300BC5900120138C95900120138D5590012A0
:101043000138E75900120138CE5A001201382C5BDF
:1010530000120138615B00120138A45C00120138F0
:10106300F15C00120138155D00120138825D001237
:101073000138405E00120138F95E00120138665FE4
:10108300001201381860001201382860001201387C
:10109300AF60001201386E61001201389B610012CB
:1010A3000138146200120138716200120138BB6208
:1010B300001201385163001201381C640012013818
:1010C300D16400120138466500120138A765001289
:1010D30001381166001201384A6600120138EC66C5
:1010E30000120138FC67001201383C680012013815
:1010F300596800120138786800120138BF6800127D
:101103000138E468001201381169001201388B6953
:1011130000120138CC6900120138F06A001201385C
:10112300A06B00120138F76B00120138616C0012DA
:1011330001387A6C001201383BA2021201388EA2E8
:10114300021201389AA2021201386FA30212013867
:1011530096A302120138D1A3021201383DA4021250
:10116300013879A402120138B2A402120138CAA4C8
:10117300021201381FA50212013838A502120138E4
:1011830081A50212013894A502120138AEA50212FC
:101193000138C4A502120138F7A6021201383EA88D
:1011A3000212013840A9021201383AAA0212013888
:1011B300F37F00120138A6EA01120138D6EA0112C0
:1011C30001389EEE01120138F5EF01120138BEF02D
:1011D300011201383EF2011201380FF301120138F6
:1011E3004CF3011201386FF301120138ADF3011210
:1011F3000138B6F30112013800F4011201380AF480
:1012030001120138B4F4011201388DF501120138CD
:10121300E1F50112013843F60112013896F6011285
:101223000138C5F60112013802F701120138AC6C1E
:1012330000120138137000120138197000120138BE
:101243009B7500120138147A00120138EA7D0012EE
:1012530001380080031201387680031201388C8034
:1012630003120138CD8003120138078103120138BC
:10127300808103120138BB81031201382E820312CD
:1012830001386C820312013875820312013881829E
:10129300031201389D8203120138C88203120138F8
:1012A300DE82031201380783031201386A830312B3
:1012B300013847E4021201385AE40212013874E497
:1012C300021201389DE402120138E0E402120138EF
:1012D3001FE5021201385DE502120138C2E5021270
:1012E3000138D7E502120138E2E502120138EFE5D1
:1012F3000212013806E60212013814E6021201381E
:101303001FE6021201382BE6021201383EE60212F2
:10131300013849E6021201386CE60212013813E77C
:101323000212013823E7021201383DE702120138A5
:101333005AE70212013876E7021201389BE70212DC
:101343000138A6E702120138BBE702120138CFE7E2
:101353000212013830E80212013836E8021201386D
:101363003CE80212013842E8021201385AE802123C
:1013730001388DE8021201387DCE0112013801CF08
:1013830001120138B0CF011201380FD10112013817
:1013930030D3011201381CD40112013851D4011287
:1013A300013873D40112013822D5011201381AD73A
:1013B3000112013843D701120138D5D70112013880
:1013C30007D80112013814D8011201386BD8011261
:1013D300013891D801120138FEDA0112013801DC1B
:1013E3000112013859DC011201380CC00112013815
:1013F30016C101120138FDC10112013807C20112E1
:10140300013829C20112013835C201120138CEC395
:1014130001120138FDC30112013819C50112013847
:1014230072C501120138D8C601120138B7C70112BB
:10143300013813C80112013880C801120138BBC832
:1014430001120138FAC801120138B3CB0112013875
:10145300CDCB0112013859CC0112013867CC0112EE
:101463000138C0CC01120138CECC0112013841CD74
:1014730001120138A5CD01120138EFCD0112013857
:10148300D38C02120138F58C021201381B8F021221
:101493000138309202120138489302120138FB934B
:1014A30002120138DD9402120138249E031201381E
:1014B300499E03120138BB9E0312013829C602124A
:1014C300013832C6021201383BC60212013812C774
:1014D30002120138C3C802120138F9C802120138D6
:1014E30033C90212013869C902120138A3C90212B1
:1014F3000138D7C90212013803CA021201384CCA93
:101503000212013886CA02120138CFCA0212013808
:1015130027CB021201385CCB02120138B7CB02127F
:101523000138F1CB0212013842CC0212013878CCD7
:1015330002120138B2CC02120138E0CC0212013897
:1015430003CD0212013817AB0312013843AB031268
:1015530001389EAB03120138A8AB03120138B8ABB4
:101563000312013834AE03120138D5FF01E066706F
:101573001008A3E066700A08A3E066700408A3E0FD
:101583006622C3E7960809E7960809E7960809E77C
:101593009622C3E09608A3E09608A3E09608A3E08A
:1015A3009622C008C3E096F50808A3E0964208080F
:1015B300A3E096420808A3E09645087001D3D0083B
:1015C30022080808EAC0E0EBC0E086F0E7A4FA18B6
:1015D3000986F0E7A42AFA180986F0E7A42AFA187C
:1015E3000986F0E7A42AFA1986F0E7A4FBE5F02AB6
:1015F300FA190886F0E7A42BFBE5F03AFA190886F6
:10160300F0E7A42BFBE5F03AFA18180986F0E7A4F3
:10161300C5F02BFBE43AFA1908E7C5F0C6A426F691
:10162300E5F03BFBE43AFA1886F0E7A4F6E5F008A8
:1016330026F6E43B08F6E43A08F6D0E0FBD0E0FAFD
:1016430022E4CFC0E0E4CEC0E0E4CDC0E0E4CCC00F
:10165300E075F020C3E633F608E633F608E633F622
:1016630008E633F6181818EC33FCED33FDEE33FEC1
:10167300EF33FFC3EC9709ED9709EE9709EF97193D
:101683001919400FFFEC97FC09ED97FD09EE97FE42
:10169300191906D5F0BEECF709EDF709EEF709EFD6
:1016A300F7191919D0E0FCD0E0FDD0E0FED0E0FF3F
:1016B3002212171C18181812164412170B1919198D
:1016C3002212170B191919080808E618181820E729
:1016D300E012164412171C18181822090909E719F1
:1016E300191920E7DC080808E618181820E7030290
:1016F300164412171C18181812164412171C18181F
:101703001812170B19191922E4C397F709E497F76D
:1017130009E497F709E497F722E4C396F608E496F9
:10172300F608E496F608E496F6226017080808C659
:10173300A2E713C618C613C618C613C618C613C61F
:10174300D5E0E9226016080808C6C313C618C613F5
:10175300C618C613C618C613C6D5E0EA2270090810
:101763000808226016181818C6C333C608C633C63D
:1017730008C633C608C633C6D5E0EA22E627F6080C
:1017830009E637F60809E637F60809E637F622E0F0
:1017930026F608A3E036F608A3E036F608A3E036FB
:1017A300F622E026F008A3E036F008A3E036F008BE
:1017B300A3E036F022C3E697F60809E697F6080990
:1017C300E697F60809E697F622C3E096F008A3E049
:1017D30096F008A3E096F008A3E096F022E056F610
:1017E30008A3E056F608A3E056F608A3E056F6224F
:1017F300E056F008A3E056F008A3E056F008A3E093
:1018030056F022E0F608A3E0F608A3E0F608A3E00A
:10181300F622E6F008A3E6F008A3E6F008A3E6F054
:1018230022E0FAA3E0FBA3E0FCA3E0FD22EAF0A39D
:10183300EBF0A3ECF0A3EDF022CAC0E0E6F0A308BE
:10184300DAFAD0E0FA22CAC0E0E0A3C582CCC582AE
:10185300C583CDC583F0A3C582CCC582C583CDC561
:1018630083DAE6D0E0CA22C3E498F8E499F91218BF
:10187300AB8026C3E49AFAE49BFBE920E7E912185C
:10188300ABE498F8E499F922C3E498F8E499F912DF
:1018930018ABE498F8E499F9C3E49AFAE49BFB22C1
:1018A300EB20E7CFE920E7E0B90010BB0008E88AA6
:1018B300F084F8AAF022E4FBC8FA22EB70227B1032
:1018C300C833C8C933C9335007C39AC3DBF2800690
:1018D3009A50012ADBEAC833F4C8C933F4C9FA229F
:1018E30075F008E4C833C8C933C933C99AC99B50D2
:1018F30004C92AC93BD5F0ECFBC833F4C8E4C9FAE0
:1019030022600D08C6A2E713C618C613C6D5E0F3B6
:1019130022600C08C6C313C618C613C6D5E0F4224A
:10192300700422600D18C6C333C608C633C6D5E09B
:10193300F41822251810AF08F5184002151980086D
:10194300F51840021519D2AF22C0D0251810AF08E0
:10195300F518500205198008F51850020519D2AF81
:10196300D0D0222518F58210AF08F51840021519BA
:101973008008F51840021519D2AF8519832225185E
:10198300F582E43519F58322E4732518C582C0E096
:10199300E51934FFC583C0E0E518C3958224F81028
:1019A300AF08858319858218800885831985821875
:1019B300D2AFCEF0A3E520F0A37808E608F0A3DECB
:1019C300FAEFF0A3E58124FAF8E608F0A3E608F0BD
:1019D300A3E608F0A30808E608F0A3E608F0A315B9
:1019E300811581D0E0FED0E0F8158115811581E8DD
:1019F300C0E0EEC0E0222518C582C0E0E51934FF3F
:101A0300C583C0E0E518C3958224F910AF08858328
:101A1300198582188008858319858218D2AFCEF084
:101A2300A3E520F0A37808E608F0A3DEFAEFF0A31D
:101A3300E58124FBF8E608F0A3E608F0A30808E62E
:101A430008F0A3E608F0A315811581D0E0FED0E0ED
:101A5300F815811581E8C0E0EEC0E0228519838581
:101A63001882E0A3FEE0A3F5207808E0A3F608DFE0
:101A7300FAE0A3FFE0A3C0E0E0A3C0E0E0A3C0E07E
:101A8300E0A3C0E0E0A3C0E010AF0885821885831F
:101A9300198008858218858319D2AFD083D082023A
:101AA3000135851983851882E0A3FEE0A3F520782C
:101AB30008E0A3F608DFFAE0A3FFE0A3C0E0E0A399
:101AC300C0E0E0A3C0E0E0A3C0E010AF0885821847
:101AD3008583198008858218858319D2AFD083D076
:101AE3008222C0D02518C582C0E0E51934FFC58322
:101AF300C0E0E518C3958224F310AF0885831985E8
:101B030082188008858319858218D2AFC8F0A3E9AB
:101B1300F0A3EAF0A3EBF0A37908E709F0A3D8FA5E
:101B2300ECF0A3EDF0A3EEF0A3EFF0A3D0E0F0A36D
:101B3300D0E0F0A3D0E0F0A3E520F0A3E5F0F0A31C
:101B430022851983851882E0C0E0A3E0F9A3E0FAB7
:101B5300A3E0FBA37808E0F608A3DFFAE0FCA3E028
:101B6300FDA3E0FEA3E0FFA3E0C0E0A3E0C0E0A389
:101B7300E0F5D0A3E0F520A3E0A3F5F010AF0885CE
:101B830083198582188008858319858218D2AFD07E
:101B930082D083D0E0F8D0E03274048006740280EF
:101BA300027401C0E0F404121966D0E012183C225A
:101BB3007404800474028000CCC0E0EDC0E0E5183A
:101BC300C39CCCAD1950011D10AF068C188D198024
:101BD300068C188D19D2AF121849D0E0FDD0E0FC65
:101BE30022D083D082E9C0E0E493A3C386F0C5F09A
:101BF30095F0F908E493A386F0C5F095F0700BE433
:101C030093A3C3994005E9048002A3E475F002A4F9
:101C13002582F582E5F03583F583D0E0F9E493A3DB
:101C2300C0E0E493C0E022D083D082ECC0E0EDC0FA
:101C3300E0E493A3FCE493A3FDED4C600D121C764A
:101C4300EC24FFFCED34FFFD80EFE493A3FCE4936D
:101C5300A3FDED4C600D121CB5EC24FFFCED34FF2D
:101C6300FD80EFD0E0FDD0E0FCE493A3C0E0E4937B
:101C7300C0E022C0E0C3E493960874019396184031
:101C83000FE4936670080874019366187000701966
:101C9300A3A3C3E49396087401939618A3A3400DDA
:101CA300D0E0D0E0D0E0021C66A3A3A3A3A3A3D0FB
:101CB300E022C0E0C0F088F0E49366700808740185
:101CC3009366187000A8F0A3A3700BD0F0D0E0D0F7
:101CD300E0D0E0021C66A3A3D0F0D0E022C2AF02A2
:101CE300000022C0E074F2121AE5A2AFE433FED280
:101CF300AFE589A2E04006E589A2E150031207E4BB
:101D0300758900758900C2C5751A00EEA2E092AF0D
:101D13007F01021B44C0E0C0D0E8C0E0E9C0E0E5B9
:101D2300A8D2AFC2C7751A00A2E7A2E792AFD0E06C
:101D3300F9D0E0F8D0D0D0E03274F51219F9EAFE08
:101D4300EBFFEE2434F8EF3400F988088909EE2418
:101D530035121E68F8EE2437121E68F50AEC850A60
:101D6300F0A4FCAAF0850AF0EDA42AFDE82CF8E41F
:101D73003DF97A257B001218ABEA85088285098331
:101D8300F074075AF87401B800028004C333D8FC16
:101D9300FBEA131313541FF8EE28F8EF3400F9E8A5
:101DA300245DF582E9121E6B5B6003EA801CEE245E
:101DB30036121E68F5F0EA84A8F0EE28F8EF340036
:101DC300F9E82438F582E9121E6BF97F04021AA59B
:101DD30074F51219F9EAFEEBFFEE2434121E68C003
:101DE300E0EE2435F582EF3400F583D0E0F08E8207
:101DF3008F83A3A3A3A3A3E0FAA3E0FB8E828F8325
:101E0300A3A3A3A3A3A3A3E0FCA3E0FDECC39AF5C0
:101E13000AED9BF50BEE247FF508EF3400F50985F9
:101E23000882F583E06401702BEE2480F582EF34A1
:101E330000F583121BB7121E71740212194CE9606C
:101E4300137C0D7D07EEFAEFFB1210D8850882850F
:101E53000983E4F0AC0AAD0BEEFAEFFB121D3C1262
:101E63002905021DCEF582EF3400F583E022C082FE
:101E7300C083851882851983E0F8A3E0F9C3EA9C3F
:101E8300EB9D5010C3EC98ED99401BC3EA98EB9976
:101E93005014800EC3EA98EB994007C3EC98ED9970
:101EA3004004790180027900D083D08222EAC39C66
:101EB300FAEB9DFB2274ED1219F99005D3E0640847
:101EC3006005E06407702C9061C8E060269006010D
:101ED300E0F874FF68601CE875F003A4C8AAF02A50
:101EE300F9740328FE740639FF8E828F83A3A3A39C
:101EF300E070057900022058EE2468F510EF3400F5
:101F0300F511906060E0851082851183F0750A7683
:101F1300750B07750800750900E5D914F50EE5D9A9
:101F23005403F50F601CEE2482F50CEF3400F50D1D
:101F33007403650F6058E50E6013EE2467121E6884
:101F4300700B793DEEFAEFFB1210FC80A69007713F
:101F5300E064016026850C82850D83E060047804CB
:101F630080027800850E08E508C398FA95E0FB1215
:101F73000F7C8A088B09EA4509700612135A021E60
:101F8300F6850C82850D83E070048A0A8B0B78003A
:101F93008016E5D9C0E08812E50A2512F582E50B23
:101FA3003400F583D0E0F008E8C3950E40E4850CD7
:101FB30082850D83E0602874FC250EF50E780A12E5
:101FC3001BA0AC0EA90FEEFAEFFB1211AA740212BA
:101FD300194CE9700AAA08AB0912087A021F457462
:101FE30003650F6058850E0C750D00780C121BA04D
:101FF300AC0AAD0BAA08AB0912116E740212194C8C
:10200300851082851183E0F87480687005750C7FF4
:102013008002880CE50CF50A780A121BA4E50FF57B
:102023000A780A121BA4A90EAC08AD09900601E0B8
:10203300FA7B00120E14740212194C80139005D30C
:10204300E06408600BAC0AAD0BEEFAEFFB12124032
:1020530012136679017F0C021AA574F31219F9742D
:10206300FC121936EAFEEBFF8908A2AFE433F50947
:10207300C2AFEE2463F50AEF3400F50B8010AA0A11
:10208300AB0B12112612087A900714E004F0850AAC
:1020930082850B83E0F8A3E0F9E849602FE8240286
:1020A300FAE93400FBEA2402F50CEB3400F50D7871
:1020B3000C121BA08A828B83E0FCA3E0F9EEFAEFFB
:1020C300FB12111A740212194CE960B2900714E062
:1020D3006057900715E0F8900714E0C398500C740C
:1020E3000265087044900716E0603E8E828F83A3DA
:1020F300A3A3A3E085188285198312213C740212DD
:102103001981E812213C900713E028F07402121998
:1021130081AC82AD83851882851983AA82AB8379CA
:1021230001120E20900714E4F0E509A2E092AF74C7
:102133000412194C7F06021AA5F0A3E4F0900714C9
:10214300E0F82200008521878522C622C0E074EFD3
:10215300121AE5A2AFE433FEC2AF759B0090618211
:10216300E0A2E05012E591A2E0500C7591FE7401DB
:1021730065217003121EB8E0A2E55051E591A2E576
:10218300504B7591DF9005D3E064076005E0640868
:1021930070237401652170357901900601E0FA75A9
:1021A300F003A4CAA8F028FB74032AFA74063BFBC5
:1021B30012205D8018E0640D70139005F5E004F0C3
:1021C30064287002E4F07A00E0F912136C906182E3
:1021D300E0A2E64003022276E591A2E64003022252
:1021E300767591BF9005D3E06405700812128212D0
:1021F300128E80031212887521001212FAE99005DB
:10220300D4F079001212EE1210427A017B0090058D
:10221300D2E0F912056E907803E06442705590079E
:1022230075E014F0704DC2AF12222E00782AD0E070
:10223300F618D0E0F6E59F540770057509FF800393
:1022430075097FC4C0E07829E6F50808E65509F565
:1022530009740B7808121914D0E02508F8906270FD
:10226300E0A2E740F8E8C333906272F0906270E056
:10227300D2E0F0906181E0A2E35009E5E9A2E350E6
:102283000375E9F7A3E0A2E75009E591A2E750033C
:1022930075917FEEA2E092AF7F04021B44C0E0C0C1
:1022A300D0C082C083906183E0A2E05009E5BFA261
:1022B300E0500375BFFEE0A2E15009E5BFA2E15083
:1022C3000375BFFDE0A2E25009E5BFA2E25003752A
:1022D300BFFBE0A2E35009E5BFA2E3500375BFF7DC
:1022E300E0A2E45009E5BFA2E4500375BFEFE0A20A
:1022F300E55009E5BFA2E5500375BFDFE0A2E65054
:1023030009E5BFA2E6500375BFBFD083D082D0D00A
:10231300D0E032C0E074F2121AE5E5A7A2E4500F50
:10232300E5A1A2E4500953A7EF75A1EF12236AE5D3
:10233300A7A2E5500CE5A1A2E5500653A7DF75A1BE
:10234300DFE5A7A2E15009E5A1A2E1500375A1FDD4
:10235300E5A7A2E2500CE5A1A2E2500653A7FB7544
:10236300A1FB7F01021B4474F81219F97521019036
:1023730005D3E0640670077A007B0012126AA2AFED
:10238300E433FED2AF9005D9E0640170187A207B64
:10239300009005D2E0F91205F87A207B009005D26F
:1023A300E0F9120574906182E0D2E6F0900772E0E2
:1023B300602185C62280169005D8E064017008E587
:1023C300C654F84405F5C653BEFC12214874016592
:1023D3002160E4EEA2E092AF7F01021AA58E238F63
:1023E30024858228858327851882851983E0CEA3D7
:1023F300E0CF852882852783EBC9EAC8EDCBECCAF9
:1024030075F010C3E833C8E933C9EA33CAEB33CBF9
:10241300C3EA9EF526EB9FF525B35004AB25AA2608
:10242300EC33CCED33CDD5F0DAAE23AF242274E90F
:102433001219F974FA121936EAFEEBFF8C088D09AA
:102443009005D3E024F7C3940550067510010225C7
:102453005C1211E08A0A8B0BEA450B7003022559C3
:102463001212A08A0C8B0D1212A0EA650C7003EBFA
:10247300650D60ECEEFCEFFD851882851983AA8259
:10248300AB831212A6850A82850B83A3A3780C1251
:102493001806908F96780C1217E085188285198399
:1024A3007814121806908F9678141217E0780C7926
:1024B30014121585501F780C79141217B8908F7A5F
:1024C300780C1215A54047850C10850D11850E1249
:1024D300850F138045908F7A851410851511851605
:1024E300128517137810790C1217B878101215A5E6
:1024F300501C7510007511007512007513017810CA
:1025030079141217B87810790C12177F800C751094
:1025130001751100751200751300740978101217F4
:1025230060908FCA780C1218067810790C12164432
:102533009005D3E06408600AE064066005E0640582
:102543007020908FBA78101215A55016908FA2782C
:1025530010121792800C751000751100751200751A
:1025630013008508828509837810121815740612E2
:10257300194C7F10021AA574F71219F91212B890A8
:102583000770E064017010906245E4F0A3F053F427
:10259300F343FE0C5390F3121258E5C6548044499A
:1025A300F5C6E59E547F644970F8906185740FF019
:1025B30090076EE0F47002A3E0602C7508017509C2
:1025C3000090076EE07808121923E508F4FAA3E0F7
:1025D300600814600A14600C800DEA52808008EAD7
:1025E30052908003EA52A079007F02021AA574F781
:1025F3001219F9E9FEEAFF74016E700C7A807B0010
:102603009005D2E0F912056E902914E493F4600862
:10261300E493F9121024800953C680E59E547F7019
:10262300FA12125E900770E06401700312105A9060
:10263300076EE0F47002A3E0602A750801750900D3
:1026430090076EE07808121923AA08A3E060081423
:10265300600A14600C800DEA42808008EA42908090
:1026630003EA42A01211E08A088B09A808A909E825
:10267300496017E5E170FCE82414F582E93400F5BC
:1026830083E0F874FF68600288E174016F700A7A6E
:10269300019005D2E0F91205C80225EC74F1121974
:1026A300F98A088B098C0A8D0B908F96780812177C
:1026B300E0740F121981780C121806908F96780C1B
:1026C3001217E07808790C121585908F7A501078DC
:1026D30008790C1217B878081215A54014800E78E3
:1026E3000C79081217B8780C1215A55004790180DB
:1026F3000279007F08021AA574ED1219F98A088B72
:10270300098C0A8D0B908F9678081217E0741312B8
:102713001981780C121806908F96780C1217E078AE
:102723000C790812158540117808790C1217B8AA8C
:1027330008AB09AC0AAD0B8022751000751100754A
:1027430012007513017810790C1217B878107908F4
:1027530012177FAA10AB11AC12AD137F0C021AA58E
:10276300908F9678081218068A828B83780812173E
:10277300F37F04021AA574F51219F98C828D8378FC
:10278300081218068A828B8378081217CC1227CD79
:10279300C3E098F0A3E0991227BF401E908FE6781C
:1027A300081218068A828B8378081217A58E828FE7
:1027B30083E02420F0A3E0344EF080A4F08E828FD7
:1027C30083C3E09420A3E0944E22EA2404F8EB347C
:1027D30000F9E8FEE9FF8C828D83A3A3A3A3E0F8AD
:1027E300A3E0F98E828F832274F51219F9E9FE9022
:1027F3000728E0FAA3E0FBEEC333F8E433F974E708
:1028030028F582748E39F583E02AF508A3E03BF5B9
:10281300097808121BA0908F8A1218241223E074DF
:102823000212194C8A088B098C0A8D0B74107808D4
:10283300121747AA08AB097F04021AA574F11219EB
:10284300F98A0C8B0D8C0E8D0F740F121981E0FA1F
:10285300A3E0FB7411121981E0F508A3E0F50978F0
:1028630008121BA0EA2401F508EB3400F509E4F58E
:102873000AF50B780C79081215C4908FB6780812F4
:102883001806780C79081215C4AA0CAB0DAC0EAD62
:102893000F1223E0740212194C8B09EA45096004F4
:1028A3007A0180027A00EC2AFCED3400FD741312E5
:1028B3001981E0F8A3E0F9E8FEE9FFECF8EDF97A15
:1028C300717B021218AB88088909E4F50AF50B8EAF
:1028D300828F837808121815ECF8EDF97A717B0270
:1028E3001218AB8A088B09740578081219238E8293
:1028F3008F83A3A3A3A3E508F0A3E509F07F080250
:102903001AA5C082C083E9906000F0D083D08222F0
:10291400FFFFFFFFFFFFFFFFC082C083E9900CF5BC
:10292400F0022BAB74F712198DE9900512F07C4A72
:102934007D057AFF7BFF120D6690051374FFF0A3EB
:10294400F0A3E4F0A3F07905120CEE900512E0F97F
:10295400120C107A847B0D120F2E7F01021A5F7401
:10296400F412198D8A088B09EB548060309005129B
:10297400E0F91205568A0A8B0BAE0AAF0BEE4F60D4
:10298400138E828F83E064B07003120D06EEFAEFAB
:10299400FB120544AA08E5096480FB80047A007BE5
:1029A40000022B7A74F212198D74FC121936EAFEA5
:1029B400EBFFEE4F60387402121981EEF0A3EF12B0
:1029C4002DDFECF0A3ED122DDFAA82AB83120C0AEB
:1029D400E9F50870737412121981123993E50A45E6
:1029E4000B60658E828F83122A56EE4F7005750830
:1029F4000280557A067B001205B08A0C8B0DA80C58
:102A0400A90DE8497005750813803D88828983E41F
:102A1400122A60A3A3EEF0A3EF123E2CE50AF0A362
:102A2400E50BF0900518122AE89005186017E0FCF1
:102A3400A3E08003EAFCEBFD8C828D83122AE8700C
:102A4400F38C828D831238B8A908740412194C02CD
:102A5400402EA3A3A3A3E0FEA3E0FF22F0A3F088EB
:102A64008289832274F212198D890AE975F017A4F8
:102A7400FEAFF0900517E4F0900515122AE8600AFD
:102A84001205B6900515E4F0A3F0EEFAEFFB12057B
:102A9400B08A088B09EA4509602FEEFCEFFD790046
:102AA400120532900515E508F0A3E509F07B0080D6
:102AB40008122AD2E4F0A3F00BEBC3950A40F2E526
:102AC4000A900517F079008002791302402EEB7505
:102AD400F017A4F8A9F0900515E028FAA3E0398AC4
:102AE40082F5832212364EEA4B2274F412198D7544
:102AF4000800750900740C121981123E00FEE9FFEA
:102B0400800CE5082401F508E5093400F509C3E55E
:102B1400089CE5099D503285080A85090B740378E1
:102B24000A121923EA250AF8EB350BF988828983FE
:102B3400A3A3A3A3A3A3123993EE650A7003EF65BD
:102B44000B70BFE8FAE9FB80047A007B00802774ED
:102B5400F412198D7900EAA2E0501B75083A750940
:102B64008F7808121BA07C047D007AF77B0C120C72
:102B7400E8740212194C7F04021A5FC082C0839069
:102B84000518122BB2601C88828983A3A3E06A70A3
:102B940003A3E06B8882898370E8A3A3A3A31236FE
:102BA4004A80047A007B00D083D08202013512412E
:102BB40001E8492274EE12198D74FC121936EAFEEA
:102BC400EBFF851882851983E4F0A3F0EE2402124A
:102BD400389CEE2405122DCDEE2404F50EEF1231AF
:102BE400B2E024FE603924FC604624FE605224FED8
:102BF400605E24FE7003022CD224FE7003022D4A70
:102C040024FE7003022D5924FE7003022D6824FC57
:102C14007003022D7724FE7003022D86022DC390CB
:102C240005317417F0A3E4122DE7120988022DC3AD
:102C3400851882851983AC82AD83120D0C022D9305
:102C4400851882851983AC82AD83120D12022D93EF
:102C5400850C08850D097402121981AC82AD838537
:102C6400088285098312364A120C2E8A0C8B0DAC0D
:102C74000CAD0DEC4D6042E4F50CF50D780C121B17
:102C8400A0750C31750D05780C121BA0750C3275EE
:102C94000D05780C121BA07408121981121BB77948
:102CA40016123644120D4E740812194CE9F50C70C4
:102CB4000B1236401209A0800F750C01850882851D
:102CC4000983122DD51238B8850C08022D9674028A
:102CD400121981AC82AD83850C82850D8312364A2C
:102CE400120C2E8A108B11AC10AD11EC4D60438583
:102CF4000C82850D83A3A3121BB7751031751105C2
:102D04007810121BA07510327511057810121BA0D3
:102D14007408121981121BB77916123644120D4E1B
:102D2400740812194CE9F509700B1236401209A601
:102D3400800F750901850C82850D83122DD51238FB
:102D4400B8850908804C851882851983AC82AD83C7
:102D5400120D18803A851882851983AC82AD8312CE
:102D64000D1E802B851882851983AC82AD83120DCC
:102D740024801C851882851983AC82AD83120D2AA8
:102D8400800D851882851983AC82AD83120D30E9DC
:102D9400F508E50860298E828F83A3E06414601F20
:102DA400850E82850F83E0900531122DDF1240FDE0
:102DB4009005321238B8E508A3122DE7120982EE05
:102DC400FAEFFB120CAC0237A4F50CEF3400F50D4E
:102DD4002212410185188285198322F08518828583
:102DE400198322F07C317D05850A82850B83123696
:102DF4004E2274EE12198D74FC1219368A0A8B0B4A
:102E04008C0E8D0FEA2405F508EB3400F5097C15CA
:102E14007D0079007A317B05120532E5082402F53C
:102E24000CE509122DD085188285198385821085B9
:102E340083117810121BA0850882850983A3A3A39C
:102E4400A31232FA121BA0E5082405F510E5093493
:102E540000F5117810121BA0850C82850D831236A3
:102E640054120C28740612194C8A108B11AE10AF30
:102E740011E50A2402F50AE50B12389FEE4F7003A0
:102E8400022FBC8017740212198112364A88828973
:102E940083EAF0A3EBF0900531E004F0900531E013
:102EA400C394054003022FBCE4F510F51178101209
:102EB4001BA075101A7511057810121BA075101B34
:102EC4007511057810121BA07406121981121BB714
:102ED4007910EEFCEFFD123644120D4E74081219EF
:102EE4004CE9705E850882850983A3A3A3A3A3A3E9
:102EF400A3E0F890051AE06870481232FA121BA099
:102F04007C1B7D05E5082408FAE5093400FB12055D
:102F14002C740212194CE960298E828F83A3A3A317
:102F2400A312364A900531E0F51074027810121994
:102F34002374322510F58274053511F583EAF0A364
:102F4400EBF07402121981858210858311781012B6
:102F54001BA07402121981121BB7850C82850D8384
:102F6400124112120C34740412194C8A108B11AED3
:102F740010AF11900531E0F510751100740278104E
:102F840012192374312510F874053511F9888289D2
:102F940083A3122AE87003022E80E82403F8E9349C
:102FA40000F9EE4F6003022E898882898374FFF052
:102FB400A3F0900531E004F0900531E0600A123688
:102FC400401209947900800B8508828509831238A0
:102FD400AF790A0237A474EA12198D74FE121936F5
:102FE4008C128D13EA2405F50CEB12427C122A5A3A
:102FF400750800750900EA2402F510EB3400F51198
:1030040085188285198385820A85830B780A121BA9
:10301400A0850C82850D83A3A3A3A31231BC121B2C
:10302400A0E50C2405F50AE50D12389F780A121B59
:10303400A0850C82850D83124110120C287406128F
:10304400194C8A0A8B0BEA450B700302316DEA2492
:1030540004F50EEB1231B2122A5A8A828B83A3A38F
:10306400A3E0F985108285118312364A120C16E901
:10307400F509600302316DE4F514F5157814121B9B
:10308400A075141A7515057814121BA075141B75F8
:1030940015057814121BA07406121981121BB77936
:1030A40013AC0AAD0B85108285118312364A120DBA
:1030B4004E740812194CE9F509600302316D90054C
:1030C4001AE0F8E5087009E02402900532F0801750
:1030D400900532E0FCE82402FAE43400FBEA6C7068
:1030E40001EB6003023171850882AA821232F194E5
:1030F400141232E95073850E82850F83E0C0E074A8
:10310400332A1231A9D0E0F00508850E82850F8399
:10311400A3E0C0E085080A7433250A1231A9D0E07F
:10312400F0050890051A1231BC121BA07C1B7D050A
:1031340085080A7433250AFA74053400FB12051A4B
:10314400740212194C90051AE02508F50874FF6EF4
:10315400700374FF6F6012EE24010EEF3400FFE57C
:1031640008C394145003023004E508601312353583
:1031740085108285118312364A12099A79008014C7
:10318400E509700375090A851282851383EEF0A39D
:10319400EFF0A909740212194C7F0E021A5F850818
:1031A4000C7433250CF58274053400F58322340045
:1031B400F50F850E82F58322123E3F2274EE12191A
:1031C4008D74FE1219368C0E8D0FEA2405F50CEB66
:1031D400122DD0750B00900531E4F0F50AEA2402B3
:1031E400F508EB3400F5098049900531E0FA9005C3
:1031F4001AE0F81232F194171232E9400D900531B9
:10320400E0F87416C39890051AF01232FA121BA053
:103214007C1B7D0574322AFA74053400FB12051AEE
:10322400740212194C90051AE0F8900531E028F068
:10323400050AE50C2416F582E50D1231ADE0F8E53A
:103244000AC39840030232D2900531E0C394165069
:103254007DE50AC333F8E433F9E50C28FEE50D39BE
:10326400FF851882851983AC82AD838E828F831289
:10327400364A120C2E8A108B11AC10AD11EC4D7025
:1032840005750B018043E4F510F5117810121BA0AD
:1032940075101A7511057810121BA075101B751185
:1032A400057810121BA07406121981121BB7791627
:1032B40085088285098312364A120D4E7408121944
:1032C4004CE9F50B70030231ED1238AB80107C3100
:1032D4007D0585088285098312364A1209ACA90B3B
:1032E40074020237A6E99400C365D03322EA28F8B1
:1032F400E43400F9E822E0F5107511007810227426
:10330400EA12198D74FC1219368A0C8B0D8C128DED
:1033140013EA2405F50AEB12389F750800750900B5
:10332400E50A2402F510E50B3400F51174021219B4
:103334008185820E85830F780E121BA0850A8285F3
:103344000B83A3A3A3A3123DEB121BA0E50A240540
:10335400F50EE50B3400F50F780E121BA0851082D4
:103364008511831238A5123644120C2874061219DA
:103374004C8A0E8B0FAE0EAF0FE50C2402F50EE552
:103384000D3400F50F80408882898374FFF00508AE
:103394001231A274FFF0050890051AE0F50C750DC2
:1033A40000780C121BA07C1B7D0585080C7433254A
:1033B4000CFA74053400FB12051A740212194C90AD
:1033C400051AE02508F508EE4F60718E828F83A3FD
:1033D400A3A3E0F9850E82850F8312364A120C16D8
:1033E400E9F509EE2404122DCDE97044E4F514F551
:1033F400157814121BA075141A7515057814121B70
:10340400A075141B7515057814121BA074081219E5
:1034140081121BB77911EEFCEFFD850E82850F83B7
:1034240012364A120D4E740812194CE9F509602738
:10343400850C82850D8312352B1238B8E50870038C
:10344400023511123535850E82850F8312364A12E4
:1034540009B27900023526850882AA82EA90051A03
:103464007009E02404900532F08022E0F8900532DF
:10347400E0F514E82404FCE43400FDEC6514700168
:10348400ED70C01232F194121232E950B6850C82FA
:10349400850D83E0C0E074332A1231A9D0E0F00531
:1034A40008850C82850D83A3E0C0E01231A2D0E030
:1034B40012354785820C85830D780C121BA0740489
:1034C400121981121BB785108285118312411212C1
:1034D4000C34740412194C8A0C8B0DAE0CAF0D8590
:1034E400080C7433250CF874053400F9EE4F70039E
:1034F40002338B851882851983E08882898312358B
:1035040047A3E0C0E01231A2D0E0023399E509708C
:103514000375090A850A82850B8312352B1238B884
:10352400A909740402319A12410185128285138318
:1035340022900532E0F5F0E50884900531F07C3105
:103544007D0522F005088518828519832274EC1202
:10355400198D74FE1219368A088B098C0E8D0FEAA8
:103564002405FEEB3400FF851882851983AC82ADF7
:10357400838E828F8312364A120C2E8A0A8B0BEEAC
:103584002418122DCDEA450B700302361B12378D19
:10359400503285188285198312364A120D428A10D8
:1035A4008B11EA4511606B7912AC0AAD0B85088268
:1035B40085098312364A85108285118312198BE995
:1035C400F50A7058E4F50AF50B780A121BA08E82EE
:1035D4008F83A3A3E0F50A780A121BA0EE2403123A
:1035E400389C780A121BA08E828F83123654120DD7
:1035F40054740612194CE9F50A7021850C82850D64
:1036040083E0701F85088285098312364A1209B83F
:103614008011750A0E8009750A018004E50A6003A9
:103624001238AB850C82850D83E06004790080023A
:10363400A90A740212194C7F0C021A5F7C317D05B1
:10364400850A82850B8312364E22E0FAA3E0FB2220
:10365400E0FCA3E0FD85088285098312364E2274BE
:10366400EE12198D74FE1219368A088B098C0C8D92
:103674000DEA2405FEEB3400FF750E0085188285E3
:103684001983AC82AD838E828F8312364A120C2E3C
:103694008A0A8B0BEA450B700302377912378D5077
:1036A4003585188285198312364A120D428A0E8B8B
:1036B4000FEA450F605E7912AC0AAD0B850882856E
:1036C400098312364A850E82850F8312198BE9F518
:1036D4000E600302377C850882850983123993AA18
:1036E4000AFB120D368A108B11A810A911E8497033
:1036F4001E7AFF7BFF120D368A108B11A810A911B8
:10370400E849606C88828983E50AF0A3E50BF075CB
:103714000A008007750E0E805F050A900517E0FA0F
:10372400E50AC39A504AE50A75F017A4FAABF08883
:10373400828983A3A3E02AFAA3E03BFB8A828B83DA
:103744001238A5EC4D70D2750A17750B00780A1261
:103754001BA0EEFCEFFD12051A740212194CEEFCCC
:10376400EFFD85088285098312364A1209BE80144A
:10377400750E098003750E011240F9850C82850DC2
:10378400831238B8A90E0232E4E5082402F508E5EC
:10379400093400F5098A828B83A3A3A3E0A2E5225E
:1037A400740412194C7F0A021A5F74EC12198D8C7E
:1037B400108D11EA2405F50CEB122DD0750F00EADB
:1037C4002402F50AEB12389F850A82F58312364AE1
:1037D400120D368A088B09EA45097003023891757F
:1037E4000E008071850C82850D83E06401704F8E1C
:1037F400828F83A3A3121BB78E828F83A3A3A3A359
:10380400E0F5127513007812121BA0EE2405F512D0
:10381400EF3400F5137812121BA0123644120D5423
:10382400740612194CE9F50F6014850C82850D831A
:10383400E4F01240F98510828511831238B87C17A0
:103844007D007900EEFAEFFB1205328E828F83E45D
:10385400F0A3F0050E900517E0F8E50EC398501E8E
:10386400E50E75F017A4F8A9F0850882850983A3ED
:10387400A31242861238A5EC4D60030237E885088E
:103884008285098374FFF0A3F0E50F7006123644B5
:103894001209C4A90F02363BF50AEF3400F50B22D6
:1038A400A3E0FCA3E0FD228E828F83124101850EEA
:1038B40082850F83E8F0A3E9F022C082C0839005DB
:1038C40013E06A7003A3E06B70067A137B0580042F
:1038D4007A007B00022BABC082C08378008C828D7F
:1038E40083E06A7003A3E06B7010E875F003A4F83A
:1038F400A9F0EC28FAED39FB8015088C828D83A39E
:10390400A3A3E06A7003A3E06B60DF7A007B00028C
:103914002BAB74F612198D120D008A828B83E5820B
:10392400458370067A007B008007A3A3A3A3123605
:103934004A023FAA74F212198DE9FE740E1219811B
:103944001239937410121981123E0B8C828D83E00C
:1039540064027036A3124107F50CA3E0F9A80C74B5
:10396400026870037429697021750C02750D007862
:103974000C121BA07808121BA0780A121BA0EEF9E7
:10398400120D78740612194C8002790102402EE05F
:10399400F50AA3E0F50B2274E812198D74FB1219D1
:1039A40036E9851882851983F08A168B17ECFEEDAB
:1039B400FF751000741D1219811240FD741D121937
:1039C400811238B88E828F83A3A3A3E0A2E4502D82
:1039D400741D12198112364A120D428A828B83E5B4
:1039E4008245837003023DDC790AEEFCEFFDAA16E2
:1039F400AB1712198BE9F5106003023DDF741F1237
:103A04001981123E0B7421121981123993742312F5
:103A14001981E0F50EA3E0F50F8E828F83E0640236
:103A24006003023D8AA31240FD850882850983A3B1
:103A3400858212858313EE2406122DCD8882898314
:103A4400E0FAA3E0F9EA2400F514E439F515781452
:103A5400121C2A0100002801287F3A07000228448A
:103A64003B0328B13A00297B3C0129A63C022947A3
:103A74003C03297B3C0429253D8A3DE50E450F6026
:103A840003023D85850C82850D83123E00FAE9FB15
:103A94008A828B83E0850A82850B83123E36121B51
:103AA400A08A828B83A3E0FCA3E0023D0FE50E45D0
:103AB4000F6003023D85850A82850B837401F01231
:103AC4003E13850882850983F07C007D008E828FF9
:103AD40083A3A3A3A3E02401FAA3E03400FB120C04
:103AE4002EEA4B60418A828B83E02402F8850A82A5
:103AF400850B83E028F0EA2404F8EB3400F988828B
:103B04008983E0851282851383123E48123E361261
:103B14001BA08A828B831238A4E5082403FAE509E2
:103B24003400FB023D14850A82850B83E02404F0F3
:103B34007C047D007900AA12AB13120532023DDF2A
:103B4400E50E450F6003023D85123E13FEA3E0FF20
:103B5400850A82850B837404F0EE850882850983C7
:103B6400F0EF851282851383F07403121981AC82FD
:103B7400AD83EEFAEFFB120C2E8A0C8B0DEA450D89
:103B84007003023C288A828B83A3A3122A567401F1
:103B940012198185820E85830F780E121BA074057D
:103BA400121981121BB77CFF7DFF120C34740412AE
:103BB400194C8B0FEA450F7033850C82850D8312E7
:103BC4003DEB121BA0850C82850D83A3121BB77CD1
:103BD400027D007A377B90120A60740412194CE952
:103BE400700A740112198174FFF0A3F08E828F831E
:103BF400E064027039750C02750D00780C121BA07C
:103C04008E828F831238A4E5082404FAE50934006F
:103C1400FB12051A740212194C850A82850B83E083
:103C2400240280097401121981EEF0A3EFF07401EB
:103C3400121981123DFCF07401121981A3123DF492
:103C4400023D7FE50E450F6003023D85850C8285AC
:103C54000D831238A5AA16AB17120D6C850A82853E
:103C64000B837402F0EA850882850983F085128249
:103C7400851383EB023D82E50E450F6003023D850B
:103C8400123E13F8A3E0F9850A82850B837402F0CF
:103C9400E8850882850983F0E98512828513830209
:103CA4003D82850C82850D8312364A120514EAFC86
:103CB4008C82A882C3950EE4950F405FE8650E7070
:103CC40002E50F70047C008022851882851983E048
:103CD400FAE50E2AFAE50F3400FBC3EA98EB9400E8
:103CE4005003E08005E50ECCC39CFCEC850A82857C
:103CF4000B83F08C0A750B00780A121BA0850C82CA
:103D0400850D83E0250EFCA3E0350FFDAA08AB0961
:103D140012051A740212194C023DDF751007023D98
:103D2400DFE50E450F705A850C82850D831240FD28
:103D3400850A82850B837407122A62123DF4122AC3
:103D440062A3E0851282851383F0E82402FAE93441
:103D540000FB8A828B83123DF4123E23123DFCA3A6
:103D6400123E2C123E05F0E82405F8E93400F988E7
:103D7400828983123E05A3123E48A3A3A3A3F08025
:103D84005A75100B8055741D12198112364A120D82
:103D9400008A828B83E5824583603D1240FD880C56
:103DA400890DE8450D6031780E121BA0780A121BAC
:103DB400A07808121BA07406121981E0F9EEFCEF3A
:103DC400FDAA16AB17850C82850D8312198B740618
:103DD40012194CE9F510800375100EA91074051220
:103DE400194C7F10021A5FE0F50E750F00780E2251
:103DF400E085088285098322123E5222124101E89D
:103E040022123E52A3A322E0F508A3E0F50922857D
:103E14000C82850D83E0F8A3E0F5838882E022A379
:103E2400A3F08A828B83A322F088828983A3A3A32D
:103E3400A322F08A828B83123E3F22E0F50A750B9F
:103E440000780A22F088828983A3123E5222E085F8
:103E54000882850983A3A32274EE12198D74FE12BD
:103E640019368A0A8B0BECFAEDFB7414121981E0F3
:103E7400F510A3E0F5117416121981E0FE741812FE
:103E84001981E0F50EA3E0F50F851882851983AC3E
:103E940082AD83120C2E8A0C8B0DEA450D60498588
:103EA400188285198312364A120D008A828B83E5A3
:103EB400824583602FA3A3123E0BE50845096024C5
:103EC400780E121BA07810121BA0EEF9AC0CAD0DED
:103ED400AA0AAB0B85088285098312198B74041214
:103EE400194C8006790E800279010232E474F612CC
:103EF400198D74FE121936740C121981123E008544
:103F04001882851983F07401121981E9F0E4F50827
:103F1400F5097808121BA07508027808121BA07412
:103F2400041219818582088583097808121BA0125E
:103F34000D54740612194C740212194C806874F7EB
:103F440012198DEAFEEBFF89087C4A7D05120D6C7F
:103F5400EA5402600BA908EEFAEFFB120C2280026D
:103F6400790102295E74F612198D74FF6A70037464
:103F7400FF6B70168C828D83123FAFE4F08C828DC0
:103F840083A3A3A3123FAFA38018120D3C8A088B0E
:103F940009A808A909E849600D8882898374FF1279
:103FA4002A60A3A3E4F07F02021A5F74FFF0A3F077
:103FB4008C828D83A3A32274F612198D120D3C8A70
:103FC400828B83E58245836006A3A3E0FA80027AAC
:103FD400007B0080D174F212198D8A088B09ECFEE3
:103FE400EDFF740E121981E0F50A120D3C8A0C8B58
:103FF4000DA80CA90DE8497026EEFCEFFD7AFF7BB5
:10400400FF120D3C8A0C8B0DA80CA90DE849700415
:104014007911801688828983E508F0A3E509F08880
:10402400828983A3A3E50AF079007F06021A5F74EC
:10403400EE12198DEAFEEBFF8C088D09890C7414BD
:104044001219811240FD741612198112364A750D27
:1040540000E84960030240F17402650C6003024009
:10406400EC7412121981124107FCA3E0F9EC24004C
:10407400F50EE439F50FEAF4F8EBF4F9EC58F8E549
:104084000F59F9E849705CE5082406F8ED3400F9A5
:10409400880A890B8882F583124112120D6C8A10EA
:1040A4008B11E50E65107004E50F65116042780E02
:1040B400121BA0850A82850B83124112120D7274A1
:1040C4000212194CE9F50D7027780E121BA0850811
:1040D40082850983A3A3124110120D8A7402121956
:1040E4004C800D750D808008750D0D8003750D0BCA
:1040F400A90D0237A98E828F8312410122E0F8A311
:10410400E0F92212410188828983E022A3A3E0FC22
:10411400A3E0FDEEFAEFFB2274E812198D74E712A6
:104124001936851882851983EAF0A3EBF08C168D75
:1041340017890E7508007509007431121981E0F5AC
:1041440012A3E0F5137433121981E0F514A3E0F51A
:10415400157435121981E0F50FE50975F003A4F81B
:10416400A9F0851882851983124286E0F47003A3AE
:10417400E0F47003024269EE2402F50CEF12427C73
:10418400E0700302426985160A85170B780A121B30
:10419400A0AC14AD15AA12AB13120CF474021219CC
:1041A4004C8A0A8B0BEA450B7003024269E4F51052
:1041B400F5117810121BA0740612198185821085DE
:1041C40083117810121BA07409121981858210853D
:1041D40083117810121BA0851282851383A3A3A3D5
:1041E400A3121BB77914AC0AAD0B8E828F831236DF
:1041F4004A120D4E740812194CE97069850A8285B9
:104204000B83A3A3A3A31240FD74021219811238D5
:10421400B8850C82850D83E0A2E05018A90E7402C3
:10422400121981AC82AD838E828F8312364A120CAE
:1042340046E94208850C82850D83E0A2E15026E51B
:104244000FF50A780A121BA4A90E7403121981AC83
:1042540082AD838E828F8312364A120C407401120F
:10426400194CE942080509E509C3940250030241C7
:104274005DA9087419023DE33400F50D850C82F53F
:104284008322E028FEA3E039FF8E828F832274F21A
:1042940012198DEAFEEBFF890B7401650B600E7435
:1042A40002650B706A7901120F4CE97062EEFAEF45
:1042B400FB120D368A088B09EA45096047750A0026
:1042C400800B7C177D007900120532050A900517D2
:1042D400E0F8E50AC3985021E50A75F017A4F8A997
:1042E400F0850882850983A3A3E028FAA3E039FBBB
:1042F4008A828B83122BB270C985088285098374E4
:10430400FFF0A3F07C4A7D05EEFAEFFB120D660286
:10431400402E74F212198D8A088B09ECFEEDFF749D
:104324000E121981123993900CF5E0F4603D7A096C
:104334007B0012053EEA4B60328A828B8374B1F0B3
:10434400A3E4123E25A3123E23A3E508F0A3E50946
:10435400124372EEF0A3EF124372A3A3E50AF0A393
:10436400E50BF0900CF5E0F912054A02402EF08AB4
:10437400828B83A3A3A3A3A32274F012198D74FACE
:10438400121936890BECFEEDFF750A008A088B09B9
:104394007808121BE4000410B045C043DE43F84320
:1043A40010442E444644694481449544BF444745DF
:1043B40058456F458A45B045B045D5447401650BF1
:1043C40060030245AB8E828F83E0F8C394034003FD
:1043D4000245ABE8900B420245877402650B60030B
:1043E4000245AB8E828F83124CAD900B43E8F0A351
:1043F400E90245877401650B60030245AB1245D899
:1044040040030245ABE89002CE0245877401650B78
:1044140060030245AB8E828F83E0F8C394054003AA
:104424000245ABE89002CF0245877401650B600337
:104434000245AB1245D840030245ABE89002D002D6
:1044440045877410650B60030245AB750810750948
:10445400007808121BA07AD17B0212051A7402128A
:10446400194C0245D17401650B60030245AB12453A
:10447400D840030245ABE89002E102458774016528
:104484000B60030245AB8E828F83E0900B4602459E
:10449400877404650B60030245AB8E828F83780CAE
:1044A400121806908F8A780C1215A550030245AB9A
:1044B4009002E3780C1218150245D1E96003024515
:1044C400AB120BCEE9700512073C80609003768036
:1044D4006E7407650B60030245AB75080675090029
:1044E4007808121BA08E828F83A3AC82AD837402E2
:1044F400121981AA82AB83120520740212194C7C12
:10450400007D00851882851983AA82AB838E828FF1
:1045140083E0F91206E2E9F508C3940A4003024570
:10452400CE120BCEE9700CA908120742795012087A
:10453400F8806F74772508F58274033400F583746A
:104544000180407401650B705E1245D85059E890A3
:1045540002E2802F7401650B704D8E828F83E0F828
:10456400C3940A5042E8900B4580187401650B709F
:10457400368E828F83E0F874F928C3940A5028E8B1
:10458400900B47F080477401650B701B900375E036
:10459400F88E828F83E0900375F0E87030E0640158
:1045A400702B1207308026750A188021C3EA9427DD
:1045B400EB940050157402650B700F8E828F83127A
:1045C40050AC120A6CE9F50A8003750A02A90A7450
:1045D40006024CA28E828F83E0F8C394022274F008
:1045E40012198D74CC1219368C0A8D0B7420121981
:1045F40081AC82AD8375838F75824074061218492D
:104604007420121981AC82AD831206E2E9F50874B4
:1046140044121981E0FEE9C3940A4003024750752D
:10462400F006E9A4F5097426121981AC82AD837AE7
:104634000E74202509F91208F2E97009743212196E
:1046440081E0FF80027F00900B42E06402700474FA
:10465400018001E4F50D780D121BA4EEFDEFFCA919
:1046640008AA0AAB0B120766740112194C7C147D5C
:10467400007900740C121981AA82AB83120532747A
:104684000C121981AC82AD837A1074242509F912B5
:1046940008F2E9703C7C1079FF740C121981AA822B
:1046A400AB83120592E97029741C121981AC82AD96
:1046B400837A0474252509F91208F2740C121981FD
:1046C400AC82AD83EFA2E0E433F9AA0AAB0B120A81
:1046D400F6851882851983AC82AD837A0C747025B3
:1046E40008F91208F2E97053851882851983AA82A1
:1046F400AB83120712750800E50875F003A4F8A946
:10470400F0851882851983E58228F8E583124EB670
:104714001250A6601D88828983A3A3E0F50E750F4D
:1047240000780E121BA0AA0AAB0B120D5A740212C7
:10473400194C0508E508C3940440BDEFA2E1500CF0
:104744009002CDE0F9AA0AAB0B120D6074046E70EE
:1047540027900B42E06402701F7A009002E1E0604F
:10476400010A9002CEE06004780480027800E84AEE
:10477400F9AA0AAB0B120BB679007434024CA2747A
:10478400F012198DEAFEEBFF8C088D09750A0AE90F
:10479400600C1460091460371460790248321207FF
:1047A40024E9F50AC3940A4003024832E50845099E
:1047B400607C750E06750F00780E121BA0EEFCEFE0
:1047C400FDAA08AB0912051A740212194C805F7510
:1047D4000B00750E06750F00780E121BA0EEFCEF91
:1047E400FDE50B75F00EA4F8A9F074EF28FA740235
:1047F40039FB12052C740212194CE9600C850B0A62
:10480400E50AC3940A50278016050BE50BC3940AE6
:10481400501C80BE12072AE9F50AC3940A500FE51A
:104824000845096009AA08AB09A90A12071EA90AC2
:10483400024CA574F412198D890875091574FF6A60
:10484400700374FF6B70277E00AC087A027B00EE65
:10485400F9120700E960037509000EEEC3940A40DB
:10486400E8E50860537A547B07120F5E804A120F02
:10487400408A0A8B0BAE0AAF0BEE4F60387C007D8A
:1048840000EE2405FAEF3400FB8E828F83A3A3A3EA
:10489400A3E0F91206E2E9C3940A500CAC087A02C8
:1048A4007B00120700750900E508600CEEFAEFFBC7
:1048B4001207548003750914A9098005740E12198E
:1048C4004C7F04021A5F74F212198DECFEEDFF7531
:1048D4000815740E121981E0F50AA3E0F50B74FFB4
:1048E4006A700374FF6B7021750900AC0AAD0BEE9E
:1048F400FAEFFBA909120706E96003750800050928
:10490400E509C3940A503F80E2120F408A828B83E8
:10491400E5824583602D7C007D00E5822405FAE56F
:10492400833400FBA3A3A3A3E0F91206E2E9C39432
:104934000A5013AC0AAD0BEEFAEFFB12070675082A
:10494400008003750814A9080256E8C082C0839049
:1049540002E7EAF0A3EBF09002CDE0FC7D007A26BA
:104964007B00120A6C9002CDE0F9120CD60255437A
:1049740074F012198D74EC121936EAFEEBFFEE2472
:104984000CF50CEF3400F50DEE2405F50EEF3400B4
:10499400F50FEE2409F50AEF3400F50BEE2403F5C8
:1049A40008EF3400F5098E828F83A3A3E024FA7004
:1049B40003024C4624FD7003024B61147003024A47
:1049C4004D14601024FD7003024B38147003024B25
:1049D40095024C9E1258E36048E0F5838882124C9D
:1049E400AD880E890FE8450F6037850C82850D83ED
:1049F400E0F50C780C121BA4EE240BF582EF124E9A
:104A04007DF9850A82850B831250AC0A0A0AAB0928
:104A1400850E82850F8312198B740112194C024C76
:104A24009E850A82850B83121BB79002E312182419
:104A3400120B08740212194CE97003024C9E79019E
:104A4400850A82850B83024C118E828F83A3858213
:104A54000A85830BE06003024B1B850E82850F835E
:104A6400E0A2E04003024B1B9003811258E660036E
:104A7400024B1B7C0E7D007900851882851983AA60
:104A840082AB83120532850C82850D8312550EEAA2
:104A94004B6010750C06750D00780C121BA0EA24EF
:104AA40010801B125508120F40EA4B7003024C9EF3
:104AB400750C06750D00780C121BA0EA2405FCEB9E
:104AC4003400FD7402121981AA82AB8312051A7490
:104AD4000212194C850E82850F83E0A2E25004D2A3
:104AE400F08002C2F0A2F0E433F8740C121981E0F1
:104AF40048F0EEFCEFFD851882851983AA82AB830A
:104B0400120718E970117A027B009002CDE0F912C5
:104B1400056E7900024CA01258E37003024C9E12F9
:104B24004CB37003024C9E850A82850B83E0FC79AA
:104B340001024C3A1258E37003024C9E124CAA89AB
:104B44000BE8450B7003024C9E8E828F83A3E0FC1E
:104B540079021255088882850B83024C417C007DC2
:104B640000EE2404FAEF3400FB850882850983E013
:104B7400F91206E2E9F8C3940A4003024C9EEE24BB
:104B84000AFCEF125082E8A42425F91208EC024C26
:104B94009E1255089002E2E06007900B45E0F98010
:104BA4006F900B42E0700479058065120F408A0C07
:104BB4008B0DA80CA90DE82404F50CE93400F50DBF
:104BC4008E828F83A3A3A3A3A3A3A3E0A2E0504652
:104BD400E8497003024C9E850C82850D83E0FE60DB
:104BE40035850A82850B83E05410702A740E1219DD
:104BF40081AC82AD83E82405FAE93400FBEEF912B6
:104C040006E2E97011790385088285098312550E3D
:104C1400120B02024C9EAC0EAD0F850C82850D83E7
:104C2400E0F91255081207601258E3606D124CB394
:104C340060687C0079001255088E828F8312198B6C
:104C44008058120BCEE97052900376E0640170151F
:104C540012073C900376E4F07C0AFDF97A777B0333
:104C6400120532802D750A00850A0874772508FE1E
:104C740074033400FF8E828F83E06401700BA90AF1
:104C84001207428E828F83E4F0050AE50AC3940A70
:104C940040D679501208F8120730790174141219A9
:104CA4004C7F08021A5F124CC2E0F8A3E0F922120A
:104CB4004CC2E0F8A3E0F9E8FEE9FFEE4F22E0F58C
:104CC400838882A3A32274F412198D74F212193604
:104CD400EAFE8C0B75F006E9A42420F508851882F9
:104CE400851983AC82AD837A0EF91208F2E9705704
:104CF4007C0679FF851882851983AA82AB83120505
:104D040092E97043740C121981124CADE8F509E56F
:104D14000B6005EE42098004EEF45209850982AA6B
:104D240082E86A7001E9601B740C121981EAF0A32D
:104D3400E4F0851882851983AC82AD837A0EA908C4
:104D44001208EC7901800279000248C074F2121949
:104D54008D74E6121936890A8A088B09ECFEEDFF78
:104D6400740C121981AC82AD837A0E75F006E9A435
:104D74002420F91208F2E96003024E707C0679FFE0
:104D8400740C121981AA82AB83120592E9600302A2
:104D94004E707470250AF50B851882851983AC82D0
:104DA400AD837A0CF91208F2E96003024E6C85189F
:104DB40082851983AA82AB83120712E5084509701C
:104DC4002C7C0C7900851882851983AA82AB831206
:104DD4000592E96003024E6C7C0C7D007900851815
:104DE40082851983AA82AB83120532805D8518827D
:104DF400851983AC82AD83AA08AB0912070C8A0C0F
:104E04008B0DA80CA90DE8497028EE4F605E85183B
:104E140082851983AC82AD837A007B0012070CEA89
:104E2400F8EBF9EA4B604588828983E508F0A3E54D
:104E340009F0124E77FAEE6A7001EF602BEEF04F34
:104E4400700888828983E4F0A3F085188285198329
:104E5400AA82AB83120712851882851983AC82ADAE
:104E6400837A0CA90B1208EC790180027900741A78
:104E74000256E5E82402F582E93400F583E0227461
:104E8400F712198D7F00EF75F003A4F8A9F0EC2850
:104E9400F8ED124EB6E06A7003A3E06B7006E8FA10
:104EA400E9FB800B0FEFC3940440DB7A007B000224
:104EB400526139F9888289832274F712198D7E0030
:104EC400EE75F003A4F8A9F0EA28F8EB124EB6E068
:104ED400F4FCA3E0F4FD88828983ECF0A3EDF012E6
:104EE4004E77F4F00EEEC3940440D502526174F28E
:104EF40012198D74F4121936EAFEEBFF8C088D0931
:104F04009003811258E67051EE4F700302507BEC0F
:104F14004509700302507B120724E9900B48F0C343
:104F2400940A4035750B007C0679FFE50B75F00E8D
:104F3400A4FAABF074E92AFA74023BFB120592E975
:104F44006005850B0A800C050BE50BC3940A40D75A
:104F5400750A0AE50A900B48F0900B48E0C3940ADE
:104F6400400302507B75F006E0A4FB9003811258C5
:104F7400E6706FEEFCEFFD7A0E74202BF91208EC4C
:104F84007C0C7D0079FF851882851983AA82AB8306
:104F9400120532851882851983AC82AD837A0C9010
:104FA4000B48E02470F91208EC750C0E750D0078AE
:104FB4000C121BA0EEFCEFFD900B48E075F00EA464
:104FC400F8A9F074E928FA740239FB12051A74027C
:104FD40012194C900381E508F0A3E509F079000269
:104FE400507DE0C8240612509F601A7A1B74212B4E
:104FF400F91208EC12508B2406F582E83400F5838C
:10500400E4F0A380D712508B240A12509F60107AC8
:105014001B74222BF91208EC12508B240A80DA122A
:10502400508B240C12509F60107A1074232BF912A9
:1050340008EC12508B240C80C012509412509F60C4
:105044002A7A1074242BF91208EC125094F582E891
:10505400124E7D2410FCA3E0125082900B48E0A471
:105064002425F91208EC125094808E900375E060A8
:105074000312076C12075A7901740C0256E53400C6
:10508400FD7A0475F00622900381E0F8A3E0C822BB
:10509400900381E0F8A3E0C8240822F582E83400F4
:1050A400F5831250ACEC4D22E0FCA3E0FD2274F435
:1050B40012198D74F2121936EAFEEBFFE9C3940A51
:1050C4005004EE4F70047902803E8518828519835E
:1050D400AC82AD837A0E75F006E9A42420F9120897
:1050E400F2E9F5087020750A06750B00780A121BA0
:1050F400A07402121981AC82AD83EEFAEFFB1205A3
:105104001A740212194CA9080248C074F412198DB9
:10511400EAFEEBFF750800750A06750B00780A12A3
:105124001BA0EEFCEFFDE50875F00EA4F8A9F074E1
:10513400E928FA740239FB12052C740212194CE99D
:105144006004A908800B0508E508C3940A40C879DF
:105154000A0248C574F712198D74F0121936EAFE62
:10516400EBFF750800851882851983AC82AD837ABC
:105174001075F006E508A42423F91208F2E9702C4E
:105184007C1079FF851882851983AA82AB83120566
:1051940092E97018EEFCEFFD851882851983AA82C6
:1051A400AB83120AD8E97004A908800B0508E50846
:1051B400C3940A40B0790A741012194C02526174F3
:1051C400F712198D750800E50875F00EA4F8A9F01A
:1051D40074E928FE740239FFEEFCEFFD7A0E75F0D7
:1051E40006E508A42420F91208F2E9602C7C067D67
:1051F4000079FFEEFAEFFB1205327C067D0079FFA1
:10520400EE2406FAEF3400FB120532EE240CF5828C
:10521400EF3400F583E4F0A3F00508E508C3940A2D
:1052240040A5900375E0600312076C12075A802DA5
:1052340074F712198D7E007F007C0679FFEF75F0FC
:105244000EA4FAABF074E92AFA74023BFB1205923D
:10525400E970010E0FEFC3940A40DEEEF97F0102FC
:105264001A5F74F712198D7E00EEF91207420EEEE2
:10527400C3940A5003E960F180E374F312198D7446
:10528400CB121936E9FE900B48E06E701B7A017B55
:10529400009002CDE0F91205747A027B009002CDF1
:1052A400E0F912057412077875F006EEA4FF742075
:1052B4002FF5087427121981AC82AD837A0EA908E0
:1052C4001208F2E960030253B87C0679FF742712CE
:1052D4001981AA82AB83120592E960030253B87C58
:1052E4000E7D0079FF7427121981AA82AB831205FF
:1052F400327C1B7D0079FF740C121981AA82AB8366
:105304001205327C0C7D0079FF851882851983AAE9
:1053140082AB831205327427121981AC82AD837A71
:105324000EA9081208ECE9F508740C121981AC8274
:10533400AD837A1B74212FF91208ECE9F509740C7A
:10534400121981AC82AD837A1B74222FF91208ECF6
:10535400E9F50A740C121981AC82AD837A107423B6
:105364002FF91208ECE9F50B740C121981AC82AD1B
:10537400837A1074242FF91208ECE9F50C740C12DA
:105384001981AC82AD837A0474252FF91208ECE9F3
:10539400FF851882851983AC82AD837A0C74702ED4
:1053A400F91208ECE9F8E509450A450B450C4F48A4
:1053B40042088003750800A908743512194C7F054A
:1053C400021A5F74F712198DE99002CDF0120730BA
:1053D40002526174F412198DEAFEEBFF54807003DB
:1053E40002546F9002CDE0F91205568A088B09EA3F
:1053F4004509607078018A828B83E02450603D14F3
:10540400600624E1604F8052A3A3A3A3E0704E8AF8
:10541400828B83A3A3A3A3A3A3A3121BB78A828B08
:1054240083A3A3A3A3A31250AC8A828B83A3A31246
:10543400550E1206EE740212194C8021A3A3A3A3E5
:10544400E0641E701879008A828B83A3A312550E20
:105454001206E880081206FAE9F8E86007AA08AB21
:1054640009120544EEFAEF64808065EE540260236D
:105474007C007D007A007B00120718E960117A0134
:105484007B009002CDE0F912056EEE6402803F7A53
:10549400028046EEA2E0503F1254E212550E12076B
:1054A40072E9602F1258E3601F124CAA8808890918
:1054B400E8450960137C0079011254E212550E8507
:1054C400088285098312198B120778EE6401FAEFBA
:1054D400FB80087A0180027A007B000248C59003B1
:1054E40081E0F8A3124CC2A3227F02021A5FC08299
:1054F400C0839002CDE0F98A828B83A312550E12E9
:105504000D60803B850882850983E0FAA3E0FB22D5
:10551400C082C08374FF121936120736E9C394029D
:10552400851882851983400474028002740AF0ACE1
:1055340082AD837A017905120BE6740112194CD0FD
:1055440083D08202013574F212198D74E81219366F
:10555400EAFEEBFF890A8C088D097C187D0079002E
:10556400851882851983AA82AB8312053285188235
:10557400851983EEF0A3EFF09002CFE0C0E074024F
:10558400121981D0E0F09002D0E0C0E07403121947
:1055940081D0E0F0900B47E0C0E07417121981D07D
:1055A400E0F07415121981E054FEF8A3E0F9900BB1
:1055B40046E0A2E0E433FAE84AF8741512198112BD
:1055C40056F4A2E15004D2F08002C2F0E854FDFA8D
:1055D400A2F0E43333F8EA48F8741512198112562C
:1055E400F4A2E35004D2F08002C2F0E854F7FAA225
:1055F400F0E433F50C750D007403780C12192312C2
:1056040056ED1219811256F4A2E45004D2F080022D
:10561400C2F0E854EFFAA2F0E433F50C7404780C09
:105624001219231256ED1219811256F4A2E55004F0
:10563400D2F08002C2F0E854DFFAA2F0E433F50CB1
:105644007405780C1219231256ED1219811256F4AE
:10565400A2E25004D2F08002C2F0E854FBFAA2F0B5
:10566400E433F50C7402780C1219231256ED121956
:1056740081E8F0A3E9F09002D0E0601D750C107889
:105684000C121BA07CD17D027406121981AA82AB74
:105694008312051A740212194C9002E1E06011E5BC
:1056A4000A60097415121981E04402F0780180023D
:1056B40078007414121981E048F09002CEE060047E
:1056C4007804800278007414121981E048F0AC0860
:1056D400AD09851882851983AA82AB83120AFC74EA
:1056E4001812194C7F06021A5FEA450CF874152249
:1056F400E8F0A3E9F0900B46E02274F312198D74DC
:10570400E5121936EAFEEBFF8C098D0A742812198A
:1057140081E0F50C75F006E9A4F87408650A7004D4
:1057240074228002742128F50B7C1B7D007900858E
:105734001882851983AA82AB831205328518828563
:105744001983AC82AD837A1BA90B1208F2E970327B
:10575400741A121981E024F9C3940A5025E50CF552
:105764000B780B121BA47401121981AC82AD83E572
:1057740009A2E0E433F9EEFAEFFB120B0E74011206
:10578400194C741B0253BF74F712198D120DD8757E
:105794000800E50875F00EA4F8A9F074E928FE7471
:1057A4000239FF7C0679FFEEFAEFFB120592E970ED
:1057B40009EEFAEFFB7900120DDE0508E508C39443
:1057C4000A40CF02526174F612198D74FD12193613
:1057D400EAFEEBFF9003831258E67039750885756D
:1057E40009037808121BA0750802750900780812CD
:1057F4001BA075082F7509907808121BA07CFF7DEB
:10580400FF7A017B00120C28740612194C90038352
:10581400EAF0A3EBF09003831258E670030258CD2C
:10582400E4F508F5097808121BA07404121981859F
:1058340082088583097808121BA0740412198185D3
:1058440082088583097808121BA0900385121BB770
:1058540079029003831258DB120D4E740812194C0E
:10586400E97034851882851983E0FA74011219816C
:10587400E0F9EA2400F508E439F509EA4509601776
:105884007808121BA09003831254E5A31258DB126C
:1058940006EE740212194CE4F508F5097808121B97
:1058A400A0900385121BB77CFF7DFF9003831255E4
:1058B4000E120C34740412194C900383EAF0A3EB17
:1058C400F09003831258E670047901800279007421
:1058D4000312194C0254ED1250ACEEFAEFFB229075
:1058E40002E7E0F8A3E0F9E84922C082C08390030C
:1058F400811258E6601090038112550E12054490EF
:105904000381E4F0A3F0900B48740AF0025543C0FD
:1059140082C0839061907404F0A37448F0A3E4F00F
:105924009061807440F09061BC7407F0906187745A
:1059340069F09061B67416F0790012104879021279
:10594400104E902914E493F46006E493F9121024A1
:10595400790512134E025D0EC082C083E9540FF91B
:10596400906185E0696012E5C654804449F5C6E556
:105974009E547F644970F8E9F053C680E59E547FD5
:1059840070FA025D0E74F712198DE5A8FE53A87E15
:10599400121030C2BA539AFEC289759B00C2C21259
:1059A400103675A91175B90512103CD2BA439A0183
:1059B40074805E42A80262A5C082C083906181E4C3
:1059C400F0A3025D0B75E90075910075BF0002013B
:1059D40035C082C083906181E4F0A374C0F0A3E475
:1059E400025D0DC082C08374F81219369005D51279
:1059F4006C3E7003025AC69005D5E054406023798A
:105A040008851882851983AA82AB831211448518EC
:105A140082851983AA82AB83120DFC9005D5E054CC
:105A2400BFF0E054806010790C7A967B0712114421
:105A34009005D5E0547FF0E0A2E0500F79001210F9
:105A440048120E029005D5E054FEF0E05402600FB7
:105A54007901121048120E029005D5E054FDF0E0D1
:105A64005404600F790012104E120E089005D5E010
:105A740054FBF0E05408600F790112104E120E0826
:105A84009005D5E054F7F0E05410600F790212103D
:105A94004E120E089005D5E054EFF0E05420600F4C
:105AA400790312104E120E089005D5E054DFF0A3CE
:105AB400E05401600D12105A120E0E9005D6E054F7
:105AC400FEF0740812194C025D0EC082C083E960B6
:105AD4000514602A804F90619A7433F0A37455F0D2
:105AE4009061A0743AF0900770E064017009C2916B
:105AF4009005D77467802D9005D7746180269061D6
:105B04009A743FF0A3745AF09061A0747FF09007E8
:105B140070E064017009D2919005D774718005908A
:105B240005D7746AF0025D0EC082C083E9600B146D
:105B3400600D14601714600C802090291880159053
