:020000040000FA
:0600000002010A02290BB7
:03002B0002215C53
:0300330002213E69
:03003B0002217D22
:030043000220F2A6
:0300530002297E01
:03006B0002211857
:10008300022777E5C754F84401F5C7790122000038
:100093000080FB120086B900030200F4E4792178A2
:1000A30008B800028004F709D8FCE479297802B87B
:1000B30000028004F709D8FCE4900281782E790FBE
:1000C3008002F0A3D8FCD9FA9010AEAA82AB839039
:1000D300013A782B79028015E493A3AC82AD838A2D
:1000E300828B83F0A3AA82AB838C828D83D8E9D9D8
:1000F300E77582A47583FF740112011C75829175E3
:100103008300740012011C75D00075813F7518813E
:10011300751902759F00020096C09FF59FE473D086
:100123009F22D083D082C09FE493C0E0740193C028
:10013300E0740293F59F22FF544920424C4520412D
:100143006C6C00000000000000000000001100FFC4
:10015300005C076E0798076207FF0000B4000028E1
:10016300002800283075A000A000A000A00000080F
:100173000008E001F0001000100010001000100053
:10018300100050005000500010001000D007000075
:10019300000000000F00010005003075070010008B
:1001A300010081FF00000000FF00091E090609FF8E
:1001B30002020208025000A0000000E80302D682F7
:1001C300010000D08202EA82010000271102E682C8
:1001D300010000840502EA82010000281102E48282
:1001E3000100009A0502EA82010000291102E2825D
:1001F3000100009C0502EA820100002A1102E0824C
:100203000800009D0502EA820100002B1102DE8234
:100213000100002C11FFFF0100FF2002D682010024
:1002230000D38202EA82010000911102DC82000005
:1002330000000002E8820300007E060E130E130E78
:10024300130E130E130E130E130E130E130E130EA3
:10025300130E130E13421560153C15801698167A6B
:1002630016120125FDFF01120125FA9B0412012537
:10027300049C04120125429C041201258B9C041248
:100283000125C59C041201251F9D04120125409DD3
:1002930004120125499D04120125969D041201258E
:1002A300BF9D04120125C99D04120125D39D04128B
:1002B30001253F9E04120125D19E041201251B9F97
:1002C30004120125519F04120125DD9F041201250B
:1002D3001EA00412012555A00412012574A00412C6
:1002E30001257DA00412012545A1041201258FA13A
:1002F30004120125DCDF04120125A1E40412012507
:1003030079D104120125AFD104120125E5D10412DC
:10031300012530D30412012537E4041201254DE4ED
:100323000412012557E404120125D2B40412012555
:10033300E7B4041201259AB504120125DAB50412B3
:100343000125F3B5041201252EB6041201257BB64F
:1003530004120125ADB604120125EFB604120125DE
:10036300FAB8041201253FE5041201256EE50412D3
:100373000125B3E304120125C2E104120125D3E1EF
:1003830004120125F6E40412012535E504120125C2
:1003930071E50412012516E30412012526E3041274
:1003A300012541E304120125A9E304120125D8DE46
:1003B300041201255DDF04120125C3DF04120125A8
:1003C300F2DB041201251BDC0412012586DC041276
:1003D3000125D7DC0412012532DD04120125A8CC46
:1003E30004120125BDCC04120125D9CD0412012527
:1003F3004DCE0412012567CE041201257ECE0412D0
:10040300012591CE04120125ABCE04120125C2CEE3
:1004130004120125E8CE0412012539CF0412012567
:1004230007B9041201251EB90412012598B9041253
:1004330001257CBA0412012553BC041201255BC0BB
:1004430004120125EBC00412012577C10412012512
:1004530010C204120125A1C204120125AAC204126A
:10046300012528C3041201253BC30412012551C3EE
:1004730004120125B1C304120125C4C304120125CA
:10048300EF820112012585830112012525840112C2
:100493000125848501120125DB8601120125798757
:1004A30001120125AA9001120125F29701120125DB
:1004B3001FA1011201256AA2011201251BAD011220
:1004C3000125CAAD0112012579AF011201255FB0E3
:1004D30001120125A2B00112012578E204120125BF
:1004E300E9E204120125F4E20412012504E30412F3
:1004F30001250FE304120125B2D80412012504D902
:10050300041201258ED904120125F5D904120125FF
:10051300DCC90412012506CA04120125D4CA041237
:100523000125AFCB0412012536CC0412012500802E
:1005330004120125C78004120125FE80041201253F
:10054300288104120125888104120125DE81041209
:100553000125438204120125DB8204120125EA836B
:10056300041201258185041201250E86041201253A
:100573007586041201258C8604120125A6870412B0
:1005830001256AD304120125A7D304120125BDD383
:1005930004120125ECD30412012522D404120125EF
:1005A30039D40412012550D40412012583D4041232
:1005B3000125BAD4041201250DD50412012524D531
:1005C300041201253BD50412012553D5041201253C
:1005D3006AD5041201259BD504120125D6D5041230
:1005E300012500D6041201252AD60412012541D67D
:1005F3000412012558D6041201256FD604120125D1
:1006030098D604120125ABD604120125C1D60412D3
:100613000125D4D604120125FBD604120125FEBE02
:100623000212012502C0021201252FC00212012568
:100633007AC00212012585C002120125A8C0021248
:100643000125BCC002120125EBC002120125EDC039
:100653000212012510C10212012516C20212012540
:100663005AC3021201251EC402120125F3C4021249
:10067300012564C502120125F0C502120125F3C547
:10068300021201257BC602120125B6C602120125FC
:100693001DC70212012520C70212012557C70212E6
:1006A300012580C7021201252BC802120125B5C8F6
:1006B3000212012504C90212012511C902120125E2
:1006C30014C90212012574C90212012577C9021245
:1006D3000125B0C902120125FBC9021201257ACAFC
:1006E300021201257DCA02120125C7CA0212012581
:1006F300CACA0212012541CB0212012544CB0212C0
:100703000125D3CB02120125D6CB0212012565CCDC
:100713000212012575CC02120125A5CC0212012576
:10072300B2CC02120125B5CC0212012536CD02123C
:10073300012543CD0212012531CE02120125E3CE5C
:100743000212012511E50312012509E60312012511
:100753003DE603120125BFE603120125DFE603127E
:10076300012527E7031201257AE703120125DEE7B6
:10077300031201256BE80312012525E90312012564
:1007830034EC03120125BFED03120125E2ED031240
:1007930001256BB00412012508B20412012558B2D9
:1007A3000412012528B30412012587B3041201257D
:1007B30095B304120125BEB3041201255E8F041202
:1007C3000125868F04120125B48F04120125EB8FB6
:1007D30004120125499004120125D7910412012521
:1007E3002292041201256D9204120125AD92041286
:1007F3000125F39204120125219304120125DE93AE
:1008030004120125E89304120125F593041201252E
:10081300289404120125F49404120125009504126E
:100823000125189504120125229504120125A0958E
:1008330004120125D3E004120125E1E0041201258D
:10084300F9E00412012511E10412012529E1041242
:10085300012554CF0212012500D0021201257BD0BD
:10086300021201259CD102120125D8D102120125C1
:1008730072D2021201251BD30212012502D40212E5
:10088300012566D502120125BDD5021201253ED6EA
:10089300021201252ED7021201257BD70212012550
:1008A30001D80212012533D80212012547DA0212B8
:1008B300012589DA02120125A7DA021201252ADBB2
:1008C30002120125FEDB02120125C6DC02120125FC
:1008D300D3DE02120125B5CF0312012588D00312FE
:1008E300012531D1031201257DD10312012534D213
:1008F300031201254DD20312012567D203120125EC
:1009030017D303120125A3D3031201258FD4031296
:100913000125BED403120125D1D50312012519D611
:1009230003120125DAD6031201253ED7031201254E
:10093300A1D703120125D1D7031201254BD80312E6
:100943000125EED9031201252ADA0312012546DA1D
:10095300031201257C7F00120125B8BC0412012576
:10096300CEBC04120125F4BC0412012510BE0412EE
:1009730001251ABE041201254FBF0412012547C0E9
:100983000412012551C004120125BDA10412012541
:10099300EDA20412012520A3041201256AA3041267
:1009A300012531A504120125008002120125798059
:1009B30002120125898002120125EB800212012512
:1009C3007C81021201256282021201258E820212AB
:1009D3000125CB8202120125E282021201256E83D8
:1009E300021201257883021201258A83021201254E
:1009F300C283021201252584021201258484021276
:100A03000125C78402120125D28402120125DD8447
:100A130002120125948502120125978502120125F0
:100A23009A85021201259D8502120125A0850212D5
:100A330001258A8602120125ED86021201254F87C0
:100A430002120125ED87021201250D8902120125EB
:100A5300F48A02120125AD8C02120125898D02123E
:100A630001253D8E021201257A9102120125289259
:100A730002120125979302120125179502120125EF
:100A8300BE95021201250796021201253E96021217
:100A93000125DB9602120125669702120125ECDE81
:100AA3000212012541DF02120125A0E002120125F5
:100AB300B0E002120125DDE00212012539E1021244
:100AC300012540E2021201250AE3021201256AE42C
:100AD30002120125ADE40212012552E5021201259D
:100AE3009FE502120125C5E502120125D3E7021293
:100AF3000125D8E702120125DDE9021201252AEAC0
:100B0300021201259DEA02120125D0EA02120125F3
:100B130072EB021201251BEC0212012553EC0212A7
:100B2300012556EC021201259EEC02120125E0EC90
:100B33000212012537ED0212012500C70412012517
:100B430013C70412012521C70412012569C7041222
:100B530001257FC704120125C6C704120125DAC87F
:100B63000412012567C904120125B2C90412012523
:100B730032D70112012542D701120125A5D701124F
:100B83000125EAD701120125A0D8011201257BD93D
:100B930001120125A4D901120125D4D9011201257D
:100BA30014DC01120125FBDD01120125D3DF011243
:100BB300012517E1011201257EE3011201258CE4D1
:100BC30001120125DEE501120125E8E601120125E6
:100BD3002AE70112012562E70112012584E70112C8
:100BE3000125E7E701120125A9EC0112012543EDD7
:100BF3000112012581ED01120125A0ED011201254C
:100C0300FAED01120125FAEE011201257FEF01121F
:100C1300012552AD021201255CAD0212012500AE81
:100C23000212012543AE0212012557AE021201251D
:100C33008FAE02120125D8AE0212012501AF0212B6
:100C4300012546AF021201258FAF02120125B7AF6E
:100C53000212012540B002120125F9B0021201254A
:100C63000FB1021201254BB10212012573B1021219
:100C73000125ABB102120125DEB10212012515B225
:100C83000212012534B2021201255DB202120125BE
:100C9300D6B202120125EBB20212012500B30212F1
:100CA300012515B3021201254AB30212012584B3AB
:100CB30002120125A8B30212012571B40212012503
:100CC30087B402120125A6B402120125B9B4021297
:100CD3000125CEB402120125E3B40212012559B550
:100CE300021201256DB502120125C5B502120125B7
:100CF300D4B50212012530B6021201256AB60212DA
:100D030001259FB602120125CBB602120125F9B6C1
:100D1300021201252CB70212012541B70212012547
:100D230056B70212012586B702120125D1B7021266
:100D3300012530B80212012571B802120125ADB8A0
:100D430002120125D8B80212012547B90212012562
:100D530084B902120125AFB902120125DFB90212CB
:100D630001250ABA0212012534BA021201256BBA0F
:100D730002120125A0BA02120125DDBA02120125D1
:100D830007BB0212012537BB0212012561BB021208
:100D930001258BBB02120125B6BB02120125DFBB65
:100DA3000212012536BC0212012578BC021201256C
:100DB300A3BC0212012507BD0212012531BD021297
:100DC30001255CBD0212012587BD02120125B7BDB5
:100DD3000212012500BE021201252ABE02120125BC
:100DE3004FBE02120125D6BE021201256CDD04128C
:100DF3000125BFDD04120125E6EF0112012514F0E0
:100E0300011201256FF1011201254FF20112012593
:100E13006EF201120125EBF2011201252EF30112EC
:100E23000125A9F40112012518F50112012543F743
:100E330001120125C7F90112012578FA01120125D2
:100E43006EFB011201250EFC011201250CFD01129E
:100E5300012566FE01120125F1FE0112012566FF3F
:100E63000112012554DA04120125BDDA0412012509
:100E730011DB0412012533DB041201255ADB0412B2
:100E830001258BDB04120125ACDB04120125FEAB2B
:100E9300041201256BAC04120125B2AC0412012526
:100EA300CAAD04120125C6AE04120125A9AF04126E
:100EB30001250DEF031201254FEF0312012521F048
:100EC30003120125FAF003120125F4F1031201259F
:100ED300D6F2031201253FF303120125D6F30312C1
:100EE3000125F3F3031201250FF403120125B8F4CE
:100EF300031201252CF50312012598F50312012590
:100F03009BF503120125C4F5031201253EF60312D6
:100F13000125D7F6031201253CF70312012551F7EA
:100F23000312012597F703120125B0F703120125D8
:100F330015F80312012518F803120125C7C304127B
:100F4300012503C40412012541C4041201250BC564
:100F5300041201257AC504120125B5C50412012521
:100F6300F3C50412012523C6041201254AC604123F
:100F73000125B8C6041201251C2D00120125772F67
:100F830000120125893200120125C5320012012504
:100F9300F23200120125E433001201252F3400122E
:100FA30001257A34001201258C3400120125CC343A
:100FB300001201250D35001201251C3500120125F3
:100FC3005135001201259F3500120125CE3500123F
:100FD3000125463600120125783600120125B43664
:100FE30000120125D73600120125A9370012012569
:100FF300E037001201258238001201250939001259
:101003000125F13900120125893C00120125F53D26
:10101300001201256B3E00120125E73E0012012557
:101023002641001201256741001201250B430012DE
:1010330001252C43001201256D430012012566444E
:1010430000120125734600120125304700120125C5
:10105300CA4700120125A24D00120125F24D0012CC
:1010630001256450001201259C5100120125AB5348
:1010730000120125175400120125C5540012012541
:10108300965500120125C75500120125F15500128E
:1010930001251B56001201255056001201257556D5
:1010A30000120125945600120125C1560012012594
:1010B300395700120125B15700120125FB570012C1
:1010C30001251D5800120125175900120125EB595E
:1010D300001201251C5A00120125835A0012012512
:1010E300A35A00120125B05B00120125105C001207
:1010F3000125F35C00120125825D00120125AD5D1F
:1011030000120125F25D00120125365E0012012551
:10111300855E00120125A75E001201256ECF041221
:10112300012523D104120125D5AA03120125D3AB2E
:10113300031201256CB2031201258DB4031201259C
:1011430058B603120125C0B703120125C5B0011219
:10115300012574B101120125A1B101120125E7B1E5
:1011630001120125F9B1011201252FB30112012545
:101173008DB301120125B2B301120125E9B30112A6
:1011830001257FB501120125F9B50112012548B6E4
:1011930001120125C2B6011201251CB80112012555
:1011A3007CB90112012582BA01120125E3BB0112A8
:1011B300012535BC01120125A6BD01120125EBBF96
:1011C30001120125E5C001120125FEC0011201250E
:1011D3005CC1011201257BC1011201259AC10112D3
:1011E30001259DC101120125CEC201120125C6C3ED
:1011F30001120125B2C40112012594C50112012572
:10120300C7C50112012537C601120125A9C601125E
:10121300012523C70112012579C70112012554C8ED
:10122300011201251EC901120125F3C9011201256D
:10123300D2CA011201255DCB01120125CBCB0112CC
:1012430001253FCC011201256ACC0112012529CDCC
:10125300011201257DCD011201256AD0011201255C
:10126300B3D001120125F6D0011201256FD101126D
:10127300012507D201120125F8D2011201251DD340
:101283000112012563D3011201258DD3011201251A
:10129300D5D30112012550D401120125AAD401127C
:1012A300012513D601120125C1D60112012502D74A
:1012B30001120125548E03120125A28E031201256A
:1012C300AE8E031201258C8F03120125BD8F0312ED
:1012D3000125EE8F031201256E9003120125EC9078
:1012E300031201252491031201257691031201258E
:1012F300B39103120125D09303120125F69503122E
:101303000125E19703120125CB9903120125FCFF67
:1013130003120125289604120125739A041201254C
:10132300B79B04120125008003120125B882031222
:101333000125BE8203120125788503120125458804
:1013430003120125E4A60412012588A7041201252E
:101353005AA80412012584A804120125D2AA041252
:101363000125D45E001201251E5F00120125E76FDF
:10137300001201256C71001201258F7200120125E4
:10138300007900120125FB7900120125387A001239
:1013930001255B7A001201259D7A00120125A67AA8
:1013A30000120125B07A001201259E7B001201254F
:1013B300947C001201252D7D001201254398021211
:1013C3000125429C02120125489C0212012583A398
:1013D300021201259CA8021201259AFC0212012582
:1013E30094FD0212012508FE0212012546FE021297
:1013F3000125BAFE0212012533FF021201253CFF2B
:101403000212012548FF021201255DFF0212012588
:101413009BFF02120125B1FF021201253CF80312C2
:10142300012549F80312012563F803120125A2F8E7
:1014330003120125E0F80312012545F903120125E2
:101443005AF90312012565F90312012572F90312F2
:10145300012589F90312012597F903120125A6F93C
:1014630003120125BBF903120125D0F9031201254B
:10147300DBF903120125E7F903120125F4F903123D
:10148300012503FA031201250EFA0312012533FA8B
:101493000312012538FA03120125D2FA031201259A
:1014A30038FB0312012548FB031201255DFB0312E0
:1014B300012572FB031201258CFB03120125A7FBF7
:1014C30003120125C4FB03120125CFFB03120125DF
:1014D3008BFC0312012577FD0312012593FD0312F3
:1014E3000125AAFD03120125B5FD03120125CAFD3D
:1014F30003120125DEFD031201253FFE0312012520
:1015030045FE031201254BFE0312012551FE031272
:10151300012565FE031201258CFE03120125C7FE7A
:1015230003120125E0FE0312012520FF031201250A
:1015330053FF03120125BBDA03120125DDDA03127F
:101543000125BDDB0312012594DE03120125C0DF53
:1015530003120125E4E00312012596E1031201259C
:1015630037E203120125AB9C031201252F9D0312C1
:101573000125DE9D031201253D9F031201255EA176
:10158300031201254AA2031201257FA2031201259A
:10159300A1A20312012550A30312012548A503129A
:1015A300012571A50312012503A60312012535A602
:1015B3000312012542A60312012599A60312012550
:1015C300BFA6031201252CA9031201252FAA03127A
:1015D300012587AA0312012524EE021201252EEF0D
:1015E3000212012515F0021201251FF00212012536
:1015F30029F0021201254BF00212012557F00212C5
:101603000125F0F1021201251FF2021201253BF31D
:101613000212012594F302120125FAF402120125A4
:10162300D9F50212012535F602120125A2F602129E
:101633000125DDF6021201251CF702120125D5F959
:1016430002120125EFF9021201257BFA021201258C
:1016530089FA02120125E2FA02120125F0FA0212B6
:10166300012563FB02120125C7FB0212012511FCB0
:101673000212012587C403120125A9C403120125FF
:10168300CFC603120125E4C903120125FCCA0312C4
:101693000125AFCB0312012591CC031201250DD7F0
:1016A3000412012532D704120125A4D704120125FF
:1016B300E48704120125ED8704120125F68704123D
:1016C3000125CD88041201257E8A04120125B48ADE
:1016D30004120125EE8A04120125248B041201252C
:1016E3005E8B04120125928B04120125BE8B04121A
:1016F3000125078C04120125418C041201258A8CD3
:1017030004120125E28C04120125178D0412012510
:10171300728D04120125AC8D04120125FD8D041276
:101723000125338E041201256D8E041201259B8E33
:1017330004120125BE8E04120125EAB70312012506
:101743001DB80312012560B8031201256BB80312FB
:10175300012576B80312012581B8031201258CB83F
:1017630003120125F8BB03120125CBBC031201258B
:1017730045BD03120125BCBD03120125C9BD0312DA
:101783000125D6BD03120125E0BD03120125EABDE3
:101793000312012506BE0312012516BE03120125FD
:1017A30058BE031201257EBE0312012588BE031213
:1017B300012592BE031201259CBE03120125A9BE79
:1017C30003120125B3BE03120125BDBE0312012579
:1017D300C7BE03120125D1BE031201251BBF03128D
:1017E300012538BF0312012555BF0312012565BF2B
:1017F300031201256FBF03120125CABF031201257E
:10180300D7BF031201259BC003120125A5C00312F4
:101813000125AFC003120125B9C003120125D6C0AB
:1018230003120125F3C003120125B7C103120125D9
:10183300C1C103120125CEC103120125DBC103126D
:101843000125FCC10312012505C2031201252CC287
:101853000312012553C20312012578C20312012585
:1018630081C20312012590C203120125A8C20312EB
:101873000125B1C203120125C0C203120125CFC243
:1018830003120125D8C203120125E7C20312012561
:10189300F7C20312012516C30312012523C3031242
:1018A300012530C30312012540C3031201254DC393
:1018B300031201255DC3031201256DC30312012524
:1018C3007DC303120125AFC303120125B9C303125C
:1018D3000125C9C303120125D9C303120125E6C398
:1018E300031201250BC40312012518C40312012599
:1018F30028C40312012532C4031201253FC4031275
:10190300012549C40312012559C40312012563C4E7
:10191300031201256DC4031201257DC403120125A1
:10192300D0FF03120125E1FF02E76670100809E703
:1019330066700A0809E76670040809E76622E0662C
:10194300701008A3E066700A08A3E066700408A399
:10195300E06622C3E7960809E7960809E7960809AF
:10196300E79622C3E09608A3E09608A3E09608A3AF
:10197300E09622C008C3E096F50808A3E096420863
:1019830008A3E096420808A3E09645087001D3D067
:101993000822080808EAC0E0EBC0E086F0E7A4FAF2
:1019A300180986F0E7A42AFA180986F0E7A42AFAA8
:1019B300180986F0E7A42AFA1986F0E7A4FBE5F0F4
:1019C3002AFA190886F0E7A42BFBE5F03AFA19087E
:1019D30086F0E7A42BFBE5F03AFA18180986F0E73E
:1019E300A4C5F02BFBE43AFA1908E7C5F0C6A42610
:1019F300F6E5F03BFBE43AFA1886F0E7A4F6E5F0E7
:101A03000826F6E43B08F6E43A08F6D0E0FBD0E01B
:101A1300FA22E4CFC0E0E4CEC0E0E4CDC0E0E4CC01
:101A2300C0E075F020C3E633F608E633F608E63384
:101A3300F608E633F6181818EC33FCED33FDEE33F5
:101A4300FEEF33FFC3EC9709ED9709EE9709EF9784
:101A5300191919400FFFEC97FC09ED97FD09EE9753
:101A6300FE191906D5F0BEECF709EDF709EEF709F3
:101A7300EFF7191919D0E0FCD0E0FDD0E0FED0E07B
:101A8300FF226016080808C6C313C618C613C61873
:101A9300C613C618C613C6D5E0EA2270090808089B
:101AA300226016181818C6C333C608C633C608C63C
:101AB30033C608C633C6D5E0EA22E627F60809E6A8
:101AC30037F60809E637F60809E637F622E026F680
:101AD30008A3E036F608A3E036F608A3E036F622BC
:101AE300E026F008A3E036F008A3E036F008A3E010
:101AF30036F022C3E697F60809E697F60809E69753
:101B0300F60809E697F622C3E096F008A3E096F0FC
:101B130008A3E096F008A3E096F022E657F608093A
:101B2300E657F60809E657F60809E657F622E0569F
:101B3300F608A3E056F608A3E056F608A3E056F627
:101B430022E056F008A3E056F008A3E056F008A3FD
:101B5300E056F022E046F608A3E046F608A3E04686
:101B6300F608A3E046F622E667F60809E667F608F4
:101B730009E667F60809E667F622E0F608A3E0F649
:101B830008A3E0F608A3E0F622E6F008A3E6F008CF
:101B9300A3E6F008A3E6F022E0FAA3E0FBA3E0FC4F
:101BA300A3E0FD22EAF0A3EBF0A3ECF0A3EDF02217
:101BB300CAC0E0E6F0A308DAFAD0E0FA22CAC0E02D
:101BC300E0A3C582CCC582C583CDC583F0A3C582FE
:101BD300CCC582C583CDC583DAE6D0E0CA22C3E48F
:101BE30098F8E499F9121C228026C3E49AFAE49B3C
:101BF300FBE920E7E9121C22E498F8E499F922C3EF
:101C0300E498F8E499F9121C22E498F8E499F9C3EA
:101C1300E49AFAE49BFB22EB20E7CFE920E7E0B963
:101C23000010BB0008E88AF084F8AAF022E4FBC89D
:101C3300FA22EB70227B10C833C8C933C93350076B
:101C4300C39AC3DBF280069A50012ADBEAC833F455
:101C5300C8C933F4C9FA2275F008E4C833C8C933D4
:101C6300C933C99AC99B5004C92AC93BD5F0ECFBB7
:101C7300C833F4C8E4C9FA22600D08C6A2E713C644
:101C830018C613C6D5E0F322600C08C6C313C618E2
:101C9300C613C6D5E0F422700422600D18C6C33300
:101CA300C608C633C6D5E0F41822251810AF08F5C8
:101CB30018400215198008F51840021519D2AF22F1
:101CC300C0D0251810AF08F518500205198008F583
:101CD3001850020519D2AFD0D0222518F58210AFC3
:101CE30008F518400215198008F51840021519D295
:101CF300AF851983222518F582E43519F58322E48B
:101D0300732518C582C0E0E51934FFC583C0E0E53B
:101D130018C3958224F810AF08858319858218802B
:101D230008858319858218D2AFCEF0A3E520F0A3EE
:101D33007808E608F0A3DEFAEFF0A3E58124FAF8C9
:101D4300E608F0A3E608F0A3E608F0A30808E6080F
:101D5300F0A3E608F0A315811581D0E0FED0E0F8EA
:101D6300158115811581E8C0E0EEC0E0222518C574
:101D730082C0E0E51934FFC583C0E0E518C395824E
:101D830024F910AF08858319858218800885831983
:101D9300858218D2AFCEF0A3E520F0A37808E60839
:101DA300F0A3DEFAEFF0A3E58124FBF8E608F0A345
:101DB300E608F0A30808E608F0A3E608F0A31581F7
:101DC3001581D0E0FED0E0F815811581E8C0E0EE82
:101DD300C0E022851983851882E0A3FEE0A3F520E5
:101DE3007808E0A3F608DFFAE0A3FFE0A3C0E0E091
:101DF300A3C0E0E0A3C0E0E0A3C0E0E0A3C0E01024
:101E0300AF08858218858319800885821885831910
:101E1300D2AFD083D082020122851983851882E054
:101E2300A3FEE0A3F5207808E0A3F608DFFAE0A319
:101E3300FFE0A3C0E0E0A3C0E0E0A3C0E0E0A3C0F4
:101E4300E010AF088582188583198008858218857C
:101E53008319D2AFD083D08222C0D02518C582C0C7
:101E6300E0E51934FFC583C0E0E518C3958224F388
:101E730010AF0885831985821880088583198582A8
:101E830018D2AFC8F0A3E9F0A3EAF0A3EBF0A3796B
:101E930008E709F0A3D8FAECF0A3EDF0A3EEF0A362
:101EA300EFF0A3D0E0F0A3D0E0F0A3D0E0F0A3E5FF
:101EB30020F0A3E5F0F0A322851983851882E0C002
:101EC300E0A3E0F9A3E0FAA3E0FBA37808E0F608B7
:101ED300A3DFFAE0FCA3E0FDA3E0FEA3E0FFA3E0A1
:101EE300C0E0A3E0C0E0A3E0F5D0A3E0F520A3E0C9
:101EF300A3F5F010AF0885831985821880088583C0
:101F030019858218D2AFD082D083D0E0F8D0E032E6
:101F130074048006740280027401C0E0F404121C8D
:101F2300DDD0E0121BB3227404800474028000CC61
:101F3300C0E0EDC0E0E518C39CCCAD1950011D1005
:101F4300AF068C188D1980068C188D19D2AF121B11
:101F5300C0D0E0FDD0E0FC22D083D082C5F0E49372
:101F6300A3C5F0C395F0F5F0E493A3C395F0400542
:101F7300E5F0048001E475F002A42582F582E5F022
:101F83003583F583E493A3C0E0E493C0E022D083D8
:101F9300D082E9C0E0E493A3C386F0C5F095F0F9DD
:101FA30008E493A386F0C5F095F0700BE493A3C304
:101FB300994005E9048002A3E475F002A42582F5A3
:101FC30082E5F03583F583D0E0F9E493A3C0E0E440
:101FD30093C0E022D083D082CCC0E0E493A3600618
:101FE3001220011470FAE493A360061220201470E7
:101FF300FAD0E0FCE493A3C0E0E493C0E022C0E0A5
:10200300E493A3D39C5010E493A3C39C400AD0E071
:10201300D0E0D0E0021FF4A3A3A3D0E022C0E0E409
:1020230093A36C7009D0E0D0E0D0E0021FF4A3A327
:10203300D0E022D083D082ECC0E0EDC0E0E493A3F3
:10204300FCE493A3FDED4C600D122082EC24FFFC15
:10205300ED34FFFD80EFE493A3FCE493A3FDED4C8B
:10206300600D1220C1EC24FFFCED34FFFD80EFD0A6
:10207300E0FDD0E0FCE493A3C0E0E493C0E022C021
:10208300E0C3E49396087401939618400FE49366B3
:10209300700808740193661870007019A3A3C3E451
:1020A3009396087401939618A3A3400DD0E0D0E053
:1020B300D0E0022072A3A3A3A3A3A3D0E022C0E095
:1020C300C0F088F0E4936670080874019366187092
:1020D30000A8F0A3A3700BD0F0D0E0D0E0D0E002D2
:1020E3002072A3A3D0F0D0E022C2AF02000022C02E
:1020F300E074F2121E5CA2AFE433FED2AFC2C0E5BD
:10210300D1A2E4500653D1EF12047AEEA2E092AFCB
:102113007F01021EBBC0E074F2121E5CA2AFE43367
:10212300FED2AFE589A2E150031203D8758900C23C
:10213300C5EEA2E092AF7F01021EBBC0E074F212B3
:102143001E5CA2AFE433FED2AFE58BA2E0500312D4
:1021530003D8758B00C2E880D8C0E0C0D0E8C0E0E7
:10216300E9C0E0E5A8D2AFC2C7A2E7A2E792AFD029
:10217300E0F9D0E0F8D0D0D0E032C0E0C0D0E8C081
:10218300E0E9C0E0C008C009C082C083A2AFE43365
:10219300F9D2AF900477E0F8A3E0687008539AFB94
:1021A300A374018026C2E9900477E0F50874012541
:1021B30008F074F72508F58274033400F583E0F51D
:1021C300C1900477E0C394804002E4F0E9A2E09276
:1021D300AFD083D082D009D008D0E0F9D0E0F8D0D6
:1021E300D0D0E03274F5121D70EAFEEBFFEE24341A
:1021F300F8EF3400F988088909EE2435F582EF34C5
:1022030000F583E0F8EE2437F582EF3400F583E040
:10221300F50AEC850AF0A4FCAAF0850AF0EDA42ADD
:10222300FDE82CF8E43DF97A257B00121C22EA85AF
:102233000882850983F0F8740758F97401B900021C
:102243008004C333D9FCFAE8131313541FF8EE28A0
:10225300F8EF3400F9E8245DF582E93400F583E012
:102263005A6008EE2434F582EF802CEE2434F58294
:10227300EF3400F583E0C0E0EE2436F582EF34005E
:10228300F583E0F5F0D0E084A8F0EE28F8EF340011
:10229300F9E82438F582E93400F583E0F97F040294
:1022A3001E1C74F5121D70EAFEEBFFEE2434F5825A
:1022B300EF3400F583E0C0E0EE2435F582EF34001F
:1022C300F583D0E0F08E828F83A3A3A3A3A3A3A35C
:1022D300C082C0838E828F83A3A3A3A3A3E0F8A3AA
:1022E300E0F9D083D082E0C398F508A3E099F5091B
:1022F300EE247FF582EF3400F583E064017069EE2C
:102303002480F582EF3400F583E0F8A3E0F98E82B0
:102313008F83A3A3A3A3A3A3A3E0FCA3E0FD8E82C7
:102323008F83A3A3A3A3A3E0FAA3E0FBC3EA9CEBDD
:102333009D5010C3EC98ED99402EC3EA98EB995049
:1023430027800EC3EA98EB994007C3EC98ED9940B8
:10235300177C997D0AEEFAEFFB121248EE247FF503
:1023630082EF3400F583E4F0EE2434F8EF3400F91F
:10237300E8FCE9FDEE2435F582EF3400F583E0F85F
:10238300EE2437F582EF3400F583E0F50AE508859E
:102393000AF0A4F508AAF0850AF0E509A42AF509CC
:1023A300E82508F8E43509F97A257B00121C22EAAE
:1023B3008C828D83F0F8740758F97401B900028098
:1023C30004C333D9FCFAE8131313541FF8EE28F8A7
:1023D300EF3400F9E8245DF582E93400F583E05A2F
:1023E3006008EE2434F582EF802CEE2434F582EF7E
:1023F3003400F583E0C0E0EE2436F582EF3400F5D7
:1024030083E0F5F0D0E084A8F0EE28F8EF3400F98B
:10241300E82438F582E93400F583E0F9122D05024A
:1024230022A0C082C083851882851983E0F8A3E0C7
:10243300F9C3EA9CEB9D5010C3EC98ED99401BC384
:10244300EA98EB995014800EC3EA98EB994007C3BE
:10245300EC98ED994004790180027900D083D08211
:1024630022EAC39CFAEB9DFB2274EF121D709007C6
:1024730053E064086005E06407702A9061C8E06077
:1024830024900781E0F4601DE0F875F005A4C8AA64
:10249300F02AF9748328FE740739FF8E828F83A391
:1024A300A3A3E0700302259C906060E0C0E0EE24EB
:1024B30068F582EF3400F583D0E0F0750C2C750DD0
:1024C3000B750800750900E5D914F50AE5D954031D
:1024D300F50E60177403650E605CE50A6010EE2468
:1024E30067F582EF3400F583E07003022581900BDA
:1024F30027E06401602AEE2482F582EF3400F5833D
:10250300E06004780480027800850A08E508C3982F
:10251300FA95E0FB120F8A8A088B09EA45097005D0
:102523001215008074EE2482F582EF3400F583E007
:1025330070048A0C8B0DE50A6012850C82850D836D
:10254300F50BE5D9F0A3150BE50B70F6EE2482F538
:1025530082EF3400F583E0604474FC250AF50A78C1
:102563000C121F17AC0AA90EEEFAEFFB1213087434
:1025730002121CC3E97026AA08AB091204FE793DB6
:102583008E828F83A3A3A3A3E0FA7B00120E34EE03
:10259300FAEFFB1212721213687900807D740365DF
:1025A3000E6056850A107511007810121F17AC0CB7
:1025B300AD0DAA08AB091212E47402121CC3EE2477
:1025C30068F582EF3400F583E064807004747F80E3
:1025D30001E0F50C780C121F1BE50EF50C780C12BC
:1025E3001F1BA90AAC08AD09900781E0FA7B001212
:1025F3000DF27402121CC3801C900753E06408ACF4
:102603000CAD0D7009EEFAEFFB1213388007EEFAEA
:10261300EFFB1213CE12150C79017F0A021E1C74F4
:10262300F5121D7074FC121CADEAFEEBFF8908A2C3
:10263300AFE433F509C2AF806AEE2463F8EF3400E8
:10264300F97A007B00A2AFE433F50AC2AF8882892E
:1026530083E0FCA3E0FDEC4D603A88828983E0FAD5
:10266300A3E0FB8A828B83E0FCA3E0FD888289835D
:10267300ECF0A3EDF08A828B83E4F0A3F0888289E7
:1026830083E0FCA3E0FDEC4D700A88828983A3A359
:10269300E4F0A3F0E50AA2E092AF1204FE900AA0D0
:1026A300E004F0EE2463F582EF3400F583E0F8A351
:1026B300E0F9E849603DEE2463F582EF3400F583E9
:1026C300E02402FAA3E03400FBEA2402F50AEB3427
:1026D30000F50B780A121F178A828B83E0FCA3E0B4
:1026E300F9EEFAEFFB1212A27402121CC3E9700393
:1026F30002263C900AA0E06063900AA1E0F8900AE9
:10270300A0E0C398500C740265087050900AA2E0D0
:10271300604A8E828F83A3A3A3A3E08518828519C1
:1027230083F0A3E4F0900AA0E0F87402121CF8E826
:10273300F0A3E4F0900AA0E0F8900A9FE028F07478
:1027430002121CF8AC82AD83851882851983AA8294
:10275300AB837901120DFE900AA0E4F0E509A2E033
:1027630092AF7404121CC30222A0000000852187CB
:102773008522C622C0E0C0D0E8C0E0E9C0E0EAC0DC
:10278300E0EBC0E0ECC0E0EDC0E0EEC0E0C008C0AC
:1027930009C00AC00BC082C083C0F0A2AFE433FEFD
:1027A300C2AF759B00906182E0A2E05012E591A256
:1027B300E0500C7591FE74016521700312246CE0E6
:1027C300A2E55051E591A2E5504B7591DF90075377
:1027D300E064076005E064087023740165217035C7
:1027E3007901900781E0FA75F005A4CAA8F028FBE7
:1027F30074832AFA74073BFB1226228018E0640DC7
:102803007013900775E004F064287002E4F07A0016
:10281300E0F912152A906182E0A2E640030228BE85
:10282300E591A2E640030228BE7591BF900753E0ED
:10283300640570081213F812140480031213FE7552
:10284300210012146AE9900754F0790012144C1213
:1028530011647A017B00900752E0F91202CA907862
:1028630003E064427055900B2BE014F0704DC2AF3F
:1028730012287600782AD0E0F618D0E0F6E59F54C7
:102883000770057509FF800375097FC4C0E07829C7
:10289300E6F50808E65509F509740B7808121C8B50
:1028A300D0E02508F8906270E0A2E740F8E8C3336F
:1028B300906272F0906270E0D2E0F0906181E0A2E9
:1028C300E35009E5E9A2E3500375E9F7A3E0A2E7C2
:1028D3005009E591A2E7500375917FEEA2E092AF14
:1028E300D0F0D083D082D00BD00AD009D008D0E06A
:1028F300FED0E0FDD0E0FCD0E0FBD0E0FAD0E0F980
:10290300D0E0F8D0D0D0E032C0E0C0D0C082C083E5
:10291300906183E0A2E05009E5BFA2E0500375BFD8
:10292300FEE0A2E15009E5BFA2E1500375BFFDE05F
:10293300A2E25009E5BFA2E2500375BFFBE0A2E3A8
:102943005009E5BFA2E3500375BFF7E0A2E45009C5
:10295300E5BFA2E4500375BFEFE0A2E55009E5BF70
:10296300A2E5500375BFDFE0A2E65009E5BFA2E68A
:10297300500375BFBFD083D0828088C0E0C0D0E849
:10298300C0E0E9C0E0EAC0E0EBC0E0ECC0E0EDC0CD
:10299300E0C0F0E5A7A2E6500FE5A1A2E650095377
:1029A300A7BF75A1BF1229E3E5A7A2E5500CE5A1D6
:1029B300A2E5500653A7DF75A1DFE5A7A2E1500901
:1029C300E5A1A2E1500375A1FDE5A7A2E2500CE544
:1029D300A1A2E2500653A7FB75A1FBD0F00228F495
:1029E30074F8121D70752101900753E06406701589
:1029F30012138C8A828B83A3A3A3A3A3A3E0FAA3BA
:102A0300E0FB1213E6A2AFE433FED2AF900759E026
:102A1300640170187A207B00900752E0F912034E8C
:102A23007A207B00900752E0F91202D0906182E095
:102A3300D2E6F0900B28E0602185C622801690072D
:102A430058E064017008E5C654F84405F5C653BE62
:102A5300FC1227707401652160E4EEA2E092AF7F5F
:102A630001021E1C008E238F2485822885832785DF
:102A73001882851983E0CEA3E0CF8528828527833A
:102A8300EBC9EAC8EDCBECCA75F010C3E833C8E96B
:102A930033C9EA33CAEB33CBC3EA9EF526EB9FF582
:102AA30025B35004AB25AA26EC33CCED33CDD5F0BA
:102AB300DAAE23AF242274ED121D708A088B098CC1
:102AC3000A8D0B7413121CF8780C121B7D7808798D
:102AD3000C1219567510017511C875120075130083
:102AE30050127808790C121AF678107908121956D0
:102AF30050168010780C7908121AF67810790C1297
:102B0300195640047901800279007F0C021E1C745F
:102B1300ED121D708A088B098C0A8D0B7413121C1D
:102B2300F8780C121B7D780C79081219564011782D
:102B330008790C121AF6AA08AB09AC0AAD0B80226D
:102B43007510007511007512007513017810790C5A
:102B5300121AF678107908121ABDAA10AB11AC122A
:102B6300AD1380A68A828B837508FF7509FF750AEA
:102B7300FF750B007808121B447F04021E1C74F5BA
:102B8300121D708C828D837808121B7D8A828B8341
:102B93007808121B0AEA2404F8EB3400F98C828DBE
:102BA30083A3A3A3A3E0FCA3E0FD88828983C3E0FE
:102BB3009CF0A3E09DF088828983C3E09420A3E086
:102BC300944E40268A828B837508FF7509FF750A28
:102BD300FF750BFF7808121AE38A828B83A3A3A3E2
:102BE300A3E02420F0A3E0344EF0022B6774F51227
:102BF3001D70E9FE900AB4E0FAA3E0FBEEC333F8DC
:102C0300E433F9742528F582748239F583E02AF5D3
:102C130008A3E03BF5097808121F177A407B427C32
:102C23000F7D00122A687402121CC38A088B098C58
:102C33000A8D0B74107808121A85AA08AB097F0451
:102C4300021E1C74F1121D708A0C8B0D8C0E8D0FDD
:102C5300740F121CF8E0FAA3E0FB7411121CF8E0E5
:102C6300F508A3E0F5097808121F17EA2401F5080F
:102C7300EB3400F509E4F50AF50B780C7908121921
:102C830095750871750902780C7908121995AA0CC3
:102C9300AB0DAC0EAD0F122A687402121CC38B0964
:102CA300EA450960047A0180027A00EC2AFCED34DB
:102CB30000FD7413121CF8E0F8A3E0F9E8FEE9FF45
:102CC300ECF8EDF97A717B02121C22880889098ECF
:102CD300828F837808121B8CECF8EDF97A717B02F2
:102CE300121C228A088B0974057808121C9A8E829A
:102CF3008F83A3A3A3A3E508F0A3E509F07F08024C
:102D03001E1CC082C083E9906000F0D083D0822271
:102D1400FFFFFFFFFFFFFFFF74F4121D04E990079C
:102D240052F012141C907800E0C4540F540764034A
:102D34007004793F8002797F750806750900780868
:102D4400121F177C407D077AEA7B071203AE7402D8
:102D5400121CC3900740E0F47049A3E0F47044A34C
:102D6400E0F4703FA3E0F4703AA3E0F47035A3E01C
:102D7400F4703090780EE0900740F090780FE09077
:102D84000741F0907810E0900742F0907811E090BD
:102D94000743F0907812E0900744F0907813E090A5
:102DA4000745F090074674FFF0A3F0A3F0A3F0A347
:102DB400F0A3F0900740E090074CF0900741E090BA
:102DC400074DF0900742E090074EF0900743E090E3
:102DD400074FF0900744E0900750F0900745E090CB
:102DE4000751F09007707406F0A3740DF0A3E4F09B
:102DF400A37440F0A37401F0900AA874FFF0A3F048
:102E0400A3F0A3F0A3F0A3F0900AA7E4F0900AAE15
:102E1400F0A374A0F0A3E4F0A37403F0A37407F088
:102E2400A3E4F0A37428F0A3E4F0A304F0A3E4F073
:102E3400900AD7F0900AFD74FFF0A3F0A3F0A3F07A
:102E4400A3F0A3F0900AFCE4F0900B0304F0A3E4D5
:102E5400F0A3F0A37480F0A37402F0A37480F0A331
:102E64007402F0A3E4F0A304F0A3F0A3E4F0A374C9
:102E740025F0A3E4F0A3F0900B1474FFF0A3F0A3E7
:102E8400F0A3F0A3F0A3F0900B13E4F0900B1A045A
:102E9400F0A3E4F0A37480F0A37402F0A37480F0B0
:102EA400A37402F0A37425F0A3E4F0A3F0A37405C3
:102EB400F0900B2474FFF0A3E4F0900B26F0900B39
:102EC4002804F0900B297490F0A37401F012117C83
:102ED400120F901213DA79017A2B7B0B1212C09025
:102EE4000B2BE075F01484E5F004F0790C7A4C7B3C
:102EF4000B1212C01212DE7A00900752E0F912038C
:102F040024907803E064427055900B2BE014F07029
:102F14004DC2AF122F1A00782AD0E0F618D0E0F68E
:102F2400E59F540770057509FF800375097FC4C0C8
:102F3400E07829E6F50808E65509F509740B7808E0
:102F4400121C8BD0E02508F8906270E0A2E740F8EC
:102F5400E8C333906272F0906270E0D2E0F09007C0
:102F64007DE4F0A3F07A80FB900752E0F91202CAE4
:102F740002359A74F4121D04EAFEEBFFEEA2E0504F
:102F840045900754E0C39480E0500FC333F8E43312
:102F9400F974B228F5827411800EF4C333F8E43363
:102FA400F974C028F582741139F583E0F8A3E0F5CB
:102FB400838882121D027A00900752E0F9120324DA
:102FC400EE640102327D54087003023064900B22D7
:102FD400E0F875F005A4C8AAF02AF9748328FA74F5
:102FE4000739FB7508007808121F1BEA2432F582A2
:102FF400EB3400F583E0F508A3E0F50974047808E0
:10300400121C8B7808121F17EA2430F582EB340067
:10301400F583121F2EEA242EF582EB3400F583E0AB
:10302400F508A3E0C313F509E50813F508780812B9
:103034001F1775089375090A7808121F17900A92CA
:10304400E0FD7C008A828B83A3A3A3A3E0FA7B0028
:103054007900120E2E7409121CC3EE640802327D2C
:10306400EE541060407508007808121F1BE4F5093F
:103074007808121F177808121F177808121F17757F
:10308400089375090A7808121F17900A92E0FD7CCC
:10309400007A007B007902120E2E7409121CC3EE12
:1030A400641002327DEE5402604075080078081204
:1030B4001F1BE4F5097808121F177808121F1778E8
:1030C40008121F1775089375090A7808121F1790BC
:1030D4000A92E0FD7C017A007B00793C120E2E748A
:1030E40009121CC3EE640202327DEE540470030222
:1030F4003193900781E0F875F005A4C8AAF02AF985
:10310400748328FA740739FBEA242AF582EB340025
:10311400F583E0F5087808121F1BEA2432F582EBE8
:103124003400F583E0F508A3E0F509740478081287
:103134001C8B7808121F17EA2420F582EB3400F563
:1031440083121F2EEA242EF582EB3400F583E0F57A
:1031540008A3E0C313F509E50813F5087808121F5E
:103164001775089375090A7808121F17900A92E0D8
:10317400FD7C018A828B83A3A3A3A3E0FA7B00795D
:1031840000120E2E7409121CC3EE640402327DEE8A
:10319400544060407508007808121F1BE4F5097854
:1031A40008121F177808121F177808121F177508BE
:1031B4009375090A7808121F17900A92E0FD7C01A2
:1031C4007A007B00793B120E2E7409121CC3EE6444
:1031D4004002327DEE5480603B900B29E0F8A3E07E
:1031E400F9E849602A790012031E900B29E0F508DA
:1031F400A3E0F509E4F50AF50B7808121F137A0029
:103204007B01900752E0F91203427404121CC3EECE
:1032140064808065EF5401600C790112031EEEFA9C
:10322400EF64018056EF5402600AC2AF75C9AB75F2
:10323400C95B80FEEF5404600A1220ECEEFAEF64DE
:10324400048038900759E064017033EE5420602EF6
:10325400900753E024F9600314701B793F900781B1
:10326400E0FA75F005A4CAA8F028FB74832AFA745E
:10327400073BFB121278EE6420FAEFFB80047A001D
:103284007B0002359A74F6121D04C3EA9411EB9480
:103294000050047A1080027A20EA2408FAE4340008
:1032A400FB1204F88A088B09A808A909E849600AEE
:1032B400E82404FAE93400FB80047A007B00023E2F
:1032C400E274F6121D04EA2405FAEB3400FB12043E
:1032D400F88A088B09A808A909E849600AE82405BE
:1032E400FAE93400FB80047A007B00023EE2C082EB
:1032F400C083C2AF1213FEE5E170FC75E101121147
:103304005875E1F112142812114C79071214E2795C
:10331400011214E879021214521214881214C47996
:10332400001214D679011214D67A557B557C557D3A
:103334000012143A900A92E4F0A3F0A3F0A3F0A3CD
:10334400F0A3F0A3F0900AAEF0A3F0A3F0900AB2B9
:103354007407F0900AB17403F0900AB7E4F0900A8D
:10336400B6F0900AD7F0900B04F0900B1BF01212F9
:103374006012136212128479001214EE900A997486
:10338400FFF0A3F0A3F0A3F0A3741FF0906012E485
:10339400F0A3F0906063F0752100900753F0900A59
:1033A4009EF0900A9F740CF0900AA0E4F0900AA199
:1033B40004F0900AA2E4F0900AA304F0900AA4E4B2
:1033C400F0900755F0A3F0900758F090075904F0D7
:1033D40090076F04F0900B27E4F0D2AFF90255C0C8
:1033E400C082C083900740E08A828B83F0900741BB
:1033F400E08A828B83A3F0900742E08A828B83A3C6
:10340400A3F0900743E08A828B83A3A3A3F09007E1
:1034140044E08A828B83A3A3A3A3F0900745E08AA8
:10342400828B83A3A3A3A3A30255BDC082C0838AB6
:10343400828B83E0900746F08A828B83A3E0900717
:1034440047F08A828B83A3A3E0900748F08A828B9B
:1034540083A3A3A3E0900749F08A828B83A3A3A349
:10346400A3E090074AF08A828B83A3A3A3A3A3E0DB
:1034740090074B0255BDC082C083121188E97005C4
:1034840012148879000255C074F7121D04EAFEEB89
:10349400FF8908121188E9702CE508600A74016537
:1034A40008600A7912801E7C00790080047C00790F
:1034B40001EEFAEFFB121494E9F8740368700479CE
:1034C4000780027900023E6674F7121D04EAFEEBDF
:1034D400FF8908121188E9702DE508600A740165F6
:1034E4000860087912801F790080027901EEFAEFF2
:1034F400FB12149AE9F87404686005740568700492
:10350400791F80027900023E6674F7121D04EAFEF8
:10351400EBFF12148E023E5E74F6121D04EA4B6039
:1035240016EC4D6012740A121CF8E0F508A3E0F5DD
:1035340009E508450970047912800F7808121F17ED
:103544001212D27402121CC37900023EE274F41205
:103554001D04EAFEEBFF8908900753E06409601438
:10356400E0640A600FE0640B600AE0640C6005E04C
:10357400640D7004790C801E12138C8B0BEA450BBE
:10358400700BA908EEFAEFFB1212C08009900755E0
:10359400E04440F0790D7F04021DD674F6121D0438
:1035A400EA4B6003E970047912801CEAFEEBFF89A0
:1035B400081212BAE98E828F83F0A3AE82AF83150C
:1035C40008E50870EC7900023EE274F7121D048AE3
:1035D400828B83E04433F0A3A882A983E04433F0D0
:1035E4008A828B83E0D2E6F0EA2403FCEB3400FD0C
:1035F4008C828D83E0D2E4F0EA2402FEEB3400FFF7
:103604008E828F83E044C0F08C828D83E04403F08B
:103614008E828F83E0440FF08A828B83E0448CF0A7
:103624008C828D83E0D2E5F088828983E044CCF0FB
:103634008C828D83E044CCF08E828F83E044300210
:103644003E63C082C0837866790788828983A3E059
:103654008A828B83F088828983A3A882A9838A8241
:103664008B83A3AA82AB83E8646E7003E96407705A
:10367400D90255BE74F7121D047409121CF8E0F83F
:10368400A3E0F9900770E08A828B83F0900771E0E1
:10369400FAA3E0FB8C828D83EAF0A3EBF09007732E
:1036A400E0FAA3E0FB88828983EAF0A3EB023E639D
:1036B400C082C083E9F8740168700B900B27740111
:1036C400F079000255C0E87006900B27E480F17988
:1036D4001280F074F7121D04C3EB940F5056C3EA22
:1036E4009403EB9400504DEAF8EBF9E875F005A467
:1036F400C8ACF02CFC75F005E9A42CF9748628F507
:1037040082740739F583E06027EAF8EBF9E875F08D
:1037140005A4C8ACF02CFC75F005E9A42CF974835D
:1037240028FE740739FF8E828F83A3A3A3E0700859
:103734007902804579128041EE24ECF582EF340061
:10374400F583E064017035EE24F2F582EF3400F580
:1037540083121F2EEE24F0F582EF3400F583121F3E
:103764002EEE24EFF582EF3400F583E0FC790012AD
:103774000E467404121CC37900023E66EE24EDF575
:1037840082EF3400F583E07018790CEEFAEFFB1247
:103794001236EE24EDF582EF3400F5837401F080E7
:1037A400D6793A80D474F7121D04ECFEEDFFEE4F87
:1037B4006026EA6005146015801E121176E9F88E01
:1037C400828F83F0748068700A793080088E828FCB
:1037D40083E4F07900023E66791280F9C082C083E6
:1037E400E9FD8D82A882C3E4940F400302387DE88A
:1037F400C39403400302387DE875F005A4C8ACF017
:103804002CF9748628F582740739F583E0700479FD
:10381400028068748328F8740739F9E8245DF58216
:10382400E93400F583E08A828B83F0E8245EF58234
:10383400E93400F583E08A828B83A3F0E8245FF502
:1038440082E93400F583E08A828B83A3A3F0E82421
:1038540060F582E93400F583E08A828B83A3A3A315
:10386400F0E82461F582E93400F583E08A828B83F1
:10387400A3A3A3A3F07900800279120255C074F7C0
:10388400121D04900753E0640C701290618EE0F9ED
:10389400748069705E8C828D83747F8062C3EB94C4
:1038A4000F504CC3EA9403EB94005043EAF8EBF94D
:1038B400E875F005A4C8AEF02EFE75F005E9A42E57
:1038C400F9748628F582740739F583E07004790267
:1038D4008030EA75F005A4CAA8F028F875F005EB65
:1038E400A428FB74EB2AF58274073BF583809F7947
:1038F40012800F900757E0F8E9C3988C828D83F00B
:103904007900023E6674F7121D04E9FE74056E60C8
:103914002374136E601E74146E601974156E601433
:10392400741A6E600F74296E600A743B6E600579B8
:10393400120239EEC3EB940F506AC3EA9403EB947A
:10394400005061EAF8EBF9E875F005A4C8ACF02C76
:10395400FC75F005E9A42CF9748628F582740739FE
:10396400F583E070047902803DEA75F005A4CAA8E5
:10397400F028F875F005EBA428FB74832AFA740781
:103984003BFBEA2469F582EB3400F583E0640170C3
:1039940038EA246AF582EB3400F583E064027008A7
:1039A400793A804679128042EA24F6F582EB3400B3
:1039B400F583EEF0EA241DF582EB3400F583E4F0A0
:1039C400A3F07902121242801FEA24F6F582EB3446
:1039D40000F583EEF0EA241DF582EB3400F583E470
:1039E400F0A3F079021212367900023E6674E812EE
:1039F4001D048A088B098917EC4D6014E9C3941CD3
:103A0400500E7418121CF8E0FB600A74016B600518
:103A14007912023C84C3E509940F5042C3EA94032B
:103A2400E50994005038A808E875F005A4C8AAF080
:103A34002AFA75F005E509A42AF9748628F5827432
:103A44000739F583E0700479028015748328FE74C5
:103A54000739FF900A9FE0700A7907023C847912C3
:103A6400023C84EC24FEFCED34FFFD8C828D83E566
:103A740017F0EB7004740280027401A3F0EC24FECE
:103A8400FCED34FFFDEE2463FAEF3400FB1212A8C0
:103A9400900A9FE014F0900753E064086008E06423
:103AA400076003023C82900781E065087002E50923
:103AB4006003023C827900EEFAEFFB122622906149
:103AC400D0E07003023C82900AA3E0640160030228
:103AD4003C82EE241DF582EF3400F583E0F8A3E088
:103AE400F9E8497003023C82A2AFE433F516C2AF91
:103AF40012138C8A148B151214108A0C8B0D8C0ED5
:103B04008D0F8A088B098C0A8D0B751001751100B5
:103B140075120075130078087910121ABD7808120E
:103B24001F13851482851583A3A3121B9B122AB924
:103B34007404121CC3E964016003023C7CEE242E6D
:103B4400F582EF3400F583E02406F508A3E03400A1
:103B5400F509E4F50AF50B780C7908121ABD780C0E
:103B6400121F13851482851583A3A3121B9B122A8B
:103B7400B97404121CC3E964016003023C7CE514BB
:103B84002408F510E5153400F511851082F583122B
:103B94001F2AAA0CAB0DAC0EAD0F122B127404121B
:103BA4001CC3EE242EF508EF3400F509850882F5D0
:103BB40083121F2E122A687402121CC38A0C8B0DE6
:103BC4008C0E8D0F7410780C121A858E828F83A33D
:103BD400A3A3A3A3A3A3A3A3E0F8A3E0F98E828FD6
:103BE40083A3A3A3A3A3E8F0A3E9F0E8250CF8E9D1
:103BF400350DF98E828F83A3A3A3A3A3A3A3E8F017
:103C0400A3E9F0851082851183C082C08385088270
:103C1400850983E0F508A3E0F509780C7908121901
:103C240095D083D082780C121AD07508FF7509FFDD
:103C3400750AFF780C7908121B1E8514828515837A
:103C4400A3A3E50CF0A3E50DF0A3E50EF0A3E4F0C7
:103C5400EE2435F582EF3400F583E0C0E0EE243441
:103C6400F582EF3400F583D0E0F0EEFAEFFB122298
:103C7400A5AA14AB1512136EE516A2E092AF790053
:103C84007F10021DD674F5121D04E9FE8A098B0A01
:103C9400C394284003023DF1EAC394264003023D45
:103CA400F1EB602D7401650A60277402650A6021D6
:103CB4007403650A601B7404650A60157405650A5B
:103CC400600F7406650A60097407650A6003023DA3
:103CD400F1900753E060057921023D8E1213FE1224
:103CE400115E75E1F17A0179011215127A297B418D
:103CF4007C767D7112147C7A00EEF912152A790013
:103D04001214F490076FE0F912117074022509F58A
:103D1400D9850AD98509D9E50A602414606F14602D
:103D24007D14602E147003023DB0147003023DBE76
:103D3400147003023DCC147003023DDD023DF1E535
:103D440009600F758291758381FFE0F5D9A31FEF98
:103D540070F875E195EE900775F0E509A3F0E50AB2
:103D6400A3F0A3E4F0A3F0A3F0A3F0A37480F09075
:103D740007537409F0906182E0D2E5F079191214C6
:103D8400DC7A007B001213E67900025197E50960A2
:103D9400C1F50875D90F1508E50860B680F5E50981
:103DA40060B0FD75D9551DED60A880F7E50960A2E6
:103DB400FC75D9FF1CEC609A80F7E5096094FB75EB
:103DC400D9001BEB608C80F7E5096086FA75D9F0A1
:103DD4001AEA7003023D5680F4E5097003023D5669
:103DE400F875D9AA18E87003023D5680F479128058
:103DF4009974F7121D04E9FEC394284004791280D3
:103E040057900753E060047921804D1213FE12117C
:103E14005E75E1F17A0179001215187A297B417CEB
:103E2400767D7112147C7A00EEF912152A7900124B
:103E340014F4EE900775F0A3E4F0A374FFF0A3E488
:103E4400F0A3F0A3F0A3F0A37480F0900753740AD6
:103E5400F079181214DC79008008E98E828F83F0DF
:103E640079007F01021DD674F6121D04900753E0F9
:103E740064096009E0640A600479218061E5E17005
:103E8400FC75E101E0640970147A787B0712151E51
:103E940079051214F479007A007B00802FE0640A1B
:103EA400702D75087C7509077808121F177C7A7DB8
:103EB400077A787B071215247402121CC379051241
:103EC40014F47901900778E0FAA3E0FB120E5E1275
:103ED400115812114C75E1F1900753E4F0F97F0287
:103EE400021DD674F6121D04EAFEEBFF8908740B5A
:103EF400121CF8E0F509740C121CF8E0F8A3E0F9C0
:103F0400E508605F74016508601574036508602F37
:103F1400740265086029740465086003023FC2E8FE
:103F2400497003023FC2E509600974016509600331
:103F3400023FC2740365086006740265087046EEA9
:103F44002460FAEF34FFFBC3EA9461EB943F506EB4
:103F5400EC2460FAED34FFFBC3EA9461EB943F4038
:103F640024805BEE24E0FAEF34FFFBC3EA94E1EB38
:103F7400943F504AEC24E0FAED34FFFBC3EA94E1A9
:103F8400EB943F5039C3EC9EED9F4032740A121CEF
:103F9400F8E0FA600574016A7024740F121CF8E0EA
:103FA400FC600F74016C600A74026C600574036C2D
:103FB400700C740E121CF8E0FB74075B7005791228
:103FC400024123900AAEE064017005790C0241239A
:103FD400E508900AB1F074075BA3F0ECA3F0EA9053
:103FE4000AA7702FE4F0900740E0900AA8F0900729
:103FF40041E0900AA9F0900742E0900AAAF09007E5
:1040040043E0900AABF0900744E0900AACF09007CC
:1040140045802E7401F0900746E0900AA8F09007BE
:1040240047E0900AA9F0900748E0900AAAF09007A8
:1040340049E0900AABF090074AE0900AACF0900790
:104044004BE0900AADF0740165087053E509900ADD
:1040540092F088828983E0900A93F088828983A30E
:10406400E0900A94F088828983A3A3E0900A95F0F3
:1040740088828983A3A3A3E0900A96F08882898327
:10408400A3A3A3A3E0900A97F088828983A3A3A3A0
:10409400A3A3E0900A98F0900AAFE4F0A3807D74A3
:1040A400046508704DE509900A92F088828983E0DE
:1040B400900A93F088828983A3E0900A94F088821E
:1040C4008983A3A3E0900A95F088828983A3A3A39C
:1040D400E0900A96F088828983A3A3A3A3E0900AC0
:1040E40097F088828983A3A3A3A3A3E0900A98F0FE
:1040F4008023EC70047900801974016C70047901D8
:10410400801074026C70047902800774036C70056B
:1041140079031214A0900AAFEEF0A3EFF079000235
:104124003EE274F6121D04E9FEC39420500BEE9097
:104134000AB7F06023EA4B700479128023E0F50893
:104144007509007808121F17EAFCEBFD7AB87B0AA0
:104154001202707402121CC3900AB67401F0790042
:10416400023EE274F0121D04E9FE900753E0640974
:104174007003024290E0640A7003024290E0640B10
:104184007003024290E0640C7003024290E0640DFC
:104194007003024290900AB1E0601664016012E07C
:1041A4006403600DE064026008E064046003024399
:1041B40002900AA7E0600764016003024302900AC8
:1041C400B1E064036005E064027010900AAFC3E0DC
:1041D40094A0A3E094005003024302EE7003024251
:1041E4009B146003024302900AAEE0640170030270
:1041F4004290900AB1E0600964016005E0640470D3
:104204000B121398E954FD600302429079011213D2
:1042140080900AA5EAF0A3EBF0900AAE7401F09046
:104224000753E0706E1214108A088B098C0A8D0BE8
:10423400750C03750D00750E00750F007808790C68
:10424400121ABD750CFF750DFF750EFF7808790CF9
:10425400121B1E900AA5E0F8A3E0F5838882A3A3AD
:104264007808121B8C900AA5E0F8A3E0C82406F590
:1042740082E83400F583E4F0A3F012118EE96010B3
:104284007AA57B0A121386900AAEE4F079218005A0
:104294001213687900806B900AAEE060EFA2AFE47D
:1042A40033FFC2AF7AA57B0A121386900AAEE4F0FC
:1042B40012139EE970411213FE906182E0C2E6F08F
:1042C400E5E170FC75E1017591BF75E1F190075965
:1042D400E0640170187A207B00900752E0F9120321
:1042E4004E7A207B00900752E0F91202D07A0090B7
:1042F4000752E0F9120324EFA2E092AF80957912FD
:1043040080937F08021DD674F7121D04EAFEEBFFAA
:10431400121176E9F88E828F83F0748068700479C4
:104324003080027900023E6674F6121D04E9FEC371
:104334009420500BEE900AD7F06023EA4B70047976
:10434400128023E0F5087509007808121F17EAFCAB
:10435400EBFD7AD87B0A1202707402121CC3900A15
:10436400B67401F07900023EE274F7121D04E9FE0E
:10437400600574016E70457409121CF8E0FF600555
:1043840074016F7037EA24FCF8EB34FFF9C3E89446
:10439400FDE9943F5026EC24FCF8ED34FFF9C3E822
:1043A40094FDE9943F5015C3EA9CEB9D400E740ABA
:1043B400121CF8E0F8600A7401686005791202447E
:1043C40063900B04E064017005790C024463EEA36E
:1043D400F0E8900B0AF0EF900AFC702FE4F09007DD
:1043E40040E0900AFDF0900741E0900AFEF090074B
:1043F40042E0900AFFF0900743E0900B00F0900732
:1044040044E0900B01F0900745802E7401F0900772
:1044140046E0900AFDF0900747E0900AFEF090070E
:1044240048E0900AFFF0900749E0900B00F09007F5
:104434004AE0900B01F090074BE0900B02F0900BD8
:1044440006EAF0A3EBF0A3ECF0A3EDF0E870047936
:10445400008007740168700579011214A6790002BE
:104464003E6674F0121D04E9FEEAFF900753E0640F
:104474000970030245D6E0640A70030245D6E0647D
:104484000B70030245D6E0640C70030245D6E06469
:104494000D70030245D6900B05E0600764016003CC
:1044A40002466E900AFCE060076401600302466EF7
:1044B400900B06E024FCF8A3E034FFF9C3E894FD74
:1044C400E9943F400302466EA3E024FCF8A3E034E1
:1044D400FFF9C3E894FDE9943F400302466E900B54
:1044E40006C082900B08E0F8A3E0F975830BD08234
:1044F400C3E098A3E099500302466EEF600874018C
:104504006F600302466EEE70030245D0146003022E
:10451400466E900B04E0640170030245D6790212E2
:104524001380900AFAEAF0A3EBF0900B047401F004
:10453400900B03F0EF900B0BF0900753E060030235
:1045440045CB1211B21214108A0C8B0D8C0E8D0FE8
:10455400750810750900750A00750B00780C790848
:10456400121ABD7508FF7509FF750AFF780C7908E2
:10457400121B1E900AFAE0F8A3E0F5838882A3A335
:10458400780C121B8C900AFAE0F8A3E0C82406F514
:1045940082E83400F583E4F0A3F0900B08E0F5081A
:1045A400A3E0F509E4F50A780C7908121ABD900A1B
:1045B400FAE0F8A3E0C8240EF582E83400F5837825
:1045C4000C121B8C1213687900024306900B04E052
:1045D4007004792180F3A2AFE433F508C2AF7AFA0C
:1045E4007B0A121386900B04E4F012139EE97046C2
:1045F4001213FE906182E0C2E6F0E5E170FC75E121
:10460400017591BF79011214E875E1F1900759E041
:10461400640170187A207B00900752E0F912034E6F
:104624007A207B00900752E0F91202D07A009007BA
:1046340052E0F9120324E508A2E092AF900B0AE0DD
:10464400640170061214C40245CBA3E06401600344
:104654000245CB900B0AE060030245CB121488128A
:1046640014C479011214D00245CB79120245CD74D9
:10467400F7121D04900753E064076005790C0247A4
:1046840029EC4D700302472CC3EB940F40030247FF
:104694002CC3EA9403EB9400400302472CEAF8EBA2
:1046A400F9E875F005A4C8AEF02EFE75F005E9A48E
:1046B4002EF9748628F582740739F583E07004793D
:1046C400028062EA75F005A4CAA8F028F875F0051E
:1046D400EBA428FB74832AFA74073BFB7E008C82CC
:1046E4008D83E0C0E0EEF8C3E498F895E0F9EA2899
:1046F400F8EB39F9E824D1F582E93400F583D0E008
:10470400F00E8C828D83A3AC82AD83EEC3941040F3
:10471400CDEA24D3F582EB3400F5837401F07905F6
:104724001212367900023E66791280F9C082C08383
:10473400900753E064076005790C0247C7C3EB9404
:104744000F5068C3EA9403EB9400505FEAF8EBF966
:10475400E875F005A4C8ACF02CFC75F005E9A42CB0
:10476400F9748628F582740739F583E070047902B8
:104774008051EA75F005A4CAA8F028F875F005EB95
:10478400A428FB74832AFA74073BFBEA24DCF58231
:10479400EB3400F583E064017015EA24F6F582EB4E
:1047A4003400F5837406F07902801379128014EAD8
:1047B40024DDF582EB3400F5837406F0790D1212D2
:1047C4003679000255C074E8121D0474FB121CAD46
:1047D4007403121CF8EAF0A3EBF07401121CF8EC59
:1047E400F0A3EDF0E9851882851983F07429121C71
:1047F400F8E0FEA3E0FF742B121CF8E0F508A3E038
:10480400F509900B1BE0640170030249B7790412A7
:104814001392E9640170030249B7900753E06409F5
:1048240070030249B7E0640A70030249B7E0640BFD
:1048340070030249B7E0640C70030249B7E0640DE9
:1048440070030249B77403121CF8E024FCF8A3E0D7
:1048540034FFF9C3E894FDE9943F4003024B3D74EF
:1048640001121CF8E024FCF8A3E034FFF9C3E89437
:10487400FDE9943F4003024B3D7403121CF8C082CF
:10488400C0837401121CF8E0F8A3E0F9D083D0824D
:10489400C3E098A3E0995003024B3D741E121CF828
:1048A400E0F50AA3E0F50B851882851983E0600919
:1048B40064016003024B3D8009E50A450B70030265
:1048C4004B3D741D121CF8E0600764016003024B49
:1048D4003D7420121CF8E0600764016003024B3D44
:1048E400C3E5089EE5099F5003024B3D7421121C49
:1048F400F8E0FAA3E0FBEA24FAF8EB34FFF9C3E8A2
:10490400947BE9940C4003024B3D7423121CF8E0A1
:10491400F8A3E0F97423121CF8E8F0A3E9F0742377
:10492400121CF8E024FAF8A3E034FFF9C3E8947BFE
:10493400E9940C4003024B3D7423121CF8C3E09A23
:10494400A3E09B5003024B3D7425121CF8E0F8A32E
:10495400E0F97425121CF8E8F0A3E9F07425121CA0
:10496400F8C3E094F4A3E094014003024B3D7427A0
:10497400121CF8E0F508A3E0F509E50824F6F8E5CB
:104984000934FFF9C3E89477E9940C4003024B3DE2
:104994007901121392E96401700F900AB1E0601377
:1049A4006401600FE06404600A7940121392E964C0
:1049B4000170057921024D9A85080C85090D74034F
:1049C400780C121C9AF50EF50F7425121CF8E024CD
:1049D40001F514A3E03400F515E4F516F517742376
:1049E400121CF8E0F8A3E0F9E8C333F8E933F988D6
:1049F400108911E4F512F5137814791012199578C9
:104A04000C7914121956506912127EE9640170056A
:104A1400793A024D9A900780E060477423121CF89B
:104A2400E0FEA3E0FFEEC333FEEF33FF7AFF7BFF2C
:104A340012126C8A0C8B0D7403780C121C8B900769
:104A440080E0F8C3E50C98E50D94004039C3EA9E74
:104A5400EB9F5020EEF8EFF9121C228B0DEA450D66
:104A64007024851882851983E07020E50A450B704F
:104A74001A024B3DEAF8EBF9EEFAEFFB121C228B1B
:104A84000DEA450D60DC793B024D9A1212548A0CF2
:104A94008B0DAE0CAF0DEE4F70057909024D9A8E59
:104AA400828F83A3A3A3A3E0900B22F07403121CB0
:104AB400F8E0F8A3E0F9900B1CE8F0A3E9F0740126
:104AC400121CF8E0F8A3E0F9900B1EE8F0A3E9F05B
:104AD400851882851983E0900B21F0EEF8EFF97ABE
:104AE400997B0A8A828B83E0C0E0E8245DF582E941
:104AF4003400F583D0E0F08A828B83A3AA82AB834F
:104B040088828983A3A882A983EA649E7003EB64E4
:104B14000A70D0EE245DFCEF3400FDEEFAEFFB12D8
:104B24001248EE2436F582EF3400F583E0C3940294
:104B3400500CEEFAEFFB12125A7912024D9A850AC2
:104B440082850B83E0900A93F0850A82850B83A308
:104B5400E0900A94F0850A82850B83A3A3E0900A6F
:104B640095F0850A82850B83A3A3A3E0900A96F0AF
:104B7400850A82850B83A3A3A3A3E0900A97F085FB
:104B84000A82850B83A3A3A3A3A3E0900A98F074DD
:104B940020121CF8E0900B13F07420121CF8E07043
:104BA4002D900740E0900B14F0900741E0900B1516
:104BB400F0900742E0900B16F0900743E0900B173B
:104BC400F0900744E0900B18F0900745802B900775
:104BD40046E0900B14F0900747E0900B15F0900717
:104BE40048E0900B16F0900749E0900B17F09007FF
:104BF4004AE0900B18F090074BE0900B19F0741DED
:104C0400121CF8E0900A92F012128AEE2426F58221
:104C1400EF3400F583121BA7121122EE2422F58231
:104C2400EF3400F583121BA77423121CF8E0F8A3D9
:104C3400E0F9EE242EF582EF3400F583E8F0A3E9E1
:104C4400F0EE2432F582EF3400F583E508F0A3E5B5
:104C540009F07425121CF8E0F8A3E0F9EE2430F50D
:104C640082EF3400F583E8F0A3E9F0900B23E0C071
:104C7400E0EE242AF582EF3400F583D0E0F0EE2450
:104C84002BF582EF3400F5837402F01212BAE97541
:104C9400F00C84E5F02405C0E0EE2437F582EF340F
:104CA40000F583D0E0F0900B207425F0900780E0AD
:104CB400C394024005790112144C790412138090B4
:104CC4000B11EAF0A3EBF0900B1B7401F0900B11A5
:104CD400E0F8A3E0C82416F582E83400F58374D61E
:104CE400F0A37411F0900B11E0F8A3E0C82414F5BC
:104CF40082E83400F5837417F0900753E0600302F0
:104D04004D981214108A0C8B0D8C0E8D0F7508A003
:104D1400750900750A00750B00780C7908121ABD24
:104D24007508FF7509FF750AFF780C7908121B1EB8
:104D3400900B11E0F8A3E0F5838882A3A3780C120A
:104D44001B8C900B11E0F8A3E0C82406F582E8342C
:104D540000F583E4F0A3F0900B1EE0F508A3E0F562
:104D640009E4F50A780C7908121ABD900B11E0F8E1
:104D7400A3E0C8240EF582E83400F583780C121BF6
:104D84008C8E828F83A3A3A3A3E0F91211B812110E
:104D9400BE12136879007405121CC3023C84C082DD
:104DA400C083900B1BE060087904121392E970042D
:104DB400790C8037900B1BE4F012139EE9702A9053
:104DC4000759E0640170187A207B00900752E0F9DB
:104DD40012034E7A207B00900752E0F91202D07A37
:104DE40000900752E0F912032479000255C074E8D8
:104DF400121D04900753E064086005790C025048C2
:104E0400EC24FAF8ED34FFF9C3E8947BE9940C4000
:104E140003024F597418121CF8E0F516A3E0F517B5
:104E2400E51624FAF8E51734FFF9C3E8947BE9940E
:104E34000C4003024F59C3E5169CE5179D5003022D
:104E44004F59741A121CF8E0F8A3E0F9741A121CF2
:104E5400F8E8F0A3E9F0741A121CF8C3E094F4A380
:104E6400E094014003024F59741C121CF8E0FEA3A5
:104E7400E0FFEE24F6F8EF34FFF9C3E89477E99401
:104E84000C4003024F59C3EB940F507EC3EA9403C2
:104E9400EB94005075EAF8EBF9E875F005A4C8AC9A
:104EA400F02CFC75F005E9A42CF9748628F58274BD
:104EB4000739F583E0700479028051EA75F005A49E
:104EC400CAA8F028F875F005EBA428FB74832AF52A
:104ED4001474073BF515E514246EF582E5153400CA
:104EE400F583E0600FE514246AF582E5153400F5D6
:104EF40083E06011E5142473F582E5153400F5832D
:104F0400E06401700A793A02504879120250488EDE
:104F1400088F0974037808121C9AF50AF50B741AA1
:104F2400121CF8E02401F510A3E03400F511E4F5B7
:104F340012F513E516C333F8E51733F9880C890D18
:104F4400E4F50EF50F7810790C121995780879109C
:104F540012195640057912025048900780E0C39414
:104F6400024052851608851709E508C333F508E59C
:104F74000933F5097AFF7BFF12126C8A0A8B0B74D2
:104F840003780A121C8B900780E0F8C3E50A98E5C1
:104F94000B94005003025060C3EA9508EB95094056
:104FA4000302504BA808A909121C228B09EA4509DF
:104FB4006003025060E5142476F582E5153400F5AB
:104FC400837402F0E5142477F582E5153400F58343
:104FD400E4F0A3F0E5142430F582E5153400F583FC
:104FE400E02407F8A3E03400F9E5142474F582E51D
:104FF400153400F583E8F0A3E9F0E5142479F5828B
:10500400E5153400F583E516F0A3E517F0741A12DC
:105014001CF8E0F8A3E0F9E514247BF582E51534E7
:1050240000F583E8F0A3E9F0E514247DF582E515A5
:105034003400F583EEF0A3EFF07900AA14AB151257
:1050440012367900023C84EAF8EBF9AA08AB09129B
:105054001C228B09EA45097003024FB9793B80E4AD
:1050640074F5121D04EAFEEBFF900753E064086038
:1050740005790C025197EE4F60158E828F83A3A39E
:10508400A3A3E054E0700812124EE96401600579AC
:1050940012025197750A007A7F7B07788379078A11
:1050A400828B83A3A3A3A3A3A3A3E064017030E82A
:1050B400246EF582E93400F583E0600FE8246AF594
:1050C40082E93400F583E06401600FE8247FF5820F
:1050D400E93400F583E064017005793A02519705DB
:1050E4000AE82405F8E93401F9EA2405FAEB340165
:1050F400FBE50AC3940340A77A997B0AEE2405F8DA
:10510400EF3400F98E828F83E08A828B83F08E8263
:105114008F83A3AE82AF838A828B83A3AA82AB835D
:10512400E86E7002E96F70DC750A0075087F750916
:10513400077E837F07850882850983A3A3A3A3A38E
:10514400A3A3E06401702BEE2430F582EF3400F564
:1051540083E02407F8A3E03400F9EE2480F582EF1D
:105164003400F583E8F0A3E9F07901EEFAEFFB12DD
:105174001236050AEE2405FEEF3401FFE508240586
:10518400F8E5093401F988088909E50AC39403405C
:10519400A479007F03021DD674F3121D04900753F3
:1051A400E064086005790C0253A6EC4D6024740D8C
:1051B400121CF8E0F50AA3E0F50BE50A450B6012B2
:1051C400740F121CF8E0F508A3E0F509E508450999
:1051D400700579120253A6C3EB940F40030252895F
:1051E400C3EA9403EB94004003025289EAF8EBF912
:1051F400E875F005A4C8AEF02EFE75F005E9A42EFE
:10520400F9748628F582740739F583E0700479020D
:105214008075EA75F005A4CAA8F028F875F005EBC6
:10522400A428FB74832AFE74073BFFEE24E3F58273
:10523400EF3400F583E07039EEF8EFF97A667B0716
:105244008A828B83A3E0C0E0E824E4F582E9340099
:10525400F583D0E0F08A828B83A3AA82AB83888211
:105264008983A3A882A983EA646E7003EB64077040
:10527400CFEE24E4F582EF3400F583E0A2E0400AA7
:1052840079110253A679120253A6EEF8EFF9EC2431
:1052940008FAED3400FB8C828D83E0C0E0E8249BA7
:1052A400F582E93400F583D0E0F08C828D83A3ACE1
:1052B40082AD8388828983A3A882A983EA6C700261
:1052C400EB6D70D2850A82850B83E0C0E0EE24A3E7
:1052D400F582EF3400F583D0E0F0850A82850B83F4
:1052E400A3E0C0E0EE24A4F582EF3400F583D0E01F
:1052F400F07C00A808A90988828983E0C0E0ECFA60
:10530400C3E49AFA95E0FBEE2AFAEF3BFBEA24D1D8
:10531400F582EB3400F583D0E0F00C88828983A316
:10532400A882A983ECC3941040CDEE2493FAEF3401
:1053340000FB1212C6EE2487FAEF3400FB1212CCE3
:10534400900755E04480F0EE2462F582EF3400F5D6
:1053540083E4F0EE24D2F582EF3400F583E4F0EE3A
:1053640024D3F582EF3400F583E4F0EE2482F58251
:10537400EF3400F583E064017011EE24DCF582EF74
:105384003400F5837401F0790A800EEE24DCF58292
:10539400EF3400F583E4F07903EEFAEFFB121236F2
:1053A40079007F05021DD6C082C083900753E06454
:1053B400086004790C8059C3EB940F5051C3EA94EC
:1053C40003EB94005048EAF8EBF9E875F005A4C83B
:1053D400ACF02CFC75F005E9A42CF9748628F58250
:1053E400740739F583E07004790280247908EA753A
:1053F400F005A4CAA8F028F875F005EBA428FB74FE
:10540400832AFA74073BFB12123679008002791260
:105414000255C074EC121D0489088A0A8B0B1213FE
:105424008C8A0C8B0DAE0CAF0D1214108A0C8B0DE4
:105434008C0E8D0F850A82850B837401F0E508605C
:105444000A74016508600479128071EE4F604C782B
:105454000C121F138E828F83A3A3121B9B122AB9D3
:105464007404121CC3E9603A75100B7511007512AF
:1054740000751300780C121F138E828F83A3A3125E
:105484001B9B122B127404121CC38A0C8B0D8C0EE2
:105494008D0F7810790C1219564007A90812116A59
:1054A4008018E5089007557005E044018003E04446
:1054B40002F0850A82850B83E4F079007F0C021DDB
:1054C400D674EC121D0489088A0A8B0B12138C8A79
:1054D4000C8B0DAE0CAF0D1214108A0C8B0D8C0EB0
:1054E4008D0F850A82850B837401F0E508601174C1
:1054F400016508600B740265086005791202559312
:10550400EE4F604C780C121F138E828F83A3A3126C
:105514001B9B122AB97404121CC3E9603A75100B60
:10552400751100751200751300780C121F138E820A
:105534008F83A3A3121B9B122B127404121CC38A05
:105544000C8B0D8C0E8D0F7810790C1219564007A8
:10555400A9081211708036E508600B1460101460FD
:105564001514601A801F900755E0440480169007B4
:1055740055E04408800E900755E0441080069007DB
:1055840055E04420F0850A82850B83E4F07900021B
:1055940054C0C082C083E9F8900A9EE0F9E8600E26
:1055A40014700E7401F0E069700B79FF8009E480D7
:1055B400F47912800279008003F07900D083D082DC
:1055C400020122C082C083E9F8900B28E0700479BC
:1055D4000C800EE8600D1470109007587401F07977
:1055E4000080D9900758E480F5791280F4C082C015
:1055F40083E9F8900753E0701AE8600D1470109076
:1056040007597401F07900800C900759E480F5790A
:10561400128002790C80A574F6121D04EA4B601600
:10562400EC4D6012740A121CF8E0F508A3E0F509C9
:10563400E508450970047912800F7808121F1712C3
:1056440012D87402121CC37900023EE2C082C083E5
:10565400EA4B7004791280168A828B83E0A2E09070
:105664000767E05004D2E08002C2E0F079000255FE
:10567400C0C082C083E9600E147011900AA3740143
:10568400F079000255C0900AA3E480F4791280F303
:10569400C082C083E9F8900753E064076004790C82
:1056A400800EE8600E147011900AA47401F0790061
:1056B4000255C0900AA4E480F4791280F374F712BE
:1056C4001D04E9FFEAFEC394285008EF6009740141
:1056D4006F60047912805B900753E0600479218045
:1056E400511213FE12115E75E1F17A297B417C7629
:1056F4007D7112147C74016F70137A01EEF9121526
:105704002A79001214F4906190742480177A00EEC0
:10571400F912152A79071214F49061907404F09028
:1057240061E874FFF0900753740BF079041214DCF1
:105734007900023E66C082C083900753E06004791A
:105744002180671213FE12115E75E1F17A0179016D
:105754001215127A297B417C767D7112147C900794
:1057640075E4F0FAF912152A79001214F475D927A0
:1057740075D90075D925758291758381E0F5D9A312
:10578400E58264B67004E583648170F075E19590F8
:105794000753740DF0906182E0D2E5F07919121488
:1057A400DC7A007B001213E679000255C074F7120C
:1057B4001D04E9FEC39428400479128037900753EE
:1057C400E060047921802D1213FE12115E75E1F15F
:1057D4007A297B417C767D7112147C7A00EEF91271
:1057E400152A79001214F4900753740CF0790312FB
:1057F40014DC7900023E66C082C083900753E064E3
:105804000B600EE0640C6009E0640D600479218093
:1058140005120F9079000255C0C082C083EA4B7014
:10582400057912025914900753E06005790C025966
:10583400148A828B83E0F47060A3E0F4705B8A8244
:105844008B83A3A3E0F470518A828B83A3A3A3E088
:10585400F470468A828B83A3A3A3A3E0F4703A8AEC
:10586400828B83A3A3A3A3A3E0F4702D90074CE041
:10587400900740F090074DE0900741F090074EE00C
:10588400900742F090074FE0900743F0900750E0F4
:10589400900744F09007518070900740E090074CC7
:1058A400F0900741E090074DF0900742E090074EDA
:1058B400F0900743E090074FF0900744E0900750C2
:1058C400F0900745E0900751F08A828B83E09007BF
:1058D40040F08A828B83A3E0900741F08A828B8315
:1058E400A3A3E0900742F08A828B83A3A3A3E09052
:1058F4000743F08A828B83A3A3A3A3E0900744F019
:105904008A828B83A3A3A3A3A3E0900745F0790025
:105914000255C0C082C083C3EA94F5EB94014005EC
:1059240079120259E8900753E064086005E06407BF
:105934007005790C0259E8C3EA9415EB94005008F9
:10594400900B2374070259DDEA24EBF8EB34FFF9DA
:10595400C3E8940AE994005007900B2374068079F5
:10596400EA24E1F8EB34FFF9C3E89414E994005015
:1059740007900B2374058061EA24CDF8EB34FFF91A
:10598400C3E89419E994005007900B2374048049E8
:10599400EA24B4F8EB34FFF9C3E89419E99400500D
:1059A40007900B2374038031EA249BF8EB34FFF94E
:1059B400C3E89432E994005007900B2374028019D1
:1059C400EA2469F8EB34FFF9C3E89464E99400909D
:1059D4000B23500474018001E4F0900AB4EAF0A3AC
:1059E400EBF079000255C074F7121D04E9FE9061D2
:1059F40085E0F874016E7012E8C3940F50077401C7
:105A040028F91211527900023E66EE7007E860F53B
:105A140074FF80EC791280EF74F4121D0474FC128C
:105A24001CAD902D14E493F46004790C80499061CA
:105A340085E0851882851983F07508007509FF755E
:105A44000AFF750BFF7808121B5785188285198386
:105A54007808121B8C7508017509007808121F1745
:105A64007402121CF8AC82AD837A457B0B1203B42A
:105A74007402121CC379007404121CC302359AC048
:105A840082C083E9F8600E7401686009740268607A
:105A94000479128007E890076FF079000255C0740A
:105AA400F6121D04E9FB74FF6B700C900B2474FF59
:105AB400F0A3E4F0F9804CEB600C1460491470031B
:105AC400025B68025BABEAC394084003025BABE58C
:105AD400AEC4540F54076A700353AE7F7508017542
:105AE4000900EA7808121C9AA808E8F4F952F2525C
:105AF400F3E842FDE952ABEBF9EA900B24F0A3E999
:105B0400F07900023EE2EA601814601A14601C1472
:105B1400601E146020146022146024146021025B4F
:105B2400AB90624380179062448012906245800D6E
