:020000040000FA
:0600000002011D0223DBDA
:03002B00021C9C18
:0300530002244E36
:03006B00021C6A0A
:10008300022247E5C754F84401F5C779012200006D
:100093000080FB120086B90003020107E47921788E
:1000A30008B800028004F709D8FCE479297802B87B
:1000B30000028004F709D8FCE490028178F1790703
:1000C3008002F0A3D8FCD9FA781A90014D7A01BACC
:1000D30000028007E493A3F608DAF9900971AA8273
:1000E300AB8390014E78C779048015E493A3AC8267
:1000F300AD838A828B83F0A3AA82AB838C828D83A8
:10010300D8E9D9E77582547583B8740312012F7542
:100113008291758300740012012F75D00075813FA1
:10012300751881751902759F00020096C09FF59F8F
:10013300E473D09F22D083D082C09FE493C0E07445
:100143000193C0E0740293F59F2201FFFF0A41630C
:1001530063656C20456E61626C65000002140041AA
:100163006363656C2052616E676500001010104177
:100173006363656C20582D436F6F7264696E61749D
:10018300650000416363656C20592D436F6F726492
:10019300696E6174650000416363656C205A2D4389
:1001A3006F6F7264696E617465000002D78101002C
:1001B30000D18102DD810100007309021D82030069
:1001C30000A00202EB81010000740902DD8101003D
:1001D300008209021B82010000830902EB810100F6
:1001E30000850902DD8101000092090219820000E5
:1001F30000A10202F781030000A40202EB810100C7
:1002030000950902DD8101000093090217820000B5
:1002130000A20202F781030000AA0202EB8101009F
:1002230000A90902DD810100009409021582000082
:1002330000A30202F781030000B00202EB81010078
:1002430000BD09110199010F1264040102D7810154
:100253000000C28102DD810100006E0A020B8201EF
:1002630000006F0A02F781030000BE0202F9810158
:100273000000700A020202020202020202010D00E1
:100283000000100102D781010000D48102DD810149
:1002930000009A0A020582010000C50202DD810105
:1002A30000009B0A02FD81010000158102DD81012E
:1002B30000009C0A021182010000F98002DD810125
:1002C30000009D0A02E981010000A58002DD810191
:1002D30000009E0A02E781010000818002DD8101A6
:1002E30000009F0A02E581010000938002DD810185
:1002F3000000A00A02E381010000B78002DD810152
:100303000000A10A02E181010000078102DD8101F1
:100313000000A20A02DF81010000A30A01E803052D
:100323003F100A0B094B6579666F6264656D6F0256
:1003330001050702031802180418544920424C45CA
:10034300204B6579666F6200000000000000005CCE
:1003530008000062086808FF000130750302010607
:10036300000000000000000000000000000000008A
:10037300000000000000000000000000FFFF060076
:10038300800CE8030A041202D781010000CE810227
:10039300DD81010000AA0B02F381030000A2040225
:1003A300D781010000CB8102DD81010000AB0B028C
:1003B300F381020000A30402D781010000C8810277
:1003C300DD81010000AC0B02F581010000A40402F1
:1003D300F781030000A504104B6579205072657303
:1003E300732053746174650002D781010000C581D5
:1003F30002DD81010000FD0B020182000000AB045D
:1004030002F781030000AC0402EB81010000FE0B44
:10041300FF0000B4000028002800283075A000A0C9
:1004230000A000A00000080008E001F00010001088
:100433000010001000100010005000500050001079
:10044300001000D0070000000000000F00010005AD
:1004530000307507001000010081FF00000000FF5D
:10046300800B9E0B860BFF02020208025000A000C5
:100473000000E80302D781010000BF8102DD810192
:1004830000008D0C020D82010000E40402DD8101F5
:1004930000008E0C021382010000FA0402DD8101C8
:1004A30000008F0C022182010000FC0402DD8101A7
:1004B3000000900C020982080000FD0402DD8101A6
:1004C3000000910C020382010000920CFF0100FF67
:1004D3002002D781010000BC8102DD81010000F60A
:1004E3000C02FB81000000000002F7810300004AB8
:1004F300056811681168116811681168116811683D
:100503001168116811681168116811FC131414F64D
:10051300131201383DDF0212013847DF021201389E
:1005230085DF02120138CEDF0212013808E0021221
:10053300013862E00212013883E0021201388CE0D4
:1005430002120138D9E00212013802E10212013825
:100553000CE10212013878E1021201380AE20212B8
:10056300013854E2021201388AE20212013816E31A
:100573000212013857E3021201388EE302120138E6
:10058300A0E302120138BFE302120138C8E30212EA
:10059300013895E4021201380CB103120138F5B7A2
:1005A30003120138ACA303120138E2A3031201388A
:1005B30018A40312013863A503120138D9B6031234
:1005C3000138EFB603120138F9B60312013843B705
:1005D30003120138AFF302120138C4F302120138D7
:1005E30074F402120138B4F402120138CDF4021289
:1005F300013808F50212013855F50212013887F562
:1006030002120138C9F502120138CAF70212013881
:100613003CF80212013803B2031201382CB2031260
:1006230001385BB20312013873B203120138B5B259
:1006330003120138668803120138C1880312013896
:10064300DE8803120138ED8903120138388A031258
:100653000138F68A03120138EB8B0312013898969E
:1006630003120138CF9603120138EE9603120138B4
:100673009997031201382E9803120138B698031282
:100683000138657E00120138EE7E00120138FE7ECD
:1006930000120138167F00120138367F001201382C
:1006A300CD7F00120138DB7F0012013871B50312D0
:1006B300013892B50312013823B603120138569C50
:1006C300031201387B9C03120138A59C03120138E5
:1006D300ACB803120138A15D0012013806600012A4
:1006E3000138A761001201385B6200120138EE6223
:1006F3000012013873630012013898630012013845
:10070300EE6600120138746700120138A768001200
:100713000138E16800120138166900120138D66AFF
:1007230000120138336B001201387C6B0012013860
:10073300E76B00120138586C001201388A6C001202
:100743000138A26C00120138EB6D00120138FB6D09
:1007530000120138166F00120138386F0012013889
:100763006E6F00120138227100120138AF7100124E
:100773000138EE7100120138127300120138B0B45F
:1007830003120138C1B40312013866B503120138EC
:1007930002B90312013841B903120138DCFF021216
:1007A3000138FAB2031201380AB3031201381FB336
:1007B30003120138D3B30312013808B0031201380E
:1007C3008DB003120138F3B003120138C6AD031222
:1007D3000138EDAD0312013843AE0312013855AEB3
:1007E30003120138A5AE03120138E3AE0312013838
:1007F300E6AE031201384D840312013861840312FB
:100803000138DB8403120138BF8503120138968750
:1008130003120138FB87031201385288031201388F
:10082300F87F00120138229F03120138BDA0031282
:1008330001381EA10312013864A103120138DCF749
:1008430001120138E0F90112013890FB011201385D
:1008530065FC0112013806FD0112013825FD011264
:10086300013872FE01120138B1FE01120138F9FE9E
:1008730001120138C9AA031201381BAB0312013854
:10088300A5AB031201380CAC0312013867A10312A4
:10089300013891A1031201385FA2031201383AA370
:1008A300031201385EC80212013825C90212013849
:1008B3005CC90212013886C902120138E6C9021264
:1008C30001383CCA02120138A1CA0212013839CBDD
:1008D3000212013848CC02120138DFCD021201386E
:1008E3006CCE02120138D3CE02120138EACE0212C4
:1008F300013804D00212013842D0021201380080BC
:10090300021201388183021201380985021201386B
:100913006085021201387F8502120138FD850212BB
:100923000138938702120138788802120138868CC5
:10093300021201385C8D02120138B6FC0212013832
:1009430034FD0212013851FD02120138DAFD0212A0
:10095300013805FE0212013897FE02120138A3FF87
:10096300021201389DA503120138E2A503120138D2
:1009730036A603120138B9A60312013831A70312B0
:1009830001386AA70312013881A703120138B2A7FD
:1009930003120138EDA70312013817A80312013817
:1009A30041A80312013858A8031201386FA8031293
:1009B300013886A803120138AFA803120138C2A870
:1009C30003120138D8A803120138EBA80312013827
:1009D30012A903120138BBB502120138BFB60212C5
:1009E3000138F7B6021201381AB70212013825B7D7
:1009F3000212013848B70212013857B802120138FF
:100A03002CB902120138A7B9021201382FBA021207
:100A130001386ABA02120138A1BA021201382FBB97
:100A23000212013808BC0212013868BC02120138F4
:100A330073BC02120138F2BC02120138F5BC021277
:100A43000138F8BC0212013887BD021201388ABD91
:100A530002120138BABD02120138E4BD0212013894
:100A6300D2BE0212013884BF02120138F2EE021222
:100A730001381AEF0212013848EF021201387FEFF2
:100A830002120138DDEF0212013828F00212013898
:100A930073F002120138B3F002120138F9F00212B6
:100AA300013827F102120138E4F102120138EEF1A4
:100AB30002120138FBF1021201382EF20212013840
:100AC300FAF20212013806F3021201381EF302127F
:100AD300013828F302120138D9B303120138E7B3FE
:100AE30003120138FFB30312013817B4031201389C
:100AF30050CC01120138FCCC0112013877CD011220
:100B0300013898CE01120138D4CE011201387DCFBD
:100B13000112013864D001120138C8D10112013821
:100B23001FD201120138A0D20112013890D3011251
:100B33000138DDD30112013863D40112013895D491
:100B430001120138A9D601120138EBD6011201387E
:100B530009D7011201388CD70112013860D801126C
:100B6300013828D9011201381AD802120138EDD8F8
:100B73000212013896D902120138E9D9021201385A
:100B830099DA0212013825DB0212013811DC021254
:100B9300013840DC0212013853DD021201389BDDBB
:100BA3000212013870DE02120138ACDE0212013883
:100BB300C8DE0212013871B703120138069003121E
:100BC30001381C90031201384290031201385E91E0
:100BD300031201386891031201389D920312013800
:100BE300959303120138C3E402120138F3E50212AC
:100BF300013826E60212013870E60212013837E89E
:100C03000212013861BC01120138CBBC0112013858
:100C13002ABE011201383ABE0112013867BE011221
:100C23000138BEBE0112013867BF011201386EC020
:100C33000112013838C10112013898C2011201387A
:100C4300DBC20112013880C301120138CDC3011286
:100C53000138F3C30112013801C60112013806C677
:100C6300011201380BC80112013858C801120138AA
:100C7300CBC801120138FEC801120138A0C9011204
:100C8300013849CA0112013881CA0112013884CAE4
:100C930001120138CCCA011201380CCB0112013800
:100CA30063CB011201388399031201389B99031214
:100CB3000138E39903120138F99903120138409A74
:100CC30003120138549B03120138E19B03120138CC
:100CD3002C9C03120138142B00120138202B001214
:100CE30001385B2B00120138A02B00120138602C55
:100CF30000120138E62C001201384B2D0012013886
:100D0300772D00120138B02D00120138EE2F00129A
:100D13000138D23100120138B83300120138FB34E4
:100D2300001201384937001201385B3800120138CC
:100D3300A63900120138B63A00120138D33A00122C
:100D430001380E3B00120138303B00120138933B4F
:100D530000120138544000120138E94000120138F2
:100D63003A4100120138614100120138B3410012C7
:100D73000138D141001201382B42001201381443CB
:100D8300001201388A44001201380E45001201385E
:100D9300EAE902120138F4E90212013837EA0212D1
:100DA300013852EA02120138E2EA021201380AEB70
:100DB3000212013847EB021201387EEB02120138AE
:100DC300A7EB021201381CEC0212013831EC0212BB
:100DD300013846EC0212013877EC021201388BEC31
:100DE30002120138B0EC02120138EAEC02120138A7
:100DF30016ED021201384EED02120138FCED02121B
:100E030001382CEE0212013875EE021201389FEE02
:100E130002120138CAEE02120138EFAE0312013892
:100E2300E8A80212013816A90212013864AA0212B4
:100E3300013844AB0212013863AB02120138E0AB54
:100E43000212013823AC0212013879AD02120138C3
:100E53003AAE02120138C1B00212013862B1021275
:100E6300013858B20212013855B302120138AFB437
:100E7300021201383AB5021201386BAC0312013881
:100E8300D4AC0312013828AD031201384FAD03125D
:100E9300013880AD0312013849F802120138B6F85F
:100EA30002120138FDF80212013815FA0212013854
:100EB30011FB02120138F4FB02120138F5BF0212D2
:100EC300013837C00212013809C102120138E2C1E8
:100ED30002120138DCC202120138BEC30212013809
:100EE30027C402120138DDC40212013851C50212AF
:100EF3000138BDC502120138E6C50212013860C6C9
:100F030002120138F9C6021201385EC70212013813
:100F130073C702120138B9C702120138D2C70212CD
:100F2300013837C8021201383AC8021201389F93B8
:100F330003120138C79303120138059403120138D1
:100F4300C394031201382A950312013846950312FC
:100F530001386E95031201389E9503120138AD9541
:100F6300031201382A9603120138509603120138EE
:100F730046AB0112013824AD0112013856AF0112FC
:100F8300013892AF01120138BFAF01120138A9B085
:100F930001120138F4B0011201383FB101120138D6
:100FA30051B10112013891B101120138C6B10112D8
:100FB300013814B20112013843B20112013866B28A
:100FC30001120138B3B20112013838B301120138EA
:100FD30052B50112013891B701120138D2B701128B
:100FE300013874B901120138B5B90112013828BAB0
:100FF3000112013879BA0112013854BB01120138C8
:10100300D39B02120138D19C021201386AA3021247
:1010130001388BA50212013856A702120138BEA867
:1010230002120138754500120138244600120138B6
:10103300514600120138974600120138CD4700127D
:101043000138FB47001201389149001201380B4A5D
:1010530000120138264A00120138A14A0012013851
:10106300FB4B001201385B4D00120138614E001238
:101073000138C24F00120138DB4F001201383950DA
:10108300001201382751001201385A510012013859
:10109300CA51001201384452001201388E52001214
:1010A30001385853001201382D54001201380C55E1
:1010B3000012013897550012013805560012013805
:1010C300795600120138A4560012013863570012F2
:1010D3000138C85800120138E55800120138045984
:1010E30000120138F559001201381A5A001201385A
:1010F300445A00120138BF5A00120138195B00121A
:101103000138825C00120138305D00120138715DD4
:1011130000120138FF8D021201384D8E0212013880
:10112300598E02120138378F02120138688F02126A
:101133000138998F02120138199002120138519027
:1011430002120138A39002120138E0900212013812
:10115300FD92021201382395021201380E970212F2
:101163000138F89802120138092B0012013833971D
:10117300011201386397011201383C9E01120138B4
:10118300C19F01120138BEA501120138A6A60112A2
:101193000138E3A60112013806A70112013837A767
:1011A3000112013840A7011201384AA70112013880
:1011B30038A8011201382EA9011201382482011224
:1011C3000138238601120138298601120138648D02
:1011D300011201387D9201120138388C0312013853
:1011E300CE8C03120138E48C031201385A8D03129A
:1011F3000138CE8D031201380C8E03120138808E14
:1012030003120138F98E03120138028F03120138D9
:101213000E8F03120138238F03120138618F0312DB
:101223000138778F03120138D68F031201380080FB
:10123300031201380D80031201382780031201388D
:10124300668003120138A480031201380981031256
:1012530001381E81031201382981031201383681B6
:10126300031201384D81031201385B8103120138E7
:1012730066810312013872810312013881810312DE
:1012830001388C8103120138AF8103120138568271
:101293000312013866820312013880820312013877
:1012A3009D8203120138B98203120138DE820312D0
:1012B3000138E98203120138FE82031201381283D6
:1012C300031201387383031201387983031201383F
:1012D3007F83031201388583031201389D83031230
:1012E3000138D08303120138B2E90112013836EA1A
:1012F30001120138E5EA0112013844EC0112013808
:1013030065EE0112013851EF0112013886EF011227
:101313000138A8EF0112013857F0011201384FF2DA
:101323000112013878F2011201380AF3011201386F
:101333003CF30112013849F301120138A0F3011201
:101343000138C6F30112013833F60112013836F7BA
:10135300011201388EF70112013841DB0112013805
:101363004BDC0112013832DD011201383CDD011280
:1013730001385EDD011201386ADD0112013803DF35
:101383000112013832DF011201384EE00112013837
:10139300A7E0011201380DE201120138ECE201125B
:1013A300013848E301120138B5E301120138F0E3D3
:1013B300011201382FE401120138E8E60112013865
:1013C30002E7011201388EE7011201389CE701128E
:1013D3000138F5E70112013803E80112013876E814
:1013E30001120138DAE80112013824E90112013847
:1013F3003773001201385973001201387F750012D8
:101403000138947800120138AC79001201385F7A00
:1014130000120138417B0012013824A9031201385C
:1014230049A903120138BBA903120138A0D0021243
:101433000138A9D002120138B2D00212013889D181
:10144300021201383AD30212013870D30212013862
:10145300AAD302120138E0D3021201381AD40212BD
:1014630001384ED4021201387AD402120138C3D49F
:1014730002120138FDD40212013846D50212013896
:101483009ED502120138D3D5021201382ED602128C
:10149300013868D602120138B9D602120138EFD6E4
:1014A3000212013829D70212013857D70212013824
:1014B3007AD7021201382EB6031201385AB6031234
:1014C3000138B5B603120138BFB603120138CFB6DF
:1014D300031201384BB903120138DBFF01E06670D8
:1014E3001008A3E066700A08A3E066700408A3E08E
:1014F3006622C3E7960809E7960809E7960809E70D
:101503009622C3E09608A3E09608A3E09608A3E01A
:101513009622C008C3E096F50808A3E0964208089F
:10152300A3E096420808A3E09645087001D3D008CB
:1015330022080808EAC0E0EBC0E086F0E7A4FA1846
:101543000986F0E7A42AFA180986F0E7A42AFA180C
:101553000986F0E7A42AFA1986F0E7A4FBE5F02A46
:10156300FA190886F0E7A42BFBE5F03AFA19088686
:10157300F0E7A42BFBE5F03AFA18180986F0E7A484
:10158300C5F02BFBE43AFA1908E7C5F0C6A426F622
:10159300E5F03BFBE43AFA1886F0E7A4F6E5F00839
:1015A30026F6E43B08F6E43A08F6D0E0FBD0E0FA8E
:1015B30022E4CFC0E0E4CEC0E0E4CDC0E0E4CCC0A0
:1015C300E075F020C3E633F608E633F608E633F6B3
:1015D30008E633F6181818EC33FCED33FDEE33FE52
:1015E300EF33FFC3EC9709ED9709EE9709EF9719CE
:1015F3001919400FFFEC97FC09ED97FD09EE97FED3
:10160300191906D5F0BEECF709EDF709EEF709EF66
:10161300F7191919D0E0FCD0E0FDD0E0FED0E0FFCF
:101623002212168C1818181215B412167B191919D0
:101633002212167B191919080808E618181820E74A
:10164300E01215B412168C18181822090909E719A3
:10165300191920E7DC080808E618181820E7030220
:1016630015B412168C1818181215B412168C1818F3
:101673001812167B19191922E4C397F709E497F78F
:1016830009E497F709E497F722E4C396F608E4968A
:10169300F608E496F608E496F6226017080808C6EA
:1016A300A2E713C618C613C618C613C618C613C6B0
:1016B300D5E0E9226016080808C6C313C618C61386
:1016C300C618C613C618C613C6D5E0EA22700908A1
:1016D3000808226016181818C6C333C608C633C6CE
:1016E30008C633C608C633C6D5E0EA22E627F6089D
:1016F30009E637F60809E637F60809E637F622E081
:1017030026F608A3E036F608A3E036F608A3E0368B
:10171300F622E026F008A3E036F008A3E036F0084E
:10172300A3E036F022C3E697F60809E697F6080920
:10173300E697F60809E697F622C3E096F008A3E0D9
:1017430096F008A3E096F008A3E096F022E657F699
:101753000809E657F60809E657F60809E657F62298
:10176300E056F608A3E056F608A3E056F608A3E011
:1017730056F622E056F008A3E056F008A3E056F030
:1017830008A3E056F022E0F608A3E0F608A3E0F68B
:1017930008A3E0F622E6F008A3E6F008A3E6F008C3
:1017A300A3E6F022E0FAA3E0FBA3E0FCA3E0FD2222
:1017B300EAF0A3EBF0A3ECF0A3EDF022CAC0E0E65D
:1017C300F0A308DAFAD0E0FA22CAC0E0E0A3C582A7
:1017D300CCC582C583CDC583F0A3C582CCC582C5E4
:1017E30083CDC583DAE6D0E0CA22C3E498F8E4994E
:1017F300F912182E8026C3E49AFAE49BFBE920E74A
:10180300E912182EE498F8E499F922C3E498F8E46D
:1018130099F912182EE498F8E499F9C3E49AFAE4D2
:101823009BFB22EB20E7CFE920E7E0B90010BB00E8
:1018330008E88AF084F8AAF022E4FBC8FA22EB70E5
:10184300227B10C833C8C933C9335007C39AC3DBDB
:10185300F280069A50012ADBEAC833F4C8C933F48C
:10186300C9FA2275F008E4C833C8C933C933C99A21
:10187300C99B5004C92AC93BD5F0ECFBC833F4C853
:10188300E4C9FA22600D08C6A2E713C618C613C638
:10189300D5E0F322600C08C6C313C618C613C6D519
:1018A300E0F422700422600D18C6C333C608C633A1
:1018B300C6D5E0F41822251810AF08F51840021514
:1018C300198008F51840021519D2AF22C0D0251887
:1018D30010AF08F518500205198008F518500205D5
:1018E30019D2AFD0D0222518F58210AF08F51840D1
:1018F3000215198008F51840021519D2AF8519830E
:10190300222518F582E43519F58322E4732518C5D9
:1019130082C0E0E51934FFC583C0E0E518C39582B2
:1019230024F810AF088583198582188008858319E8
:10193300858218D2AFCEF0A3E520F0A37808E6089D
:10194300F0A3DEFAEFF0A3E58124FAF8E608F0A3AA
:10195300E608F0A3E608F0A30808E608F0A3E60803
:10196300F0A315811581D0E0FED0E0F81581158133
:101973001581E8C0E0EEC0E0222518C582C0E0E58D
:101983001934FFC583C0E0E518C3958224F910AF6D
:10199300088583198582188008858319858218D262
:1019A300AFCEF0A3E520F0A37808E608F0A3DEFAB3
:1019B300EFF0A3E58124FBF8E608F0A3E608F0A323
:1019C3000808E608F0A3E608F0A315811581D0E026
:1019D300FED0E0F815811581E8C0E0EEC0E0228575
:1019E3001983851882E0A3FEE0A3F5207808E0A31D
:1019F300F608DFFAE0A3FFE0A3C0E0E0A3C0E0E065
:101A0300A3C0E0E0A3C0E0E0A3C0E010AF0885827C
:101A1300188583198008858218858319D2AFD083EE
:101A2300D082020135851983851882E0A3FEE0A3E5
:101A3300F5207808E0A3F608DFFAE0A3FFE0A3C0EF
:101A4300E0E0A3C0E0E0A3C0E0E0A3C0E010AF0883
:101A53008582188583198008858218858319D2AFFA
:101A6300D083D08222C0D02518C582C0E0E51934C6
:101A7300FFC583C0E0E518C3958224F310AF088542
:101A830083198582188008858319858218D2AFC887
:101A9300F0A3E9F0A3EAF0A3EBF0A37908E709F0D8
:101AA300A3D8FAECF0A3EDF0A3EEF0A3EFF0A3D0EC
:101AB300E0F0A3D0E0F0A3D0E0F0A3E520F0A3E5AD
:101AC300F0F0A322851983851882E0C0E0A3E0F932
:101AD300A3E0FAA3E0FBA37808E0F608A3DFFAE0AB
:101AE300FCA3E0FDA3E0FEA3E0FFA3E0C0E0A3E0CE
:101AF300C0E0A3E0F5D0A3E0F520A3E0A3F5F01048
:101B0300AF08858319858218800885831985821813
:101B1300D2AFD082D083D0E0F8D0E0327404800614
:101B2300740280027401C0E0F4041218E9D0E012D8
:101B330017BF227404800474028000CCC0E0EDC09F
:101B4300E0E518C39CCCAD1950011D10AF068C18ED
:101B53008D1980068C188D19D2AF1217CCD0E0FDE9
:101B6300D0E0FC22D083D082E9C0E0E493A3C38613
:101B7300F0C5F095F0F908E493A386F0C5F095F06D
:101B8300700BE493A3C3994005E9048002A3E475B1
:101B9300F002A42582F582E5F03583F583D0E0F9E0
:101BA300E493A3C0E0E493C0E022D083D082ECC0EE
:101BB300E0EDC0E0E493A3FCE493A3FDED4C600DE2
:101BC300121BF9EC24FFFCED34FFFD80EFE493A33B
:101BD300FCE493A3FDED4C600D121C38EC24FFFCD8
:101BE300ED34FFFD80EFD0E0FDD0E0FCE493A3C033
:101BF300E0E493C0E022C0E0C3E493960874019349
:101C03009618400FE4936670080874019366187081
:101C1300007019A3A3C3E49396087401939618A3C1
:101C2300A3400DD0E0D0E0D0E0021BE9A3A3A3A31F
:101C3300A3A3D0E022C0E0C0F088F0E4936670086C
:101C43000874019366187000A8F0A3A3700BD0F07A
:101C5300D0E0D0E0D0E0021BE9A3A3D0F0D0E02293
:101C6400C2AF02000022C0E074F2121A68A2AFE40C
:101C740033FED2AFE589A2E04006E589A2E1500334
:101C84001207E4758900758900C2C5751A00EEA2B1
:101C9400E092AF7F01021AC7C0E0C0D0E8C0E0E91B
:101CA400C0E0E5A8D2AFC2C7751A00A2E7A2E792C6
:101CB400AFD0E0F9D0E0F8D0D0D0E03274F512190A
:101CC4007CEAFEEBFFEE2434F8EF3400F98808894F
:101CD40009EE2435F582EF3400F583E0F8EE24377D
:101CE400F582EF3400F583E0F50AEC850AF0A4FCF4
:101CF400AAF0850AF0EDA42AFDE82CF8E43DF97A6F
:101D0400257B0012182EEA850882850983F0F87471
:101D14000758F97401B900028004C333D9FCFAE806
:101D2400131313541FF8EE28F8EF3400F9E8245D78
:101D3400F582E93400F583E05A6008EE2434F58234
:101D4400EF802CEE2434F582EF3400F583E0C0E01C
:101D5400EE2436F582EF3400F583E0F5F0D0E0842C
:101D6400A8F0EE28F8EF3400F9E82438F582E934D5
:101D740000F583E0F97F04021A2874F512197CEA4D
:101D8400FEEBFFEE2434F582EF3400F583E0C0E08F
:101D9400EE2435F582EF3400F583D0E0F08E828FA7
:101DA40083A3A3A3A3A3A3A3C082C0838E828F8390
:101DB400A3A3A3A3A3E0F8A3E0F9D083D082E0C354
:101DC40098F508A3E099F509EE247FF582EF340035
:101DD400F583E064017069EE2480F582EF3400F548
:101DE40083E0F8A3E0F98E828F83A3A3A3A3A3A324
:101DF400A3E0FCA3E0FD8E828F83A3A3A3A3A3E0AF
:101E0400FAA3E0FBC3EA9CEB9D5010C3EC98ED9958
:101E1400402EC3EA98EB995027800EC3EA98EB99B9
:101E24004007C3EC98ED9940177C0D7D07EEFAEF5F
:101E3400FB1210C6EE247FF582EF3400F583E4F044
:101E4400EE2434F8EF3400F9E8FCE9FDEE2435F52E
:101E540082EF3400F583E0F8EE2437F582EF3400A6
:101E6400F583E0F50AE508850AF0A4F508AAF085EB
:101E74000AF0E509A42AF509E82508F8E43509F982
:101E84007A257B0012182EEA8C828D83F0F8740771
:101E940058F97401B900028004C333D9FCFAE81379
:101EA4001313541FF8EE28F8EF3400F9E8245DF515
:101EB40082E93400F583E05A6008EE2434F582EFB9
:101EC400802CEE2434F582EF3400F583E0C0E0EE9C
:101ED4002436F582EF3400F583E0F5F0D0E084A8F1
:101EE400F0EE28F8EF3400F9E82438F582E93400FC
:101EF400F583E0F9122AFB021D79C082C08385189C
:101F040082851983E0F8A3E0F9C3EA9CEB9D5010A5
:101F1400C3EC98ED99401BC3EA98EB995014800EDA
:101F2400C3EA98EB994007C3EC98ED994004790112
:101F340080027900D083D08222EAC39CFAEB9DFB15
:101F44002274EF12197C9005D3E064086005E06404
:101F540007702A9061C8E06024900601E0F4601DD7
:101F6400E0F875F003A4C8AAF02AF9740328FE74F3
:101F74000639FF8E828F83A3A3A3E070030220752A
:101F8400906060E0C0E0EE2468F582EF3400F583F1
:101F9400D0E0F0750C76750D07750800750900E53D
:101FA400D914F50AE5D95403F50E60177403650EC8
:101FB400605CE50A6010EE2467F582EF3400F58377
:101FC400E0700302205A900771E06401602AEE2455
:101FD40082F582EF3400F583E060047804800278AF
:101FE40000850A08E508C398FA95E0FB120F828A77
:101FF400088B09EA450970051212CA8074EE24821E
:10200400F582EF3400F583E070048A0C8B0DE50A49
:102014006012850C82850D83F50BE5D9F0A3150BB1
:10202400E50B70F6EE2482F582EF3400F583E06070
:102034004474FC250AF50A780C121B23AC0AA90E79
:10204400EEFAEFFB12116274021218CFE97026AA9D
:1020540008AB0912087A793D8E828F83A3A3A3A3C8
:10206400E0FA7B00120E56EEFAEFFB1210DE1211AC
:1020740074790080747403650E6056850A107511B6
:10208400007810121B23AC0CAD0DAA08AB09121179
:102094003E74021218CFEE2468F582EF3400F58303
:1020A400E064807004747F8001E0F50C780C121BEE
:1020B40027E50EF50C780C121B27A90AAC08AD090C
:1020C400900601E0FA7B00120E1A74021218CF80F7
:1020D400139005D3E06408600BAC0CAD0DEEFAEF81
:1020E400FB1211CE1212D679017F0A021A2874F556
:1020F40012197C74FC1218B9EAFEEBFF8908A2AF2E
:10210400E433F509C2AF806AEE2463F8EF3400F9D2
:102114007A007B00A2AFE433F50AC2AF88828983D8
:10212400E0FCA3E0FDEC4D603A88828983E0FAA3E9
:10213400E0FB8A828B83E0FCA3E0FD88828983EC48
:10214400F0A3EDF08A828B83E4F0A3F08882898384
:10215400E0FCA3E0FDEC4D700A88828983A3A3E42C
:10216400F0A3F0E50AA2E092AF12087A900714E017
:1021740004F0EE2463F582EF3400F583E0F8A3E085
:10218400F9E849603DEE2463F582EF3400F583E01D
:102194002402FAA3E03400FBEA2402F50AEB34003B
:1021A400F50B780A121B238A828B83E0FCA3E0F9E7
:1021B400EEFAEFFB12110274021218CFE970030257
:1021C400210C900714E06063900715E0F890071461
:1021D400E0C398500C740265087050900716E060D4
:1021E4004A8E828F83A3A3A3A3E0851882851983D3
:1021F400F0A3E4F0900714E0F87402121904E8F074
:10220400A3E4F0900714E0F8900713E028F07402B8
:10221400121904AC82AD83851882851983AA82AB16
:10222400837901120E26900714E4F0E509A2E092E6
:10223400AF74041218CF021D790000008521878530
:1022440022C622C0E0C0D0E8C0E0E9C0E0EAC0E0B5
:10225400EBC0E0ECC0E0EDC0E0EEC0E0C008C009B7
:10226400C00AC00BC082C083C0F0A2AFE433FEC278
:10227400AF759B00906182E0A2E05012E591A2E06C
:10228400500C7591FE740165217003121F45E0A284
:10229400E55051E591A2E5504B7591DF9005D3E0EF
:1022A40064076005E0640870237401652170357962
:1022B40001900601E0FA75F003A4CAA8F028FB74A3
:1022C400032AFA74063BFB1220F28018E0640D70B6
:1022D400139005F5E004F064287002E4F07A00E05D
:1022E400F91212DC906182E0A2E6400302238EE53B
:1022F40091A2E6400302238E7591BF9005D3E0645A
:10230400057008121204121210800312120A7521A9
:102314000012126AE99005D4F0790012125E1210CC
:10232400367A017B009005D2E0F912056E907803AD
:10233400E064427055900775E014F0704DC2AF121E
:10234400234600782AD0E0F618D0E0F6E59F54073B
:1023540070057509FF800375097FC4C0E07829E61C
:10236400F50808E65509F509740B7808121897D092
:10237400E02508F8906270E0A2E740F8E8C33390E3
:102384006272F0906270E0D2E0F0906181E0A2E3CA
:102394005009E5E9A2E3500375E9F7A3E0A2E75089
:1023A40009E591A2E7500375917FEEA2E092AFD0C8
:1023B400F0D083D082D00BD00AD009D008D0E0FE70
:1023C400D0E0FDD0E0FCD0E0FBD0E0FAD0E0F9D0E2
:1023D400E0F8D0D0D0E032C0E0C0D0C082C083905A
:1023E4006183E0A2E05009E5BFA2E0500375BFFE9F
:1023F400E0A2E15009E5BFA2E1500375BFFDE0A2F0
:10240400E25009E5BFA2E2500375BFFBE0A2E3502E
:1024140009E5BFA2E3500375BFF7E0A2E45009E564
:10242400BFA2E4500375BFEFE0A2E55009E5BFA2E7
:10243400E5500375BFDFE0A2E65009E5BFA2E65010
:102444000375BFBFD083D0828088C0E0C0D0E8C00D
:10245400E0E9C0E0EAC0E0EBC0E0ECC0E0EDC0E0E1
:10246400C0F0E5A7A2E6500FE5A1A2E6500953A7E4
:10247400BF75A1BF1224B3E5A7A2E5500CE5A1A244
:10248400E5500653A7DF75A1DFE5A7A2E15009E5F2
:10249400A1A2E1500375A1FDE5A7A2E2500CE5A1BC
:1024A400A2E2500653A7FB75A1FBD0F00223C4742B
:1024B400F812197C7521019005D3E0640670151299
:1024C40011928A828B83A3A3A3A3A3A3E0FAA3E01C
:1024D400FB1211F2A2AFE433FED2AF9005D9E0644F
:1024E4000170187A207B009005D2E0F91205F87A81
:1024F400207B009005D2E0F9120574906182E0D24D
:10250400E6F0900772E0602185C62280169005D817
:10251400E064017008E5C654F84405F5C653BEFCF2
:102524001222407401652160E4EEA2E092AF7F01C3
:10253400021A28008E238F248582288583278518F4
:1025440082851983E0CEA3E0CF852882852783EB9B
:10255400C9EAC8EDCBECCA75F010C3E833C8E93357
:10256400C9EA33CAEB33CBC3EA9EF526EB9FF525C4
:10257400B35004AB25AA26EC33CCED33CDD5F0DA39
:10258400AE23AF242274E912197C74F81218B985A9
:102594001882851983ECF0A3EDF08A088B09900565
:1025A400D3E024F7C39405500675080102272012CE
:1025B40011928A0A8B0BAE0AAF0BEE4F70030227FF
:1025C4001DAC08AD097402121904AA82AB8312125D
:1025D400228E828F83A3A3750CFF750DFF750EFFEA
:1025E400750F00780C12176374021219047510FF2A
:1025F4007511FF7512FF7513007810121763780CAC
:1026040079101214F5502A780C79101217287508CD
:10261400017509C8750A00750B007808790C121445
:10262400F55052850C08850D09850E0A850F0B801F
:10263400507514017515C8751600751700851008B6
:1026440085110985120A85130B7808790C1217284D
:10265400781479081214F5401C7508007509007582
:102664000A00750B01780879101217287808790C7C
:102674001216EF800C750801750900750A00750BB8
:1026840000740978081216D0750C19F50DF50EF5BD
:102694000F7808790C1215B48E828F83A3A3A3A399
:1026A400A3A3E0F8A3E0F97AD07B0312182E880CD8
:1026B400890DE4F50EF50F7808790C1216EF7406FF
:1026C400121904E0F8A3E0F97AD07B0312182EE87B
:1026D400FA8A0CE4F50D7808790C1214F550077891
:1026E40008790C1217289005D3E06408600AE064A6
:1026F400066005E06405702D750C0D780C790812E0
:1027040014F54021750CF4750DFF750EFF750FFF60
:102714007808790C1216EF800C750800750900759D
:102724000A00750B00851882851983E0F8A3E0F58B
:10273400838882780812179874081218CF7F1002C1
:102744001A2874F712197C121234900770E064018D
:102754007010906245E4F0A3F053F4F343FE0C537D
:1027640090F31211E0E5C654804449F5C6E59E5441
:102774007F644970F8906185740FF090076EE0F4FF
:102784007002A3E0604E90076FE0600814601B14B1
:10279400602E804075080175090090076EE0780886
:1027A4001218A6E508F45280802A750801750900FC
:1027B40090076EE078081218A6E508F45290801489
:1027C40075080175090090076EE078081218A6E5EF
:1027D40008F452A079007F02021A2874F712197CB7
:1027E400E9FEEAFF74016E700C7A807B009005D2DA
:1027F400E0F912056E902B0CE493F46008E493F96D
:1028040012102A800953C680E59E547F70FA121173
:10281400E6900770E06401700312104890076EE0C0
:10282400F47002A3E0604B90076FE0600814601A34
:1028340014602C803D75080175090090076EE078DE
:10284400081218A6E5084280802875080175090059
:1028540090076EE078081218A6E508429080137578
:10286400080175090090076EE078081218A6E508BB
:1028740042A01212341211928A088B09A808A909DD
:10288400E8496015E5E170FCE82414F582E93400B8
:10289400F583E0F46003E0F5E174016F700A7A01F6
:1028A4009005D2E0F91205C80227DA74ED12197CFA
:1028B4008A088B098C0A8D0B7413121904780C1274
:1028C40017897808790C1214F57510017511C875FB
:1028D400120075130050127808790C12172878101A
:1028E40079081214F550168010780C7908121728FC
:1028F4007810790C1214F540047901800279007F74
:102904000C021A2874ED12197C8A088B098C0A8D22
:102914000B7413121904780C121789780C790812A5
:1029240014F540117808790C121728AA08AB09ACE1
:102934000AAD0B8022751000751100751200751315
:10294400017810790C121728781079081216EFAA5A
:1029540010AB11AC12AD1380A68A828B837508FF6D
:102964007509FF750AFF750B0078081217767F0446
:10297400021A2874F512197C8C828D837808121738
:10298400898A828B83780812173CEA2404F8EB3492
:1029940000F98C828D83A3A3A3A3E0FCA3E0FD88AC
:1029A400828983C3E09CF0A3E09DF088828983C37D
:1029B400E09420A3E0944E40268A828B837508FF1E
:1029C4007509FF750AFF750BFF78081217158A82BF
:1029D4008B83A3A3A3A3E02420F0A3E0344EF0024E
:1029E400295D74F512197CE9FE900728E0FAA3E04A
:1029F400FBEEC333F8E433F974E928F582748039C3
:102A0400F583E02AF508A3E03BF5097808121B23B7
:102A14007A407B427C0F7D0012253874021218CF55
:102A24008A088B098C0A8D0B741078081216B7AAC1
:102A340008AB097F04021A2874F112197C8A0C8BE2
:102A44000D8C0E8D0F740F121904E0FAA3E0FB74C1
:102A540011121904E0F508A3E0F5097808121B2304
:102A6400EA2401F508EB3400F509E4F50AF50B78DE
:102A74000C7908121534750871750902780C7908F7
:102A8400121534AA0CAB0DAC0EAD0F12253874021E
:102A94001218CF8B09EA450960047A0180027A0092
:102AA400EC2AFCED3400FD7413121904E0F8A3E0E1
:102AB400F9E8FEE9FFECF8EDF97A717B0212182EC1
:102AC400880889098E828F837808121798ECF8EDAC
:102AD400F97A717B0212182E8A088B09740578081A
:102AE4001218A68E828F83A3A3A3A3E508F0A3E5FF
:102AF40009F07F08021A28C082C083E9906000F0C0
:102B0400D083D08222020135FFFFFFFFFFFFFFFFCA
:102B1400C082C083E9900CF5F0022DA374F712195A
:102B240010E9900512F07C4A7D057AFF7BFF120DB7
:102B34006690051374FFF0A3F0A3E4F0A3F0790505
:102B4400120CEE900512E0F9120C107A847B0D122F
:102B54000F347F010219E274F41219108A088B09E8
:102B6400EB54806030900512E0F91205568A0A8B06
:102B74000BAE0AAF0BEE4F60138E828F83E064B00E
:102B84007003120D06EEFAEFFB120544AA08E509DC
:102B94006480FB80047A007B00022D7274F21219A7
:102BA4001074FC1218B9EAFEEBFFEE4F60387402A1
:102BB400121904EEF0A3EF122FD7ECF0A3ED122FAD
:102BC400D7AA82AB83120C0AE9F508707374121247
:102BD4001904123B8BE50A450B60658E828F8312C4
:102BE4002C4EEE4F700575080280557A067B001254
:102BF40005B08A0C8B0DA80CA90DE8497005750861
:102C040013803D88828983E4122C58A3A3EEF0A399
:102C1400EF124024E50AF0A3E50BF0900518122CFE
:102C2400E09005186017E0FCA3E08003EAFCEBFDEC
:102C34008C828D83122CE070F38C828D83123AB0D7
:102C4400A90874041218CF024226A3A3A3A3E0FE8A
:102C5400A3E0FF22F0A3F0888289832274F2121980
:102C640010890AE975F017A4FEAFF0900517E4F097
:102C7400900515122CE0600A1205B6900515E4F0D3
:102C8400A3F0EEFAEFFB1205B08A088B09EA4509B6
:102C9400602FEEFCEFFD7900120532900515E50872
:102CA400F0A3E509F07B008008122CCAE4F0A3F03D
:102CB4000BEBC3950A40F2E50A900517F079008002
:102CC400027913024226EB75F017A4F8A9F09005D7
:102CD40015E028FAA3E0398A82F58322123846EAFD
:102CE4004B2274F4121910750800750900740C1243
:102CF4001904123FF8FEE9FF800CE5082401F508E9
:102D0400E5093400F509C3E5089CE5099D503285C1
:102D1400080A85090B7403780A1218A6EA250AF82A
:102D2400EB350BF988828983A3A3A3A3A3A3123B46
:102D34008BEE650A7003EF650B70BFE8FAE9FB8060
:102D4400047A007B00802774F41219107900EAA237
:102D5400E0501B7508327509817808121B237C0426
:102D64007D007AF77B0C120CE874021218CF7F04F2
:102D74000219E2C082C083900518122DAA601C8833
:102D8400828983A3A3E06A7003A3E06B88828983AA
:102D940070E8A3A3A3A312384280047A007B00D076
:102DA40083D0820201351242F9E8492274EE1219E5
:102DB4001074FC1218B9EAFEEBFF8518828519839A
:102DC400E4F0A3F0EE2402123A94EE2405122FC587
:102DD400EE2404F50EEF1233AAE024FE603924FC3D
:102DE400604624FE605224FE605E24FE7003022EC0
:102DF400CA24FE7003022F4224FE7003022F5124C2
:102E0400FE7003022F6024FC7003022F6F24FE70F7
:102E140003022F7E022FBB9005317417F0A3E41236
:102E24002FDF120988022FBB851882851983AC8293
:102E3400AD83120D0C022F8B851882851983AC8209
:102E4400AD83120D12022F8B850C08850D097402B7
:102E5400121904AC82AD8385088285098312384235
:102E6400120C2E8A0C8B0DAC0CAD0DEC4D6042E4B3
:102E7400F50CF50D780C121B23750C31750D0578C6
:102E84000C121B23750C32750D05780C121B237460
:102E940008121904121B3A791612383C120D4E749A
:102EA400081218CFE9F50C700B1238381209A080FB
:102EB4000F750C01850882850983122FCD123AB053
:102EC400850C08022F8E7402121904AC82AD83851E
:102ED4000C82850D83123842120C2E8A108B11AC91
:102EE40010AD11EC4D6043850C82850D83A3A312B4
:102EF4001B3A7510317511057810121B23751032A9
:102F04007511057810121B237408121904121B3A48
:102F1400791612383C120D4E74081218CFE9F509CF
:102F2400700B1238381209A6800F750901850C82BE
:102F3400850D83122FCD123AB0850908804C85186F
:102F440082851983AC82AD83120D18803A8518826C
:102F5400851983AC82AD83120D1E802B8518828562
:102F64001983AC82AD83120D24801C8518828519C7
:102F740083AC82AD83120D2A800D85188285198356
:102F8400AC82AD83120D30E9F508E50860298E8224
:102F94008F83A3E06414601F850E82850F83E09005
:102FA4000531122FD71242F5900532123AB0E508D6
:102FB400A3122FDF120982EEFAEFFB120CAC0239D6
:102FC4009CF50CEF3400F50D221242F98518828528
:102FD400198322F085188285198322F07C317D05BE
:102FE400850A82850B831238462274EE12191074F6
:102FF400FC1218B98A0A8B0B8C0E8D0FEA2405F586
:1030040008EB3400F5097C157D0079007A317B05E5
:10301400120532E5082402F50CE509122FC88518BB
:10302400828519838582108583117810121B23856C
:103034000882850983A3A3A3A31234F2121B23E5F8
:10304400082405F510E5093400F5117810121B2346
:10305400850C82850D8312384C120C2874061218C4
:10306400CF8A108B11AE10AF11E50A2402F50AE5E0
:103074000B123A97EE4F70030231B48017740212A8
:10308400190412384288828983EAF0A3EBF0900590
:1030940031E004F0900531E0C3940540030231B4FB
:1030A400E4F510F5117810121B2375101A7511052B
:1030B4007810121B2375101B7511057810121B2331
:1030C4007406121904121B3A7910EEFCEFFD123843
:1030D4003C120D4E74081218CFE9705E8508828583
:1030E4000983A3A3A3A3A3A3A3E0F890051AE0680C
:1030F40070481234F2121B237C1B7D05E50824085A
:10310400FAE5093400FB12052C74021218CFE960A9
:10311400298E828F83A3A3A3A3123842900531E0A2
:10312400F510740278101218A674322510F5827402
:10313400053511F583EAF0A3EBF074021219048546
:1031440082108583117810121B2374021219041241
:103154001B3A850C82850D8312430A120C347404C5
:103164001218CF8A108B11AE10AF11900531E0F513
:1031740010751100740278101218A674312510F815
:1031840074053511F988828983A3122CE070030237
:103194003078E82403F8E93400F9EE4F6003023094
:1031A400818882898374FFF0A3F0900531E004F0F4
:1031B400900531E0600A1238381209947900800BC6
:1031C400850882850983123AA7790A02399C74EA30
:1031D40012191074FE1218B98C128D13EA2405F515
:1031E4000CEB124474122C52750800750900EA2481
:1031F40002F510EB3400F511851882851983858258
:103204000A85830B780A121B23850C82850D83A300
:10321400A3A3A31233B4121B23E50C2405F50AE57A
:103224000D123A97780A121B23850C82850D83129E
:103234004308120C2874061218CF8A0A8B0BEA452D
:103244000B7003023365EA2404F50EEB1233AA1261
:103254002C528A828B83A3A3A3E0F9851082851163
:1032640083123842120C16E9F5096003023365E44F
:10327400F514F5157814121B2375141A75150578B1
:1032840014121B2375141B7515057814121B237453
:1032940006121904121B3A7913AC0AAD0B8510827D
:1032A400851183123842120D4E74081218CFE9F5B5
:1032B40009600302336590051AE0F8E5087009E037
:1032C4002402900532F08017900532E0FCE82402D5
:1032D400FAE43400FBEA6C7001EB600302336985A5
:1032E4000882AA821234E994141234E15073850ED0
:1032F40082850F83E0C0E074332A1233A1D0E0F05A
:103304000508850E82850F83A3E0C0E085080A7452
:1033140033250A1233A1D0E0F0050890051A1233C0
:10332400B4121B237C1B7D0585080A7433250AFA15
:1033340074053400FB12051A74021218CF90051A92
:10334400E02508F50874FF6E700374FF6F6012EED9
:1033540024010EEF3400FFE508C394145003023136
:10336400FCE508601312372D85108285118312380D
:103374004212099A79008014E509700375090A85D7
:103384001282851383EEF0A3EFF0A90974021218D8
:10339400CF7F0E0219E285080C7433250CF5827474
:1033A400053400F583223400F50F850E82F583225F
:1033B4001240372274EE12191074FE1218B98C0ED2
:1033C4008D0FEA2405F50CEB122FC8750B00900540
:1033D40031E4F0F50AEA2402F508EB3400F509803B
:1033E40049900531E0FA90051AE0F81234E994178F
:1033F4001234E1400D900531E0F87416C39890053D
:103404001AF01234F2121B237C1B7D0574322AFA43
:1034140074053400FB12051A74021218CF90051AB1
:10342400E0F8900531E028F0050AE50C2416F58251
:10343400E50D1233A5E0F8E50AC39840030234CA47
:10344400900531E0C39416507DE50AC333F8E433A4
:10345400F9E50C28FEE50D39FF851882851983AC42
:1034640082AD838E828F83123842120C2E8A108B87
:1034740011AC10AD11EC4D7005750B018043E4F5F2
:1034840010F5117810121B2375101A751105781098
:10349400121B2375101B7511057810121B2374065B
:1034A400121904121B3A7916850882850983123889
:1034B40042120D4E74081218CFE9F50B7003023353
:1034C400E5123AA380107C317D0585088285098345
:1034D4001238421209ACA90B740202399EE9940015
:1034E400C365D03322EA28F8E43400F9E822E0F591
:1034F4001075110078102274EA12191074FC121855
:10350400B98A0C8B0D8C128D13EA2405F50AEB1283
:103514003A97750800750900E50A2402F510E50BD1
:103524003400F511740212190485820E85830F7814
:103534000E121B23850A82850B83A3A3A3A3123F28
:10354400E3121B23E50A2405F50EE50B3400F50F01
:10355400780E121B23851082851183123A9D12382E
:103564003C120C2874061218CF8A0E8B0FAE0EAFC5
:103574000FE50C2402F50EE50D3400F50F804088AC
:1035840082898374FFF0050812339A74FFF00508EA
:1035940090051AE0F50C750D00780C121B237C1BAA
:1035A4007D0585080C7433250CFA74053400FB1270
:1035B400051A74021218CF90051AE02508F508EED2
:1035C4004F60718E828F83A3A3A3E0F9850E828559
:1035D4000F83123842120C16E9F509EE2404122F57
:1035E400C5E97044E4F514F5157814121B23751419
:1035F4001A7515057814121B2375141B7515057897
:1036040014121B237408121904121B3A7911EEFCCC
:10361400EFFD850E82850F83123842120D4E740819
:103624001218CFE9F5096027850C82850D831237BE
:1036340023123AB0E508700302370912372D850EBC
:1036440082850F831238421209B2790002371E852F
:103654000882AA82EA90051A7009E02404900532CF
:10366400F08022E0F8900532E0F514E82404FCE44C
:103674003400FDEC65147001ED70C01234E994124D
:103684001234E150B6850C82850D83E0C0E07433BA
:103694002A1233A1D0E0F00508850C82850D83A39E
:1036A400E0C0E012339AD0E012373F85820C858364
:1036B4000D780C121B237404121904121B3A851082
:1036C4008285118312430A120C3474041218CF8AAF
:1036D4000C8B0DAE0CAF0D85080C7433250CF874EF
:1036E400053400F9EE4F700302358385188285197D
:1036F40083E08882898312373FA3E0C0E012339AC3
:10370400D0E0023591E509700375090A850A8285BE
:103714000B83123723123AB0A909740402339212AC
:1037240042F985128285138322900532E0F5F0E593
:103734000884900531F07C317D0522F00508851858
:10374400828519832274EC12191074FE1218B98A36
:10375400088B098C0E8D0FEA2405FEEB3400FF85DF
:103764001882851983AC82AD838E828F831238428E
:10377400120C2E8A0A8B0BEE2418122FC5EA450B65
:1037840070030238131239855032851882851983E3
:10379400123842120D428A108B11EA4511606B797E
:1037A40012AC0AAD0B850882850983123842851054
:1037B4008285118312190EE9F50A7058E4F50AF5A9
:1037C4000B780A121B238E828F83A3A3E0F50A7859
:1037D4000A121B23EE2403123A94780A121B238E36
:1037E400828F8312384C120D5474061218CFE9F5E7
:1037F4000A7021850C82850D83E0701F85088285FF
:1038040009831238421209B88011750A0E800975AD
:103814000A018004E50A6003123AA3850C82850D2F
:1038240083E0600479008002A90A74021218CF7F31
:103834000C0219E27C317D05850A82850B831238DE
:103844004622E0FAA3E0FB22E0FCA3E0FD85088227
:103854008509831238462274EE12191074FE121868
:10386400B98A088B098C0C8D0DEA2405FEEB340013
:10387400FF750E00851882851983AC82AD838E8214
:103884008F83123842120C2E8A0A8B0BEA450B7076
:1038940003023971123985503585188285198312CE
:1038A4003842120D428A0E8B0FEA450F605E791280
:1038B400AC0AAD0B850882850983123842850E82D5
:1038C400850F8312190EE9F50E6003023974850819
:1038D40082850983123B8BAA0AFB120D368A108B50
:1038E40011A810A911E849701E7AFF7BFF120D364A
:1038F4008A108B11A810A911E849606C8882898309
:10390400E50AF0A3E50BF0750A008007750E0E803A
:103914005F050A900517E0FAE50AC39A504AE50ADA
:1039240075F017A4FAABF088828983A3A3E02AFA7E
:10393400A3E03BFB8A828B83123A9DEC4D70D275D7
:103944000A17750B00780A121B23EEFCEFFD120513
:103954001A74021218CFEEFCEFFD850882850983E4
:103964001238421209BE8014750E098003750E01C7
:103974001242F1850C82850D83123AB0A90E0234ED
:10398400DCE5082402F508E5093400F5098A828B90
:1039940083A3A3A3E0A2E52274041218CF7F0A0232
:1039A40019E274EC1219108C108D11EA2405F50C2F
:1039B400EB122FC8750F00EA2402F50AEB123A97AE
:1039C400850A82F583123842120D368A088B09EA79
:1039D40045097003023A89750E008071850C828551
:1039E4000D83E06401704F8E828F83A3A3121B3A70
:1039F4008E828F83A3A3A3A3E0F51275130078121C
:103A0400121B23EE2405F512EF3400F5137812127D
:103A14001B2312383C120D5474061218CFE9F50F0B
:103A24006014850C82850D83E4F01242F1851082C6
:103A3400851183123AB07C177D007900EEFAEFFB12
:103A44001205328E828F83E4F0A3F0050E900517E1
:103A5400E0F8E50EC398501EE50E75F017A4F8A91A
:103A6400F0850882850983A3A312447E123A9DEC53
:103A74004D60030239E085088285098374FFF0A351
:103A8400F0E50F700612383C1209C4A90F0238334E
:103A9400F50AEF3400F50B22A3E0FCA3E0FD228E2F
:103AA400828F831242F9850E82850F83E8F0A3E9A1
:103AB400F022C082C083900513E06A7003A3E06B18
:103AC40070067A137B0580047A007B00022DA3C064
:103AD40082C08378008C828D83E06A7003A3E06BDC
:103AE4007010E875F003A4F8A9F0EC28FAED39FB9E
:103AF4008015088C828D83A3A3A3E06A7003A3E0DE
:103B04006B60DF7A007B00022DA374F61219101289
:103B14000D008A828B83E582458370067A007B00E0
:103B24008007A3A3A3A31238420241A274F212197C
:103B340010E9FE740E121904123B8B74101219044E
:103B44001240038C828D83E064027036A31242FF1C
:103B5400F50CA3E0F9A80C74026870037429697069
:103B640021750C02750D00780C121B237808121BAA
:103B740023780A121B23EEF9120D7874061218CF5B
:103B840080027901024226E0F50AA3E0F50B2274D3
:103B9400E812191074FB1218B9E985188285198383
:103BA400F08A168B17ECFEEDFF751000741D1219C8
:103BB400041242F5741D121904123AB08E828F83D6
:103BC400A3A3A3E0A2E4502D741D121904123842D9
:103BD400120D428A828B83E58245837003023FD4AF
:103BE400790AEEFCEFFDAA16AB1712190EE9F510CF
:103BF4006003023FD7741F12190412400374211288
:103C04001904123B8B7423121904E0F50EA3E0F59A
:103C14000F8E828F83E064026003023F82A312420C
:103C2400F5850882850983A3858212858313EE2492
:103C340006122FC588828983E0FAA3E0F9EA2400FA
:103C4400F514E439F5157814121BAD0100002801B0
:103C540028773C070002283C3D0328A93C0029732F
:103C64003E01299E3E02293F3E0329733E04291D3D
:103C74003F823FE50E450F6003023F7D850C828540
:103C84000D83123FF8FAE9FB8A828B83E0850A826E
:103C9400850B8312402E121B238A828B83A3E0FCA4
:103CA400A3E0023F07E50E450F6003023F7D850A4E
:103CB40082850B837401F012400B85088285098389
:103CC400F07C007D008E828F83A3A3A3A3E0240154
:103CD400FAA3E03400FB120C2EEA4B60418A828B7B
:103CE40083E02402F8850A82850B83E028F0EA2425
:103CF40004F8EB3400F988828983E0851282851305
:103D04008312404012402E121B238A828B83123A64
:103D14009CE5082403FAE5093400FB023F0C850AFC
:103D240082850B83E02404F07C047D007900AA12D0
:103D3400AB13120532023FD7E50E450F6003023F75
:103D44007D12400BFEA3E0FF850A82850B83740479
:103D5400F0EE850882850983F0EF8512828513834E
:103D6400F07403121904AC82AD83EEFAEFFB120C6B
:103D74002E8A0C8B0DEA450D7003023E208A828B3D
:103D840083A3A3122C4E740112190485820E858319
:103D94000F780E121B237405121904121B3A7CFFB0
:103DA4007DFF120C3474041218CF8B0FEA450F7088
:103DB40033850C82850D83123FE3121B23850C820D
:103DC400850D83A3121B3A7C027D007A2A7B811223
:103DD4000A6074041218CFE9700A74011219047489
:103DE400FFF0A3F08E828F83E064027039750C02B9
:103DF400750D00780C121B238E828F83123A9CE57A
:103E0400082404FAE5093400FB12051A7402121896
:103E1400CF850A82850B83E024028009740112197C
:103E240004EEF0A3EFF07401121904123FF4F074DD
:103E340001121904A3123FEC023F77E50E450F600F
:103E440003023F7D850C82850D83123A9DAA16AB31
:103E540017120D6C850A82850B837402F0EA8508BB
:103E640082850983F0851282851383EB023F7AE50C
:103E74000E450F6003023F7D12400BF8A3E0F98565
:103E84000A82850B837402F0E8850882850983F031
:103E9400E9851282851383023F7A850C82850D831E
:103EA400123842120514EAFC8C82A882C3950EE4EF
:103EB400950F405FE8650E7002E50F70047C00808A
:103EC40022851882851983E0FAE50E2AFAE50F3473
:103ED40000FBC3EA98EB94005003E08005E50ECCA8
:103EE400C39CFCEC850A82850B83F08C0A750B005D
:103EF400780A121B23850C82850D83E0250EFCA312
:103F0400E0350FFDAA08AB0912051A74021218CF86
:103F1400023FD7751007023FD7E50E450F705A854B
:103F24000C82850D831242F5850A82850B83740702
:103F3400122C5A123FEC122C5AA3E08512828513DC
:103F440083F0E82402FAE93400FB8A828B83123F6F
:103F5400EC12401B123FF4A3124024123FFDF0E880
:103F64002405F8E93400F988828983123FFDA312FD
:103F74004040A3A3A3A3F0805A75100B8055741D71
:103F8400121904123842120D008A828B83E582458D
:103F940083603D1242F5880C890DE8450D60317847
:103FA4000E121B23780A121B237808121B23740693
:103FB400121904E0F9EEFCEFFDAA16AB17850C828A
:103FC400850D8312190E74061218CFE9F5108003BB
:103FD40075100EA91074051218CF7F100219E2E0B3
:103FE400F50E750F00780E22E0850882850983227C
:103FF40012404A221242F9E82212404AA3A322E0C4
:10400400F508A3E0F50922850C82850D83E0F8A369
:10401400E0F5838882E022A3A3F08A828B83A32223
:10402400F088828983A3A3A3A322F08A828B8312BC
:10403400403722E0F50A750B00780A22F08882895D
:1040440083A312404A22E0850882850983A3A32220
:1040540074EE12191074FE1218B98A0A8B0BECFA5A
:10406400EDFB7414121904E0F510A3E0F5117416B5
:10407400121904E0FE7418121904E0F50EA3E0F519
:104084000F851882851983AC82AD83120C2E8A0C9D
:104094008B0DEA450D6049851882851983123842D3
:1040A400120D008A828B83E5824583602FA3A312BD
:1040B4004003E50845096024780E121B237810128A
:1040C4001B23EEF9AC0CAD0DAA0AAB0B8508828557
:1040D400098312190E74041218CF8006790E800217
:1040E40079010234DC74F612191074FE1218B974D2
:1040F4000C121904123FF8851882851983F0740193
:10410400121904E9F0E4F508F5097808121B23757F
:1041140008027808121B2374041219048582088586
:1041240083097808121B23120D5474061218CF74D5
:10413400021218CF806874F7121910EAFEEBFF8997
:10414400087C4A7D05120D6CEA5402600BA908EE46
:10415400FAEFFB120C2280027901022B5674F6123C
:10416400191074FF6A700374FF6B70168C828D8350
:104174001241A7E4F08C828D83A3A3A31241A7A3C9
:104184008018120D3C8A088B09A808A909E849601F
:104194000D8882898374FF122C58A3A3E4F07F0254
:1041A4000219E274FFF0A3F08C828D83A3A322741E
:1041B400F6121910120D3C8A828B83E582458360C6
:1041C40006A3A3E0FA80027A007B0080D174F21285
:1041D40019108A088B09ECFEEDFF740E121904E025
:1041E400F50A120D3C8A0C8B0DA80CA90DE8497038
:1041F40026EEFCEFFD7AFF7BFF120D3C8A0C8B0D43
:10420400A80CA90DE8497004791180168882898365
:10421400E508F0A3E509F088828983A3A3E50AF001
:1042240079007F060219E274EE121910EAFEEBFF20
:104234008C088D09890C74141219041242F5741631
:10424400121904123842750D00E84960030242E96C
:104254007402650C60030242E474121219041242DF
:10426400FFFCA3E0F9EC2400F50EE439F50FEAF4C1
:10427400F8EBF4F9EC58F8E50F59F9E849705CE506
:10428400082406F8ED3400F9880A890B8882F5833E
:1042940012430A120D6C8A108B11E50E651070041E
:1042A400E50F65116042780E121B23850A82850B87
:1042B4008312430A120D7274021218CFE9F50D70BD
:1042C40027780E121B23850882850983A3A3124332
:1042D40008120D8A74021218CF800D750D808008A3
:1042E400750D0D8003750D0BA90D0239A18E828FFA
:1042F400831242F922E0F8A3E0F9221242F98882FB
:104304008983E022A3A3E0FCA3E0FDEEFAEFFB2205
:1043140074E812191074E71218B985188285198384
:10432400EAF0A3EBF08C168D17890E750800750959
:10433400007431121904E0F512A3E0F5137433127A
:104344001904E0F514A3E0F5157435121904E0F529
:104354000FE50975F003A4F8A9F08518828519837F
:1043640012447EE0F47003A3E0F47003024461EEAF
:104374002402F50CEF124474E070030244618516C4
:104384000A85170B780A121B23AC14AD15AA12ABBD
:1043940013120CF474021218CF8A0A8B0BEA450B21
:1043A4007003024461E4F510F5117810121B2374B4
:1043B400061219048582108583117810121B237448
:1043C400091219048582108583117810121B238524
:1043D4001282851383A3A3A3A3121B3A7914AC0AF4
:1043E400AD0B8E828F83123842120D4E7408121850
:1043F400CFE97069850A82850B83A3A3A3A3124224
:10440400F57402121904123AB0850C82850D83E00A
:10441400A2E05018A90E7402121904AC82AD838E66
:10442400828F83123842120C46E94208850C828539
:104434000D83E0A2E15026E50FF50A780A121B2746
:10444400A90E7403121904AC82AD838E828F831279
:104454003842120C4074011218CFE942080509E5EC
:1044640009C394025003024355A9087419023FDB9F
:104474003400F50D850C82F58322E028FEA3E03993
:10448400FF8E828F832274F2121910EAFEEBFF89E9
:104494000B7401650B600E7402650B706A7901126E
:1044A4000F52E97062EEFAEFFB120D368A088B099F
:1044B400EA45096047750A00800B7C177D00790086
:1044C400120532050A900517E0F8E50AC398502151
:1044D400E50A75F017A4F8A9F0850882850983A375
:1044E400A3E028FAA3E039FB8A828B83122DAA70F9
:1044F400C985088285098374FFF0A3F07C4A7D0591
:10450400EEFAEFFB120D6602422674F21219108ABB
:10451400088B09ECFEEDFF740E121904123B8B900C
:104524000CF5E0F4603D7A097B0012053EEA4B602D
:10453400328A828B8374B1F0A3E412401DA312402B
:104544001BA3E508F0A3E50912456AEEF0A3EF12F8
:10455400456AA3A3E50AF0A3E50BF0900CF5E0F996
:1045640012054A024226F08A828B83A3A3A3A3A343
:1045740022C082C0839061907404F0A37448F0A3B5
:104584007402F09061807440F09061BC7403F09008
:1045940061877419F0906265741BF0906249E0C3FE
:1045A400941390619C400A7409F0906066740180D1
:1045B40007740DF0906066E4F090619A7433F0A390
:1045C4007455F09061A0743AF0900770E064017043
:1045D40009C2919005D7746780059005D77461F07E
:1045E400902B12E493906186F0902B0CE493F4608A
:1045F40027E493540FF8906185E0686012E5C6548F
:10460400804449F5C6E59E547F644970F8E8F05348
:10461400C680E59E547F70FA79051212BE0247F4F3
:10462400C082C083E9540FF9906185E0696012E5A6
:10463400C654804449F5C6E59E547F644970F8E940
:10464400F053C680E59E547F70FA0247F4C082C0DE
:1046540083E5A8F853A87E906181E4F0A3F0A3F069
:10466400C2BA539AFEC289759B00C2C275E900752D
:10467400910075BF0075A91175B905906181F0A30A
:1046840074C0F0A3E4F0D2BA439A0174805842A8EB
:104694000247F4C082C08374F81218B99005D5E0BB
:1046A400F8A3E0F9E84970030247C59005D5E05442
:1046B4004060237908851882851983AA82AB831206
:1046C4001120851882851983AA82AB83120E029069
:1046D40005D5E054BFF0E054806010790C7A967BE5
:1046E400071211209005D5E0547FF0E0A2E050318C
:1046F40090619A7433F0A37455F09061A0743AF009
:10470400900770E064017009C2919005D7746780C6
:10471400059005D77461F0120E089005D5E054FE9B
:10472400F0E05402603190619A743FF0A3745AF03F
:104734009061A0747FF0900770E064017009D291D9
:104744009005D7747180059005D7746AF0120E082D
:104754009005D5E054FDF0E054046013902B10E470
:1047640093906186F0120E0E9005D5E054FBF0E0B4
:1047740054086013902B11E493906186F0120E0E8E
:104784009005D5E054F7F0E054106013902B12E438
:1047940093906186F0120E0E9005D5E054EFF0E090
:1047A4005420600A120E0E9005D5E054DFF0A3E009
:1047B4005401600D121048120E149005D6E054FEF8
:1047C400F074081218CF0247F4C082C083E960086D
:1047D40014600A14600C8013902B108008902B1125
:1047E4008003902B12E493906186F08003F0A3F091
:1047F400D083D08202013574EC12191074F41218AB
:10480400B9851882851983AC82AD837583817582DD
:104814009074041217CC902B1093F4600302498710
:10482400907808E0C3940250030249677404121993
:1048340004AC82AD8375838175822274081217CC0F
:10484400851882851983858212858313740412194D
:1048540004AC82AD83750EFF750FFF7FFF7E00757C
:104864000C48750D78801574086E70030248FB744B
:10487400096E70030248FB740A6E607B850C8285A6
:104884000D8378081217898C828D83A909E50AC9DA
:10489400F88810741878081216B7E5104508F8C39C
:1048A400E098A3E099850C82850D83780812178916
:1048B40040188C828D83741878081216B7E5104559
:1048C40008F8E0C398F8A3E0801C7418780812165E
:1048D400B7E5104508FAE9FB8C828D83E0F8A3E084
:1048E400F9EAC398F8EB99F9C3E8950EE9950F50E6
:1048F40006880E890FEEFF0EE50C2404F50CE50D79
:104904003400F50DEEC39413500302486B74FF6535
:104914000E700474FF650F60238F08740278081208
:1049240018A674482508F58274783509F583780843
:10493400121789851282851383E508F0EC2402FCA2
:10494400ED3400FD851282851383A385821285834D
:1049540013740C121904E5826C7003E5836D600313
:104964000248597508017509007808121B2374025E
:10497400121904AC82AD837AC47B0A1207C0740294
:104984001218CF740C1218CF7F0C0219E2C082C027
:10499400839061AE7468F0A3746AF090624574FB0E
:1049A400F0A304F053F4FD43FE029007707401F089
:1049B4009061A0E0643A90619A70237433F0A37418
:1049C40055F09061A0743AF0740164017009C291C9
:1049D4009005D7746780289005D774618021743F4F
:1049E400F0A3745AF09061A0747FF07401640170B4
:1049F40009D2919005D7747180059005D7746A0225
:104A040047F37F080219E2C082C083900722E06462
:104A140001700A900727E06004790C800279000293
:104A240047F4C082C08375E1F1900725E0605B1410
:104A3400600914605F14605714705E12105A900776
:104A44001BE0F97A1C7B071212407AD67BBE7C8964
:104A54007D8E1212767A557B557C557D0012124C50
:104A6400900726E0F912125879011212B290071930
:104A7400E0F8A3E0C82416F582E83400F5837472E4
:104A8400F0A37410F079000247F412106080AF12A2
:104A9400106680AA12106C80A5791280EA74F01254
:104AA400191075D90D900706E0A2E0E4331313F84A
:104AB40090071BE0C4333354C0484401F5D9781936
:104AC400790788828983A3A3A3E0F5D9888289839F
:104AD400A3A882A983E8641F7003E9640770E378DC
:104AE40006790788828983A3E0F5D988828983A31C
:104AF400A882A983E8640C7003E9640770E575E192
:104B040095900706E0F97A077B07121246900D1775
:104B14007400F0A37410F0A37468F0A37411F0A3EC
:104B24007468F0A37411F0A37468F0A37411F0A373
:104B34007406F0A37410F0A37468F0A37411F0A3C6
:104B4400741EF0A37410F0900D257468F0A3741112
:104B5400F0A37468F0A37411F0A37468F0A3741143
:104B6400F0A37468F0A37411F0A37468F0A3741133
:104B7400F0A37468F0A37411F0900725E064019029
:104B840007197012E0F8A3E0F5838882A3A37508DF
:104B9400007509088010E0F8A3E0F5838882A3A3D8
:104BA400750804750900750A00750B00780812175A
:104BB40002750CFF750DFF750EFF750F00780879EF
:104BC4000C121750900719E0F8A3E0C8240EF582E0
:104BD400E83400F5837808121798900719E0F8A3D1
:104BE400E0C82414F582E83400F5837413F09005CA
:104BF400D37402F0024A0674F712191090072BE0DE
:104C04002407F5D990071BE0C4333354C0F5D97891
:104C140019790788828983A3A3A3E0F5D9888289B7
:104C240083A3A882A983E8641F7003E9640770E37F
:104C340090072BE0601F78197907FAE82413F582AE
:104C4400E93400F583E0F5D988828983A3A882A991
:104C5400831AEA70E690074BE02407F5D990071B06
:104C6400E0C4333354C04404F5D9781979078882F1
:104C74008983A3A3A3E0F5D988828983A3A882A901
:104C840083E8641F7003E9640770E390074BE060F6
:104C94001F78197907FAE82433F582E93400F5839B
:104CA400E0F5D988828983A3A882A9831AEA70E6E9
:104CB40075E195900D17740CF0A37410F0A374684B
:104CC400F0A37411F0A37468F0A37411F0A37468D2
:104CD400F0A37411F0A37406F0A37410F0A3746825
:104CE400F0A37411F0A3741EF0A37410F0900D25BA
:104CF4007468F0A37411F0A37468F0A37411F0A3A2
:104D04007468F0A37411F0A37468F0A37411F0A391
:104D14007468F0A37411F0A37468F0A37411F09094
:104D24000719E0F8A3E0C8240EF582E83400F583FF
:104D340074FFF0A3F0A3F0A3F0900719E0F8A3E048
:104D4400C82414F582E83400F5837412F09005D376
:104D54007401F0FF0219E274F712191090072BE0A6
:104D64002407F5D990071BE0C4333354C04402F53B
:104D7400D97819790788828983A3A3A3E0F5D98810
:104D8400828983A3A882A983E8641F7003E9640766
:104D940070E390072BE0601F78197907FAE8241371
:104DA400F582E93400F583E0F5D988828983A3A8E4
:104DB40082A9831AEA70E675E195900D177418F0CC
:104DC400A37410F0A37418F0A37410F0A37418F073
:104DD400A37410F0A37418F0A37410F0A37418F063
:104DE400A37410F0A37418F0A37410F0A3741EF04D
:104DF400A37410F0900D257468F0A37411F0A374DB
:104E040068F0A37411F0A37468F0A37411F0A37490
:104E140068F0A37411F0A37468F0A37411F0A37480
:104E240068F0A37411F0900719E0F8A3E0C8240E09
:104E3400F582E83400F58374FFF0A3F0A3F0A3F047
:104E4400900719E0F8A3E0C82414F582E83400F5CB
:104E5400837414F09005D37404F002512274F71291
:104E6400191090072BE02407F5D990071BE0C433F1
:104E74003354C04406F5D97819790788828983A305
:104E8400A3A3E0F5D988828983A3A882A983E864CF
:104E94001F7003E9640770E390072BE0601F781923
:104EA4007907FAE82413F582E93400F583E0F5D9AB
:104EB40088828983A3A882A9831AEA70E690074BA3
:104EC400E02407F5D990071BE0C4333354C04404ED
:104ED400F5D97819790788828983A3A3A3E0F5D942
:104EE40088828983A3A882A983E8641F7003E96484
:104EF4000770E390074BE0601F78197907FAE824FC
:104F040033F582E93400F583E0F5D988828983A3F7
:104F1400A882A9831AEA70E675E195900D177412B8
:104F2400F0A37410F0A37468F0A37411F0A3746870
:104F3400F0A37411F0A37468F0A37411F0A374685F
:104F4400F0A37411F0A37468F0A37411F0A3741E99
:104F5400F0A37410F0900D257468F0A37411F0A3FD
:104F64007468F0A37411F0A37468F0A37411F0A32F
:104F74007468F0A37411F0A37468F0A37411F0A31F
:104F84007468F0A37411F0900719E0F8A3E0C82442
:104F94000EF582E83400F58374FFF0A3F0A3F0A3C8
:104FA400F0900719E0F8A3E0C82414F582E834006F
:104FB400F5837415F09005D37403F0025122C08276
:104FC400C083900719E0F8A3E0C82406F582E8340A
:104FD40000F583E40247F174F7121910900601E01A
:104FE400F875F003A4C8AAF02AF9740328F8740623
:104FF40039F9E82405FAE93400FB8A828B83E0FC62
:10500400A3E0FD88828983A3A3A3A3A3A3A3A3A34B
:10501400ECF0A3EDF088828983A3A3A3A3A3A3A3A5
:10502400E024FFF8A3E034FFF98A828B83E8F0A33D
:10503400E9F002512274F7121910EAFEEBFF9061B5
:10504400D0E0600302511675D90E75D90375D904E1
:10505400EE248BF582EF3400F583E5822408F8E52D
:10506400833400F9E0F5D9A3E865827003E9658328
:1050740070F2EE2483F582EF3400F583E582240494
:10508400F8E5833400F9E0F5D9A3E865827003E913
:10509400658370F275E1957908EE248BFAEF34009C
:1050A400FB1211147904EE2483FAEF3400FB12117D
:1050B400147C00EEF8EFF9ECFAC3E49AFA95E0FBFD
:1050C400EE2AFAEF3BFBEA248AF582EB3400F583FF
:1050D400E0C0E0E824AAF582E93400F583D0E0F0EA
:1050E4000C88828983A3A882A983ECC3940840C74F
:1050F400EE246FF582EF3400F583E0F8A3E0F9EED7
:105104002471F582EF3400F583E8F0A3E9F0790126
:10511400800279008008F0EEA2E092AF79007F016E
:105124000219E2C082C08375D90275D90375D90505
:1051340075E195EA246FF582EB3400F583E0F8A37A
:10514400E0F9EA2471F582EB3400F583E8F0A3E991
:10515400F079010247F474F6121910EAFEEBFF909D
:1051640007767406F07508767509077808121B230C
:105174007C01790312115C74021218CF75D906757B
:10518400D903758276758307E0F5D9A3E582647B3C
:105194007004E583640770F075E1959005D3E064CD
:1051A40008701EEE246FF582EF3400F583E0F8A357
:1051B400E0F9EE2471F582EF3400F583E8F0A3E919
:1051C400F0790102542874F6121910EAFEEBFF90EC
:1051D40061D0E070667801900776740BF09005D387
:1051E400E0640770197508767509077808121B239F
:1051F4007C01790312115C74021218CF78057401D2
:1052040028F5D975D903758276758307E8FAE0F530
:10521400D9A31AEA70F875E195EE246FF582EF349C
:1052240000F583E0F8A3E0F9EE2471F582EF340091
:10523400F583E8F0A3E9F0790180027900025428AB
:1052440074F7121910EAFEEBFF75D90375D90375CB
:10525400D90DEE24DDF582EF3400F583E0F5D97540
:10526400E195790412127CEE246FF582EF3400F597
:1052740083E0F8A3E0F9EE2471F582EF3400F583BE
:10528400E8F0A3E9F0790102512274F6121910EA48
:10529400FEEBFF9061D0E0F87480C398FAEE2482AC
:1052A400F582EF3400F583E060047804800278002E
:1052B400E8240BF8EAC39850030253537D0990077E
:1052C40076EDF0EE24E2F8EF3400F97A777B077C90
:1052D4000888828983E08A828B83F088828983A309
:1052E400A882A9838A828B83A3AA82AB831CEC70D5
:1052F400E0EE2482F582EF3400F583E0601D75084A
:10530400767509077808121B237C097903EEFAEFF6
:10531400FB12115C74021218CF7D0D74012DF5D9A6
:1053240075D9037582767583078D08E0F5D9A315C1
:1053340008E50870F675E195790412127CEE241DD7
:10534400F582EF3400F583E4F0A3F079018002796B
:105354000002542874F6121910EAFEEBFF9061D093
:10536400E0F87480C398FAEE2482F582EF3400F5F5
:1053740083E06004780480027800E82408F8EAC333
:105384009850030254267806900776740CF0900522
:10539400F0E0900777F09005F1E0900778F0900541
:1053A400F2E0900779F09005F3E090077AF0900529
:1053B400F4E090077BF0EE2482F582EF3400F5836D
:1053C400E0601B7508767509077808121B237C06B4
:1053D4007903EEFA12115C74021218CF780A740180
:1053E40028F5D975D9037582767583078808E0F5A1
:1053F400D9A31508E50870F675E195790412127CB5
:10540400EE246FF582EF3400F583E0F8A3E0F9EEC3
:105414002471F582EF3400F583E8F0A3E9F0790113
:10542400800279007F020219E274F6121910EAFE72
:10543400EBFF9061D0E0F87480C398FAEE2482F513
:1054440082EF3400F583E06004780480027800E899
:105454002404F8EAC39850030255077802900776AB
:10546400E8F0EE24F4F582EF3400F583E09007775A
:10547400F0EE2482F582EF3400F583E0601B7508BA
:10548400767509077808121B237C027903EEFA1259
:10549400115C74021218CF7806740128F5D975D9F5
:1054A400037582767583078808E0F5D9A31508E5A6
:1054B4000870F675E195EE2473F582EF3400F583F8
:1054C400E4F0EE247FF582EF3400F583E4F0EE247B
:1054D4001DF582EF3400F583E4F0A3F07904121291
:1054E4007CEE240DF582EF3400F583E0F8A3E0F9B7
:1054F400EE2471F582EF3400F583E8F0A3E9F07946
:10550400018002790002542874F61219109061D0B7
:10551400E0F87480C398FCEA2482F582EB3400F549
:1055240083E06004780480027800E82404F8ECC383
:1055340098405B79029007767407F0EA24F5F582C7
:10554400EB3400F583E0900777F0EA2482F582EBF0
:105554003400F583E0601875087675090778081239
:105564001B237C020912115C74021218CF79067491
:105574000129F5D975D903758276758307E9F8E0B1
:10558400F5D9A318E870F875E195790180027900DE
:1055940002542874F5121910E9FCA2AFE433F50A99
:1055A400C2AF7D0080010DEA246EF582EB3400F574
:1055B40083E0F8EDC398501A8D08EA2508F8EB3417
:1055C40000F9E8246AF582E93400F583E06C70D6CA
:1055D4008024EA246EF8EB3400F9E0FEEA2EFAEBBC
:1055E4003400FBEA246AF582EB3400F583ECF0889E
:1055F400828983E004F0E50AA2E092AF7F030219F6
:10560400E274F6121910A2AFE433FDC2AFEA246EBD
:10561400F582EB3400F583E014F07C0060368C08EE
:10562400EA2508F8EB3400F9E8246BF582E9340044
:10563400F583E0C0E0E8246AF582E93400F583D01C
:10564400E0F00CEA246EF582EB3400F583E0F8EC2C
:10565400C39840CAEA246DF582EB3400F58374FFE5
:10566400F0EA2469F582EB3400F583E4F0EDA2E07E
:1056740092AF025428C082C083E5A8F8C2AFEA24DE
:105684006AF582EB3400F583E9F0EA2469F582EBEC
:105694003400F583E4F0E8A2E7A2E792AF0247F40E
:1056A40074F3121910EAFEEBFFECFAEDFB8A828B1D
:1056B40083A3A3A3A3E0541FF0EE2436F582EF34B2
:1056C40000F583E4F0F50AEEFCEFFD8A828B83E0BB
:1056D400C0E0EC245DF582ED3400F583D0E0F07594
:1056E4000B00E50A33333354F8F50C8A828B83E0DC
:1056F400F508750900E50B7808121887E508A2E09B
:10570400502FEE2436F8EF3400F988828983E0F5CF
:1057140008EE2508F508EF3400F509E5082438F506
:1057240082E5093400F583E50CF088828983E0047E
:10573400F0050B050CE50BC3940840AF050A8A82FB
:105744008B83A3AA82AB838C828D83A3AC82AD832B
:10575400E50AC3940550030256CF7F050219E2748B
:10576400F71219109005FFE0640170030258C17A22
:1057740000900605E060030258C17401F0A3E4F050
:10578400A3F090066504F090066AF0900608E4F031
:10579400A3F0A3F0A3F090061204F0900638E4F00E
:1057A40090061BF0A3F0A3F0A3F0A3F0A3F0A3F0E2
:1057B400900682F0900676F090066B7480F0A3E475
:1057C400F0900671F09006EDF0A3F0A3F0A3F0A31F
:1057D400F0A3F0A3F0A3F09006F6F0900685F09005
:1057E40006D5F0A3F0A3F0A3F0A3F0A3F0A3F0A3D5
:1057F400F0A3F0A3F09006E1F09006E3F09006DF4A
:10580400F09006F9F0A3F0A3F0A3F0A3F0A3F0A3A3
:10581400F0A3F078FF7905E8246EF582E93400F509
:105824008374FFF00A88828983A3A882A983EAC3C8
:10583400940440E37AFF7B05780D79078882898395
:10584400E0C0E0EA2461F582EB3400F583D0E0F0B7
:1058540088828983A3A882A9838A828B83A3AA824C
:10586400AB83E864127003E9640770D07AFF7B05A8
:1058740078E6790588828983A3E0C0E0EA24E6F526
:1058840082EB3400F583D0E0F088828983A3A88278
:10589400A9838A828B83A3AA82AB83E864EE700314
:1058A400E9640570CF9005FFE004F064017008908E
:1058B4000607E0900601F07A037B0680047A007BF9
:1058C40000025122C082C083900606E4F0900605CF
:1058D400F09005FFF0A3F0A374FFF075E1F1024727
:1058E400F4C082C08378007900900606E0600478F2
:1058F40003790688828983A3A3A3A3E0F90247F46A
:1059040074F6121910EAFEEBFFEE2463F582EF340D
:1059140000F583E0F8A3E0F9E84970030259A9EE21
:105924002463F8EF3400F97A007B00A2AFE433F586
:1059340008C2AF88828983E0FCA3E0FDEC4D603AA5
:1059440088828983E0FAA3E0FB8A828B83E0FCA34C
:10595400E0FD88828983ECF0A3EDF08A828B83E4F6
:10596400F0A3F088828983E0FCA3E0FDEC4D700A8B
:1059740088828983A3A3E4F0A3F0E508A2E092AFB0
:1059840012087A900713E004F0900714E004F0EE94
:105994002463F582EF3400F583E0F8A3E0F9E849E5
:1059A40060030259238E828F83A3A3A3E0600F8E2A
:1059B400828F83A3A3A3E4F0900600E014F0900583
:1059C400FFE014F0700690060174FFF08E828F835E
:1059D400A3A3E4F0900712E0700D900600E06401C8
:1059E4007005790012125EEEFAEFFB12118C02546C
:1059F4002874F7121910EAFEEBFF8E828F83A3A39B
:105A0400A3A3E0FA7B00120E56EEFAEFFB1210DEAF
:105A1400121174025122C082C08378E6790588820B
:105A24008983A3E4F088828983A3A882A983E86494
:105A3400EE7003E9640570E69005E774010247F32C
:105A440074F6121910EAFEEBFFEC2403F8ED3400AF
:105A5400F988088909EC2407F8ED3400F9E8FCE931
:105A6400FD8C828D83E0F8A3E0F9850882850983A3
:105A7400E0FAA3E0FB12182EEE240DF582EF3400B9
:105A8400F583E8F0A3E9F08C828D83E0F8A3E0F9D4
:105A9400850882850983E0FAA3E0FB12182E8B099E
:105AA400EA45096013EE240DF582EF3400F583E036
:105AB4002401F0A3E03400F002542874F612191003
:105AC400EAFEEBFFEE242EF582EF3400F583E0FCD2
:105AD400A3E0FD780079FAECFAEDFB12182EEE241F
:105AE4006FF582EF3400F583E8F0A3E9F0780079EC
:105AF400FAECFAEDFB12182E8B09EA45096013EE55
:105B0400246FF582EF3400F583E02401F0A3E03440
:105B140000F002542874EC121910EAFEEBFF74141E
:105B2400121904780812178912121C8A0C8B0D8C16
:105B34000E8D0F7510027511007512007513007823
