:020000040000FA
:0600000002011D02203088
:03002B000224FDAF
:030033000224DFC5
:030053000220A6E2
:03006B000224B6B6
:10008300021EDFE5C754F84401F5C77901220000D9
:100093000080FB120086B90003020107E4791B7894
:1000A30002B800028004F709D8FCE4791D7802B88D
:1000B30000028004F709D8FCE490028178F5790DF9
:1000C3008002F0A3D8FCD9FA781A90014D7A01BACC
:1000D30000028007E493A3F608DAF9900F75AA8269
:1000E300AB8390014E78D779018015E493A3AC825A
:1000F300AD838A828B83F0A3AA82AB838C828D83A8
:10010300D8E9D9E775825C7583C6740312012F752C
:100113008291758300740012012F75D00075813FA1
:10012300751881751902759F00020096C09FF59F8F
:10013300E473D09F22D083D082C09FE493C0E07445
:100143000193C0E0740293F59F2201B003C203EC54
:1001530003B603FF0000B400002800280028307510
:10016300A000A000A000A00000080008E001F0002B
:10017300100010001000100010001000500050007C
:10018300500010001000D0070000000000000F0016
:1001930001000500307507001000010081FF000019
:1001A3000000FF020202D490010000C79002DA901F
:1001B300010000CD0F02CC90010000B20202DA90E0
:1001C300010000CE0F02CA90010000C802FFFF0128
:1001D30000FF2002D490010000C49002DA900100D5
:1001E30000FC0F02D090000000000002CE9003003C
:1001F30000A5039C0B9C0B9C0B9C0B9C0B9C0B9CCE
:100203000B9C0B9C0B9C0B9C0B9C0B9C0BBE0DDC4F
:100213000DB80DFFFF01E803053F10020AFF00FEC2
:10022300FF120138CABC03120138E0BC03120138C3
:100233000FBD0312013845BD031201385CBD031223
:10024300013873BD03120138AABD03120138FDBD85
:100253000312013814BE031201389BB40312013890
:10026300B2B403120138E3B4031201381EB503120A
:10027300013848B50312013872B50312013889B544
:1002830003120138A0B503120138B7B503120138C0
:10029300E0B503120138F3B50312013809B60312AE
:1002A300013833B6031201382F8E02120138338F0F
:1002B30002120138608F02120138B68F0212013820
:1002C300D98F02120138ED8F02120138EF8F02121B
:1002D3000138129002120138219102120138E5917E
:1002E30002120138BA92021201382B93021201381A
:1002F300B79302120138BA930212013842940212E0
:1003030001387D9402120138E49402120138E79413
:10031300021201381E950212013847950212013864
:10032300F295021201387C9602120138CB96021222
:100333000138D89602120138DB96021201383B9736
:1003430002120138469702120138C597021201388A
:10035300C89702120138DB9702120138DE970212A6
:1003630001386D9802120138879802120138979864
:1003730002120138C79802120138D49802120138C8
:10038300D79802120138589902120138469A02127C
:100393000138F89A0212013845B0021201383DB112
:1003A3000212013871B102120138F3B1021201389D
:1003B30013B2021201385BB202120138AEB202125A
:1003C300013812B3021201389FB30212013859B433
:1003D3000212013868B702120138F3B80212013869
:1003E30016B9021201386D96031201380A980312E6
:1003F30001386E9803120138CD9803120138DB9847
:10040300031201380499031201383FF5021201382F
:1004130067F50212013895F502120138CCF5021284
:1004230001382AF60212013875F602120138C0F6B5
:100433000212013800F70212013846F7021201389E
:1004430074F70212013831F8021201383BF8021234
:10045300013848F8021201387BF80212013847F9D3
:100463000212013853F9021201386BF902120138F2
:1004730075F902120138F3F90212013892C203121C
:100483000138A0C203120138B8C203120138D0C226
:1004930003120138E8C20312013832D701120138BE
:1004A300DED70112013859D8011201387AD9011265
:1004B3000138B6D9011201385FDA0112013846DB7F
:1004C30001120138AADC0112013801DD01120138E1
:1004D30082DD0112013872DE01120138BFDE011222
:1004E300013845DF0112013877DF011201388BE152
:1004F30001120138CDE101120138EBE1011201389B
:100503008DE20112013855E30112013862E501124F
:100513000138B29D03120138C89D03120138EE9DC4
:10052300031201380A9F03120138149F0312013882
:1005330049A00312013841A1031201386389031250
:100543000138078A031201383A8A03120138848A70
:1005530003120138478C03120138DD6C0012013895
:10056300566D00120138666D00120138546E001288
:1005730001385E6E00120138836E001201388E6EF0
:1005830000120138786F00120138DB6F0012013856
:100593009170001201387872001201383174001220
:1005A30001380D7500120138C17500120138FE784B
:1005B30000120138AC79001201381B7B001201389C
:1005C3009B7C00120138427D001201388B7D0012A2
:1005D3000138C27D001201385F7E00120138EA7EC5
:1005E3000012013837B9011201388CB901120138F0
:1005F300EBBA01120138FBBA0112013828BB011210
:1006030001387FBB0112013828BC011201382FBD0C
:1006130001120138F9BD0112013859BF0112013825
:100623009CBF0112013841C00112013867C0011299
:10063300013875C2011201387AC2011201387FC430
:1006430001120138CCC4011201383FC5011201382F
:1006530072C50112013814C601120138BDC6011258
:100663000138F5C601120138F8C60112013840C736
:100673000112013882C701120138D9C701120138AA
:1006830017A8031201382AA80312013838A8031245
:10069300013880A80312013896A803120138DDA897
:1006A30003120138F1A9031201387EAA031201389B
:1006B300C9AA031201382C25001201383C25001267
:1006C30001389F2500120138E425001201389A26CB
:1006D300001201387527001201389E2700120138D5
:1006E300CE27001201380E2A00120138F52B001212
:1006F3000138CD2D00120138112F00120138783145
:1007030000120138863200120138D8330012013842
:10071300E234001201382435001201385C3500122E
:1007230001387E3500120138E13500120138A33A51
:1007330000120138383B001201388C3B001201389B
:10074300B33B00120138F13B00120138103C001298
:1007530001386A3C001201386A3D00120138EF3D4E
:10076300001201386BEF0212013875EF02120138E3
:100773001DF00212013860F0021201387BF0021200
:1007830001380BF10212013833F1021201386BF117
:1007930002120138A2F102120138CBF10212013820
:1007A30005F2021201381AF202120138E7F20212BC
:1007B30001380AF3021201382CF30212013841F313
:1007C30002120138C7F30212013801F40212013890
:1007D30079F402120138C2F402120138ECF4021265
:1007E300013817F5021201387EBF031201387BE589
:1007F30001120138A9E50112013804E70112013899
:10080300E4E70112013803E80112013880E801121C
:100813000138C3E8011201383EEA01120138ADEA9A
:1008230001120138D8EC011201385CEF01120138D2
:100833000DF00112013803F101120138A3F1011285
:100843000138A1F2011201382CF3011201382BBE39
:100853000312013894BE03120138E8BE03120138B3
:1008630017BF0312013838BF03120138E48D031296
:100873000138518E03120138988E03120138B08F5C
:1008830003120138AC90031201388F91031201381F
:10089300F7DB0212013839DC0212013812DD0212D1
:1008A30001380CDE02120138EEDE0212013857DF86
:1008B3000212013873E002120138DFE0021201383C
:1008C300E2E0021201380BE10212013885E1021263
:1008D30001382AE2021201383FE20212013885E2AE
:1008E300021201389EE202120138A1E2021201381B
:1008F3004BA10312013887A103120138C5A10312CA
:1009030001388FA203120138FEA20312013839A362
:100913000312013877A303120138A7A30312013886
:10092300CEA3031201383CA4031201387EA40312A0
:100933000138E79001120138AA9201120138759427
:1009430001120138B19401120138DE940112013809
:10095300A09501120138E795011201382B96011277
:1009630001383D96011201387D9601120138AA968D
:1009730001120138F8960112013832970112013839
:10098300559701120138A7970112013835980112C2
:1009930001380B9901120138F59901120138C49BF2
:1009A30001120138C5A00112013814A10112013846
:1009B3005BA1011201388EA301120138BFAD0312EE
:1009C300013831AE0312013887AE03120138CBAEC2
:1009D30003120138EBAE0312013838AF03120138AA
:1009E30080AF03120138D3AF0312013824B00312CE
:1009F3000138563E001201389F3E00120138CC3EAA
:100A030000120138FF3E001201380F3F0012013877
:100A13001B3F001201382C3F001201381340001213
:100A23000138714000120138A64000120138E94133
:100A3300001201383B42001201388B420012013888
:100A4300DE4200120138DD4300120138584500121E
:100A530001382F46001201383F4600120138614623
:100A6300001201386446001201383247001201387F
:100A7300034800120138D2480012013826490012F7
:100A83000138864900120138EA49001201389B4AAD
:100A930000120138664B00120138084C001201386D
:100AA3007D4C00120138E94C001201383E4D001212
:100AB30001386F4D001201380A4E00120138EE4F13
:100AC300001201383D5000120138805000120138E5
:100AD300025100120138A05100120138E7510012EF
:100AE30001380B5200120138525200120138805261
:100AF30000120138C8520012013842530012013863
:100B030086530012013893540012013842550012E3
:100B13000138A35500120138FF5500120138185649
:100B23000012013841BA0212013894BA0212013894
:100B3300A0BA0212013875BB021201389CBB021223
:100B43000138D7BB0212013843BC021201387FBC03
:100B530002120138B8BC02120138D0BC02120138AB
:100B630025BD021201383EBD0212013887BD0212B3
:100B730001389ABD02120138B4BD02120138CABD50
:100B830002120138FDBE0212013844C002120138BC
:100B930046C10212013840C2021201382125001257
:100BA30001387BFA02120138EAFD0212013823FFF1
:100BB30002120138ADF30112013823F60112013894
:100BC30029F60112013891F801120138F8FA0112DD
:100BD30001380080031201389680031201384D81D9
:100BE300031201387781031201386A830312013833
:100BF30092840312013893A501120138C7A501128B
:100C03000138B4AF0112013808B10112013813B22F
:100C13000112013893B30112013874B4011201387F
:100C2300AEB401120138D1B40112013813B5011267
:100C330001385DB50112013867B50112013811B6EB
:100C430001120138EAB6011201383EB70112013828
:100C5300A0B701120138F3B70112013822B801120B
:100C630001385FB801120138189A031201388E9ABD
:100C730003120138A49A03120138E59A03120138CA
:100C83001F9B03120138989B03120138D39B031255
:100C93000138469C03120138849C031201388D9C51
:100CA30003120138999C03120138B59C03120138D1
:100CB300E09C03120138F69C031201381F9D0312B6
:100CC3000138829D03120138C5E202120138D8E2CD
:100CD30002120138F2E2021201381BE30212013858
:100CE3005EE3021201389DE302120138DBE30212D4
:100CF300013840E40212013855E4021201386CE471
:100D0300021201387AE40212013889E4021201382E
:100D13009EE402120138B3E402120138BEE4021267
:100D23000138CAE402120138D7E402120138EAE4B6
:100D330002120138F5E4021201381AE502120138F1
:100D4300C1E502120138D6E502120138EBE50212C1
:100D5300013805E60212013820E6021201383DE6A9
:100D63000212013848E60212013804E70212013880
:100D7300F0E70212013815E80212013820E80212E6
:100D8300013835E80212013849E802120138AAE8AD
:100D930002120138B0E802120138B6E80212013833
:100DA300BCE802120138D4E80212013807E9021242
:100DB3000138EFA50212013811A602120138F1A67B
:100DC30002120138C8A902120138F4AA021201382A
:100DD30018AC02120138CAAC021201386BAD021210
:100DE30001380580021201388980021201383881E6
:100DF30002120138978202120138B88402120138B4
:100E0300A48502120138D98502120138FB8502122A
:100E13000138AA8602120138A28802120138CB884F
:100E2300021201385D89021201388F8902120138DA
:100E33009C8902120138F38902120138198A0212BD
:100E43000138868C02120138898D02120138E18D36
:100E530002120138C6C801120138D0C90112013883
:100E6300B7CA01120138C1CA01120138E3CA01121B
:100E73000138EFCA0112013888CC01120138B7CC0E
:100E830001120138D3CD011201382CCE01120138E1
:100E930092CF0112013871D001120138CDD0011265
:100EA30001383AD10112013875D101120138B4D198
:100EB300011201386DD40112013887D401120138AF
:100EC30013D50112013821D5011201387AD5011247
:100ED300013888D501120138FBD5011201385FD6DC
:100EE30001120138A9D60112013845B6031201389F
:100EF3006AB603120138DCB603120138ABD402120E
:100F03000138B4D402120138BDD40212013894D589
:100F13000212013845D7021201387BD70212013879
:100F2300B5D702120138EBD70212013825D80212C5
:100F3300013859D80212013885D802120138CED8A7
:100F43000212013808D90212013851D902120138AC
:100F5300A9D902120138DED90212013839DA021294
:100F6300013873DA02120138C4DA02120138FADAEC
:100F73000212013834DB0212013857DB0212013846
:100F830019C50312013845C503120138A0C5031260
:100F93000138AAC503120138BAC5031201380BC4BC
:100FA3000212013815C40212013853C40212013867
:100FB3009CC402120138D6C40212013830C5021291
:100FC300013851C50212013829C80212013832C84A
:100FD300021201387FC802120138A8C80212013870
:100FE300B2C8021201381EC902120138B0C9021276
:100FF3000138FAC90212013830CA02120138BCCAD8
:1010030002120138FDCA0212013834CB0212013830
:1010130046CB0212013865CB021201386ECB0212A5
:1010230001383BCC021201389BC103120138AAB22A
:1010330003120138E0B20312013816B30312013868
:1010430061B403120138C4C503120138DAC50312AF
:101053000138E4C5031201382EC603120138C984CE
:1010630003120138DE84031201388E85031201381E
:10107300CE8503120138E785031201382286031255
:1010830001386F8603120138A18603120138E38603
:1010930003120138E4880312013856890312013818
:1010A3006EFF021201382EBB0312013857BB031225
:1010B300013886BB031201381EBC0312013836BC4B
:1010C3000312013878BC0312013884E90212013893
:1010D300C6E90212013848EA021201385DEA021237
:1010E3000138AEEA0212013802EB0212013847EB73
:1010F3000212013856EB021201380AEC02120138CF
:1011030065EC02120138B4EC021201380AED021246
:101113000138FFED02120138F6EE0212013833EF07
:101123000212013882FF011201384A5600120138B7
:10113300CB5800120138655A00120138195B0012AE
:101143000138AC5B00120138315C00120138565C87
:1011530000120138A85C001201385D6000120138EA
:10116300E360001201381662001201385062001267
:101173000138856200120138426400120138766436
:1011830000120138D364001201381C6500120138C3
:10119300836500120138FC65001201382B660012CA
:1011A30001384366001201388C67001201389C67CE
:1011B30000120138BA6800120138DC6800120138E5
:1011C300126900120138C16A001201384E6B001215
:1011D30001388D6B00120138A66C0012013863C40C
:1011E3000312013874C403120138B4C60312013860
:1011F300F3C60312013851C70312013881C3031226
:10120300013891C303120138A9C3031201385DC425
:101213000312013897C0031201381CC103120138AD
:1012230082C103120138EAB70312013813B803125B
:10123300013879B80312013899B803120138EAB8B2
:101243000312013845B9031201387FB9031201387B
:1012530082B903120138C6A403120138DBA40312B6
:10126300013806A60312013882A603120138F6A636
:101273000312013810A70312013827A703120138FC
:101283003AA70312013854A7031201386BA70312BC
:10129300013891A703120138E2A7031201385192D2
:1012A30003120138689203120138E29203120138E3
:1012B300C693031201389D95031201380296031257
:1012C3000138599603120138F87F0012013865B0CE
:1012D3000312013800B20312013861B2031201385C
:1012E300A7B2031201388CB903120138DEB9031215
:1012F300013868BA03120138CFBA03120138F3AACE
:10130300031201381DAB03120138EBAB0312013892
:10131300C6AC031201384DAD0312013869CC021279
:10132300013830CD0212013867CD0212013891CD58
:1013330002120138F1CD0212013847CE02120138F0
:10134300ACCE0212013844CF0212013853D002123C
:101353000138EAD10212013877D202120138DED203
:1013630002120138F5D2021201380FD402120138E9
:101373004DD402120138699B02120138739C021288
:101383000138519D02120138829F021201384EA08A
:101393000212013871A002120138A7A20212013809
:1013A300F9A20212013897A302120138C8A402124B
:1013B30001386DA502120138C77F00120138FDC63E
:1013C30003120138CDFF0212013833C703E0667000
:1013D3001008A3E066700A08A3E066700408A3E09F
:1013E3006622C3E7960809E7960809E7960809E71E
:1013F3009622C3E09608A3E09608A3E09608A3E02C
:101403009622C008C3E096F50808A3E096420808B0
:10141300A3E096420808A3E09645087001D3D008DC
:1014230022080808EAC0E0EBC0E086F0E7A4FA1857
:101433000986F0E7A42AFA180986F0E7A42AFA181D
:101443000986F0E7A42AFA1986F0E7A4FBE5F02A57
:10145300FA190886F0E7A42BFBE5F03AFA19088697
:10146300F0E7A42BFBE5F03AFA18180986F0E7A495
:10147300C5F02BFBE43AFA1908E7C5F0C6A426F633
:10148300E5F03BFBE43AFA1886F0E7A4F6E5F0084A
:1014930026F6E43B08F6E43A08F6D0E0FBD0E0FA9F
:1014A30022E4CFC0E0E4CEC0E0E4CDC0E0E4CCC0B1
:1014B300E075F020C3E633F608E633F608E633F6C4
:1014C30008E633F6181818EC33FCED33FDEE33FE63
:1014D300EF33FFC3EC9709ED9709EE9709EF9719DF
:1014E3001919400FFFEC97FC09ED97FD09EE97FEE4
:1014F300191906D5F0BEECF709EDF709EEF709EF78
:10150300F7191919D0E0FCD0E0FDD0E0FED0E0FFE0
:10151300226016080808C6C313C618C613C618C621
:1015230013C618C613C6D5E0EA22700908080822B4
:101533006016181818C6C333C608C633C608C633A0
:10154300C608C633C6D5E0EA22E627F60809E63719
:10155300F60809E637F60809E637F622E026F60824
:10156300A3E036F608A3E036F608A3E036F622E059
:1015730026F008A3E036F008A3E036F008A3E0362F
:10158300F022C3E697F60809E697F60809E697F608
:101593000809E697F622C3E096F008A3E096F00860
:1015A300A3E096F008A3E096F022E657F60809E6D2
:1015B30057F60809E657F60809E657F622E056F605
:1015C30008A3E056F608A3E056F608A3E056F62271
:1015D300E056F008A3E056F008A3E056F008A3E0B5
:1015E30056F022E066F608A3E066F608A3E066F686
:1015F30008A3E066F622E0F608A3E0F608A3E0F607
:1016030008A3E0F622E6F008A3E6F008A3E6F00854
:10161300A3E6F022E0FAA3E0FBA3E0FCA3E0FD22B3
:10162300EAF0A3EBF0A3ECF0A3EDF022CAC0E0E6EE
:10163300F0A308DAFAD0E0FA22CAC0E0E0A3C58238
:10164300CCC582C583CDC583F0A3C582CCC582C575
:1016530083CDC583DAE6D0E0CA22C3E498F8E499DF
:10166300F912169E8026C3E49AFAE49BFBE920E76D
:10167300E912169EE498F8E499F922C3E498F8E491
:1016830099F912169EE498F8E499F9C3E49AFAE4F6
:101693009BFB22EB20E7CFE920E7E0B90010BB007A
:1016A30008E88AF084F8AAF022E4FBC8FA22EB7077
:1016B300227B10C833C8C933C9335007C39AC3DB6D
:1016C300F280069A50012ADBEAC833F4C8C933F41E
:1016D300C9FA2275F008E4C833C8C933C933C99AB3
:1016E300C99B5004C92AC93BD5F0ECFBC833F4C8E5
:1016F300E4C9FA22600D08C6A2E713C618C613C6CA
:10170300D5E0F322600C08C6C313C618C613C6D5AA
:10171300E0F422700422600D18C6C333C608C63332
:10172300C6D5E0F41822251810AF08F518400215A5
:10173300198008F51840021519D2AF22C0D0251818
:1017430010AF08F518500205198008F51850020566
:1017530019D2AFD0D0222518F58210AF08F5184062
:101763000215198008F51840021519D2AF8519839F
:10177300222518F582E43519F58322E4732518C56B
:1017830082C0E0E51934FFC583C0E0E518C3958244
:1017930024F810AF0885831985821880088583197A
:1017A300858218D2AFCEF0A3E520F0A37808E6082F
:1017B300F0A3DEFAEFF0A3E58124FAF8E608F0A33C
:1017C300E608F0A3E608F0A30808E608F0A3E60895
:1017D300F0A315811581D0E0FED0E0F815811581C5
:1017E3001581E8C0E0EEC0E0222518C582C0E0E51F
:1017F3001934FFC583C0E0E518C3958224F910AFFF
:10180300088583198582188008858319858218D2F3
:10181300AFCEF0A3E520F0A37808E608F0A3DEFA44
:10182300EFF0A3E58124FBF8E608F0A3E608F0A3B4
:101833000808E608F0A3E608F0A315811581D0E0B7
:10184300FED0E0F815811581E8C0E0EEC0E0228506
:101853001983851882E0A3FEE0A3F5207808E0A3AE
:10186300F608DFFAE0A3FFE0A3C0E0E0A3C0E0E0F6
:10187300A3C0E0E0A3C0E0E0A3C0E010AF0885820E
:10188300188583198008858218858319D2AFD08380
:10189300D082020135851983851882E0A3FEE0A377
:1018A300F5207808E0A3F608DFFAE0A3FFE0A3C081
:1018B300E0E0A3C0E0E0A3C0E0E0A3C0E010AF0815
:1018C3008582188583198008858218858319D2AF8C
:1018D300D083D08222C0D02518C582C0E0E5193458
:1018E300FFC583C0E0E518C3958224F310AF0885D4
:1018F30083198582188008858319858218D2AFC819
:10190300F0A3E9F0A3EAF0A3EBF0A37908E709F069
:10191300A3D8FAECF0A3EDF0A3EEF0A3EFF0A3D07D
:10192300E0F0A3D0E0F0A3D0E0F0A3E520F0A3E53E
:10193300F0F0A322851983851882E0C0E0A3E0F9C3
:10194300A3E0FAA3E0FBA37808E0F608A3DFFAE03C
:10195300FCA3E0FDA3E0FEA3E0FFA3E0C0E0A3E05F
:10196300C0E0A3E0F5D0A3E0F520A3E0A3F5F010D9
:10197300AF088583198582188008858319858218A5
:10198300D2AFD082D083D0E0F8D0E03274048006A6
:10199300740280027401C0E0F404121759D0E012FB
:1019A300162F227404800474028000CCC0E0EDC0C2
:1019B300E0E518C39CCCAD1950011D10AF068C187F
:1019C3008D1980068C188D19D2AF12163CD0E0FD0C
:1019D300D0E0FC22D083D082E9C0E0E493A3C386A5
:1019E300F0C5F095F0F908E493A386F0C5F095F0FF
:1019F300700BE493A3C3994005E9048002A3E47543
:101A0300F002A42582F582E5F03583F583D0E0F971
:101A1300E493A3C0E0E493C0E022D083D082ECC07F
:101A2300E0EDC0E0E493A3FCE493A3FDED4C600D73
:101A3300121A69EC24FFFCED34FFFD80EFE493A35D
:101A4300FCE493A3FDED4C600D121AA8EC24FFFCFB
:101A5300ED34FFFD80EFD0E0FDD0E0FCE493A3C0C4
:101A6300E0E493C0E022C0E0C3E4939608740193DA
:101A73009618400FE4936670080874019366187013
:101A8300007019A3A3C3E49396087401939618A353
:101A9300A3400DD0E0D0E0D0E0021A59A3A3A3A342
:101AA300A3A3D0E022C0E0C0F088F0E493667008FE
:101AB3000874019366187000A8F0A3A3700BD0F00C
:101AC300D0E0D0E0D0E0021A59A3A3D0F0D0E022B6
:101AD40074F51217ECEAFEEBFFEE2434F8EF340051
:101AE400F988088909EE2435121C00F8EE2437120F
:101AF4001C00F50AEC850AF0A4FCAAF0850AF0EDB6
:101B0400A42AFDE82CF8E43DF97A257B0012169E00
:101B1400EA850882850983F074075AF87401B800CD
:101B2400028004C333D8FCFBEA131313541FF8EEEA
:101B340028F8EF3400F9E8245DF582E9121C035B10
:101B44006003EA801CEE2436121C00F5F0EA84A837
:101B5400F0EE28F8EF3400F9E82438F582E9121C95
:101B640003F97F0402189874F51217ECEAFEEBFFF0
:101B7400EE2434121C00C0E0EE2435F582EF34006C
:101B8400F583D0E0F08E828F83A3A3A3A3A3E0FA0E
:101B9400A3E0FB8E828F83A3A3A3A3A3A3A3E0FC50
:101BA400A3E0FDECC39AF50AED9BF50BEE247FF55B
:101BB40008EF3400F509850882F583E06401702B91
:101BC400EE2480F582EF3400F5831219AA121C0961
:101BD400740212173FE960137CBF7D07EEFAEFFB36
:101BE400120AB2850882850983E4F0AC0AAD0BEED3
:101BF400FAEFFB121AD41224A2021B66F582EF3408
:101C040000F583E022C082C083851882851983E0B1
:101C1400F8A3E0F9C3EA9CEB9D5010C3EC98ED994E
:101C2400401BC3EA98EB995014800EC3EA98EB99D1
:101C34004007C3EC98ED994004790180027900D003
:101C440083D0822274ED1217EC900479E06408606A
:101C540005E06407702C9061C8E060269004A7E05A
:101C6400F874FF68601CE875F005A4C8AAF02AF9A6
:101C740074A928FE740439FF8E828F83A3A3A3E082
:101C840070057900021DE8EE2468F510EF3400F5C4
:101C940011906060E0851082851183F0750AFB75F0
:101CA4000B07750800750900E5D914F50EE5D9543C
:101CB40003F50F601CEE2482F50CEF3400F50D746F
:101CC40003650F6058E50E6013EE2467121C007064
:101CD4000B793DEEFAEFFB120ADC80A69007F6E0E2
:101CE40064016026850C82850D83E060047804809D
:101CF400027800850E08E508C398FA95E0FB1209FE
:101D0400448A088B09EA45097006120D94021C8660
:101D1400850C82850D83E070048A0A8B0B78008021
:101D240016E5D9C0E08812E50A2512F582E50B34E0
:101D340000F583D0E0F008E8C3950E40E4850C82FA
:101D4400850D83E0602874FC250EF50E780A1219BF
:101D540093AC0EA90FEEFAEFFB120B967402121756
:101D64003FE9700AAA08AB091212EC021CD57403ED
:101D7400650F6058850E0C750D00780C121993AC24
:101D84000AAD0BAA08AB09120B5A740212173F854D
:101D94001082851183E0F87480687005750C7F806B
:101DA40002880CE50CF50A780A121997E50FF50A72
:101DB400780A121997A90EAC08AD099004A7E0FAA5
:101DC4007B001207E8740212173F8013900479E035
:101DD4006408700BAC0AAD0BEEFAEFFB120BC612E3
:101DE4000DA079017F0C02189874F31217EC74FC9F
:101DF400121729EAFEEBFF8908A2AFE433F509C202
:101E0400AFEE2463F50AEF3400F50B8010AA0AAB99
:101E14000B120B121212EC9007C6E004F0850A8232
:101E2400850B83E0F8A3E0F9E849602FE82402FA7F
:101E3400E93400FBEA2402F50CEB3400F50D780CD0
:101E44001219938A828B83E0FCA3E0F9EEFAEFFB8C
:101E5400120B06740212173FE960B29007C6E060E5
:101E6400579007C7E0F89007C6E0C398500C740277
:101E7400650870449007C8E0603E8E828F83A3A3F8
:101E8400A3A3E0851882851983121ECC740212174D
:101E940074E8121ECC9007C5E028F074021217747F
:101EA400AC82AD83851882851983AA82AB837901BC
:101EB4001207F49007C6E4F0E509A2E092AF7404B7
:101EC40012173F7F06021898F0A3E4F09007C6E0CB
:101ED400F8220000851B87851CC622C0E074EF121F
:101EE40018D8A2AFE433FEC2AF759B00906182E0C4
:101EF400A2E05012E591A2E0500C7591FE740165C8
:101F04001B7003121C48E0A2E55051E591A2E55074
:101F14004B7591DF900479E064076005E064087014
:101F2400237401651B703579019004A7E0FA75F0FC
:101F340005A4CAA8F028FB74A92AFA74043BFB126E
:101F44001DED8018E0640D701390049BE004F064B0
:101F5400287002E4F07A00E0F9120DA6906182E0A4
:101F6400A2E64003022006E591A2E6400302200611
:101F74007591BF900479E064057008120C98120CF6
:101F8400A48003120C9E751B00120D16E990047AAE
:101F9400F07900120CF8120A167A017B009004788A
:101FA400E0F9120FFE907803E0644270559007FA4E
:101FB400E014F0704DC2AF121FBE00781ED0E0F6E0
:101FC40018D0E0F6E59F540770057509FF80037586
:101FD400097FC4C0E0781DE6F50808E65509F5094F
:101FE400740B7808121707D0E02508F8906270E0A7
:101FF400A2E740F8E8C333906272F0906270E0D2D6
:10200400E0F0906181E0A2E35009E5E9A2E3500326
:1020140075E9F7A3E0A2E75009E591A2E75003753B
:10202400917FEEA2E092AF7F04021937C0E0C0D0E6
:10203400C082C083906183E0A2E05009E5BFA2E0C2
:10204400500375BFFEE0A2E15009E5BFA2E15003D1
:1020540075BFFDE0A2E25009E5BFA2E2500375BFDF
:10206400FBE0A2E35009E5BFA2E3500375BFF7E02C
:10207400A2E45009E5BFA2E4500375BFEFE0A2E576
:102084005009E5BFA2E5500375BFDFE0A2E65009A1
:10209400E5BFA2E6500375BFBFD083D082D0D0D0B5
:1020A400E032C0E074F21218D8E5A7A2E4500FE5BC
:1020B400A1A2E4500953A7EF75A1EF1220FAE5A7F6
:1020C400A2E5500CE5A1A2E5500653A7DF75A1DFF8
:1020D400E5A7A2E15009E5A1A2E1500375A1FDE540
:1020E400A7A2E2500CE5A1A2E2500653A7FB75A1FA
:1020F400FB7F0102193774F81217EC751B01900469
:1021040079E0640670077A007B00120C80A2AFE4C9
:1021140033FED2AF90047FE0640170187A207B0014
:10212400900478E0F91210827A207B00900478E021
:10213400F9121004906182E0D2E6F09007F7E060B3
:102144002185C61C801690047EE064017008E5C6F3
:1021540054F84405F5C653BEFC121ED87401651B21
:1021640060E4EEA2E092AF7F0102189874E91217BE
:10217400EC74FA121729EAFEEBFF8C088D0990041F
:1021840079E024F7C39405500675100102229B12CE
:102194000C208A0A8B0BEA450B7003022298120C5E
:1021A400B68A0C8B0D120CB6EA650C7003EB650D48
:1021B40060ECEEFCEFFD851882851983AA82AB835F
:1021C400120CBC850A82850B83A3A3780C1215F923
:1021D40090905C780C1215C0851882851983781448
:1021E4001215F990905C78141215C0780C791412B9
:1021F40013E5501F780C7914121585909064780CAF
:102204001214054047850C10850D11850E12850F9B
:1022140013804590906485141085151185161285D8
:1022240017137810790C1215857810121405501CA8
:10223400751000751100751200751301781079146A
:102244001215857810790C12154C800C75100175D7
:1022540011007512007513007409781012152D9071
:10226400906C780C1215F97810790C1214A490045F
:1022740079E06408600AE064066005E064057020A3
:102284009090A07810121405501690905478101263
:10229400155F800C75100075110075120075130020
:1022A4008508828509837810121608740612173F70
:1022B4007F1002189874F71217EC120CCE9007F5E1
:1022C400E064017010906245E4F0A3F053F4F3432A
:1022D400FE0C5390F3120C6EE5C654804449F5C6C7
:1022E400E59E547F644970F8906185740FF09007FF
:1022F400F3E0F47002A3E0602C7508017509009006
:1023040007F3E07808121716E508F4FAA3E060086A
:1023140014600A14600C800DEA52808008EA52901E
:102324008003EA52A079007F0202189874F712170A
:10233400ECE9FEEAFF74016E700C7A807B00900475
:1023440078E0F9120FFE902524E493F46008E493F6
:10235400F91209F8800953C680E59E547F70FA1279
:102364000C749007F5E064017003120A2E9007F3D1
:10237400E0F47002A3E0602A750801750900900773
:10238400F3E07808121716AA08A3E0600814600A9C
:1023940014600C800DEA42808008EA42908003EACF
:1023A40042A0120C208A088B09A808A909E84960F0
:1023B40017E5E170FCE82414F582E93400F583E0C4
:1023C400F874FF68600288E174016F700A7A019002
:1023D4000478E0F912105202232B74F11217EC8ADC
:1023E400088B098C0A8D0B90905C78081215C074C8
:1023F4000F121774780C1215F990905C780C121562
:10240400C07808790C1213E590906450107808791C
:102414000C12158578081214054014800E780C7976
:1024240008121585780C121405500479018002797C
:10243400007F0802189874ED1217EC8A088B098C37
:102444000A8D0B90905C78081215C07413121774DF
:10245400780C1215F990905C780C1215C0780C79F0
:10246400081213E540117808790C121585AA08ABF7
:1024740009AC0AAD0B8022751000751100751200AD
:102484007513017810790C121585781079081215D6
:102494004CAA10AB11AC12AD137F0C021898C08279
:1024A400C083E9906000F0D083D08222C2AF0200E2
:1024B4000022C0E074F21218D8A2AFE433FED2AF07
:1024C400E589A2E15003121244758900C2C5751A48
:1024D40000EEA2E092AF7F01021937C0E074F2125D
:1024E40018D8A2AFE433FED2AFE58BA2E0500312BA
:1024F4001244758B00C2E880D5C0E0C0D0E8C0E0CB
:10250400E9C0E0E5A8D2AFC2C7751A00A2E7A2E706
:1025140092AFD0E0F9D0E0F8D0D0D0E0320201356B
:10252400FFFFFFFFFFFFFFFFC082C083E9900FFBA7
:10253400F0D083D08202013574F6121780E990033B
:1025440065F07CA57D037AFF7BFF1207407A008A41
:10255400087509007402780812171674662508F8BD
:102564007403350912258BA3F00AEAC3940340DFF0
:1025740079051206CE900365E0F91205F07A587BCE
:10258400071208F6023B87F98882898374FF1225B3
:1025940098E4F022F0A3123A32A32274F4121780C2
:1025A4008A088B09EB54806030900365E0F9120FC0
:1025B400E68A0A8B0BAE0AAF0BEE4F60138E828F46
:1025C40083E064B070031206E0EEFAEFFB120FD45E
:1025D400AA08E5096480FB80047A007B0002277066
:1025E40074F212178074FC121729EAFEEBFFEE4F07
:1025F40060387402121774EEF0A3EF1229F5ECF0B0
:10260400A3ED1229F5AA82AB831205EAE9F5087055
:102614007174121217741235D9E50A450B60638E72
:10262400828F83122690EE4F700575080280537ACC
:10263400067B0012103A8A0C8B0DA80CA90DE849F0
:102644007005750813803B88828983E4122598EE0F
:10265400F0A3EF123A7AE50AF0A3E50BF0900373C6
:102664001227689003736017E0FCA3E08003EAFC80
:10267400EBFD8C828D8312276870F38C828D83121C
:1026840034DCA908740412173F023C65A3A3A3A376
:10269400E0FEA3E0FF2274F2121780890AE975F0C4
:1026A40045A4FEAFF0900372E4F09003681227682B
:1026B40060281210407900890875090074027808AE
:1026C40012171674682508F58274033509F583E436
:1026D400F0A3F009E9C3940340DDEEFAEFFB121016
:1026E4003A8A088B09EA45096075EEFCEFFD79002A
:1026F400120FBC7D008D0C750D007402780C12173E
:10270400167468250CF87403350DF9E50AF5F0ED37
:10271400A475F017A4FAABF0E5082AFAE5093BFB27
:1027240088828983EAF0A3EBF07E00801BEE75F0CB
:1027340017A4FAABF088828983E02AFCA3E03B8CDF
:1027440082F583E4F0A3F00EEEC3950A40DF0DEDAD
:10275400C3940340A0E50A900372F07900800279E3
:1027640013023C65E0FAA3E0FBEA4B227F04021863
:102774005274F41217807900EAA2E0501B75081411
:1027840075099078081219937C047D007AFD7B0FFB
:102794001206C8740212173F80D2C082C08390030D
:1027A40073123A6C49601C88828983A3A3E06A701F
:1027B40003A3E06B8882898370E7A3A3A3A31232E7
:1027C4008080047A007B0002253574EE1217807431
:1027D400FC121729EAFEEBFF851882851983E4F0C1
:1027E400A3F0EE24021234C7EE24051229E3EE24EA
:1027F40004F50EEF122DBFE024FE603924FC604680
:1028040024FE605224FE605E24FE70030228E82445
:10281400FE700302296024FE700302296F24FE70F7
:102824000302297E24FC700302298D24FE70030216
:10283400299C0229D990038C7417F0A3E41229FD72
:102844001202600229D9851882851983AC82AD836E
:102854001206E60229A9851882851983AC82AD8304
:102864001206EC0229A9850C08850D0974021217B9
:1028740074AC82AD83850882850983123280120686
:102884000E8A0C8B0DAC0CAD0DEC4D6042E4F50CD6
:10289400F50D780C121993750C8C750D03780C12C8
:1028A4001993750C8D750D03780C12199374081215
:1028B40017741219AA791612327A12072874081298
:1028C400173FE9F50C700B123276120278800F75FF
:1028D4000C018508828509831229EB1234DC850CEE
:1028E400080229AC7402121774AC82AD83850C8281
:1028F400850D8312328012060E8A108B11AC10AD36
:1029040011EC4D6043850C82850D83A3A31219AA93
:1029140075108C751103781012199375108D75113B
:1029240003781012199374081217741219AA7916DD
:1029340012327A120728740812173FE9F509700B4E
:1029440012327612027E800F750901850C82850D84
:10295400831229EB1234DC850908804C85188285A2
:102964001983AC82AD831206F2803A8518828519E8
:1029740083AC82AD831206F8802B85188285198377
:10298400AC82AD831206FE801C851882851983AC47
:1029940082AD83120704800D851882851983AC8269
:1029A400AD8312070AE9F508E50860298E828F8352
:1029B400A3E06414601F850E82850F83E090038C6E
:1029C4001229F5123D3490038D1234DCE508A3126C
:1029D40029FD12025AEEFAEFFB12068C0233CEF5F1
:1029E4000CEF3400F50D22123D38851882851983C9
:1029F40022F085188285198322F07C8C7D03850A58
:102A040082850B83E0FAA3E0FB2274EE1217807434
:102A1400FC1217298A0A8B0B8C0E8D0FEA2405F5FC
:102A240008EB3400F5097C157D0079007A8C7B0372
:102A3400120FBCE5082402F50CE5091229E68518F5
:102A440082851983858210858311781012199385E4
:102A54000882850983A3A3A3A3122F08121993E55F
:102A6400082405F510E5093400F5117810121993BE
:102A7400850C82850D8312326A1232801206087424
:102A84000612173F8A108B11AE10AF11E50A24020B
:102A9400F50AE50B1234CAEE4F7003022BD78017E8
:102AA400740212177412328088828983EAF0A3EBCD
:102AB400F090038CE004F090038CE0C39405400391
:102AC400022BD7E4F510F5117810121993751075CF
:102AD4007511037810121993751076751103781017
:102AE40012199374061217741219AA7910EEFCEFD6
:102AF400FD12327A120728740812173FE9705E85B6
:102B04000882850983A3A3A3A3A3A3A3E0F8900346
:102B140075E0687048122F081219937C767D03E5DE
:102B2400082408FAE5093400FB120FB674021217E0
:102B34003FE960298E828F83A3A3A3A312328090DE
:102B4400038CE0F51074027810121716748D25109A
:102B5400F58274033511F583EAF0A3EBF0740212E5
:102B640017748582108583117810121993740212D8
:102B740017741219AA850C82850D83123D49120619
:102B840014740412173F8A108B11AE10AF11900306
:102B94008CE0F51075110074027810121716748CFD
:102BA4002510F874033511F988828983A3122768E4
:102BB4007003022A9BE82403F8E93400F9EE4F601D
:102BC40003022AA48882898374FFF0A3F090038C03
:102BD400E004F090038CE0600A12327612026C7901
:102BE40000800B8508828509831234D3790A023365
:102BF400CE74EA12178074FE1217298C128D13EA10
:102C04002405F50CEB123D53122694750800750942
:102C140000EA2402F510EB3400F5118518828519B9
:102C24008385820A85830B780A121993850C828521
:102C34000D83A3A3A3A3122DC9121993E50C240594
:102C4400F50AE50D1234CA780A121993850C8285A7
:102C54000D83123D47120608740612173F8A0A8B29
:102C64000BEA450B7003022D8AEA2404F50EEB12DD
:102C74002DBF1226948A828B83A3A3A3E0F9851027
:102C8400828511831232801205F6E9F50960030288
:102C94002D8AE4F514F515781412199375147575C5
:102CA4001503781412199375147675150378141294
:102CB400199374061217741219AA7913AC0AAD0B7E
:102CC4008510828511831232801207287408121726
:102CD4003FE9F5096003022D8A900375E0F8E508E1
:102CE4007009E0240290038DF0801790038DE0FCBE
:102CF400E82402FAE43400FBEA6C7001EB6003029E
:102D04002D8E850882AA82122EFF9414122EF7505B
:102D140075850E82850F83E0C0E0123136D0E0F075
:102D24000508850E82850F83A3E0C0E085080A7438
:102D34008E250AF58274033400F583D0E0F005088B
:102D4400900375122DC91219937C767D0385080AA8
:102D5400748E250AFA74033400FB120FA474021251
:102D6400173F900375E02508F50874FF6E7003742F
:102D7400FF6F6012EE24010EEF3400FFE508C394E8
:102D8400145003022C1FE508601312315C85108275
:102D940085118312328012027279008014E5097061
:102DA4000375090A851282851383EEF0A3EFF0A957
:102DB40009740212173F7F0E0218523400F50F8572
:102DC4000E82F58322123A892274EE12178074FE61
:102DD4001217298C0E8D0FEA2405F50CEB1229E647
:102DE400750B0090038CE4F0F50AEA2402F508EB75
:102DF4003400F509804990038CE0FA900375E0F8FB
:102E0400122EFF9417122EF7400D90038CE0F874E5
:102E140016C398900375F0122F081219937C767DCF
:102E240003748D2AFA74033400FB120FA474021283
:102E3400173F900375E0F890038CE028F0050AE54D
:102E44000C2416F582E50D3400F583E0F8E50AC399
:102E5400984003022EE090038CE0C39416507DE565
:102E64000AC333F8E433F9E50C28FEE50D39FF8590
:102E74001882851983AC82AD838E828F831232804F
:102E840012060E8A108B11AC10AD11EC4D70057545
:102E94000B018043E4F510F51178101219937510A5
:102EA40075751103781012199375107675110378DE
:102EB4001012199374061217741219AA7916850838
:102EC40082850983123280120728740812173FE999
:102ED400F50B7003022DFA1234CF80107C8C7D0325
:102EE400850882850983123280120284A90B740238
:102EF4000233D0E99400C365D03322EA28F8E434DD
:102F040000F9E822E0F51075110078102274EA1235
:102F1400178074FC1217298A0C8B0D8C128D13EAFE
:102F24002405F50AEB1234CA750800750900E50A90
:102F34002402F510E50B3400F511740212177485A0
:102F4400820E85830F780E121993850A82850B836E
:102F5400A3A3A3A3123A39121993E50A2405F50E83
:102F6400E50B3400F50F780E121993851082851144
:102F7400831233C812327A120608740612173F8A73
:102F84000E8B0FAE0EAF0FE50C2402F50EE50D34DB
:102F940000F50F80408882898374FFF005081231A0
:102FA4004274FFF00508900375E0F50C750D007888
:102FB4000C1219937C767D0385080C748E250CFA0B
:102FC40074033400FB120FA4740212173F900375AC
:102FD400E02508F508EE4F60718E828F83A3A3A3CA
:102FE400E0F9850E82850F831232801205F6E9F529
:102FF40009EE24041229E3E97044E4F514F5157884
:1030040014121993751475751503781412199375A0
:103014001476751503781412199374081217741220
:1030240019AA7911EEFCEFFD850E82850F83123209
:1030340080120728740812173FE9F5096027850CE8
:1030440082850D831231521234DCE508700302319B
:103054001C12315C850E82850F8312328012028A23
:103064007900023131850882AA82EA9003757009D9
:10307400E0240490038DF08022E0F890038DE0F5C5
:1030840014E82404FCE43400FDEC65147001ED70D4
:10309400C0122EFF9412122EF750B6850C82850DA5
:1030A40083E0C0E0123136D0E0F00508850C82855B
:1030B4000D83A3E0C0E0123142D0E012316E85826C
:1030C4000C85830D780C1219937404121774121959
:1030D400AA851082851183123D49120614740412C4
:1030E400173F8A0C8B0DAE0CAF0D85080C748E2522
:1030F4000CF874033400F9EE4F7003022F9985180D
:1031040082851983E08882898312316EA3E0C0E04E
:10311400123142D0E0022FA7E509700375090A8530
:103124000A82850B831231521234DCA90974040219
:103134002DB7748E2AF58274033400F58322850832
:103144000C748E250CF58274033400F58322123D31
:10315400388512828513832290038DE0F5F0E5080B
:103164008490038CF07C8C7D0322F0050885188202
:103174008519832274EC12178074FE1217298A08A9
:103184008B098C0E8D0FEA2405FEEB3400FF8518A5
:1031940082851983AC82AD838E828F831232801232
:1031A400060E8A0A8B0BEE24181229E3EA450B70EB
:1031B400030232451233B0503285188285198312C6
:1031C400328012071C8A108B11EA4511606E791245
:1031D400AC0AAD0B85088285098312328085108282
:1031E40085118312177EE9F50A705BE4F50AF50B85
:1031F400780A1219938E828F83A3A3E0F50A780AC2
:10320400121993EE24031234C7780A1219938E828A
:103214008F8312326A12328012072E740612173FFD
:10322400E9F50A7021850C82850D83E0701F8508FD
:10323400828509831232801202908011750A0E80F1
:1032440009750A018004E50A60031234CF850C82F3
:10325400850D83E0600479008002A90A74021217C4
:103264003F7F0C021852E0FCA3E0FD85088285092B
:1032740083227C8C7D03850A82850B83E0FAA3E09C
:10328400FB2274EE12178074FE1217298A088B0928
:103294008C0C8D0DEA2405FEEB3400FF750E0085C1
:1032A4001882851983AC82AD838E828F831232801B
:1032B40012060E8A0A8B0BEA450B700302339C122A
:1032C40033B0503585188285198312328012071C59
:1032D4008A0E8B0FEA450F605E7912AC0AAD0B853E
:1032E4000882850983123280850E82850F83121726
:1032F4007EE9F50E600302339F85088285098312F7
:1033040035D9AA0AFB1207108A108B11A810A9112B
:10331400E849701E7AFF7BFF1207108A108B11A8F0
:1033240010A911E849606C88828983E50AF0A3E555
:103334000BF0750A008007750E0E805F050A900376
:1033440072E0FAE50AC39A504AE50A75F017A4FA3E
:10335400ABF088828983A3A3E02AFAA3E03BFB8A2B
:10336400828B831233C8EC4D70D2750A17750B002B
:10337400780A121993EEFCEFFD120FA474021217CF
:103384003FEEFCEFFD85088285098312328012022C
:10339400968014750E098003750E01123D30850C5C
:1033A40082850D831234DCA90E022EF2E508240274
:1033B400F508E5093400F5098A828B83A3A3A3E009
:1033C400A2E522A3E0FCA3E0FD22740412173F7FD0
:1033D4000A02185274EC1217808C108D11EA24051D
:1033E400F50CEB1229E6750F00EA2402F50AEB123C
:1033F40034CA850A82F5831232801207108A088B38
:1034040009EA450970030234BC750E008071850C0D
:1034140082850D83E06401704F8E828F83A3A31293
:1034240019AA8E828F83A3A3A3A3E0F512751300B8
:103434007812121993EE2405F512EF3400F513787F
:103444001212199312327A12072E740612173FE9D8
:10345400F50F6014850C82850D83E4F0123D3085F0
:1034640010828511831234DC7C177D007900EEFA1A
:10347400EFFB120FBC8E828F83E4F0A3F0050E9055
:103484000372E0F8E50EC398501FE50E75F017A41B
:10349400F8A9F0850882850983A3A3123D5DFCA3E6
:1034A400E0FDEC4D600302341285088285098374C3
:1034B400FFF0A3F0E50F700612327A12029CA90FF6
:1034C400023265F50AEF3400F50B228E828F8312E7
:1034D4003D38850E82850F83E8F0A3E9F02274F667
:1034E4001217807C008C0875090074027808121782
:1034F400161235146A7003A3E06B7006E8FAE9FB50
:10350400800B0CECC3940340DC7A007B00023B8705
:1035140074662508F874033509F988828983E022E2
:1035240074F71217807F00EF75F003A4F8A9F0EC8C
:1035340028F8ED39F988828983E06A7003A3E06B87
:103544007006E8FAE9FB800B0FEFC3940440D87AC5
:10355400007B007F0102185274F61217801206DAFB
:103564008A828B83E582458370067A007B0080071C
:10357400A3A3A3A3123280023B8774F2121780E93B
:10358400FE740E1217741235D97410121774123A8D
:10359400548C828D83E064027036A3123D3EF50C98
:1035A400A3E0F9A80C74026870037429697021758A
:1035B4000C02750D00780C1219937808121993787F
:1035C4000A121993EEF9120752740612173F800279
:1035D4007901023C65E0F50AA3E0F50B2274E812D8
:1035E400178074FB121729E9851882851983F08ADC
:1035F400168B17ECFEEDFF751000741D1217741274
:103604003D34741D1217741234DC8E828F83A3A38D
:10361400A3E0A2E4502D741D121774123280120715
:103624001C8A828B83E58245837003023A23790ADC
:10363400EEFCEFFDAA16AB1712177EE9F510600336
:10364400023A26741F121774123A54742112177412
:103654001235D97423121774E0F50EA3E0F50F8E1A
:10366400828F83E0640260030239D1A3123D348562
:103674000882850983A3858212858313EE240612AA
:1036840029E388828983E0FAA3E0F9EA2400F514A7
:10369400E439F5157814121A1D010000280128C513
:1036A40036070002288A370328F7360029C1380173
:1036B40029EC3802298D380329C13804296B39D102
:1036C40039E50E450F60030239CC850C82850D83E4
:1036D400123A6CFAE9FB8A828B83E0850A82850BB5
:1036E40083123A801219938A828B83A3E0FCA3E0AD
:1036F400023955E50E450F60030239CC850A8285EF
:103704000B837401F0123A5C850882850983F07C8E
:10371400007D008E828F83A3A3A3A3E02401FAA3D8
:10372400E03400FB12060EEA4B60418A828B83E090
:103734002402F8850A82850B83E028F0EA2404F841
:10374400EB3400F988828983E08512828513831221
:103754003A92123A801219938A828B831233C7E504
:10376400082403FAE5093400FB02395A850A8285E4
:103774000B83E02404F07C047D007900AA12AB13CF
:10378400120FBC023A26E50E450F60030239CC1233
:103794003A5CFEA3E0FF850A82850B837404F0EE95
:1037A400850882850983F0EF851282851383F0747E
:1037B40003121774AC82AD83EEFAEFFB12060E8A85
:1037C4000C8B0DEA450D700302386E8A828B83A33D
:1037D400A3122690740112177485820E85830F78C4
:1037E4000E12199374051217741219AA7CFF7DFF27
:1037F400120614740412173F8B0FEA450F703385B9
:103804000C82850D83123A39121993850C82850D29
:1038140083A31219AA7C027D007AD87B9012038CB0
:10382400740412173FE9700A740112177474FFF0DC
:10383400A3F08E828F83E064027039750C02750DDB
:1038440000780C1219938E828F831233C7E50824F3
:1038540004FAE5093400FB120FA4740212173F8521
:103864000A82850B83E0240280097401121774EE26
:10387400F0A3EFF07401121774123A4AF0740112B3
:103884001774A3123A420239C6E50E450F600302CB
:1038940039CC850C82850D831233C8AA16AB171256
:1038A4000746850A82850B837402F0EA85088285BF
:1038B4000983F0851282851383EB0239C9E50E452D
:1038C4000F60030239CC123A5CF8A3E0F9850A824E
:1038D400850B837402F0E8850882850983F0E98505
:1038E40012828513830239C9850C82850D831232B5
:1038F40080120F9EEAFC8C82A882C3950EE4950F79
:10390400405FE8650E7002E50F70047C008022853C
:103914001882851983E0FAE50E2AFAE50F3400FBD4
:10392400C3EA98EB94005003E08005E50ECCC39CF9
:10393400FCEC850A82850B83F08C0A750B00780AEF
:10394400121993850C82850D83E0250EFCA3E035C6
:103954000FFDAA08AB09120FA4740212173F023A12
:1039640026751007023A26E50E450F705B850C821A
:10397400850D83123D34850A82850B837407F08894
:10398400828983123A42123A32E085128285138385
:10399400F0E82402FAE93400FB8A828B83123A426B
:1039A400123A71123A4AA3123A7A123A4EF0E824C1
:1039B40005F8E93400F988828983123A4EA3123A51
:1039C40092A3A3A3A3F0805A75100B8055741D1203
:1039D40017741232801206DA8A828B83E582458359
:1039E400603D123D34880C890DE8450D6031780E38
:1039F400121993780A1219937808121993740612FB
:103A04001774E0F9EEFCEFFDAA16AB17850C82855E
:103A14000D8312177E740612173FE9F510800375A3
:103A2400100EA910740512173F7F10021852F08867
:103A3400828983A322E0F50E750F00780E22E085BB
:103A4400088285098322123A9922123A99A3A32261
:103A5400E0F508A3E0F50922850C82850D83E0F8E2
:103A6400A3E0F5838882E022123D38E822A3A3F084
:103A74008A828B83A32212259AA3A322F08A828BA3
:103A840083123A8922E0F50A750B00780A22123A69
:103A940032123A9922E0850882850983A3A322740D
:103AA400EE12178074FE1217298A0A8B0BECFAEDBA
:103AB400FB7414121774E0F510A3E0F511741612D8
:103AC4001774E0FE7418121774E0F50EA3E0F50FF6
:103AD400851882851983AC82AD8312060E8A0C8BFD
:103AE4000DEA450D604985188285198312328012CA
:103AF40006DA8A828B83E5824583602FA3A3123A78
:103B040054E50845096024780E12199378101219A7
:103B140093EEF9AC0CAD0DAA0AAB0B8508828509AE
:103B24008312177E740412173F8006790E8002797F
:103B340001022EF274F612178074FE121729740C07
:103B4400121774123A6C851882851983F074011265
:103B54001774E9F0E4F508F5097808121993750863
:103B640002780812199374041217748582088583E5
:103B740009780812199312072E740612173F74025B
:103B840012173F7F0202185274F7121780EAFEEBF5
:103B9400FF89087CA57D03120746EA5402600BA93D
:103BA40008EEFAEFFB12060280027901023557741F
:103BB400F612178074FF6A700374FF6B701B7B002E
:103BC400EB75F003A4F8A9F0EC28F8ED3912258B75
:103BD4000BEBC39404501480E71207168A088B0970
:103BE400A808A909E849600312258C809674F61286
:103BF40017801207168A828B83E58245836006A3A9
:103C0400A3E0FA80027A007B00023B8774F2121769
:103C1400808A088B09ECFEEDFF740E121774E0F530
:103C24000A1207168A0C8B0DA80CA90DE8497026F8
:103C3400EEFCEFFD7AFF7BFF1207168A0C8B0DA8B2
:103C44000CA90DE84970047911801688828983E5EE
:103C540008F0A3E509F088828983A3A3E50AF07933
:103C6400007F0602185274EE121780EAFEEBFF8CF6
:103C7400088D09890C7414121774123D34741612C9
:103C84001774123280750D00E8496003023D2874F0
:103C940002650C6003023D237412121774123D3E38
:103CA400FCA3E0F9EC2400F50EE439F50FEAF4F88E
:103CB400EBF4F9EC58F8E50F59F9E849705CE508BC
:103CC4002406F8ED3400F9880A890B8882F58312FA
:103CD4003D491207468A108B11E50E65107004E504
:103CE4000F65116042780E121993850A82850B8341
:103CF400123D4912074C740212173FE9F50D702763
:103D0400780E121993850882850983A3A3123D476F
:103D140012075E740212173F800D750D80800875BE
:103D24000D0D8003750D0BA90D0233D38E828F8385
:103D3400123D3822E0F8A3E0F922123D3888828946
:103D440083E022A3A3E0FCA3E0FDEEFAEFFB223420
:103D540000F50D850C82F58322E028FEA3E039FFEF
:103D64008E828F83E02274F2121780EAFEEBFF89C1
:103D74000B7401650B600E7402650B706B79011294
:103D84000914E97063EEFAEFFB1207108A088B0935
:103D9400EA45096048750A00800B7C177D007900AC
:103DA400120FBC050A900372E0F8E50AC39850228A
:103DB400E50A75F017A4F8A9F0850882850983A39C
:103DC400A3E028FAA3E039FB8A828B83123A6C4978
:103DD40070C885088285098374FFF0A3F07CA57DF3
:103DE40003EEFAEFFB120740023C6574F2121780EF
:103DF4008A088B09ECFEEDFF740E1217741235D984
:103E0400900FFBE0F4603D7A097B00120FCEEA4B81
:103E140060328A828B8374B1F0A3E4123A73A312E2
:103E24003A71A3E508F0A3E509123E4BEEF0A3EFC7
:103E3400123E4BA3A3E50AF0A3E50BF0900FFBE0C1
:103E4400F9120FDA023C65F08A828B83A3A3A3A341
:103E5400A322C082C0839061907404F0A37448F0DC
:103E6400A3E4F09061807440F09061BC7407F0901A
:103E740061877469F09061B67416F07900120A1CB7
:103E84007902120A22902524E493F46006E493F95B
:103E94001209F87905120D88024277C082C083E9BD
:103EA400540FF9906185E0696012E5C65480444975
:103EB400F5C6E59E547F644970F8E9F053C680E581
:103EC4009E547F70FA02427774F7121780E5A8FEB9
:103ED40053A87E120A04C2BA539AFEC289759B0083
:103EE400C2C2120A0A75A91175B905120A10D2BA0A
:103EF400439A0174805E42A802519BC082C08390A1
:103F04006181E4F0A3F0A3F002427775E9007591B2
:103F14000075BF00020135C082C083906181E4F066
:103F2400A374C0F0A3E480DFC082C08374F81217C6
:103F34002990047B1255EA700302400B90047BE045
:103F4400544060237908851882851983AA82AB833B
:103F5400120B30851882851983AA82AB831207D08D
:103F640090047BE054BFF0E054806010790C7A1B1D
:103F74007B08120B3090047BE0547FF0E0A2E05009
:103F84000F7900120A1C1207D690047BE054FEF04D
:103F9400E05402600F7901120A1C1207D690047BC8
:103FA400E054FDF0E05404600F7900120A22120775
:103FB400DC90047BE054FBF0E05408600F790112BC
:103FC4000A221207DC90047BE054F7F0E0541060FE
:103FD4000F7902120A221207DC90047BE054EFF0FE
:103FE400E05420600F7903120A221207DC90047B4C
:103FF400E054DFF0A3E05401600D120A2E1207E230
:1040040090047CE054FEF0740812173F024277C01B
:1040140082C083E9600514602A804F90619A7433EA
:10402400F0A37455F09061A0743AF09007F5E06441
:10403400017009C29190047D7467802D90047D7491
:1040440061802690619A743FF0A3745AF09061A045
:10405400747FF09007F5E064017009D29190047DBB
:104064007471800590047D746AF0024277C082C046
:1040740083E9600B14600D14601714600C802090A9
:104084002528801590252980109007F5E06401709B
:104094000590252A800390252BE493906186F002F5
:1040A400427774EE12178074F412172985188285EA
:1040B4001983AC82AD83758390758244740412169F
:1040C4003C90252893F460030241D0907808E0C323
:1040D400940250030241B07404121774AC82AD838D
:1040E40075838F7582F7740812163CFC7EFF7FFF80
:1040F4008E0C7D008C8285820E800F74086D606D3D
:1041040074096D6068740A6D60638D0875090074C4
:104114000278081217161241DA1215F9A909E50AEC
:10412400C9F8881074187808121514E5104508FAAF
:10413400E9FBE50EC333F8E433F97404121774E5AC
:104144008228F582E583391248CCC3E89AE99B407A
:1041540008E8C39AF8E99B8006EAC398F8EB99F952
:10416400C3E89EE99F5006E8FEE9FF8D0C0DEDC300
:104174009413408774FF6E700374FF6F6024850C82
:1041840008740278081217161241DA1215F9851804
:1041940082851983E582250EF582E583124CE5E5D7
:1041A40008F00CECC3940450030240F07508017548
:1041B400090078081219937402121774AC82AD8343
:1041C4007A4A7B0912121A740212173F740C1217DE
:1041D4003F7F0A02185274482508F582747835091D
:1041E400F583780822C082C083906186E0F8902528
:1041F4002BE49368700990252AE493906186F090EB
:1042040061AE7468F0A3746AF090624574FBF0A325
:1042140004F053F4FD43FE029007F57401F090613D
:10422400A0E0643A7004790080027901120A1C0249
:1042340042777F04021852C082C0839007D3E0649F
:104244000170139007D9E0F87401686019E87006EA
:10425400A3E0640160109007EAE06401700C900729
:10426400F0E064017004790C800279008005E0F9C3
:104274001224A2D083D082020135124972940622FC
:10428400E0C4333354C022C082C0839007DD742558
:10429400F09007DB7401F0A3E4F07A01FB120D0443
:1042A4001242D72416F582E8124CE57452F0A37436
:1042B4000AF09007DAE0640170169007D9E07010F4
:1042C4007901120D64120D34120D5E7900120D7015
:1042D4000242779007C912465B2274F61217807463
:1042E400FA1217299007D2E064017008120A3A9072
:1042F40007D2E4F075E1F11242D72415F582E812F1
:104304004CE57401F09007D4E0640170539090265A
:10431400C082851882851983AC82AD83758390D061
:1043240082740612163C75D90D9007CB1242844450
:1043340003F5D97800880874CC12527474071242B9
:104344007E40F278008808851882851983E58212F8
:104354005274E58312427E40EC75E1957901800246
:104364007900120D0A90101D1243D474D8F0A3746E
:104374000BF0A31243D41243D412452874DEF0A3E5
:10438400740B12453D9007CBE0F97ACC7B07120CF5
:10439400E69007DDE0F91224A27901120D10909045
:1043A40050121617120D28909070121617120CF254
:1043B4007900120D7C1242D72414F582E8124CE5E0
:1043C4007416F09004797405F00412173F0249DC66
:1043D40074D2F0A3740BF0A32274F412178089082A
:1043E400A8081250E09007E2E0F97AE37B07120C88
:1043F400E69007F0E0701A7900120D469007B8E0D5
:1044040070047900800279017AB97B07120CEC8080
:10441400057901120D4675E1F175D9239007E21271
:1044240042844405F5D97800880A74E3250AF582A4
:10443400740712427E40F175D90075D90075D90010
:1044440075D90075D90075D9007A00125536242221
:1044540012488B40F67A001255362426F582E9126A
:1044640049E40AEAC3940340EEEE242B1249E17AAC
:1044740000125536242C12489140F67A0012553613
:10448400242E12489140F67A0012553624301248F0
:104494009140F67A00125536243212489140F67A49
:1044A400008A0AEE250AF8EF124DFD12489D940584
:1044B40040EFEE2437F582EF125034541FF8EE2407
:1044C4002AF582EF125034C43354E048F5D975E12B
:1044D4009590101D74A2F0A3740BF0A374A8F0A31C
:1044E400740B12451F74AEF0A3740B12453D900774
:1044F400EFE0F91224A2909050121617120D289092
:104504009070121617120CF290600DE4F0790112FB
:104514000D7C9004797406F0024236F0A31245280B
:104524001245282212452C22749CF0A3740BF0A38C
:10453400749CF0A3740BF0A32212454122F0901056
:104544002B12454DA312454D2212452C749CF0A309
:10455400740BF02274EC1217809007E01250F77875
:10456400101215F99007F1E0FAF875F005A4C8AC3B
:10457400F02CF974D728F582740439F583E0FEA38E
:10458400E0FFEEC333FEEF33FF8E0CF50D750E0026
:10459400750F0085100885110985120A85130B9083
:1045A400902C780812155F780812198F85100885E9
:1045B400110985120A85130B7808790C12154C78A9
:1045C40010790C1214A4E4F50EF50F7808790C1286
:1045D40015858A0C750D007403780C12171678086B
:1045E400790C12154C90905C78081215C0AA08AB8F
:1045F40009AC0AAD0B12243A740412173F8A088BD3
:1046040009A808A909C3EE98EF995006E82EF8E91D
:104614003FF9E890600EF0E9A3F0EEA3F0EFA3F009
:1046240090600D74C1F07F0C021852C082C0839058
:1046340007C912464F9007DD024272C082C08390C0
:1046440007E012464F9007EF02427212465B2406BF
:10465400F582E8124A7D22E0F8A3E0C8220201357F
:1046640074F21217801247CEF50AEF124B5B600406
:10467400780480027800E8240EF8EAC39850030214
:10468400472B75080C9007FBE4F0EE2476F582EFD7
:104694001250349007FCF07902EE2477FCEF3400DA
:1046A400FD7AFD7B07120B1E7902EE2479FCEF34B0
:1046B40000FD120B1E7902EE247BFCEF3400FD1288
:1046C4000B1E7902EE247DFCEF3400FD120B1EEE6E
:1046D40024741247E4120B1E850A82850B83E06062
:1046E4001E7508FB75090778081219937C0C790369
:1046F400EEFAEFFB120B90740212173F7508107458
:10470400012508F5D975D90378008009880A74FB56
:10471400250A1247C3E8C3950840F175E195790469
:10472400120D2E7901800279007F0602185274F26C
:104734001217801247CEF508EF3400F50985088278
:10474400F583E06004780480027800E8240AF8EA3B
:10475400C3984060750A089007FB7401F079057CE2
:10476400BF7D077AFC7B07120B1EEE24801247E400
:10477400120B1E850882850983E0601E7508FB758F
:10478400090778081219937C087903EEFAEFFB12F3
:104794000B90740212173F750A0C124A5A800312C6
:1047A40047BDE8C3950A40F775E1957904120D2ECB
:1047B40079018002790002472D880874FB2508F5E9
:1047C400827407125038F5D908221247D222EAFE21
:1047D400EBFF9061D0E0F87480C398FAEE24822253
:1047E400FCEF3400FD8E828F83A3A3A3A3A31255F1
:1047F400F98C828D83E028F0A3E039F079022274E9
:10480400F6121780EAFEEBFF9061D0E0707475D960
:104814001875D90375D9037A008A08EE250812554C
:104824003B249B1248A440F17A008A08EE25081222
:10483400553B24A312489140F17A008A08EE2508DA
:1048440012553B24931248A440F17A008A08EE25BD
:104854000812553B248712488B40F175E19579087D
:10486400EE2493FAEF3400FB120B247904EE248730
:10487400FAEF3400FB120B247904120D2E1248AD0A
:10488400800279000249DC12489794042212489766
:10489400940222F582E9125190E0F5D90AEAC32282
:1048A40012489794082275E195EE246FF582EF1271
:1048B400518C1255F9EE2471F582EF12518CE8F007
:1048C400A3E9F07901223400F5831255F92274F634
:1048D400121780EAFEEBFF9007FB740612497C1264
:1048E40019937C017903120B90740212173F75D946
:1048F4000675D903780012496240FB75E19590046E
:1049040079E064087017EE246FF582EF1248CAEE5E
:104914002471F582EF124CE5E8F0A3E9F079010285
:1049240049DC74F6121780EAFEEBFF9061D0E07068
:10493400299007FB740A12497C1219937C017903AC
:10494400120B90740212173F75D90675D9037800BB
:1049540012496240FB1248AA80027900807A8808D2
:1049640074FB2508F58274071249729405221251CA
:1049740090E0F5D908E8C322F07508FB75090778BB
:10498400082274F6121780EAFEEBFF9061D0E07003
:104994004279019007FB740BF0900479E06407708E
:1049A400197508FB75090778081219937C01090920
:1049B400120B90740212173F7905740129F5D97509
:1049C400D903780080031247BDE8C39940F8124820
:1049D400AA800279008001F07F02021852F582EF6A
:1049E400125038F5D92274F5121780124A856004E2
:1049F400780480027800E8240BF8EAC398405275E2
:104A04000A099007FB7408F0F9124A66120B1E8516
:104A14000882850983E0601E7508FB75090778081C
:104A24001219937C097903EEFAEFFB120B907402CE
:104A340012173F750A0D124A5A80031247BDE8C384
:104A4400950A40F775E1957904120D2E1248AD8050
:104A5400027900024CDB7401250AF5D975D9037873
:104A64000022EE24E4FCEF3400FD7AFC7B0722EE06
:104A7400241DF582EF124A7D22125190E4F0A3F036
:104A8400221247D2F8EF124A8E223400F98808899C
:104A9400098882F583E02274F31217808A088B094F
:104AA400124BF1FAE5082482F50AEB124B5B600421
:104AB400780480027800E82408F8EAC398500302D6
:104AC4004B54750C069007FB740CF0900496E09020
:104AD40007FCF07402C0E0F97C977D047AFD7B0743
:104AE400120B1ED0E0F97C997D04120B1E850A82FC
:104AF400850B83E0601E750AFB750B07780A121993
:104B0400937C067903AA08AB09120B90740212175E
:104B14003F750C0A7401250CF5D975D9037800800A
:104B240009880A74FB250A1247C3E8C3950C40F1AF
:104B340075E1957904120D2EE508246FF582E509D7
:104B44001248CAE5082471F582E5091248BF8002BB
:104B540079007F050218523400F50B850A82F5832B
:104B6400E02274F6121780EAFEEBFF124BF1FCEE22
:104B74002482F8EF124C7460047A0480027A00EA0A
:104B84002404FAECC39A40607A029007FBEAF0EE40
:104B940024F6F582EF124BFB601B7508FB750907C1
:104BA40078081219937C027903EEFA120B907402BE
:104BB40012173F7A0674012AF5D975D90378008053
:104BC400031247BDE8C39A40F875E195EE247312C9
:104BD4005279EE247F125279124A737904120D2EFF
:104BE400EE240D1248B0800279000249DC9061D0B5
:104BF400E0F87480C398221250389007FCF0888241
:104C04008983E02274F6121780124BF1FEEA2482A3
:104C1400F8EB124C7460047C0480027C00EC2404E5
:104C2400FCEEC39C40457C029007FB7407F0EA2429
:104C3400F7F582EB124BFB60177508FB75090778D3
:104C4400081219937903120B90740212173F7C0611
:104C540074012CF5D975D903780080031247BDE897
:104C6400C39C40F875E1957901800279000249DC22
:104C74003400F988828983E02274F5121780E9FEF2
:104C8400A2AFE433F50AC2AF7F00EA246EF8EB3436
:104C940000F980010F88828983E0F508EFC3950845
:104CA40050188F08EA2508FCEB3400FDEC246AF563
:104CB40082ED1250346E70DC8017EA2508FAEB346A
:104CC40000FBEA246AF582EB124CE5EE124C010477
:104CD400F0E50AA2E092AF7F03021852246AF5823B
:104CE400E912518C2274F6121780A2AFE433FFC28A
:104CF400AFEA246EF8EB125328E014F07E0080191A
:104D04008E08EA2508F8EB12553D246B125031C089
:104D1400E0E8124CE0D0E0F00E8C828D83E0F8EEF7
:104D2400C39840DCEA246DF582EB124CE574FF1263
:104D34004D5EEFA2E092AF0249DCC082C083E5A8D9
:104D4400F8C2AFEA246AF582EB124CE5E9124D5E33
:104D5400E8A2E7A2E792AF024277F0EA2469124D93
:104D64006622F582EB125190E4F02274F21217805D
:104D74008C828D83A3A3A3A3E0541FF0EA243612EC
:104D8400531E8E828F83E4F0F50C850C8285820A93
:104D9400EC250AF8ED124A8EC0E0EA250AF8EB1277
:104DA4004DFDD0E0F0750D00850882850983E0F59E
:104DB4000A750B00E50D780A1216F7E50AA2E05011
:104DC40023E50C33333354F8250DC0E08E828F83F2
:104DD400E0F8124FD12438124CE2D0E0F08E828FEA
:104DE40083E004F0050DE50DC3940840BB050CE514
:104DF4000CC39405409402472D3400F9E8245DF572
:104E040082E912518C2274F41217809004A5E06494
:104E1400037003024FB77E00EEF875F005A4C8AA2C
:104E2400F02AF974AB28F582740439F583E0600341
:104E3400024FAD74A928FA740439FB8A828B83A3C8
:104E4400A37401125590A3A3A3E4F0EA2404F8EB9D
:104E540012553DFCE9FDEE8C828D83F0EA2462124A
:104E64004FBE2467F582EB124CE57401124FE3E464
:104E7400F0A3124FE3A3A3124FDE240F124FBE245C
:104E840035F582EB12527CF508F509F50AF50BEAC3
:104E94002418124FC6121608EA241C124FCC241DE3
:104EA400124FDA247F124FCC2473124FCC2468F5AE
:104EB40082EB124CE57480124D5EEA246E124FCCE4
:104EC40024EC124FCC24ED124FCC24EE124FCC2400
:104ED400EF124FCC24F0124FDA24F2124FDA24F5F9
:104EE400124FCC2482124FCC24D2124FCC24D31292
:104EF4004FCC24D4124FC6121608EA24D8124FC637
:104F0400121608EA24DE124FCC24E0124FCC24DC23
:104F1400124FCC24E1124FCC24E2124FCC24F812CD
:104F24004FDA24FA124FDA24FC124FDA24FEF58207
:104F3400EB124A79FE8E08EA2508F8EB12553D1269
:104F44004CE074FFF00EEEC3940440E97E008E82C0
:104F5400A88274BF28F5827407125034C0E0124F3F
:104F6400D1245D124CE2D0E0F00EEEC3940540DE95
:104F74007E008E82A882748D28F5827404125034C7
:104F8400C0E0124FD124E4124CE2D0E0F00EEEC3A4
:104F9400940840DE9004A5E004F0640170198C824A
:104FA4008D83E09004A7F0800E0EEEC394035003AB
:104FB400024E1C7A007B000242361251897401F0C1
:104FC400EA22125189780822124D66EA22EA28F868
:104FD400EB3400F9E822125189E4F0A3F0EA22F05C
:104FE4008A828B83A3A3A3A3A322C082C083EA24BF
:104FF40003F582EB1250346008E4F09004A6E01448
:10500400F09004A5E014F070069004A774FFF08AF1
:10501400828B83A3A3E4F09007C4E0700D9004A6F0
:10502400E0640170057900120CF8024277F582E918
:1050340012503822125190E022C082C0837B00EBD0
:10504400F875F005A4C8AAF02AF974A528F8740420
:10505400125248A3A3A3A3E4F088828983A3A3A341
:10506400A3A3A3F00BEBC3940340D49004A5E4F0F2
:10507400A3F0A374FFF075E1F102427774F51217FF
:1050840080750800750900750A00A80A1250E08EA0
:10509400828F83A3A3A3E0602BE5084509601D85E7
:1050A40008828509831250F71219A61250F31216BA
:1050B400171223DE740412173FE97008EEF8EFF9B3
:1050C40088088909050AE50AC3940340BD85088256
:1050D400850983A3A3A3A3E0F9024CDBE875F005DB
:1050E400A4C8AAF02AF974A928FE740439FF228EF0
:1050F400828F83E0F8A3E0F5838882A3A32274F768
:1051040012178078FF79FF7F00EFFC75F005A4CCBF
:10511400AEF02EFD74A92CFC74043DFD8C828D83AD
:10512400A3A3A3E0603EEC2473F582ED125034FE99
:1051340074FF68700374FF69700774016E701C80DB
:105144000D74016E700DEC247912517C5016EC2410
:1051540079800BEC242E12517C5009EC242EF5821C
:10516400ED1248CA0FEFC39403409EC3EA98EB992B
:105174004004E8FAE9FB801FF582ED12518CC3E08C
:1051840098A3E09922F582EB125190223400F58322
:1051940022A2E092AF79007F0102185274F612172E
:1051A40080EAFEEBFFEE2463F508EF3400F5098096
:1051B40016AA08AB09120B121212EC9007C5E004F0
:1051C400F09007C6E004F08508828509831255EA49
:1051D40070DFEEFAEFFB120ABEEEFAEFFB120C1AC6
:1051E4000249DC74F7121780EAFEEBFF8E828F838C
:1051F400A3A3A3A3E0FA7B0012082AEEFAEFFB12A2
:105204000AD6120BFC8090C082C0837B00EBF87539
:10521400F005A4C8AAF02AF974A928F87404125253
:1052240048E06014E8246E125031600CE8246A12DD
:1052340050317004790180090BEBC3940340CE799B
:105244000002427739F988828983A3A3A32274F6E2
:1052540012178078008808748D12527474041252E4
:105264007C08E8C3940840ED90048D74010249DB86
:105274002508F58222F582EF124D692274F7121780
:105284008074FC121729851882851983E4F0A3F031
:10529400A3F0A3F0120B2AE9851882851983F01272
:1052A4000B2A7401121774E9F0120B2A74021217F4
:1052B40074E9F0851882851983121617740412177D
:1052C4003F02519B74F6121780EA240D12531EEC10
:1052D4002403F8ED3400F988088909EC2407F8ED73
:1052E4001253281248CE850882850983E0FAA3E088
:1052F400FB12169E8E828F83E8F0A3E91255F08587
:105304000882850983E0FAA3E0FB12169E8B09EA62
:10531400450960031253340249DCF8EB3400F9E820
:10532400FEE9FF223400F9E8FCE9FD8C828D83223A
:105334008E828F83E02401F0A3E03400F02274F61F
:10534400121780EA242EF582EB125034FCA3E0FD00
:10535400EA246F12531E780079FAECFAEDFB121668
:105364009E8E828F83E8F0A3E9F0780079FAECFA54
:10537400EDFB12169E8B09EA4509600312533402B1
:1053840049DC74F0121780EAFEEBFF7410121774F4
:1053940078081215F9120CB08A0C8B0D8C0E8D0F37
:1053A400909030780C12155F90905C780C1215C0B8
:1053B400780C12198F1250F31216171223DE74048C
:1053C40012173FE9600302546E8E828F83E0240239
:1053D400F8A3E012553DFAE9FB8A828B8378081220
:1053E400157290905C78081215F98A828B8378087C
:1053F4001215D3EE240BF582EF124CE5C082C08364
:105404008E828F83A3A3A3A3A3E02401F8A3E03493
:1054140000F9D083D082E0687003A3E06970047956
:10542400018049EE2407F8EF3400F9888289831259
:105434005338EE24731254757014EE247412547E8F
:105444007003A3E06D70078A828B83125338EE24B5
:105454007F1254757014EE248012547E7003A3E0FE
:105464006D70078A828B8312533879007F08021883
:1054740052F582EF125038640122FAEF3400FB8AAD
:10548400828B83E0FCA3E0FD88828983E06C227434
:10549400F3121780E9FEECFFEA2462F582EB125462
:1054A4007860030255319061D0E0F508EA2482F572
:1054B40082EB125034F50C60047804800278007496
:1054C40080C39508FC95E0FDEF28F8E412553D24CF
:1054D40002F8E93400F9EC98ED99A2D265D0334092
:1054E40048740D121774E0F50AA3E0F50BE50C609F
:1054F40015780A121993EFFCEEF9120B907402124C
:10550400173F74042FFF74012FF5D98ED9780080CA
:105514000C8808E50A125274E50B1247C7E8C39FCA
:1055240040EF75E195790080067907800279FF02E2
:105534004B568A0AEE250AF8EF3400F9E82274F78C
:10554400121780A2AFE433F508C2AFEA2402F8EBE5
:105554003400F98A828B83E0FEA3E0FFEE4F600EF5
:1055640088828983E0FAA3E0F5838A8280048A82B0
:105574008B83ECF0A3EDF088828983125596F0E5D5
:10558400080251958C828D83E8F0A3E9F08A828B1E
:105594008322ECF0A3EDF08C828D83E4F0A32274DB
:1055A400F7121780EAFCEBFD7A007B00A2AFE4332C
:1055B400FEC2AF8C828D831255EA6022E8FAE9FBC1
:1055C4008A828B831248CE125588E4F0A31255F0D8
:1055D400E849700A8C828D83A3A3E4F0A3F0EEA2C1
:1055E400E092AF02519B1255F9E84922F08C828D6A
:1055F400831255F922E0F8A3E0F922C082C0838027
:105604000312562DE9F874FF28190470F4ECFAED2E
:10561400FB024277C082C083800312562DE9F874DE
:10562400FF28190470F40242778C828D83E08A8209
:105634008B83F08C828D83A3AC82AD838A828B832F
:10564400A3AA82AB832274F012178074FA1217296A
:10565400890BECFEEDFF750A008A088B09780812A5
:1056640019D700041094588D56AB56C556DD56FB19
:1056740056135736574E5762578C57145825583C73
:1056840058565894587758A2577401650B60030212
:10569400588F8E828F83E0F8C39403400302588F9F
:1056A400E890103F02588C7402650B600302588F17
:1056B4008E828F8312604C901040E8F0A3E9025868
:1056C4008C7401650B600302588F1258C1400302A9
:1056D400588FE8900DBF02588C7401650B6003026B
:1056E400588F8E828F83E0F8C39405400302588F4D
:1056F400E8900DC002588C7401650B600302588F4A
:105704001258C1400302588FE8900DC102588C749E
:1057140010650B600302588F75081075090078082E
:105724001219937AC27B0D120FA4740212173F024E
:1057340058B57401650B600302588F1258C14003B9
:1057440002588FE8900DD202588C7401650B6003E7
:1057540002588F8E828F83E090104302588C740419
:10576400650B600302588F8E828F83780C1215F9B3
:1057740090903C780C121405500302588F900DD46D
:10578400780C1216080258B5E9600302588F120506
:1057940024E9700512119C8060900E67806E740776
:1057A400650B600302588F750806750900780812A6
:1057B40019938E828F83A3AC82AD83740212177403
:1057C400AA82AB83120FAA740212173F7C007D00D9
:1057D400851882851983AA82AB838E828F83E0F930
:1057E400121136E9F508C3940A40030258B21205AF
:1057F40024E9700CA9081211A27950121370806E5A
:1058040074682508F582740E3400F5837401807879
:105814007401650B70751258C15070E8900DD380F7
:10582400677401650B70648E828F83E0F8C3940AF9
:105834005059E890104280507401650B704D8E826F
:105844008F83E0F874F928C3940A503FE890104419
:1058540080367401650B7033900E66E0F88E828F8B
:1058640083E0900E66F0E87048E064017043121122
:1058740090803E7401650B70128E828F83E0F8C3B2
:1058840094045007E8901045F08026750A1880218A
:10589400C3EA9427EB940050157402650B700F8EC5
:1058A400828F8312643C12040AE9F50A8003750AA4
:1058B40002A90A740612173F7F080218528E828FBB
:1058C40083E0F8C394022274F212178074DA121778
:1058D40029890AECFEEDFF7420121774AC82AD83A3
:1058E400758390758220740612163C742012177406
:1058F400AC82AD83121136E9F5087434121774E0E2
:10590400F50BE9C3940A4003025A26121178E9F50B
:105914000990103FE06402700474018001E4F50C06
:10592400780C121997AD0BAC09A908EEFAEFFB122B
:1059340011C6740112173F7C147D007900740C1297
:105944001774AA82AB83120FBC75F006E508A4F5A0
:105954000B740C121774AC82AD837A107424250B6B
:10596400F912136AE9703D7C1079FF740C121774F4
:10597400AA82AB83121022E9702A741C121774AC29
:1059840082AD837A047425250BF912136A740C1200
:105994001774AC82AD83E509A2E0E433F9EEFAEFC3
:1059A400FB1204A0851882851983AC82AD837A0C1E
:1059B40074702508F912136AE970538518828519E1
:1059C40083AA82AB8312116C750800E50875F00395
:1059D400A4F8A9F0851882851983E58228F8E5835F
:1059E400126249126436601D88828983A3A3E0F59C
:1059F4000C750D00780C121993EEFAEFFB120734B4
:105A0400740212173F0508E508C3940440BDE50974
:105A1400A2E15046900DBEE0F9EEFAEFFB12073A10
:105A240080387408650B703290103FE06402702A6D
:105A34007C007D00A90AEEFAEFFB1211C0126CCBB8
:105A4400601812605188828983E5824583600B7CEB
:105A5400007900EEFAEFFB12177E790074260264D7
:105A64001274F0121780EAFEEBFF8C088D09750A98
:105A74000AE9600C146009146037146079025B143D
:105A8400121184E9F50AC3940A4003025B14E50881
:105A94004509607C750E06750F00780E121993EE99
:105AA400FCEFFDAA08AB09120FA4740212173F8081
:105AB4005F750B00750E06750F00780E121993EEC4
:105AC400FCEFFDE50B75F00EA4F8A9F074E028FADC
:105AD400740D39FB120FB6740212173FE9600C857E
:105AE4000B0AE50AC3940A50278016050BE50BC37D
:105AF400940A501C80BE12118AE9F50AC3940A5014
:105B04000FE50845096009AA08AB09A90A12117E24
:105B1400A90A0258BC74F41217808908750915740F
:105B2400FF6A700374FF6B70277E00AC087A027BF7
:105B340000EEF912115AE960037509000EEEC394E0
