:020000040000FA
:0600000002011D0225B7FC
:03002B00021E7939
:0300530002262A58
:03006B00021DDC97
:03007B00021D6EF5
:10008300022423E5C754F84401F5C779012200008F
:100093000080FB120086B90003020107E47921788E
:1000A30008B800028004F709D8FCE479297802B87B
:1000B30000028004F709D8FCE49003C178C97909E8
:1000C3008002F0A3D8FCD9FA781A90014D7A01BACC
:1000D30000028007E493A3F608DAF9900C89AA8258
:1000E300AB8390014E78AB79058015E493A3AC8282
:1000F300AD838A828B83F0A3AA82AB838C828D83A8
:10010300D8E9D9E77582FE7583F5740312012F755B
:100113008291758300740012012F75D00075813FA1
:100123007518C1751903759F00020096C09FF59F4E
:10013300E473D09F22D083D082C09FE493C0E07445
:100143000193C0E0740293F59F22011F0000000F8A
:1001530000000040000000AFFFFFFFA30000000409
:10016300000000000100000300000080000000A662
:1001730000000034100000050000000C0000001611
:100183000000000800000000000000360000000D21
:100193000100000A000000EC000000910C0000E0E8
:1001A300E6FFFF71F3FFFF20190000BD02000056B8
:1001B300FFFFFF00020000260400003AFEFFFFA934
:1001C300050000480600008F0C0000470600009061
:1001D3000C0000B7F9FFFF020000003F00000068B9
:1001E300000000100000002900000000100000FFC4
:1001F300FF110199010F1264040102288301000019
:10020300E682022283010000340D02108301000004
:10021300350D021E83030000B604027E8201000036
:10022300360D020202020202020202010D00000068
:100233001001022883010000E082022283010000F2
:10024300600D023A83010000BC0402228301000016
:10025300610D0220830100005D8202228301000000
:10026300620D02F482010000418202228301000038
:10027300630D023083010000ED810222830100003F
:10028300640D023283010000DB810222830100003E
:10029300650D023483010000C9810222830100003D
:1002A300660D023683010000FF81022283010000F4
:1002B300670D0238830100004F8202228301000090
:1002C300680D023C83010000690D01E803053F103E
:1002D3000A1B001C001D001E101F00200021041B10
:1002E300801B001D021E301FE02000210429195A23
:1002F300081B821B00140F1806150416190F0F0094
:100303000000000000089001900100022028010174
:10031300400006010E094849442041647652656D48
:100323006F74650201050319C003050212180F1843
:100333004849442041647652656D6F74650000C07E
:100343000360EA000001B809BE09C409FFFF0112F6
:100353000A0000E60202192A040601120101120230
:10036300011203010E0002120E120A000302288377
:10037300010000EF82022483010000E506022283CC
:10038300010000920E020483400000D48202228303
:10039300010000960E020883800000E70602228314
:1003A300010000970E020C83C00000980E02228306
:1003B300010000930E020683400000008002F282D7
:1003C300010000940E022283010000990E020A83A9
:1003D300400000E806021E83810000E906027E82D7
:1003E3000100009A0E0222830100009C0E020A8380
:1003F300400000EF06021E83810000F006027E82A9
:100403000100009D0E0222830100009F0E020A8359
:10041300400000F606021E83810000F706027E827A
:10042300010000A00E022283010000A20E020A8333
:10043300C00000FD06027E82010000A30E0222839B
:10044300010000A50E023E83400000FE06021E834B
:10045300810000FF06022283010000A60E02028330
:10046300C000000507022283010000A70E020083DB
:100473004000000607021E83810000070702228353
:10048300010000A80E020A83C000000D07027E824D
:10049300010000A90EFF00013075030201060000F0
:1004A3000000000000000000000000000000000049
:1004B30000000000000000000000FFFF0600800CA9
:1004C300E8030410022883010000EC820222830166
:1004D30000000010021883800000BF07022283017E
:1004E30000000110021A83000000C307021E83816B
:1004F3000000C407FF0000B40000280028002830D3
:1005030075A000A000A000A00000080008E001F012
:1005130000100010001000100010001000500050D8
:1005230000500010001000D0070000000000000F72
:100533000001000500307507001000010081FF0075
:10054300000000FF000D1E0D060DFF02020208024F
:100553005000A0000000E803022883010000E382AA
:100563000222830100008910021C83010000FC07A2
:100573000222830100008A10021483010000120882
:100583000222830100008B10021283010000140871
:100593000222830100008C10020E8308000015085C
:1005A3000222830100008D1002FE820100008E10E2
:1005B300FF0100FF20022883010000E98202228359
:1005C300010000F21002FA820000000000021E8304
:1005D3000300006208CA12CA12CA12CA12CA12CA95
:1005E30012CA12CA12CA12CA12CA12CA12CA125E94
:1005F300157615581512013839CD0112013884CEFC
:1006030001120138D0CF01120138C6D001120138CE
:1006130022D2011201388AD201120138DBD301122E
:10062300013832D701120138F8E0021201389EE195
:10063300021201383FE2021201387AE20212013853
:100643005AE302120138F9E30212013891E6021269
:100653000138C8A203120138D2A20312013814A32D
:10066300031201385FA303120138B6A30312013842
:1006730010A40312013831A4031201383BA403125E
:1006830001388EA403120138BCA403120138C6A496
:1006930003120138DCA5031201380DA70312013838
:1006A3004EA70312013895A703120138A7A7031217
:1006B3000138C6A703120138CFA7031201388BA84C
:1006C30003120138A2ED0312013858E00312013876
:1006D3008EE003120138FCE00312013847E20312F3
:1006E30001385F7F00120138757F001201387F7F68
:1006F30000120138C97F001201380CB3031201380C
:1007030021B30312013809B40312013844B40312AC
:10071300013891B403120138F0B4031201385AB509
:100723000312013882B70312013896FF0112013810
:10073300C2F203120138EBF2031201381FF3031262
:100743000138B5A803120138E5A803120138F8A847
:100753000312013827A903120138B1A90312013882
:10076300A6AA0312013807AB0312013898AC03128F
:10077300013831AD03120138AFAD03120138AACDF0
:1007830003120138CFCD0312013856F60312013894
:10079300F02C00120138872F001201389530001217
:1007A3000138CD3200120138473400120138A73521
:1007B30000120138D03500120138233600120138F7
:1007C300EB3900120138E53B00120138B63E001246
:1007D3000138A13F001201380F41001201381F41B7
:1007E30000120138504200120138EB420012013866
:1007F300044300120138D14400120138FAEF031206
:10080300013819F00312013837F00312013897F059
:1008130003120138AEF0031201388EF303120138CC
:100823009FF30312013843F403120138ACF60312A9
:100833000138EBF6031201387DF50312013894F504
:1008430003120138DEF5031201389AF70312013857
:10085300F4F00312013806F10312013820F10312F8
:1008630001382CF10312013838F103120138E8F191
:1008730003120138F6FE021201387DFF021201381D
:10088300E3FF02120138AADB03120138F1DB031282
:1008930001383DDC03120138AFDC03120138E5DC1B
:1008A300031201385EDD03120138B8DD031201388B
:1008B300CCDD0312013863E90312013882E9031224
:1008C300013822EA03120138B1EA03120138C7EAF8
:1008D3000312013881E203120138C2E20312013824
:1008E30028E303120138E2E30312013857E4031249
:1008F30001385AE40312013884F70312013894F7DC
:100903000312013897F703120138DC9B03120138F5
:10091300FB9B031201382C9C03120138AC9C03127D
:100923000138059D03120138219D03120138469DAC
:1009330003120138C29D03120138BB9E0312013812
:10094300FE9E0312013824A20312013872A203127D
:100953000138F87F0012013840D90312013876DBE1
:10096300031201380080031201385C82031201383C
:10097300E38203120138D88403120138408603123C
:100983000138888703120138CC8703120138CF87D7
:10099300031201383A88031201384B8803120138D5
:1009A3005C8803120138858803120138908803128A
:1009B3000138A18803120138F98903120138578AD3
:1009C300031201385A8A03120138758A0312013857
:1009D3007A8A0312013860B902120138C7B90212C8
:1009E300013806BB0212013821BB0212013833BBA6
:1009F3000212013821BC021201388BBC02120138E9
:100A0300B6BC0212013810BF02120138DEC1021255
:100A130001381EC302120138F9C30212013860C43F
:100A230002120138CAC40212013816C50212013873
:100A330019C50212013850C60212013872D60312C8
:100A430001386ED803120138D6D803120138DDEA13
:100A53000312013834EB03120138C2EB03120138DD
:100A630009DE0312013833DE031201380ADF0312F1
:100A73000138E2DF03120138E9DC011201380BE12E
:100A83000112013880E40112013893E501120138A3
:100A930048E8011201385FE8011201389CEA0112AB
:100AA300013876EB0112013865AC0112013827B128
:100AB30001120138B2B20112013809B3011201382F
:100AC3002DB301120138ABB30112013869B601121B
:100AD300013877B701120138ADBB0112013819E6AD
:100AE3000312013849E60312013861E603120138A3
:100AF300B6E603120138BBE60312013887E7031297
:100B030001385FE40312013876E403120138A7E4E5
:100B130003120138E2E4031201380CE50312013831
:100B230036E5031201384DE50312013864E503127B
:100B330001387BE503120138A4E503120138B7E558
:100B430003120138CDE503120138E0E50312013841
:100B530007E6031201387F8A03120138838B0312DD
:100B63000138BB8B03120138DE8B03120138E98B8A
:100B7300031201380C8C031201381B8D0312013848
:100B8300F08D031201386B8E03120138F38E0312BA
:100B930001382E8F03120138658F03120138F38F4A
:100BA30003120138CC90031201382C91031201383F
:100BB300379103120138B69103120138B991031228
:100BC3000138BC91031201384B92031201384E9243
:100BD300031201387E9203120138A89203120138DE
:100BE300969303120138489403120138F1B70312A4
:100BF300013819B80312013847B8031201387EB817
:100C030003120138DCB80312013827B90312013883
:100C130072B903120138B2B903120138F8B90312D9
:100C2300013826BA03120138E3BA03120138EDBAC8
:100C330003120138FABA031201382DBB031201382B
:100C4300F9BB0312013805BC031201381DBC0312A2
:100C5300013827BC03120138EBF103120138F9F113
:100C63000312013811F20312013829F20312013879
:100C7300008002120138AC8002120138278102126F
:100C830001384882021201388482021201382D830E
:100C930002120138148402120138788502120138D5
:100CA300CF850212013850860212013840870212A2
:100CB30001388D87021201381388021201384588E2
:100CC30002120138598A021201389B8A0212013832
:100CD300B98A021201383C8B02120138108C0212BD
:100CE3000138D88C02120138B994031201388C955B
:100CF300031201383596031201388896031201381E
:100D0300389703120138C49703120138B0980312BD
:100D13000138DF9803120138F299031201383A9A25
:100D2300031201380F9B031201384B9B0312013846
:100D3300679B03120138F9F40312013811CA031235
:100D4300013827CA031201384DCA0312013869CB8F
:100D53000312013873CB03120138A8CC03120138F4
:100D6300A0CD03120138E5AD0312013815AF03120C
:100D7300013848AF0312013892AF0312013859B159
:100D8300031201384ABD01120138B4BD0112013802
:100D930013BF0112013823BF0112013850BF0112E2
:100DA3000138A7BF0112013850C00112013857C1E1
:100DB3000112013821C20112013881C30112013825
:100DC300C4C30112013869C401120138B6C4011247
:100DD3000138DCC401120138EAC601120138EFC63A
:100DE30001120138F4C80112013841C90112013856
:100DF300B4C901120138E7C90112013889CA0112C5
:100E0300013832CB011201386ACB011201386DCBA4
:100E130001120138B5CB01120138F5CB01120138AB
:100E23004CCC011201389FD303120138B7D30312FC
:100E33000138FFD30312013815D4031201385CD4EF
:100E43000312013870D503120138FDD5031201389E
:100E530048D6031201385246001201385E4600128A
:100E63000138994600120138DE46001201389E47C8
:100E7300001201382448001201385048001201388A
:100E8300894800120138C74A00120138AB4C0012DE
:100E93000138914E00120138D44F0012013822520A
:100EA300001201383453001201387F540012013804
:100EB3008F5500120138AC5500120138E755001266
:100EC30001380956001201386C56001201382D5BA7
:100ED30000120138C25B00120138135C00120138A2
:100EE3003A5C001201388C5C00120138AA5C0012D3
:100EF3000138045D00120138035E00120138875E79
:100F030000120138AEBC03120138B8BC0312013819
:100F1300FBBC0312013816BD03120138A6BD031230
:100F23000138CEBD031201380BBE0312013842BE95
:100F3300031201386BBE03120138E0BE03120138FD
:100F4300F5BE031201380ABF031201383BBF031277
:100F530001384FBF0312013874BF03120138AEBF0B
:100F630003120138DABF0312013866C003120138D5
:100F730091C003120138DAC00312013804C103120D
:100F830001382FC103120138E1EE0312013825D4D1
:100F93000212013853D402120138A1D502120138CA
:100FA30081D602120138A0D6021201381DD70212CF
:100FB300013860D702120138B6D80212013877D946
:100FC30002120138FEDB021201389FDC02120138E3
:100FD30095DD0212013892DE02120138ECDF0212B3
:100FE300013877E00212013847EC03120138B0EC04
:100FF3000312013804ED031201382BED03120138FB
:101003005CED0312013857C103120138C4C1031246
:1010130001380BC20312013823C3031201381FC462
:101023000312013802C503120138F67600120138A3
:101033003877001201380A7800120138E378001279
:101043000138DD7900120138BF7A00120138287B9C
:1010530000120138DE7B00120138527C0012013885
:10106300BE7C00120138E77C00120138617D00125A
:101073000138FA7D001201385F7E00120138747E58
:1010830000120138BA7E00120138D37E00120138F3
:10109300387F001201383B7F00120138A6D00312BB
:1010A3000138CED0031201380CD103120138CAD152
:1010B3000312013831D2031201384DD20312013821
:1010C30075D203120138A5D203120138B4D2031228
:1010D300013831D30312013857D30312013865ECB9
:1010E3000112013843EE0112013875F00112013883
:1010F300B1F001120138DEF001120138C8F101121A
:10110300013813F2011201385EF20112013870F254
:1011130001120138B0F201120138E5F2011201386F
:1011230033F30112013862F30112013885F301121E
:101133000138D2F30112013857F40112013871F664
:1011430001120138B0F801120138F1F80112013827
:1011530093FA01120138D4FA0112013847FB011244
:1011630001389DFB0112013810C7021201380EC865
:1011730002120138A7CE02120138C8D00212013878
:1011830093D202120138FBD302120138EE5E001231
:1011930001389D5F00120138CA5F001201381060E8
:1011A30000120138506100120138E6620012013862
:1011B3006063001201387B6300120138F66300128A
:1011C3000138506500120138B06600120138B66765
:1011D3000012013817690012013830690012013812
:1011E3008E69001201387C6A00120138AF6A00125E
:1011F30001381F6B00120138996B00120138E36B41
:1012030000120138AD6C00120138826D00120138F2
:10121300616E00120138EC6E001201385A6F001231
:101223000138CE6F00120138F96F00120138B8701F
:10123300001201381D72001201383A72001201388F
:101243005972001201384A73001201386F73001289
:1012530001389973001201381474001201386E7446
:1012630000120138D7750012013885760012013853
:10127300C676001201388CAB02120138DAAB0212C7
:101283000138E6AB02120138C4AC02120138F5ACE6
:101293000212013826AD02120138A6AD021201383E
:1012A300DEAD0212013830AE021201386DAE021209
:1012B30001388AB002120138B0B2021201389BB46D
:1012C3000212013885B602120138E52C00120138EA
:1012D3005298011201388298011201385B9F011262
:1012E3000138E0A001120138DDA601120138C5A7BB
:1012F3000112013802A80112013825A80112013890
:1013030056A8011201385FA80112013869A8011219
:10131300013857A9011201384DAA0112013843833C
:10132300011201384287011201384887011201383E
:10133300838E011201389C9301120138C8FB0112FC
:1013430001385EFC0112013874FC01120138EAFC19
:10135300011201385EFD011201389CFD01120138B2
:1013630010FE0112013889FE0112013892FE0112AA
:1013730001389EFE01120138B3FE01120138F1FE5D
:101383000112013807FF0112013866FF011201380B
:10139300C4C503120138D1C503120138EBC50312CA
:1013A30001382AC60312013868C603120138CDC6B4
:1013B30003120138E2C603120138EDC603120138E5
:1013C300FAC60312013811C7031201381FC70312EB
:1013D30001382AC70312013836C70312013845C73B
:1013E3000312013850C70312013873C703120138BF
:1013F3001AC8031201382AC80312013844C8031259
:10140300013861C8031201387DC803120138A2C82C
:1014130003120138ADC803120138C2C803120138E0
:10142300D6C80312013837C9031201383DC9031264
:10143300013843C90312013849C90312013861C98C
:101443000312013894C903120138629D0212013854
:10145300E69D02120138959E02120138F49F021292
:10146300013815A20212013801A30212013836A372
:101473000212013858A30212013807A402120138DC
:10148300FFA50212013828A602120138BAA60212D9
:101493000138ECA602120138F9A60212013850A74E
:1014A3000212013876A702120138E3A902120138A9
:1014B300E6AA021201383EAB02120138F18E021283
:1014C3000138FB8F02120138E29002120138EC90CE
:1014D300021201380E91021201381A9102120138D8
:1014E300B39202120138E29202120138FE93021201
:1014F3000138579402120138BD95021201389C96A7
:1015030002120138F8960212013865970212013867
:10151300A09702120138DF9702120138989A02123B
:101523000138B29A021201383E9B021201384C9BD9
:1015330002120138A59B02120138B39B0212013833
:10154300269C021201388A9C02120138D49C021292
:1015530001384EEC0212013870EC0212013896EE9B
:1015630002120138ABF102120138C3F20212013840
:1015730076F30212013858F402120138BEE703125F
:101583000138E3E70312013855E8031201387CF709
:101593000212013885F7021201388EF70212013860
:1015A30065F80212013816FA021201384CFA0212D7
:1015B300013886FA02120138BCFA02120138F6FA2F
:1015C300021201382AFB0212013856FB02120138BB
:1015D3009FFB02120138D9FB0212013822FC0212CE
:1015E30001387AFC02120138AFFC021201380AFDFD
:1015F3000212013844FD0212013895FD021201382E
:10160300CBFD0212013805FE0212013833FE02122D
:10161300013856FE021201384EF4031201387AF4EF
:1016230003120138D5F403120138DFF40312013831
:10163300EFF403120138F4F6031201383AF70312F8
:10164300013866F703E066701008A3E066700A08C5
:10165300A3E066700408A3E06622C3E09608A3E053
:101663009608A3E09608A3E096A2D265D03322C0E1
:1016730008C3E096F50808A3E096420808A3E0969D
:10168300420808A3E0964208A2D265D033E5087069
:1016930001D3D00822C3E7960809E7960809E7961D
:1016A3000809E79622C3E09608A3E09608A3E0960C
:1016B30008A3E09622C008C3E096F50808A3E096C5
:1016C300420808A3E096420808A3E0964508700183
:1016D300D3D00822080808EAC0E0EBC0E086F0E7B0
:1016E300A4FA180986F0E7A42AFA180986F0E7A4F1
:1016F3002AFA180986F0E7A42AFA1986F0E7A4FB68
:10170300E5F02AFA190886F0E7A42BFBE5F03AFA8C
:10171300190886F0E7A42BFBE5F03AFA18180986B6
:10172300F0E7A4C5F02BFBE43AFA1908E7C5F0C6C5
:10173300A426F6E5F03BFBE43AFA1886F0E7A4F6B4
:10174300E5F00826F6E43B08F6E43A08F6D0E0FBB9
:10175300D0E0FA22E4CFC0E0E4CEC0E0E4CDC0E0C4
:10176300E4CCC0E075F020C3E633F608E633F608B0
:10177300E633F608E633F6181818EC33FCED33FDC0
:10178300EE33FEEF33FFC3EC9709ED9709EE9709AC
:10179300EF97191919400FFFEC97FC09ED97FD0915
:1017A300EE97FE191906D5F0BEECF709EDF709EE31
:1017B300F709EFF7191919D0E0FCD0E0FDD0E0FEEE
:1017C300D0E0FF2212182F18181812175712181EDC
:1017D3001919192212181E191919080808E61818D8
:1017E3001820E7E012175712182F181818220909A2
:1017F30009E719191920E7DC080808E61818182062
:10180300E70302175712182F181818121757121830
:101813002F18181812181E19191922E4C397F7095B
:10182300E497F709E497F709E497F722E4C396F6F8
:1018330008E496F608E496F608E496F6226017089C
:101843000808C6A2E713C618C613C618C613C618D7
:10185300C613C6D5E0E9226016080808C6C313C636
:1018630018C613C618C613C618C613C6D5E0EA228F
:101873007009080808226016181818C6C333C6086A
:10188300C633C608C633C608C633C6D5E0EA22E661
:1018930027F60809E637F60809E637F60809E637B2
:1018A300F622E026F608A3E036F608A3E036F608AB
:1018B300A3E036F622E026F008A3E036F008A3E022
:1018C30036F008A3E036F022C3E697F60809E69758
:1018D300F60809E697F60809E697F622C3E0C696E6
:1018E300F608A3E0C696F608A3E0C696F608A3E0BA
:1018F300C696F622C3E096F008A3E096F008A3E0AC
:1019030096F008A3E096F022E657F60809E657F6A4
:101913000809E657F60809E657F622E056F608A343
:10192300E056F608A3E056F608A3E056F622E05682
:10193300F008A3E056F008A3E056F008A3E056F041
:1019430022E0F608A3E0F608A3E0F608A3E0F622F7
:10195300E6F008A3E6F008A3E6F008A3E6F022E029
:10196300FAA3E0FBA3E0FCA3E0FD22EAF0A3EBF083
:10197300A3ECF0A3EDF022CAC0E0E6F0A308DAFA84
:10198300D0E0FA22CAC0E0E0A3C582CCC582C583F9
:10199300CDC583F0A3C582CCC582C583CDC583DA0B
:1019A300E6D0E0CA22C3E498F8E499F91219E98071
:1019B30026C3E49AFAE49BFBE920E7E91219E9E478
:1019C30098F8E499F922C3E498F8E499F91219E92B
:1019D300E498F8E499F9C3E49AFAE49BFB22EB2038
:1019E300E7CFE920E7E0B90010BB0008E88AF084FC
:1019F300F8AAF022E4FBC8FA22EB70227B10C8336A
:101A0300C8C933C9335007C39AC3DBF280069A505F
:101A1300012ADBEAC833F4C8C933F4C9FA2275F0E2
:101A230008E4C833C8C933C933C99AC99B5004C928
:101A33002AC93BD5F0ECFBC833F4C8E4C9FA2260E9
:101A43000D08C6A2E713C618C613C6D5E0F3226075
:101A53000C08C6C313C618C613C6D5E0F422700417
:101A630022600D18C6C333C608C633C6D5E0F418C2
:101A730022251810AF08F518400215198008F5182B
:101A830040021519D2AF22C0D0251810AF08F5189F
:101A9300500205198008F51850020519D2AFD0D0AD
:101AA300222518F58210AF08F51840021519800891
:101AB300F51840021519D2AF851983222518F5822E
:101AC300E43519F58322E4732518C582C0E0E519CE
:101AD30034FFC583C0E0E518C3958224F810AF082E
:101AE3008583198582188008858319858218D2AF6A
:101AF300CEF0A3E520F0A37808E608F0A3DEFAEF22
:101B0300F0A3E58124FAF8E608F0A3E608F0A3E6DB
:101B130008F0A30808E608F0A3E608F0A31581156A
:101B230081D0E0FED0E0F8158115811581E8C0E091
:101B3300EEC0E0222518C582C0E0E51934FFC58355
:101B4300C0E0E518C3958224F910AF088583198591
:101B530082188008858319858218D2AFCEF0A3E559
:101B630020F0A37808E608F0A3DEFAEFF0A3E581FE
:101B730024FBF8E608F0A3E608F0A30808E608F05B
:101B8300A3E608F0A315811581D0E0FED0E0F81597
:101B9300811581E8C0E0EEC0E022851983851882B3
:101BA300E0A3FEE0A3F5207808E0A3F608DFFAE05F
:101BB300A3FFE0A3C0E0E0A3C0E0E0A3C0E0E0A394
:101BC300C0E0E0A3C0E010AF0885821885831980C8
:101BD30008858218858319D2AFD083D0820201355C
:101BE300851983851882E0A3FEE0A3F5207808E039
:101BF300A3F608DFFAE0A3FFE0A3C0E0E0A3C0E0A0
:101C0300E0A3C0E0E0A3C0E010AF0885821885839D
:101C1300198008858218858319D2AFD083D0822298
:101C230074048006740280027401C0E0F404121A82
:101C3300A4D0E012197A227404800474028000CCC8
:101C4300C0E0EDC0E0E518C39CCCAD1950011D10F8
:101C5300AF068C188D1980068C188D19D2AF121906
:101C630087D0E0FDD0E0FC22D083D082E9C0E0E45D
:101C730093A3C386F0C5F095F0F908E493A386F027
:101C8300C5F095F0700BE493A3C3994005E9048074
:101C930002A3E475F002A42582F582E5F03583F50D
:101CA30083D0E0F9E493A3C0E0E493C0E022D083BF
:101CB300D082ECC0E0EDC0E0E493A3FCE493A3FD89
:101CC300ED4C600D121CFDEC24FFFCED34FFFD8098
:101CD300EFE493A3FCE493A3FDED4C600D121D3CD4
:101CE300EC24FFFCED34FFFD80EFD0E0FDD0E0FC01
:101CF300E493A3C0E0E493C0E022C0E0C3E493967E
:101D0300087401939618400FE493667008087401F1
:101D130093661870007019A3A3C3E4939608740123
:101D2300939618A3A3400DD0E0D0E0D0E0021CEDC1
:101D3300A3A3A3A3A3A3D0E022C0E0C0F088F0E450
:101D4300936670080874019366187000A8F0A3A343
:101D5300700BD0F0D0E0D0E0D0E0021CEDA3A3D014
:041D6300F0D0E022BA
:101D6800C2AF02000022C0E0C0D0E8C0E0E9C0E095
:101D7800EAC0E0EBC0E0ECC0E0EDC0E0EEC0E0C0DF
:101D880082C083C0F0A2AFE433FED2AFE58AA2E2FC
:101D98005018E58DA2E25012538DFB539AEF7A004A
:101DA8007B019005ABE0F912069A758A00C2EBEE4A
:101DB800A2E092AFD0F0D083D082D0E0FED0E0FD98
:101DC800D0E0FCD0E0FBD0E0FAD0E0F9D0E0F8D0E9
:101DD800D0D0E032C0E0C0D0E8C0E0E9C0E0EAC05E
:101DE800E0EBC0E0ECC0E0EDC0E0EEC0E0C008C051
:101DF80009C00AC00BC082C083C0F0A2AFE433FEA2
:101E0800D2AFE5895407603753ABF87589F8900568
:101E1800B5E070287401F01206C475081975090038
:101E2800750A00750B007808121C237A017B009054
:101E380005ABE0F91207067404121A8A43AB07755A
:101E480089F8C2C5EEA2E092AFD0F0D083D082D09C
:101E58000BD00AD009D008D0E0FED0E0FDD0E0FCDD
:101E6800D0E0FBD0E0FAD0E0F9D0E0F8D0D0D0E074
:101E780032C0E0C0D0E8C0E0E9C0E0E5A8D2AFC217
:101E8800C7751A00A2E7A2E792AFD0E0F9D0E0F850
:101E9800D0D0D0E03274F5121B37EAFEEBFFEE2407
:101EA80034F8EF3400F988088909EE2435F582EF13
:101EB8003400F583E0F8EE2437F582EF3400F5833B
:101EC800E0F50AEC850AF0A4FCAAF0850AF0EDA476
:101ED8002AFDE82CF8E43DF97A257B001219E9EA95
:101EE800850882850983F0F8740758F97401B900E8
:101EF800028004C333D9FCFAE8131313541FF8EE15
:101F080028F8EF3400F9E8245DF582E93400F58318
:101F1800E05A6008EE2434F582EF802CEE2434F584
:101F280082EF3400F583E0C0E0EE2436F582EF342A
:101F380000F583E0F5F0D0E084A8F0EE28F8EF345F
:101F480000F9E82438F582E93400F583E0F97F04E4
:101F5800021BE374F5121B37EAFEEBFFEE2434F59F
:101F680082EF3400F583E0C0E0EE2435F582EF34EB
:101F780000F583D0E0F08E828F83A3A3A3A3A3A34D
:101F8800A3C082C0838E828F83A3A3A3A3A3E0F8F8
:101F9800A3E0F9D083D082E0C398F508A3E099F5CF
:101FA80009EE247FF582EF3400F583E0640170695F
:101FB800EE2480F582EF3400F583E0F8A3E0F98E93
:101FC800828F83A3A3A3A3A3A3A3E0FCA3E0FD8E16
:101FD800828F83A3A3A3A3A3E0FAA3E0FBC3EA9C95
:101FE800EB9D5010C3EC98ED99402EC3EA98EB99FD
:101FF8005027800EC3EA98EB994007C3EC98ED99F7
:1020080040177C257D0AEEFAEFFB121228EE247F9A
:10201800F582EF3400F583E4F0EE2434F8EF340071
:10202800F9E8FCE9FDEE2435F582EF3400F583E0AC
:10203800F8EE2437F582EF3400F583E0F50AE50879
:10204800850AF0A4F508AAF0850AF0E509A42AF59E
:1020580009E82508F8E43509F97A257B001219E919
:10206800EA8C828D83F0F8740758F97401B900027C
:102078008004C333D9FCFAE8131313541FF8EE286D
:10208800F8EF3400F9E8245DF582E93400F583E0DF
:102098005A6008EE2434F582EF802CEE2434F58261
:1020A800EF3400F583E0C0E0EE2436F582EF34002B
:1020B800F583E0F5F0D0E084A8F0EE28F8EF3400DE
:1020C800F9E82438F582E93400F583E0F9122CD7D1
:1020D800021F56C082C083851882851983E0F8A341
:1020E800E0F9C3EA9CEB9D5010C3EC98ED99401BB6
:1020F800C3EA98EB995014800EC3EA98EB9940070D
:10210800C3EC98ED994004790180027900D083D01E
:102118008222EAC39CFAEB9DFB2274EF121B3790D4
:1021280008EBE064086005E06407702A9061C8E085
:102138006024900919E0F4601DE0F875F003A4C864
:10214800AAF02AF9741B28FE740939FF8E828F833E
:10215800A3A3A3E07003022252906060E0C0E0EE07
:102168002468F582EF3400F583D0E0F0750C8E75A5
:102178000D0A750800750900E5D914F50AE5D95462
:1021880003F50E60177403650E605CE50A6010EED7
:102198002467F582EF3400F583E07003022237905C
:1021A8000A89E06401602AEE2482F582EF3400F5A2
:1021B80083E06004780480027800850A08E508C393
:1021C80098FA95E0FB1210F08A088B09EA45097025
:1021D8000512142C8074EE2482F582EF3400F58306
:1021E800E070048A0C8B0DE50A6012850C82850D5F
:1021F80083F50BE5D9F0A3150BE50B70F6EE2482F9
:10220800F582EF3400F583E0604474FC250AF50A92
:10221800780C121C27AC0AA90EEEFAEFFB1212C4B6
:102228007402121A8AE97026AA08AB09120A5479AC
:102238003D8E828F83A3A3A3A3E0FA7B00120FC471
:10224800EEFAEFFB1212401212D679008074740372
:10225800650E6056850A107511007810121C27AC9F
:102268000CAD0DAA08AB091212A07402121A8AEE5C
:102278002468F582EF3400F583E064807004747F8D
:102288008001E0F50C780C121C2BE50EF50C780C8F
:10229800121C2BA90AAC08AD09900919E0FA7B00B9
:1022A800120F887402121A8A80139008EBE06408EF
:1022B800600BAC0CAD0DEEFAEFFB121330121438B4
:1022C80079017F0A021BE374F5121B3774FC121A9A
:1022D80074EAFEEBFF8908A2AFE433F509C2AF80C8
:1022E8006AEE2463F8EF3400F97A007B00A2AFE4C9
:1022F80033F50AC2AF88828983E0FCA3E0FDEC4D88
:10230800603A88828983E0FAA3E0FB8A828B83E0C3
:10231800FCA3E0FD88828983ECF0A3EDF08A828B30
:1023280083E4F0A3F088828983E0FCA3E0FDEC4D10
:10233800700A88828983A3A3E4F0A3F0E50AA2E0E7
:1023480092AF120A54900A2CE004F0EE2463F5824E
:10235800EF3400F583E0F8A3E0F9E849603DEE24A6
:1023680063F582EF3400F583E02402FAA3E0340039
:10237800FBEA2402F50AEB3400F50B780A121C2755
:102388008A828B83E0FCA3E0F9EEFAEFFB12126479
:102398007402121A8AE970030222E9900A2CE0609A
:1023A80063900A2DE0F8900A2CE0C398500C740250
:1023B80065087050900A2EE0604A8E828F83A3A32E
:1023C800A3A3E0851882851983F0A3E4F0900A2C72
:1023D800E0F87402121ABFE8F0A3E4F0900A2CE0C7
:1023E800F8900A2BE028F07402121ABFAC82AD8371
:1023F800851882851983AA82AB837901120F94907C
:102408000A2CE4F0E509A2E092AF7404121A8A02D9
:102418001F5600008521878522C622C0E0C0D0E86B
:10242800C0E0E9C0E0EAC0E0EBC0E0ECC0E0EDC02D
:10243800E0EEC0E0C008C009C00AC00BC082C0837B
:10244800C0F0A2AFE433FEC2AF759B00906182E09A
:10245800A2E05012E591A2E0500C7591FE7401655E
:10246800217003122122E0A2E55051E591A2E55026
:102478004B7591DF9008EBE064076005E064087035
:10248800237401652170357901900919E0FA75F016
:1024980003A4CAA8F028FB741B2AFA74093BFB1290
:1024A80022CF8018E0640D701390090DE004F064E9
:1024B800287002E4F07A00E0F912143E906182E09C
:1024C800A2E6400302256AE591A2E6400302256AD6
:1024D8007591BF9008EBE06405700812136612133B
:1024E80072800312136C7521001213CCE99008EC6A
:1024F800F079001213C012119E7A017B009008EA4D
:10250800E0F912069A907803E064427055900A8DBB
:10251800E014F0704DC2AF12252200782AD0E0F600
:1025280018D0E0F6E59F540770057509FF8003751C
:10253800097FC4C0E07829E6F50808E65509F509D9
:10254800740B7808121A52D0E02508F8906270E0EF
:10255800A2E740F8E8C333906272F0906270E0D26C
:10256800E0F0906181E0A2E35009E5E9A2E35003BD
:1025780075E9F7A3E0A2E75009E591A2E7500375D2
:10258800917FEEA2E092AFD0F0D083D082D00BD072
:102598000AD009D008D0E0FED0E0FDD0E0FCD0E0C1
:1025A800FBD0E0FAD0E0F9D0E0F8D0D0D0E032C0EB
:1025B800E0C0D0C082C083906183E0A2E05009E50A
:1025C800BFA2E0500375BFFEE0A2E15009E5BFA23B
:1025D800E1500375BFFDE0A2E25009E5BFA2E25059
:1025E8000375BFFBE0A2E35009E5BFA2E350037502
:1025F800BFF7E0A2E45009E5BFA2E4500375BFEFBE
:10260800E0A2E55009E5BFA2E5500375BFDFE0A2EF
:10261800E65009E5BFA2E6500375BFBFD083D0825C
:102628008088C0E0C0D0E8C0E0E9C0E0EAC0E0EBE4
:10263800C0E0ECC0E0EDC0E0C0F0E5A7A2E6500FB6
:10264800E5A1A2E6500953A7BF75A1BF12268FE5E1
:10265800A7A2E5500CE5A1A2E5500653A7DF75A196
:10266800DFE5A7A2E15009E5A1A2E1500375A1FDAC
:10267800E5A7A2E2500CE5A1A2E2500653A7FB751C
:10268800A1FBD0F00225A074F8121B377521019028
:1026980008EBE0640670151212F48A828B83A3A3F8
:1026A800A3A3A3A3E0FAA3E0FB121354A2AFE4335D
:1026B800FED2AF9008F1E0640170187A207B009098
:1026C80008EAE0F91207127A207B009008EAE0F99C
:1026D8001206A0906182E0D2E6F0900A8AE06021BA
:1026E80085C62280169008F0E064017008E5C6549B
:1026F800F84405F5C653BEFC12241C74016521601C
:10270800E4EEA2E092AF7F01021BE3008E238F2448
:10271800858228858327851882851983E0CEA3E0E2
:10272800CF852882852783EBC9EAC8EDCBECCA752B
:10273800F010C3E833C8E933C9EA33CAEB33CBC373
:10274800EA9EF526EB9FF525B35004AB25AA26ECA7
:1027580033CCED33CDD5F0DAAE23AF242274E912B1
:102768001B3774F8121A74851882851983ECF0A344
:10277800EDF08A088B099008EBE024F7C394055024
:10278800067508010228FC1212F48A0A8B0BAE0A9D
:10279800AF0BEE4F70030228F9AC08AD09740212B2
:1027A8001ABFAA82AB831213848E828F83A3A37568
:1027B8000CFF750DFF750EFF750F00780C12191EB2
:1027C8007402121ABF7510FF7511FF7512FF751389
:1027D80000781012191E780C7910121698502A7861
:1027E8000C79101218CB7508017509C8750A00759F
:1027F8000B007808790C1216985052850C08850D34
:1028080009850E0A850F0B80507514017515C8755A
:10281800160075170085100885110985120A851399
:102828000B7808790C1218CB78147908121698408E
:102838001C750800750900750A00750B0178087980
:10284800101218CB7808790C121892800C750801B0
:10285800750900750A00750B007409780812187359
:10286800750C19F50DF50EF50F7808790C12175738
:102878008E828F83A3A3A3A3A3A3E0F8A3E0F97A8E
:10288800D07B031219E9880C890DE4F50EF50F7851
:1028980008790C1218927406121ABFE0F8A3E0F92E
:1028A8007AD07B031219E9E8FA8A0CE4F50D780866
:1028B800790C12169850077808790C1218CB9008E2
:1028C800EBE06408600AE064066005E06405702DCA
:1028D800750C0D780C79081216984021750CF47552
:1028E8000DFF750EFF750FFF7808790C121892808E
:1028F8000C750800750900750A00750B00851882AB
:10290800851983E0F8A3E0F58388827808121953C3
:102918007408121A8A7F10021BE374F7121B37120D
:102928001396900A88E064017010906245E4F0A361
:10293800F053F4F343FE0C5390F3121342E5C654DC
:10294800804449F5C6E59E547F644970F8906185D6
:10295800740FF0900A86E0F47002A3E0604E900ACB
:1029680087E0600814601B14602E804075080175AC
:102978000900900A86E07808121A61E508F4528086
:10298800802A750801750900900A86E07808121AED
:1029980061E508F452908014750801750900900AE1
:1029A80086E07808121A61E508F452A079007F02DF
:1029B800021BE374F7121B37E9FEEAFF74016E701D
:1029C8000C7A807B009008EAE0F912069A902CE8CD
:1029D800E493F46008E493F9121192800953C680D5
:1029E800E59E547F70FA121348900A88E0640170DB
:1029F800031211AA900A86E0F47002A3E0604B90DB
:102A08000A87E0600814601A14602C803D7508017C
:102A1800750900900A86E07808121A61E508428074
:102A28008028750801750900900A86E07808121A4E
:102A380061E50842908013750801750900900A86BF
:102A4800E07808121A61E50842A01213961212F4EF
:102A58008A088B09A808A909E8496015E5E170FC0E
:102A6800E82414F582E93400F583E0F46003E0F526
:102A7800E174016F700A7A019008EAE0F91206EE33
:102A88000229B674ED121B378A088B098C0A8D0B44
:102A98007413121ABF780C1219447808790C12169C
:102AA800987510017511C8751200751300501278C9
:102AB80008790C1218CB78107908121698501680DD
:102AC80010780C79081218CB7810790C12169840E7
:102AD800047901800279007F0C021BE374ED121B5C
:102AE800378A088B098C0A8D0B7413121ABF780C5D
:102AF800121944780C790812169840117808790C44
:102B08001218CBAA08AB09AC0AAD0B8022751000CD
:102B18007511007512007513017810790C1218CB15
:102B280078107908121892AA10AB11AC12AD138064
:102B3800A68A828B837508FF7509FF750AFF750BD6
:102B48000078081219317F04021BE374F5121B3751
:102B58008C828D8378081219448A828B83780812B4
:102B680018F7EA2404F8EB3400F98C828D83A3A3C8
:102B7800A3A3E0FCA3E0FD88828983C3E09CF0A3C3
:102B8800E09DF088828983C3E09420A3E0944E40BE
:102B9800268A828B837508FF7509FF750AFF750BF6
:102BA800FF78081218B88A828B83A3A3A3A3E02412
:102BB80020F0A3E0344EF0022B3974F5121B37E9EC
:102BC800FE900A40E0FAA3E0FBEEC333F8E433F9E1
:102BD800743128F582748239F583E02AF508A3E078
:102BE8003BF5097808121C277A407B427C0F7D0050
:102BF8001227147402121A8A8A088B098C0A8D0B00
:102C08007410780812185AAA08AB097F04021BE34B
:102C180074F1121B378A0C8B0D8C0E8D0F740F12EA
:102C28001ABFE0FAA3E0FB7411121ABFE0F508A37B
:102C3800E0F5097808121C27EA2401F508EB3400AE
:102C4800F509E4F50AF50B780C79081216D775081A
:102C580071750902780C79081216D7AA0CAB0DAC5D
:102C68000EAD0F1227147402121A8A8B09EA45094D
:102C780060047A0180027A00EC2AFCED3400FD74CD
:102C880013121ABFE0F8A3E0F9E8FEE9FFECF8ED4B
:102C9800F97A717B021219E9880889098E828F8373
:102CA8007808121953ECF8EDF97A717B021219E9D8
:102CB8008A088B0974057808121A618E828F83A39B
:102CC800A3A3A3E508F0A3E509F07F08021BE3C06E
:102CD80082C083E9906000F0D083D082220201355F
:102CE800FFFFFFFFFFFFFFFF74EC121ACB74FA120D
:102CF8001A74890BECFEEDFF750A008A088B0978B7
:102D080008121C6B000410582F332D512D6D2D8B7C
:102D18002DA92DC72DEA2D082E1C2E512EE92E0087
:102D28002F172F322F582F582F772E7401650B60CD
:102D380003022F538E828F83E0F8C394034003026B
:102D48002F53E8900E08022F2F7402650B600302C0
:102D58002F538E828F83E0F8A3E0F9900E09E8F0F4
:102D6800A3E9022F2F7401650B6003022F538E8293
:102D78008F83E0F8C394024003022F53E89004C500
:102D8800022F2F7401650B6003022F538E828F83ED
:102D9800E0F8C394054003022F53E89004C6022FBD
:102DA8002F7401650B6003022F538E828F83E0F826
:102DB800C394024003022F53E89004C7022F2F74D4
:102DC80010650B6003022F53750810750900780809
:102DD800121C277AC87B041206587402121A8A0237
:102DE8002F7B7401650B6003022F538E828F83E063
:102DF800F8C394024003022F53E89004D8022F2FFF
:102E08007401650B6003022F538E828F83E0900E4E
:102E18000C022F2F7404650B6003022F538E828FD0
:102E280083780C12194475104075114275120F758C
:102E380013007810790C1216984003022F5390044F
:102E4800DA780C121953022F7BE96003022F531210
:102E58000D4EE970157E00EEF91207D2E9F80EEE74
:102E6800C3940A5065E860EF806090056D806E74C9
:102E780007650B6003022F5375080675090078086B
:102E8800121C278E828F83A3AC82AD837402121A20
:102E9800BFAA82AB8312065E7402121A8A7C007D76
:102EA80000851882851983AA82AB838E828F83E07E
:102EB800F91207A2E9F508C3940A4003022F781211
:102EC8000D4EE9700CA9081207D27950120AA28097
:102ED80075746E2508F58274053400F583740180D5
:102EE800467401650B70648E828F83E0F8C3940288
:102EF8005059E89004D9802F7401650B704D8E826B
:102F08008F83E0F8C3940A5042E8900E0B8018743F
:102F180001650B70368E828F83E0F874F928C394AC
:102F28000A5028E8900E0DF080497401650B701B5B
:102F380090056CE0F88E828F83E090056CF0E87065
:102F480032E06401702D1207CC8028750A1880239E
:102F5800C3EA9427EB940050177402650B70118E26
:102F6800828F83E0FCA3E0FD120BECE9F50A8003F5
:102F7800750A02A90A7406121A8A7F0C021B9D742C
:102F8800F4121ACBECFEEDFF7508008A0A8B0B7859
:102F98000A121C6B00040E6F30BF2FC42FD72FDC12
:102FA8002FE12FE62F043009300E306F301D30220C
:102FB8003027302C303630900E08806B900E09E0A8
:102FC800F8A3E0F98E828F83E8F0A3E902308390BA
:102FD80004C580539004C6804E9004C78049750A82
:102FE80010750B00780A121C277CC87D04EEFAEFD6
:102FF800FB1206587402121A8A0230899004D8808B
:1030080026900E0C80219004DA1219628E828F832A
:1030180012196E806C9004D9800D900E0B80089068
:103028000E0D800390056CE08E828F83804D7509AC
:1030380000750AE0750B047C0679FFAA0AAB0B122F
:1030480006BEE970020509E50A240EF50AE50B3407
:1030580000F50BE50A646C7004E50B640570D88E06
:10306800828F83E5098014C3EA9427EB9400500EFD
:10307800120BF28E828F83EAF0A3EBF080037508BF
:1030880002A9088003121A8A7F04021B9D74F01299
:103098001ACB74A5121A748C0A8D0B7414121ABFE9
:1030A800AC82AD837583827582AE740612198774FB
:1030B80014121ABFAC82AD831207A2E9FF746B1217
:1030C8001ABFE0F50CEFC3940A400302329475F07E
:1030D80006EFA4F508744D121ABFAC82AD837A0EC0
:1030E80074202508F9120A9CE970097459121ABF4C
:1030F800E0FE80027E00900E08E064027005750E06
:10310800018003750E007408650C70047422800237
:1031180074212508F5097C1B7D007900741A121AA0
:10312800BFAA82AB83120670741A121ABFAC82ADA2
:10313800837A1BA909120A9CE970317434121ABFE8
:10314800E024F9C3940A5024E50EF5097809121C05
:103158002B741B121ABFAC82AD83EEA2E0E433F9E4
:10316800AA0AAB0B120C8E7401121A8A7C147D0009
:103178007900851882851983AA82AB831206708527
:103188001882851983AC82AD837A1074242508F9D6
:10319800120A9CE9703E7C1079FF85188285198394
:1031A800AA82AB831206BEE9702A7410121ABFAC49
:1031B80082AD837A0474252508F9120A9C85188241
:1031C800851983AC82AD83EEA2E0E433F9AA0AAB99
:1031D8000B120C767435121ABFAC82AD837A187450
:1031E800702FF9120A9CE960030232837435121AAF
:1031F800BFA882A98388828983E0F4FAA3E0F4FB5C
:1032080088828983EAF0A3EBF0E82402F582E934A6
:1032180000F583E0F4F0E82403F8E93400F9744D8C
:10322800121ABFE582687003E5836970C87F00746D
:1032380035121ABF85820885830985088285098326
:10324800E0FCA3E0FDEC4D601F850882850983A39F
:10325800A3E0F50E750F00780E121C27AA0AAB0B17
:10326800120ED47402121A8A0FE5082403F508E531
:10327800093400F509EFC3940840BFEEA2E1500CF1
:103288009004C4E0F9AA0AAB0B120EDA7404650CB8
:103298007027900E08E06402701F7A009004D8E04E
:1032A80060010A9004C5E06004780480027800E8B0
:1032B8004AF9AA0AAB0B120D367900745B121A8A06
:1032C8007F08021B9D74EE121ACB74E2121A748ADC
:1032D8000A8B0BECFEEDFF75080AE9600F14600C11
:1032E8001460701470030233A1023429750E00753E
:1032F8000CE0750D047510067511007810121C2766
:10330800AC0AAD0BAA0CAB0D12066A7402121A8A2B
:10331800E96026850E08E508C3940A4003023429AB
:10332800EE4F7003023429750C06750D00780C12E7
:103338001C27AC0AAD0B02341D050EE50C240EF556
:103348000CE50D3400F50DE50EC3940A4003023474
:103358002980A2750E00750CE6750D0475100675AA
:1033680011007810121C27AC0AAD0BAA0CAB0D1279
:10337800066A7402121A8AE96005850E08805C05DF
:103388000EE50C240EF50CE50D3400F50DE50EC325
:10339800940A400302342980C3750C00750D237408
:1033A8000E121ABFAC82AD837A10A90D120A9CE9DD
:1033B800707B7C1079FF740E121ABFAA82AB83123D
:1033C80006BEE97068AC0AAD0B740E121ABFAA8269
:1033D800AB83120C58E97055850C08E508C3940AAC
:1033E800503FEE4F603B851882851983AC82AD83D0
:1033F8007A0E75F006E508A42420F9120A9CE970F3
:1034080020750A06750B00780A121C277402121A16
:10341800BFAC82AD83EEFAEFFB1206587402121AA3
:103428008AA908741E121A8A7F0A021B9D050C7449
:1034380006250DF50DE50CC3940A50E50233A77473
:10344800F4121ACB74F2121A74890875091574FFEC
:103458006A700374FF6B60030234E57E208518826E
:10346800851983AC82AD837A0EEEF9120A9CE97055
:10347800527C0679FF851882851983AA82AB83124C
:1034880006BEE9703E740C121ABFE0F8A3E0F9E832
:10349800FAE5086005EAD2E18003EAC2E1FAE86ADF
:1034A8007001E9601B740C121ABFEAF0A3E4F085FE
:1034B8001882851983AC82AD837A0EEEF9120A96CA
:1034C80075090074062EFE745C6E7091E508700331
:1034D8000235A07AEA7B071210D20235A01210B486
:1034E8008A0A8B0BAE0AAF0BEE4F700302359D7C38
:1034F800007D00EE2405FAEF3400FB8E828F83A353
:10350800A3A3A3E0F91207A2E9F8C3940A506E75C1
:10351800F006E8A42420F509851882851983AC8271
:10352800AD837A0EF9120A9CE9704F7C0679FF8503
:103538001882851983AA82AB831206BEE9703B7490
:103548000C121ABFE0F8A3E0F9E8FAE5086005EA0A
:10355800D2E18003EAC2E1FAE86A7001E9601B740B
:103568000C121ABFEAF0A3E4F0851882851983AC1F
:1035780082AD837A0EA909120A96750900E50860DA
:10358800179004C4E0F98E828F83A3E0FAA3E0FBCE
:10359800120EDA8003750914A909740E02308DC061
:1035A80082C0839004DEEAF0A3EBF09004C4E0FC50
:1035B8007D007A267B00120BEC9004C4E0F9120E11
:1035C80056D083D08202013574EC121ACB8A088B4C
:1035D80009E9FE7414121ABF780C1219447F00EE20
:1035E80070317808121C2775104075114275120F3A
:1035F8008F13780C7910121757AA10AB11AC12ADB3
:1036080013120C887402121A8AE9FF60097901AA58
:1036180008AB09120C82EFF9022F8274F2121ACB4E
:1036280074EC121A74EAFEEBFF8E828F83A3A3E078
:1036380024FA700302398024FD7003023854147090
:10364800030236F714601024FD7003023812147058
:103658000302388E0239E49004DEE0F8A3E0F9E8CA
:1036680049605CE0F5838882E0F8A3E0F98808897E
:1036780009E845096049EE240CF582EF3400F5832A
:10368800E0F50A780A121C2BEE240BF582EF3400C1
:10369800F583E0F98E828F83A3A3A3A3A3A3A3A397
:1036A800A3E0FCA3E0FDEE2403FAEF3400FB850859
:1036B80082850983121AC97401121A8A0239E4EE42
:1036C8002409F8EF3400F9E8FEE9FF8E828F8312AF
:1036D8001C3E9004DA121962120C887402121A8ABB
:1036E800E970030239E479018E828F830239188EDA
:1036F800828F83A385820A85830BE060030237E10A
:10370800EE2405F508EF3400F509850882F583E015
:10371800A2E040030237E1900578E0F8A3E0F9E879
:103728004960030237E17C0E7D00790085188285A7
:103738001983AA82AB83120670EE240CF582EF344B
:1037480000F583E0FAA3E0FBEA4B6010750C067500
:103758000D00780C121C27EA241080248E828F8397
:10376800A3A3A3E0FAA3E0FB1210B4EA4B70030290
:1037780039E4750C06750D00780C121C27EA24052F
:10378800FCEB3400FD7402121ABFAA82AB83120646
:10379800587402121A8A850882850983E0A2E250C9
:1037A80004D2F08002C2F0A2F0E433F8740C121ACA
:1037B800BFE048F0EEFCEFFD851882851983AA82E8
:1037C800AB831207C6E970117A027B009004C4E04B
:1037D800F912069A79000239E69004DEE0F8A3E0CF
:1037E800F9E84970030239E4E0F5838882A3A3E08D
:1037F800F8A3E0F98909E8450970030239E4850A64
:1038080082850B83E0FC7901802E9004DEE0F8A32A
:10381800E0F9E84970030239E4E0F5838882A3A35C
:10382800E0F8A3E0F98909E8450970030239E48E54
:10383800828F83A3E0FC79028E828F83A3A3A3E007
:10384800FAA3E0FB888285098302397B7C007D002E
:10385800EE2404FAEF3400FB8E828F83A3A3A3E047
:10386800F91207A2E9F8C3940A40030239E4EE24E6
:103878000AFCEF3400FD7A0475F006E8A42425F963
:10388800120A960239E4EE2403F50AEF3400F50B28
:10389800850A82F583E0FAA3E0FB9004D9E060078B
:1038A800900E0BE0F9806E900E08E07004790580A8
:1038B800641210B48A088B098E828F83A3A3A3A3F2
:1038C800A3A3A3E0A2E05053EA450970030239E438
:1038D8008A828B83A3A3A3A3E0F50C603E8E828F1C
:1038E80083A3A3A3A3A3A3A3A3A3E05410702C743E
:1038F8000E121ABFAC82AD83EA2405FAEB3400FB42
:10390800A90C1207A2E970137903850A82850B8333
:10391800E0FAA3E0FB120C820239E4EE2405FCEF86
:103928003400FD850882850983A3A3A3A3E0F98554
:103938000A82850B83E0FAA3E0FB1207F09004DE0D
:10394800E0F8A3E0F9E84970030239E4E0F5838878
:1039580082A3A3E0F8A3E0F9E8FEE9FFEE4F607C5C
:103968007C007900850A82850B83E0FAA3E0FB8E50
:10397800828F83121AC98064120D4EE9705E900519
:103988006DE0640170257E00EEF91207D2E9F80EA9
:10399800EEC3940A5003E860EF90056DE4F07C0AEA
:1039A800FDF97A6E7B0512067080297508007E6E17
:1039B8007F058E828F83E06401700BA9081207D2FD
:1039C8008E828F83E4F00508A3AE82AF83E508C337
:1039D800940A40DE7950120AA21207CC79017414B5
:1039E8000244C974F2121ACB74DA121A74890D8A55
:1039F800088B09ECFEEDFF7418121ABFAC82AD8378
:103A08007A0E75F006E9A42420F9120A9CE96003ED
:103A1800023BDE7C0679FF7418121ABFAA82AB83B8
:103A28001206BEE96003023BDE7470250DF50C85B5
:103A38001882851983AC82AD837A18F9120A9CE939
:103A48006003023BDA851882851983A882A98388D6
:103A5800828983E0F4FAA3E0F4FB88828983EAF0A0
:103A6800A3EBF0E82402F582E93400F583E0F4F0F2
:103A7800E82403F8E93400F97418121ABF85820A99
:103A880085830BE8650A7003E9650B70C2E5084594
:103A980009702D7C187900851882851983AA82AB54
:103AA800831206BEE96003023BDA7C187D007900C8
:103AB800851882851983AA82AB83120670023B8C13
:103AC8007A00851882851983A882A98388828983C8
:103AD800E065087004A3E065097018EA75F003A4AE
:103AE800F8A9F0851882851983E58228F8E58339D5
:103AF800F980130AE82403F8E93400F9EAC39408C2
:103B080040CA78007900E849705AEE4F7003023BCA
:103B1800DE7C00851882851983A882A9838882891A
:103B280083E0FAA3E0FBEA4B7018EC75F003A4F805
:103B3800A9F0851882851983E58228F8E58339F983
:103B480080130CE82403F8E93400F9ECC394084026
:103B5800CC78007900E849607D88828983E508F09F
:103B6800A3E509F0E82402F582E93400F583E0FAD8
:103B7800EE6A7001EF605BEEF04F7008888289830F
:103B8800E4F0A3F0851882851983A882A983888226
:103B98008983E0F4FAA3E0F4FB88828983EAF0A33E
:103BA800EBF0E82402F582E93400F583E0F4F0E86C
:103BB8002403F8E93400F9E8650A7003E9650B7035
:103BC800CD851882851983AC82AD837A18A90C1229
:103BD8000A9679018002790074260244C974F012A9
:103BE8001ACB74E7121A74EAFEEBFF8C0C8D0D9059
:103BF8000578E0F8A3E0F9E8496003023C9EEE4F3F
:103C08007003023EAFEC450D7003023EAF7509002C
:103C1800750AE0750B04750E06750F00780E121CF8
:103C280027EEFCEFFDAA0AAB0B12066A7402121A01
:103C38008AE9600585090880180509E50A240EF552
:103C48000AE50B3400F50BE509C3940A40C875086A
:103C58000AE508900E0EF0C3940A403A750E0075F6
:103C68000AE0750B047C0679FFAA0AAB0B1206BEA4
:103C7800E96005850E098018050EE50A240EF50A87
:103C8800E50B3400F50BE50EC3940A40D875090A14
:103C9800E509900E0EF0900E0EE0C3940A40030260
:103CA8003EAF900578E0F8A3E0F9E8497074EEFCBF
:103CB800EFFD7A0E75F006900E0EE0A42420F9129E
:103CC8000A967C187D0079FF7401121ABFAA82AB8C
:103CD800831206707401121ABFAC82AD837A1890F1
:103CE8000E0EE02470F9120A96750A0E750B00780C
:103CF8000A121C27EEFCEFFD900E0EE075F00EA4E4
:103D0800F8A9F074E028FA740439FB120658740212
:103D1800121A8A900578E50CF0A3E50DF0790002F7
:103D28003EB1E0C82406F582E83400F583E0FCA340
:103D3800E0FDEC4D60267A1B75F006900E0EE0A4AF
:103D48002421F9120A96900578E0F8A3E0C8240621
:103D5800F582E83400F583E4F0A380C0900578E0AC
:103D6800F8A3E0C8240AF582E83400F583E0FCA350
:103D7800E0FDEC4D601C7A1B75F006900E0EE0A479
:103D88002422F9120A96900578E0F8A3E0C8240ADC
:103D980080BE900578E0F8A3E0C8240CF582E834EA
:103DA80000F583E0FCA3E0FDEC4D601C7A1075F093
:103DB80006900E0EE0A42423F9120A96900578E0E6
:103DC800F8A3E0C8240C8088900578E0F8A3E0C840
:103DD8002408F582E83400F583E0FCA3E0FDEC4D0F
:103DE80060477A1075F006900E0EE0A42424F912AC
:103DF8000A96900578E0F8A3E0C82408F582E8342C
:103E080000F583E02410FCA3E03400FD7A0475F08B
:103E180006900E0EE0A42425F9120A96900578E083
:103E2800F8A3E0C82408023D5890056CE060301201
:103E38000F4C7EE07F047C0679FFEEFAEFFB12065A
:103E4800BEE97009EEFAEFFB7900120F52EE240E6C
:103E5800FEEF3400FFEE646C7003EF640570D775F5
:103E68000A007EE07F047C0679FFEEFAEFFB12067B
:103E7800BEE97002050AEE240EFEEF3400FFEE6480
:103E88006C7003EF640570DEE50AC394028518823E
:103E9800851983400474028002740AF0AC82AD83F1
:103EA8007A017905120D66790174190232C574F721
:103EB800121ACB74FF121A747508007EE07F04EEA4
:103EC800FCEFFD7A0E75F006E508A42420F9120A25
:103ED8009CE9602C7C067D0079FFEEFAEFFB120668
:103EE800707C067D0079FFEE2406FAEF3400FB12A1
:103EF8000670EE240CF582EF3400F583E4F0A3F0AD
:103F08000508EE240EFEEF3400FFE508C3940A40CE
:103F1800AE90056CE06030120F4C7EE07F047C06AA
:103F280079FFEEFAEFFB1206BEE97009EEFAEFFB35
:103F38007900120F52EE240EFEEF3400FFEE646C8F
:103F48007003EF640570D77508007EE07F047C0677
:103F580079FFEEFAEFFB1206BEE970020508EE24BF
:103F68000EFEEF3400FFEE646C7003EF640570DE44
:103F7800E508C39402851882851983400474028079
:103F880002740AF0AC82AD837A017905120D667469
:103F980001121A8A7F01021B9D74F3121ACB74BF97
:103FA800121A74E9FE900E0EE06E703C7A017B00E6
:103FB8009004C4E0F91206A07A027B009004C4E0E1
:103FC800F91206A0900578E0F8A3E0F9E849601234
:103FD800900578E0FAA3E0FB120682900578E4F0F9
:103FE800A3F0900E0E740AF075F006EEA4FF74208C
:103FF8002FF508741B121ABFAC82AD837A0EA9087C
:10400800120A9CE960030241007C0679FF741B12C6
:104018001ABFAA82AB831206BEE960030241007C84
:104028000E7D0079FF741B121ABFAA82AB83120699
:10403800707C1B7D0079FF851882851983AA82AB65
:10404800831206707C187D0079FF7429121ABFAAA2
:1040580082AB83120670741B121ABFAC82AD837ACE
:104068000EA908120A96E9F508851882851983AC05
:1040780082AD837A1B74212FF9120A96E9F5098516
:104088001882851983AC82AD837A1B74222FF912AA
:104098000A96E9F50A851882851983AC82AD837A78
:1040A8001074232FF9120A96E9F50B8518828519E1
:1040B80083AC82AD837A1074242FF9120A96E9F53D
:1040C8000C851882851983AC82AD837A0474252FF8
:1040D800F9120A96E9FF7429121ABFAC82AD837AE5
:1040E8001874702EF9120A96E9F8E509450A450B85
:1040F800450C4F4842088003750800A9087441120E
:104108001A8A7F05021B9D74F7121ACBE99004C422
:10411800F01207CC023F9C74F4121ACB8A088B0960
:10412800EB548060619004C4E0F91206948A0A8B0B
:104138000BAE0AAF0BEE4F604378018E828F83E09F
:104148002450600E14600624E1602280251207E4E2
:104158008023A3A3A3A3E0641E701A79008E828F24
:1041680083A3A3E0FAA3E0FB1207A880081207BA0A
:10417800E9F8E86007EEFAEFFB120682AA08E509FB
:104188006480FB02424DEA540260267C007D007A7E
:10419800007B001207C6E960137A017B009004C413
:1041A800E0F912069AE50864020242407A020242E5
:1041B8004BEAA2E04003024249900578E0F8A3E008
:1041C800F5838882A3A3A3E0FAA3E0FB1207F6E92C
:1041D800606B9004DEE0F8A3E0F9E8496032E0F5AE
:1041E800838882A3A3E0F8A3E0F9E8FEE9FFEE4F95
:1041F800601E7C007901900578E0F8A3E0F58388DB
:1042080082A3A3A3E0FAA3E0FB8E828F83121AC9CC
:10421800900578E0F8A3E0F9E8496012900578E0A5
:10422800FAA3E0FB120682900578E4F0A3F0900E62
:104238000E740AF0E5086401FAAB0980087A018077
:10424800027A007B0002309074F4121ACB8A828BB7
:1042580083A3A3A3A3E060030242E88A828B83A31B
:10426800A3A3A3A3A3A3E0FEA3E0FF8A828B83A357
:10427800A3A3A3A3E0F508A3E0F5098A828B83A38F
:10428800A3E0FAA3E0FB74FF6A700374FF6B701B72
:10429800750A00EEFCEFFDAA08AB09A90A1207C0CF
:1042A800050AE50AC3940A503780E81210B48A82D6
:1042B8008B83E582458360287C007D00E5822405A8
:1042C800FAE5833400FBA3A3A3A3E0F91207A2E94C
:1042D800C3940A500BEEFCEFFDAA08AB091207C005
:1042E800023090C082C0839004C4E0F98A828B8334
:1042F800A3E0FAA3E0FB120EDA0235C974F2121A2F
:10430800CB74E8121A74EAFEEBFF890A8C088D094F
:104318007C187D007900851882851983AA82AB8371
:10432800120670851882851983EEF0A3EFF09004C9
:10433800C6E0C0E07402121ABFD0E0F09004C7E0F3
:10434800C0E07403121ABFD0E0F0900E0DE0C0E098
:104358007417121ABFD0E0F07415121ABFE054FE99
:10436800F8A3E0F9900E0CE0A2E0E433FAE84AF88A
:104378007415121ABFE8F0A3E9F0900E0CE0A2E160
:104388005004D2F08002C2F0E854FDFAA2F0E433FF
:1043980033F8EA48F87415121ABFE8F0A3E9F09068
:1043A8000E0CE0A2E35004D2F08002C2F0E854F709
:1043B800FAA2F0E433F50C750D007403780C121AA8
:1043C80061EA450CF87415121ABFE8F0A3E9F090F9
:1043D8000E0CE0A2E45004D2F08002C2F0E854EFE0
:1043E800FAA2F0E433F50C7404780C121A61EA4569
:1043F8000CF87415121ABFE8F0A3E9F0900E0CE05F
:10440800A2E55004D2F08002C2F0E854DFFAA2F02C
:10441800E433F50C7405780C121A61EA450CF8744B
:1044280015121ABFE8F0A3E9F0900E0CE0A2E250D2
:1044380004D2F08002C2F0E854FBFAA2F0E433F5AB
:104448000C7402780C121A61EA450CF87415121AE9
:10445800BFE8F0A3E9F09004C7E0601D750C107880
:104468000C121C277CC87D047406121ABFAA82ABE2
:10447800831206587402121A8A9004D8E06011E573
:104488000A60097415121ABFE04402F0780180022C
:1044980078007414121ABFE048F09004C5E0600474
:1044A8007804800278007414121ABFE048F0AC084F
:1044B800AD09851882851983AA82AB83120C7C7496
:1044C80018121A8A7F06021B9D74F4121ACB74FD07
:1044D800121A748A0A8B0B90057AE0F8A3E0F9E8BF
:1044E80049703975087C7509057808121C27750804
:1044F800027509007808121C2775081E750983784B
:1045080008121C277CFF7DFF7A017B00120DA8741E
:1045180006121A8A90057AEAF0A3EBF090057AE081
:10452800F8A3E0F9E8497003024647E4F508F509FD
:104538007808121C277404121ABF8582088583091B
:104548007808121C277404121ABF8582088583090B
:104558007808121C2790057C121C3E790290057A77
:10456800E0FCA3E0FDAA0AAB0B120EC87408121AED
:104578008AE9600302460F851882851983E0FA7478
:1045880001121ABFE0F9EA2400FEE439FFEE4F6099
:104598007690057AE0F8A3E0F5838882A3A3A3A325
:1045A800E0F508A3E0F50974FF650A700474FF6577
:1045B8000B701B750A00EEFCEFFDAA08AB09A90AEF
:1045C8001207C0050AE50AC3940A503B80E8AA0A04
:1045D800AB0B1210B48A828B83E582458360287CFA
:1045E800007D00E5822405FAE5833400FBA3A3A33C
:1045F800A3E0F91207A2E9C3940A500BEEFCEFFD01
:10460800AA08AB091207C0E4F508F5097808121CD6
:104618002790057C121C3E7CFF7DFF90057AE0FA0E
:10462800A3E0FB120DB47404121A8A90057AEAF01A
:10463800A3EBF090057AE0F8A3E0F9E84970047973
:104648000180027900740302308DC082C083E99032
:1046580010F1F002487C74F7121ACBE990082AF09E
:104668007C627D087AFF7BFF120EE090082B74FFB6
:10467800F0A3F0A3E4F0A3F07905120E6E90082AD7
:10468800E0F9120D907AF87B0E1210A27F01021B3E
:104698009D74F4121ACB8A088B09EB548060309011
:1046A800082AE0F91206948A0A8B0BAE0AAF0BEEC1
:1046B8004F60138E828F83E064B07003120E80EE19
:1046C800FAEFFB120682AA08E5096480FB80047AE7
:1046D800007B0002484B74F2121ACB74FC121A7455
:1046E800EAFEEBFFEE4F60387402121ABFEEF0A339
:1046F800EF124AB0ECF0A3ED124AB0AA82AB8312D3
:104708000D8AE9F50870737412121ABF125664E51F
:104718000A450B60658E828F8312478CEE4F7005B9
:1047280075080280557A067B001206D68A0C8B0D16
:10473800A80CA90DE8497005750813803D88828981
:1047480083E4124796A3A3EEF0A3EF125AFDE50AFD
:10475800F0A3E50BF090083012481E90083060175F
:10476800E0FCA3E08003EAFCEBFD8C828D83124819
:104778001E70F38C828D83125589A9087404121A4D
:104788008A025CFFA3A3A3A3E0FEA3E0FF22F0A399
:10479800F0888289832274F2121ACB890AE975F0AB
:1047A80017A4FEAFF090082FE4F090082D12481ED1
:1047B800600A1206DC90082DE4F0A3F0EEFAEFFB95
:1047C8001206D68A088B09EA4509602FEEFCEFFD30
:1047D800790012067090082DE508F0A3E509F07B32
:1047E800008008124808E4F0A3F00BEBC3950A40D8
:1047F800F2E50A90082FF0790080027913025CFF35
:10480800EB75F017A4F8A9F090082DE028FAA3E0BA
:10481800398A82F5832212531FEA4B2274F4121A42
:10482800CB7900EAA2E0501B75089C7509827808CC
:10483800121C277C047D007AF37B10120E68740228
:10484800121A8A7F04021B9DC082C083900830120E
:104858004883601C88828983A3A3E06A7003A3E06D
:104868006B8882898370E8A3A3A3A312531B8004D7
:104878007A007B00D083D082020135125DD2E849EC
:104888002274EE121ACB74FC121A74EAFEEBFF853E
:104898001882851983E4F0A3F0EE240212556DEE18
:1048A8002405124A9EEE2404F50EEF124E83E024EE
:1048B800FE603924FC604624FE605224FE605E24BB
:1048C800FE70030249A324FE7003024A1B24FE70F3
:1048D80003024A2A24FE7003024A3924FC700302A8
:1048E8004A4824FE7003024A57024A9490084974C1
:1048F80017F0A3E4124AB8120B08024A94851882EA
:10490800851983AC82AD83120E86024A64851882AB
:10491800851983AC82AD83120E8C024A64850C081B
:10492800850D097402121ABFAC82AD838508828591
:10493800098312531B120DAE8A0C8B0DAC0CAD0DF6
:10494800EC4D6042E4F50CF50D780C121C27750C43
:1049580049750D08780C121C27750C4A750D0878D6
:104968000C121C277408121ABF121C3E7916125317
:1049780015120EC87408121A8AE9F50C700B125336
:1049880011120B20800F750C01850882850983128E
:104998004AA6125589850C08024A677402121ABF82
:1049A800AC82AD83850C82850D8312531B120DAE2C
:1049B8008A108B11AC10AD11EC4D6043850C8285CB
:1049C8000D83A3A3121C3E751049751108781012A7
:1049D8001C2775104A7511087810121C27740812C4
:1049E8001ABF121C3E7916125315120EC8740812FB
:1049F8001A8AE9F509700B125311120B26800F75EC
:104A08000901850C82850D83124AA61255898509EC
:104A180008804C851882851983AC82AD83120E926A
:104A2800803A851882851983AC82AD83120E9880EE
:104A38002B851882851983AC82AD83120E9E801C4B
:104A4800851882851983AC82AD83120EA4800D85EA
:104A58001882851983AC82AD83120EAAE9F508E5A0
:104A68000860298E828F83A3E06414601F850E82FC
:104A7800850F83E0900849124AB0125DCE90084A2B
:104A8800125589E508A3124AB8120B02EEFAEFFB99
:104A9800120E2C025475F50CEF3400F50D22125D40
:104AA800D285188285198322F08518828519832278
:104AB800F07C497D08850A82850B8312531F227476
:104AC800EE121ACB74FC121A748A0A8B0B8C0E8D98
:104AD8000FEA2405F508EB3400F5097C157D00790B
:104AE800007A497B08120670E5082402F50CE509EE
:104AF800124AA185188285198385821085831178C9
:104B080010121C27850882850983A3A3A3A3124F2B
:104B1800CB121C27E5082405F510E5093400F5112A
:104B28007810121C27850C82850D83125325120DCF
:104B3800A87406121A8A8A108B11AE10AF11E50AF2
:104B48002402F50AE50B125570EE4F7003024C8DE6
:104B580080177402121ABF12531B88828983EAF0E5
:104B6800A3EBF0900849E004F0900849E0C39405ED
:104B78004003024C8DE4F510F5117810121C2775CE
:104B880010327511087810121C277510337511082A
:104B98007810121C277406121ABF121C3E7910EEE8
:104BA800FCEFFD125315120EC87408121A8AE97028
:104BB8005E850882850983A3A3A3A3A3A3A3E0F822
:104BC800900832E0687048124FCB121C277C337D66
:104BD80008E5082408FAE5093400FB12066A74029D
:104BE800121A8AE960298E828F83A3A3A3A3125382
:104BF8001B900849E0F51074027810121A61744A83
:104C08002510F58274083511F583EAF0A3EBF074EA
:104C180002121ABF8582108583117810121C27741E
:104C280002121ABF121C3E850C82850D83125DE3A9
:104C3800120DB47404121A8A8A108B11AE10AF11B7
:104C4800900849E0F51075110074027810121A6185
:104C580074492510F874083511F988828983A312DC
:104C6800481E7003024B51E82403F8E93400F9EEBA
:104C78004F6003024B5A8882898374FFF0A3F09037
:104C88000849E004F0900849E0600A125311120B39
:104C9800147900800B850882850983125580790A6A
:104CA80002547574EA121ACB74FE121A748C128D9F
:104CB80013EA2405F50CEB125DED12479075080018
:104CC800750900EA2402F510EB3400F51185188205
:104CD80085198385820A85830B780A121C27850C1F
:104CE80082850D83A3A3A3A3124E8D121C27E50C66
:104CF8002405F50AE50D125570780A121C27850C53
:104D080082850D83125DE1120DA87406121A8A8A33
:104D18000A8B0BEA450B7003024E3EEA2404F50E9B
:104D2800EB124E831247908A828B83A3A3A3E0F9E8
:104D380085108285118312531B120D96E9F50960BF
:104D480003024E3EE4F514F5157814121C27751469
:104D5800327515087814121C2775143375150878E0
:104D680014121C277406121ABF121C3E7913AC0ABF
:104D7800AD0B85108285118312531B120EC874085F
:104D8800121A8AE9F5096003024E3E900832E0F8EB
:104D9800E5087009E0240290084AF0801790084A54
:104DA800E0FCE82402FAE43400FBEA6C7001EB60F2
:104DB80003024E42850882AA82124FC29414124FEF
:104DC800BA5073850E82850F83E0C0E0744B2A12B7
:104DD8004E7AD0E0F00508850E82850F83A3E0C0E7
:104DE800E085080A744B250A124E7AD0E0F00508CF
:104DF800900832124E8D121C277C337D0885080AD4
:104E0800744B250AFA74083400FB1206587402120F
:104E18001A8A900832E02508F50874FF6E7003744A
:104E2800FF6F6012EE24010EEF3400FFE508C39413
:104E3800145003024CD5E5086013125206851082FF
:104E480085118312531B120B1A79008014E509701F
:104E58000375090A851282851383EEF0A3EFF0A982
:104E6800097402121A8A7F0E021B9D85080C744B66
:104E7800250CF58274083400F583223400F50F857B
:104E88000E82F58322125B102274EE121ACB74FE86
:104E9800121A748C0E8D0FEA2405F50CEB124AA138
:104EA800750B00900849E4F0F50AEA2402F508EBCE
:104EB8003400F5098049900849E0FA900832E0F892
:104EC800124FC29417124FBA400D900849E0F87477
:104ED80016C398900832F0124FCB121C277C337DF2
:104EE80008744A2AFA74083400FB1206587402122D
:104EF8001A8A900832E0F8900849E028F0050AE597
:104F08000C2416F582E50D124E7EE0F8E50AC398EA
:104F18004003024FA3900849E0C39416507DE50A68
:104F2800C333F8E433F9E50C28FEE50D39FF85189D
:104F380082851983AC82AD838E828F8312531B12B4
:104F48000DAE8A108B11AC10AD11EC4D7005750BC0
:104F5800018043E4F510F5117810121C2775103202
:104F68007511087810121C27751033751108781000
:104F7800121C277406121ABF121C3E791685088265
:104F880085098312531B120EC87408121A8AE9F590
:104F98000B7003024EBE12557C80107C497D08853B
:104FA800088285098312531B120B2CA90B74020269
:104FB8005477E99400C365D03322EA28F8E4340032
:104FC800F9E822E0F51075110078102274EA121A37
:104FD800CB74FC121A748A0C8B0D8C128D13EA2474
:104FE80005F50AEB125570750800750900E50A24E5
:104FF80002F510E50B3400F5117402121ABF858210
:105008000E85830F780E121C27850A82850B83A3D1
:10501800A3A3A3125ABC121C27E50A2405F50EE522
:105028000B3400F50F780E121C278510828511832A
:10503800125576125315120DA87406121A8A8A0E82
:105048008B0FAE0EAF0FE50C2402F50EE50D340004
:10505800F50F80408882898374FFF00508124E732B
:1050680074FFF00508900832E0F50C750D00780C17
:10507800121C277C337D0885080C744B250CFA74A8
:10508800083400FB1206587402121A8A900832E09B
:105098002508F508EE4F60718E828F83A3A3A3E0E5
:1050A800F9850E82850F8312531B120D96E9F509B7
:1050B800EE2404124A9EE97044E4F514F5157814B8
:1050C800121C277514327515087814121C277514CC
:1050D800337515087814121C277408121ABF121C8D
:1050E8003E7911EEFCEFFD850E82850F8312531B6E
:1050F800120EC87408121A8AE9F5096027850C820D
:10510800850D831251FC125589E50870030251E29E
:10511800125206850E82850F8312531B120B3279A9
:10512800000251F7850882AA82EA9008327009E0E5
:10513800240490084AF08022E0F890084AE0F51428
:10514800E82404FCE43400FDEC65147001ED70C043
:10515800124FC29412124FBA50B6850C82850D8335
:10516800E0C0E0744B2A124E7AD0E0F00508850CB6
:1051780082850D83A3E0C0E0124E73D0E01252186E
:1051880085820C85830D780C121C277404121ABFB3
:10519800121C3E851082851183125DE3120DB474D2
:1051A80004121A8A8A0C8B0DAE0CAF0D85080C748C
:1051B8004B250CF874083400F9EE4F700302505C6C
:1051C800851882851983E088828983125218A3E0A2
:1051D800C0E0124E73D0E002506AE5097003750909
:1051E8000A850A82850B831251FC125589A9097414
:1051F80004024E6B125DD2851282851383229008B9
:105208004AE0F5F0E50884900849F07C497D0822D9
:10521800F005088518828519832274EC121ACB745C
:10522800FE121A748A088B098C0E8D0FEA2405FE6B
:10523800EB3400FF851882851983AC82AD838E829A
:105248008F8312531B120DAE8A0A8B0BEE24181291
:105258004A9EEA450B70030252EC12545E503285A6
:10526800188285198312531B120EBC8A108B11EAFF
:105278004511606B7912AC0AAD0B850882850983EC
:1052880012531B851082851183121AC9E9F50A7019
:1052980058E4F50AF50B780A121C278E828F83A32F
:1052A800A3E0F50A780A121C27EE240312556D783C
:1052B8000A121C278E828F83125325120ECE740673
:1052C800121A8AE9F50A7021850C82850D83E0702F
:1052D8001F85088285098312531B120B38801175AC
:1052E8000A0E8009750A018004E50A600312557CDC
:1052F800850C82850D83E0600479008002A90A7418
:1053080002121A8A7F0C021B9D7C497D08850A823D
:10531800850B8312531F22E0FAA3E0FB22E0FCA3D3
:10532800E0FD85088285098312531F2274EE121A44
:10533800CB74FE121A748A088B098C0C8D0DEA2422
:1053480005FEEB3400FF750E00851882851983ACC5
:1053580082AD838E828F8312531B120DAE8A0A8B05
:105368000BEA450B700302544A12545E50358518F7
:105378008285198312531B120EBC8A0E8B0FEA45C5
:105388000F605E7912AC0AAD0B850882850983121D
:10539800531B850E82850F83121AC9E9F50E600327
:1053A80002544D850882850983125664AA0AFB12A5
:1053B8000EB08A108B11A810A911E849701E7AFF47
:1053C8007BFF120EB08A108B11A810A911E8496052
:1053D8006C88828983E50AF0A3E50BF0750A0080E2
:1053E80007750E0E805F050A90082FE0FAE50AC3DC
:1053F8009A504AE50A75F017A4FAABF088828983B7
:10540800A3A3E02AFAA3E03BFB8A828B831255769A
:10541800EC4D70D2750A17750B00780A121C27EE2E
:10542800FCEFFD1206587402121A8AEEFCEFFD8595
:10543800088285098312531B120B3E8014750E09CE
:105448008003750E01125DCA850C82850D83125585
:1054580089A90E024FB5E5082402F508E5093400CC
:10546800F5098A828B83A3A3A3E0A2E52274041220
:105478001A8A7F0A021B9D74EC121ACB8C108D11AC
:10548800EA2405F50CEB124AA1750F00EA2402F58F
:105498000AEB125570850A82F58312531B120EB05F
:1054A8008A088B09EA45097003025562750E008067
:1054B80071850C82850D83E06401704F8E828F8325
:1054C800A3A3121C3E8E828F83A3A3A3A3E0F5128D
:1054D8007513007812121C27EE2405F512EF34001C
:1054E800F5137812121C27125315120ECE740612D9
:1054F8001A8AE9F50F6014850C82850D83E4F01291
:105508005DCA8510828511831255897C177D0079C3
:1055180000EEFAEFFB1206708E828F83E4F0A3F0A0
:10552800050E90082FE0F8E50EC398501EE50E759D
:10553800F017A4F8A9F0850882850983A3A3125D52
:10554800F7125576EC4D60030254B9850882850937
:105558008374FFF0A3F0E50F7006125315120B4485
:10556800A90F02530CF50AEF3400F50B22A3E0FC57
:10557800A3E0FD228E828F83125DD2850E82850F75
:1055880083E8F0A3E9F022C082C08390082BE06A88
:105598007003A3E06B70067A2B7B0880047A007B8B
:1055A8000002487CC082C08378008C828D83E06AC8
:1055B8007003A3E06B7010E875F003A4F8A9F0EC91
:1055C80028FAED39FB8015088C828D83A3A3A3E00C
:1055D8006A7003A3E06B60DF7A007B0002487C748A
:1055E800F6121ACB120E7A8A828B83E58245837073
:1055F800067A007B008007A3A3A3A312531B025CB7
:105608007B74F2121ACBE9FE740E121ABF1256649A
:105618007410121ABF125ADC8C828D83E0640270F7
:1056280036A3125DD8F50CA3E0F9A80C74026870D3
:10563800037429697021750C02750D00780C121C11
:10564800277808121C27780A121C27EEF9120EF286
:105658007406121A8A80027901025CFFE0F50AA337
:10566800E0F50B2274E8121ACB74FB121A74E98560
:105678001882851983F08A168B17ECFEEDFF7510DA
:1056880000741D121ABF125DCE741D121ABF125576
:10569800898E828F83A3A3A3E0A2E4502D741D12E8
:1056A8001ABF12531B120EBC8A828B83E582458374
:1056B8007003025AAD790AEEFCEFFDAA16AB171279
:1056C8001AC9E9F5106003025AB0741F121ABF1202
:1056D8005ADC7421121ABF1256647423121ABFE0DE
:1056E800F50EA3E0F50F8E828F83E064026003025B
:1056F8005A5BA3125DCE850882850983A385821231
:10570800858313EE2406124A9E88828983E0FAA3D1
:10571800E0F9EA2400F514E439F5157814121CB1FF
:1057280001000028012850570700022815580328AF
:10573800825700294C5901297759022918590329F8
:105748004C590429F6595B5AE50E450F6003025A75
:1057580056850C82850D83125AD1FAE9FB8A828B11
:1057680083E0850A82850B83125B07121C278A82D5
:105778008B83A3E0FCA3E00259E0E50E450F60032C
:10578800025A56850A82850B837401F0125AE48501
:105798000882850983F07C007D008E828F83A3A315
:1057A800A3A3E02401FAA3E03400FB120DAEEA4BF8
:1057B80060418A828B83E02402F8850A82850B8304
:1057C800E028F0EA2404F8EB3400F988828983E0C1
:1057D800851282851383125B19125B07121C278AB4
:1057E800828B83125575E5082403FAE5093400FB1A
:1057F8000259E5850A82850B83E02404F07C047D48
:10580800007900AA12AB13120670025AB0E50E45D1
:105818000F6003025A56125AE4FEA3E0FF850A827B
:10582800850B837404F0EE850882850983F0EF8583
:105838001282851383F07403121ABFAC82AD83EE13
:10584800FAEFFB120DAE8A0C8B0DEA450D700302C0
:1058580058F98A828B83A3A312478C7401121ABF4A
:1058680085820E85830F780E121C277405121ABFC5
:10587800121C3E7CFF7DFF120DB47404121A8A8B31
:105888000FEA450F7033850C82850D83125ABC12BE
:105898001C27850C82850D83A3121C3E7C027D008B
:1058A8007A267B83120BE07404121A8AE9700A7450
:1058B80001121ABF74FFF0A3F08E828F83E0640296
:1058C8007039750C02750D00780C121C278E828FAA
:1058D80083125575E5082404FAE5093400FB12061D
:1058E800587402121A8A850A82850B83E024028082
:1058F800097401121ABFEEF0A3EFF07401121ABF77
:10590800125ACDF07401121ABFA3125AC5025A5086
:10591800E50E450F6003025A56850C82850D8312E9
:105928005576AA16AB17120EE6850A82850B837484
:1059380002F0EA850882850983F08512828513833F
:10594800EB025A53E50E450F6003025A56125AE409
:10595800F8A3E0F9850A82850B837402F0E88508CC
:1059680082850983F0E9851282851383025A53855B
:105978000C82850D8312531B120652EAFC8C82A8F6
:1059880082C3950EE4950F405FE8650E7002E50F3F
:1059980070047C008022851882851983E0FAE50E60
:1059A8002AFAE50F3400FBC3EA98EB94005003E0B1
:1059B8008005E50ECCC39CFCEC850A82850B83F040
:1059C8008C0A750B00780A121C27850C82850D83BA
:1059D800E0250EFCA3E0350FFDAA08AB0912065816
:1059E8007402121A8A025AB0751007025AB0E50EEC
:1059F800450F705A850C82850D83125DCE850A820B
:105A0800850B837407124798125AC5124798A3E06A
:105A1800851282851383F0E82402FAE93400FB8AB0
:105A2800828B83125AC5125AF4125ACDA3125AFD08
:105A3800125AD6F0E82405F8E93400F988828983F7
:105A4800125AD6A3125B19A3A3A3A3F0805A751008
:105A58000B8055741D121ABF12531B120E7A8A82BC
:105A68008B83E5824583603D125DCE880C890DE805
:105A7800450D6031780E121C27780A121C27780809
:105A8800121C277406121ABFE0F9EEFCEFFDAA16E5
:105A9800AB17850C82850D83121AC97406121A8AEF
:105AA800E9F510800375100EA9107405121A8A7F83
:105AB80010021B9DE0F50E750F00780E22E0850898
:105AC8008285098322125B2322125DD2E822125BAF
:105AD80023A3A322E0F508A3E0F50922850C82851B
:105AE8000D83E0F8A3E0F5838882E022A3A3F08A7F
:105AF800828B83A322F088828983A3A3A3A322F0A5
:105B08008A828B83125B1022E0F50A750B00780AF3
:105B180022F088828983A3125B2322E0850882858C
:105B28000983A3A32274EE121ACB74FE121A748A84
