:020000040000FA
:0600000002011D02206850
:03002B0002272881
:0300330002270A97
:030053000220DEAA
:03006B000226E189
:10008300021F17E5C754F84401F5C77901220000A0
:100093000080FB120086B90003020107E47921788E
:1000A30008B800028004F709D8FCE479297802B87B
:1000B30000028004F709D8FCE490028178A879074C
:1000C3008002F0A3D8FCD9FA781A90014D7A01BACC
:1000D30000028007E493A3F608DAF9900928AA82BC
:1000E300AB8390014E780279048015E493A3AC822C
:1000F300AD838A828B83F0A3AA82AB838C828D83A8
:10010300D8E9D9E775827B7583A1740312012F7532
:100113008291758300740012012F75D00075813FA1
:10012300751881751902759F00020096C09FF59F8F
:10013300E473D09F22D083D082C09FE493C0E07445
:100143000193C0E0740293F59F2201FF0000B40005
:100153000028002800283075A000A000A000A000FF
:1001630000080008E001F00010001000100010006B
:100173001000100050005000500010001000D00775
:100183000000000000000F000100050030750700AB
:100193001000010081FF00000000FF4D066B0653B5
:1001A30006FF02020208025000A0000000E803025A
:1001B300969001000085900292900100007F090251
:1001C300B290010000B30202929001000080090284
:1001D3009C90010000C90202929001000081090273
:1001E3009A90010000CB0202929001000082090262
:1001F3009090080000CC0202929001000083090253
:1002030088900100008409FF0100FF2002969001FD
:100213000000A98F029290010000E809028A900071
:1002230000000000028C9003000019037D0C7D0C7C
:100233007D0C7D0C7D0C7D0C7D0C7D0C7D0C7D0C73
:100243007D0C7D0C7D0C590F710F530FFFFF0202C4
:1002530002020202020202010D00000010010296D6
:10026300900100007F900292900100002B0A02AEE1
:10027300900100005D070292900100002C0A02AC7D
:1002830090010000688F0292900100002D0A02AADB
:10029300900100004D8F0292900100002E0A02A8E7
:1002A30090010000958E0292900100002F0A02A691
:1002B30090010000DD8E029290010000300A02A43A
:1002C30090010000CB8E029290010000310A02A23D
:1002D30090010000B98E029290010000320A02A040
:1002E300900100003F8F029290010000330A029EAA
:1002F30090010000340A01E803053F100AFF0001E2
:100303003075030201060000000000000000000039
:1003130000000000000000000000000000000000DA
:100323000000FFFF0600800CE803140953696D7099
:100333006C65424C455065726970686572616C0505
:100343001250002003020A000201060302F0FF53C9
:10035300696D706C6520424C452050657269706808
:100363006572616CD3130000D9130A43686172612B
:100373006374657269737469632031000243686151
:100383007261637465726973746963203200084330
:1003930068617261637465726973746963203300A1
:1003A3001043686172616374657269737469632071
:1003B30034000243686172616374657269737469BE
:1003C3006320350002969001000082900292900112
:1003D3000000470B02C0900300001909028E900130
:1003E3000000480B029290010000590B02BC9001DF
:1003F30000001A09028E900100005A0B029290012C
:1004030000006B0B02BA900200001B09028E9001E0
:1004130000006C0B0292900100007D0B02B890006B
:1004230000001C09028C900300001D09028E90013C
:1004330000007E0B0292900100008F0B02B4900427
:1004430000002309028E90010000900B1201386214
:100453009003120138799003120138AA9003120114
:1004630038E590031201380F9103120138399103D3
:100473001201385091031201386791031201387E3B
:100483009103120138A79103120138BA91031201A3
:1004930038D09103120138E391031201380A920311
:1004A3001201380198021201380599021201383DF0
:1004B30099021201386099021201386B99021201F4
:1004C300388E99021201389D9A02120138729B02EA
:1004D300120138ED9B02120138759C02120138B0EB
:1004E3009C02120138E79C02120138759D02120129
:1004F300384E9E02120138AE9E02120138B99E0296
:10050300120138389F021201383B9F021201383E14
:100513009F02120138CD9F02120138D09F021201AF
:100523003800A0021201382AA00212013818A102D1
:10053300120138CAA102120138E2E3021201380A99
:10054300E40212013838E4021201386FE4021201A6
:1005530038CDE40212013818E50212013863E502CE
:10056300120138A3E502120138E9E5021201381736
:10057300E602120138D4E602120138DEE602120165
:1005830038EBE6021201381EE702120138EAE702ED
:10059300120138F6E7021201380EE8021201381888
:1005A300E802120138C89D03120138D69D031201D7
:1005B30038EE9D03120138069E03120138BFB001C5
:1005C3001201386BB101120138E6B101120138078B
:1005D300B30112013843B301120138ECB301120124
:1005E30038D3B40112013837B6011201388EB6017F
:1005F3001201380FB701120138FFB7011201384C4D
:10060300B801120138D2B80112013804B90112013C
:100613003818BB011201385ABB0112013878BB01EB
:10062300120138FBBB01120138CFBC01120138970C
:10063300BD0112013898CD021201386BCE021201AE
:100643003814CF0212013867CF0212013817D002D3
:10065300120138A3D0021201388FD102120138BE21
:10066300D102120138D1D20212013819D302120178
:1006730038EED3021201382AD40212013846D402CA
:1006830012013898A003120138DCF902120138F282
:10069300F90212013818FA0212013834FB0212016E
:1006A300383EFB0212013873FC021201386BFD0263
:1006B300120138F8D90212013828DB021201385B23
:1006C300DB02120138A5DB021201386CDD021201D4
:1006D30038D0A0011201383AA10112013899A201C0
:1006E300120138A9A201120138D6A2011201382D34
:1006F300A301120138D6A301120138DDA4011201AE
:1007030038A7A50112013807A7011201384AA7012A
:10071300120138EFA7011201383CA8011201386217
:10072300A80112013870AA0112013875AA01120139
:10073300387AAC01120138C7AC011201383AAD0165
:100743001201386DAD011201380FAE01120138B834
:10075300AE01120138F0AE01120138F3AE011201FD
:10076300383BAF011201387BAF01120138D2AF0120
:100773001201388D8603120138A58603120138ED64
:1007830086031201380387031201384A87031201D3
:10079300385E8803120138EB880312013836890367
:1007A3001201385427001201386027001201389BC8
:1007B3002700120138E02700120138A02800120197
:1007C300382629001201388B2900120138B7290075
:1007D300120138F029001201382E2C0012013812B0
:1007E3002E00120138F82F001201383B310012019C
:1007F300388933001201389B3400120138E6350082
:10080300120138F636001201381337001201384E40
:100813003700120138703700120138D33700120144
:1008230038943C00120138293D001201387A3D000A
:10083300120138A13D00120138F33D0012013811B5
:100843003E001201386B3E00120138543F00120182
:1008530038CA40001201384E41001201389FE802A5
:10086300120138A9E802120138ECE8021201380734
:10087300E90212013897E902120138BFE9021201B5
:1008830038FCE90212013833EA021201385CEA0249
:10089300120138D1EA02120138E6EA02120138FBEA
:1008A300EA021201382CEB0212013840EB0212016A
:1008B3003865EB021201389FEB02120138CBEB02D1
:1008C30012013803EC0212013882EC02120138CB18
:1008D300EC02120138F5EC0212013820ED0212018C
:1008E30038D799031201380080021201382E800292
:1008F3001201387C81021201385C82021201387BBA
:100903008202120138F882021201383B830212017B
:1009130038918402120138528502120138D98702B4
:100923001201387A88021201387089021201386D77
:100933008A02120138C78B02120138528C0212014B
:10094300387C9803120138E598031201383999036A
:10095300120138609903120138919903120138D5B5
:10096300F10212013842F20212013889F202120135
:1009730038A1F3021201389DF40212013880F50206
:1009830012013881F701120138C3F70112013895BA
:10099300F8011201386EF90112013868FA011201E7
:1009A300384AFB01120138B3FB0112013869FC011B
:1009B300120138DDFC0112013849FD0112013872C0
:1009C300FD01120138ECFD0112013885FE0112010F
:1009D30038EAFE01120138FFFE0112013845FF011A
:1009E3001201385EFF01120138C3FF01120138C63C
:1009F300FF01120138948303120138BC83031201EF
:100A030038FA8303120138B884031201381F8503AF
:100A13001201383B850312013863850312013893B1
:100A23008503120138A285031201381F86031201C0
:100A330038458603120138C99001120138679201C3
:100A4300120138829401120138BE9401120138EB6D
:100A53009401120138D09501120138179601120141
:100A6300385B96011201386D9601120138AD96017B
:100A7300120138DA960112013825970112013865FF
:100A83009701120138939701120138E5970112017A
:100A930038759801120138139B01120138299D0101
:100AA300120138679D01120138F89E011201383D89
:100AB3009F01120138B49F01120138FE9F011201F8
:100AC3003829A00112013805AC0212013884AC02A6
:100AD30012013846B20212013855B302120138BD71
:100AE300B40212013854B5021201384B57001201F7
:100AF30038945700120138C15700120138F45700D7
:100B03001201380158001201380D58001201381F24
:100B130058001201380659001201386459001201B5
:100B230038995900120138DC5A00120138295B0048
:100B33001201384D5B00120138BA5B00120138789C
:100B43005C00120138315D001201389E5D00120114
:100B530038505E00120138605E00120138E75E0013
:100B6300120138A65F00120138D35F001201384C1E
:100B73006000120138A96000120138F3600012010D
:100B83003889610012013854620012013809630088
:100B93001201387E6300120138DF63001201384905
:100BA30064001201388264001201382465001201C6
:100BB30038346600120138746600120138916600F9
:100BC300120138B06600120138F766001201381CB2
:100BD3006700120138496700120138C36700120128
:100BE30038046800120138286900120138D86900F6
:100BF3001201382F6A00120138996A00120138B2C3
:100C03006A001201383BA2021201388EA2021201BD
:100C1300389AA2021201386FA30212013896A30276
:100C2300120138D1A3021201383DA402120138790E
:100C3300A402120138B2A402120138CAA40212019A
:100C4300381FA50212013838A50212013881A50206
:100C530012013894A502120138AEA502120138C45C
:100C6300A502120138F7A6021201383EA8021201AA
:100C73003840A9021201383AAA02120138F7FF02DA
:100C83001201384AEA011201387AEA0112013842A4
:100C9300EE0112013899EF0112013862F0011201DD
:100CA30038E2F101120138B3F201120138F0F20116
:100CB30012013813F30112013851F3011201385AAA
:100CC300F301120138A4F301120138AEF30112014A
:100CD3003858F40112013831F50112013885F50154
:100CE300120138E7F5011201383AF60112013869A9
:100CF300F601120138A6F601120138E46A00120166
:100D0300384B6E00120138516E00120138D3730054
:100D13001201384C7800120138227C00120138424B
:100D2300F602120138B8F602120138CEF6021201A9
:100D3300380FF70212013849F702120138C2F702DD
:100D4300120138FDF70212013870F802120138AEB1
:100D5300F802120138B7F802120138C3F80212017F
:100D630038DFF8021201380AF90212013820F902B9
:100D730012013849F902120138ACF9021201381F85
:100D8300DF0212013832DF021201384CDF02120196
:100D93003875DF02120138B8DF02120138F7DF02BB
:100DA30012013835E0021201389AE002120138AF1D
:100DB300E002120138BAE002120138C7E002120160
:100DC30038DEE002120138ECE002120138F7E002EB
:100DD30012013803E10212013816E102120138212F
:100DE300E10212013844E102120138EBE10212017F
:100DF30038FBE10212013815E20212013832E20235
:100E03001201384EE20212013873E2021201387EF7
:100E1300E20212013893E202120138A7E202120140
:100E23003808E3021201380EE30212013814E30218
:100E33001201381AE30212013832E3021201386553
:100E4300E30212013821CE01120138A5CE011201AD
:100E53003854CF01120138B3D001120138D4D20172
:100E6300120138C0D301120138F5D301120138172A
:100E7300D401120138C6D401120138BED6011201C1
:100E830038E7D60112013879D701120138ABD701FF
:100E9300120138B8D7011201380FD80112013835C1
:100EA300D801120138A2DA01120138A5DB011201BF
:100EB30038FDDB01120138B0BF01120138BAC0019D
:100EC300120138A1C101120138ABC101120138CDA1
:100ED300C101120138D9C10112013872C3011201D3
:100EE30038A1C301120138BDC40112013816C5016E
:100EF3001201387CC6011201385BC701120138B7F1
:100F0300C70112013824C8011201385FC801120158
:100F1300389EC80112013857CB0112013871CB0139
:100F2300120138FDCB011201380BCC0112013864D8
:100F3300CC0112013872CC01120138E5CC01120147
:100F43003849CD0112013893CD01120138D38C02F7
:100F5300120138F58C021201381B8F02120138304E
:100F63009202120138489302120138FB93021201D4
:100F730038DD94021201381C9203120138419203A6
:100F8300120138B392031201381EC6021201382728
:100F9300C60212013830C60212013807C702120115
:100FA30038B8C802120138EEC80212013828C90243
:100FB3001201385EC90212013898C902120138CCF5
:100FC300C902120138F8C90212013841CA021201DA
:100FD300387BCA02120138C4CA021201381CCB0280
:100FE30012013851CB02120138ACCB02120138E6A0
:100FF300CB0212013837CC021201386DCC02120138
:1010030038A7CC02120138D5CC02120138F8CC0231
:10101300120138559F03120138819F03120138DCF6
:101023009F03120138E69F03120138F69F03120152
:10103300387EB50212013888B502120138C6B502EE
:101043001201380FB60212013849B602120138A351
:10105300B602120138C4B6021201389CB902120159
:1010630038A5B902120138F2B9021201381BBA02CB
:1010730012013825BA0212013891BA02120138233B
:10108300BB021201386DBB02120138A3BB0212016D
:10109300382FBC0212013870BC02120138A7BC02FF
:1010A300120138B9BC02120138D8BC02120138E16E
:1010B300BC02120138AEBD02120138F49B031201C7
:1010C30038718E03120138A78E03120138DD8E03A7
:1010D30012013828900312013800A00312013816B8
:1010E300A00312013820A0031201386AA0031201E1
:1010F300381CA10312013848ED021201385DED02DC
:101103001201380DEE021201384DEE02120138665B
:10111300EE02120138A1EE02120138EEEE021201C4
:101123003820EF0212013862EF0212013863F10234
:101133001201380597031201382E97031201385D07
:101143009703120138F597031201383798031201F8
:1011530038608903120138858903120138AF890386
:10116300120138D3A103120138B541001201381A14
:101173004400120138BB45001201386F46001201CA
:1011830038024700120138874700120138AC470084
:10119300120138024B00120138884B00120138BB90
:1011A3004C00120138F54C001201382A4D0012018F
:1011B30038EA4E00120138474F00120138904F00B1
:1011C300120138FB4F001201386C50001201389E97
:1011D3005000120138B65000120138FF51001201BD
:1011E300380F52001201382A53001201384C5300B1
:1011F300120138825300120138365500120138C3E8
:101203005500120138025600120138265700120108
:10121300389F9E03120138B09E0312013829A2039E
:1012230012013868A203120138E6FF02120138EBFB
:101233009C03120138FB9C03120138109D03120119
:1012430038C29D03120138F09A03120138759B03CB
:10125300120138DB9B031201386395031201388CAA
:101263009503120138F29503120138129603120105
:1012730038639603120138BE9603120138F89603B9
:10128300120138FB9603120138717C001201388673
:101293007C00120138B17D001201382D7E0012014D
:1012A30038A17E00120138BB7E00120138D27E00C5
:1012B300120138E57E00120138FF7E001201381654
:1012C3007F001201383C7F001201388D7F0012012C
:1012D30038EAFF01120138FAFF01120138FDFF015C
:1012E300120138F87F001201382C8C03120138C721
:1012F3008D03120138288E031201386E8E031201FA
:1013030038C193031201381394031201389D9403D7
:1013130012013804950312013875FD021201389F3A
:10132300FD021201386DFE0212013848FF0212015C
:1013330038DCBD02120138A3BE02120138DABE0244
:1013430012013804BF0212013864BF02120138BA15
:10135300BF021201381FC002120138B7C0021201C6
:1013630038C6C1021201385DC302120138EAC30252
:1013730012013851C40212013868C40212013882C2
:10138300C502120138C0C5021201384BDC0112013B
:1013930038CCDF0112013854E101120138ABE1010D
:1013A300120138CAE10112013848E201120138DEA4
:1013B300E301120138C3E401120138D1E80112013B
:1013C30038A7E901120138BBD40212013836D7021B
:1013D300120138E1D70212013804D9021201387719
:1013E300D90212013800800312013845800312012B
:1013F300386280031201381881031201386B8103AC
:101403001201384182031201385B8303120138BA97
:10141300FF02120138C27F0012013872A2031201C7
:10142300389AA203E066701008A3E066700A08A366
:10143300E066700408A3E06622C3E7960809E7960E
:101443000809E7960809E79622C3E09608A3E09601
:1014530008A3E09608A3E09622C008C3E096F50827
:1014630008A3E096420808A3E096420808A3E09682
:1014730045087001D3D00822080808EAC0E0EBC091
:10148300E086F0E7A4FA180986F0E7A42AFA180917
:1014930086F0E7A42AFA180986F0E7A42AFA19863F
:1014A300F0E7A4FBE5F02AFA190886F0E7A42BFB82
:1014B300E5F03AFA190886F0E7A42BFBE5F03AFACF
:1014C30018180986F0E7A4C5F02BFBE43AFA1908CB
:1014D300E7C5F0C6A426F6E5F03BFBE43AFA188626
:1014E300F0E7A4F6E5F00826F6E43B08F6E43A084C
:1014F300F6D0E0FBD0E0FA22E4CFC0E0E4CEC0E0D7
:10150300E4CDC0E0E4CCC0E075F020C3E633F608D8
:10151300E633F608E633F608E633F6181818EC3324
:10152300FCED33FDEE33FEEF33FFC3EC9709ED978C
:1015330009EE9709EF97191919400FFFEC97FC096A
:10154300ED97FD09EE97FE191906D5F0BEECF709E4
:10155300EDF709EEF709EFF7191919D0E0FCD0E020
:10156300FDD0E0FED0E0FF226016080808C6C313D2
:10157300C618C613C618C613C618C613C6D5E0EADE
:10158300227009080808226016181818C6C333C643
:1015930008C633C608C633C608C633C6D5E0EA2232
:1015A300E627F60809E637F60809E637F60809E6F6
:1015B30037F622E026F608A3E036F608A3E036F66F
:1015C30008A3E036F622E026F008A3E036F008A3ED
:1015D300E036F008A3E036F022C3E697F60809E602
:1015E30097F60809E697F60809E697F622C3E09608
:1015F300F008A3E096F008A3E096F008A3E096F0C5
:1016030022E056F608A3E056F608A3E056F608A330
:10161300E056F622E056F008A3E056F008A3E056A1
:10162300F008A3E056F022E0F608A3E0F608A3E0F2
:10163300F608A3E0F622E6F008A3E6F008A3E6F036
:1016430008A3E6F022E0FAA3E0FBA3E0FCA3E0FD9D
:1016530022EAF0A3EBF0A3ECF0A3EDF022CAC0E082
:10166300E6F0A308DAFAD0E0FA22CAC0E0E0A3C5A4
:1016730082CCC582C583CDC583F0A3C582CCC58288
:10168300C583CDC583DAE6D0E0CA22C3E498F8E483
:1016930099F91216CF8026C3E49AFAE49BFBE9205A
:1016A300E7E91216CFE498F8E499F922C3E498F82D
:1016B300E499F91216CFE498F8E499F9C3E49AFA95
:1016C300E49BFB22EB20E7CFE920E7E0B90010BB66
:1016D3000008E88AF084F8AAF022E4FBC8FA22EBB7
:1016E30070227B10C833C8C933C9335007C39AC3A8
:1016F300DBF280069A50012ADBEAC833F4C8C93307
:10170300F4C9FA2275F008E4C833C8C933C933C928
:101713009AC99B5004C92AC93BD5F0ECFBC833F4E2
:10172300C8E4C9FA22600D08C6A2E713C618C61397
:10173300C6D5E0F322600C08C6C313C618C613C689
:10174300D5E0F422700422600D18C6C333C608C660
:1017530033C6D5E0F41822251810AF08F518400257
:1017630015198008F51840021519D2AF22C0D025EB
:101773001810AF08F518500205198008F518500223
:101783000519D2AFD0D0222518F58210AF08F5186D
:10179300400215198008F51840021519D2AF8519B2
:1017A30083222518F582E43519F58322E47325187D
:1017B300C582C0E0E51934FFC583C0E0E518C395D1
:1017C3008224F810AF0885831985821880088583E1
:1017D30019858218D2AFCEF0A3E520F0A37808E6EE
:1017E30008F0A3DEFAEFF0A3E58124FAF8E608F0A7
:1017F300A3E608F0A3E608F0A30808E608F0A3E6CA
:1018030008F0A315811581D0E0FED0E0F81581150D
:10181300811581E8C0E0EEC0E0222518C582C0E052
:10182300E51934FFC583C0E0E518C3958224F91098
:10183300AF088583198582188008858319858218E6
:10184300D2AFCEF0A3E520F0A37808E608F0A3DE3C
:10185300FAEFF0A3E58124FBF8E608F0A3E608F02D
:10186300A30808E608F0A3E608F0A315811581D0C4
:10187300E0FED0E0F815811581E8C0E0EEC0E0227B
:10188300851983851882E0A3FEE0A3F5207808E09C
:10189300A3F608DFFAE0A3FFE0A3C0E0E0A3C0E003
:1018A300E0A3C0E0E0A3C0E0E0A3C0E010AF088580
:1018B30082188583198008858218858319D2AFD051
:1018C30083D082020135851983851882E0A3FEE067
:1018D300A3F5207808E0A3F608DFFAE0A3FFE0A36E
:1018E300C0E0E0A3C0E0E0A3C0E0E0A3C0E010AF2D
:1018F300088582188583198008858218858319D203
:10190300AFD083D08222C0D02518C582C0E0E519AC
:1019130034FFC583C0E0E518C3958224F310AF08F4
:101923008583198582188008858319858218D2AF2B
:10193300C8F0A3E9F0A3EAF0A3EBF0A37908E70961
:10194300F0A3D8FAECF0A3EDF0A3EEF0A3EFF0A32D
:10195300D0E0F0A3D0E0F0A3D0E0F0A3E520F0A323
:10196300E5F0F0A322851983851882E0C0E0A3E0A7
:10197300F9A3E0FAA3E0FBA37808E0F608A3DFFAF3
:10198300E0FCA3E0FDA3E0FEA3E0FFA3E0C0E0A32F
:10199300E0C0E0A3E0F5D0A3E0F520A3E0A3F5F0D9
:1019A30010AF08858319858218800885831985827D
:1019B30018D2AFD082D083D0E0F8D0E03274048064
:1019C30006740280027401C0E0F40412178AD0E0A6
:1019D300121660227404800474028000CCC0E0ED0F
:1019E300C0E0E518C39CCCAD1950011D10AF068CA7
:1019F300188D1980068C188D19D2AF12166DD0E090
:101A0300FDD0E0FC22D083D082E9C0E0E493A3C3FD
:101A130086F0C5F095F0F908E493A386F0C5F09538
:101A2300F0700BE493A3C3994005E9048002A3E497
:101A330075F002A42582F582E5F03583F583D0E0C5
:101A4300F9E493A3C0E0E493C0E022D083D082EC16
:101A5300C0E0EDC0E0E493A3FCE493A3FDED4C6090
:101A63000D121A9AEC24FFFCED34FFFD80EFE49392
:101A7300A3FCE493A3FDED4C600D121AD9EC24FFF3
:101A8300FCED34FFFD80EFD0E0FDD0E0FCE493A358
:101A9300C0E0E493C0E022C0E0C3E493960874017D
:101AA300939618400FE493667008087401936618C0
:101AB30070007019A3A3C3E4939608740193961856
:101AC300A3A3400DD0E0D0E0D0E0021A8AA3A3A3E1
:101AD300A3A3A3D0E022C0E0C0F088F0E493667033
:101AE300080874019366187000A8F0A3A3700BD0C4
:101AF300F0D0E0D0E0D0E0021A8AA3A3D0F0D0E087
:101B03002274F512181DEAFEEBFFEE2434F8EF34CD
:101B130000F988088909EE2435121C30F8EE2437C1
:101B2300121C30F50AEC850AF0A4FCAAF0850AF031
:101B3300EDA42AFDE82CF8E43DF97A257B00121682
:101B4300CFEA850882850983F074075AF87401B8CF
:101B530000028004C333D8FCFBEA131313541FF8A9
:101B6300EE28F8EF3400F9E8245DF582E9121C331E
:101B73005B6003EA801CEE2436121C30F5F0EA8425
:101B8300A8F0EE28F8EF3400F9E82438F582E912DA
:101B93001C33F97F040218C974F512181DEAFEEB11
:101BA300FFEE2434121C30C0E0EE2435F582EF340E
:101BB30000F583D0E0F08E828F83A3A3A3A3A3E0D9
:101BC300FAA3E0FB8E828F83A3A3A3A3A3A3A3E023
:101BD300FCA3E0FDECC39AF50AED9BF50BEE247F25
:101BE300F508EF3400F509850882F583E064017098
:101BF3002BEE2480F582EF3400F5831219DB121CDF
:101C0300397402121770E960137CDC7D04EEFAEF7D
:101C1300FB120BA5850882850983E4F0AC0AAD0BA2
:101C2300EEFAEFFB121B041226CD021B96F582EF90
:101C33003400F583E022C082C0838518828519832E
:101C4300E0F8A3E0F9C3EA9CEB9D5010C3EC98EDD8
:101C530099401BC3EA98EB995014800EC3EA98EBA2
:101C6300994007C3EC98ED9940047901800279000B
:101C7300D083D08222EAC39CFAEB9DFB2274ED123F
:101C8300181D9003A2E064086005E06407702C90BF
:101C930061C8E060269003D0E0F874FF68601CE838
:101CA30075F003A4C8AAF02AF974D228FE74033984
:101CB300FF8E828F83A3A3A3E070057900021E2009
:101CC300EE2468F510EF3400F511906060E08510A4
:101CD30082851183F0750A45750B05750800750932
:101CE30000E5D914F50EE5D95403F50F601CEE2475
:101CF30082F50CEF3400F50D7403650F6058E50EA3
:101D03006013EE2467121C30700B793DEEFAEFFB83
:101D1300120BC980A6900540E064016026850C8201
:101D2300850D83E06004780480027800850E08E561
:101D330008C398FA95E0FB120A498A088B09EA4519
:101D4300097006120E27021CBE850C82850D83E0E6
:101D530070048A0A8B0B78008016E5D9C0E08812DC
:101D6300E50A2512F582E50B3400F583D0E0F0088F
:101D7300E8C3950E40E4850C82850D83E0602874EA
:101D8300FC250EF50E780A1219C4AC0EA90FEEFA53
:101D9300EFFB120C777402121770E9700AAA08ABF2
:101DA30009121307021D0D7403650F6058850E0C8D
:101DB300750D00780C1219C4AC0AAD0BAA08AB0957
:101DC300120C3B7402121770851082851183E0F8A0
:101DD3007480687005750C7F8002880CE50CF50A29
:101DE300780A1219C8E50FF50A780A1219C8A90E5C
:101DF300AC08AD099003D0E0FA7B001208E174024D
:101E030012177080139003A2E06408600BAC0AAD54
:101E13000BEEFAEFFB120D0D120E3379017F0C025C
:101E230018C974F312181D74FC12175AEAFEEBFF5B
:101E33008908A2AFE433F509C2AFEE2463F50AEFD4
:101E43003400F50B8010AA0AAB0B120BF312130725
:101E53009004E3E004F0850A82850B83E0F8A3E0B5
:101E6300F9E849602FE82402FAE93400FBEA240286
:101E7300F50CEB3400F50D780C1219C48A828B83B0
:101E8300E0FCA3E0F9EEFAEFFB120BE77402121782
:101E930070E960B29004E3E060579004E4E0F890E6
:101EA30004E3E0C398500C7402650870449004E5A1
:101EB300E0603E8E828F83A3A3A3A3E0851882856F
:101EC3001983121F0474021217A5E8121F04900449
:101ED300E2E028F074021217A5AC82AD8385188264
:101EE300851983AA82AB8379011208ED9004E3E498
:101EF300F0E509A2E092AF74041217707F0602188E
:101F0300C9F0A3E4F09004E3E0F822000085218700
:101F13008522C622C0E074EF121909A2AFE433FE92
:101F2300C2AF759B00906182E0A2E05012E591A2DE
:101F3300E0500C7591FE740165217003121C80E062
:101F4300A2E55051E591A2E5504B7591DF9003A2B4
:101F5300E064076005E0640870237401652170354F
:101F630079019003D0E0FA75F003A4CAA8F028FB26
:101F730074D22AFA74033BFB121E258018E0640D09
:101F830070139003C4E004F064287002E4F07A0054
:101F9300E0F9120E39906182E0A2E6400302203E8E
:101FA300E591A2E6400302203E7591BF9003A2E0B3
:101FB30064057008120D4F120D5B8003120D5575E9
:101FC3002100120DC7E99003A3F07900120DBB1293
:101FD3000B0F7A017B009003A1E0F9121091907826
:101FE30003E064427055900544E014F0704DC2AFB5
:101FF300121FF600782AD0E0F618D0E0F6E59F54D9
:102003000770057509FF800375097FC4C0E078294F
:10201300E6F50808E65509F509740B780812173830
:10202300D0E02508F8906270E0A2E740F8E8C333F7
:10203300906272F0906270E0D2E0F0906181E0A271
:10204300E35009E5E9A2E3500375E9F7A3E0A2E74A
:102053005009E591A2E7500375917FEEA2E092AF9C
:102063007F04021968C0E0C0D0C082C0839061833E
:10207300E0A2E05009E5BFA2E0500375BFFEE0A275
:10208300E15009E5BFA2E1500375BFFDE0A2E250B4
:1020930009E5BFA2E2500375BFFBE0A2E35009E5E7
:1020A300BFA2E3500375BFF7E0A2E45009E5BFA266
:1020B300E4500375BFEFE0A2E55009E5BFA2E55088
:1020C3000375BFDFE0A2E65009E5BFA2E650037542
:1020D300BFBFD083D082D0D0D0E032C0E074F21240
:1020E3001909E5A7A2E4500FE5A1A2E4500953A7FB
:1020F300EF75A1EF122132E5A7A2E5500CE5A1A2ED
:10210300E5500653A7DF75A1DFE5A7A2E15009E576
:10211300A1A2E1500375A1FDE5A7A2E2500CE5A140
:10212300A2E2500653A7FB75A1FB7F010219687455
:10213300F812181D7521019003A2E0640670077A56
:10214300007B00120D37A2AFE433FED2AF9003A899
:10215300E0640170187A207B009003A1E0F912116A
:102163001B7A207B009003A1E0F912109790618203
:10217300E0D2E6F0900541E0602185C6228016900A
:1021830003A7E064017008E5C654F84405F5C65397
:10219300BEFC121F107401652160E4EEA2E092AF51
:1021A3007F010218C98E238F248582288583278582
:1021B3001882851983E0CEA3E0CF85288285278303
:1021C300EBC9EAC8EDCBECCA75F010C3E833C8E934
:1021D30033C9EA33CAEB33CBC3EA9EF526EB9FF54B
:1021E30025B35004AB25AA26EC33CCED33CDD5F083
:1021F300DAAE23AF242274E912181D74FA12175AA7
:10220300EAFEEBFF8C088D099003A2E024F7C39448
:10221300055006751001022324120CAD8A0A8B0B9C
:10222300EA450B7003022321120D6D8A0C8B0D12EC
:102233000D6DEA650C7003EB650D60ECEEFCEFFDD4
:10224300851882851983AA82AB83120D73850A824E
:10225300850B83A3A3780C12162A909043780C1253
:102263001604851882851983781412162A909043D0
:102273007814121604780C791412143C501F780C3D
:1022830079141215DC90900F780C12145C4047857A
:102293000C10850D11850E12850F13804590900F3C
:1022A3008514108515118516128517137810790C6E
:1022B3001215DC781012145C501C75100075110097
:1022C300751200751301781079141215DC781079E2
:1022D3000C1215A3800C7510017511007512007591
:1022E300130074097810121584909077780C1216E5
:1022F3002A7810790C1214FB9003A2E06408600A98
:10230300E064066005E06405702090900B7810127D
:10231300145C501690902B78101215B6800C751023
:1023230000751100751200751300850882850983F5
:10233300781012163974061217707F100218C974B8
:10234300F712181D120D8590053FE064017010907F
:102353006245E4F0A3F053F4F343FE0C5390F312FD
:102363000D25E5C654804449F5C6E59E547F64496E
:1023730070F8906185740FF090053DE0F47002A34E
:10238300E0602C75080175090090053DE07808129E
:102393001747E508F4FAA3E0600814600A14600C18
:1023A300800DEA52808008EA52908003EA52A079B5
:1023B300007F020218C974F712181DE9FEEAFF74C0
:1023C300016E700C7A807B009003A1E0F9121091EA
:1023D30090274CE493F46008E493F9120AF180091E
:1023E30053C680E59E547F70FA120D2B90053FE093
:1023F30064017003120B2790053DE0F47002A3E023
:10240300602A75080175090090053DE078081217E8
:1024130047AA08A3E0600814600A14600C800DEA60
:1024230042808008EA42908003EA42A0120CAD8AFF
:10243300088B09A808A909E8496017E5E170FCE8D9
:102443002414F582E93400F583E0F874FF68600230
:1024530088E174016F700A7A019003A1E0F9121008
:10246300E50223B474F112181D8A088B098C0A8DB6
:102473000B9090437808121604740F1217A5780C6A
:1024830012162A909043780C1216047808790C12CD
:10249300143C90900F50107808790C1215DC7808D2
:1024A30012145C4014800E780C79081215DC780C39
:1024B30012145C50047901800279007F080218C964
:1024C30074ED12181D8A088B098C0A8D0B909043AA
:1024D300780812160474131217A5780C12162A9092
:1024E3009043780C121604780C790812143C4011AE
:1024F3007808790C1215DCAA08AB09AC0AAD0B807D
:10250300227510007511007512007513017810798A
:102513000C1215DC781079081215A3AA10AB11ACB4
:1025230012AD137F0C0218C9909043780812162A33
:102533008A828B8378081216177F040218C974F5F0
:1025430012181D8C828D83780812162A8A828B8337
:1025530078081215F0122595C3E098F0A3E09912BC
:102563002587401E90902F780812162A8A828B8323
:1025730078081215C98E828F83E02420F0A3E034FB
:102583004EF080A4F08E828F83C3E09420A3E09466
:102593004E22EA2404F8EB3400F9E8FEE9FF8C82CA
:1025A3008D83A3A3A3A3E0F8A3E0F98E828F8322F4
:1025B30074F512181DE9FE9004F7E0FAA3E0FBEEB0
:1025C300C333F8E433F9740028F582748F39F58343
:1025D300E02AF508A3E03BF50978081219C49090A6
:1025E3005F1216481221A874021217708A088B0909
:1025F3008C0A8D0B7410780812156BAA08AB097F2F
:10260300040218C974F112181D8A0C8B0D8C0E8DDF
:102613000F740F1217A5E0FAA3E0FB74111217A5AC
:10262300E0F508A3E0F50978081219C4EA2401F5D6
:1026330008EB3400F509E4F50AF50B780C79081278
:10264300147B908FF7780812162A780C79081214E5
:102653007BAA0CAB0DAC0EAD0F1221A8740212179E
:10266300708B09EA450960047A0180027A00EC2A3A
:10267300FCED3400FD74131217A5E0F8A3E0F9E8AC
:10268300FEE9FFECF8EDF97A717B021216CF8808A8
:102693008909E4F50AF50B8E828F837808121639BF
:1026A300ECF8EDF97A717B021216CF8A088B097464
:1026B3000578081217478E828F83A3A3A3A3E50887
:1026C300F0A3E509F07F080218C9C082C083E9902E
:1026D3006000F0D083D08222C2AF02000022C0E0AB
:1026E30074F2121909A2AFE433FED2AFE589A2E175
:1026F3005003121277758900C2C5751A00EEA2E065
:1027030092AF7F01021968C0E074F2121909A2AFF7
:10271300E433FED2AFE58BA2E05003121277758B40
:1027230000C2E880D5C0E0C0D0E8C0E0E9C0E0E581
:10273300A8D2AFC2C7751A00A2E7A2E792AFD0E052
:10274300F9D0E0F8D0D0D0E032FFFFFFFFFFFFFF6A
:10275300FFC082C083E99009E7F00229E374F7120E
:1027630017B1E99002E1F07C197D037AFF7BFF1238
:1027730008339002E274FFF0A3F0A3E4F0A3F0792E
:10278300051207BB9002E1E0F91206DD7A517B08DE
:102793001209FB7F0102188374F41217B18A088BA4
:1027A30009EB548060309002E1E0F91210798A0A53
:1027B3008B0BAE0AAF0BEE4F60138E828F83E064F8
:1027C300B070031207D3EEFAEFFB121067AA08E505
:1027D300096480FB80047A007B000229B274F21240
:1027E30017B174FC12175AEAFEEBFFEE4F60387410
:1027F300021217A5EEF0A3EF122C17ECF0A3ED12C3
:102803002C17AA82AB831206D7E9F50870737412EA
:102813001217A51237CBE50A450B60658E828F83AD
:1028230012288EEE4F700575080280557A067B00DC
:102833001210CD8A0C8B0DA80CA90DE849700575F3
:102843000813803D88828983E4122898A3A3EEF0BD
:10285300A3EF123C64E50AF0A3E50BF09002E71244
:1028630029209002E76017E0FCA3E08003EAFCEB79
:10287300FD8C828D8312292070F38C828D83123616
:10288300F0A9087404121770023E66A3A3A3A3E081
:10289300FEA3E0FF22F0A3F0888289832274F21260
:1028A30017B1890AE975F017A4FEAFF09002E6E4C8
:1028B300F09002E4122920600A1210D39002E4E49B
:1028C300F0A3F0EEFAEFFB1210CD8A088B09EA456C
:1028D30009602FEEFCEFFD790012104F9002E4E542
:1028E30008F0A3E509F07B00800812290AE4F0A3AD
:1028F300F00BEBC3950A40F2E50A9002E6F079008B
:1029030080027913023E66EB75F017A4F8A9F090E4
:1029130002E4E028FAA3E0398A82F583221234869E
:10292300EA4B2274F41217B1750800750900740C90
:102933001217A5123C38FEE9FF800CE5082401F5C7
:1029430008E5093400F509C3E5089CE5099D503203
:1029530085080A85090B7403780A121747EA250AC2
:10296300F8EB350BF988828983A3A3A3A3A3A3124E
:1029730037CBEE650A7003EF650B70BFE8FAE9FB2E
:1029830080047A007B00802774F41217B17900EA7F
:10299300A2E0501B7508DA75098F78081219C47CF8
:1029A300047D007AE97B091207B574021217707F60
:1029B30004021883C082C0839002E71229EA601CD4
:1029C30088828983A3A3E06A7003A3E06B8882896A
:1029D3008370E8A3A3A3A312348280047A007B004C
:1029E300D083D082020135123F39E8492274EE12B6
:1029F30017B174FC12175AEAFEEBFF85188285198A
:102A030083E4F0A3F0EE24021236D4EE2405122C54
:102A130005EE2404F50EEF122FEAE024FE603924BC
:102A2300FC604624FE605224FE605E24FE700302B6
:102A33002B0A24FE7003022B8224FE7003022B91C7
:102A430024FE7003022BA024FC7003022BAF24FE90
:102A53007003022BBE022BFB9003007417F0A3E458
:102A6300122C1F120455022BFB851882851983AC87
:102A730082AD831207D9022BCB851882851983ACCB
:102A830082AD831207DF022BCB850C08850D0974F9
:102A9300021217A5AC82AD8385088285098312349F
:102AA300821206FB8A0C8B0DAC0CAD0DEC4D604213
:102AB300E4F50CF50D780C1219C4750C00750D03B3
:102AC300780C1219C4750C01750D03780C1219C416
:102AD30074081217A51219DB791612347C12081B1D
:102AE3007408121770E9F50C700B12347812046D28
:102AF300800F750C01850882850983122C0D12360F
:102B0300F0850C08022BCE74021217A5AC82AD839C
:102B1300850C82850D831234821206FB8A108B1179
:102B2300AC10AD11EC4D6043850C82850D83A3A3DE
:102B33001219DB75100075110378101219C4751082
:102B43000175110378101219C474081217A512190C
:102B5300DB791612347C12081B7408121770E9F51E
:102B630009700B123478120473800F750901850CF8
:102B730082850D83122C0D1236F0850908804C8551
:102B83001882851983AC82AD831207E5803A8518D4
:102B930082851983AC82AD831207EB802B85188263
:102BA300851983AC82AD831207F1801C8518828559
:102BB3001983AC82AD831207F7800D8518828519BE
:102BC30083AC82AD831207FDE9F508E50860298E21
:102BD300828F83A3E06414601F850E82850F83E0D8
:102BE300900300122C17123F359003011236F0E5C3
:102BF30008A3122C1F12044FEEFAEFFB12077902FF
:102C030035DCF50CEF3400F50D22123F39851882BF
:102C130085198322F085188285198322F07C007D33
:102C230003850A82850B831234862274EE1217B150
:102C330074FC12175A8A0A8B0B8C0E8D0FEA24052B
:102C4300F508EB3400F5097C157D0079007A007BEB
:102C53000312104FE5082402F50CE509122C088530
:102C6300188285198385821085831178101219C4FF
:102C7300850882850983A3A3A3A31231321219C441
:102C8300E5082405F510E5093400F511781012194B
:102C9300C4850C82850D8312348C1206F5740612DA
:102CA30017708A108B11AE10AF11E50A2402F50AD2
:102CB300E50B1236D7EE4F7003022DF48017740222
:102CC3001217A512348288828983EAF0A3EBF0906D
:102CD3000300E004F0900300E0C394054003022DD9
:102CE300F4E4F510F51178101219C47510E9751193
:102CF3000278101219C47510EA75110278101219AE
:102D0300C474061217A51219DB7910EEFCEFFD123D
:102D1300347C12081B7408121770E9705E850882F0
:102D2300850983A3A3A3A3A3A3A3E0F89002E9E0E7
:102D33006870481231321219C47CEA7D02E5082416
:102D430008FAE5093400FB1210497402121770E9FE
:102D530060298E828F83A3A3A3A3123482900300DE
:102D6300E0F5107402781012174774012510F582EC
:102D730074033511F583EAF0A3EBF074021217A57F
:102D830085821085831178101219C474021217A555
:102D93001219DB850C82850D83123F4A12070174D9
:102DA300041217708A108B11AE10AF11900300E05C
:102DB300F51075110074027810121747740025106E
:102DC300F874033511F988828983A31229207003CB
:102DD300022CB8E82403F8E93400F9EE4F6003024B
:102DE3002CC18882898374FFF0A3F0900300E00470
:102DF300F0900300E0600A123478120461790080D5
:102E03000B8508828509831236E7790A0235DC745B
:102E1300EA1217B174FE12175A8C128D13EA2405A5
:102E2300F50CEB1240B4122892750800750900EAFC
:102E33002402F510EB3400F511851882851983857A
:102E4300820A85830B780A1219C4850C82850D8347
:102E5300A3A3A3A3122FF41219C4E50C2405F50AA6
:102E6300E50D1236D7780A1219C4850C82850D83B5
:102E7300123F481206F574061217708A0A8B0BEA82
:102E8300450B7003022FA5EA2404F50EEB122FEA7B
:102E93001228928A828B83A3A3A3E0F985108285EB
:102EA30011831234821206E3E9F5096003022FA5A8
:102EB300E4F514F51578141219C47514E97515029F
:102EC30078141219C47514EA75150278141219C40A
:102ED30074061217A51219DB7913AC0AAD0B851012
:102EE3008285118312348212081B7408121770E949
:102EF300F5096003022FA59002E9E0F8E5087009DF
:102F0300E02402900301F08017900301E0FCE82421
:102F130002FAE43400FBEA6C7001EB6003022FA9B0
:102F2300850882AA821231299414123121507385A3
:102F33000E82850F83E0C0E074022A122FE1D0E0F5
:102F4300F00508850E82850F83A3E0C0E085080A9B
:102F53007402250A122FE1D0E0F005089002E9126D
:102F63002FF41219C47CEA7D0285080A7402250A2B
:102F7300FA74033400FB12103774021217709002B4
:102F8300E9E02508F50874FF6E700374FF6F6012A3
:102F9300EE24010EEF3400FFE508C394145003023E
:102FA3002E3CE508601312336D8510828511831260
:102FB300348212046779008014E509700375090AE5
:102FC300851282851383EEF0A3EFF0A90974021230
:102FD30017707F0E02188385080C7402250CF58286
:102FE30074033400F583223400F50F850E82F583D4
:102FF30022123C772274EE1217B174FE12175A8C08
:103003000E8D0FEA2405F50CEB122C08750B0090BE
:103013000300E4F0F50AEA2402F508EB3400F509AD
:103023008049900300E0FA9002E9E0F81231299414
:1030330017123121400D900300E0F87416C39890E5
:1030430002E9F01231321219C47CEA7D0274012ABA
:10305300FA74033400FB12103774021217709002D3
:10306300E9E0F8900300E028F0050AE50C2416F5E2
:1030730082E50D122FE5E0F8E50AC398400302311B
:103083000A900300E0C39416507DE50AC333F8E4C5
:1030930033F9E50C28FEE50D39FF85188285198380
:1030A300AC82AD838E828F831234821206FB8A1028
:1030B3008B11AC10AD11EC4D7005750B018043E421
:1030C300F510F51178101219C47510E9751102780D
:1030D300101219C47510EA75110278101219C4740C
:1030E300061217A51219DB79168508828509831242
:1030F300348212081B7408121770E9F50B7003026F
:1031030030251236E380107C007D03850882850913
:1031130083123482120479A90B74020235DEE99416
:1031230000C365D03322EA28F8E43400F9E822E04A
:10313300F51075110078102274EA1217B174FC129D
:10314300175A8A0C8B0D8C128D13EA2405F50AEBA2
:103153001236D7750800750900E50A2402F510E553
:103163000B3400F51174021217A585820E85830FA7
:10317300780E1219C4850A82850B83A3A3A3A31215
:103183003C231219C4E50A2405F50EE50B3400F5BA
:103193000F780E1219C48510828511831236DD1241
:1031A300347C1206F574061217708A0E8B0FAE0E5E
:1031B300AF0FE50C2402F50EE50D3400F50F80404A
:1031C3008882898374FFF00508122FDA74FFF005F3
:1031D300089002E9E0F50C750D00780C1219C47C17
:1031E300EA7D0285080C7402250CFA74033400FB93
:1031F30012103774021217709002E9E02508F508DF
:10320300EE4F60718E828F83A3A3A3E0F9850E82B4
:10321300850F831234821206E3E9F509EE240412C2
:103223002C05E97044E4F514F51578141219C475E6
:1032330014E975150278141219C47514EA75150288
:1032430078141219C474081217A51219DB7911EE38
:10325300FCEFFD850E82850F8312348212081B74E6
:1032630008121770E9F5096027850C82850D831212
:1032730033631236F0E508700302334912336D8568
:103283000E82850F8312348212047F790002335E2B
:10329300850882AA82EA9002E97009E02404900377
:1032A30001F08022E0F8900301E0F514E82404FC27
:1032B300E43400FDEC65147001ED70C01231299403
:1032C3001212312150B6850C82850D83E0C0E07463
:1032D300022A122FE1D0E0F00508850C82850D83C8
:1032E300A3E0C0E0122FDAD0E012337F85820C8591
:1032F300830D780C1219C474041217A51219DB85F7
:103303001082851183123F4A120701740412177049
:103313008A0C8B0DAE0CAF0D85080C7402250CF8CE
:1033230074033400F9EE4F70030231C385188285AC
:103333001983E08882898312337FA3E0C0E0122FD0
:10334300DAD0E00231D1E509700375090A850A82F2
:10335300850B831233631236F0A9097404022FD24A
:10336300123F3985128285138322900301E0F5F021
:10337300E50884900300F07C007D0322F0050885B6
:1033830018828519832274EC1217B174FE12175A2E
:103393008A088B098C0E8D0FEA2405FEEB3400FF9F
:1033A300851882851983AC82AD838E828F83123414
:1033B300821206FB8A0A8B0BEE2418122C05EA45AF
:1033C3000B70030234531235C550328518828519A8
:1033D3008312348212080F8A108B11EA4511606B35
:1033E3007912AC0AAD0B8508828509831234828574
:1033F30010828511831217AFE9F50A7058E4F50AB4
:10340300F50B780A1219C48E828F83A3A3E0F50A01
:10341300780A1219C4EE24031236D4780A1219C496
:103423008E828F8312348C1208217406121770E96E
:10343300F50A7021850C82850D83E0701F85088253
:103443008509831234821204858011750A0E80095E
:10345300750A018004E50A60031236E3850C828550
:103463000D83E0600479008002A90A7402121770C8
:103473007F0C0218837C007D03850A82850B8312EF
:10348300348622E0FAA3E0FB22E0FCA3E0FD8508FA
:10349300828509831234862274EE1217B174FE12E8
:1034A300175A8A088B098C0C8D0DEA2405FEEB3420
:1034B30000FF750E00851882851983AC82AD838E5B
:1034C300828F831234821206FB8A0A8B0BEA450B26
:1034D30070030235B11235C55035851882851983BD
:1034E30012348212080F8A0E8B0FEA450F605E7941
:1034F30012AC0AAD0B850882850983123482850ECE
:1035030082850F831217AFE9F50E60030235B48588
:1035130008828509831237CBAA0AFB1208038A1093
:103523008B11A810A911E849701E7AFF7BFF1208BE
:10353300038A108B11A810A911E849606C8882894D
:1035430083E50AF0A3E50BF0750A008007750E0EFC
:10355300805F050A9002E6E0FAE50AC39A504AE55D
:103563000A75F017A4FAABF088828983A3A3E02A33
:10357300FAA3E03BFB8A828B831236DDEC4D70D2DB
:10358300750A17750B00780A1219C4EEFCEFFD12C9
:1035930010377402121770EEFCEFFD85088285095F
:1035A3008312348212048B8014750E098003750E06
:1035B30001123F31850C82850D831236F0A90E026C
:1035C300311CE5082402F508E5093400F5098A826F
:1035D3008B83A3A3A3E0A2E52274041217707F0ACE
:1035E30002188374EC1217B18C108D11EA2405F5BF
:1035F3000CEB122C08750F00EA2402F50AEB1236C5
:10360300D7850A82F5831234821208038A088B094C
:10361300EA450970030236C9750E008071850C8274
:10362300850D83E06401704F8E828F83A3A31219EB
:10363300DB8E828F83A3A3A3A3E0F5127513007817
:10364300121219C4EE2405F512EF3400F5137812A3
:103653001219C412347C1208217406121770E9F58A
:103663000F6014850C82850D83E4F0123F318510C1
:10367300828511831236F07C177D007900EEFAEF14
:10368300FB12104F8E828F83E4F0A3F0050E90029D
:10369300E6E0F8E50EC398501EE50E75F017A4F8A2
:1036A300A9F0850882850983A3A31240BE1236DDE3
:1036B300EC4D600302362085088285098374FFF090
:1036C300A3F0E50F700612347C120491A90F0234A3
:1036D30073F50AEF3400F50B22A3E0FCA3E0FD220F
:1036E3008E828F83123F39850E82850F83E8F0A384
:1036F300E9F022C082C0839002E2E06A7003A3E093
:103703006B70067AE27B0280047A007B000229E375
:10371300C082C08378008C828D83E06A7003A3E04B
:103723006B7010E875F003A4F8A9F0EC28FAED39F2
:10373300FB8015088C828D83A3A3A3E06A7003A387
:10374300E06B60DF7A007B000229E374F61217B1A5
:103753001207CD8A828B83E582458370067A007BCC
:10376300008007A3A3A3A3123482023DE274F212E2
:1037730017B1E9FE740E1217A51237CB7410121786
:10378300A5123C438C828D83E064027036A3123F02
:103793003FF50CA3E0F9A80C74026870037429695F
:1037A3007021750C02750D00780C1219C47808127B
:1037B30019C4780A1219C4EEF912084574061217CF
:1037C3007080027901023E66E0F50AA3E0F50B2260
:1037D30074E81217B174FB12175AE9851882851918
:1037E30083F08A168B17ECFEEDFF751000741D1223
:1037F30017A5123F35741D1217A51236F08E828F4E
:1038030083A3A3A3E0A2E4502D741D1217A51234C1
:103813008212080F8A828B83E58245837003023C00
:1038230014790AEEFCEFFDAA16AB171217AFE9F5F0
:10383300106003023C17741F1217A5123C43742136
:103843001217A51237CB74231217A5E0F50EA3E0C8
:10385300F50F8E828F83E064026003023BC2A312E2
:103863003F35850882850983A3858212858313EEFC
:103873002406122C0588828983E0FAA3E0F9EA245E
:1038830000F514E439F5157814121A4E01000028D6
:103893000128B738070002287C390328E9380029B2
:1038A300B33A0129DE3A02297F3A0329B33A0429BC
:1038B3005D3BC23BE50E450F6003023BBD850C82B9
:1038C300850D83123C38FAE9FB8A828B83E0850AF3
:1038D30082850B83123C6E1219C48A828B83A3E008
:1038E300FCA3E0023B47E50E450F6003023BBD85A9
:1038F3000A82850B837401F0123C4B85088285098B
:1039030083F07C007D008E828F83A3A3A3A3E02496
:1039130001FAA3E03400FB1206FBEA4B60418A8202
:103923008B83E02402F8850A82850B83E028F0EA82
:103933002404F8EB3400F988828983E085128285B8
:103943001383123C80123C6E1219C48A828B831239
:1039530036DCE5082403FAE5093400FB023B4C8519
:103963000A82850B83E02404F07C047D007900AA9D
:1039730012AB1312104F023C17E50E450F60030202
:103983003BBD123C4BFEA3E0FF850A82850B83748B
:1039930004F0EE850882850983F0EF851282851392
:1039A30083F074031217A5AC82AD83EEFAEFFB121A
:1039B30006FB8A0C8B0DEA450D7003023A608A827E
:1039C3008B83A3A312288E74011217A585820E85FB
:1039D300830F780E1219C474051217A51219DB7C14
:1039E300FF7DFF12070174041217708B0FEA450F56
:1039F3007033850C82850D83123C231219C4850C08
:103A030082850D83A31219DB7C027D007A947B905F
:103A130012052D7404121770E9700A74011217A5A8
:103A230074FFF0A3F08E828F83E064027039750C0B
:103A330002750D00780C1219C48E828F831236DC46
:103A4300E5082404FAE5093400FB12103774021266
:103A53001770850A82850B83E024028009740112A2
:103A630017A5EEF0A3EFF074011217A5123C34F082
:103A730074011217A5A3123C2C023BB7E50E450FA8
:103A83006003023BBD850C82850D831236DDAA16C9
:103A9300AB17120839850A82850B837402F0EA8515
:103AA3000882850983F0851282851383EB023BBA72
:103AB300E50E450F6003023BBD123C4BF8A3E0F952
:103AC300850A82850B837402F0E885088285098361
:103AD300F0E9851282851383023BBA850C82850D3A
:103AE30083123482121031EAFC8C82A882C3950EB1
:103AF300E4950F405FE8650E7002E50F70047C00EB
:103B03008022851882851983E0FAE50E2AFAE50FEB
:103B13003400FBC3EA98EB94005003E08005E50E04
:103B2300CCC39CFCEC850A82850B83F08C0A750B55
:103B330000780A1219C4850C82850D83E0250EFCDA
:103B4300A3E0350FFDAA08AB091210377402121750
:103B530070023C17751007023C17E50E450F705AAB
:103B6300850C82850D83123F35850A82850B83740C
:103B73000712289A123C2C12289AA3E085128285F8
:103B83001383F0E82402FAE93400FB8A828B831260
:103B93003C2C123C5B123C34A3123C64123C3DF0BF
:103BA300E82405F8E93400F988828983123C3DA3AF
:103BB300123C80A3A3A3A3F0805A75100B80557405
:103BC3001D1217A51234821207CD8A828B83E582D8
:103BD3004583603D123F35880C890DE8450D603102
:103BE300780E1219C4780A1219C478081219C47409
:103BF300061217A5E0F9EEFCEFFDAA16AB17850C2C
:103C030082850D831217AF7406121770E9F51080C1
:103C13000375100EA91074051217707F1002188314
:103C2300E0F50E750F00780E22E085088285098382
:103C330022123C8A22123F39E822123C8AA3A32291
:103C4300E0F508A3E0F50922850C82850D83E0F8F1
:103C5300A3E0F5838882E022A3A3F08A828B83A367
:103C630022F088828983A3A3A3A322F08A828B8371
:103C7300123C7722E0F50A750B00780A22F088825D
:103C83008983A3123C8A22E0850882850983A3A342
:103C93002274EE1217B174FE12175A8A0A8B0BECB8
:103CA300FAEDFB74141217A5E0F510A3E0F51174F7
:103CB300161217A5E0FE74181217A5E0F50EA3E07F
:103CC300F50F851882851983AC82AD831206FB8AB2
:103CD3000C8B0DEA450D60498518828519831234D2
:103CE300821207CD8A828B83E5824583602FA3A34B
:103CF300123C43E50845096024780E1219C4781074
:103D03001219C4EEF9AC0CAD0DAA0AAB0B850882EF
:103D13008509831217AF74041217708006790E8019
:103D230002790102311C74F61217B174FE12175A8C
:103D3300740C1217A5123C38851882851983F07408
:103D4300011217A5E9F0E4F508F50978081219C47A
:103D530075080278081219C474041217A58582081D
:103D630085830978081219C4120821740612177082
:103D73007402121770806874F71217B1EAFEEBFF32
:103D830089087C197D03120839EA5402600BA908DB
:103D9300EEFAEFFB1206EF8002790102279674F622
:103DA3001217B174FF6A700374FF6B70168C828DE7
:103DB30083123DE7E4F08C828D83A3A3A3123DE736
:103DC300A380181208098A088B09A808A909E849D9
:103DD300600D8882898374FF122898A3A3E4F07F7F
:103DE3000202188374FFF0A3F08C828D83A3A322B5
:103DF30074F61217B11208098A828B83E582458310
:103E03006006A3A3E0FA80027A007B0080D174F2FB
:103E13001217B18A088B09ECFEEDFF740E1217A579
:103E2300E0F50A1208098A0C8B0DA80CA90DE849C4
:103E33007026EEFCEFFD7AFF7BFF1208098A0C8BDC
:103E43000DA80CA90DE849700479118016888289A0
:103E530083E508F0A3E509F088828983A3A3E50A33
:103E6300F079007F0602188374EE1217B1EAFEEBB5
:103E7300FF8C088D09890C74141217A5123F357431
:103E8300161217A5123482750D00E8496003023F2C
:103E9300297402650C6003023F2474121217A512E1
:103EA3003F3FFCA3E0F9EC2400F50EE439F50FEAFB
:103EB300F4F8EBF4F9EC58F8E50F59F9E849705CBC
:103EC300E5082406F8ED3400F9880A890B8882F5A1
:103ED30083123F4A1208398A108B11E50E65107060
:103EE30004E50F65116042780E1219C4850A8285B4
:103EF3000B83123F4A12083F7402121770E9F50D43
:103F03007027780E1219C4850882850983A3A3122A
:103F13003F481208577402121770800D750D808088
:103F230008750D0D8003750D0BA90D0235E18E8209
:103F33008F83123F3922E0F8A3E0F922123F398838
:103F4300828983E022A3A3E0FCA3E0FDEEFAEFFB6A
:103F53002274E81217B174E712175A85188285196B
:103F630083EAF0A3EBF08C168D17890E75080075A4
:103F7300090074311217A5E0F512A3E0F5137433A9
:103F83001217A5E0F514A3E0F51574351217A5E093
:103F9300F50FE50975F003A4F8A9F08518828519D2
:103FA300831240BEE0F47003A3E0F470030240A167
:103FB300EE2402F50CEF1240B4E070030240A18539
:103FC300160A85170B780A1219C4AC14AD15AA1278
:103FD300AB131207C174021217708A0A8B0BEA45DE
:103FE3000B70030240A1E4F510F51178101219C407
:103FF30074061217A585821085831178101219C4CF
:1040030074091217A585821085831178101219C4BB
:10401300851282851383A3A3A3A31219DB7914AC9E
:104023000AAD0B8E828F8312348212081B7408121E
:104033001770E97069850A82850B83A3A3A3A31272
:104043003F3574021217A51236F0850C82850D8355
:10405300E0A2E05018A90E74021217A5AC82AD833A
:104063008E828F83123482120713E94208850C82F1
:10407300850D83E0A2E15026E50FF50A780A1219AF
:10408300C8A90E74031217A5AC82AD838E828F83E9
:1040930012348212070D7401121770E942080509E0
:1040A300E509C394025003023F95A9087419023C21
:1040B3001B3400F50D850C82F58322E028FEA3E076
:1040C30039FF8E828F832274F21217B1EAFEEBFF5F
:1040D300890B7401650B600E7402650B706A7901BC
:1040E300120A19E97062EEFAEFFB1208038A088BD1
:1040F30009EA45096047750A00800B7C177D007942
:104103000012104F050A9002E6E0F8E50AC3985042
:1041130021E50A75F017A4F8A9F0850882850983BB
:10412300A3A3E028FAA3E039FB8A828B831229EA4E
:1041330070C985088285098374FFF0A3F07C197D1B
:1041430003EEFAEFFB120833023E6674F21217B164
:104153008A088B09ECFEEDFF740E1217A51237CBFC
:104163009009E7E0F4603D7A097B00121061EA4BA5
:1041730060328A828B8374B1F0A3E4123C5DA31294
:104183003C5BA3E508F0A3E5091241AAEEF0A3EF17
:104193001241AAA3A3E50AF0A3E50BF09009E7E017
:1041A300F912106D023E66F08A828B83A3A3A3A348
:1041B300A32274F01217B174FA12175A890BECFE8A
:1041C300EDFF750A008A088B097808121A080004A3
:1041D30010E843F84116423042484266427E42A10B
:1041E30042B942CD42F7427F439043A743C243E8DB
:1041F30043E8430D437401650B60030243E38E827E
:104203008F83E0F8C3940340030243E3E8900AD3A7
:104213000243BF7402650B60030243E38E828F8304
:10422300124AE5900AD4E8F0A3E90243BF7401659A
:104233000B60030243E312441040030243E3E8909C
:1042430007660243BF7401650B60030243E38E827A
:104253008F83E0F8C3940540030243E3E8900767C4
:104263000243BF7401650B60030243E31244104031
:10427300030243E3E89007680243BF7410650B60D1
:10428300030243E375081075090078081219C47A0C
:10429300697B071210377402121770024409740104
:1042A300650B60030243E312441040030243E3E857
:1042B3009007790243BF7401650B60030243E38EE9
:1042C300828F83E0900AD70243BF7404650B6003B7
:1042D3000243E38E828F83780C12162A90905F78C4
:1042E3000C12145C50030243E390077B780C121604
:1042F30039024409E960030243E312069BE97005AE
:104303001211CF806090080E806E7407650B6003F6
:104313000243E375080675090078081219C48E82F2
:104323008F83A3AC82AD8374021217A5AA82AB83D9
:1043330012103D74021217707C007D00851882856F
:104343001983AA82AB838E828F83E0F9121175E9F8
:10435300F508C3940A400302440612069BE9700C55
:10436300A9081211D57950121385806F740F25088F
:10437300F58274083400F583740180407401650B81
:10438300705E1244105059E890077A802F740165CB
:104393000B704D8E828F83E0F8C3940A5042E890ED
:1043A3000AD680187401650B70368E828F83E0F80D
:1043B30074F928C3940A5028E8900AD8F080477407
:1043C30001650B701B90080DE0F88E828F83E090DF
:1043D300080DF0E87030E06401702B1211C38026E1
:1043E300750A188021C3EA9427EB940050157402D0
:1043F300650B700F8E828F83124EE4120539E9F537
:104403000A8003750A02A90A7406024ADA8E828FA9
:1044130083E0F8C394022274F01217B174CC12171C
:104423005A8C0A8D0B74201217A5AC82AD83758349
:104433008F7582E0740612166D74201217A5AC8274
:10444300AD83121175E9F50874441217A5E0FEE96E
:10445300C3940A400302458875F006E9A4F509747C
:10446300261217A5AC82AD837A0E74202509F912A2
:10447300137FE9700974321217A5E0FF80027F00F1
:10448300900AD3E06402700474018001E4F50D78AE
:104493000D1219C8EEFDEFFCA908AA0AAB0B121105
:1044A300F974011217707C147D007900740C1217D3
:1044B300A5AA82AB8312104F740C1217A5AC82AD60
:1044C300837A1074242509F912137FE9703C7C1058
:1044D30079FF740C1217A5AA82AB831210B5E97089
:1044E30029741C1217A5AC82AD837A04742525099F
:1044F300F912137F740C1217A5AC82AD83EFA2E0FF
:10450300E433F9AA0AAB0B1205C385188285198314
:10451300AC82AD837A0C74702508F912137FE970AD
:1045230053851882851983AA82AB831211A5750856
:1045330000E50875F003A4F8A9F0851882851983AE
:10454300E58228F8E583124CEE124EDE601D888268
:104553008983A3A3E0F50E750F00780E1219C4AA80
:104563000AAB0B12082774021217700508E508C37B
:10457300940440BDEFA2E1500C900765E0F9AA0A4C
:10458300AB0B12082D74046E7027900AD3E06402FB
:10459300701F7A00900779E060010A900766E06077
:1045A30004780480027800E84AF9AA0AAB0B1206E1
:1045B3008379007434024ADA74F01217B1EAFEEB1D
:1045C300FF8C088D09750A0AE9600C1460091460F0
:1045D3003714607902466A1211B7E9F50AC3940ADF
:1045E300400302466AE5084509607C750E06750FAF
:1045F30000780E1219C4EEFCEFFDAA08AB091210E5
:10460300377402121770805F750B00750E06750FF5
:1046130000780E1219C4EEFCEFFDE50B75F00EA445
:10462300F8A9F0748728FA740739FB121049740249
:10463300121770E9600C850B0AE50AC3940A502728
:104643008016050BE50BC3940A501C80BE1211BDE6
:10465300E9F50AC3940A500FE50845096009AA0859
:10466300AB09A90A1211B1A90A024ADD74F412179F
:10467300B1890875091574FF6A700374FF6B70279D
:104683007E00AC087A027B00EEF9121193E9600315
:104693007509000EEEC3940A40E8E50860537AE713
:1046A3007B11120A2B804A120A0D8A0A8B0BAE0A5F
:1046B300AF0BEE4F60387C007D00EE2405FAEF343B
:1046C30000FB8E828F83A3A3A3A3E0F9121175E9E4
:1046D300C3940A500CAC087A027B0012119375093B
:1046E30000E508600CEEFAEFFB1211E78003750991
:1046F30014A9098005740E1217707F0402188374BD
:10470300F21217B1ECFEEDFF750815740E1217A522
:10471300E0F50AA3E0F50B74FF6A700374FF6B7096
:1047230021750900AC0AAD0BEEFAEFFBA9091211D2
:1047330099E960037508000509E509C3940A503F28
:1047430080E2120A0D8A828B83E5824583602D7C89
:10475300007D00E5822405FAE5833400FBA3A3A3CF
:10476300A3E0F9121175E9C3940A5013AC0AAD0B17
:10477300EEFAEFFB1211997508008003750814A96E
:1047830008025520C082C08390077FEAF0A3EBF0B4
:10479300900765E0FC7D007A267B001205399007BF
:1047A30065E0F91207A302537B74F01217B174EC9E
:1047B30012175AEAFEEBFFEE240CF50CEF3400F56A
:1047C3000DEE2405F50EEF3400F50FEE2409F50A7E
:1047D300EF3400F50BEE2403F508EF3400F5098EF2
:1047E300828F83A3A3E024FA7003024A7E24FD7020
:1047F3000302499914700302488514601024FD7064
:10480300030249701470030249CD024AD612571BA2
:104813006048E0F5838882124AE5880E890FE845EF
:104823000F6037850C82850D83E0F50C780C121927
:10483300C8EE240BF582EF124CB5F9850A82850B7D
:1048430083124EE40A0A0AAB09850E82850F83128E
:1048530017AF7401121770024AD6850A82850B833B
:104863001219DB90077B1216481205D57402121732
:1048730070E97003024AD67901850A82850B8302A7
:104883004A498E828F83A385820A85830BE0600366
:10489300024953850E82850F83E0A2E0400302495B
:1048A3005390081912571E60030249537C0E7D0072
:1048B3007900851882851983AA82AB8312104F85EC
:1048C3000C82850D83125346EA4B6010750C0675F6
:1048D3000D00780C1219C4EA2410801B12534012E5
:1048E3000A0DEA4B7003024AD6750C06750D007863
:1048F3000C1219C4EA2405FCEB3400FD74021217F0
:10490300A5AA82AB831210377402121770850E8228
:10491300850F83E0A2E25004D2F08002C2F0A2F03D
:10492300E433F8740C1217A5E048F0EEFCEFFD85B4
:104933001882851983AA82AB831211ABE970117AAD
:10494300027B00900765E0F91210917900024AD8C2
:1049530012571B7003024AD6124AEB7003024AD65F
:10496300850A82850B83E0FC7901024A7212571B88
:104973007003024AD6124AE2890BE8450B70030220
:104983004AD68E828F83A3E0FC7902125340888239
:10499300850B83024A797C007D00EE2404FAEF3410
:1049A30000FB850882850983E0F9121175E9F8C3D4
:1049B300940A4003024AD6EE240AFCEF124EBAE8E8
:1049C300A42425F9121379024AD612534090077A88
:1049D300E06007900AD6E0F9806F900AD3E0700494
:1049E30079058065120A0D8A0C8B0DA80CA90DE8B8
:1049F3002404F50CE93400F50D8E828F83A3A3A361
:104A0300A3A3A3A3E0A2E05046E8497003024AD659
:104A1300850C82850D83E0FE6035850A82850B83D4
:104A2300E05410702A740E1217A5AC82AD83E824EB
:104A330005FAE93400FBEEF9121175E970117903F7
:104A43008508828509831253461205CF024AD6ACE4
:104A53000EAD0F850C82850D83E0F91253401211C0
:104A6300F312571B606D124AEB60687C00790012E9
:104A730053408E828F831217AF805812069BE970C2
:104A83005290080EE0640170151211CF90080EE4E5
:104A9300F07C0AFDF97A0F7B0812104F802D750AFE
:104AA30000850A08740F2508FE74083400FF8E82FF
:104AB3008F83E06401700BA90A1211D58E828F8354
:104AC300E4F0050AE50AC3940A40D6795012138527
:104AD3001211C3790174141217707F08021883121C
:104AE3004AFAE0F8A3E0F922124AFAE0F8A3E0F95F
:104AF300E8FEE9FFEE4F22E0F5838882A3A3227448
:104B0300F41217B174F212175AEAFE8C0B75F00601
:104B1300E9A42420F508851882851983AC82AD8326
:104B23007A0EF912137FE970577C0679FF85188294
:104B3300851983AA82AB831210B5E97043740C12F2
:104B430017A5124AE5E8F509E50B6005EE42098071
:104B530004EEF45209850982AA82E86A7001E960C9
:104B63001B740C1217A5EAF0A3E4F08518828519CB
:104B730083AC82AD837A0EA908121379790180027E
:104B830079000246F874F21217B174E612175A89C3
:104B93000A8A088B09ECFEEDFF740C1217A5AC8290
:104BA300AD837A0E75F006E9A42420F912137FE988
:104BB3006003024CA87C0679FF740C1217A5AA8225
:104BC300AB831210B5E96003024CA87470250AF593
:104BD3000B851882851983AC82AD837A0CF9121385
:104BE3007FE96003024CA4851882851983AA82ABEE
:104BF300831211A5E5084509702C7C0C79008518F2
:104C030082851983AA82AB831210B5E96003024C33
:104C1300A47C0C7D007900851882851983AA82AB58
:104C23008312104F805D851882851983AC82AD8312
:104C3300AA08AB0912119F8A0C8B0DA80CA90DE8C9
:104C4300497028EE4F605E851882851983AC82AD6A
:104C5300837A007B0012119FEAF8EBF9EA4B604577
:104C630088828983E508F0A3E509F0124CAFFAEED8
:104C73006A7001EF602BEEF04F700888828983E43D
:104C8300F0A3F0851882851983AA82AB831211A53C
:104C9300851882851983AC82AD837A0CA90B121314
:104CA30079790180027900741A02551DE82402F50E
:104CB30082E93400F583E02274F71217B17F00EF25
:104CC30075F003A4F8A9F0EC28F8ED124CEEE06AB5
:104CD3007003A3E06B7006E8FAE9FB800B0FEFC3E8
:104CE300940440DB7A007B0002509939F988828969
:104CF300832274F71217B17E00EE75F003A4F8A9AE
:104D0300F0EA28F8EB124CEEE0F4FCA3E0F4FD88A3
:104D1300828983ECF0A3EDF0124CAFF4F00EEEC3F6
:104D2300940440D502509974F21217B174F4121717
:104D33005AEAFEEBFF8C088D0990081912571E7072
:104D430051EE4F7003024EB3EC45097003024EB3AC
:104D53001211B7E9900AD9F0C3940A4035750B00D4
:104D63007C0679FFE50B75F00EA4FAABF074812A8B
:104D7300FA74073BFB1210B5E96005850B0A800C3A
:104D8300050BE50BC3940A40D7750A0AE50A900A96
:104D9300D9F0900AD9E0C3940A4003024EB375F0E8
:104DA30006E0A4FB90081912571E706FEEFCEFFD8E
:104DB3007A0E74202BF91213797C0C7D0079FF8510
:104DC3001882851983AA82AB8312104F85188285B6
:104DD3001983AC82AD837A0C900AD9E02470F9125E
:104DE3001379750C0E750D00780C1219C4EEFCEFD7
:104DF300FD900AD9E075F00EA4F8A9F0748128FAA1
:104E0300740739FB1210377402121770900819E5F2
:104E130008F0A3E509F07900024EB5E0C8240612B4
:104E23004ED7601A7A1B74212BF9121379124EC3D1
:104E33002406F582E83400F583E4F0A380D7124E0C
:104E4300C3240A124ED760107A1B74222BF9121353
:104E530079124EC3240A80DA124EC3240C124ED7A1
:104E630060107A1074232BF9121379124EC3240C99
:104E730080C0124ECC124ED7602A7A1074242BF9BC
:104E8300121379124ECCF582E8124CB52410FCA310
:104E9300E0124EBA900AD9E0A42425F9121379122C
:104EA3004ECC808E90080DE060031211FF1211EDBD
:104EB3007901740C02551D3400FD7A0475F0062245
:104EC300900819E0F8A3E0C822900819E0F8A3E0DD
:104ED300C8240822F582E83400F583124EE4EC4D31
:104EE30022E0FCA3E0FD2274F41217B174F212174E
:104EF3005AEAFEEBFFE9C3940A5004EE4F700479BB
:104F030002803E851882851983AC82AD837A0E7543
:104F1300F006E9A42420F912137FE9F5087020753F
:104F23000A06750B00780A1219C474021217A5AC8D
:104F330082AD83EEFAEFFB1210377402121770A9D9
:104F4300080246F874F41217B1EAFEEBFF75080085
:104F5300750A06750B00780A1219C4EEFCEFFDE51D
:104F63000875F00EA4F8A9F0748128FA740739FBC8
:104F73001210497402121770E96004A908800B0526
:104F830008E508C3940A40C8790A0246FD74F7127B
:104F930017B174F012175AEAFEEBFF750800851873
:104FA30082851983AC82AD837A1075F006E508A477
:104FB3002423F912137FE9702C7C1079FF85188262
:104FC300851983AA82AB831210B5E97018EEFCEF42
:104FD300FD851882851983AA82AB831205A5E97022
:104FE30004A908800B0508E508C3940A40B0790AB0
:104FF300741012177002509974F71217B1750800E4
:10500300E50875F00EA4F8A9F0748128FE74073939
:10501300FFEEFCEFFD7A0E75F006E508A42420F9F7
:1050230012137FE9602C7C067D0079FFEEFAEFFB1B
:1050330012104F7C067D0079FFEE2406FAEF340050
:10504300FB12104FEE240CF582EF3400F583E4F0ED
:10505300A3F00508E508C3940A40A590080DE06095
:10506300031211FF1211ED802D74F71217B17E0098
:105073007F007C0679FFEF75F00EA4FAABF0748124
:105083002AFA74073BFB1210B5E970010E0FEFC348
:10509300940A40DEEEF97F0102188374F71217B108
:1050A3007E00EEF91211D50EEEC3940A5003E960A7
:1050B300F180E374F31217B174CB12175AE9FE901F
:1050C3000AD9E06E701B7A017B00900765E0F91244
:1050D30010977A027B00900765E0F912109712127D
:1050E3000B75F006EEA4FF74202FF5087427121732
:1050F300A5AC82AD837A0EA90812137FE96003027F
:1051030051F07C0679FF74271217A5AA82AB83128C
:1051130010B5E960030251F07C0E7D0079FF74271E
:105123001217A5AA82AB8312104F7C1B7D0079FF57
:10513300740C1217A5AA82AB8312104F7C0C7D004E
:1051430079FF851882851983AA82AB8312104F7465
:10515300271217A5AC82AD837A0EA908121379E939
:10516300F508740C1217A5AC82AD837A1B74212F3A
:10517300F9121379E9F509740C1217A5AC82AD8302
:105183007A1B74222FF9121379E9F50A740C12179A
:10519300A5AC82AD837A1074232FF9121379E9F544
:1051A3000B740C1217A5AC82AD837A1074242FF9FB
:1051B300121379E9F50C740C1217A5AC82AD837A3E
:1051C3000474252FF9121379E9FF85188285198351
:1051D300AC82AD837A0C74702EF9121379E9F8E579
:1051E30009450A450B450C4F4842088003750800E2
:1051F300A90874351217707F0502188374F7121704
:10520300B1E9900765F01211C302509974F41217B3
:10521300B1EAFEEBFF548070030252A7900765E0EA
:10522300F91210798A088B09EA4509607078018AB6
:10523300828B83E02450603D14600624E1604F803C
:1052430052A3A3A3A3E0704E8A828B83A3A3A3A339
:10525300A3A3A31219DB8A828B83A3A3A3A3A31201
:105263004EE48A828B83A3A31253461211817402E4
:105273001217708021A3A3A3A3E0641E7018790002
:105283008A828B83A3A312534612117B80081211C7
:105293008DE9F8E86007AA08AB09121067EEFAEF88
:1052A30064808065EE540260237C007D007A007B7D
:1052B300001211ABE960117A017B00900765E0F9F8
:1052C300121091EE6402803F7A028046EEA2E05013
:1052D3003F12531A125346121205E9602F12571B3D
:1052E300601F124AE288088909E8450960137C00B7
:1052F300790112531A1253468508828509831217BE
:10530300AF12120BEE6401FAEFFB80087A01800200
:105313007A007B000246FD900819E0F8A3124AFACE
:10532300A3227F02021883C082C083900765E0F93D
:105333008A828B83A312534612082D803B850882F1
:10534300850983E0FAA3E0FB22C082C08374FF12C5
:10535300175A1211C9E9C39402851882851983402B
:105363000474028002740AF0AC82AD837A01790579
:105373001206B37401121770D083D0820201357400
:10538300F21217B174E812175AEAFEEBFF890A8C7E
:10539300088D097C187D007900851882851983AAF8
:1053A30082AB8312104F851882851983EEF0A3EF29
:1053B300F0900767E0C0E074021217A5D0E0F09008
:1053C3000768E0C0E074031217A5D0E0F0900AD894
:1053D300E0C0E074171217A5D0E0F074151217A5FA
:1053E300E054FEF8A3E0F9900AD7E0A2E0E433FA30
:1053F300E84AF874151217A512552CA2E15004D2ED
:10540300F08002C2F0E854FDFAA2F0E43333F8EA84
:1054130048F874151217A512552CA2E35004D2F0C4
:105423008002C2F0E854F7FAA2F0E433F50C750DEC
:10543300007403780C1217471255251217A512553D
:105443002CA2E45004D2F08002C2F0E854EFFAA296
:10545300F0E433F50C7404780C1217471255251237
:1054630017A512552CA2E55004D2F08002C2F0E831
:1054730054DFFAA2F0E433F50C7405780C121747E5
:105483001255251217A512552CA2E25004D2F08012
:1054930002C2F0E854FBFAA2F0E433F50C7402788C
:1054A3000C1217471255251217A5E8F0A3E9F0903F
:1054B3000768E0601D750C10780C1219C47C697DB7
:1054C3000774061217A5AA82AB831210377402124F
:1054D3001770900779E06011E50A600974151217D7
:1054E300A5E04402F078018002780074141217A535
:1054F300E048F0900766E060047804800278007466
:10550300141217A5E048F0AC08AD09851882851977
:1055130083AA82AB831205C974181217707F06021F
:105523001883EA450CF8741522E8F0A3E9F0900A11
:10553300D7E02274F31217B174E512175AEAFEEB9F
:10554300FF8C098D0A74281217A5E0F50C75F00677
:10555300E9A4F87408650A7004742280027421288F
:10556300F50B7C1B7D007900851882851983AA823F
:10557300AB8312104F851882851983AC82AD837A71
:105583001BA90B12137FE97032741A1217A5E024BA
:10559300F9C3940A5025E50CF50B780B1219C8745E
:1055A300011217A5AC82AD83E509A2E0E433F9EE5D
:1055B300FAEFFB1205DB7401121770741B0251F72B
:1055C30074F71217B11208A5750800E50875F00EF7
:1055D300A4F8A9F0748128FE740739FF7C0679FFCB
:1055E300EEFAEFFB1210B5E97009EEFAEFFB790062
:1055F3001208AB0508E508C3940A40CF025099741A
:10560300F61217B174FD12175AEAFEEBFF90081B4E
:1056130012571E703975081D75090878081219C4C8
:1056230075080275090078081219C475088C750984
:105633009078081219C47CFF7DFF7A017B00120663
:10564300F5740612177090081BEAF0A3EBF09008AC
:105653001B12571E7003025705E4F508F509780875
:105663001219C474041217A5858208858309780862
:105673001219C474041217A5858208858309780852
:105683001219C490081D1219DB790290081B1257D6
:105693001312081B7408121770E970348518828579
:1056A3001983E0FA74011217A5E0F9EA2400F5085A
:1056B300E439F509EA4509601778081219C4900816
:1056C3001B12531DA3125713121181740212177068
:1056D300E4F508F50978081219C490081D1219DBBE
:1056E3007CFF7DFF90081B125346120701740412BE
:1056F300177090081BEAF0A3EBF090081B12571EDB
:105703007004790180027900740312177002532523
:10571300124EE4EEFAEFFB2290077FE0F8A3E0F9E4
:10572300E84922C082C08390081912571E60109066
:105733000819125346121067900819E4F0A3F09069
:105743000AD9740AF002537BC082C08390619074BB
:1057530004F0A37448F0A3E4F09061807440F090E7
:1057630061BC7407F09061877469F09061B6741638
:10577300F07900120B157902120B1B90274CE4935E
:10578300F46006E493F9120AF17905120E1B025B29
:1057930046C082C083E9540FF9906185E0696012C5
:1057A300E5C654804449F5C6E59E547F644970F8C4
:1057B300E9F053C680E59E547F70FA025B4674F7A6
:1057C3001217B1E5A8FE53A87E120AFDC2BA539A76
:1057D300FEC289759B00C2C2120B0375A91175B96C
:1057E30005120B09D2BA439A0174805E42A8026083
:1057F300DDC082C083906181E4F0A3025B4375E95D
:105803000075910075BF00020135C082C0839061AD
:1058130081E4F0A374C0F0A3E4025B45C082C083BB
:1058230074F812175A9003A4126A7670030258FE92
:105833009003A4E054406023790885188285198376
:10584300AA82AB83120C11851882851983AA82ABB5
:10585300831208C99003A4E054BFF0E054806010A1
:10586300790C7A657B05120C119003A4E0547FF048
:10587300E0A2E0500F7900120B151208CF9003A499
:10588300E054FEF0E05402600F7901120B15120888
:10589300CF9003A4E054FDF0E05404600F790012AC
:1058A3000B1B1208D59003A4E054FBF0E0540860EE
:1058B3000F7901120B1B1208D59003A4E054F7F0E3
:1058C300E05410600F7902120B1B1208D59003A449
:1058D300E054EFF0E05420600F7903120B1B120821
:1058E300D59003A4E054DFF0A3E05401600D120B44
:1058F300271208DB9003A5E054FEF074081217701A
:10590300025B46C082C083E9600514602A804F9021
:10591300619A7433F0A37455F09061A0743AF090D7
:10592300053FE064017009C2919003A67467802D5E
:105933009003A67461802690619A743FF0A3745A11
:10594300F09061A0747FF090053FE064017009D28C
:10595300919003A6747180059003A6746AF0025BAC
:1059630046C082C083E9600B14600D146017146095
:105973000C80209027508015902751801090053F70
:10598300E0640170059027528003902753E49390BD
:105993006186F0025B4674EE1217B174F412175A63
:1059A300851882851983AC82AD8375839075823B9C
:1059B300740412166D90275093F46003025AC39037
:1059C3007808E0C394025003025AA374041217A583
:1059D300AC82AD8375838F7582B2740812166DFC29
:1059E3007EFF7FFF8E0C7D008C8285820E800F747C
:1059F300086D606D74096D6068740A6D60638D086D
:105A030075090074027808121747125ACD12162A24
:105A1300A909E50AC9F888107418780812156BE506
:105A2300104508FAE9FBE50EC333F8E433F97404CF
:105A33001217A5E58228F582E58339125FCDC3E805
:105A43009AE99B4008E8C39AF8E99B8006EAC39861
:105A5300F8EB99F9C3E89EE99F5006E8FEE9FF8D4C
:105A63000C0DEDC39413408774FF6E700374FF6FC6
:105A73006024850C0874027808121747125ACD1255
:105A8300162A851882851983E582250EF582E5831A
:105A930012646CE508F00CECC3940450030259E360
:105AA30075080175090078081219C474021217A544
:105AB300AC82AD837AD47B0912124D740212177033
:105AC300740C1217707F0A02188374482508F58234
:105AD30074783509F583780822C082C08390618683
:105AE300E0F8902753E493687009902752E4939069
:105AF3006186F09061AE7468F0A3746AF0906245B9
:105B030074FBF0A304F053F4FD43FE0290053F74CD
:105B130001F09061A0E0643A700479008002790199
:105B2300120B15025B46C082C0839004F1E064014E
:105B3300700A9004F6E06004790C80027900800317
