:020000040000FA
:0600000002011A02289B18
:03002B0002304A56
:0300330002302276
:0300530002290E71
:03006B00022FC998
:03007B00022FF160
:10008300022707E5C754F84401F5C77901220000A8
:100093000080FB120086B90003020104E479217891
:1000A30008B800028004F709D8FCE479297802B87B
:1000B30000028004F709D8FCE4900281788A790869
:1000C3008002F0A3D8FCD9FA781A90014A7A01BACF
:1000D30000028007E493A3F608DAF97A0A7B0A9010
:1000E300014B78B079078015E493A3AD82AE838A80
:1000F300828B83F0A3AA82AB838D828E83D8E9D9C6
:10010300E7758201758397740412012C75829175CA
:100113008300740012012C75D00075813F7518811E
:10012300751902759F00020096C09FF59FE473D076
:100133009F22D083D082C09FE493C0E0740193C018
:10014300E0740293F59F220112416363656C2E20D4
:1001530044617461000A416363656C2E20436F6ED2
:10016300662E000A0A416363656C2E20506572692E
:100173006F6400020784010000CC83020384010042
:10018300000A0A10A5810100008302020184030012
:100193000086020217840100000B0A020384010097
:1001A30000170A1025810300008C02021784010046
:1001B30000180A020384010000250A103581030098
:1001C30000260A021784010000270A124261726F97
:1001D3006D2E2044617461000A4261726F6D2E209E
:1001E300436F6E662E00024261726F6D2E20436173
:1001F3006C6962722E000A0A4261726F6D2E205082
:100203006572696F6400020784010000C9830203F9
:10021300840100008D0A10A5800100008F020201F5
:100223008403000093020217840100008E0A020374
:10023300840100009A0A10F5800300009902021756
:10024300840100009B0A020384010000B80A10D550
:1002530080030000B90A021784010000BA0A0203EE
:1002630084010000A80A10C5800100009A0202015F
:1002730084030000AA02021784010000A90A1101E5
:1002830099010F12640401020784010000C0830274
:100293000384010000450B020F84010000460B029A
:1002A3000184030000B90202F383010000470BFF3E
:1002B3000000B4000028002800283075A000A0002A
:1002C300A000A00000080008E001F00010001000EA
:1002D30010001000100010005000500050001000DB
:1002E3001000D0070000000000000F00010005000F
:1002F300307507001000010081FF00000000FF823D
:100303000AA00A880AFF02020208025000A00000A5
:1003130000E803020784010000CF83020384010085
:1003230000C80B02FF83010000F1020203840100F5
:1003330000C90B02FD8301000007030203840100CF
:1003430000CA0B02FB8301000009030203840100BE
:1003530000CB0B02F9830800000A030203840100A7
:1003630000CC0B02F783010000CD0BFF0100FF203F
:10037300020784010000D283020384010000310CD0
:1003830002F583000000000002018403000057030C
:10039300581058105810581058105810581058101A
:1003A30058105810581058105810EC120413E61235
:1003B30012436F6E6E2E20506172616D730008439D
:1003C3006F6E6E2E20506172616D732052657100E5
:1003D30008446973636F6E6E6563742052657100C0
:1003E300020784010000DB83020384010000720C16
:1003F3001055820100008007020184030000860774
:10040300021784010000730C020384010000800CB6
:100413001065820200008C07021784010000810C22
:10042300020384010000920C1075820200009407FD
:10043300021784010000930C02020202020202026C
:1004430002010D0000001001020784010000BA83BD
:10045300020384010000FA0C02E383010000950704
:10046300020384010000FB0C02E1830100004683C8
:10047300020384010000FC0C02E7830100005083A7
:10048300020384010000FE0C02E983010000818065
:10049300020384010000FF0C02EB8301000055837B
:1004A300020384010000FD0C02ED830100004B8375
:1004B300020384010000000D02EF8301000093801A
:1004C300020384010000010D021584010000D5829E
:1004D300020384010000020D02F183010000030DF9
:1004E30001E803053F100A124779726F20446174D3
:1004F30061000A4779726F20436F6E662E000A0A05
:100503004779726F20506572696F64000207840136
:100513000000D583020384010000A90D1045810169
:10052300000059080201840300005F0802178401D8
:100533000000AA0D020384010000B40D10658103BD
:1005430000006508021784010000B50D0203840151
:100553000000C00D109581030000C10D0217840136
:100563000000C20D03800000807000618012487596
:100573006D69642E2044617461000A48756D696475
:100583002E20436F6E662E000A0A48756D69642E2D
:1005930020506572696F6400020784010000D883EC
:1005A3000203840100002F0E10E581010000F10811
:1005B300020184030000F508021784010000300ED5
:1005C3000203840100003C0E101582030000FB08A7
:1005D3000217840100003D0E0203840100004A0E4D
:1005E3001085820300004B0E0217840100004C0E9D
:1005F3001254656D702E2044617461000A54656D58
:10060300702E20436F6E662E000A1E54656D702E89
:1006130020506572696F6400020784010000DE8365
:10062300020384010000B20E10C582010000FE081F
:100633000201840300000209021784010000B30EC3
:10064300020384010000BE0E10B5820300000809F6
:10065300021784010000BF0E020384010000CB0EC9
:1006630010A582030000CC0E021784010000CD0EFA
:10067300124D61676E2E2044617461000A4D6167FB
:100683006E2E20436F6E662E000A0A4D61676E2E32
:1006930020506572696F6400020784010000BD8306
:1006A300020384010000320F10B5810100000B0921
:1006B3000201840300001109021784010000330FB3
:1006C3000203840100003E0F108581030000170917
:1006D3000217840100003F0F0203840100004B0F47
:1006E3001075810300004C0F0217840100004D0FA9
:1006F300FFFFFF0001307503020106000000000048
:1007030000000000000000000000000000000000E6
:1007130000000000000000FFFF0600800CE8030A51
:100723000953656E736F725461670512500020039D
:10073300020A0002010603020F18544920424C45E5
:100743002053656E736F722054616700D007E8030E
:10075300E803E803E803E80388190000B819BE19A1
:10076300C419D019CA19D619DC19E219E819104BA2
:100773006579205072657373205374617465000248
:100783000784010000C683020384010000301002C5
:100793000B84000000F809020184030000F9090238
:1007A300178401000031100254657374204461748E
:1007B30061000A5465737420436F6E6669670002B3
:1007C3000784010000C38302038401000069101041
:1007D300E580030000010A0217840100006A100289
:1007E3000384010000741010B580030000090A029D
:1007F300178401000075101201356AC70312013511
:10080300BAC703120135E3C70312013595C80312B2
:100813000135FEC8031201350ACA03120135D3CBD1
:1008230003120135D79B03120135279C03120135AF
:10083300509C031201356A9D03120135FD9D03127D
:100843000135469F0312013513A10312013560FBE5
:100853000212013596FB02120135A9FB0212013582
:1008630017FC021201353AFC0212013545FD021252
:10087300013548FE02120135CDFE02120135DAFFC1
:1008830002120135DD8104120135F48104120135B0
:100893002582041201356082041201358A82041212
:1008A3000135B48204120135CB8204120135E28290
:1008B30004120135F9820412013522830412013531
:1008C3003583041201354B83041201355E83041210
:1008D3000135858304120135BDE802120135C1E9F2
:1008E30002120135F9E9021201351CEA021201353F
:1008F30027EA021201354AEA0212013559EB0212C4
:1009030001352EEC02120135A9EC0212013531ED4D
:10091300021201356CED02120135A3ED021201350D
:1009230031EE021201350AEF021201356AEF0212AB
:10093300013575EF02120135F4EF02120135F7EFBD
:1009430002120135FAEF0212013589F00212013564
:100953008CF002120135BCF002120135E6F00212EE
:100963000135D4F10212013586F2021201356CAB66
:100973000312013594AB03120135C2AB03120135E7
:10098300F9AB0312013557AC03120135A2AC0312C4
:100993000135EDAC031201352DAD0312013573ADF5
:1009A30003120135A1AD031201355EAE0312013509
:1009B30068AE0312013575AE03120135A8AE0312FA
:1009C300013574AF0312013580AF0312013598AFBF
:1009D30003120135A2AF03120135F092041201355F
:1009E300FE92041201351693041201352E9304125C
:1009F3000135008002120135AC80021201352781D6
:100A03000212013548820212013584820212013535
:100A13002D830212013514840212013578850212E6
:100A23000135CF8502120135508602120135408708
:100A3300021201358D870212013513880212013526
:100A4300458802120135598A021201359B8A021226
:100A53000135B98A021201353C8B02120135108C23
:100A630002120135D88C02120135008F03120135B1
:100A7300D38F031201357C9003120135CF900312FB
:100A830001357F91031201350B9203120135F79261
:100A930003120135269303120135399403120135EC
:100AA3008194031201355695031201359295031271
:100AB3000135AE95031201357D9604120135CDE063
:100AC30003120135E3E00312013509E10312013595
:100AD30025E2031201352FE20312013564E3031209
:100AE30001355CE40312013550A10312013580A2E4
:100AF30003120135B3A203120135FDA2031201351E
:100B0300C4A40312013597D60112013501D701128E
:100B1300013560D80112013570D8011201359DD815
:100B230001120135F4D8011201359DD901120135A5
:100B3300A4DA011201356EDB01120135CEDC01129C
:100B4300013511DD01120135B6DD0112013503DE78
:100B53000112013529DE0112013537E00112013599
:100B63003CE00112013541E2011201358EE201122E
:100B7300013501E30112013534E301120135D6E3F6
:100B8300011201357FE401120135B7E40112013589
:100B9300BAE40112013502E50112013542E5011201
:100BA300013599E501120135187D00120135307DBB
:100BB30000120135787D001201358E7D001201355A
:100BC300D57D00120135E97E00120135767F0012D2
:100BD3000135C17F00120135A84D00120135B44D16
:100BE30000120135EF4D00120135344E001201356C
:100BF300F44E001201357A4F00120135DF4F001217
:100C030001350B5000120135445000120135825258
:100C1300001201356654001201354C56001201359D
:100C23008F5700120135DD5900120135EF5A0012BA
:100C330001353A5C001201354A5D00120135675DEA
:100C430000120135A25D00120135C45D00120135A9
:100C5300275E00120135E862001201357D63001240
:100C63000135CE6300120135F56300120135476487
:100C730000120135656400120135BF6400120135AD
:100C8300A865001201351E6700120135A267001224
:100C9300013529B00312013533B00312013576B0A3
:100CA3000312013591B00312013521B1031201354D
:100CB30049B10312013586B103120135BDB10312E7
:100CC3000135E6B1031201355BB20312013570B28F
:100CD3000312013585B203120135B6B20312013591
:100CE300CAB203120135EFB20312013529B303125D
:100CF300013555B3031201358DB3031201350CB41D
:100D03000312013555B4031201357FB403120135C3
:100D1300AAB403120135EB900412013575C6021211
:100D23000135A3C602120135F1C702120135D1C83C
:100D330002120135F0C8021201356DC902120135E4
:100D4300B0C90212013506CB02120135C7CB02121C
:100D530001354ECE02120135EFCE02120135E5CF39
:100D630002120135E2D0021201353CD202120135E2
:100D7300C7D2021201357FFE01120135E8FE0112CE
:100D830001353CFF0112013563FF0112013594FF68
:100D93000112013510CC031201357DCC031201354C
:100DA300C4CC03120135DCCD03120135D8CE0312B6
:100DB3000135BBCF03120135F7F20212013539F3C6
:100DC300021201350BF402120135E4F4021201356B
:100DD300DEF502120135C0F60212013529F70212BF
:100DE3000135DFF70212013553F802120135BFF85E
:100DF30002120135E8F80212013562F902120135D7
:100E0300FBF90212013560FA0212013575FA02127A
:100E13000135BBFA02120135D4FA0212013539FB4E
:100E2300021201353CFB02120135F3ED03120135C9
:100E33001BEE0312013559EE0312013517EF0312AE
:100E430001357EEF031201359AEF03120135C2EF2C
:100E530003120135F2EF0312013501F003120135DC
:100E63007EF003120135A4F00312013586E6011268
:100E7300013564E80112013596EA01120135D2EA1F
:100E830001120135FFEA01120135E9EB01120135C7
:100E930034EC011201357FEC0112013591EC0112A2
:100EA3000135D1EC0112013506ED0112013554ED86
:100EB3000112013583ED01120135A6ED0112013551
:100EC300F3ED0112013578EE0112013592F00112B2
:100ED3000135D1F20112013512F301120135B4F4D7
:100EE30001120135F5F40112013568F501120135DE
:100EF300BEF50112013560B9021201355EBA021264
:100F03000135F7C00212013518C302120135E3C4DB
:100F1300021201354BC60212013519840112013543
:100F2300C88401120135F584011201353B85011294
:100F330001357B86011201351188011201358B8839
:100F430001120135A68801120135218901120135EB
:100F53007B8A01120135DB8B01120135E18C011211
:100F63000135428E011201355B8E01120135B98EB6
:100F730001120135A78F01120135DA8F01120135F4
:100F83004A9001120135C490011201350E910112EC
:100F93000135D89101120135AD92011201358C93BF
:100FA300011201351794011201358594011201359F
:100FB300F99401120135249501120135E3950112CB
:100FC3000135489701120135659701120135849760
:100FD300011201357598011201359A9801120135F4
:100FE300C498011201353F990112013599990112F3
:100FF3000135029B01120135B09B01120135F19BB2
:10100300011201358CAB02120135DAAB0212013544
:10101300E6AB02120135C4AC02120135F5AC021283
:10102300013526AD02120135A6AD02120135DEAD42
:101033000212013530AE021201356DAE02120135D6
:101043008AB002120135B0B2021201359BB402120A
:10105300013585B602120135EB7F00120135219C63
:1010630001120135519C011201352AA301120135E8
:10107300AFA401120135ACAA0112013594AB0112E0
:101083000135D1AB01120135F4AB0112013525ACA9
:10109300011201352EAC0112013538AC01120135B4
:1010A30026AD011201351CAE01120135096800128B
:1010B3000135086C001201350E6C001201354973BD
:1010C30000120135627800120135FFDC031201358D
:1010D30095DD03120135ABDD0312013521DE031269
:1010E300013595DE03120135D3DE0312013547DFE7
:1010F30003120135C0DF03120135C9DF03120135C5
:10110300D5DF03120135EADF0312013528E00312AC
:1011130001353EE0031201359DE0031201357DD018
:10112300031201358AD003120135A4D0031201350D
:10113300E3D00312013521D10312013586D1031205
:1011430001359BD103120135A6D103120135B3D169
:1011530003120135CAD103120135D8D10312013567
:10116300E3D103120135EFD103120135FED103128E
:10117300013509D2031201352CD203120135D3D222
:1011830003120135E3D203120135FDD203120135F7
:101193001AD30312013536D3031201355BD303127D
:1011A300013566D3031201357BD3031201358FD387
:1011B30003120135F0D303120135F6D303120135BF
:1011C300FCD30312013502D4031201351AD40312DE
:1011D30001354DD403120135629D02120135E69D9E
:1011E30002120135959E02120135F49F0212013558
:1011F30015A20212013501A30212013536A3021210
:10120300013558A30212013507A402120135FFA5C7
:101213000212013528A602120135BAA602120135BF
:10122300ECA602120135F9A60212013550A70212EB
:10123300013576A702120135E3A902120135E6AAA8
:10124300021201353EAB02120135F18E0212013555
:10125300FB8F02120135E29002120135EC9002126B
:1012630001350E91021201351A9102120135B39222
:1012730002120135E29202120135FE930212013588
:10128300579402120135BD95021201359C96021244
:101293000135F89602120135659702120135A097C0
:1012A30002120135DF9702120135989A02120135B5
:1012B300B29A021201353E9B021201354C9B021277
:1012C3000135A59B02120135B39B02120135269C01
:1012D300021201358A9C02120135D49C0212013597
:1012E30048D3021201356AD30212013590D5021296
:1012F3000135A5D802120135BDD90212013570DAC4
:101303000212013552DB021201353E85041201350A
:10131300638504120135D5850412013586870312CE
:1013230001358F87031201359887031201356F88C2
:1013330003120135208A03120135568A031201353F
:10134300908A03120135C68A03120135008B0312FA
:101353000135348B03120135608B03120135A98BE0
:1013630003120135E38B031201352C8C0312013573
:10137300848C03120135B98C03120135148D0312C9
:1013830001354E8D031201359F8D03120135D58D25
:10139300031201350F8E031201353D8E0312013501
:1013A300608E03120135959404120135C194041221
:1013B30001351C9504120135269504120135369525
:1013C30004120135CAD4031201351AD503120135AB
:1013D30037D50312013506D60312013587D603121A
:1013E30001355AD703120135D8D803120135239694
:1013F3000312013548960312013580960312013515
:10140300E395041201358030001201359233001246
:101413000135463500120135EB35001201358E36A4
:1014230000120135453700120135743700120135BA
:10143300303C00120135C23C00120135FE3D001262
:101443000135663E001201351A3F00120135D041C5
:10145300001201350A4200120135744200120135AF
:10146300D142001201352E43001201358B43001285
:101473000135764400120135BC440012013507459D
:10148300001201352A45001201356D46001201355F
:101493008146001201358A4700120135C9470012FF
:1014A3000135F547001201354448001201356548FE
:1014B30000120135A34800120135EA4A0012013532
:1014C3002B4B00120135C94B001201353B4C001266
:1014D3000135744D001201351EBE031201356EBE77
:1014E3000312013597BE0312013549BF03120135BB
:1014F300B2BF03120135BEC00312013587C2031206
:101503000135008004120135108004120135558025
:1015130004120135338104120135CB8104120135E4
:10152300049204120135E0920412013597830412E8
:101533000135CA8304120135E883041201357D8421
:10154300041201359A84041201352C8504120135E5
:10155300A49704120135B98F04120135C98F0412FF
:101563000135DD8F04120135E59004120135F2EAED
:101573000312013596EB03120135D8ED0312013541
:10158300D9F803120135F3F80312013556F90312A2
:101593000135C4F9031201357AFA0312013599FAB8
:1015A30003120135A9FA03120135E8FA03120135D2
:1015B30025FB03120135848804120135BE88041209
:1015C30001353189041201357B8904120135BA8949
:1015D30004120135CC8904120135018A0412013544
:1015E300E38604120135328704120135648704123D
:1015F3000135F68704120135728804120135B0E70C
:1016030003120135C4E703120135EDE70312013577
:1016130016E803120135DEE80312013529E9031246
:101623000135E0EA03120135258A04120135588A8F
:1016330004120135D48A04120135F48A04120135E7
:10164300598B04120135A18B04120135A48B0412AA
:10165300013577A60312013590A60312013525A79C
:101663000312013516A803120135CCAA0312013562
:101673000CAB031201354EAB0312013537FB0312DA
:10168300013548FB0312013591FB03120135BDFB04
:1016930003120135DDFB031201357CFC0312013516
:1016A3004FFD03120135B28B04120135018C041274
:1016B3000135898C04120135108D04120135F87F30
:1016C30000120135ECF00312013519F30312013551
:1016D30085F303120135D0F30312013578B90312F0
:1016E3000135C8B903120135F1B903120135A3BAA3
:1016F300031201350CBB0312013518BC031201356B
:10170300E1BD03120135D2B40312013522B5031230
:1017130001354BB503120135FDB50312013566B62C
:101723000312013572B7031201353BB903120135B8
:10173300C4C20312013514C3031201353DC303129E
:101743000135EFC30312013558C40312013564C5D3
:10175300031201352DC7031201353D8D04120135E6
:101763006E8D04120135988D04120135B88D041263
:101773000135168E041201350080031201351580E0
:1017830003120135718003120135DC800312013528
:101793002481031201358E8103120135B7810312AF
:1017A3000135C58103120135278203120135658294
:1017B300031201358082031201351B8303120135A5
:1017C300C083031201354384031201357C84031261
:1017D30001350785031201355E8503120135BC858A
:1017E30003120135CE8503120135F4850312013549
:1017F300FD850312013552870312013561FD031282
:101803000135C8FD0312013573FE03120135E9FEEC
:101813000312013566E40312013599E4031201351D
:1018230097E503120135E9E6031201357F8E0412B1
:1018330001355D8F04120135D3F30312013518F41A
:10184300031201355EF40312013527F60312013545
:10185300C79304120135E29304120135F293041283
:10186300013549940412013540950412013576DEA1
:101873000212013552DF0212013599DF02120135DE
:10188300D6DF0212013544E0021201359EE0021256
:1018930001350EE102120135DEE102120135CDE21E
:1018A3000212013551E302120135EDE40212013552
:1018B30078E50212013508E602120135A1E60212AB
:1018C3000135B8E602120135EBE70212013541E8B2
:1018D30002120135E8F50112013508F6011201354E
:1018E3007EF701120135CCF701120135ECF7011235
:1018F300013554F801120135D6F8011201351CF9EE
:1019030001120135A8F901120135F1FD011201356A
:101913006EFE0112013534B001120135DBB4011240
:101923000135CCB701120135F5B7011201350CB8F9
:101933000112013535B801120135E7B8011201353D
:10194300C6BA0112013518BC0112013564C1011276
:1019530001359DC101120135E1C101120135EDC20D
:1019630001120135ABC301120135A0C601120135C5
:10197300A7CA01120135D9CA0112013504CB0112DC
:101983000135F8CB011201357BCC0112013553CD62
:10199300011201357ECD01120135A9CD01120135A8
:1019A300D4CD01120135FFCD0112013536CE01121E
:1019B300013561CE011201358CCE0112013533CFD1
:1019C30001120135D8CF011201357FD00112013543
:1019D30024D101120135CDD10112013574D2011286
:1019E30001351CD301120135E9D30112013575D438
:1019F30001120135BAD401120135E9D401120135BE
:101A0300A2D5011201356BF603120135BBF60312A1
:101A130001351EF703120135E4F7031201359CF873
:101A23000312013541FF0312013508D903120135B1
:101A330058D90312013581D90312013519DA03127A
:101A4300013570DA0312013575DB03120135C2DC8F
:101A530003120135789704120135DAFF01E066704D
:101A63001008A3E066700A08A3E066700408A3E008
:101A73006622C3E7960809E7960809E7960809E787
:101A83009622C3E09608A3E09608A3E09608A3E095
:101A93009622C008C3E096F50808A3E0964208081A
:101AA300A3E096420808A3E09645087001D3D00846
:101AB30022080808EAC0E0EBC0E086F0E7A4FA18C1
:101AC3000986F0E7A42AFA180986F0E7A42AFA1887
:101AD3000986F0E7A42AFA1986F0E7A4FBE5F02AC1
:101AE300FA190886F0E7A42BFBE5F03AFA19088601
:101AF300F0E7A42BFBE5F03AFA18180986F0E7A4FF
:101B0300C5F02BFBE43AFA1908E7C5F0C6A426F69C
:101B1300E5F03BFBE43AFA1886F0E7A4F6E5F008B3
:101B230026F6E43B08F6E43A08F6D0E0FBD0E0FA08
:101B330022E4CFC0E0E4CEC0E0E4CDC0E0E4CCC01A
:101B4300E075F020E626F608E633F608E633F608F5
:101B5300E633F6181818EC33FCED33FDEE33FEEFE5
:101B630033FFC3EC9709ED9709EE9709EF9719191E
:101B730019400FFFEC97FC09ED97FD09EE97FE194D
:101B83001906D5F0BFECF709EDF709EEF709EFF702
:101B9300191919D0E0FCD0E0FDD0E0FED0E0FF221F
:101BA3006016080808C6C313C618C613C618C6139A
:101BB300C618C613C6D5E0EA2270090808082260D1
:101BC30016181818C6C333C608C633C608C633C6A4
:101BD30008C633C6D5E0EA22E627F60809E637F653
:101BE3000809E637F60809E637F622E026F608A3E1
:101BF300E036F608A3E036F608A3E036F622E02640
:101C0300F008A3E036F008A3E036F008A3E036F0CE
:101C130022C3E697F60809E697F60809E697F60859
:101C230009E697F622C3E096F008A3E096F008A32E
:101C3300E096F008A3E096F022E657F60809E65787
:101C4300F60809E657F60809E657F622E056F608BD
:101C5300A3E056F608A3E056F608A3E056F622E002
:101C630056F008A3E056F008A3E056F008A3E056A8
:101C7300F022E0F608A3E0F608A3E0F608A3E0F6F6
:101C830022E6F008A3E6F008A3E6F008A3E6F022B4
:101C9300E0FAA3E0FBA3E0FCA3E0FD22EAF0A3EB60
:101CA300F0A3ECF0A3EDF022E0F8A3E0F9A3E0FA4F
:101CB300A3E0FB22E8F0A3E9F0A3EAF0A3EBF02210
:101CC300CAC0E0E6F0A308DAFAD0E0FA22CAC0E01C
:101CD300E0A3C582CCC582C583CDC583F0A3C582ED
:101CE300CCC582C583CDC583DAE6D0E0CA22C3E47E
:101CF30098F8E499F9121D328026C3E49AFAE49B1A
:101D0300FBE920E7E9121D32E498F8E499F922C3CC
:101D1300E498F8E499F9121D32E498F8E499F9C3C8
:101D2300E49AFAE49BFB22EB20E7CFE920E7E0B952
:101D33000010BB0008E88AF084F8AAF022E4FBC88C
:101D4300FA22EB70227B10C833C8C933C93350075A
:101D5300C39AC3DBF280069A50012ADBEAC833F444
:101D6300C8C933F4C9FA2275F008E4C833C8C933C3
:101D7300C933C99AC99B5004C92AC93BD5F0ECFBA6
:101D8300C833F4C8E4C9FA22600D08C6A2E713C633
:101D930018C613C6D5E0F322600C08C6C313C618D1
:101DA300C613C6D5E0F422700422600D18C6C333EF
:101DB300C608C633C6D5E0F41822251810AF08F5B7
:101DC30018400C15198008F51840021519D2AF22D6
:101DD30000C0D0251810AF08F518500C051980085D
:101DE300F51850020519D2AFD0D0222518F582106C
:101DF300AF08F518400C15198008F518400215199D
:101E0300D2AF851983222518F582E43519F583228B
:101E13002518F8E43519F9222518FAE43519FB22B7
:101E23002518FCE43519FD22E4732518C582C0E0AA
:101E3300E51934FFC583C0E0E518C3958224F81083
:101E4300AF088583198582188008858319858218D0
:101E5300D2AFCEF0A3E520F0A37808E608F0A3DE26
:101E6300FAEFF0A3E58124FAF8E608F0A3E608F018
:101E7300A3E608F0A30808E608F0A3E608F0A31514
:101E8300811581D0E0FED0E0F8158115811581E838
:101E9300C0E0EEC0E0222518C582C0E0E51934FF9A
:101EA300C583C0E0E518C3958224F910AF08858384
:101EB300198582188008858319858218D2AFCEF0E0
:101EC300A3E520F0A37808E608F0A3DEFAEFF0A379
:101ED300E58124FBF8E608F0A3E608F0A30808E68A
:101EE30008F0A3E608F0A315811581D0E0FED0E049
:101EF300F815811581E8C0E0EEC0E02285198385DD
:101F03001882E0A3FEE0A3F5207808E0A3F608DF3B
:101F1300FAE0A3FFE0A3C0E0E0A3C0E0E0A3C0E0D9
:101F2300E0A3C0E0E0A3C0E010AF0885821885837A
:101F3300198008858218858319D2AFD083D0820295
:101F43000132851983851882E0A3FEE0A3F520788A
:101F530008E0A3F608DFFAE0A3FFE0A3C0E0E0A3F4
:101F6300C0E0E0A3C0E0E0A3C0E010AF08858218A2
:101F73008583198008858218858319D2AFD083D0D1
:101F83008222C0D02518C582C0E0E51934FFC5837D
:101F9300C0E0E518C3958224F310AF088583198543
:101FA30082188008858319858218D2AFC8F0A3E907
:101FB300F0A3EAF0A3EBF0A37908E709F0A3D8FABA
:101FC300ECF0A3EDF0A3EEF0A3EFF0A3D0E0F0A3C9
:101FD300D0E0F0A3D0E0F0A3E520F0A3E5F0F0A378
:101FE30022851983851882E0C0E0A3E0F9A3E0FA13
:101FF300A3E0FBA37808E0F608A3DFFAE0FCA3E084
:10200300FDA3E0FEA3E0FFA3E0C0E0A3E0C0E0A3E4
:10201300E0F5D0A3E0F520A3E0A3F5F010AF088529
:1020230083198582188008858319858218D2AFD0D9
:1020330082D083D0E0F8D0E032740480067402804A
:10204300027401C0E0F404121DEED0E0121CC3229E
:102053007404800474028000CCC0E0EDC0E0E51895
:10206300C39CCCAD1950011D10AF068C188D19807F
:10207300068C188D19D2AF121CD0D0E0FDD0E0FC35
:1020830022D083D082E9C0E0E493A3C386F0C5F0F5
:1020930095F0F908E493A386F0C5F095F0700BE48E
:1020A30093A3C3994005E9048002A3E475F002A455
:1020B3002582F582E5F03583F583D0E0F9E493A337
:1020C300C0E0E493C0E022D083D082ECC0E0EDC056
:1020D300E0E493A3FCE493A3FDED4C600D12211601
:1020E300EC24FFFCED34FFFD80EFE493A3FCE493C9
:1020F300A3FDED4C600D122155EC24FFFCED34FFE4
:10210300FD80EFD0E0FDD0E0FCE493A3C0E0E493D6
:10211300C0E022C0E0C3E49396087401939618408C
:102123000FE49366700808740193661870007019C1
:10213300A3A3C3E49396087401939618A3A3400D35
:10214300D0E0D0E0D0E0022106A3A3A3A3A3A3D0B1
:10215300E022C0E0C0F088F0E493667008087401E0
:102163009366187000A8F0A3A3700BD0F0D0E0D052
:10217300E0D0E0022106A3A3D0F0D0E02274F51250
:102183001E99EAFEEBFFEE2434F8EF3400F98808D9
:102193008909EE2435F582EF3400F583E0F8EE2467
:1021A30037F582EF3400F583E0F50AEC850AF0A4F5
:1021B300FCAAF0850AF0EDA42AFDE82CF8E43DF929
:1021C3007A257B00121D32EA850882850983F0F89F
:1021D300740758F97401B900028004C333D9FCFAB7
:1021E300E8131313541FF8EE28F8EF3400F9E8242A
:1021F3005DF582E93400F583E05A6008EE2434F596
:1022030082EF802CEE2434F582EF3400F583E0C0B6
:10221300E0EE2436F582EF3400F583E0F5F0D0E00C
:1022230084A8F0EE28F8EF3400F9E82438F582E9C1
:102233003400F583E0F97F04021F4574F5121E99FB
:10224300EAFEEBFFEE2434F582EF3400F583E0C0C1
:10225300E0EE2435F582EF3400F583D0E0F08E8292
:102263008F83A3A3A3A3A3A3A3C082C0838E828FC0
:1022730083A3A3A3A3A3E0F8A3E0F9D083D082E0D0
:10228300C398F508A3E099F509EE247FF582EF34AE
:1022930000F583E064017069EE2480F582EF340079
:1022A300F583E0F8A3E0F98E828F83A3A3A3A3A30E
:1022B300A3A3E0FCA3E0FD8E828F83A3A3A3A3A328
:1022C300E0FAA3E0FBC3EA9CEB9D5010C3EC98ED4E
:1022D30099402EC3EA98EB995027800EC3EA98EBF6
:1022E300994007C3EC98ED9940177C1A7D05EEFAE7
:1022F300EFFB120FB6EE247FF582EF3400F583E493
:10230300F0EE2434F8EF3400F9E8FCE9FDEE24356F
:10231300F582EF3400F583E0F8EE2437F582EF34ED
:1023230000F583E0F50AE508850AF0A4F508AAF0AC
:10233300850AF0E509A42AF509E82508F8E4350932
:10234300F97A257B00121D32EA8C828D83F0F874B2
:102353000758F97401B900028004C333D9FCFAE8C1
:10236300131313541FF8EE28F8EF3400F9E8245D33
:10237300F582E93400F583E05A6008EE2434F582EF
:10238300EF802CEE2434F582EF3400F583E0C0E0D7
:10239300EE2436F582EF3400F583E0F5F0D0E084E7
:1023A300A8F0EE28F8EF3400F9E82438F582E93490
:1023B30000F583E0F9122FBB022239C082C0838566
:1023C3001882851983E0F8A3E0F9C3EA9CEB9D50DA
:1023D30010C3EC98ED99401BC3EA98EB9950148015
:1023E3000EC3EA98EB994007C3EC98ED9940047942
:1023F3000180027900D083D08222EAC39CFAEB9D4C
:10240300FB2274EF121E999003E0E064086005E07C
:102413006407702A9061C8E0602490040EE0F460C1
:102423001DE0F875F003A4C8AAF02AF9741028FE79
:10243300740439FF8E828F83A3A3A3E07003022564
:1024430035906060E0C0E0EE2468F582EF3400F57B
:1024530083D0E0F0750C83750D05750800750900D0
:10246300E5D914F50AE5D95403F50E60177403652D
:102473000E605CE50A6010EE2467F582EF3400F528
:1024830083E0700302251A90057EE06401602AEE62
:102493002482F582EF3400F583E06004780480023F
:1024A3007800850A08E508C398FA95E0FB120E7ECA
:1024B3008A088B09EA450970051211BA8074EE2463
:1024C30082F582EF3400F583E070048A0C8B0DE50E
:1024D3000A6012850C82850D83F50BE5D9F0A315EF
:1024E3000BE50B70F6EE2482F582EF3400F583E002
:1024F300604474FC250AF50A780C122040AC0AA942
:102503000EEEFAEFFB1210527402121DD3E970267D
:10251300AA08AB09121802793D8E828F83A3A3A365
:10252300A3E0FA7B00120D52EEFAEFFB120FCE126C
:102533001064790080747403650E6056850A107503
:1025430011007810122040AC0CAD0DAA08AB091293
:10255300102E7402121DD3EE2468F582EF3400F5B9
:1025630083E064807004747F8001E0F50C780C12C2
:102573002044E50EF50C780C122044A90AAC08ADF2
:102583000990040EE0FA7B00120D167402121DD39B
:1025930080139003E0E06408600BAC0CAD0DEEFA21
:1025A300EFFB1210BE1211C679017F0A021F457498
:1025B300F5121E9974FC121DBDEAFEEBFF8908A2F9
:1025C300AFE433F509C2AF806AEE2463F8EF340059
:1025D300F97A007B00A2AFE433F50AC2AF8882899F
:1025E30083E0FCA3E0FDEC4D603A88828983E0FA46
:1025F300A3E0FB8A828B83E0FCA3E0FD88828983CE
:10260300ECF0A3EDF08A828B83E4F0A3F088828957
:1026130083E0FCA3E0FDEC4D700A88828983A3A3C9
:10262300E4F0A3F0E50AA2E092AF121802900521AC
:10263300E004F0EE2463F582EF3400F583E0F8A3C1
:10264300E0F9E849603DEE2463F582EF3400F58359
:10265300E02402FAA3E03400FBEA2402F50AEB3497
:1026630000F50B780A1220408A828B83E0FCA3E0FA
:10267300F9EEFAEFFB120FF27402121DD3E97003A5
:102683000225CC900521E06063900522E0F89005D7
:1026930021E0C398500C740265087050900523E044
:1026A300604A8E828F83A3A3A3A3E0851882851932
:1026B30083F0A3E4F0900521E0F87402121E09E808
:1026C300F0A3E4F0900521E0F8900520E028F074F1
:1026D30002121E09AC82AD83851882851983AA82F2
:1026E300AB837901120D22900521E4F0E509A2E004
:1026F30092AF7404121DD302223900000085218792
:102703008522C622C0E0C0D0E8C0E0E9C0E0EAC04C
:10271300E0EBC0E0ECC0E0EDC0E0EEC0E0C008C01C
:1027230009C00AC00BC082C083C0F0A2AFE433FE6D
:10273300C2AF759B00906182E0A2E05012E591A2C6
:10274300E0500C7591FE740165217003122405E0BD
:10275300A2E55051E591A2E5504B7591DF9003E05E
:10276300E064076005E06408702374016521703537
:10277300790190040EE0FA75F003A4CAA8F028FBCF
:1027830074102AFA74043BFB1225B28018E0640D1E
:102793007013900402E004F064287002E4F07A00FD
:1027A300E0F91211CC906182E0A2E6400302284EC8
:1027B300E591A2E6400302284E7591BF9003E0E045
:1027C300640570081210F412110080031210FA75D8
:1027D300210012115AE99003E1F0790012114E120F
:1027E3000F2C7A017B009003DFE0F91217D2907867
:1027F30003E064427055900582E014F0704DC2AF5F
:1028030012280600782AD0E0F618D0E0F6E59F54A7
:102813000770057509FF800375097FC4C0E0782937
:10282300E6F50808E65509F509740B7808121D9BAF
:10283300D0E02508F8906270E0A2E740F8E8C333DF
:10284300906272F0906270E0D2E0F0906181E0A259
:10285300E35009E5E9A2E3500375E9F7A3E0A2E732
:102863005009E591A2E7500375917FEEA2E092AF84
:10287300D0F0D083D082D00BD00AD009D008D0E0DA
:10288300FED0E0FDD0E0FCD0E0FBD0E0FAD0E0F9F0
:10289300D0E0F8D0D0D0E032C0E0C0D0C082C08356
:1028A300906183E0A2E05009E5BFA2E0500375BF49
:1028B300FEE0A2E15009E5BFA2E1500375BFFDE0D0
:1028C300A2E25009E5BFA2E2500375BFFBE0A2E319
:1028D3005009E5BFA2E3500375BFF7E0A2E4500936
:1028E300E5BFA2E4500375BFEFE0A2E55009E5BFE1
:1028F300A2E5500375BFDFE0A2E65009E5BFA2E6FB
:10290300500375BFBFD083D0828088C0E0C0D0E8B9
:10291300C0E0E9C0E0EAC0E0EBC0E0ECC0E0EDC03D
:10292300E0C0F0E5A7A2E6500FE5A1A2E6500953E7
:10293300A7BF75A1BF122973E5A7A2E5500CE5A1B6
:10294300A2E5500653A7DF75A1DFE5A7A2E1500971
:10295300E5A1A2E1500375A1FDE5A7A2E2500CE5B4
:10296300A1A2E2500653A7FB75A1FBD0F002288475
:1029730074F8121E997521019003E0E06406701546
:102983001210828A828B83A3A3A3A3A3A3E0FAA337
:10299300E0FB1210E2A2AFE433FED2AF9003E6E015
:1029A300640170187A207B009003DFE0F91218F8B5
:1029B3007A207B009003DFE0F91217D8906182E060
:1029C300D2E6F090057FE0602185C6228016900351
:1029D300E5E064017008E5C654F84405F5C653BE46
:1029E300FC1227007401652160E4EEA2E092AF7F40
:1029F30001021F45008E238F248582288583278526
:102A03001882851983E0CEA3E0CF852882852783AA
:102A1300EBC9EAC8EDCBECCA75F010C3E833C8E9DB
:102A230033C9EA33CAEB33CBC3EA9EF526EB9FF5F2
:102A330025B35004AB25AA26EC33CCED33CDD5F02A
:102A4300DAAE23AF242274E9121E9974F8121DBD65
:102A5300851882851983ECF0A3EDF08A088B099021
:102A630003E0E024F7C394055006750801022BE048
:102A73001210828A0A8B0BAE0AAF0BEE4F70030261
:102A83002BDDAC08AD097402121E09AA82AB8312B6
:102A930011128E828F83A3A3750CFF750DFF750E24
:102AA300FF750F00780C121C4F7402121E0975106B
:102AB300FF7511FF7512FF7513007810121C4F7804
:102AC3000C7910121A75502A780C7910121C14758F
:102AD30008017509C8750A00750B007808790C128E
:102AE3001A755052850C08850D09850E0A850F0B42
:102AF30080507514017515C875160075170085107B
:102B03000885110985120A85130B7808790C121CA4
:102B13001478147908121A75401C75080075090099
:102B2300750A00750B0178087910121C147808795E
:102B33000C121BDB800C750801750900750A007502
:102B43000B0074097808121BBC750C19F50DF50EF2
:102B5300F50F7808790C121B348E828F83A3A3A3FD
:102B6300A3A3A3E0F8A3E0F97AD07B03121D328874
:102B73000C890DE4F50EF50F7808790C121BDB7444
:102B830006121E09E0F8A3E0F97AD07B03121D3286
:102B9300E8FA8A0CE4F50D7808790C121A755007D7
:102BA3007808790C121C149003E0E06408600AE0D2
:102BB30064066005E06405702D750C0D780C7908CA
:102BC300121A754021750CF4750DFF750EFF750F04
:102BD300FF7808790C121BDB800C7508007509005F
:102BE300750A00750B00851882851983E0F8A3E048
:102BF300F58388827808121C847408121DD37F1011
:102C0300021F4574F7121E9912112490057DE0648A
:102C1300017010906245E4F0A3F053F4F343FE0C0B
:102C23005390F31210D0E5C654804449F5C6E59E8F
:102C3300547F644970F8906185740FF090057BE0D0
:102C4300F47002A3E0604E90057CE0600814601B02
:102C530014602E804075080175090090057BE078AB
:102C630008121DAAE508F45280802A750801750927
:102C73000090057BE07808121DAAE508F4529080C5
:102C83001475080175090090057BE07808121DAAE8
:102C9300E508F452A079007F02021F4574F7121E63
:102CA30099E9FEEAFF74016E700C7A807B00900351
:102CB300DFE0F91217D2903078E493F46008E493DC
:102CC300F9120F20800953C680E59E547F70FA12D3
:102CD30010D690057DE064017003120F3890057BD8
:102CE300E0F47002A3E0604B90057CE060081460A0
:102CF3001A14602C803D75080175090090057BE06E
:102D03007808121DAAE50842808028750801750914
:102D13000090057BE07808121DAAE5084290801315
:102D230075080175090090057BE07808121DAAE576
:102D33000842A01211241210828A088B09A808A93C
:102D430009E8496015E5E170FCE82414F582E934EB
:102D530000F583E0F46003E0F5E174016F700A7A33
:102D6300019003DFE0F912185C022C9A74ED121E35
:102D7300998A088B098C0A8D0B7413121E09780C1F
:102D8300121C757808790C121A757510017511C823
:102D930075120075130050127808790C121C147800
:102DA300107908121A7550168010780C7908121CC5
:102DB300147810790C121A75400479018002790095
:102DC3007F0C021F4574ED121E998A088B098C0A29
:102DD3008D0B7413121E09780C121C75780C79086C
:102DE300121A7540117808790C121C14AA08AB0941
:102DF300AC0AAD0B802275100075110075120075B9
:102E030013017810790C121C1478107908121BDB4B
:102E1300AA10AB11AC12AD1380A68A828B837508FE
:102E2300FF7509FF750AFF750B007808121C627F96
:102E330004021F4574F5121E998C828D8378081243
:102E43001C758A828B837808121C28EA2404F8EB09
:102E53003400F98C828D83A3A3A3A3E0FCA3E0FD3C
:102E630088828983C3E09CF0A3E09DF088828983F4
:102E7300C3E09420A3E0944E40268A828B83750896
:102E8300FF7509FF750AFF750BFF7808121C018A8D
:102E9300828B83A3A3A3A3E02420F0A3E0344EF00A
:102EA300022E1D74F5121E99E9FE900535E0FAA372
:102EB300E0FBEEC333F8E433F9740528F58274823A
:102EC30039F583E02AF508A3E03BF50978081220D9
:102ED300407A407B427C0F7D001229F87402121D58
:102EE300D38A088B098C0A8D0B74107808121BA3E4
:102EF300AA08AB097F04021F4574F1121E998A0CBC
:102F03008B0D8C0E8D0F740F121E09E0FAA3E0FBDC
:102F13007411121E09E0F508A3E0F50978081220E0
:102F230040EA2401F508EB3400F509E4F50AF50B52
:102F3300780C7908121AB4750871750902780C793E
:102F430008121AB4AA0CAB0DAC0EAD0F1229F8740B
:102F530002121DD38B09EA450960047A0180027AC3
:102F630000EC2AFCED3400FD7413121E09E0F8A3F3
:102F7300E0F9E8FEE9FFECF8EDF97A717B02121D46
:102F830032880889098E828F837808121C84ECF8B2
:102F9300EDF97A717B02121D328A088B0974057868
:102FA30008121DAA8E828F83A3A3A3A3E508F0A30F
:102FB300E509F07F08021F45C082C083E9906000E5
:102FC300F0D083D08222C0E074F2121F85A2AFE456
:102FD30033FED2AFE589A2E0500312164075890093
:102FE300C2C5EEF8EEA2E092AF7F01021FE4C0E09B
:102FF30074F2121F85A2AFE433FED2AFE58AA2E6D4
:103003004006E58AA2E75003121640758A00758AC6
:1030130000C2EBEEF8EEA2E092AF7F01021FE4C024
:10302300E0C0D0E8C0E0E9C0E0A2AFE433F8D2AF3B
:10303300758B00C2E8E8F9E8A2E092AFD0E0F9D0DE
:10304300E0F8D0D0D0E032C0E0C0D0E8C0E0E9C0C2
:10305300E0A2AFE433F8D2AFC2C7751A00E8F9E8CB
:10306300A2E092AFD0E0F9D0E0F8D0D0D0E032C205
:10307300AF02000022FFFFFFFFFFFFFFFF74F0120C
:103083001E2D74F8121DBD8A0E8B0FE9FF8C0C8D5B
:103093000D7E00850E08850F097808122084000430
:1030A300105E33C830EB300A312D3150317331A407
:1030B30031C731DE310E32BF32E232053333335E94
:1030C300335E33373274016F7019850C82850D833B
:1030D300E0C39403500D850C82850D83E0900DA20F
:1030E300F080027E1802338674026F7015850C829D
:1030F300850D83E0F8A3E0F9900DA3E8F0A3E9F0D0
:1031030080027E1802338674016F7019850C8285E4
:103113000D83E0C39402500D850C82850D83E090EE
:10312300079EF080027E1802338674016F70198542
:103133000C82850D83E0C39405500D850C82850DAB
:1031430083E090079FF080027E1802338674016F3C
:103153007019850C82850D83E0C39402500D850C94
:1031630082850D83E09007A0F080027E18023386EB
:1031730074106F70277508107509007808122040C5
:10318300AC0CAD0D7AA17B0712177E7402121DD30E
:103193008A088B0985088285098380027E18023399
:1031A3008674016F7019850C82850D83E0C39402C8
:1031B300500D850C82850D83E09007B1F080027E6F
:1031C3001802338674016F700D850C82850D83E0C0
:1031D300900DA6F080027E1802338674046F702669
:1031E30090838E7808121C75850C82850D83780870
:1031F300121A855011850C82850D83121CAB900722
:10320300B3121CB780027E18023386EF7021120AB4
:10321300D0E9701312147EE9F50979501218CEE93A
:10322300F50812146C800A9008467401F080027E3F
:103233001802338674076F707E7508067509007867
:1032430008122040850C82850D83A3AC82AD837464
:1032530004121E1B1217847402121DD38518828553
:103263001983EAF0A3EBF07C007D007402121E1BAD
:10327300850C82850D83E0F9121412E9F50AE50A3B
:10328300C3940A502E120AD0E97015A90A121484A5
:10329300E9F50979501218CEE9F50812146C801972
:1032A300A80A7900744728F582740839F5837401F4
:1032B300F080067E0280027E1802338674016F70EE
:1032C30019850C82850D83E0C39402500D850C8211
:1032D300850D83E09007B2F080027E180233867476
:1032E300016F7019850C82850D83E0C3940A500D1C
:1032F300850C82850D83E0900DA5F080027E180277
:10330300338674016F7025850C82850D83E0C39429
:10331300074019850C82850D83E0C39411500D85F8
:103323000C82850D83E0900DA7F080577E188053A3
:1033330074016F7022900845E0F508850C82850DB5
:1033430083E0900845F0E5087039900845E0640192
:10335300703112146C802C7E188028C3E50E9427DC
:10336300E50F9400501B74026F7016850C82850D57
:1033730083E0FCA3E0FDAA0EAB0F12096EE9FE8009
:10338300027E02EEF97408121DD37F08021EFF7439
:10339300F0121E2D74D7121DBDE9C0E08518828579
:1033A3001983D0E0F07401121E09EAF0A3EBF08C4C
:1033B3000E8D0F9083407403121E237406121CD0CB
:1033C3007403121E237401121E09E0FAA3E0FB85A5
:1033D3001882851983E0F9121412E9FEEEC3940AE8
:1033E3004003023521EEF912144EE9FF900DA2E0DD
:1033F30064027004740180027400F50878081220D6
:1034030044743A121E09E0FDEFFCEEF9AA0EAB0F6D
:103413001214C07401121DD37C147D00790074153D
:10342300121E1B1217968A088B0985080A85090B39
:103433007415121E237A1075F006EEA42424F912D3
:1034430018C8E9703C7C1079FF7415121E1B121703
:10345300F6E9702D7425121E09AC82AD837A0475CA
:10346300F006EEA42425F91218C8E9F5087415121C
:103473001E23EFA2E0E433F9AA0EAB0F1209F8E919
:10348300F87409121E237A0C74702EF91218C8E905
:1034930070797409121E1B121442750800E508C3E3
:1034A30094045067A8087900E875F003A4C8AAF04B
:1034B30075F000A42AFA75F003E9A42AF974091235
:1034C3001E09E58228F50CE58339F50D850C828507
:1034D3000D83E0F8A3E0F9E849602C850C82850DA3
:1034E30083A3A3E0F50A750B00780A122040850C2C
:1034F30082850D83E0FCA3E0FDAA0EAB0F120C5CEA
:103503007402121DD3E9F805088092EFA2E1500E70
:1035130090079DE0F9AA0EAB0F120C62E9F874391B
:10352300121E09E06404700F900DA2E0640270079C
:10353300AA0EAB0F1214BA79007429121DD37F0897
:10354300021EFF74F2121E2D890B8A088B09ECFEF2
:10355300EDFF750A0AE50B600B1460081460411453
:10356300605F807DAA08AB09121460E9F50AE50AD9
:10357300C3940A506CEE4F6068750C06750D0078A5
:103583000C122040AC08AD09EEFAEFFB12177E7463
:1035930002121DD38A0C8B0D850C82850D8380410D
:1035A300AA08AB0912145AE9F50AE50AC3940A50AA
:1035B30030EE4F602CEEFAEFFBA90A121454E980A7
:1035C30020AA08AB09121466E9F50AE50AC3940AAE
:1035D300500FEE4F600BEEFAEFFBA90A121454E9F9
:1035E300F8A90A7F06021EFF74F2121E2D8A0C8BA5
:1035F3000DE9FF7E1574FF650C700474FF650D7093
:103603002A750800E508C3940A5014EFFC7A027B7C
:1036130000A908121430E960027E00050880E5EF76
:1036230060627AA87B14120E608059AA0CAB0D124B
:103633000E428A088B0985080A85090BE50A450BA2
:1036430060407C007D00E50A2405FAE4350BFB8528
:103653000A82850B83A3A3A3A3E0F9121412E9F54D
:1036630008E508C3940A500EEFFC7A027B00A90810
:10367300121430E97E00EF600BAA0AAB0B1214A8F8
:1036830080027E14EEF97F06021EFF74F0121E2DD7
:1036930074FE121DBD851882851983EAF0A3EBF031
:1036A3008C0A8D0B7412121E09E0F50EA3E0F50FC0
:1036B3007E15851882851983E064FF7004A3E06496
:1036C300FF701D7F00EFC3940A506BAC0EAD0FAAC1
:1036D3000AAB0BEFF9121436E960027E000F80E5A6
:1036E300851882851983E0FAA3E0FB120E428A0C47
:1036F3008B0D850C08850D09E508450960367C00AE
:103703007D00E5082405FAE43509FB85088285096F
:1037130083A3A3A3A3E0F9121412E9FFEFC3940A4E
:103723005014AC0EAD0FAA0AAB0BEFF9121436E925
:103733007E0080027E14EEF97402121DD37F08020C
:103743001EFF74F7121E2DEAFEEBFF9007B7EEF093
:10375300A3EFF090079DE0FC7D007A267B00120921
:103763006EE9F50890079DE0F9120BD87F01021E60
:10377300FF74F2121E2D74EC121DBD8A0A8B0B8589
:103783000A82850B83A3A3E024FA7003023BBC24C3
:10379300FD7003023A30147003023864146010247D
:1037A300FD70030239D8147003023A74023C24AE4C
:1037B3000AAF0B9007B7E0F8A3E0F9E84960669019
:1037C30007B7E0F8A3E0F5838882E0F8A3E0F9E81F
:1037D300496052EE240CF582E43FF583E0F5087866
:1037E30008122044EE240BF582E43FF583E0F98EC2
:1037F300828F83A3A3A3A3A3A3A3A3A3E0FCA3E018
:10380300FDEE2403FAE43FFB9007B7E0F8A3E0F5ED
:10381300838882E0F8A3E0F5838882121E2B74016B
:10382300121DD380398E828F83A3A3A3A3A3A3A343
:10383300A3A31220579007B3121C93120A0A74020F
:10384300121DD3E9601879018E828F83A3A3A3A3EA
:10385300A3A3A3A3A3E0FAA3E0FB120A04E9023C97
:1038630024AE0AAF0B8E828F83A3E06003023986F6
:103873008E828F83A3A3A3A3A3E0A2E04003023914
:1038830086900851E0F8A3E0F9E84960030239861D
:103893007C0E7D007900AA18AB191217968A088B43
:1038A30009AA08AB09EE240CF582E43FF583E0F89E
:1038B300A3E0F9E84960367508067509007808122F
:1038C3002040EE240CF582E43FF583E02410FCA3B2
:1038D300E03400FD7402121E1B12177E7402121DC7
:1038E300D38A088B09850882850983804F8E828F4E
:1038F30083A3A3A3E0FAA3E0FB120E428A0C8B0D71
:10390300850C08850D09E5084509602D750C0675BC
:103913000D00780C122040E5082405FCE43509FD70
:103923007402121E1B12177E7402121DD38A0C8B93
:103933000D850C82850D838003023C248E828F8348
:10394300A3A3A3A3A3E0A2E25004D2F08002C2F097
:10395300A2F0E433F87900740C121E09E048F0A3D6
:10396300E049F0EEFCEFFDAA18AB19121448E97018
:10397300127A027B0090079DE0F91217D2E97900D1
:10398300023C269007B7E0F8A3E0F9E849604390CA
:1039930007B7E0F8A3E0F5838882A3A3E0F8A3E0E8
:1039A300F9E849602D8E828F83A3E0FC79018E8232
:1039B3008F83A3A3A3E0FAA3E0FB9007B7E0F8A3E8
:1039C300E0F5838882A3A3E0F8A3E0F5838882125D
:1039D3001E2B023C24AE0AAF0B9007B7E0F8A3E01E
:1039E300F9E84960459007B7E0F8A3E0F5838882DA
:1039F300A3A3E0F8A3E0F9E849602F850A82850BC9
:103A030083A3E0FC79028E828F83A3A3A3E0FAA3AE
:103A1300E0FB9007B7E0F8A3E0F5838882A3A3E077
:103A2300F8A3E0F5838882121E2B023C24850A0842
:103A3300850B097C007D00E5082404FAE43509FBC5
:103A4300850882850983A3A3A3E0F9121412E9FE72
:103A5300EEC3940A5018E508240AFCE43509FD7AFC
:103A63000475F006EEA42425F91218C2E9F8023C05
:103A730024AE0AAF0B9007B2E06019900DA5E0F9F0
:103A83008E828F83A3A3A3E0FAA3E0FB120A04E9C7
:103A9300F8023C24900DA2E0701679058E828F8384
:103AA300A3A3A3E0FAA3E0FB120A04E9F8023C246F
:103AB3008E828F83A3A3A3E0FAA3E0FB120E428AB4
:103AC3000C8B0D850C08850D098E828F83A3A3A310
:103AD300A3A3A3A3E0A2E05072E5084509606985AA
:103AE3000882850983A3A3A3A3E0605F8E828F83EB
:103AF300A3A3A3A3A3A3A3A3A3E0F8A3E0F9E8C408
:103B0300540FF87900E85401F8E95400F9E8A2E009
:103B13004039740E121E23E5082405FAE43509FB27
:103B2300850882850983A3A3A3A3E0F9121412E9EC
:103B3300701979038E828F83A3A3A3E0FAA3E0FB1A
:103B4300120A04E9F8023C24023C24EE2405FCE4B6
:103B53003FFD850882850983A3A3A3A3E0F98E8291
:103B63008F83A3A3A3E0FAA3E0FB1214B49007B7D7
:103B7300E0F8A3E0F9E849603E9007B7E0F8A3E076
:103B8300F5838882A3A3E0F8A3E0F9E84960287CE1
:103B93000079008E828F83A3A3A3E0FAA3E0FB90B6
:103BA30007B7E0F8A3E0F5838882A3A3E0F8A3E0D6
:103BB300F5838882121E2B8068120AD0E970629006
:103BC3000846E06401701A12147EE9FE90084674F8
:103BD30000F07C0A7D0079007A477B0812179680F3
:103BE300367E00EEC3940A502EEEF879007447280F
:103BF300F582740839F583E064017018EEF9121444
:103C030084E9FAEEF87900744728F582740839F5E7
:103C1300837400F00E80CC79501218CEE9FE121492
:103C23006C79017414121DD37F06021EFF74F51202
:103C33001E2D74F2121DBD8908EAFEEBFF8C09AC40
:103C430018AD197A0E75F006E508A42420F91218A8
:103C5300C8E9705F7C0679FFAA18AB191217F6E959
:103C63007051740C121E09E0F8A3E0F9E8F50AE5B7
:103C7300096005EE420A8004EEF4520AA80A7900AC
:103C8300740C121E09E0687003A3E0696021A80A9E
:103C93007900740C121E09E8F0A3E9F0AC18AD1911
:103CA3007A0E75F006E508A42420F91218C2E97902
:103CB3000180027900740E121DD37F03021EFF746C
:103CC300F0121E2D74E6121DBD89098A0E8B0FECAE
:103CD300FEEDFF740C121E237A0E75F006E509A49F
:103CE3002420F91218C8E96003023DF27C0679FF2B
:103CF300740C121E1B1217F6E96003023DF2AC1896
:103D0300AD197A0C74702509F91218C8E960030219
:103D13003DEE750800AA18AB19121442E50E450FC3
:103D2300702E7C0C7900AA18AB191217F6E9600300
:103D3300023DD47C0C7D007900AA18AB19121796AA
:103D43008A0A8B0B850A82850B83750801023DD491
:103D5300AC18AD19AA0EAB0F12143C8A0C8B0D854F
:103D63000C0A850D0BE50A450B7030EE4F601BAC5A
:103D730018AD197A007B0012143C8A0C8B0DA80C29
:103D8300A90D880A890BE849700479008063850AC4
:103D930082850B83E50EF0A3E50FF0850A82850B80
:103DA30083A3A3E0F87900EE687002EF696022EE66
:103DB300C0E0850A82850B83A3A3D0E0F0EE4F70A9
:103DC3000D850A82850B837400F0A37400F07508D7
:103DD30001E5086016AA18AB19121442AC18AD1904
:103DE3007A0C74702509F91218C2E97901800279F5
:103DF30000741A121DD37F08021EFF74F7121E2DC2
:103E0300EAFEEBFF7A00EAC39404504EEAF8790025
:103E1300E875F003A4C8ABF075F000A42BFB75F0B4
:103E230003E9A42BF9EC28F582ED39F583E06E70F4
:103E330003A3E06F7021EAF87900E875F003A4C8E2
:103E4300AAF075F000A42AFA75F003E9A42AF9ECA4
:103E530028FAED39FB80070A80AC7A007B007F01EA
:103E6300021EFF74F7121E2D7C00ECC39404400362
:103E7300023F15ECF87900E875F003A4C8ADF075BE
:103E8300F000A42DFD75F003E9A42DF9EA28F582CD
:103E9300EB39F583E0F4FEA3E0F4FFECF87900E8F6
:103EA30075F003A4C8ADF075F000A42DFD75F00303
:103EB300E9A42DF9EA28F582EB39F583EEF0A3EFB7
:103EC300F0ECF87900E875F003A4C8ADF075F000E4
:103ED300A42DFD75F003E9A42DF9EA28F582EB3949
:103EE300F583A3A3E0F4C0E0ECF87900E875F003F0
:103EF300A4C8ADF075F000A42DFD75F003E9A42D61
:103F0300F9EA28F582EB39F583A3A3D0E0F00C029C
:103F13003E6D7F01021EFF74F0121E2D74F4121DFC
:103F2300BDEAFEEBFF8C088D09900851E0F8A3E091
:103F3300F9E849702CEE4F6006E5084509700579EC
:103F4300010241C6EEFAEFFB121460E9900DA8F0EE
:103F5300900DA8E0C3940A4008121472E9900DA8CA
:103F6300F0900DA8E0C3940A40030241C4900851A5
:103F7300E0F8A3E0F9E8496003024010EEFCEFFD2E
:103F83007A0E75F006900DA8E0A42420F91218C249
:103F9300E9F50B7C0C7D0079FFAA18AB1912179673
:103FA3008A0C8B0D850C0E850D0FAC18AD197A0C90
:103FB300900DA8E02470F91218C2E9F50A750C0EE9
:103FC300750D00780C122040EEFCEFFD900DA8E07B
:103FD300F87900E875F00EA4C8AAF075F000A42AD9
:103FE300FA75F00EE9A42AF974B928FA740739FBB3
:103FF30012177E7402121DD38A0C8B0DA80CA90D07
:10400300900851E508F0A3E509F00241C09008517A
:10401300E0F8A3E0C82406F582C83400F583E0F88D
:10402300A3E0F9E8496043900851E0F8A3E0C8240D
:1040330006F582C83400F583E0FCA3E0FD7A1B7526
:10404300F006900DA8E0A42421F91218C2E9F89013
:104053000851E0F9A3E0C92406F582C93400F583C9
:104063007400F0A37400F00241C0900851E0F8A37B
:10407300E0C8240AF582C83400F583E0F8A3E0F928
:10408300E8496043900851E0F8A3E0C8240AF582A8
:10409300C83400F583E0FCA3E0FD7A1B75F00690BD
:1040A3000DA8E0A42422F91218C2E9F8900851E0FF
:1040B300F9A3E0C9240AF582C93400F5837400F03A
:1040C300A37400F00241C0900851E0F8A3E0C824B3
:1040D3000CF582C83400F583E0F8A3E0F9E8496001
:1040E30043900851E0F8A3E0C8240CF582C83400DB
:1040F300F583E0FCA3E0FD7A1075F006900DA8E0CF
:10410300A42423F91218C2E9F8900851E0F9A3E0B6
:10411300C9240CF582C93400F5837400F0A374003C
:10412300F00241C0900851E0F8A3E0C82408F582EA
:10413300C83400F583E0F8A3E0F9E849606F90081C
:1041430051E0F8A3E0C82408F582C83400F583E001
:10415300FCA3E0FD7A1075F006900DA8E0A42424DA
:10416300F91218C2E9F50A900851E0F8A3E0C8244F
:1041730008F582C83400F583E02410FCA3E0340082
:10418300FD7A0475F006900DA8E0A42425F9121811
:10419300C2E9F8900851E0F9A3E0C92408F582C9FF
:1041A3003400F5837400F0A37400F0801090084588
:1041B300E060031214C61214AE7901800679008000
:1041C300027901740C121DD37F08021EFF74F712CB
:1041D3001E2D74F2121DBDE9FEAC18AD197A0E75D1
:1041E300F006EEA42420F91218C8E9700E740C121C
:1041F3001E09E0F8A3E0F9E8F980027900740E12D1
:104203001DD37F01021EFF74F4121E2D74F2121DC2
:10421300BD8909EAFEEBFFE509C3940A5004EE4F9A
:10422300700479028041AC18AD197A0E75F006E579
:1042330009A42420F91218C8E9F508E508702675C1
:104243000A06750B00780A1220407402121E23EE30
:10425300FAEFFB12177E7402121DD38A0A8B0B85A9
:104263000A82850B83A908740E121DD37F04021ED4
:10427300FF74F4121E2DEAFEEBFF750800E508C378
:10428300940A5043750A06750B00780A122040EE13
:10429300FCEFFDA8087900E875F00EA4C8AAF07534
:1042A300F000A42AFA75F00EE9A42AF974BF28FADB
:1042B300740739FB1217907402121DD3E96004A925
:1042C300088006050880B6790A7F04021EFF74F48D
:1042D300121E2DEAFEEBFF750800E508C3940A5091
:1042E30043750A06750B00780A122040EEFCEFFDB9
:1042F300A8087900E875F00EA4C8AAF075F000A428
:104303002AFA75F00EE9A42AF974B928FA74073960
:10431300FB1217907402121DD3E96004A9088006EA
:10432300050880B6790A7F04021EFF74F7121E2D5A
:1043330074F0121DBDEAFEEBFF750800E508C39497
:104343000A5039AC18AD197A1075F006E508A424A3
:1043530023F91218C8E970207C1079FFAA18AB1949
:104363001217F6E97012EEFCEFFDAA18AB19120949
:10437300DAE97004A9088006050880C0790A741078
:10438300121DD37F01021EFF74F4121E2D75080047
:10439300E508C3940A4003024465A8087900E87558
:1043A300F00EA4C8AAF075F000A42AFA75F00EE97D
:1043B300A42AF974B928FC740739FD7A0E75F0063E
:1043C300E508A42420F91218C8E970030244607CAC
:1043D300067D0079FFAA087B00EA75F00EA4CAA83F
:1043E300F075F000A428F875F00EEBA428FB74B95F
:1043F3002AFA74073BFB1217968A0A8B0BAE0AAF95
:104403000B7C067D0079FFAA087B00EA75F00EA4F9
:10441300CAA8F075F000A428F875F00EEBA428FBE9
:1044230074BF2AFA74073BFB1217968A0A8B0BACEC
:104433000AAD0BA8087900E875F00EA4C8AAF075B8
:10444300F000A42AFA75F00EE9A42AF974C528F538
:1044530082740739F5837400F0A37400F005080231
:104463004393900845E060031214C61214AE7F0410
:10447300021EFF74F7121E2D7E00EEC3940A503203
:104483007C0679FFEEFA7B00EA75F00EA4CAA8F069
:1044930075F000A428F875F00EEBA428FB74B92A74
:1044A300FA74073BFB1217F6E96004EEF980050E78
:1044B30080C8790A7F01021EFF74F7121E2D7E0049
:1044C3007F00EFC3940A50357C0679FFC9FDC9EF1D
:1044D300F87900E875F00EA4C8AAF075F000A42AD4
:1044E300FA75F00EE9A42AF974B928FA740739FBAE
:1044F300CDF9CD1217F6E970010E0F80C5EEF97FE5
:1045030001021EFF74F7121E2D7E007F00EFC3947D
:104513000A500DEE700AEFF9121484E9FE0F80EDD4
:10452300EEF97F01021EFF74F0121E2D74C9121DD5
:10453300BDE9FE900DA8E06E701D7A017B00900727
:104543009DE0F91217D8E97A027B0090079DE0F904
:104553001217D8E91214D27429121E237A0E75F099
:1045630006EEA42420F91218C8E9600302465E7C13
:104573000679FF7429121E1B1217F6E9600302461F
:104583005E7C0E7D0079FF7429121E1B121796851F
:104593001882851983EAF0A3EBF07C1B7D0079FF79
:1045A300740E121E1B1217968A0A8B0B850A0E8530
:1045B3000B0F7C0C7D0079FF7402121E1B121796E1
:1045C3008A0C8B0D850C0A850D0B7429121E237A18
:1045D3000E75F006EEA42420F91218C2E9F508744A
:1045E3000E121E237A1B75F006EEA42421F912186D
:1045F300C2E94208740E121E237A1B75F006EEA45C
:104603002422F91218C2E94208740E121E237A10EA
:1046130075F006EEA42423F91218C2E94208740EB9
:10462300121E237A1075F006EEA42424F91218C280
:10463300E94208740E121E237A0475F006EEA424D0
:1046430025F91218C2E942087402121E237A0C7467
:10465300702EF91218C2E942088003750800A908F0
:104663007437121DD37F08021EFF74F7121E2DE943
:10467300FEEE90079DF012146C7F01021EFF74F290
:10468300121E2D890AEAFEEBFFEE5400F8EF548068
:10469300F9E849603590079DE0F91217BA8A0C8B47
:1046A3000DA80CA90D88088909E8496012AA08AB6E
:1046B30009121496E96008AA08AB091217A8E9EED3
:1046C3006400FAEF6480FB024785EE5402602D7CA0
:1046D300007D007A007B00121448E960187A017BA0
:1046E3000090079DE0F91217D2E9EE6402FAEF6435
:1046F30000FB0247857A027B00024785EEA2E05069
:104703007D900851E0F8A3E0F5838882A3A3A3E09A
:10471300FAA3E0FB1214CCE9605E9007B7E0F8A3BC
:10472300E0F9E84960459007B7E0F8A3E0F583882E
:1047330082A3A3E0F8A3E0F9E849602F7C007901A4
:10474300900851E0F8A3E0F5838882A3A3A3E0FADD
:10475300A3E0FB9007B7E0F8A3E0F5838882A3A367
:10476300E0F8A3E0F5838882121E2B1214D2EE64C4
:1047730001FAEF6400FB800A7A017B0080047A006F
:104783007B007F06021EFF74F7121E2DEAFEEBFF6D
:104793007508018E828F83E02450601314601924FE
:1047A300E1701CEEFAEFFB12142AE9F5088010EE13
:1047B300FAEFFB12149C8007EEFAEFFB1214A2A986
:1047C300087F01021EFF74F7121E2DEAFEEBFF8E17
:1047D300828F83A3A3A3A3E0641E701179008E824A
:1047E3008F83A3A3E0FAA3E0FB121418E97F01026D
:1047F3001EFF74F6121E2D8A088B0985088285090F
:1048030083A3A3A3A3E07034AE08AF098E828F8382
:10481300A3A3A3A3A3A3A31220578E828F83A3A32F
:10482300A3A3A3E0FCA3E0FD8E828F83A3A3E0FAFE
:10483300A3E0FB12141E7402121DD3E97F02021EB1
:10484300FF74F7121E2DEAFEEBFF90079DE0F98E31
:10485300828F83A3E0FAA3E0FB120C62E97F0102DB
:104863001EFFC082C08374FF121DBD121478E9C3FA
:104873009402400B8518828519837402F0800985A0
:104883001882851983740AF0AC18AD197A01790579
:10489300120AE8E97401121DD3D083D082020132D7
:1048A30074F2121E2D74E8121DBD8A088B09E9FEED
:1048B3008C0A8D0B7C187D007900AA18AB1912178E
:1048C300968A0C8B0DAC0CAD0D851882851983E58A
:1048D30008F0A3E509F090079FE0C0E07402121E00
:1048E30009D0E0F09007A0E0C0E07403121E09D0E5
:1048F300E0F0900DA7E0C0E07417121E09D0E0F0BD
:104903007415121E09E054FEFAA3E054FFFB900D48
:10491300A6E0A2E0E433F87900EA48F8EB49F97439
:1049230015121E09E8F0A3E9F0900DA6E0A2E150EC
:1049330004D2F08002C2F07415121E09E054FDFA8D
:10494300A3E054FFFBA2F0E433F87900E828F8E988
:1049530033F9EA48F8EB49F97415121E09E8F0A394
:10496300E9F0900DA6E0A2E35004D2F08002C2F079
:104973007415121E09E054F7FAA3E054FFFBA2F0EA
:10498300E433F50C750D007403780C121DAAEA4587
:104993000CF8EB450DF97415121E09E8F0A3E9F0C4
:1049A300900DA6E0A2E45004D2F08002C2F0741588
:1049B300121E09E054EFFAA3E054FFFBA2F0E43324
:1049C300F50C750D007404780C121DAAEA450CF859
:1049D300EB450DF97415121E09E8F0A3E9F0900DEB
:1049E300A6E0A2E55004D2F08002C2F07415121EB4
:1049F30009E054DFFAA3E054FFFBA2F0E433F50C23
:104A0300750D007405780C121DAAEA450CF8EB45E8
:104A13000DF97415121E09E8F0A3E9F0900DA6E054
:104A2300A2E25004D2F08002C2F07415121E09E013
:104A330054FBFAA3E054FFFBA2F0E433F50C750D2D
:104A4300007402780C121DAAEA450CF8EB450DF927
:104A53007415121E09E8F0A3E9F09007A0E0602A9C
:104A6300750C10750D00780C1220407CA17D077425
:104A730006121E09AA82AB8312177E7402121DD37B
:104A83008A0C8B0D850C82850D839007B1E0601134
:104A9300EE600E7415121E09E04402F0A3E0440018
:104AA300F09007B1E060067801790080047800791E
:104AB300007414121E09E048F090079EE060067827
:104AC3000479008004780079007414121E09E04808
:104AD300F0AC0AAD0BAA18AB191209FEE97418124F
:104AE3001DD37F06021EFF74F7121E2DEAFEEBFF95
:104AF3007508009007B1E0600678017900800478BA
:104B0300007900E8420890079EE060067804790087
:104B1300800478007900E84208A908EEFAEFFB1256
:104B23000AB8E97F01021EFF74F2121E2D74E3120C
:104B33001DBD8A0C8B0DE9FF8C0A8D09742B121E87
:104B430009E0F50874086509700A75F006EFA424F6
:104B530022FE800875F006EFA42421FE7C1B7D0055
:104B630079007402121E1B12179685188285198309
:104B7300EAF0A3EBF07402121E237A1BEEF912186B
:104B8300C8E97038741C121E09E0C39407402D74E1
:104B93001C121E09E0C394115022E508F50B780B93
:104BA3001220447403121E23E50AA2E0E433F9AA97
:104BB3000CAB0D120A107401121DD3E9741D121DE2
:104BC300D37F06021EFF74F7121E2D120CDAE97E44
:104BD30000EEC3940A505C7C0679FFC9FDC9EEF868
:104BE3007900E875F00EA4C8AAF075F000A42AFABB
:104BF30075F00EE9A42AF974B928FA740739FBCDC4
:104C0300F9CD1217F6E97028EEF87900E875F00E81
:104C1300A4C8AAF075F000A42AFA75F00EE9A42A34
:104C2300F974B928FA740739FB7900120CE0E9F832
:104C33000E809E7F01021EFF74F6121E2D74FD125C
:104C43001DBDEAFEEBFF900853E0F8A3E0F9E84945
:104C530070397508557509087808122040750802DF
:104C630075090078081220407508017509847808D1
:104C73001220407CFF7DFF7A017B00120B2A740611
:104C8300121DD3900853EAF0A3EBF0900853E0F819
:104C9300A3E0F9E8497003024D58E4F508F50978F3
:104CA300081220407404121E138808890978081218
:104CB30020407404121E13880889097808122040C2
:104CC3009008551220577902900853E0FCA3E0FDA9
:104CD300EEFAEFFB120C507408121DD3E9704A85EB
:104CE3001882851983E0FA7B007401121E09E0F82B
:104CF3007900E4C8F9EA28F508EB39F509E5084530
:104D03000960267808122040900853E0F8A3E0F5E4
:104D1300838882A3A3A3A3E0FCA3E0FDEEFAEFFB49
:104D230012141E7402121DD3E9E4F508F50978087C
:104D33001220409008551220577CFF7DFF900853A6
:104D4300E0FAA3E0FB120B367404121DD390085350
:104D5300EAF0A3EBF0900853E0F8A3E0F9E8497018
:104D6300047901800279007403121DD37F02021EAD
:104D7300FFC082C083900851E0F8A3E0F9E84960DE
:104D830017900851E0FAA3E0FB1217A8E9F890087E
:104D9300517400F0A37400F0900DA8740AF0D0834E
:104DA300D082020132C082C083E9900C30F00250FD
:104DB3003774F7121E2DE990031FF07C577D037A99
:104DC300FF7BFF120C6890032074FFF0A3F0A3E4B1
:104DD300F0A3F07905120BF090031FE0F9120B1208
:104DE3007A867B0C120E307F01021EFF74F4121EB2
:104DF3002D8A088B09EB5480603090031FE0F91271
:104E030017BA8A0A8B0BAE0AAF0BEE4F60138E8272
:104E13008F83E064B07003120C08EEFAEFFB1217F5
:104E2300A8AA08E5096480FB80047A007B0002508D
:104E33000674F2121E2D74FC121DBDEAFEEBFFEE8A
:104E43004F60387402121E09EEF0A3EF12526BEC9E
:104E5300F0A3ED12526BAA82AB83120B0CE9F50897
:104E630070737412121E09125E1FE50A450B60650A
:104E73008E828F83124EE2EE4F70057508028055C5
:104E83007A067B001218448A0C8B0DA80CA90DE836
:104E9300497005750813803D88828983E4124EECBE
:104EA300A3A3EEF0A3EF1262B8E50AF0A3E50BF0BB
:104EB300900325124F749003256017E0FCA3E08054
:104EC30003EAFCEBFD8C828D83124F7470F38C82AA
:104ED3008D83125D44A9087404121DD30264BAA31E
:104EE300A3A3A3E0FEA3E0FF22F0A3F088828983BB
:104EF3002274F2121E2D890AE975F017A4FEAFF091
:104F0300900324E4F0900322124F74600A12184AAB
:104F1300900322E4F0A3F0EEFAEFFB1218448A08A0
:104F23008B09EA4509602FEEFCEFFD790012179615
:104F3300900322E508F0A3E509F07B008008124FF7
:104F43005EE4F0A3F00BEBC3950A40F2E50A90038D
:104F530024F07900800279130264BAEB75F017A488
:104F6300F8A9F0900322E028FAA3E0398A82F583B6
:104F730022125ADAEA4B2274F4121E2D75080075B8
:104F83000900740C121E0912628CFEE9FF800CE505
:104F9300082401F508E5093400F509C3E5089CE593
:104FA300099D503285080A85090B7403780A121D7E
:104FB300AAEA250AF8EB350BF988828983A3A3A310
:104FC300A3A3A3125E1FEE650A7003EF650B70BF08
:104FD300E8FAE9FB80047A007B00802774F4121E50
:104FE3002D7900EAA2E0501B7508FE750982780846
:104FF3001220407C047D007A327B0C120BEA74028F
:10500300121DD37F04021EFFC082C08390032512AA
:10501300503E601C88828983A3A3E06A7003A3E0E7
:105023006B8882898370E8A3A3A3A3125AD6800452
:105033007A007B00D083D08202013212658DE84969
:105043002274EE121E2D74FC121DBDEAFEEBFF85C9
:105053001882851983E4F0A3F0EE2402125D28EE92
:105063002405125259EE2404F50EEF12563EE024A5
:10507300FE603924FC604624FE605224FE605E24F8
:10508300FE700302515E24FE70030251D624FE70AB
:10509300030251E524FE70030251F424FC70030261
:1050A300520324FE700302521202524F90033E74C5
:1050B30017F0A3E412527312088A02524F85188222
:1050C300851983AC82AD83120C0E02521F851882A0
:1050D300851983AC82AD83120C1402521F850C0810
:1050E300850D097402121E09AC82AD838508828581
:1050F3000983125AD6120B308A0C8B0DAC0CAD0DF2
:10510300EC4D6042E4F50CF50D780C122040750C63
:105113003E750D03780C122040750C3F750D037816
:105123000C1220407408121E091220577916125AC5
:10513300D0120C507408121DD3E9F50C700B125ADF
:10514300CC1208A2800F750C018508828509831291
:105153005261125D44850C080252227402121E0928
:10516300AC82AD83850C82850D83125AD6120B3027
:105173008A108B11AC10AD11EC4D6043850C828508
:105183000D83A3A312205775103E751103781012D7
:10519300204075103F7511037810122040740812D7
:1051A3001E091220577916125AD0120C5074081285
:1051B3001DD3E9F509700B125ACC1208A8800F759C
:1051C3000901850C82850D83125261125D448509A4
:1051D30008804C851882851983AC82AD83120C1A22
:1051E300803A851882851983AC82AD83120C2080A6
:1051F3002B851882851983AC82AD83120C26801C03
:10520300851882851983AC82AD83120C2C800D85A1
:105213001882851983AC82AD83120C32E9F508E557
:105223000860298E828F83A3E06414601F850E8239
:10523300850F83E090033E12526B12658990033F02
:10524300125D44E508A3125273120884EEFAEFFBD1
:10525300120BAE025C30F50CEF3400F50D22126533
:105263008D85188285198322F085188285198322FA
:10527300F07C3E7D03850A82850B83125ADA227401
:10528300EE121E2D74FC121DBD8A0A8B0B8C0E8D23
:105293000FEA2405F508EB3400F5097C157D007948
:1052A300007A3E7B03121796E5082402F50CE50904
:1052B30012525C8518828519838582108583117843
:1052C30010122040850882850983A3A3A3A3125744
:1052D30086122040E5082405F510E5093400F51190
:1052E3007810122040850C82850D83125AE0120B30
:1052F3002A7406121DD38A108B11AE10AF11E50A62
:105303002402F50AE50B125D2BEE4F70030254489D
:1053130080177402121E09125AD688828983EAF012
:10532300A3EBF090033EE004F090033EE0C394054A
:105333004003025448E4F510F5117810122040752B
:10534300102775110378101220407510287511036A
:1053530078101220407406121E091220577910EE9D
:10536300FCEFFD125AD0120C507408121DD3E970D1
:105373005E850882850983A3A3A3A3A3A3A3E0F85F
:10538300900327E06870481257861220407C287DDE
:1053930003E5082408FAE5093400FB1217907402A8
:1053A300121DD3E960298E828F83A3A3A3A3125A6C
:1053B300D690033EE0F51074027810121DAA743FD4
:1053C3002510F58274033511F583EAF0A3EBF0742D
:1053D30002121E09858210858311781012204074F1
:1053E30002121E09122057850C82850D8312659EB9
:1053F300120B367404121DD38A108B11AE10AF1129
:1054030090033EE0F51075110074027810121DAA86
:10541300743E2510F874033511F988828983A31229
:105423004F74700302530CE82403F8E93400F9EED7
:105433004F60030253158882898374FFF0A3F090B1
:10544300033EE004F090033EE0600A125ACC1208D7
:10545300967900800B850882850983125D3B790A62
:10546300025C3074EA121E2D74FE121DBD8C128D67
:1054730013EA2405F50CEB126708124EE6750800D3
:10548300750900EA2402F510EB3400F51185188242
:1054930085198385820A85830B780A122040850C3F
:1054A30082850D83A3A3A3A3125648122040E50CC3
:1054B3002405F50AE50D125D2B780A122040850CB0
:1054C30082850D8312659C120B2A7406121DD38AE2
:1054D3000A8B0BEA450B70030255F9EA2404F50E17
:1054E300EB12563E124EE68A828B83A3A3A3E0F906
:1054F300851082851183125AD6120B18E9F50960BB
:10550300030255F9E4F514F51578141220407514C7
:105513002775150378141220407514287515037820
:10552300141220407406121E091220577913AC0A74
:10553300AD0B851082851183125AD6120C50740854
:10554300121DD3E9F50960030255F9900327E0F82A
:10555300E5087009E0240290033FF0801790033FB1
:10556300E0FCE82402FAE43400FBEA6C7001EB602F
:10557300030255FD850882AA8212577D941412579F
:10558300755073850E82850F83E0C0E074402A1244
:105593005635D0E0F00508850E82850F83A3E0C061
:1055A300E085080A7440250A125635D0E0F0050854
:1055B3009003271256481220407C287D0385080A51
:1055C3007440250AFA74033400FB12177E74021226
:1055D3001DD3900327E02508F50874FF6E7003744C
:1055E300FF6F6012EE24010EEF3400FFE508C39451
:1055F300145003025490E50860131259C1851082B8
:10560300851183125AD612089C79008014E509701B
:105613000375090A851282851383EEF0A3EFF0A9BF
:10562300097402121DD37F0E021EFF85080C7440FD
:10563300250CF58274033400F583223400F50F85BD
:105643000E82F583221262CB2274EE121E2D74FE9B
:10565300121DBD8C0E8D0FEA2405F50CEB12525C66
:10566300750B0090033EE4F0F50AEA2402F508EB1B
:105673003400F509804990033EE0FA900327E0F8EF
:1056830012577D9417125775400D90033EE0F8743E
:1056930016C398900327F01257861220407C287D6A
:1056A30003743F2AFA74033400FB12177E74021248
:1056B3001DD3900327E0F890033EE028F0050AE5A8
:1056C3000C2416F582E50D125639E0F8E50AC39865
:1056D300400302575E90033EE0C39416507DE50AF3
:1056E300C333F8E433F9E50C28FEE50D39FF8518DB
:1056F30082851983AC82AD838E828F83125AD61230
:105703000B308A108B11AC10AD11EC4D7005750B7D
:10571300018043E4F510F51178101220407510272D
:105723007511037810122040751028751103781035
:105733001220407406121E0912205779168508821A
:10574300850983125AD6120C507408121DD3E9F539
:105753000B7003025679125D3780107C3E7D038502
:105763000882850983125AD61208AEA90B74020265
:105773005C32E99400C365D03322EA28F8E43400AC
:10578300F9E822E0F51075110078102274EA121E70
:105793002D74FC121DBD8A0C8B0D8C128D13EA2403
:1057A30005F50AEB125D2B750800750900E50A245F
:1057B30002F510E50B3400F5117402121E098582FF
:1057C3000E85830F780E122040850A82850B83A3F2
:1057D300A3A3A3126277122040E50A2405F50EE580
:1057E3000B3400F50F780E1220408510828511834B
:1057F300125D31125AD0120B2A7406121DD38A0E6F
:105803008B0FAE0EAF0FE50C2402F50EE50D340041
:10581300F50F80408882898374FFF0050812562EA5
:1058230074FFF00508900327E0F50C750D00780C64
:105833001220407C287D0385080C7440250CFA74E3
:10584300033400FB12177E7402121DD3900327E06A
:105853002508F508EE4F60718E828F83A3A3A3E022
:10586300F9850E82850F83125AD6120B18E9F509B2
:10587300EE2404125259E97044E4F514F515781432
:1058830012204075142775150378141220407514DF
:105893002875150378141220407408121E0912206B
:1058A300577911EEFCEFFD850E82850F83125AD6D0
:1058B300120C507408121DD3E9F5096027850C8278
:1058C300850D831259B7125D44E508700302599D93
:1058D3001259C1850E82850F83125AD61208B479E4
:1058E300000259B2850882AA82EA9003277009E070
:1058F300240490033FF08022E0F890033FE0F51486
:10590300E82404FCE43400FDEC65147001ED70C080
:1059130012577D941212577550B6850C82850D83EC
:10592300E0C0E074402A125635D0E0F00508850C3B
:1059330082850D83A3E0C0E012562ED0E01259D326
:1059430085820C85830D780C1220407404121E0985
:1059530012205785108285118312659E120B3674AF
:1059630004121DD38A0C8B0DAE0CAF0D85080C747D
:1059730040250CF874033400F9EE4F7003025817F6
:10598300851882851983E0888289831259D3A3E01D
:10599300C0E012562ED0E0025825E50970037509C0
:1059A3000A850A82850B831259B7125D44A90974CB
:1059B3000402562612658D85128285138322900375
:1059C3003FE0F5F0E5088490033EF07C3E7D032242
:1059D300F005088518828519832274EC121E2D7434
:1059E300FE121DBD8A088B098C0E8D0FEA2405FE5D
:1059F300EB3400FF851882851983AC82AD838E82D8
:105A03008F83125AD6120B308A0A8B0BEE2418128C
:105A13005259EA450B7003025AA7125C195032859A
:105A23001882851983125AD6120C448A108B11EAF4
:105A33004511606B7912AC0AAD0B85088285098329
:105A4300125AD6851082851183121E2BE9F50A702E
:105A530058E4F50AF50B780A1220408E828F83A34F
:105A6300A3E0F50A780A122040EE2403125D287899
:105A73000A1220408E828F83125AE0120C5674064B
:105A8300121DD3E9F50A7021850C82850D83E07020
:105A93001F850882850983125AD61208BA801175A8
:105AA3000A0E8009750A018004E50A6003125D3756
:105AB300850C82850D83E0600479008002A90A7455
:105AC30002121DD37F0C021EFF7C3E7D03850A82DA
:105AD300850B83125ADA22E0FAA3E0FB22E0FCA34F
:105AE300E0FD850882850983125ADA2274EE121EBC
:105AF3002D74FE121DBD8A088B098C0C8D0DEA24B2
:105B030005FEEB3400FF750E00851882851983AC02
:105B130082AD838E828F83125AD6120B308A0A8B00
:105B23000BEA450B7003025C05125C1950358518AE
