:020000040000FA
:0600000002011A02282B88
:03002B00022FDAC7
:03003300022FB2E7
:0300530002289EE2
:03006B00022F5908
:03007B00022F81D0
:10008300022697E5C754F84401F5C7790122000019
:100093000080FB120086B90003020104E479217891
:1000A30008B800028004F709D8FCE479297802B87B
:1000B30000028004F709D8FCE4900281787A790879
:1000C3008002F0A3D8FCD9FA781A90014A7A01BACF
:1000D30000028007E493A3F608DAF97AFA7B099021
:1000E300014B787B79078015E493A3AD82AE838AB5
:1000F300828B83F0A3AA82AB838D828E83D8E9D9C6
:10010300E77582E8758391740412012C75829175E9
:100113008300740012012C75D00075813F7518811E
:10012300751902759F00020096C09FF59FE473D076
:100133009F22D083D082C09FE493C0E0740193C018
:10014300E0740293F59F220112416363656C2E20D4
:1001530044617461000A416363656C2E20436F6ED2
:10016300662E000A0A416363656C2E20506572692E
:100173006F640002E483010000BC8302FE8301007C
:1001830000FA091065810100008302020484030060
:1001930000860202FC83010000FB0902FE830100CA
:1001A30000070A1005810300008C0202FC83010092
:1001B30000080A02FE83010000150A10B58103003E
:1001C30000160A02FC83010000170A124261726FD3
:1001D3006D2E2044617461000A4261726F6D2E209E
:1001E300436F6E662E00024261726F6D2E20436173
:1001F3006C6962722E000A0A4261726F6D2E205082
:100203006572696F640002E483010000C28302FE29
:10021300830100007D0A10B5800100008F020204F3
:1002230084030000930202FC830100007E0A02FEA5
:10023300830100008A0A10C580030000990202FCB2
:10024300830100008B0A02FE83010000A80A1055F7
:1002530081030000A90A02FC83010000AA0A02FE2E
:1002630083010000980A10D5800100009A0202045D
:1002730084030000AA0202FC83010000990AFF0024
:1002830000B4000028002800283075A000A000A0BA
:1002930000A00000080008E001F0001000100010AA
:1002A300001000100010005000500050001000100B
:1002B30000D0070000000000000F0001000500301F
:1002C3007507001000010081FF00000000FF170AFE
:1002D300350A1D0AFF02020208025000A0000000B6
:1002E300E80302E483010000BF8302FE83010000F0
:1002F300870B02F483010000E20202FE8301000087
:10030300880B02F283010000F80202FE8301000061
:10031300890B02F083010000FA0202FE8301000050
:100323008A0B02EE83080000FB0202FE8301000039
:100333008B0B02EC830100008C0BFF0100FF2002FA
:10034300E483010000C58302FE83010000F00B0279
:10035300EA8300000000000204840300004803FF56
:100363000FFF0FFF0FFF0FFF0FFF0FFF0FFF0FFF1A
:100373000FFF0FFF0FFF0FFF0F9312AB128D121220
:10038300436F6E6E2E20506172616D730008436F70
:100393006E6E2E20506172616D732052657100087C
:1003A300446973636F6E6E656374205265710002F6
:1003B300E483010000CE8302FE83010000310C10B0
:1003C300158201000071070204840300007707020D
:1003D300FC83010000320C02FE830100003F0C107D
:1003E30025820200007D0702FC83010000400C020D
:1003F300FE83010000510C103582020000850702C4
:10040300FC83010000520C020202020202020202F9
:10041300010D000000100102E483010000B6830215
:10042300FE83010000B90C02D68301000086070297
:10043300FE83010000BA0C02D4830100004F830243
:10044300FE83010000BB0C02DA830100004083023B
:10045300FE83010000BD0C02DC83010000938002D7
:10046300FE83010000BE0C02DE830100004583020F
:10047300FE83010000BC0C02E0830100004A8302FA
:10048300FE83010000BF0C02E283010000818002B1
:10049300FE83010000C00C020284010000D5820229
:1004A300FE83010000C10C02E683010000C20C01BF
:1004B300E803053F100A124779726F2044617461A3
:1004C300000A4779726F20436F6E662E000A0A474F
:1004D30079726F20506572696F640002E4830100D2
:1004E30000B08302FE83010000680D10E580010067
:1004F300004A08020484030000500802FC83010040
:1005030000690D02FE83010000730D1035810300A5
:1005130000560802FC83010000740D02FE830100F3
:10052300007F0D107581030000800D02FC83010024
:1005330000810D0380000080700061801248756D9A
:1005430069642E2044617461000A48756D69642EE4
:1005530020436F6E662E000A0A48756D69642E206B
:10056300506572696F640002E483010000CB83026B
:10057300FE83010000EE0D10A581010000E10802D9
:100583000484030000E50802FC83010000EF0D0270
:10059300FE83010000FB0D10D581030000EB080270
:1005A300FC83010000FC0D02FE83010000090E1014
:1005B30055820300000A0E02FC830100000B0E1299
:1005C30054656D702E2044617461000A54656D702A
:1005D3002E20436F6E662E000A1E54656D702E200A
:1005E300506572696F640002E483010000D18302E5
:1005F300FE83010000710E10B582010000EE0802B7
:100603000484030000F20802FC83010000720E025E
:10061300FE830100007D0E10A582030000F808028E
:10062300FC830100007E0E02FE830100008A0E108F
:1006330095820300008B0E02FC830100008C0E12D6
:100643004D61676E2E2044617461000A4D61676ECF
:100653002E20436F6E662E000A0A4D61676E2E20B0
:10066300506572696F640002E483010000C883026D
:10067300FE83010000F10E106582010000FB0802F9
:100683000484030000010902FC83010000F20E024E
:10069300FE83010000FD0E104582030000070902DE
:1006A300FC83010000FE0E02FE830100000A0F100E
:1006B30095810300000B0F02FC830100000C0FFF68
:1006C300FFFF000130750302010600000000000077
:1006D3000000000000000000000000000000000017
:1006E300000000000000FFFF0600800CE8030A0979
:1006F30053656E736F7254616705125000200302D5
:100703000A04020105544920424C452053656E7387
:100713006F722054616700D007E803E803E803E839
:1007230003E80323190000531959195F196B19655D
:1007330019711977197D198319104B657920507236
:100743006573732053746174650002E483010000D0
:10075300B38302FE83010000EB0F02F88300000065
:10076300E809020484030000E90902FC8301000094
:10077300EC0F02546573742044617461000A54657C
:10078300737420436F6E6669670002E4830100009F
:10079300B98302FE83010000241010F580030000DA
:1007A300F10902FC83010000251002FE8301000011
:1007B3002F10104581030000F90902FC830100009A
:1007C3003010120135ABAD03120135FBAD0312013D
:1007D3003524AE03120135D6AE031201353FAF0304
:1007E3001201354BB00312013514B2031201355116
:1007F3009403120135A19403120135CA9403120123
:1008030035E49503120135779603120135C097033A
:100813001201358D9903120135CAFC03120135E12A
:10082300FC0312013512FD031201354DFD031201C4
:100833003577FD03120135A1FD03120135B8FD0320
:10084300120135CFFD03120135E6FD031201350F09
:10085300FE0312013522FE0312013538FE03120195
:10086300354BFE0312013572FE03120135EADB023A
:10087300120135EEDC0212013526DD021201354983
:10088300DD0212013554DD0212013577DD0212015A
:100893003586DE021201355BDF02120135D6DF0237
:1008A3001201355EE00212013599E002120135D0E2
:1008B300E0021201355EE10212013537E202120154
:1008C3003597E202120135A2E20212013521E30259
:1008D30012013524E30212013527E302120135B672
:1008E300E302120135B9E302120135E9E302120111
:1008F3003513E40212013501E502120135B3E502B5
:10090300120135EEA80312013516A903120135446D
:10091300A9031201357BA903120135D9A9031201D9
:100923003524AA031201356FAA03120135AFAA03B6
:10093300120135F5AA0312013523AB03120135E089
:10094300AB03120135EAAB03120135F7AB03120116
:10095300352AAC03120135F6AC0312013502AD039F
:100963001201351AAD0312013524AD031201352BE3
:100973008D04120135398D04120135518D04120194
:1009830035698D04120135008002120135AC8002F5
:100993001201352781021201354882021201358482
:1009A30082021201352D83021201351484021201D1
:1009B30035788502120135CF850212013550860242
:1009C3001201354087021201358D8702120135135A
:1009D3008802120135458802120135598A02120133
:1009E300359B8A02120135B98A021201353C8B020A
:1009F300120135108C02120135D88C021201357A9E
:100A030087031201354D8803120135F6880312015D
:100A130035498903120135F98903120135858A03A2
:100A2300120135718B03120135A08B03120135B30B
:100A33008C03120135FB8C03120135D08D03120197
:100A4300350C8E03120135288E031201356491048F
:100A5300120135A6D903120135BCD903120135E2BF
:100A6300D903120135FEDA0312013508DB03120143
:100A7300353DDC0312013535DD03120135CA990317
:100A8300120135FA9A031201352D9B0312013577B2
:100A93009B031201353E9D031201351CE301120134
:100AA3003586E301120135E5E401120135F5E40170
:100AB30012013522E50112013579E50112013522D2
:100AC300E60112013529E701120135F3E7011201AD
:100AD3003553E90112013596E9011201353BEA016B
:100AE30012013588EA01120135AEEA01120135BC63
:100AF300EC01120135C1EC01120135C6EE01120100
:100B03003513EF0112013586EF01120135B9EF01FB
:100B13001201355BF00112013504F1011201353C7C
:100B2300F1011201353FF10112013587F101120183
:100B330035C7F1011201351EF201120135ACEC0388
:100B4300120135C4EC031201350CED0312013522F9
:100B5300ED0312013569ED031201357DEE03120138
:100B6300350AEF0312013555EF03120135384D00F5
:100B7300120135444D001201357F4D00120135C479
:100B83004D00120135844E001201350A4F00120147
:100B9300356F4F001201359B4F00120135D44F00C2
:100BA300120135125200120135F65300120135DCE1
:100BB30055001201351F57001201356D59001201FE
:100BC300357F5A00120135CA5B00120135DA5C0029
:100BD300120135F75C00120135325D001201355404
:100BE3005D00120135B75D00120135786200120114
:100BF300350D63001201355E630012013585630014
:100C0300120135D76300120135F563001201354F28
:100C13006400120135386500120135AE6600120119
:100C230035326700120135F19E03120135FB9E0335
:100C33001201353E9F03120135599F03120135E915
:100C43009F0312013511A0031201354EA0031201B7
:100C53003585A003120135AEA00312013523A1038C
:100C630012013538A1031201354DA1031201357E5E
:100C7300A10312013592A103120135B7A103120199
:100C830035F1A1031201351DA20312013555A2034B
:100C9300120135B4A20312013533A3031201357CCB
:100CA300A303120135A6A303120135D1A303120135
:100CB30035128C041201350BF30112013539F3019E
:100CC30012013587F40112013567F50112013586EA
:100CD300F50112013503F60112013546F601120141
:100CE300359CF7011201355DF801120135E4FA0173
:100CF30012013585FB011201357BFC0112013578A8
:100D0300FD01120135D2FE011201355DFF01120111
:100D13003584FE03120135EDFE0312013541FF0355
:100D230012013568FF0312013599FF03120135E9FA
:100D3300C40312013556C5031201359DC5031201C3
:100D430035B5C603120135B1C70312013594C80383
:100D5300120135BBEE02120135FDEE02120135CF51
:100D6300EF02120135A8F002120135A2F1021201BD
:100D73003584F202120135EDF202120135A3F302BA
:100D830012013517F40212013583F402120135AC56
:100D9300F40212013526F502120135BFF5021201E4
:100DA3003524F60212013539F6021201357FF602B7
:100DB30012013598F602120135FDF60212013500D3
:100DC300F702120135CCE603120135F4E6031201F2
:100DD3003532E703120135F0E70312013557E80313
:100DE30012013573E8031201359BE803120135CB79
:100DF300E803120135DAE80312013557E90312015A
:100E0300357DE903120135E4D201120135C2D40163
:100E1300120135F4D60112013530D7011201355DC7
:100E2300D70112013547D80112013592D8011201B9
:100E330035DDD801120135EFD8011201352FD90163
:100E430012013564D901120135B2D901120135E11C
:100E5300D90112013504DA0112013551DA01120107
:100E630035D6DA01120135F0DC011201352FDF012D
:100E730012013570DF0112013512E1011201355300
:100E8300E101120135C6E10112013517E201120138
:100E930035F2E20112013560B9021201355EBA0280
:100EA300120135F7C00212013518C302120135E3EE
:100EB300C4021201354BC6021201359967001201B3
:100EC30035486800120135756800120135BB6800AA
:100ED300120135F169001201351F6A00120135B59F
:100EE3006B001201352F6C001201354A6C001201A0
:100EF30035C56C001201351F6E001201357F6F007E
:100F0300120135857000120135E67100120135FFBB
:100F130071001201355D72001201354B730012012D
:100F2300357E7300120135EE7300120135687400CB
:100F3300120135B274001201357C7500120135516E
:100F43007600120135307700120135BB77001201AC
:100F5300352978001201359D7800120135C87800D3
:100F6300120135877900120135EC7A001201350937
:100F73007B00120135287B00120135197C00120118
:100F8300353E7C00120135687C00120135E37C009C
:100F93001201353D7D00120135A67E001201355444
:100FA3007F00120135957F001201358CAB021201CF
:100FB30035DAAB02120135E6AB02120135C4AC02DD
:100FC300120135F5AC0212013526AD02120135A628
:100FD300AD02120135DEAD0212013530AE0212014F
:100FE300356DAE021201358AB002120135B0B2027C
:100FF3001201359BB40212013585B602120135F197
:101003007F0012013515990112013545990112012D
:10101300351EA001120135A3A101120135A0A701BC
:1010230012013588A801120135C5A801120135E85E
:10103300A80112013519A90112013522A9011201D2
:10104300352CA9011201351AAA0112013510AB0181
:101053001201350684011201350588011201350B91
:101063008801120135468F011201355F9401120187
:1010730035D8D5031201356ED60312013584D60354
:10108300120135FAD6031201356ED703120135ACBE
:10109300D70312013520D80312013599D803120161
:1010A30035A2D803120135AED803120135C3D803D4
:1010B30012013501D90312013517D903120135760F
:1010C300D90312013556C90312013563C90312014D
:1010D300357DC903120135BCC903120135FAC903B1
:1010E3001201355FCA0312013574CA031201357F39
:1010F300CA031201358CCA03120135A3CA031201B4
:1011030035B1CA03120135BCCA03120135C8CA037B
:10111300120135D7CA03120135E2CA03120135059C
:10112300CB03120135ACCB03120135BCCB03120147
:1011330035D6CB03120135F3CB031201350FCC03A4
:1011430012013534CC031201353FCC03120135545F
:10115300CC0312013568CC03120135C9CC0312014B
:1011630035CFCC03120135D5CC03120135DBCC03CB
:10117300120135F3CC0312013526CD03120135627A
:101183009D02120135E69D02120135959E02120160
:1011930035F49F0212013515A20212013501A30293
:1011A30012013536A30212013558A3021201350785
:1011B300A402120135FFA50212013528A60212016D
:1011C30035BAA602120135ECA602120135F9A602C0
:1011D30012013550A70212013576A702120135E339
:1011E300A902120135E6AA021201353EAB02120131
:1011F30035F18E02120135FB8F02120135E29002A6
:10120300120135EC90021201350E91021201351ACA
:101213009102120135B39202120135E292021201D8
:1012230035FE9302120135579402120135BD950222
:101233001201359C9602120135F8960212013565AA
:101243009702120135A09702120135DF97021201AE
:1012530035989A02120135B29A021201353E9B0269
:101263001201354C9B02120135A59B02120135B3C5
:101273009B02120135269C021201358A9C0212013F
:1012830035D49C0212013575C60212013597C60288
:10129300120135BDC802120135D2CB02120135EA63
:1012A300CC021201359DCD021201357FCE0212010F
:1012B30035A78104120135CC81041201353E820425
:1012C3001201350080031201350980031201351222
:1012D3008003120135E980031201359A820312015A
:1012E30035D082031201350A83031201354083038B
:1012F3001201357A8303120135AE8303120135DA05
:1013030083031201352384031201355D8403120123
:1013130035A68403120135FE840312013533850398
:101323001201358E8503120135C885031201351963
:1013330086031201354F8603120135898603120194
:1013430035B78603120135DA86031201357C8F0423
:10135300120135A88F041201350390041201350DD3
:1013630090041201351D9004120135A3CD0312011F
:1013730035F3CD0312013510CE03120135DFCE0351
:1013830012013560CF0312013533D003120135B199
:10139300D1031201359D8E03120135C28E03120152
:1013A30035FA8E03120135CA90041201351030004C
:1013B300120135223300120135D634001201357B78
:1013C30035001201351E3600120135D536001201E3
:1013D30035043700120135C03B00120135523C0081
:1013E3001201358E3D00120135F63D00120135AA7A
:1013F3003E001201356041001201359A410012018D
:1014030035044200120135614200120135BE42002B
:101413001201351B43001201350644001201354CFD
:101423004400120135974400120135BA44001201F9
:1014330035FD45001201351146001201351A4700EA
:10144300120135594700120135854700120135D481
:101453004700120135F547001201353348001201E8
:10146300357A4A00120135BB4A00120135594B0047
:10147300120135CB4B00120135044D0012013551D9
:10148300B203120135A1B203120135CAB20312012C
:10149300357CB303120135E5B303120135F1B4030F
:1014A300120135BAB603120135EDFA03120135FD07
:1014B300FA0312013542FB0312013520FC0312012A
:1014C30035B8FC0312013500800412013533800462
:1014D300120135518004120135E6800412013503EF
:1014E3008104120135958104120135DFFF031201D6
:1014F30035E08A04120135F08A04120135048B04A5
:101503001201350C8C04120135CBE3031201356F44
:10151300E403120135B1E60312013585F403120128
:10152300359FF40312013502F50312013570F503FB
:1015330012013526F60312013545F603120135551E
:10154300F60312013594F603120135D1F6031201A5
:10155300354C8304120135868304120135F9830463
:101563001201354384041201358284041201359437
:101573008404120135C98404120135ED8404120177
:10158300353C85041201356E85041201350086044D
:101593001201357C860412013589E0031201359D61
:1015A300E003120135C6E003120135EFE003120137
:1015B30035B7E10312013502E203120135B9E30342
:1015C3001201358E8604120135C186041201353DA0
:1015D30087041201355D8704120135C287041201A5
:1015E300350A88041201350D8804120135F9A30365
:1015F30012013512A403120135A7A4031201359871
:10160300A5031201354EA8031201358EA80312015A
:1016130035D0A803120135E3F603120135F4F603BE
:101623001201353DF70312013569F70312013589BC
:10163300F70312013528F803120135FBF8031201F1
:10164300351B88041201356A8804120135F28804B7
:10165300120135798904120135F87F00120135C56D
:10166300E903120135F2EB031201355EEC031201BB
:1016730035A9EC0312013543C00312013593C003AE
:10168300120135BCC0031201356EC103120135D7F7
:10169300C103120135E3C203120135ACC4031201C5
:1016A30035F7B60312013547B70312013570B70397
:1016B30012013522B8031201358BB8031201359795
:1016C300B90312013560BB031201359DBB0312013F
:1016D30035EDBB0312013516BC03120135C8BC033B
:1016E30012013531BD031201353DBE03120135062A
:1016F300C003120135AAFE02120135DBFE021201FC
:101703003505FF0212013525FF0212013583FF0261
:1017130012013524F70212013539F702120135950A
:10172300F70212013500F80212013548F8021201DE
:1017330035B2F802120135DBF802120135E9F8027D
:101743001201354BF90212013589F902120135A450
:10175300F9021201353FFA02120135E4FA021201CD
:101763003567FB02120135A0FB021201352BFC0287
:1017730012013582FC02120135E0FC02120135F23E
:10178300FC0212013518FD0212013521FD0212017E
:101793003576FE021201350DF90312013574F90392
:1017A3001201351FFA0312013595FA031201353F71
:1017B300DD0312013572DD0312013570DE03120100
:1017C30035C2DF03120135A68904120135848A0468
:1017D3001201357FEF03120135C4EF031201350AFD
:1017E300F003120135D3F103120135028E04120105
:1017F300351D8E041201352D8E04120135848E049D
:10180300120135279004120135A3D1021201357F4D
:10181300D202120135C6D20212013503D3021201DC
:101823003571D302120135CBD3021201353BD402F9
:101833001201350BD502120135FAD5021201357E9C
:10184300D6021201351AD802120135A5D8021201A7
:101853003535D902120135CED902120135E5D90247
:1018630012013518DB021201356EDB021201352439
:10187300E60212013544E602120135BAE70212010B
:101883003508E80212013528E80212013590E80212
:1018930012013512E90212013558E902120135E449
:1018A300E9021201352DEE02120135AAEE021201F0
:1018B3003528AD01120135CFB101120135C0B40194
:1018C300120135E9B40112013500B50112013529C0
:1018D300B501120135DBB501120135BAB7011201A9
:1018E300350CB90112013558BE0112013591BE0103
:1018F300120135D5BE01120135E1BF011201359F39
:10190300C0011201357AC30112013568C701120102
:10191300359AC701120135C5C701120135B9C8018E
:101923001201353CC90112013514CA011201353FB8
:10193300CA011201356ACA0112013595CA011201A1
:1019430035C0CA01120135F7CA0112013522CB0194
:101953001201354DCB01120135F4CB01120135993A
:10196300CC0112013540CD01120135E5CD01120143
:10197300358ECE0112013535CF01120135DDCF0190
:10198300120135AAD00112013536D101120135EF0A
:10199300D10112013517F20312013567F203120167
:1019A30035CAF20312013590F30312013548F403EB
:1019B300120135D08E04120135E1D1031201353104
:1019C300D2031201355AD203120135F2D2031201A6
:1019D3003549D3031201354ED4031201359BD50388
:1019E300120135C57F00120135DEFF01E06670107C
:1019F30008A3E066700A08A3E066700408A3E06623
:101A030022C3E7960809E7960809E7960809E796C7
:101A130022C3E09608A3E09608A3E09608A3E09605
:101A230022C008C3E096F50808A3E096420808A37D
:101A3300E096420808A3E09645087001D3D0082237
:101A4300080808EAC0E0EBC0E086F0E7A4FA18094A
:101A530086F0E7A42AFA180986F0E7A42AFA1809F7
:101A630086F0E7A42AFA1986F0E7A4FBE5F02AFA40
:101A7300190886F0E7A42BFBE5F03AFA190886F07B
:101A8300E7A42BFBE5F03AFA18180986F0E7A4C59A
:101A9300F02BFBE43AFA1908E7C5F0C6A426F6E5ED
:101AA300F03BFBE43AFA1886F0E7A4F6E5F00826E3
:101AB300F6E43B08F6E43A08F6D0E0FBD0E0FA227D
:101AC300E4CFC0E0E4CEC0E0E4CDC0E0E4CCC0E0CD
:101AD30075F020E626F608E633F608E633F608E660
:101AE30033F6181818EC33FCED33FDEE33FEEF3309
:101AF300FFC3EC9709ED9709EE9709EF97191919A9
:101B0300400FFFEC97FC09ED97FD09EE97FE1919BD
:101B130006D5F0BFECF709EDF709EEF709EFF71972
:101B23001919D0E0FCD0E0FDD0E0FED0E0FF226048
:101B330016080808C6C313C618C613C618C613C6A4
:101B430018C613C6D5E0EA227009080808226016F1
:101B5300181818C6C333C608C633C608C633C60822
:101B6300C633C6D5E0EA22E627F60809E637F608C3
:101B730009E637F60809E637F622E026F608A3E079
:101B830036F608A3E036F608A3E036F622E026F0A0
:101B930008A3E036F008A3E036F008A3E036F0220D
:101BA300C3E697F60809E697F60809E697F60809E3
:101BB300E697F622C3E096F008A3E096F008A3E0C8
:101BC30096F008A3E096F022E657F60809E657F6E2
:101BD3000809E657F60809E657F622E056F608A381
:101BE300E056F608A3E056F608A3E056F622E056C0
:101BF300F008A3E056F008A3E056F008A3E056F07F
:101C030022E0F608A3E0F608A3E0F608A3E0F62234
:101C1300E6F008A3E6F008A3E6F008A3E6F022E066
:101C2300FAA3E0FBA3E0FCA3E0FD22EAF0A3EBF0C0
:101C3300A3ECF0A3EDF022E0F8A3E0F9A3E0FAA30C
:101C4300E0FB22E8F0A3E9F0A3EAF0A3EBF022CA59
:101C5300C0E0E6F0A308DAFAD0E0FA22CAC0E0E076
:101C6300A3C582CCC582C583CDC583F0A3C582CC71
:101C7300C582C583CDC583DAE6D0E0CA22C3E49822
:101C8300F8E499F9121CC18026C3E49AFAE49BFB99
:101C9300E920E7E9121CC1E498F8E499F922C3E4C6
:101CA30098F8E499F9121CC1E498F8E499F9C3E4AB
:101CB3009AFAE49BFB22EB20E7CFE920E7E0B900A7
:101CC30010BB0008E88AF084F8AAF022E4FBC8FA03
:101CD30022EB70227B10C833C8C933C9335007C302
:101CE3009AC3DBF280069A50012ADBEAC833F4C8B0
:101CF300C933F4C9FA2275F008E4C833C8C933C933
:101D030033C99AC99B5004C92AC93BD5F0ECFBC817
:101D130033F4C8E4C9FA22600D08C6A2E713C61853
:101D2300C613C6D5E0F322600C08C6C313C618C693
:101D330013C6D5E0F422700422600D18C6C333C65F
:101D430008C633C6D5E0F41822251810AF08F518D5
:101D5300400C15198008F51840021519D2AF22005E
:101D6300C0D0251810AF08F518500C05198008F5D8
:101D73001850020519D2AFD0D0222518F58210AF22
:101D830008F518400C15198008F51840021519D2EA
:101D9300AF851983222518F582E43519F5832225A9
:101DA30018F8E43519F9222518FAE43519FB222528
:101DB30018FCE43519FD22E4732518C582C0E0E55B
:101DC3001934FFC583C0E0E518C3958224F810AF2A
:101DD300088583198582188008858319858218D21E
:101DE300AFCEF0A3E520F0A37808E608F0A3DEFA6F
:101DF300EFF0A3E58124FAF8E608F0A3E608F0A3E0
:101E0300E608F0A30808E608F0A3E608F0A31581A6
:101E13001581D0E0FED0E0F8158115811581E8C069
:101E2300E0EEC0E0222518C582C0E0E51934FFC505
:101E330083C0E0E518C3958224F910AF08858319A0
:101E43008582188008858319858218D2AFCEF0A3C6
:101E5300E520F0A37808E608F0A3DEFAEFF0A3E5A7
:101E63008124FBF8E608F0A3E608F0A30808E608D7
:101E7300F0A3E608F0A315811581D0E0FED0E0F8C9
:101E830015811581E8C0E0EEC0E02285198385182D
:101E930082E0A3FEE0A3F5207808E0A3F608DFFACA
:101EA300E0A3FFE0A3C0E0E0A3C0E0E0A3C0E0E064
:101EB300A3C0E0E0A3C0E010AF08858218858319B2
:101EC3008008858218858319D2AFD083D08202011E
:101ED30032851983851882E0A3FEE0A3F5207808F4
:101EE300E0A3F608DFFAE0A3FFE0A3C0E0E0A3C0AD
:101EF300E0E0A3C0E0E0A3C0E010AF08858218854E
:101F030083198008858218858319D2AFD083D08244
:101F130022C0D02518C582C0E0E51934FFC583C0AF
:101F2300E0E518C3958224F310AF088583198582F1
:101F3300188008858319858218D2AFC8F0A3E9F009
:101F4300A3EAF0A3EBF0A37908E709F0A3D8FAEC2E
:101F5300F0A3EDF0A3EEF0A3EFF0A3D0E0F0A3D055
:101F6300E0F0A3D0E0F0A3E520F0A3E5F0F0A32296
:101F7300851983851882E0C0E0A3E0F9A3E0FAA302
:101F8300E0FBA37808E0F608A3DFFAE0FCA3E0FD9A
:101F9300A3E0FEA3E0FFA3E0C0E0A3E0C0E0A3E072
:101FA300F5D0A3E0F520A3E0A3F5F010AF088583F7
:101FB300198582188008858319858218D2AFD0824B
:101FC300D083D0E0F8D0E03274048006740280023B
:101FD3007401C0E0F404121D7DD0E0121C5222747F
:101FE30004800474028000CCC0E0EDC0E0E518C3B7
:101FF3009CCCAD1950011D10AF068C188D198006AD
:102003008C188D19D2AF121C5FD0E0FDD0E0FC22FA
:10201300D083D082E9C0E0E493A3C386F0C5F095F2
:10202300F0F908E493A386F0C5F095F0700BE49300
:10203300A3C3994005E9048002A3E475F002A42533
:1020430082F582E5F03583F583D0E0F9E493A3C00C
:10205300E0E493C0E022D083D082ECC0E0EDC0E0A6
:10206300E493A3FCE493A3FDED4C600D1220A5ECD7
:1020730024FFFCED34FFFD80EFE493A3FCE493A382
:10208300FDED4C600D1220E4EC24FFFCED34FFFD6C
:1020930080EFD0E0FDD0E0FCE493A3C0E0E493C084
:1020A300E022C0E0C3E49396087401939618400FAE
:1020B300E49366700808740193661870007019A39E
:1020C300A3C3E49396087401939618A3A3400DD079
:1020D300E0D0E0D0E0022095A3A3A3A3A3A3D0E084
:1020E30022C0E0C0F088F0E493667008087401939E
:1020F30066187000A8F0A3A3700BD0F0D0E0D0E076
:0C210300D0E0022095A3A3D0F0D0E02291
:1021100074F5121E28EAFEEBFFEE2434F8EF3400CB
:10212000F988088909EE2435F582EF3400F583E05B
:10213000F8EE2437F582EF3400F583E0F50AEC85FC
:102140000AF0A4FCAAF0850AF0EDA42AFDE82CF818
:10215000E43DF97A257B00121CC1EA8508828509D5
:1021600083F0F8740758F97401B900028004C3338E
:10217000D9FCFAE8131313541FF8EE28F8EF3400D3
:10218000F9E8245DF582E93400F583E05A6008EE51
:102190002434F582EF802CEE2434F582EF3400F500
:1021A00083E0C0E0EE2436F582EF3400F583E0F5FD
:1021B000F0D0E084A8F0EE28F8EF3400F9E82438F5
:1021C000F582E93400F583E0F97F04021ED474F54A
:1021D000121E28EAFEEBFFEE2434F582EF3400F500
:1021E00083E0C0E0EE2435F582EF3400F583D0E0E3
:1021F000F08E828F83A3A3A3A3A3A3A3C082C083D3
:102200008E828F83A3A3A3A3A3E0F8A3E0F9D083D6
:10221000D082E0C398F508A3E099F509EE247FF594
:1022200082EF3400F583E064017069EE2480F5826A
:10223000EF3400F583E0F8A3E0F98E828F83A3A347
:10224000A3A3A3A3A3E0FCA3E0FD8E828F83A3A39B
:10225000A3A3A3E0FAA3E0FBC3EA9CEB9D5010C349
:10226000EC98ED99402EC3EA98EB995027800EC365
:10227000EA98EB994007C3EC98ED9940177C0B7DE9
:1022800005EEFAEFFB120F5DEE247FF582EF3400CE
:10229000F583E4F0EE2434F8EF3400F9E8FCE9FDCE
:1022A000EE2435F582EF3400F583E0F8EE2437F5BF
:1022B00082EF3400F583E0F50AE508850AF0A4F51D
:1022C00008AAF0850AF0E509A42AF509E82508F826
:1022D000E43509F97A257B00121CC1EA8C828D83D2
:1022E000F0F8740758F97401B900028004C333D9B7
:1022F000FCFAE8131313541FF8EE28F8EF3400F932
:10230000E8245DF582E93400F583E05A6008EE24A4
:1023100034F582EF802CEE2434F582EF3400F5831F
:10232000E0C0E0EE2436F582EF3400F583E0F5F00E
:10233000D0E084A8F0EE28F8EF3400F9E82438F56E
:1023400082E93400F583E0F9122F4B0221C9C082E3
:10235000C083851882851983E0F8A3E0F9C3EA9C5D
:10236000EB9D5010C3EC98ED99401BC3EA98EB9994
:102370005014800EC3EA98EB994007C3EC98ED998E
:102380004004790180027900D083D08222EAC39C84
:10239000FAEB9DFB2274EF121E289003D1E0640833
:1023A0006005E06407702A9061C8E060249003FF34
:1023B000E0F4601DE0F875F003A4C8AAF02AF974EF
:1023C0000128FE740439FF8E828F83A3A3A3E070DB
:1023D000030224C5906060E0C0E0EE2468F582EF5F
:1023E0003400F583D0E0F0750C74750D05750800A8
:1023F000750900E5D914F50AE5D95403F50E6017FF
:102400007403650E605CE50A6010EE2467F582EFE8
:102410003400F583E070030224AA90056FE06401A4
:10242000602AEE2482F582EF3400F583E0600478C0
:102430000480027800850A08E508C398FA95E0FB55
:10244000120E198A088B09EA45097005121161807C
:1024500074EE2482F582EF3400F583E070048A0C78
:102460008B0DE50A6012850C82850D83F50BE5D98D
:10247000F0A3150BE50B70F6EE2482F582EF340025
:10248000F583E0604474FC250AF50A780C121FCF2E
:10249000AC0AA90EEEFAEFFB120FF97402121D62DC
:1024A000E97026AA08AB0912179D793D8E828F83A9
:1024B000A3A3A3A3E0FA7B00120CEDEEFAEFFB124C
:1024C0000F7512100B790080747403650E605685C9
:1024D0000A107511007810121FCFAC0CAD0DAA08B0
:1024E000AB09120FD57402121D62EE2468F582EF5B
:1024F0003400F583E064807004747F8001E0F50CA3
:10250000780C121FD3E50EF50C780C121FD3A90A14
:10251000AC08AD099003FFE0FA7B00120CB1740225
:10252000121D6280139003D1E06408600BAC0CAD07
:102530000DEEFAEFFB12106512116D79017F0A02A0
:102540001ED474F5121E2874FC121D4CEAFEEBFF1B
:102550008908A2AFE433F509C2AF806AEE2463F8BC
:10256000EF3400F97A007B00A2AFE433F50AC2AF82
:1025700088828983E0FCA3E0FDEC4D603A88828983
:1025800083E0FAA3E0FB8A828B83E0FCA3E0FD8872
:10259000828983ECF0A3EDF08A828B83E4F0A3F0D0
:1025A00088828983E0FCA3E0FDEC4D700A88828973
:1025B00083A3A3E4F0A3F0E50AA2E092AF12179D73
:1025C000900512E004F0EE2463F582EF3400F58309
:1025D000E0F8A3E0F9E849603DEE2463F582EF34CA
:1025E00000F583E02402FAA3E03400FBEA2402F5BC
:1025F0000AEB3400F50B780A121FCF8A828B83E036
:10260000FCA3E0F9EEFAEFFB120F997402121D62BF
:10261000E9700302255C900512E06063900513E009
:10262000F8900512E0C398500C7402650870509041
:102630000514E0604A8E828F83A3A3A3A3E08518CC
:1026400082851983F0A3E4F0900512E0F874021279
:102650001D98E8F0A3E4F0900512E0F8900511E071
:1026600028F07402121D98AC82AD838518828519FA
:1026700083AA82AB837901120CBD900512E4F0E5C8
:1026800009A2E092AF7404121D620221C900000089
:102690008521878522C622C0E0C0D0E8C0E0E9C01D
:1026A000E0EAC0E0EBC0E0ECC0E0EDC0E0EEC0E08E
:1026B000C008C009C00AC00BC082C083C0F0A2AF6E
:1026C000E433FEC2AF759B00906182E0A2E050123D
:1026D000E591A2E0500C7591FE7401652170031222
:1026E0002395E0A2E55051E591A2E5504B7591DFAD
:1026F0009003D1E064076005E0640870237401650D
:1027000021703579019003FFE0FA75F003A4CAA89F
:10271000F028FB74012AFA74043BFB12254280184E
:10272000E0640D70139003F3E004F064287002E499
:10273000F07A00E0F9121173906182E0A2E64003A2
:102740000227DEE591A2E640030227DE7591BF90E5
:1027500003D1E06405700812109B1210A7800312C9
:1027600010A1752100121101E99003D2F079001235
:1027700010F5120ECD7A017B009003D0E0F912170C
:102780006D907803E064427055900573E014F0702A
:102790004DC2AF12279600782AD0E0F618D0E0F6A6
:1027A000E59F540770057509FF800375097FC4C054
:1027B000E07829E6F50808E65509F509740B78086C
:1027C000121D2AD0E02508F8906270E0A2E740F8D8
:1027D000E8C333906272F0906270E0D2E0F09061F2
:1027E00081E0A2E35009E5E9A2E3500375E9F7A30C
:1027F000E0A2E75009E591A2E7500375917FEEA2B0
:10280000E092AFD0F0D083D082D00BD00AD009D0E4
:1028100008D0E0FED0E0FDD0E0FCD0E0FBD0E0FA54
:10282000D0E0F9D0E0F8D0D0D0E032C0E0C0D0C0E5
:1028300082C083906183E0A2E05009E5BFA2E0502E
:102840000375BFFEE0A2E15009E5BFA2E1500375A8
:10285000BFFDE0A2E25009E5BFA2E2500375BFFB55
:10286000E0A2E35009E5BFA2E3500375BFF7E0A281
:10287000E45009E5BFA2E4500375BFEFE0A2E550C4
:1028800009E5BFA2E5500375BFDFE0A2E65009E508
:10289000BFA2E6500375BFBFD083D0828088C0E05E
:1028A000C0D0E8C0E0E9C0E0EAC0E0EBC0E0ECC0C6
:1028B000E0EDC0E0C0F0E5A7A2E6500FE5A1A2E67A
:1028C000500953A7BF75A1BF122903E5A7A2E55080
:1028D0000CE5A1A2E5500653A7DF75A1DFE5A7A28D
:1028E000E15009E5A1A2E1500375A1FDE5A7A2E22F
:1028F000500CE5A1A2E2500653A7FB75A1FBD0F056
:1029000002281474F8121E287521019003D1E06486
:102910000670151210298A828B83A3A3A3A3A3A3F5
:10292000E0FAA3E0FB121089A2AFE433FED2AF902D
:1029300003D7E0640170187A207B009003D0E0F99F
:102940001218937A207B009003D0E0F9121773904D
:102950006182E0D2E6F0900570E0602185C62280B9
:10296000169003D6E064017008E5C654F84405F5F6
:10297000C653BEFC1226907401652160E4EEA2E00D
:1029800092AF7F01021ED4008E238F24858228857A
:102990008327851882851983E0CEA3E0CF8528821E
:1029A000852783EBC9EAC8EDCBECCA75F010C3E804
:1029B00033C8E933C9EA33CAEB33CBC3EA9EF52601
:1029C000EB9FF525B35004AB25AA26EC33CCED33B1
:1029D000CDD5F0DAAE23AF242274E9121E2874F8A4
:1029E000121D4C851882851983ECF0A3EDF08A083E
:1029F0008B099003D1E024F7C394055006750801B4
:102A0000022B701210298A0A8B0BAE0AAF0BEE4F05
:102A10007003022B6DAC08AD097402121D98AA82D6
:102A2000AB831210B98E828F83A3A3750CFF750D33
:102A3000FF750EFF750F00780C121BDE7402121D5D
:102A4000987510FF7511FF7512FF7513007810123D
:102A50001BDE780C7910121A04502A780C791012A7
:102A60001BA37508017509C8750A00750B00780865
:102A7000790C121A045052850C08850D09850E0A2E
:102A8000850F0B80507514017515C87516007517E4
:102A90000085100885110985120A85130B780879BD
:102AA0000C121BA378147908121A04401C75080034
:102AB000750900750A00750B0178087910121BA3BF
:102AC0007808790C121B6A800C750801750900756D
:102AD0000A00750B0074097808121B4B750C19F568
:102AE0000DF50EF50F7808790C121AC38E828F83BC
:102AF000A3A3A3A3A3A3E0F8A3E0F97AD07B0312D6
:102B00001CC1880C890DE4F50EF50F7808790C12BC
:102B10001B6A7406121D98E0F8A3E0F97AD07B03D3
:102B2000121CC1E8FA8A0CE4F50D7808790C121A27
:102B30000450077808790C121BA39003D1E06408B5
:102B4000600AE064066005E06405702D750C0D7880
:102B50000C7908121A044021750CF4750DFF750EDE
:102B6000FF750FFF7808790C121B6A800C7508003E
:102B7000750900750A00750B00851882851983E0B8
:102B8000F8A3E0F58388827808121C137408121DDC
:102B9000627F10021ED474F7121E281210CB90050B
:102BA0006EE064017010906245E4F0A3F053F4F31A
:102BB00043FE0C5390F3121077E5C654804449F558
:102BC000C6E59E547F644970F8906185740FF0905B
:102BD000056CE0F47002A3E0604E90056DE06008C3
:102BE00014601B14602E8040750801750900900563
:102BF0006CE07808121D39E508F45280802A7508C7
:102C00000175090090056CE07808121D39E508F49B
:102C10005290801475080175090090056CE07808E1
:102C2000121D39E508F452A079007F02021ED47407
:102C3000F7121E28E9FEEAFF74016E700C7A807BA1
:102C4000009003D0E0F912176D903008E493F4601F
:102C500008E493F9120EC1800953C680E59E547FA3
:102C600070FA12107D90056EE064017003120EDFA1
:102C700090056CE0F47002A3E0604B90056DE0609D
:102C80000814601A14602C803D75080175090090C5
:102C9000056CE07808121D39E50842808028750827
:102CA0000175090090056CE07808121D39E50842AD
:102CB00090801375080175090090056CE078081282
:102CC0001D39E50842A01210CB1210298A088B0981
:102CD000A808A909E8496015E5E170FCE82414F5A5
:102CE00082E93400F583E0F46003E0F5E174016FFC
:102CF000700A7A019003D0E0F91217F7022C2A74B7
:102D0000ED121E288A088B098C0A8D0B7413121D74
:102D100098780C121C047808790C121A04751001AA
:102D20007511C875120075130050127808790C12CD
:102D30001BA378107908121A0450168010780C79A9
:102D400008121BA37810790C121A04400479018030
:102D50000279007F0C021ED474ED121E288A088BA3
:102D6000098C0A8D0B7413121D98780C121C0478B0
:102D70000C7908121A0440117808790C121BA3AAC6
:102D800008AB09AC0AAD0B802275100075110075F7
:102D900012007513017810790C121BA378107908B2
:102DA000121B6AAA10AB11AC12AD1380A68A828BDB
:102DB000837508FF7509FF750AFF750B0078081207
:102DC0001BF17F04021ED474F5121E288C828D83A1
:102DD0007808121C048A828B837808121BB7EA24B5
:102DE00004F8EB3400F98C828D83A3A3A3A3E0FC49
:102DF000A3E0FD88828983C3E09CF0A3E09DF08876
:102E0000828983C3E09420A3E0944E40268A828B7B
:102E1000837508FF7509FF750AFF750BFF780812A7
:102E20001B908A828B83A3A3A3A3E02420F0A3E0BA
:102E3000344EF0022DAD74F5121E28E9FE900526E1
:102E4000E0FAA3E0FBEEC333F8E433F974C528F5E8
:102E500082748139F583E02AF508A3E03BF509780F
:102E600008121FCF7A407B427C0F7D0012298874A4
:102E700002121D628A088B098C0A8D0B7410780867
:102E8000121B32AA08AB097F04021ED474F1121E71
:102E9000288A0C8B0D8C0E8D0F740F121D98E0FA82
:102EA000A3E0FB7411121D98E0F508A3E0F5097882
:102EB00008121FCFEA2401F508EB3400F509E4F508
:102EC0000AF50B780C7908121A4375087175090216
:102ED000780C7908121A43AA0CAB0DAC0EAD0F1288
:102EE00029887402121D628B09EA450960047A017F
:102EF00080027A00EC2AFCED3400FD7413121D9858
:102F0000E0F8A3E0F9E8FEE9FFECF8EDF97A717B6F
:102F100002121CC1880889098E828F837808121CCE
:102F200013ECF8EDF97A717B02121CC18A088B0947
:102F300074057808121D398E828F83A3A3A3A3E59D
:102F400008F0A3E509F07F08021ED4C082C083E91F
:102F5000906000F0D083D08222C0E074F2121F147F
:102F6000A2AFE433FED2AFE589A2E050031215DB35
:102F7000758900C2C5EEF8EEA2E092AF7F01021F94
:102F800073C0E074F2121F14A2AFE433FED2AFE5B7
:102F90008AA2E64006E58AA2E750031215DB758A8D
:102FA00000758A00C2EBEEF8EEA2E092AF7F01025C
:102FB0001F73C0E0C0D0E8C0E0E9C0E0A2AFE433D6
:102FC000F8D2AF758B00C2E8E8F9E8A2E092AFD082
:102FD000E0F9D0E0F8D0D0D0E032C0E0C0D0E8C016
:102FE000E0E9C0E0A2AFE433F8D2AFC2C7751A007F
:102FF000E8F9E8A2E092AFD0E0F9D0E0F8D0D0D084
:10300000E032C2AF02000022FFFFFFFFFFFFFFFF21
:1030100074F0121DBC74F8121D4C8A0E8B0FE9FF60
:103020008C0C8D0D7E00850E08850F097808122006
:1030300013000410EE3258307B309A30BD30E0304F
:103040000331343157316E319E314F327232953205
:10305000C332EE32EE32C73174016F7019850C82C3
:10306000850D83E0C39403500D850C82850D83E0AC
:10307000900D61F080027E1802331674026F701595
:10308000850C82850D83E0F8A3E0F9900D62E8F0ED
:10309000A3E9F080027E1802331674016F7019855F
:1030A0000C82850D83E0C39402500D850C82850D42
:1030B00083E090078FF080027E1802331674016F50
:1030C0007019850C82850D83E0C39405500D850C25
:1030D00082850D83E0900790F080027E18023316FF
:1030E00074016F7019850C82850D83E0C3940250C2
:1030F0000D850C82850D83E0900791F080027E188B
:1031000002331674106F702775081075090078085F
:10311000121FCFAC0CAD0D7A927B071217197402F7
:10312000121D628A088B0985088285098380027EC8
:103130001802331674016F7019850C82850D83E0B7
:10314000C39402500D850C82850D83E09007A2F098
:1031500080027E1802331674016F700D850C828513
:103160000D83E0900D65F080027E18023316740422
:103170006F70269083747808121C04850C82850D6C
:10318000837808121A145011850C82850D83121C45
:103190003A9007A4121C4680027E18023316EF7084
:1031A00021120A65E97013121425E9F50979501204
:1031B0001869E9F508121413800A9008377401F0B1
:1031C00080027E1802331674076F707E75080675CC
:1031D00009007808121FCF850C82850D83A3AC826D
:1031E000AD837404121DAA12171F7402121D62858A
:1031F0001882851983EAF0A3EBF07C007D0074024D
:10320000121DAA850C82850D83E0F91213B9E9F528
:103210000AE50AC3940A502E120A65E97015A90A34
:1032200012142BE9F5097950121869E9F5081214FE
:10323000138019A80A7900743828F582740839F5C2
:10324000837401F080067E0280027E1802331674B9
:10325000016F7019850C82850D83E0C39402500DB7
:10326000850C82850D83E09007A3F080027E180212
:10327000331674016F7019850C82850D83E0C39439
:103280000A500D850C82850D83E0900D64F080025C
:103290007E1802331674016F7025850C82850D83AC
:1032A000E0C394074019850C82850D83E0C3941117
:1032B000500D850C82850D83E0900D66F080577E61
:1032C00018805374016F7022900836E0F508850C61
:1032D00082850D83E0900836F0E508703990083655
:1032E000E064017031121413802C7E188028C3E52D
:1032F0000E9427E50F9400501B74026F7016850C16
:1033000082850D83E0FCA3E0FDAA0EAB0F1209033A
:10331000E9FE80027E02EEF97408121D627F080247
:103320001E8E74F0121DBC74D7121D4CE9C0E085CE
:103330001882851983D0E0F07401121D98EAF0A379
:10334000EBF08C0E8D0F9083287403121DB274065F
:10335000121C5F7403121DB27401121D98E0FAA3CF
:10336000E0FB851882851983E0F91213B9E9FEEEB6
:10337000C3940A40030234B1EEF91213F5E9FF9049
:103380000D61E064027004740180027400F5087835
:1033900008121FD3743A121D98E0FDEFFCEEF9AA53
:1033A0000EAB0F1214677401121D627C147D00793C
:1033B000007415121DAA1217318A088B0985080A94
:1033C00085090B7415121DB27A1075F006EEA4244F
:1033D00024F9121863E9703C7C1079FF7415121DF2
:1033E000AA121791E9702D7425121D98AC82AD8335
:1033F0007A0475F006EEA42425F9121863E9F5089D
:103400007415121DB2EFA2E0E433F9AA0EAB0F124D
:10341000098DE9F87409121DB27A0C74702EF91234
:103420001863E970797409121DAA1213E97508006E
:10343000E508C394045067A8087900E875F003A470
:10344000C8AAF075F000A42AFA75F003E9A42AF9D5
:103450007409121D98E58228F50CE58339F50D8570
:103460000C82850D83E0F8A3E0F9E849602C850C17
:1034700082850D83A3A3E0F50A750B00780A121F5D
:10348000CF850C82850D83E0FCA3E0FDAA0EAB0F77
:10349000120BF17402121D62E9F805088092EFA286
:1034A000E1500E90078EE0F9AA0EAB0F120BF7E970
:1034B000F87439121D98E06404700F900D61E06497
:1034C000027007AA0EAB0F12146179007429121D45
:1034D000627F08021E8E74F2121DBC890B8A088B53
:1034E00009ECFEEDFF750A0AE50B600B1460081489
:1034F000604114605F807DAA08AB09121407E9F5EA
:103500000AE50AC3940A506CEE4F6068750C0675A4
:103510000D00780C121FCFAC08AD09EEFAEFFB12CC
:1035200017197402121D628A0C8B0D850C82850D91
:10353000838041AA08AB09121401E9F50AE50AC320
:10354000940A5030EE4F602CEEFAEFFBA90A1213EA
:10355000FBE98020AA08AB0912140DE9F50AE50A77
:10356000C3940A500FEE4F600BEEFAEFFBA90A125C
:1035700013FBE9F8A90A7F06021E8E74F2121DBC25
:103580008A0C8B0DE9FF7E1574FF650C700474FFC7
:10359000650D702A750800E508C3940A5014EFFC05
:1035A0007A027B00A9081213D7E960027E000508A1
:1035B00080E5EF60627A4F7B14120DFB8059AA0CF4
:1035C000AB0D120DDD8A088B0985080A85090BE50C
:1035D0000A450B60407C007D00E50A2405FAE435CD
:1035E0000BFB850A82850B83A3A3A3A3E0F9121327
:1035F000B9E9F508E508C3940A500EEFFC7A027B9E
:1036000000A9081213D7E97E00EF600BAA0AAB0BE2
:1036100012144F80027E14EEF97F06021E8E74F0A3
:10362000121DBC74FE121D4C851882851983EAF0A8
:10363000A3EBF08C0A8D0B7412121D98E0F50EA30B
:10364000E0F50F7E15851882851983E064FF70040C
:10365000A3E064FF701D7F00EFC3940A506BAC0EB3
:10366000AD0FAA0AAB0BEFF91213DDE960027E0081
:103670000F80E5851882851983E0FAA3E0FB120D1F
:10368000DD8A0C8B0D850C08850D09E50845096060
:10369000367C007D00E5082405FAE43509FB850841
:1036A00082850983A3A3A3A3E0F91213B9E9FFEF6D
:1036B000C3940A5014AC0EAD0FAA0AAB0BEFF9126B
:1036C00013DDE97E0080027E14EEF97402121D62A1
:1036D0007F08021E8E74F7121DBCEAFEEBFF9007F6
:1036E000A8EEF0A3EFF090078EE0FC7D007A267B39
:1036F00000120903E9F50890078EE0F9120B6D7FBF
:1037000001021E8E74F2121DBC74EC121D4C8A0A4A
:103710008B0B850A82850B83A3A3E024FA70030236
:103720003B4C24FD70030239C01470030237F414BB
:10373000601024FD7003023968147003023A040219
:103740003BB4AE0AAF0B9007A8E0F8A3E0F9E84954
:1037500060669007A8E0F8A3E0F5838882E0F8A30C
:10376000E0F9E8496052EE240CF582E43FF583E08D
:10377000F5087808121FD3EE240BF582E43FF58399
:10378000E0F98E828F83A3A3A3A3A3A3A3A3A3E0A3
:10379000FCA3E0FDEE2403FAE43FFB9007A8E0F869
:1037A000A3E0F5838882E0F8A3E0F5838882121D08
:1037B000BA7401121D6280398E828F83A3A3A3A3E2
:1037C000A3A3A3A3A3121FE69007A4121C2212090D
:1037D0009F7402121D62E9601879018E828F83A3A3
:1037E000A3A3A3A3A3A3A3A3E0FAA3E0FB120999B5
:1037F000E9023BB4AE0AAF0B8E828F83A3E0600375
:103800000239168E828F83A3A3A3A3A3E0A2E04074
:1038100003023916900842E0F8A3E0F9E849600392
:103820000239167C0E7D007900AA18AB19121731E7
:103830008A088B09AA08AB09EE240CF582E43FF54F
:1038400083E0F8A3E0F9E8496036750806750900D9
:103850007808121FCFEE240CF582E43FF583E024B4
:1038600010FCA3E03400FD7402121DAA1217197493
:1038700002121D628A088B09850882850983804FA0
:103880008E828F83A3A3A3E0FAA3E0FB120DDD8A4F
:103890000C8B0D850C08850D09E5084509602D7513
:1038A0000C06750D00780C121FCFE5082405FCE40A
:1038B0003509FD7402121DAA1217197402121D6235
:1038C0008A0C8B0D850C82850D838003023BB48EA0
:1038D000828F83A3A3A3A3A3E0A2E25004D2F0802B
:1038E00002C2F0A2F0E433F87900740C121D98E0E3
:1038F00048F0A3E049F0EEFCEFFDAA18AB19121353
:10390000EFE970127A027B0090078EE0F912176DD2
:10391000E97900023BB69007A8E0F8A3E0F9E8498E
:1039200060439007A8E0F8A3E0F5838882A3A3E0B2
:10393000F8A3E0F9E849602D8E828F83A3E0FC793B
:10394000018E828F83A3A3A3E0FAA3E0FB9007A8D4
:10395000E0F8A3E0F5838882A3A3E0F8A3E0F58371
:103960008882121DBA023BB4AE0AAF0B9007A8E0E2
:10397000F8A3E0F9E84960459007A8E0F8A3E0F56E
:10398000838882A3A3E0F8A3E0F9E849602F850AC1
:1039900082850B83A3E0FC79028E828F83A3A3A38D
:1039A000E0FAA3E0FB9007A8E0F8A3E0F5838882A3
:1039B000A3A3E0F8A3E0F5838882121DBA023BB40A
:1039C000850A08850B097C007D00E5082404FAE4DB
:1039D0003509FB850882850983A3A3A3E0F91213A7
:1039E000B9E9FEEEC3940A5018E508240AFCE43550
:1039F00009FD7A0475F006EEA42425F912185DE994
:103A0000F8023BB4AE0AAF0B9007A3E06019900D2B
:103A100064E0F98E828F83A3A3A3E0FAA3E0FB12F4
:103A20000999E9F8023BB4900D61E0701679058EB2
:103A3000828F83A3A3A3E0FAA3E0FB120999E9F81C
:103A4000023BB48E828F83A3A3A3E0FAA3E0FB1210
:103A50000DDD8A0C8B0D850C08850D098E828F83F8
:103A6000A3A3A3A3A3A3A3E0A2E05072E508450982
:103A70006069850882850983A3A3A3A3E0605F8EA4
:103A8000828F83A3A3A3A3A3A3A3A3A3E0F8A3E08C
:103A9000F9E8C4540FF87900E85401F8E95400F942
:103AA000E8A2E04039740E121DB2E5082405FAE4DC
:103AB0003509FB850882850983A3A3A3A3E0F91236
:103AC00013B9E9701979038E828F83A3A3A3E0FA57
:103AD000A3E0FB120999E9F8023BB4023BB4EE24DF
:103AE00005FCE43FFD850882850983A3A3A3A3E029
:103AF000F98E828F83A3A3A3E0FAA3E0FB12145BE9
:103B00009007A8E0F8A3E0F9E849603E9007A8E034
:103B1000F8A3E0F5838882A3A3E0F8A3E0F9E849DD
:103B200060287C0079008E828F83A3A3A3E0FAA390
:103B3000E0FB9007A8E0F8A3E0F5838882A3A3E068
:103B4000F8A3E0F5838882121DBA8068120A65E93D
:103B50007062900837E06401701A121425E9FE9033
:103B600008377400F07C0A7D0079007A387B0812EF
:103B7000173180367E00EEC3940A502EEEF879009D
:103B8000743828F582740839F583E064017018EE02
:103B9000F912142BE9FAEEF87900743828F58274DA
:103BA0000839F5837400F00E80CC7950121869E959
:103BB000FE12141379017414121D627F06021E8E08
:103BC00074F5121DBC74F2121D4C8908EAFEEBFF5D
:103BD0008C09AC18AD197A0E75F006E508A42420FE
:103BE000F9121863E9705F7C0679FFAA18AB191205
:103BF0001791E97051740C121D98E0F8A3E0F9E8F0
:103C0000F50AE5096005EE420A8004EEF4520AA8BE
:103C10000A7900740C121D98E0687003A3E06960D3
:103C200021A80A7900740C121D98E8F0A3E9F0AC01
:103C300018AD197A0E75F006E508A42420F91218BB
:103C40005DE9790180027900740E121D627F030222
:103C50001E8E74F0121DBC74E6121D4C89098A0E6A
:103C60008B0FECFEEDFF740C121DB27A0E75F00690
:103C7000E509A42420F9121863E96003023D827C5F
:103C80000679FF740C121DAA121791E96003023D18
:103C900082AC18AD197A0C74702509F9121863E911
:103CA0006003023D7E750800AA18AB191213E9E5FE
:103CB0000E450F702E7C0C7900AA18AB19121791C3
:103CC000E96003023D647C0C7D007900AA18AB1901
:103CD0001217318A0A8B0B850A82850B83750801BE
:103CE000023D64AC18AD19AA0EAB0F1213E38A0C97
:103CF0008B0D850C0A850D0BE50A450B7030EE4FD8
:103D0000601BAC18AD197A007B001213E38A0C8B90
:103D10000DA80CA90D880A890BE849700479008068
:103D200063850A82850B83E50EF0A3E50FF0850A13
:103D300082850B83A3A3E0F87900EE687002EF6937
:103D40006022EEC0E0850A82850B83A3A3D0E0F059
:103D5000EE4F700D850A82850B837400F0A374000A
:103D6000F0750801E5086016AA18AB191213E9AC42
:103D700018AD197A0C74702509F912185DE97901EA
:103D800080027900741A121D627F08021E8E74F779
:103D9000121DBCEAFEEBFF7A00EAC39404504EEA1F
:103DA000F87900E875F003A4C8ABF075F000A42B17
:103DB000FB75F003E9A42BF9EC28F582ED39F583C6
:103DC000E06E7003A3E06F7021EAF87900E875F007
:103DD00003A4C8AAF075F000A42AFA75F003E9A4B8
:103DE0002AF9EC28FAED39FB80070A80AC7A007BCF
:103DF000007F01021E8E74F7121DBC7C00ECC39480
:103E0000044003023EA5ECF87900E875F003A4C86D
:103E1000ADF075F000A42DFD75F003E9A42DF9EACD
:103E200028F582EB39F583E0F4FEA3E0F4FFECF82B
:103E30007900E875F003A4C8ADF075F000A42DFD7D
:103E400075F003E9A42DF9EA28F582EB39F583EE44
:103E5000F0A3EFF0ECF87900E875F003A4C8ADF03A
:103E600075F000A42DFD75F003E9A42DF9EA28F5FD
:103E700082EB39F583A3A3E0F4C0E0ECF87900E825
:103E800075F003A4C8ADF075F000A42DFD75F00326
:103E9000E9A42DF9EA28F582EB39F583A3A3D0E054
:103EA000F00C023DFD7F01021E8E74F0121DBC74E9
:103EB000F4121D4CEAFEEBFF8C088D09900842E0DD
:103EC000F8A3E0F9E849702CEE4F6006E5084509D3
:103ED00070057901024156EEFAEFFB121407E990E2
:103EE0000D67F0900D67E0C3940A4008121419E9B9
:103EF000900D67F0900D67E0C3940A4003024154AF
:103F0000900842E0F8A3E0F9E8496003023FA0EE20
:103F1000FCEFFD7A0E75F006900D67E0A42420F901
:103F200012185DE9F50B7C0C7D0079FFAA18AB191E
:103F30001217318A0C8B0D850C0E850D0FAC18AD48
:103F4000197A0C900D67E02470F912185DE9F50AF2
:103F5000750C0E750D00780C121FCFEEFCEFFD9066
:103F60000D67E0F87900E875F00EA4C8AAF075F0C6
:103F700000A42AFA75F00EE9A42AF974AA28FA74A2
:103F80000739FB1217197402121D628A0C8B0DA8D7
:103F90000CA90D900842E508F0A3E509F002415094
:103FA000900842E0F8A3E0C82406F582C83400F582
:103FB00083E0F8A3E0F9E8496043900842E0F8A301
:103FC000E0C82406F582C83400F583E0FCA3E0FDD8
:103FD0007A1B75F006900D67E0A42421F912185D94
:103FE000E9F8900842E0F9A3E0C92406F582C93453
:103FF00000F5837400F0A37400F002415090084271
:10400000E0F8A3E0C8240AF582C83400F583E0F89C
:10401000A3E0F9E8496043900842E0F8A3E0C8242F
:104020000AF582C83400F583E0FCA3E0FD7A1B7535
:10403000F006900D67E0A42422F912185DE9F890CB
:104040000842E0F9A3E0C9240AF582C93400F583E7
:104050007400F0A37400F0024150900842E0F8A30D
:10406000E0C8240CF582C83400F583E0F8A3E0F939
:10407000E8496043900842E0F8A3E0C8240CF582C8
:10408000C83400F583E0FCA3E0FD7A1075F00690DB
:104090000D67E0A42423F912185DE9F8900842E0C6
:1040A000F9A3E0C9240CF582C93400F5837400F04B
:1040B000A37400F0024150900842E0F8A3E0C82445
:1040C00008F582C83400F583E0F8A3E0F9E8496018
:1040D0006F900842E0F8A3E0C82408F582C83400D5
:1040E000F583E0FCA3E0FD7A1075F006900D67E023
:1040F000A42424F912185DE9F50A900842E0F8A317
:10410000E0C82408F582C83400F583E02410FCA33D
:10411000E03400FD7A0475F006900D67E0A42425D4
:10412000F912185DE9F8900842E0F9A3E0C9240803
:10413000F582C93400F5837400F0A37400F0801098
:10414000900836E0600312146D1214557901800650
:10415000790080027901740C121D627F08021E8EA4
:1041600074F7121DBC74F2121D4CE9FEAC18AD19A7
:104170007A0E75F006EEA42420F9121863E9700E89
:10418000740C121D98E0F8A3E0F9E8F980027900B8
:10419000740E121D627F01021E8E74F4121DBC7417
:1041A000F2121D4C8909EAFEEBFFE509C3940A509F
:1041B00004EE4F700479028041AC18AD197A0E7587
:1041C000F006E509A42420F9121863E9F508E508CA
:1041D0007026750A06750B00780A121FCF7402123A
:1041E0001DB2EEFAEFFB1217197402121D628A0A51
:1041F0008B0B850A82850B83A908740E121D627FC2
:1042000004021E8E74F4121DBCEAFEEBFF7508005A
:10421000E508C3940A5043750A06750B00780A1224
:104220001FCFEEFCEFFDA8087900E875F00EA4C8DA
:10423000AAF075F000A42AFA75F00EE9A42AF97420
:10424000B028FA740739FB12172B7402121D62E9A9
:104250006004A9088006050880B6790A7F04021E5A
:104260008E74F4121DBCEAFEEBFF750800E508C36E
:10427000940A5043750A06750B00780A121FCFEE98
:10428000FCEFFDA8087900E875F00EA4C8AAF07547
:10429000F000A42AFA75F00EE9A42AF974AA28FA03
:1042A000740739FB12172B7402121D62E96004A90E
:1042B000088006050880B6790A7F04021E8E74F70E
:1042C000121DBC74F0121D4CEAFEEBFF750800E5F0
:1042D00008C3940A5039AC18AD197A1075F006E588
:1042E00008A42423F9121863E970207C1079FFAA2E
:1042F00018AB19121791E97012EEFCEFFDAA18AB7A
:104300001912096FE97004A9088006050880C079B0
:104310000A7410121D627F01021E8E74F4121DBCFD
:10432000750800E508C3940A40030243F5A808791C
:1043300000E875F00EA4C8AAF075F000A42AFA757A
:10434000F00EE9A42AF974AA28FC740739FD7A0E44
:1043500075F006E508A42420F9121863E970030239
:1043600043F07C067D0079FFAA087B00EA75F00E19
:10437000A4CAA8F075F000A428F875F00EEBA428E4
:10438000FB74AA2AFA74073BFB1217318A0A8B0BBB
:10439000AE0AAF0B7C067D0079FFAA087B00EA75A8
:1043A000F00EA4CAA8F075F000A428F875F00EEB82
:1043B000A428FB74B02AFA74073BFB1217318A0A4F
:1043C0008B0BAC0AAD0BA8087900E875F00EA4C8F9
:1043D000AAF075F000A42AFA75F00EE9A42AF9747F
:1043E000B628F582740739F5837400F0A37400F0E1
:1043F0000508024323900836E0600312146D12147E
:10440000557F04021E8E74F7121DBC7E00EEC3940D
:104410000A50327C0679FFEEFA7B00EA75F00EA4B2
:10442000CAA8F075F000A428F875F00EEBA428FBDC
:1044300074AA2AFA74073BFB121791E96004EEF99B
:1044400080050E80C8790A7F01021E8E74F7121D46
:10445000BC7E007F00EFC3940A50357C0679FFC90B
:10446000FDC9EFF87900E875F00EA4C8AAF075F060
:1044700000A42AFA75F00EE9A42AF974AA28FA749D
:104480000739FBCDF9CD121791E970010E0F80C5E8
:10449000EEF97F01021E8E74F7121DBC7E007F00B4
:1044A000EFC3940A500DEE700AEFF912142BE9FED7
:1044B0000F80EDEEF97F01021E8E74F0121DBC74A8
:1044C000C9121D4CE9FE900D67E06E701D7A017BEC
:1044D0000090078EE0F9121773E97A027B009007CB
:1044E0008EE0F9121773E91214797429121DB27A49
:1044F0000E75F006EEA42420F9121863E960030299
:1045000045EE7C0679FF7429121DAA121791E96005
:10451000030245EE7C0E7D0079FF7429121DAA125C
:104520001731851882851983EAF0A3EBF07C1B7D97
:104530000079FF740E121DAA1217318A0A8B0B859F
:104540000A0E850B0F7C0C7D0079FF7402121DAAE8
:104550001217318A0C8B0D850C0A850D0B742912EC
:104560001DB27A0E75F006EEA42420F912185DE94A
:10457000F508740E121DB27A1B75F006EEA4242104
:10458000F912185DE94208740E121DB27A1B75F01B
:1045900006EEA42422F912185DE94208740E121DD9
:1045A000B27A1075F006EEA42423F912185DE942E0
:1045B00008740E121DB27A1075F006EEA42424F9C8
:1045C00012185DE94208740E121DB27A0475F006E5
:1045D000EEA42425F912185DE942087402121DB2F6
:1045E0007A0C74702EF912185DE942088003750880
:1045F00000A9087437121D627F08021E8E74F7121C
:104600001DBCE9FEEE90078EF01214137F01021E0E
:104610008E74F2121DBC890AEAFEEBFFEE5400F81C
:10462000EF5480F9E849603590078EE0F91217558C
:104630008A0C8B0DA80CA90D88088909E84960121D
:10464000AA08AB0912143DE96008AA08AB091217C1
:1046500043E9EE6400FAEF6480FB024715EE540272
:10466000602D7C007D007A007B001213EFE960185A
:104670007A017B0090078EE0F912176DE9EE640273
:10468000FAEF6400FB0247157A027B00024715EE41
:10469000A2E0507D900842E0F8A3E0F5838882A371
:1046A000A3A3E0FAA3E0FB121473E9605E9007A8ED
:1046B000E0F8A3E0F9E84960459007A8E0F8A3E036
:1046C000F5838882A3A3E0F8A3E0F9E849602F7C92
:1046D000007901900842E0F8A3E0F5838882A3A363
:1046E000A3E0FAA3E0FB9007A8E0F8A3E0F5838835
:1046F00082A3A3E0F8A3E0F5838882121DBA121406
:1047000079EE6401FAEF6400FB800A7A017B008095
:10471000047A007B007F06021E8E74F7121DBCEA2D
:10472000FEEBFF7508018E828F83E0245060131426
:10473000601924E1701CEEFAEFFB1213D1E9F508C1
:104740008010EEFAEFFB1214438007EEFAEFFB1233
:104750001449A9087F01021E8E74F7121DBCEAFEDF
:10476000EBFF8E828F83A3A3A3A3E0641E70117955
:10477000008E828F83A3A3E0FAA3E0FB1213BFE9AC
:104780007F01021E8E74F6121DBC8A088B098508F3
:1047900082850983A3A3A3A3E07034AE08AF098E7A
:1047A000828F83A3A3A3A3A3A3A3121FE68E828F4A
:1047B00083A3A3A3A3A3E0FCA3E0FD8E828F83A326
:1047C000A3E0FAA3E0FB1213C57402121D62E97F95
:1047D00002021E8E74F7121DBCEAFEEBFF90078EDC
:1047E000E0F98E828F83A3E0FAA3E0FB120BF7E9D6
:1047F0007F01021E8EC082C08374FF121D4C1214F2
:104800001FE9C39402400B8518828519837402F056
:104810008009851882851983740AF0AC18AD197A5D
:10482000017905120A7DE97401121D62D083D082DC
:1048300002013274F2121DBC74E8121D4C8A088BFE
:1048400009E9FE8C0A8D0B7C187D007900AA18AB53
:10485000191217318A0C8B0DAC0CAD0D85188285A1
:104860001983E508F0A3E509F0900790E0C0E07433
:1048700002121D98D0E0F0900791E0C0E07403129E
:104880001D98D0E0F0900D66E0C0E07417121D98FE
:10489000D0E0F07415121D98E054FEFAA3E054FF26
:1048A000FB900D65E0A2E0E433F87900EA48F8EB0C
:1048B00049F97415121D98E8F0A3E9F0900D65E030
:1048C000A2E15004D2F08002C2F07415121D98E0EB
:1048D00054FDFAA3E054FFFBA2F0E433F87900E8BA
:1048E00028F8E933F9EA48F8EB49F97415121D98EC
:1048F000E8F0A3E9F0900D65E0A2E35004D2F08067
:1049000002C2F07415121D98E054F7FAA3E054FFA8
:10491000FBA2F0E433F50C750D007403780C121D46
:1049200039EA450CF8EB450DF97415121D98E8F0BD
:10493000A3E9F0900D65E0A2E45004D2F08002C239
:10494000F07415121D98E054EFFAA3E054FFFBA297
:10495000F0E433F50C750D007404780C121D39EA7F
:10496000450CF8EB450DF97415121D98E8F0A3E914
:10497000F0900D65E0A2E55004D2F08002C2F07420
:1049800015121D98E054DFFAA3E054FFFBA2F0E4F7
:1049900033F50C750D007405780C121D39EA450CC1
:1049A000F8EB450DF97415121D98E8F0A3E9F090A5
:1049B0000D65E0A2E25004D2F08002C2F07415123C
:1049C0001D98E054FBFAA3E054FFFBA2F0E433F59A
:1049D0000C750D007402780C121D39EA450CF8EBC9
:1049E000450DF97415121D98E8F0A3E9F0900791B0
:1049F000E0602A750C10750D00780C121FCF7C92A8
:104A00007D077406121D98AA82AB831217197402CF
:104A1000121D628A0C8B0D850C82850D839007A276
:104A2000E06011EE600E7415121D98E04402F0A3D0
:104A3000E04400F09007A2E060067801790080046D
:104A4000780079007414121D98E048F090078FE008
:104A50006006780479008004780079007414121DCF
:104A600098E048F0AC0AAD0BAA18AB19120993E90B
:104A70007418121D627F06021E8E74F7121DBCEAA6
:104A8000FEEBFF7508009007A2E060067801790050
:104A9000800478007900E8420890078FE06006788B
:104AA000047900800478007900E84208A908EEFA49
:104AB000EFFB120A4DE97F01021E8E74F2121DBC3B
:104AC00074E3121D4C8A0C8B0DE9FF8C0A8D09745E
:104AD0002B121D98E0F50874086509700A75F00638
:104AE000EFA42422FE800875F006EFA42421FE7CAA
:104AF0001B7D0079007402121DAA121731851882DD
:104B0000851983EAF0A3EBF07402121DB27A1BEE52
:104B1000F9121863E97038741C121D98E0C39407E9
:104B2000402D741C121D98E0C394115022E508F525
:104B30000B780B121FD37403121DB2E50AA2E0E436
:104B400033F9AA0CAB0D1209A57401121D62E974A8
:104B50001D121D627F06021E8E74F7121DBC120C00
:104B60006FE97E00EEC3940A505C7C0679FFC9FDB4
:104B7000C9EEF87900E875F00EA4C8AAF075F00047
:104B8000A42AFA75F00EE9A42AF974AA28FA74077F
:104B900039FBCDF9CD121791E97028EEF87900E8CC
:104BA00075F00EA4C8AAF075F000A42AFA75F00EEC
:104BB000E9A42AF974AA28FA740739FB7900120CBF
:104BC00075E9F80E809E7F01021E8E74F6121DBCE0
:104BD00074FD121D4CEAFEEBFF900844E0F8A3E0E0
:104BE000F9E84970397508467509087808121FCF29
:104BF0007508027509007808121FCF750804750939
:104C0000847808121FCF7CFF7DFF7A017B00120A97
:104C1000BF7406121D62900844EAF0A3EBF09008FE
:104C200044E0F8A3E0F9E8497003024CE8E4F50831
:104C3000F5097808121FCF7404121DA2880889098B
:104C40007808121FCF7404121DA2880889097808F9
:104C5000121FCF900846121FE67902900844E0FC2C
:104C6000A3E0FDEEFAEFFB120BE57408121D62E9FA
:104C7000704A851882851983E0FA7B007401121D41
:104C800098E0F87900E4C8F9EA28F508EB39F50965
:104C9000E508450960267808121FCF900844E0F81F
:104CA000A3E0F5838882A3A3A3A3E0FCA3E0FDEE29
:104CB000FAEFFB1213C57402121D62E9E4F508F560
:104CC000097808121FCF900846121FE67CFF7DFF6F
:104CD000900844E0FAA3E0FB120ACB7404121D62B0
:104CE000900844EAF0A3EBF0900844E0F8A3E0F960
:104CF000E84970047901800279007403121D627F13
:104D000002021E8EC082C083900842E0F8A3E0F940
:104D1000E8496017900842E0FAA3E0FB121743E964
:104D2000F89008427400F0A37400F0900D67740AC4
:104D3000F0D083D082020132C082C083E9900BEFB1
:104D4000F0024FC774F7121DBCE9900310F07C48C5
:104D50007D037AFF7BFF120BFD90031174FFF0A31C
:104D6000F0A3E4F0A3F07905120B85900310E0F9AD
:104D7000120AA77A1B7B0C120DCB7F01021E8E74C8
:104D8000F4121DBC8A088B09EB548060309003102C
:104D9000E0F91217558A0A8B0BAE0AAF0BEE4F6083
:104DA000138E828F83E064B07003120B9DEEFAEFD6
:104DB000FB121743AA08E5096480FB80047A007B94
:104DC00000024F9674F2121DBC74FC121D4CEAFED8
:104DD000EBFFEE4F60387402121D98EEF0A3EF1255
:104DE00051FBECF0A3ED1251FBAA82AB83120AA196
:104DF000E9F50870737412121D98125DAFE50A454B
:104E00000B60658E828F83124E72EE4F70057508AF
:104E10000280557A067B001217DF8A0C8B0DA80CD6
:104E2000A90DE8497005750813803D88828983E4DF
:104E3000124E7CA3A3EEF0A3EF126248E50AF0A3A2
:104E4000E50BF0900316124F049003166017E0FC78
:104E5000A3E08003EAFCEBFD8C828D83124F04708B
:104E6000F38C828D83125CD4A9087404121D620233
:104E7000644AA3A3A3A3E0FEA3E0FF22F0A3F0886B
:104E80008289832274F2121DBC890AE975F017A485
:104E9000FEAFF0900315E4F0900313124F04600A84
:104EA0001217E5900313E4F0A3F0EEFAEFFB1217EC
:104EB000DF8A088B09EA4509602FEEFCEFFD7900D7
:104EC000121731900313E508F0A3E509F07B008089
:104ED00008124EEEE4F0A3F00BEBC3950A40F2E5A6
:104EE0000A900315F079008002791302644AEB7589
:104EF000F017A4F8A9F0900313E028FAA3E0398A88
:104F000082F58322125A6AEA4B2274F4121DBC7590
:104F10000800750900740C121D9812621CFEE9FF4E
:104F2000800CE5082401F508E5093400F509C3E51E
:104F3000089CE5099D503285080A85090B740378A1
:104F40000A121D39EA250AF8EB350BF988828983A4
:104F5000A3A3A3A3A3A3125DAFEE650A7003EF653D
:104F60000B70BFE8FAE9FB80047A007B00802774AD
:104F7000F4121DBC7900EAA2E0501B7508F875090F
:104F8000827808121FCF7C047D007AF17B0B120B14
:104F90007F7402121D627F04021E8EC082C0839045
:104FA0000316124FCE601C88828983A3A3E06A7027
:104FB00003A3E06B8882898370E8A3A3A3A3125A9A
:104FC0006680047A007B00D083D0820201321265B1
:104FD0001DE8492274EE121DBC74FC121D4CEAFE41
:104FE000EBFF851882851983E4F0A3F0EE2402120A
:104FF0005CB8EE24051251E9EE2404F50EEF1255CB
:10500000CEE024FE603924FC604624FE605224FE7B
:10501000605E24FE70030250EE24FE7003025166AF
:1050200024FE700302517524FE700302518424FC97
:10503000700302519324FE70030251A20251DF90CB
:10504000032F7417F0A3E412520312081F0251DF5A
:10505000851882851983AC82AD83120BA30251AFF0
:10506000851882851983AC82AD83120BA90251AFDA
:10507000850C08850D097402121D98AC82AD8385DC
:105080000882850983125A66120AC58A0C8B0DACF8
:105090000CAD0DEC4D6042E4F50CF50D780C121FD3
:1050A000CF750C2F750D03780C121FCF750C307552
:1050B0000D03780C121FCF7408121D98121FE67989
:1050C00016125A60120BE57408121D62E9F50C7095
:1050D0000B125A5C120837800F750C018508828507
:1050E00009831251F1125CD4850C080251B274028A
:1050F000121D98AC82AD83850C82850D83125A6691
:10510000120AC58A108B11AC10AD11EC4D604385AD
:105110000C82850D83A3A3121FE675102F75110352
:105120007810121FCF7510307511037810121FCF31
:105130007408121D98121FE67916125A60120BE5B8
:105140007408121D62E9F509700B125A5C12083DD1
:10515000800F750901850C82850D831251F1125C57
:10516000D4850908804C851882851983AC82AD836B
:10517000120BAF803A851882851983AC82AD8312F9
:105180000BB5802B851882851983AC82AD83120BF9
:10519000BB801C851882851983AC82AD83120BC13C
:1051A000800D851882851983AC82AD83120BC7E907
:1051B000F508E50860298E828F83A3E06414601FE0
:1051C000850E82850F83E090032F1251FB12651923
:1051D000900330125CD4E508A3125203120819EEB2
:1051E000FAEFFB120B43025BC0F50CEF3400F50D38
:1051F0002212651D85188285198322F08518828503
:10520000198322F07C2F7D03850A82850B83125A35
:105210006A2274EE121DBC74FC121D4C8A0A8B0BA0
:105220008C0E8D0FEA2405F508EB3400F5097C158A
:105230007D0079007A2F7B03121731E5082402F5EF
:105240000CE5091251EC8518828519838582108539
:1052500083117810121FCF850882850983A3A3A329
:10526000A3125716121FCFE5082405F510E50934DF
:1052700000F5117810121FCF850C82850D83125A0C
:1052800070120ABF7406121D628A108B11AE10AF25
:1052900011E50A2402F50AE50B125CBBEE4F700320
:1052A0000253D880177402121D98125A6688828998
:1052B00083EAF0A3EBF090032FE004F090032FE0DB
:1052C000C3940540030253D8E4F510F51178101289
:1052D0001FCF7510187511037810121FCF75101994
:1052E0007511037810121FCF7406121D98121FE655
:1052F0007910EEFCEFFD125A60120BE57408121DD6
:1053000062E9705E850882850983A3A3A3A3A3A392
:10531000A3E0F8900318E0687048125716121FCFE8
:105320007C197D03E5082408FAE5093400FB12170F
:105330002B7402121D62E960298E828F83A3A3A3BE
:10534000A3125A6690032FE0F51074027810121D14
:105350003974302510F58274033511F583EAF0A312
:10536000EBF07402121D988582108583117810125B
:105370001FCF7402121D98121FE6850C82850D83C3
:1053800012652E120ACB7404121D628A108B11AEA4
:1053900010AF1190032FE0F5107511007402781012
:1053A000121D39742F2510F874033511F98882897C
:1053B00083A3124F04700302529CE82403F8E934DB
:1053C00000F9EE4F60030252A58882898374FFF0D2
:1053D000A3F090032FE004F090032FE0600A125A2C
:1053E0005C12082B7900800B850882850983125C8A
:1053F000CB790A025BC074EA121DBC74FE121D4C0C
:105400008C128D13EA2405F50CEB126698124E7679
:10541000750800750900EA2402F510EB3400F51157
:1054200085188285198385820A85830B780A121F65
:10543000CF850C82850D83A3A3A3A31255D8121F79
:10544000CFE50C2405F50AE50D125CBB780A121FA6
:10545000CF850C82850D8312652C120ABF7406124B
:105460001D628A0A8B0BEA450B7003025589EA24F8
:1054700004F50EEB1255CE124E768A828B83A3A3CF
:10548000A3E0F9851082851183125A66120AADE9EC
:10549000F5096003025589E4F514F5157814121F17
:1054A000CF7514187515037814121FCF751419755C
:1054B00015037814121FCF7406121D98121FE67977
:1054C00013AC0AAD0B851082851183125A66120B3C
:1054D000E57408121D62E9F509600302558990031D
:1054E00018E0F8E5087009E02402900330F0801716
:1054F000900330E0FCE82402FAE43400FBEA6C702C
:1055000001EB600302558D850882AA8212570D9423
:10551000141257055073850E82850F83E0C0E07426
:10552000312A1255C5D0E0F00508850E82850F831B
:10553000A3E0C0E085080A7431250A1255C5D0E001
:10554000F005089003181255D8121FCF7C197D035F
:1055500085080A7431250AFA74033400FB121719FE
:105560007402121D62900318E02508F50874FF6E9E
:10557000700374FF6F6012EE24010EEF3400FFE53C
:1055800008C394145003025420E5086013125951C3
:10559000851082851183125A6612083179008014B1
:1055A000E509700375090A851282851383EEF0A35D
:1055B000EFF0A9097402121D627F0E021E8E85088B
:1055C0000C7431250CF58274033400F58322340009
:1055D000F50F850E82F5832212625B2274EE121D96
:1055E000BC74FE121D4C8C0E8D0FEA2405F50CEBDD
:1055F0001251EC750B0090032FE4F0F50AEA240237
:10560000F508EB3400F509804990032FE0FA900388
:1056100018E0F812570D9417125705400D90032FFC
:10562000E0F87416C398900318F0125716121FCFA3
:105630007C197D0374302AFA74033400FB121719A5
:105640007402121D62900318E0F890032FE028F016
:10565000050AE50C2416F582E50D1255C9E0F8E5BA
:105660000AC39840030256EE90032FE0C3941650ED
:105670007DE50AC333F8E433F9E50C28FEE50D397E
:10568000FF851882851983AC82AD838E828F831249
:105690005A66120AC58A108B11AC10AD11EC4D7010
:1056A00005750B018043E4F510F5117810121FCF3A
:1056B0007510187511037810121FCF751019751118
:1056C000037810121FCF7406121D98121FE6791668
:1056D000850882850983125A66120BE57408121D2B
:1056E00062E9F50B7003025609125CC780107C2F2B
:1056F0007D03850882850983125A66120843A90B27
:105700007402025BC2E99400C365D03322EA28F830
:10571000E43400F9E822E0F51075110078102274E5
:10572000EA121DBC74FC121D4C8A0C8B0D8C128D60
:1057300013EA2405F50AEB125CBB75080075090035
:10574000E50A2402F510E50B3400F5117402121D70
:105750009885820E85830F780E121FCF850A828569
:105760000B83A3A3A3A3126207121FCFE50A24058C
:10577000F50EE50B3400F50F780E121FCF85108261
:10578000851183125CC1125A60120ABF7406121D81
:10579000628A0E8B0FAE0EAF0FE50C2402F50EE5FC
:1057A0000D3400F50F80408882898374FFF005086E
:1057B0001255BE74FFF00508900318E0F50C750D46
:1057C00000780C121FCF7C197D0385080C743125DD
:1057D0000CFA74033400FB1217197402121D629044
:1057E0000318E02508F508EE4F60718E828F83A3C1
:1057F000A3A3E0F9850E82850F83125A66120AADC3
:10580000E9F509EE24041251E9E97044E4F514F5D0
:10581000157814121FCF7514187515037814121FFC
:10582000CF7514197515037814121FCF7408121D43
:1058300098121FE67911EEFCEFFD850E82850F832D
:10584000125A66120BE57408121D62E9F509602709
:10585000850C82850D83125947125CD4E5087003CC
:1058600002592D125951850E82850F83125A6612E4
:1058700008497900025942850882AA82EA900318F1
:105880007009E02404900330F08022E0F8900330A7
:10589000E0F514E82404FCE43400FDEC6514700128
:1058A000ED70C012570D941212570550B6850C8238
:1058B000850D83E0C0E074312A1255C5D0E0F005B3
:1058C00008850C82850D83A3E0C0E01255BED0E0B0
:1058D00012596385820C85830D780C121FCF7404D6
:1058E000121D98121FE685108285118312652E12F3
:1058F0000ACB7404121D628A0C8B0DAE0CAF0D85A1
:10590000080C7431250CF874033400F9EE4F700361
:105910000257A7851882851983E0888289831259E6
:1059200063A3E0C0E01255BED0E00257B5E50970B0
:105930000375090A850A82850B83125947125CD4C4
:10594000A90974040255B612651D85128285138358
:1059500022900330E0F5F0E5088490032FF07C2FCF
:105960007D0322F005088518828519832274EC12C4
:105970001DBC74FE121D4C8A088B098C0E8D0FEA1B
:105980002405FEEB3400FF851882851983AC82ADB7
:10599000838E828F83125A66120AC58A0A8B0BEE97
:1059A00024181251E9EA450B7003025A37125BA919
:1059B0005032851882851983125A66120BD98A10C3
:1059C0008B11EA4511606B7912AC0AAD0B85088228
:1059D000850983125A66851082851183121DBAE9E2
:1059E000F50A7058E4F50AF50B780A121FCF8E827B
:1059F0008F83A3A3E0F50A780A121FCFEE240312C7
:105A00005CB8780A121FCF8E828F83125A70120BE5
:105A1000EB7406121D62E9F50A7021850C82850D72
:105A200083E0701F850882850983125A6612084F29
:105A30008011750A0E8009750A018004E50A600369
:105A4000125CC7850C82850D83E0600479008002BA
:105A5000A90A7402121D627F0C021E8E7C2F7D0328
:105A6000850A82850B83125A6A22E0FAA3E0FB22A0
:105A7000E0FCA3E0FD850882850983125A6A22743E
:105A8000EE121DBC74FE121D4C8A088B098C0C8D05
:105A90000DEA2405FEEB3400FF750E0085188285A3
:105AA0001983AC82AD838E828F83125A66120AC527
:105AB0008A0A8B0BEA450B7003025B95125BA950B7
:105AC00035851882851983125A66120BD98A0E8B76
:105AD0000FEA450F605E7912AC0AAD0B850882852E
:105AE0000983125A66850E82850F83121DBAE9F565
:105AF0000E6003025B98850882850983125DAFAA58
:105B00000AFB120BCD8A108B11A810A911E849705D
:105B10001E7AFF7BFF120BCD8A108B11A810A911E2
:105B2000E849606C88828983E50AF0A3E50BF0758B
