:020000040000FA
:0600000002011A02281B98
:03002B00022FCAD7
:03003300022FA2F7
:0300530002288EF2
:03006B00022F4918
:03007B00022F71E0
:10008300022687E5C754F84401F5C7790122000029
:100093000080FB120086B90003020104E479217891
:1000A30008B800028004F709D8FCE479297802B87B
:1000B30000028004F709D8FCE4900281787A790879
:1000C3008002F0A3D8FCD9FA781A90014A7A01BACF
:1000D30000028007E493A3F608DAF97AFA7B099021
:1000E300014B787B79078015E493A3AD82AE838AB5
:1000F300828B83F0A3AA82AB838D828E83D8E9D9C6
:10010300E77582A5758390740412012C758291752D
:100113008300740012012C75D00075813F7518811E
:10012300751902759F00020096C09FF59FE473D076
:100133009F22D083D082C09FE493C0E0740193C018
:10014300E0740293F59F220112416363656C2E20D4
:1001530044617461000A416363656C2E20436F6ED2
:10016300662E000A0A416363656C2E20506572692E
:100173006F640002E483010000BC8302FE8301007C
:1001830000FA091065810100008302020484030060
:1001930000860202FC83010000FB0902FE830100CA
:1001A30000070A1005810300008C0202FC83010092
:1001B30000080A02FE83010000150A10B58103003E
:1001C30000160A02FC83010000170A124261726FD3
:1001D3006D2E2044617461000A4261726F6D2E209E
:1001E300436F6E662E00024261726F6D2E20436173
:1001F3006C6962722E000A0A4261726F6D2E205082
:100203006572696F640002E483010000C28302FE29
:10021300830100007D0A10B5800100008F020204F3
:1002230084030000930202FC830100007E0A02FEA5
:10023300830100008A0A10C580030000990202FCB2
:10024300830100008B0A02FE83010000A80A1055F7
:1002530081030000A90A02FC83010000AA0A02FE2E
:1002630083010000980A10D5800100009A0202045D
:1002730084030000AA0202FC83010000990AFF0024
:1002830000B4000028002800283075A000A000A0BA
:1002930000A00000080008E001F0001000100010AA
:1002A300001000100010005000500050001000100B
:1002B30000D0070000000000000F0001000500301F
:1002C3007507001000010081FF00000000FF170AFE
:1002D300350A1D0AFF02020208025000A0000000B6
:1002E300E80302E483010000BF8302FE83010000F0
:1002F300870B02F483010000E20202FE8301000087
:10030300880B02F283010000F80202FE8301000061
:10031300890B02F083010000FA0202FE8301000050
:100323008A0B02EE83080000FB0202FE8301000039
:100333008B0B02EC830100008C0BFF0100FF2002FA
:10034300E483010000C58302FE83010000F00B0279
:10035300EA8300000000000204840300004803ED68
:100363000FED0FED0FED0FED0FED0FED0FED0FEDAA
:100373000FED0FED0FED0FED0F811299127B12129E
:10038300436F6E6E2E20506172616D730008436F70
:100393006E6E2E20506172616D732052657100087C
:1003A300446973636F6E6E656374205265710002F6
:1003B300E483010000CE8302FE83010000310C10B0
:1003C300158201000071070204840300007707020D
:1003D300FC83010000320C02FE830100003F0C107D
:1003E30025820200007D0702FC83010000400C020D
:1003F300FE83010000510C103582020000850702C4
:10040300FC83010000520C020202020202020202F9
:10041300010D000000100102E483010000B6830215
:10042300FE83010000B90C02D68301000086070297
:10043300FE83010000BA0C02D4830100004F830243
:10044300FE83010000BB0C02DA830100004083023B
:10045300FE83010000BD0C02DC83010000938002D7
:10046300FE83010000BE0C02DE830100004583020F
:10047300FE83010000BC0C02E0830100004A8302FA
:10048300FE83010000BF0C02E283010000818002B1
:10049300FE83010000C00C020284010000D5820229
:1004A300FE83010000C10C02E683010000C20C01BF
:1004B300E803053F100A124779726F2044617461A3
:1004C300000A4779726F20436F6E662E000A0A474F
:1004D30079726F20506572696F640002E4830100D2
:1004E30000B08302FE83010000680D10E580010067
:1004F300004A08020484030000500802FC83010040
:1005030000690D02FE83010000730D1035810300A5
:1005130000560802FC83010000740D02FE830100F3
:10052300007F0D107581030000800D02FC83010024
:1005330000810D0380000080700061801248756D9A
:1005430069642E2044617461000A48756D69642EE4
:1005530020436F6E662E000A0A48756D69642E206B
:10056300506572696F640002E483010000CB83026B
:10057300FE83010000EE0D10A581010000E10802D9
:100583000484030000E50802FC83010000EF0D0270
:10059300FE83010000FB0D10D581030000EB080270
:1005A300FC83010000FC0D02FE83010000090E1014
:1005B30055820300000A0E02FC830100000B0E1299
:1005C30054656D702E2044617461000A54656D702A
:1005D3002E20436F6E662E000A1E54656D702E200A
:1005E300506572696F640002E483010000D18302E5
:1005F300FE83010000710E10B582010000EE0802B7
:100603000484030000F20802FC83010000720E025E
:10061300FE830100007D0E10A582030000F808028E
:10062300FC830100007E0E02FE830100008A0E108F
:1006330095820300008B0E02FC830100008C0E12D6
:100643004D61676E2E2044617461000A4D61676ECF
:100653002E20436F6E662E000A0A4D61676E2E20B0
:10066300506572696F640002E483010000C883026D
:10067300FE83010000F10E106582010000FB0802F9
:100683000484030000010902FC83010000F20E024E
:10069300FE83010000FD0E104582030000070902DE
:1006A300FC83010000FE0E02FE830100000A0F100E
:1006B30095810300000B0F02FC830100000C0FFF68
:1006C300FFFF000130750302010600000000000077
:1006D3000000000000000000000000000000000017
:1006E300000000000000FFFF0600800CE8030A0979
:1006F30053656E736F7254616705125000200302D5
:100703000A00020105544920424C452053656E738B
:100713006F722054616700D007E803E803E803E839
:1007230003E80311190000411947194D19591953C9
:10073300195F1965196B197119104B65792050727E
:100743006573732053746174650002E483010000D0
:10075300B38302FE83010000EB0F02F88300000065
:10076300E809020484030000E90902FC8301000094
:10077300EC0F02546573742044617461000A54657C
:10078300737420436F6E6669670002E4830100009F
:10079300B98302FE83010000241010F580030000DA
:1007A300F10902FC83010000251002FE8301000011
:1007B3002F10104581030000F90902FC830100009A
:1007C30030101201354CAD031201359CAD031201FB
:1007D30035C5AD0312013577AE03120135E0AE0323
:1007E300120135ECAF03120135B5B10312013551D6
:1007F3009403120135A19403120135CA9403120123
:1008030035E49503120135779603120135C097033A
:100813001201358D99031201356BFC0312013582E8
:10082300FC03120135B3FC03120135EEFC03120184
:100833003518FD0312013542FD0312013559FD033D
:1008430012013570FD0312013587FD03120135B026
:10085300FD03120135C3FD03120135D9FD03120156
:1008630035ECFD0312013513FE03120135A8DB023B
:10087300120135ACDC02120135E4DC02120135074A
:10088300DD0212013512DD0212013535DD021201DE
:100893003544DE0212013519DF0212013594DF02FD
:1008A3001201351CE00212013557E0021201358EA8
:1008B300E0021201351CE102120135F5E1021201D9
:1008C3003555E20212013560E202120135DFE20220
:1008D300120135E2E202120135E5E202120135743A
:1008E300E30212013577E302120135A7E302120195
:1008F30035D1E302120135BFE40212013571E5027D
:10090300120135E6A3031201350EA4031201353C8F
:10091300A40312013573A403120135D1A4031201F8
:10092300351CA50312013567A503120135A7A503DD
:10093300120135EDA5031201351BA603120135D8AB
:10094300A603120135E2A603120135EFA603120135
:100953003522A703120135EEA703120135FAA703C7
:1009630012013512A8031201351CA8031201359494
:100973008C04120135A28C04120135BA8C041201C5
:1009830035D28C04120135008002120135AC80028D
:100993001201352781021201354882021201358482
:1009A30082021201352D83021201351484021201D1
:1009B30035788502120135CF850212013550860242
:1009C3001201354087021201358D8702120135135A
:1009D3008802120135458802120135598A02120133
:1009E300359B8A02120135B98A021201353C8B020A
:1009F300120135108C02120135D88C021201357A9E
:100A030087031201354D8803120135F6880312015D
:100A130035498903120135F98903120135858A03A2
:100A2300120135718B03120135A08B03120135B30B
:100A33008C03120135FB8C03120135D08D03120197
:100A4300350C8E03120135288E03120135219004D3
:100A530012013547D9031201355DD90312013583DC
:100A6300D9031201359FDA03120135A9DA03120102
:100A730035DEDB03120135D6DC03120135CA9903D7
:100A8300120135FA9A031201352D9B0312013577B2
:100A93009B031201353E9D03120135DED201120183
:100AA3003548D301120135A7D401120135B7D4015A
:100AB300120135E4D4011201353BD501120135E4AD
:100AC300D501120135EBD601120135B5D70112015B
:100AD3003515D90112013558D901120135FDD90156
:100AE3001201354ADA0112013570DA011201357E3D
:100AF300DC0112013583DC0112013588DE011201AC
:100B030035D5DE0112013548DF011201357BDF01E6
:100B13001201351DE001120135C6E001120135FE57
:100B2300E00112013501E10112013549E101120130
:100B33003589E101120135E0E1011201354DEC0384
:100B430012013565EC03120135ADEC03120135C317
:100B5300EC031201350AED031201351EEE031201F7
:100B630035ABEE03120135F6EE03120135284D00C5
:100B7300120135344D001201356F4D00120135B4A9
:100B83004D00120135744E00120135FA4E00120168
:100B9300355F4F001201358B4F00120135C44F00F2
:100BA300120135025200120135E65300120135CC11
:100BB30055001201350F57001201355D590012011E
:100BC300356F5A00120135BA5B00120135CA5C0059
:100BD300120135E75C00120135225D001201354434
:100BE3005D00120135A75D00120135686200120134
:100BF30035FD62001201354E630012013575630045
:100C0300120135C76300120135E563001201353F58
:100C130064001201352865001201359E6600120139
:100C230035226700120135A3A803120135ADA803CD
:100C3300120135F0A8031201350BA9031201359BEC
:100C4300A903120135C3A90312013500AA03120136
:100C53003537AA0312013560AA03120135D5AA0359
:100C6300120135EAAA03120135FFAA031201353036
:100C7300AB0312013544AB0312013569AB03120117
:100C830035A3AB03120135CFAB0312013507AC0318
:100C930012013586AC03120135CFAC03120135F9CD
:100CA300AC0312013524AD031201357B8B04120111
:100CB3003560B9021201358EB902120135DCBA0270
:100CC300120135BCBB02120135DBBB0212013558E0
:100CD300BC021201359BBC02120135F1BD021201A7
:100CE30035B2BE0212013539C102120135DAC10231
:100CF300120135D0C202120135CDC30212013527CC
:100D0300C502120135B2C502120135728604120101
:100D130035DB86041201352F87041201355687040B
:100D23001201358787041201358AC403120135F78E
:100D3300C4031201353EC50312013556C603120121
:100D43003552C70312013535C80312013579EE0256
:100D5300120135BBEE021201358DEF021201356629
:100D6300F00212013560F10212013542F202120162
:100D730035ABF20212013561F302120135D5F302EC
:100D830012013541F4021201356AF402120135E40D
:100D9300F4021201357DF502120135E2F50212016A
:100DA30035F7F5021201353DF60212013556F6020A
:100DB300120135BBF602120135BEF6021201356D82
:100DC300E60312013595E603120135D3E60312015A
:100DD3003591E703120135F8E70312013514E803EF
:100DE3001201353CE8031201356CE8031201357B2F
:100DF300E803120135F8E8031201351EE903120175
:100E030035CDE201120135ABE401120135DDE60116
:100E130012013519E70112013546E7011201353098
:100E2300E8011201357BE801120135C6E801120120
:100E330035D8E80112013518E9011201354DE901F0
:100E43001201359BE901120135CAE901120135EDA1
:100E5300E9011201353AEA01120135BFEA01120133
:100E630035D9EC0112013518EF0112013559EF01A3
:100E7300120135FBF0011201353CF101120135AFCE
:100E8300F10112013505F2011201352FF2011201B0
:100E9300352DF301120135C6F901120135E7FB01C6
:100EA300120135B2FD011201351AFF011201358914
:100EB30067001201353868001201356568001201B8
:100EC30035AB6800120135EB6900120135816B0007
:100ED300120135FB6B00120135166C0012013591BE
:100EE3006C00120135EB6D001201354B6F001201DE
:100EF30035517000120135B27100120135CB71000A
:100F03001201352972001201351773001201354A97
:100F13007300120135BA73001201353474001201E3
:100F2300357E74001201354875001201351D7600B7
:100F3300120135FC7600120135877700120135F571
:100F43007700120135697800120135947800120197
:100F530035537900120135B87A00120135D57A007C
:100F6300120135F47A00120135E57B001201350ACE
:100F73007C00120135347C00120135AF7C00120174
:100F830035097D00120135727E00120135207F0084
:100F9300120135617F001201358CAB02120135DA83
:100FA300AB02120135E6AB02120135C4AC021201E9
:100FB30035F5AC0212013526AD02120135A6AD029C
:100FC300120135DEAD0212013530AE021201356D6C
:100FD300AE021201358AB002120135B0B20212011B
:100FE300359BB40212013585B602120135F0FF01BB
:100FF3001201351599011201354599011201351E6A
:10100300A001120135A3A101120135A0A70112010C
:101013003588A801120135C5A801120135E8A801D8
:1010230012013519A90112013522A9011201352C2A
:10103300A9011201351AAA0112013510AB011201DF
:10104300350684011201350588011201350B88012B
:10105300120135468F011201355F94011201357972
:10106300D5031201350FD60312013525D60312011C
:10107300359BD6031201350FD7031201354DD70324
:10108300120135C1D7031201353AD8031201354392
:10109300D8031201354FD80312013564D803120166
:1010A30035A2D803120135B8D80312013517D90375
:1010B300120135F7C80312013504C9031201351EA5
:1010C300C9031201355DC9031201359BC90312011E
:1010D3003500CA0312013515CA0312013520CA03AC
:1010E3001201352DCA0312013544CA0312013552C8
:1010F300CA031201355DCA0312013569CA0312011D
:101103003578CA0312013583CA03120135A6CA030F
:101113001201354DCB031201355DCB031201357737
:10112300CB0312013594CB03120135B0CB0312016B
:1011330035D5CB03120135E0CB03120135F5CB03D3
:1011430012013509CC031201356ACC031201357043
:10115300CC0312013576CC031201357CCC0312018A
:101163003594CC03120135C7CC03120135629D02BD
:10117300120135E69D02120135959E02120135F4E6
:101183009F0212013515A20212013501A3021201B9
:101193003536A30212013558A30212013507A40202
:1011A300120135FFA50212013528A602120135BA34
:1011B300A602120135ECA602120135F9A6021201AC
:1011C3003550A70212013576A702120135E3A902B1
:1011D300120135E6AA021201353EAB02120135F1C6
:1011E3008E02120135FB8F02120135E290021201C9
:1011F30035EC90021201350E91021201351A91025B
:10120300120135B39202120135E29202120135FE48
:101213009302120135579402120135BD9502120152
:10122300359C9602120135F8960212013565970234
:10123300120135A09702120135DF9702120135988A
:101243009A02120135B29A021201353E9B02120133
:10125300354C9B02120135A59B02120135B39B024B
:10126300120135269C021201358A9C02120135D4E3
:101273009C0212013533C60212013555C602120112
:10128300357BC80212013590CB02120135A8CC027E
:101293001201355BCD021201353DCE02120135003C
:1012A3008004120135258004120135978004120150
:1012B30035008003120135098003120135128003C2
:1012C300120135E980031201359A8203120135D0E8
:1012D30082031201350A830312013540830312018D
:1012E300357A8303120135AE8303120135DA8303A2
:1012F3001201352384031201355D8403120135A6DF
:101303008403120135FE8403120135338503120170
:10131300358E8503120135C88503120135198603FD
:101323001201354F8603120135898603120135B741
:101333008603120135DA8603120135398E04120150
:1013430035658E04120135C08E04120135CA8E0430
:10135300120135DA8E0412013544CD03120135949E
:10136300CD03120135B1CD0312013580CE03120135
:101373003501CF03120135D4CF0312013552D10306
:101383001201359D8E03120135C28E03120135FA07
:101393008E03120135878F041201350030001201CC
:1013A30035123300120135C634001201356B350096
:1013B3001201350E3600120135C53600120135F41F
:1013C3003600120135B03B00120135423C001201D8
:1013D300357E3D00120135E63D001201359A3E008F
:1013E3001201355041001201358A4100120135F4D2
:1013F3004100120135514200120135AE4200120183
:10140300350B4300120135F643001201353C44000D
:10141300120135874400120135AA4400120135ED4B
:1014230045001201350146001201350A4700120139
:1014330035494700120135754700120135C447008D
:10144300120135E547001201352348001201356AC0
:101453004A00120135AB4A00120135494B00120113
:1014630035BB4B00120135F44C00120135F2B103C8
:1014730012013542B2031201356BB2031201351D5D
:10148300B30312013586B30312013592B40312017B
:10149300355BB6031201358EFA031201359EFA034A
:1014A300120135E3FA03120135C1FB031201355969
:1014B300FC0312013525FE0312013558FE03120108
:1014C3003576FE031201350BFF0312013528FF03A6
:1014D300120135BAFF03120135DB7F0012013549D2
:1014E3008A04120135598A041201356D8A041201E6
:1014F30035758B041201356CE30312013510E403D7
:1015030012013552E60312013526F4031201354068
:10151300F403120135A3F40312013511F50312018B
:1015230035C7F503120135E6F503120135F6F50368
:1015330012013535F60312013572F603120135A592
:101543008104120135DF8104120135528204120134
:10155300359C8204120135DB8204120135ED8204CD
:101563001201352283041201354683041201359595
:101573008304120135C7830412013559840412010F
:1015830035D584041201352AE0031201353EE00308
:1015930012013567E00312013590E003120135585B
:1015A300E103120135A3E1031201355AE3031201EA
:1015B3003568FE021201359BFE0212013517FF0248
:1015C30012013537FF021201359CFF02120135E487
:1015D300FF02120135E7FF02120135F19E031201EA
:1015E300350A9F031201359F9F0312013590A00313
:1015F30012013546A30312013586A303120135C830
:10160300A30312013584F60312013595F603120183
:1016130035DEF6031201350AF7031201352AF70303
:10162300120135C9F7031201359CF803120135E79E
:101633008404120135368504120135BE8504120176
:1016430035458604120135F87F0012013566E9033A
:1016530012013593EB03120135FFEB031201354AF7
:10166300EC03120135E4BF0312013534C003120148
:10167300355DC0031201350FC10312013578C10373
:1016830012013584C2031201354DC403120135988A
:10169300B603120135E8B60312013511B70312017F
:1016A30035C3B7031201352CB80312013538B9031A
:1016B30012013501BB031201353EBB031201358E06
:1016C300BB03120135B7BB0312013569BC03120119
:1016D30035D2BC03120135DEBD03120135A7BF03AA
:1016E300120135CD8704120135FE87041201352816
:1016F3008804120135488804120135A688041201B2
:1017030035E2F602120135F7F60212013553F702FC
:10171300120135BEF70212013506F80212013570C7
:10172300F80212013599F802120135A7F8021201E5
:101733003509F90212013547F90212013562F9023E
:10174300120135FDF902120135A2FA021201352503
:10175300FB021201355EFB02120135E9FB021201A5
:101763003540FC021201359EFC02120135B0FC0229
:10177300120135D6FC02120135DFFC0212013534A9
:10178300FE02120135AEF80312013515F9031201F9
:1017930035C0F90312013536FA03120135E0DC03D3
:1017A30012013513DD0312013511DE031201356316
:1017B300DF031201350F8904120135ED890412018B
:1017C3003520EF0312013565EF03120135ABEF034B
:1017D30012013574F1031201356B8D041201358644
:1017E3008D04120135968D04120135ED8D0412011D
:1017F30035E48E0412013561D1021201353DD20266
:1018030012013584D202120135C1D2021201352FE1
:10181300D30212013589D302120135F9D302120121
:1018230035C9D402120135B8D5021201353CD602AE
:10183300120135D8D70212013563D802120135F3EC
:10184300D8021201358CD902120135A3D902120133
:1018530035D6DA021201352CDB02120135E2E5023C
:1018630012013502E60212013578E702120135C68C
:10187300E702120135E6E7021201354EE8021201D2
:1018830035D0E80212013516E902120135A2E90248
:10189300120135EBED0212013568EE021201352813
:1018A300AD01120135CFB101120135C0B4011201EE
:1018B30035E9B40112013500B50112013529B5012D
:1018C300120135DBB501120135BAB7011201350C2E
:1018D300B90112013558BE0112013591BE01120141
:1018E30035D5BE01120135E1BF011201359FC0019B
:1018F30012013574C30112013562C7011201359417
:10190300C701120135BFC701120135B3C801120166
:101913003536C9011201350ECA0112013539CA0122
:1019230012013564CA011201358FCA01120135BA99
:10193300CA01120135F1CA011201351CCB01120192
:101943003547CB01120135EECB0112013593CC01A2
:101953001201353ACD01120135DFCD01120135886F
:10196300CE011201352FCF01120135D7CF0112015C
:1019730035A4D00112013530D101120135E9D1016D
:10198300120135B8F10312013508F2031201356B68
:10199300F20312013531F303120135E9F3031201A6
:1019A3003544FF0112013582D103120135D2D1032F
:1019B300120135FBD10312013593D203120135EA2B
:1019C300D203120135EFD3031201353CD5031201C3
:1019D30035917F00120135BD7F00E066701008A3CA
:1019E300E066700A08A3E066700408A3E06622C3F9
:1019F300E7960809E7960809E7960809E79622C3D8
:101A0300E09608A3E09608A3E09608A3E09622C018
:101A130008C3E096F50808A3E096420808A3E096F9
:101A2300420808A3E09645087001D3D008220808AD
:101A330008EAC0E0EBC0E086F0E7A4FA180986F0F4
:101A4300E7A42AFA180986F0E7A42AFA180986F007
:101A5300E7A42AFA1986F0E7A4FBE5F02AFA1908A5
:101A630086F0E7A42BFBE5F03AFA190886F0E7A421
:101A73002BFBE5F03AFA18180986F0E7A4C5F02B1A
:101A8300FBE43AFA1908E7C5F0C6A426F6E5F03BED
:101A9300FBE43AFA1886F0E7A4F6E5F00826F6E444
:101AA3003B08F6E43A08F6D0E0FBD0E0FA22E4CFB4
:101AB300C0E0E4CEC0E0E4CDC0E0E4CCC0E075F02B
:101AC30020E626F608E633F608E633F608E633F6AC
:101AD300181818EC33FCED33FDEE33FEEF33FFC380
:101AE300EC9709ED9709EE9709EF97191919400F2C
:101AF300FFEC97FC09ED97FD09EE97FE191906D542
:101B0300F0BFECF709EDF709EEF709EFF71919192B
:101B1300D0E0FCD0E0FDD0E0FED0E0FF226016086C
:101B23000808C6C313C618C613C618C613C618C6F4
:101B330013C6D5E0EA2270090808082260161818AF
:101B430018C6C333C608C633C608C633C608C63369
:101B5300C6D5E0EA22E627F60809E637F60809E6DD
:101B630037F60809E637F622E026F608A3E036F64C
:101B730008A3E036F608A3E036F622E026F008A331
:101B8300E036F008A3E036F008A3E036F022C3E61F
:101B930097F60809E697F60809E697F60809E6971F
:101BA300F622C3E096F008A3E096F008A3E096F0CF
:101BB30008A3E096F022E657F60809E657F6080967
:101BC300E657F60809E657F622E056F608A3E0566C
:101BD300F608A3E056F608A3E056F622E056F0080E
:101BE300A3E056F008A3E056F008A3E056F022E085
:101BF300F608A3E0F608A3E0F608A3E0F622E6F071
:101C030008A3E6F008A3E6F008A3E6F022E0FAA3AF
:101C1300E0FBA3E0FCA3E0FD22EAF0A3EBF0A3ECDE
:101C2300F0A3EDF022E0F8A3E0F9A3E0FAA3E0FBD0
:101C330022E8F0A3E9F0A3EAF0A3EBF022CAC0E0A4
:101C4300E6F0A308DAFAD0E0FA22CAC0E0E0A3C5BE
:101C530082CCC582C583CDC583F0A3C582CCC582A2
:101C6300C583CDC583DAE6D0E0CA22C3E498F8E49D
:101C730099F9121CAF8026C3E49AFAE49BFBE9208E
:101C8300E7E9121CAFE498F8E499F922C3E498F861
:101C9300E499F9121CAFE498F8E499F9C3E49AFAC9
:101CA300E49BFB22EB20E7CFE920E7E0B90010BB80
:101CB3000008E88AF084F8AAF022E4FBC8FA22EBD1
:101CC30070227B10C833C8C933C9335007C39AC3C2
:101CD300DBF280069A50012ADBEAC833F4C8C93321
:101CE300F4C9FA2275F008E4C833C8C933C933C943
:101CF3009AC99B5004C92AC93BD5F0ECFBC833F4FD
:101D0300C8E4C9FA22600D08C6A2E713C618C613B1
:101D1300C6D5E0F322600C08C6C313C618C613C6A3
:101D2300D5E0F422700422600D18C6C333C608C67A
:101D330033C6D5E0F41822251810AF08F518400C67
:101D430015198008F51840021519D2AF2200C0D02A
:101D5300251810AF08F518500C05198008F5185010
:101D6300020519D2AFD0D0222518F58210AF08F59D
:101D730018400C15198008F51840021519D2AF85C3
:101D83001983222518F582E43519F583222518F8DD
:101D9300E43519F9222518FAE43519FB222518FC34
:101DA300E43519FD22E4732518C582C0E0E5193432
:101DB300FFC583C0E0E518C3958224F810AF0885FA
:101DC30083198582188008858319858218D2AFCE3E
:101DD300F0A3E520F0A37808E608F0A3DEFAEFF01D
:101DE300A3E58124FAF8E608F0A3E608F0A3E608E1
:101DF300F0A30808E608F0A3E608F0A3158115810F
:101E0300D0E0FED0E0F8158115811581E8C0E0EE41
:101E1300C0E0222518C582C0E0E51934FFC583C0A0
:101E2300E0E518C3958224F910AF088583198582EC
:101E3300188008858319858218D2AFCEF0A3E520D8
:101E4300F0A37808E608F0A3DEFAEFF0A3E5812417
:101E5300FBF8E608F0A3E608F0A30808E608F0A3F9
:101E6300E608F0A315811581D0E0FED0E0F81581D6
:101E73001581E8C0E0EEC0E022851983851882E071
:101E8300A3FEE0A3F5207808E0A3F608DFFAE0A3B9
:101E9300FFE0A3C0E0E0A3C0E0E0A3C0E0E0A3C094
:101EA300E0E0A3C0E010AF0885821885831980089D
:101EB300858218858319D2AFD083D08202013285FF
:101EC3001983851882E0A3FEE0A3F5207808E0A338
:101ED300F608DFFAE0A3FFE0A3C0E0E0A3C0E0E080
:101EE300A3C0E0E0A3C0E010AF0885821885831982
:101EF3008008858218858319D2AFD083D08222C00F
:101F0300D02518C582C0E0E51934FFC583C0E0E5DC
:101F130018C3958224F310AF08858319858218802E
:101F230008858319858218D2AFC8F0A3E9F0A3EA24
:101F3300F0A3EBF0A37908E709F0A3D8FAECF0A338
:101F4300EDF0A3EEF0A3EFF0A3D0E0F0A3D0E0F028
:101F5300A3D0E0F0A3E520F0A3E5F0F0A3228519D8
:101F630083851882E0C0E0A3E0F9A3E0FAA3E0FBD5
:101F7300A37808E0F608A3DFFAE0FCA3E0FDA3E002
:101F8300FEA3E0FFA3E0C0E0A3E0C0E0A3E0F5D040
:101F9300A3E0F520A3E0A3F5F010AF08858319852E
:101FA30082188008858319858218D2AFD082D083A6
:101FB300D0E0F8D0E0327404800674028002740129
:101FC300C0E0F404121D6BD0E0121C4022740480A4
:101FD3000474028000CCC0E0EDC0E0E518C39CCCE3
:101FE300AD1950011D10AF068C188D1980068C1881
:101FF3008D19D2AF121C4DD0E0FDD0E0FC22D0836E
:10200300D082E9C0E0E493A3C386F0C5F095F0F96C
:1020130008E493A386F0C5F095F0700BE493A3C393
:10202300994005E9048002A3E475F002A42582F532
:1020330082E5F03583F583D0E0F9E493A3C0E0E4CF
:1020430093C0E022D083D082ECC0E0EDC0E0E49303
:10205300A3FCE493A3FDED4C600D122093EC24FF4D
:10206300FCED34FFFD80EFE493A3FCE493A3FDEDCB
:102073004C600D1220D2EC24FFFCED34FFFD80EF09
:10208300D0E0FDD0E0FCE493A3C0E0E493C0E02201
:10209300C0E0C3E49396087401939618400FE49349
:1020A30066700808740193661870007019A3A3C3BF
:1020B300E49396087401939618A3A3400DD0E0D03F
:1020C300E0D0E0022083A3A3A3A3A3A3D0E022C074
:1020D300E0C0F088F0E49366700808740193661812
:1020E3007000A8F0A3A3700BD0F0D0E0D0E0D0E054
:0A20F300022083A3A3D0F0D0E02266
:1021000074F5121E16EAFEEBFFEE2434F8EF3400ED
:10211000F988088909EE2435F582EF3400F583E06B
:10212000F8EE2437F582EF3400F583E0F50AEC850C
:102130000AF0A4FCAAF0850AF0EDA42AFDE82CF828
:10214000E43DF97A257B00121CAFEA8508828509F7
:1021500083F0F8740758F97401B900028004C3339E
:10216000D9FCFAE8131313541FF8EE28F8EF3400E3
:10217000F9E8245DF582E93400F583E05A6008EE61
:102180002434F582EF802CEE2434F582EF3400F510
:1021900083E0C0E0EE2436F582EF3400F583E0F50D
:1021A000F0D0E084A8F0EE28F8EF3400F9E8243805
:1021B000F582E93400F583E0F97F04021EC274F56C
:1021C000121E16EAFEEBFFEE2434F582EF3400F522
:1021D00083E0C0E0EE2435F582EF3400F583D0E0F3
:1021E000F08E828F83A3A3A3A3A3A3A3C082C083E3
:1021F0008E828F83A3A3A3A3A3E0F8A3E0F9D083E7
:10220000D082E0C398F508A3E099F509EE247FF5A4
:1022100082EF3400F583E064017069EE2480F5827A
:10222000EF3400F583E0F8A3E0F98E828F83A3A357
:10223000A3A3A3A3A3E0FCA3E0FD8E828F83A3A3AB
:10224000A3A3A3E0FAA3E0FBC3EA9CEB9D5010C359
:10225000EC98ED99402EC3EA98EB995027800EC375
:10226000EA98EB994007C3EC98ED9940177C0B7DF9
:1022700005EEFAEFFB120F4BEE247FF582EF3400F0
:10228000F583E4F0EE2434F8EF3400F9E8FCE9FDDE
:10229000EE2435F582EF3400F583E0F8EE2437F5CF
:1022A00082EF3400F583E0F50AE508850AF0A4F52D
:1022B00008AAF0850AF0E509A42AF509E82508F836
:1022C000E43509F97A257B00121CAFEA8C828D83F4
:1022D000F0F8740758F97401B900028004C333D9C7
:1022E000FCFAE8131313541FF8EE28F8EF3400F942
:1022F000E8245DF582E93400F583E05A6008EE24B5
:1023000034F582EF802CEE2434F582EF3400F5832F
:10231000E0C0E0EE2436F582EF3400F583E0F5F01E
:10232000D0E084A8F0EE28F8EF3400F9E82438F57E
:1023300082E93400F583E0F9122F3B0221B9C08213
:10234000C083851882851983E0F8A3E0F9C3EA9C6D
:10235000EB9D5010C3EC98ED99401BC3EA98EB99A4
:102360005014800EC3EA98EB994007C3EC98ED999E
:102370004004790180027900D083D08222EAC39C94
:10238000FAEB9DFB2274EF121E169003D1E0640855
:102390006005E06407702A9061C8E060249003FF44
:1023A000E0F4601DE0F875F003A4C8AAF02AF974FF
:1023B0000128FE740439FF8E828F83A3A3A3E070EB
:1023C000030224B5906060E0C0E0EE2468F582EF7F
:1023D0003400F583D0E0F0750C74750D05750800B8
:1023E000750900E5D914F50AE5D95403F50E60170F
:1023F0007403650E605CE50A6010EE2467F582EFF9
:102400003400F583E0700302249A90056FE06401C4
:10241000602AEE2482F582EF3400F583E0600478D0
:102420000480027800850A08E508C398FA95E0FB65
:10243000120E138A088B09EA4509700512114F80A4
:1024400074EE2482F582EF3400F583E070048A0C88
:102450008B0DE50A6012850C82850D83F50BE5D99D
:10246000F0A3150BE50B70F6EE2482F582EF340035
:10247000F583E0604474FC250AF50A780C121FBD50
:10248000AC0AA90EEEFAEFFB120FE77402121D5010
:10249000E97026AA08AB0912178B793D8E828F83CB
:1024A000A3A3A3A3E0FA7B00120CE7EEFAEFFB1262
:1024B0000F63120FF9790080747403650E605685FE
:1024C0000A107511007810121FBDAC0CAD0DAA08D2
:1024D000AB09120FC37402121D50EE2468F582EF8F
:1024E0003400F583E064807004747F8001E0F50CB3
:1024F000780C121FC1E50EF50C780C121FC1A90A49
:10250000AC08AD099003FFE0FA7B00120CAB74023B
:10251000121D5080139003D1E06408600BAC0CAD29
:102520000DEEFAEFFB12105312115B79017F0A02D4
:102530001EC274F5121E1674FC121D3AEAFEEBFF61
:102540008908A2AFE433F509C2AF806AEE2463F8CC
:10255000EF3400F97A007B00A2AFE433F50AC2AF92
:1025600088828983E0FCA3E0FDEC4D603A88828993
:1025700083E0FAA3E0FB8A828B83E0FCA3E0FD8882
:10258000828983ECF0A3EDF08A828B83E4F0A3F0E0
:1025900088828983E0FCA3E0FDEC4D700A88828983
:1025A00083A3A3E4F0A3F0E50AA2E092AF12178B95
:1025B000900512E004F0EE2463F582EF3400F58319
:1025C000E0F8A3E0F9E849603DEE2463F582EF34DA
:1025D00000F583E02402FAA3E03400FBEA2402F5CC
:1025E0000AEB3400F50B780A121FBD8A828B83E058
:1025F000FCA3E0F9EEFAEFFB120F877402121D50F4
:10260000E9700302254C900512E06063900513E029
:10261000F8900512E0C398500C7402650870509051
:102620000514E0604A8E828F83A3A3A3A3E08518DC
:1026300082851983F0A3E4F0900512E0F874021289
:102640001D86E8F0A3E4F0900512E0F8900511E093
:1026500028F07402121D86AC82AD8385188285191C
:1026600083AA82AB837901120CB7900512E4F0E5DE
:1026700009A2E092AF7404121D500221B9000000BB
:102680008521878522C622C0E0C0D0E8C0E0E9C02D
:10269000E0EAC0E0EBC0E0ECC0E0EDC0E0EEC0E09E
:1026A000C008C009C00AC00BC082C083C0F0A2AF7E
:1026B000E433FEC2AF759B00906182E0A2E050124D
:1026C000E591A2E0500C7591FE7401652170031232
:1026D0002385E0A2E55051E591A2E5504B7591DFCD
:1026E0009003D1E064076005E0640870237401651D
:1026F00021703579019003FFE0FA75F003A4CAA8B0
:10270000F028FB74012AFA74043BFB12253280186E
:10271000E0640D70139003F3E004F064287002E4A9
:10272000F07A00E0F9121161906182E0A2E64003C4
:102730000227CEE591A2E640030227CE7591BF9015
:1027400003D1E064057008121089121095800312FD
:10275000108F7521001210EFE99003D2F07900126A
:1027600010E3120EC17A017B009003D0E0F912173A
:102770005B907803E064427055900573E014F0704C
:102780004DC2AF12278600782AD0E0F618D0E0F6C6
:10279000E59F540770057509FF800375097FC4C064
:1027A000E07829E6F50808E65509F509740B78087C
:1027B000121D18D0E02508F8906270E0A2E740F8FA
:1027C000E8C333906272F0906270E0D2E0F0906102
:1027D00081E0A2E35009E5E9A2E3500375E9F7A31C
:1027E000E0A2E75009E591A2E7500375917FEEA2C0
:1027F000E092AFD0F0D083D082D00BD00AD009D0F5
:1028000008D0E0FED0E0FDD0E0FCD0E0FBD0E0FA64
:10281000D0E0F9D0E0F8D0D0D0E032C0E0C0D0C0F5
:1028200082C083906183E0A2E05009E5BFA2E0503E
:102830000375BFFEE0A2E15009E5BFA2E1500375B8
:10284000BFFDE0A2E25009E5BFA2E2500375BFFB65
:10285000E0A2E35009E5BFA2E3500375BFF7E0A291
:10286000E45009E5BFA2E4500375BFEFE0A2E550D4
:1028700009E5BFA2E5500375BFDFE0A2E65009E518
:10288000BFA2E6500375BFBFD083D0828088C0E06E
:10289000C0D0E8C0E0E9C0E0EAC0E0EBC0E0ECC0D6
:1028A000E0EDC0E0C0F0E5A7A2E6500FE5A1A2E68A
:1028B000500953A7BF75A1BF1228F3E5A7A2E550A1
:1028C0000CE5A1A2E5500653A7DF75A1DFE5A7A29D
:1028D000E15009E5A1A2E1500375A1FDE5A7A2E23F
:1028E000500CE5A1A2E2500653A7FB75A1FBD0F066
:1028F00002280474F8121E167521019003D1E064B9
:102900000670151210178A828B83A3A3A3A3A3A317
:10291000E0FAA3E0FB121077A2AFE433FED2AF904F
:1029200003D7E0640170187A207B009003D0E0F9AF
:102930001218817A207B009003D0E0F91217619081
:102940006182E0D2E6F0900570E0602185C62280C9
:10295000169003D6E064017008E5C654F84405F506
:10296000C653BEFC1226807401652160E4EEA2E02D
:1029700092AF7F01021EC2008E238F24858228859C
:102980008327851882851983E0CEA3E0CF8528822E
:10299000852783EBC9EAC8EDCBECCA75F010C3E814
:1029A00033C8E933C9EA33CAEB33CBC3EA9EF52611
:1029B000EB9FF525B35004AB25AA26EC33CCED33C1
:1029C000CDD5F0DAAE23AF242274E9121E1674F8C6
:1029D000121D3A851882851983ECF0A3EDF08A0860
:1029E0008B099003D1E024F7C394055006750801C4
:1029F000022B601210178A0A8B0BAE0AAF0BEE4F38
:102A00007003022B5DAC08AD097402121D86AA8208
:102A1000AB831210A78E828F83A3A3750CFF750D55
:102A2000FF750EFF750F00780C121BCC7402121D7F
:102A3000867510FF7511FF7512FF7513007810125F
:102A40001BCC780C79101219F2502A780C791012DC
:102A50001B917508017509C8750A00750B00780887
:102A6000790C1219F25052850C08850D09850E0A51
:102A7000850F0B80507514017515C87516007517F4
:102A80000085100885110985120A85130B780879CD
:102A90000C121B91781479081219F2401C75080069
:102AA000750900750A00750B0178087910121B91E1
:102AB0007808790C121B58800C750801750900758F
:102AC0000A00750B0074097808121B39750C19F58A
:102AD0000DF50EF50F7808790C121AB18E828F83DE
:102AE000A3A3A3A3A3A3E0F8A3E0F97AD07B0312E6
:102AF0001CAF880C890DE4F50EF50F7808790C12DF
:102B00001B587406121D86E0F8A3E0F97AD07B0307
:102B1000121CAFE8FA8A0CE4F50D7808790C12194A
:102B2000F250077808790C121B919003D1E06408E9
:102B3000600AE064066005E06405702D750C0D7890
:102B40000C79081219F24021750CF4750DFF750E01
:102B5000FF750FFF7808790C121B58800C75080060
:102B6000750900750A00750B00851882851983E0C8
:102B7000F8A3E0F58388827808121C017408121DFE
:102B8000507F10021EC274F7121E161210B9900563
:102B90006EE064017010906245E4F0A3F053F4F32A
:102BA00043FE0C5390F3121065E5C654804449F57A
:102BB000C6E59E547F644970F8906185740FF0906B
:102BC000056CE0F47002A3E0604E90056DE06008D3
:102BD00014601B14602E8040750801750900900573
:102BE0006CE07808121D27E508F45280802A7508E9
:102BF0000175090090056CE07808121D27E508F4BE
:102C00005290801475080175090090056CE07808F1
:102C1000121D27E508F452A079007F02021EC2743B
:102C2000F7121E16E9FEEAFF74016E700C7A807BC3
:102C3000009003D0E0F912175B902FF8E493F46052
:102C400008E493F9120EB5800953C680E59E547FBF
:102C500070FA12106B90056EE064017003120ECDD5
:102C600090056CE0F47002A3E0604B90056DE060AD
:102C70000814601A14602C803D75080175090090D5
:102C8000056CE07808121D27E50842808028750849
:102C90000175090090056CE07808121D27E50842CF
:102CA00090801375080175090090056CE078081292
:102CB0001D27E50842A01210B91210178A088B09C7
:102CC000A808A909E8496015E5E170FCE82414F5B5
:102CD00082E93400F583E0F46003E0F5E174016F0C
:102CE000700A7A019003D0E0F91217E5022C1A74E9
:102CF000ED121E168A088B098C0A8D0B7413121D97
:102D000086780C121BF27808790C1219F2751001F2
:102D10007511C875120075130050127808790C12DD
:102D20001B91781079081219F250168010780C79DE
:102D300008121B917810790C1219F2400479018065
:102D40000279007F0C021EC274ED121E168A088BD7
:102D5000098C0A8D0B7413121D86780C121BF278E5
:102D60000C79081219F240117808790C121B91AAFB
:102D700008AB09AC0AAD0B80227510007511007507
:102D800012007513017810790C121B9178107908D4
:102D9000121B58AA10AB11AC12AD1380A68A828BFD
:102DA000837508FF7509FF750AFF750B0078081217
:102DB0001BDF7F04021EC274F5121E168C828D83E7
:102DC0007808121BF28A828B837808121BA5EA24EA
:102DD00004F8EB3400F98C828D83A3A3A3A3E0FC59
:102DE000A3E0FD88828983C3E09CF0A3E09DF08886
:102DF000828983C3E09420A3E0944E40268A828B8C
:102E0000837508FF7509FF750AFF750BFF780812B7
:102E10001B7E8A828B83A3A3A3A3E02420F0A3E0DC
:102E2000344EF0022D9D74F5121E16E9FE90052613
:102E3000E0FAA3E0FBEEC333F8E433F974C528F5F8
:102E400082748139F583E02AF508A3E03BF509781F
:102E500008121FBD7A407B427C0F7D0012297874D6
:102E600002121D508A088B098C0A8D0B7410780889
:102E7000121B20AA08AB097F04021EC274F1121EA5
:102E8000168A0C8B0D8C0E8D0F740F121D86E0FAB6
:102E9000A3E0FB7411121D86E0F508A3E0F50978A4
:102EA00008121FBDEA2401F508EB3400F509E4F52A
:102EB0000AF50B780C7908121A3175087175090238
:102EC000780C7908121A31AA0CAB0DAC0EAD0F12AA
:102ED00029787402121D508B09EA450960047A01B1
:102EE00080027A00EC2AFCED3400FD7413121D867A
:102EF000E0F8A3E0F9E8FEE9FFECF8EDF97A717B80
:102F000002121CAF880889098E828F837808121CF0
:102F100001ECF8EDF97A717B02121CAF8A088B097B
:102F200074057808121D278E828F83A3A3A3A3E5BF
:102F300008F0A3E509F07F08021EC2C082C083E941
:102F4000906000F0D083D08222C0E074F2121F02A1
:102F5000A2AFE433FED2AFE589A2E050031215C957
:102F6000758900C2C5EEF8EEA2E092AF7F01021FA4
:102F700061C0E074F2121F02A2AFE433FED2AFE5EB
:102F80008AA2E64006E58AA2E750031215C9758AAF
:102F900000758A00C2EBEEF8EEA2E092AF7F01026C
:102FA0001F61C0E0C0D0E8C0E0E9C0E0A2AFE433F8
:102FB000F8D2AF758B00C2E8E8F9E8A2E092AFD092
:102FC000E0F9D0E0F8D0D0D0E032C0E0C0D0E8C026
:102FD000E0E9C0E0A2AFE433F8D2AFC2C7751A008F
:102FE000E8F9E8A2E092AFD0E0F9D0E0F8D0D0D094
:102FF000E032C2AF02000022FFFFFFFFFFFFFFFF32
:1030000074F0121DAA74F8121D3A8A0E8B0FE9FF94
:103010008C0C8D0D7E00850E08850F097808122016
:1030200001000410DE3248306B308A30AD30D030D1
:10303000F330243147315E318E313F326232853296
:10304000B332DE32DE32B73174016F7019850C8213
:10305000850D83E0C39403500D850C82850D83E0BC
:10306000900D61F080027E1802330674026F7015B5
:10307000850C82850D83E0F8A3E0F9900D62E8F0FD
:10308000A3E9F080027E1802330674016F7019857F
:103090000C82850D83E0C39402500D850C82850D52
:1030A00083E090078FF080027E1802330674016F70
:1030B0007019850C82850D83E0C39405500D850C35
:1030C00082850D83E0900790F080027E180233061F
:1030D00074016F7019850C82850D83E0C3940250D2
:1030E0000D850C82850D83E0900791F080027E189B
:1030F00002330674106F7027750810750900780880
:10310000121FBDAC0CAD0D7A927B0712170774022B
:10311000121D508A088B0985088285098380027EEA
:103120001802330674016F7019850C82850D83E0D7
:10313000C39402500D850C82850D83E09007A2F0A8
:1031400080027E1802330674016F700D850C828533
:103150000D83E0900D65F080027E18023306740442
:103160006F70269083747808121BF2850C82850D8F
:10317000837808121A025011850C82850D83121C67
:10318000289007A4121C3480027E18023306EF70C8
:1031900021120A65E97013121413E9F50979501226
:1031A0001857E9F508121401800A9008377401F0E5
:1031B00080027E1802330674076F707E75080675EC
:1031C00009007808121FBD850C82850D83A3AC828F
:1031D000AD837404121D9812170D7402121D5085D0
:1031E0001882851983EAF0A3EBF07C007D0074025D
:1031F000121D98850C82850D83E0F91213A7E9F55D
:103200000AE50AC3940A502E120A65E97015A90A44
:10321000121419E9F5097950121857E9F508121432
:10322000018019A80A7900743828F582740839F5E4
:10323000837401F080067E0280027E1802330674D9
:10324000016F7019850C82850D83E0C39402500DC7
:10325000850C82850D83E09007A3F080027E180222
:10326000330674016F7019850C82850D83E0C39459
:103270000A500D850C82850D83E0900D64F080026C
:103280007E1802330674016F7025850C82850D83CC
:10329000E0C394074019850C82850D83E0C3941127
:1032A000500D850C82850D83E0900D66F080577E71
:1032B00018805374016F7022900836E0F508850C71
:1032C00082850D83E0900836F0E508703990083665
:1032D000E064017031121401802C7E188028C3E54F
:1032E0000E9427E50F9400501B74026F7016850C26
:1032F00082850D83E0FCA3E0FDAA0EAB0F1209034B
:10330000E9FE80027E02EEF97408121D507F080269
:103310001E7C74F0121DAA74D7121D3AE9C0E08514
:103320001882851983D0E0F07401121D86EAF0A39B
:10333000EBF08C0E8D0F9083287403121DA0740681
:10334000121C4D7403121DA07401121D86E0FAA315
:10335000E0FB851882851983E0F91213A7E9FEEED8
:10336000C3940A40030234A1EEF91213E3E9FF907B
:103370000D61E064027004740180027400F5087845
:1033800008121FC1743A121D86E0FDEFFCEEF9AA87
:103390000EAB0F1214557401121D507C147D007970
:1033A000007415121D9812171F8A088B0985080AC8
:1033B00085090B7415121DA07A1075F006EEA42471
:1033C00024F9121851E9703C7C1079FF7415121D14
:1033D0009812177FE9702D7425121D86AC82AD837B
:1033E0007A0475F006EEA42425F9121851E9F508BF
:1033F0007415121DA0EFA2E0E433F9AA0EAB0F1270
:10340000098DE9F87409121DA07A0C74702EF91256
:103410001851E970797409121D981213D7750800B4
:10342000E508C394045067A8087900E875F003A480
:10343000C8AAF075F000A42AFA75F003E9A42AF9E5
:103440007409121D86E58228F50CE58339F50D8592
:103450000C82850D83E0F8A3E0F9E849602C850C27
:1034600082850D83A3A3E0F50A750B00780A121F6D
:10347000BD850C82850D83E0FCA3E0FDAA0EAB0F99
:10348000120BF17402121D50E9F805088092EFA2A8
:10349000E1500E90078EE0F9AA0EAB0F120BF7E980
:1034A000F87439121D86E06404700F900D61E064B9
:1034B000027007AA0EAB0F12144F79007429121D67
:1034C000507F08021E7C74F2121DAA890B8A088B99
:1034D00009ECFEEDFF750A0AE50B600B1460081499
:1034E000604114605F807DAA08AB091213F5E9F50D
:1034F0000AE50AC3940A506CEE4F6068750C0675B5
:103500000D00780C121FBDAC08AD09EEFAEFFB12EE
:1035100017077402121D508A0C8B0D850C82850DC5
:10352000838041AA08AB091213EFE9F50AE50AC343
:10353000940A5030EE4F602CEEFAEFFBA90A1213FA
:10354000E9E98020AA08AB091213FBE9F50AE50AAC
:10355000C3940A500FEE4F600BEEFAEFFBA90A126C
:1035600013E9E9F8A90A7F06021E7C74F2121DAA6B
:103570008A0C8B0DE9FF7E1574FF650C700474FFD7
:10358000650D702A750800E508C3940A5014EFFC15
:103590007A027B00A9081213C5E960027E000508C3
:1035A00080E5EF60627A3D7B14120DF58059AA0C1C
:1035B000AB0D120DD78A088B0985080A85090BE522
:1035C0000A450B60407C007D00E50A2405FAE435DD
:1035D0000BFB850A82850B83A3A3A3A3E0F9121337
:1035E000A7E9F508E508C3940A500EEFFC7A027BC0
:1035F00000A9081213C5E97E00EF600BAA0AAB0B05
:1036000012143D80027E14EEF97F06021E7C74F0D7
:10361000121DAA74FE121D3A851882851983EAF0DC
:10362000A3EBF08C0A8D0B7412121D86E0F50EA32D
:10363000E0F50F7E15851882851983E064FF70041C
:10364000A3E064FF701D7F00EFC3940A506BAC0EC3
:10365000AD0FAA0AAB0BEFF91213CBE960027E00A3
:103660000F80E5851882851983E0FAA3E0FB120D2F
:10367000D78A0C8B0D850C08850D09E50845096076
:10368000367C007D00E5082405FAE43509FB850851
:1036900082850983A3A3A3A3E0F91213A7E9FFEF8F
:1036A000C3940A5014AC0EAD0FAA0AAB0BEFF9127B
:1036B00013CBE97E0080027E14EEF97402121D50D5
:1036C0007F08021E7C74F7121DAAEAFEEBFF90072A
:1036D000A8EEF0A3EFF090078EE0FC7D007A267B49
:1036E00000120903E9F50890078EE0F9120B6D7FCF
:1036F00001021E7C74F2121DAA74EC121D3A8A0A91
:103700008B0B850A82850B83A3A3E024FA70030246
:103710003B3C24FD70030239B01470030237E414FB
:10372000601024FD70030239581470030239F4024A
:103730003BA4AE0AAF0B9007A8E0F8A3E0F9E84974
:1037400060669007A8E0F8A3E0F5838882E0F8A31C
:10375000E0F9E8496052EE240CF582E43FF583E09D
:10376000F5087808121FC1EE240BF582E43FF583BB
:10377000E0F98E828F83A3A3A3A3A3A3A3A3A3E0B3
:10378000FCA3E0FDEE2403FAE43FFB9007A8E0F879
:10379000A3E0F5838882E0F8A3E0F5838882121D18
:1037A000A87401121D5080398E828F83A3A3A3A316
:1037B000A3A3A3A3A3121FD49007A4121C10120941
:1037C0009F7402121D50E9601879018E828F83A3C5
:1037D000A3A3A3A3A3A3A3A3E0FAA3E0FB120999C5
:1037E000E9023BA4AE0AAF0B8E828F83A3E0600395
:1037F0000239068E828F83A3A3A3A3A3E0A2E04095
:1038000003023906900842E0F8A3E0F9E8496003B2
:103810000239067C0E7D007900AA18AB1912171F19
:103820008A088B09AA08AB09EE240CF582E43FF55F
:1038300083E0F8A3E0F9E8496036750806750900E9
:103840007808121FBDEE240CF582E43FF583E024D6
:1038500010FCA3E03400FD7402121D9812170774C7
:1038600002121D508A088B09850882850983804FC2
:103870008E828F83A3A3A3E0FAA3E0FB120DD78A65
:103880000C8B0D850C08850D09E5084509602D7523
:103890000C06750D00780C121FBDE5082405FCE42C
:1038A0003509FD7402121D981217077402121D507B
:1038B0008A0C8B0D850C82850D838003023BA48EC0
:1038C000828F83A3A3A3A3A3E0A2E25004D2F0803B
:1038D00002C2F0A2F0E433F87900740C121D86E005
:1038E00048F0A3E049F0EEFCEFFDAA18AB19121363
:1038F000DDE970127A027B0090078EE0F912175B07
:10390000E97900023BA69007A8E0F8A3E0F9E849AE
:1039100060439007A8E0F8A3E0F5838882A3A3E0C2
:10392000F8A3E0F9E849602D8E828F83A3E0FC794B
:10393000018E828F83A3A3A3E0FAA3E0FB9007A8E4
:10394000E0F8A3E0F5838882A3A3E0F8A3E0F58381
:103950008882121DA8023BA4AE0AAF0B9007A8E014
:10396000F8A3E0F9E84960459007A8E0F8A3E0F57E
:10397000838882A3A3E0F8A3E0F9E849602F850AD1
:1039800082850B83A3E0FC79028E828F83A3A3A39D
:10399000E0FAA3E0FB9007A8E0F8A3E0F5838882B3
:1039A000A3A3E0F8A3E0F5838882121DA8023BA43C
:1039B000850A08850B097C007D00E5082404FAE4EB
:1039C0003509FB850882850983A3A3A3E0F91213B7
:1039D000A7E9FEEEC3940A5018E508240AFCE43572
:1039E00009FD7A0475F006EEA42425F912184BE9B6
:1039F000F8023BA4AE0AAF0B9007A3E06019900D4C
:103A000064E0F98E828F83A3A3A3E0FAA3E0FB1204
:103A10000999E9F8023BA4900D61E0701679058ED2
:103A2000828F83A3A3A3E0FAA3E0FB120999E9F82C
:103A3000023BA48E828F83A3A3A3E0FAA3E0FB1230
:103A40000DD78A0C8B0D850C08850D098E828F830E
:103A5000A3A3A3A3A3A3A3E0A2E05072E508450992
:103A60006069850882850983A3A3A3A3E0605F8EB4
:103A7000828F83A3A3A3A3A3A3A3A3A3E0F8A3E09C
:103A8000F9E8C4540FF87900E85401F8E95400F952
:103A9000E8A2E04039740E121DA0E5082405FAE4FE
:103AA0003509FB850882850983A3A3A3A3E0F91246
:103AB00013A7E9701979038E828F83A3A3A3E0FA79
:103AC000A3E0FB120999E9F8023BA4023BA4EE240F
:103AD00005FCE43FFD850882850983A3A3A3A3E039
:103AE000F98E828F83A3A3A3E0FAA3E0FB1214490B
:103AF0009007A8E0F8A3E0F9E849603E9007A8E045
:103B0000F8A3E0F5838882A3A3E0F8A3E0F9E849ED
:103B100060287C0079008E828F83A3A3A3E0FAA3A0
:103B2000E0FB9007A8E0F8A3E0F5838882A3A3E078
:103B3000F8A3E0F5838882121DA88068120A65E95F
:103B40007062900837E06401701A121413E9FE9055
:103B500008377400F07C0A7D0079007A387B0812FF
:103B6000171F80367E00EEC3940A502EEEF87900BF
:103B7000743828F582740839F583E064017018EE12
:103B8000F9121419E9FAEEF87900743828F58274FC
:103B90000839F5837400F00E80CC7950121857E97B
:103BA000FE12140179017414121D507F06021E7C4E
:103BB00074F5121DAA74F2121D3A8908EAFEEBFF91
:103BC0008C09AC18AD197A0E75F006E508A424200E
:103BD000F9121851E9705F7C0679FFAA18AB191227
:103BE000177FE97051740C121D86E0F8A3E0F9E824
:103BF000F50AE5096005EE420A8004EEF4520AA8CF
:103C00000A7900740C121D86E0687003A3E06960F5
:103C100021A80A7900740C121D86E8F0A3E9F0AC23
:103C200018AD197A0E75F006E508A42420F91218CB
:103C30004BE9790180027900740E121D507F030256
:103C40001E7C74F0121DAA74E6121D3A89098A0EB0
:103C50008B0FECFEEDFF740C121DA07A0E75F006B2
:103C6000E509A42420F9121851E96003023D727C91
:103C70000679FF740C121D9812177FE96003023D4C
:103C800072AC18AD197A0C74702509F9121851E943
:103C90006003023D6E750800AA18AB191213D7E530
:103CA0000E450F702E7C0C7900AA18AB1912177FE5
:103CB000E96003023D547C0C7D007900AA18AB1921
:103CC00012171F8A0A8B0B850A82850B83750801E0
:103CD000023D54AC18AD19AA0EAB0F1213D18A0CC9
:103CE0008B0D850C0A850D0BE50A450B7030EE4FE8
:103CF000601BAC18AD197A007B001213D18A0C8BB3
:103D00000DA80CA90D880A890BE849700479008078
:103D100063850A82850B83E50EF0A3E50FF0850A23
:103D200082850B83A3A3E0F87900EE687002EF6947
:103D30006022EEC0E0850A82850B83A3A3D0E0F069
:103D4000EE4F700D850A82850B837400F0A374001A
:103D5000F0750801E5086016AA18AB191213D7AC64
:103D600018AD197A0C74702509F912184BE979010C
:103D700080027900741A121D507F08021E7C74F7AD
:103D8000121DAAEAFEEBFF7A00EAC39404504EEA41
:103D9000F87900E875F003A4C8ABF075F000A42B27
:103DA000FB75F003E9A42BF9EC28F582ED39F583D6
:103DB000E06E7003A3E06F7021EAF87900E875F017
:103DC00003A4C8AAF075F000A42AFA75F003E9A4C8
:103DD0002AF9EC28FAED39FB80070A80AC7A007BDF
:103DE000007F01021E7C74F7121DAA7C00ECC394B4
:103DF000044003023E95ECF87900E875F003A4C88E
:103E0000ADF075F000A42DFD75F003E9A42DF9EADD
:103E100028F582EB39F583E0F4FEA3E0F4FFECF83B
:103E20007900E875F003A4C8ADF075F000A42DFD8D
:103E300075F003E9A42DF9EA28F582EB39F583EE54
:103E4000F0A3EFF0ECF87900E875F003A4C8ADF04A
:103E500075F000A42DFD75F003E9A42DF9EA28F50D
:103E600082EB39F583A3A3E0F4C0E0ECF87900E835
:103E700075F003A4C8ADF075F000A42DFD75F00336
:103E8000E9A42DF9EA28F582EB39F583A3A3D0E064
:103E9000F00C023DED7F01021E7C74F0121DAA742D
:103EA000F4121D3AEAFEEBFF8C088D09900842E0FF
:103EB000F8A3E0F9E849702CEE4F6006E5084509E3
:103EC00070057901024146EEFAEFFB1213F5E99015
:103ED0000D67F0900D67E0C3940A4008121407E9DB
:103EE000900D67F0900D67E0C3940A4003024144CF
:103EF000900842E0F8A3E0F9E8496003023F90EE41
:103F0000FCEFFD7A0E75F006900D67E0A42420F911
:103F100012184BE9F50B7C0C7D0079FFAA18AB1940
:103F200012171F8A0C8B0D850C0E850D0FAC18AD6A
:103F3000197A0C900D67E02470F912184BE9F50A14
:103F4000750C0E750D00780C121FBDEEFCEFFD9088
:103F50000D67E0F87900E875F00EA4C8AAF075F0D6
:103F600000A42AFA75F00EE9A42AF974AA28FA74B2
:103F70000739FB1217077402121D508A0C8B0DA80B
:103F80000CA90D900842E508F0A3E509F0024140B4
:103F9000900842E0F8A3E0C82406F582C83400F592
:103FA00083E0F8A3E0F9E8496043900842E0F8A311
:103FB000E0C82406F582C83400F583E0FCA3E0FDE8
:103FC0007A1B75F006900D67E0A42421F912184BB6
:103FD000E9F8900842E0F9A3E0C92406F582C93463
:103FE00000F5837400F0A37400F002414090084291
:103FF000E0F8A3E0C8240AF582C83400F583E0F8AD
:10400000A3E0F9E8496043900842E0F8A3E0C8243F
:104010000AF582C83400F583E0FCA3E0FD7A1B7545
:10402000F006900D67E0A42422F912184BE9F890ED
:104030000842E0F9A3E0C9240AF582C93400F583F7
:104040007400F0A37400F0024140900842E0F8A32D
:10405000E0C8240CF582C83400F583E0F8A3E0F949
:10406000E8496043900842E0F8A3E0C8240CF582D8
:10407000C83400F583E0FCA3E0FD7A1075F00690EB
:104080000D67E0A42423F912184BE9F8900842E0E8
:10409000F9A3E0C9240CF582C93400F5837400F05B
:1040A000A37400F0024140900842E0F8A3E0C82465
:1040B00008F582C83400F583E0F8A3E0F9E8496028
:1040C0006F900842E0F8A3E0C82408F582C83400E5
:1040D000F583E0FCA3E0FD7A1075F006900D67E033
:1040E000A42424F912184BE9F50A900842E0F8A339
:1040F000E0C82408F582C83400F583E02410FCA34E
:10410000E03400FD7A0475F006900D67E0A42425E4
:10411000F912184BE9F8900842E0F9A3E0C9240825
:10412000F582C93400F5837400F0A37400F08010A8
:10413000900836E0600312145B1214437901800684
:10414000790080027901740C121D507F08021E7CD8
:1041500074F7121DAA74F2121D3AE9FEAC18AD19DB
:104160007A0E75F006EEA42420F9121851E9700EAB
:10417000740C121D86E0F8A3E0F9E8F980027900DA
:10418000740E121D507F01021E7C74F4121DAA745D
:10419000F2121D3A8909EAFEEBFFE509C3940A50C1
:1041A00004EE4F700479028041AC18AD197A0E7597
:1041B000F006E509A42420F9121851E9F508E508EC
:1041C0007026750A06750B00780A121FBD7402125C
:1041D0001DA0EEFAEFFB1217077402121D508A0A97
:1041E0008B0B850A82850B83A908740E121D507FE4
:1041F00004021E7C74F4121DAAEAFEEBFF7508008F
:10420000E508C3940A5043750A06750B00780A1234
:104210001FBDEEFCEFFDA8087900E875F00EA4C8FC
:10422000AAF075F000A42AFA75F00EE9A42AF97430
:10423000B028FA740739FB1217197402121D50E9DD
:104240006004A9088006050880B6790A7F04021E6A
:104250007C74F4121DAAEAFEEBFF750800E508C3A2
:10426000940A5043750A06750B00780A121FBDEEBA
:10427000FCEFFDA8087900E875F00EA4C8AAF07557
:10428000F000A42AFA75F00EE9A42AF974AA28FA13
:10429000740739FB1217197402121D50E96004A942
:1042A000088006050880B6790A7F04021E7C74F730
:1042B000121DAA74F0121D3AEAFEEBFF750800E524
:1042C00008C3940A5039AC18AD197A1075F006E598
:1042D00008A42423F9121851E970207C1079FFAA50
:1042E00018AB1912177FE97012EEFCEFFDAA18AB9C
:1042F0001912096FE97004A9088006050880C079C1
:104300000A7410121D507F01021E7C74F4121DAA43
:10431000750800E508C3940A40030243E5A808793C
:1043200000E875F00EA4C8AAF075F000A42AFA758A
:10433000F00EE9A42AF974AA28FC740739FD7A0E54
:1043400075F006E508A42420F9121851E97003025B
:1043500043E07C067D0079FFAA087B00EA75F00E39
:10436000A4CAA8F075F000A428F875F00EEBA428F4
:10437000FB74AA2AFA74073BFB12171F8A0A8B0BDD
:10438000AE0AAF0B7C067D0079FFAA087B00EA75B8
:10439000F00EA4CAA8F075F000A428F875F00EEB92
:1043A000A428FB74B02AFA74073BFB12171F8A0A71
:1043B0008B0BAC0AAD0BA8087900E875F00EA4C809
:1043C000AAF075F000A42AFA75F00EE9A42AF9748F
:1043D000B628F582740739F5837400F0A37400F0F1
:1043E0000508024313900836E0600312145B1214B0
:1043F000437F04021E7C74F7121DAA7E00EEC39454
:104400000A50327C0679FFEEFA7B00EA75F00EA4C2
:10441000CAA8F075F000A428F875F00EEBA428FBEC
:1044200074AA2AFA74073BFB12177FE96004EEF9BD
:1044300080050E80C8790A7F01021E7C74F7121D68
:10444000AA7E007F00EFC3940A50357C0679FFC92D
:10445000FDC9EFF87900E875F00EA4C8AAF075F070
:1044600000A42AFA75F00EE9A42AF974AA28FA74AD
:104470000739FBCDF9CD12177FE970010E0F80C50A
:10448000EEF97F01021E7C74F7121DAA7E007F00E8
:10449000EFC3940A500DEE700AEFF9121419E9FEF9
:1044A0000F80EDEEF97F01021E7C74F0121DAA74DC
:1044B000C9121D3AE9FE900D67E06E701D7A017B0E
:1044C0000090078EE0F9121761E97A027B009007ED
:1044D0008EE0F9121761E91214677429121DA07A8F
:1044E0000E75F006EEA42420F9121851E9600302BB
:1044F00045DE7C0679FF7429121D9812177FE9604A
:10450000030245DE7C0E7D0079FF7429121D98128E
:10451000171F851882851983EAF0A3EBF07C1B7DB9
:104520000079FF740E121D9812171F8A0A8B0B85D3
:104530000A0E850B0F7C0C7D0079FF7402121D980A
:1045400012171F8A0C8B0D850C0A850D0B7429120E
:104550001DA07A0E75F006EEA42420F912184BE97E
:10456000F508740E121DA07A1B75F006EEA4242126
:10457000F912184BE94208740E121DA07A1B75F04F
:1045800006EEA42422F912184BE94208740E121DFB
:10459000A07A1075F006EEA42423F912184BE94214
:1045A00008740E121DA07A1075F006EEA42424F9EA
:1045B00012184BE94208740E121DA07A0475F00619
:1045C000EEA42425F912184BE942087402121DA02A
:1045D0007A0C74702EF912184BE9420880037508A2
:1045E00000A9087437121D507F08021E7C74F71250
:1045F0001DAAE9FEEE90078EF01214017F01021E43
:104600007C74F2121DAA890AEAFEEBFFEE5400F850
:10461000EF5480F9E849603590078EE0F9121743AE
:104620008A0C8B0DA80CA90D88088909E84960122D
:10463000AA08AB0912142BE96008AA08AB091217E3
:1046400031E9EE6400FAEF6480FB024705EE5402A4
:10465000602D7C007D007A007B001213DDE960187C
:104660007A017B0090078EE0F912175BE9EE640295
:10467000FAEF6400FB0247057A027B00024705EE71
:10468000A2E0507D900842E0F8A3E0F5838882A381
:10469000A3A3E0FAA3E0FB121461E9605E9007A80F
:1046A000E0F8A3E0F9E84960459007A8E0F8A3E046
:1046B000F5838882A3A3E0F8A3E0F9E849602F7CA2
:1046C000007901900842E0F8A3E0F5838882A3A373
:1046D000A3E0FAA3E0FB9007A8E0F8A3E0F5838845
:1046E00082A3A3E0F8A3E0F5838882121DA8121428
:1046F00067EE6401FAEF6400FB800A7A017B0080B8
:10470000047A007B007F06021E7C74F7121DAAEA61
:10471000FEEBFF7508018E828F83E0245060131436
:10472000601924E1701CEEFAEFFB1213BFE9F508E3
:104730008010EEFAEFFB1214318007EEFAEFFB1255
:104740001437A9087F01021E7C74F7121DAAEAFE25
:10475000EBFF8E828F83A3A3A3A3E0641E70117965
:10476000008E828F83A3A3E0FAA3E0FB1213ADE9CE
:104770007F01021E7C74F6121DAA8A088B09850827
:1047800082850983A3A3A3A3E07034AE08AF098E8A
:10479000828F83A3A3A3A3A3A3A3121FD48E828F6C
:1047A00083A3A3A3A3A3E0FCA3E0FD8E828F83A336
:1047B000A3E0FAA3E0FB1213B37402121D50E97FC9
:1047C00002021E7C74F7121DAAEAFEEBFF90078E10
:1047D000E0F98E828F83A3E0FAA3E0FB120BF7E9E6
:1047E0007F01021E7CC082C08374FF121D3A121426
:1047F0000DE9C39402400B8518828519837402F079
:104800008009851882851983740AF0AC18AD197A6D
:10481000017905120A7DE97401121D50D083D082FE
:1048200002013274F2121DAA74E8121D3A8A088B32
:1048300009E9FE8C0A8D0B7C187D007900AA18AB63
:104840001912171F8A0C8B0DAC0CAD0D85188285C3
:104850001983E508F0A3E509F0900790E0C0E07443
:1048600002121D86D0E0F0900791E0C0E0740312C0
:104870001D86D0E0F0900D66E0C0E07417121D8632
:10488000D0E0F07415121D86E054FEFAA3E054FF48
:10489000FB900D65E0A2E0E433F87900EA48F8EB1C
:1048A00049F97415121D86E8F0A3E9F0900D65E052
:1048B000A2E15004D2F08002C2F07415121D86E00D
:1048C00054FDFAA3E054FFFBA2F0E433F87900E8CA
:1048D00028F8E933F9EA48F8EB49F97415121D860E
:1048E000E8F0A3E9F0900D65E0A2E35004D2F08077
:1048F00002C2F07415121D86E054F7FAA3E054FFCB
:10490000FBA2F0E433F50C750D007403780C121D56
:1049100027EA450CF8EB450DF97415121D86E8F0F1
:10492000A3E9F0900D65E0A2E45004D2F08002C249
:10493000F07415121D86E054EFFAA3E054FFFBA2B9
:10494000F0E433F50C750D007404780C121D27EAA1
:10495000450CF8EB450DF97415121D86E8F0A3E936
:10496000F0900D65E0A2E55004D2F08002C2F07430
:1049700015121D86E054DFFAA3E054FFFBA2F0E419
:1049800033F50C750D007405780C121D27EA450CE3
:10499000F8EB450DF97415121D86E8F0A3E9F090C7
:1049A0000D65E0A2E25004D2F08002C2F07415124C
:1049B0001D86E054FBFAA3E054FFFBA2F0E433F5BC
:1049C0000C750D007402780C121D27EA450CF8EBEB
:1049D000450DF97415121D86E8F0A3E9F0900791D2
:1049E000E0602A750C10750D00780C121FBD7C92CA
:1049F0007D077406121D86AA82AB83121707740204
:104A0000121D508A0C8B0D850C82850D839007A298
:104A1000E06011EE600E7415121D86E04402F0A3F2
:104A2000E04400F09007A2E060067801790080047D
:104A3000780079007414121D86E048F090078FE02A
:104A40006006780479008004780079007414121DDF
:104A500086E048F0AC0AAD0BAA18AB19120993E92D
:104A60007418121D507F06021E7C74F7121DAAEAEC
:104A7000FEEBFF7508009007A2E060067801790060
:104A8000800478007900E8420890078FE06006789B
:104A9000047900800478007900E84208A908EEFA59
:104AA000EFFB120A4DE97F01021E7C74F2121DAA6F
:104AB00074E3121D3A8A0C8B0DE9FF8C0A8D097480
:104AC0002B121D86E0F50874086509700A75F0065A
:104AD000EFA42422FE800875F006EFA42421FE7CBA
:104AE0001B7D0079007402121D9812171F85188211
:104AF000851983EAF0A3EBF07402121DA07A1BEE75
:104B0000F9121851E97038741C121D86E0C394071D
:104B1000402D741C121D86E0C394115022E508F547
:104B20000B780B121FC17403121DA0E50AA2E0E46A
:104B300033F9AA0CAB0D1209A57401121D50E974CA
:104B40001D121D507F06021E7C74F7121DAA120C46
:104B50006FE97E00EEC3940A505C7C0679FFC9FDC4
:104B6000C9EEF87900E875F00EA4C8AAF075F00057
:104B7000A42AFA75F00EE9A42AF974AA28FA74078F
:104B800039FBCDF9CD12177FE97028EEF87900E8EE
:104B900075F00EA4C8AAF075F000A42AFA75F00EFC
:104BA000E9A42AF974AA28FA740739FB7900120CCF
:104BB00075E9F80E809E7F01021E7C74F6121DAA14
:104BC00074FD121D3AEAFEEBFF900844E0F8A3E002
:104BD000F9E84970397508467509087808121FBD4B
:104BE0007508027509007808121FBD75080475095B
:104BF000847808121FBD7CFF7DFF7A017B00120ABA
:104C0000BF7406121D50900844EAF0A3EBF0900820
:104C100044E0F8A3E0F9E8497003024CD8E4F50851
:104C2000F5097808121FBD7404121D9088088909BF
:104C30007808121FBD7404121D908808890978082D
:104C4000121FBD900846121FD47902900844E0FC60
:104C5000A3E0FDEEFAEFFB120BE57408121D50E91C
:104C6000704A851882851983E0FA7B007401121D51
:104C700086E0F87900E4C8F9EA28F508EB39F50987
:104C8000E508450960267808121FBD900844E0F841
:104C9000A3E0F5838882A3A3A3A3E0FCA3E0FDEE39
:104CA000FAEFFB1213B37402121D50E9E4F508F594
:104CB000097808121FBD900846121FD47CFF7DFFA3
:104CC000900844E0FAA3E0FB120ACB7404121D50D2
:104CD000900844EAF0A3EBF0900844E0F8A3E0F970
:104CE000E84970047901800279007403121D507F35
:104CF00002021E7CC082C083900842E0F8A3E0F963
:104D0000E8496017900842E0FAA3E0FB121731E986
:104D1000F89008427400F0A37400F0900D67740AD4
:104D2000F0D083D082020132C082C083E9900BEFC1
:104D3000F0024FB774F7121DAAE9900310F07C48F7
:104D40007D037AFF7BFF120BFD90031174FFF0A32C
:104D5000F0A3E4F0A3F07905120B85900310E0F9BD
:104D6000120AA77A1B7B0C120DC57F01021E7C74F0
:104D7000F4121DAA8A088B09EB548060309003104E
:104D8000E0F91217438A0A8B0BAE0AAF0BEE4F60A5
:104D9000138E828F83E064B07003120B9DEEFAEFE6
:104DA000FB121731AA08E5096480FB80047A007BB6
:104DB00000024F8674F2121DAA74FC121D3AEAFE1C
:104DC000EBFFEE4F60387402121D86EEF0A3EF1277
:104DD00051EBECF0A3ED1251EBAA82AB83120AA1C6
:104DE000E9F50870737412121D86125D9FE50A457D
:104DF0000B60658E828F83124E62EE4F70057508D0
:104E00000280557A067B001217CD8A0C8B0DA80CF8
:104E1000A90DE8497005750813803D88828983E4EF
:104E2000124E6CA3A3EEF0A3EF126238E50AF0A3D2
:104E3000E50BF0900316124EF49003166017E0FC99
:104E4000A3E08003EAFCEBFD8C828D83124EF470AC
:104E5000F38C828D83125CC4A9087404121D500265
:104E6000643AA3A3A3A3E0FEA3E0FF22F0A3F0888B
:104E70008289832274F2121DAA890AE975F017A4A7
:104E8000FEAFF0900315E4F0900313124EF4600AA5
:104E90001217D3900313E4F0A3F0EEFAEFFB12170E
:104EA000CD8A088B09EA4509602FEEFCEFFD7900F9
:104EB00012171F900313E508F0A3E509F07B0080AB
:104EC00008124EDEE4F0A3F00BEBC3950A40F2E5C6
:104ED0000A900315F079008002791302643AEB75A9
:104EE000F017A4F8A9F0900313E028FAA3E0398A98
:104EF00082F58322125A5AEA4B2274F4121DAA75C3
:104F00000800750900740C121D8612620CFEE9FF80
:104F1000800CE5082401F508E5093400F509C3E52E
:104F2000089CE5099D503285080A85090B740378B1
:104F30000A121D27EA250AF8EB350BF988828983C6
:104F4000A3A3A3A3A3A3125D9FEE650A7003EF655D
:104F50000B70BFE8FAE9FB80047A007B00802774BD
:104F6000F4121DAA7900EAA2E0501B7508F8750931
:104F7000827808121FBD7C047D007AF17B0B120B36
:104F80007F7402121D507F04021E7CC082C0839079
:104F90000316124FBE601C88828983A3A3E06A7047
:104FA00003A3E06B8882898370E8A3A3A3A3125AAA
:104FB0005680047A007B00D083D0820201321265D1
:104FC0000DE8492274EE121DAA74FC121D3AEAFE85
:104FD000EBFF851882851983E4F0A3F0EE2402121A
:104FE0005CA8EE24051251D9EE2404F50EEF1255FB
:104FF000BEE024FE603924FC604624FE605224FE9C
:10500000605E24FE70030250DE24FE7003025156DF
:1050100024FE700302516524FE700302517424FCC7
:10502000700302518324FE70030251920251CF900B
:10503000032F7417F0A3E41251F312081F0251CF8B
:10504000851882851983AC82AD83120BA302519F10
:10505000851882851983AC82AD83120BA902519FFA
:10506000850C08850D097402121D86AC82AD8385FE
:105070000882850983125A56120AC58A0C8B0DAC18
:105080000CAD0DEC4D6042E4F50CF50D780C121FE3
:10509000BD750C2F750D03780C121FBD750C307586
:1050A0000D03780C121FBD7408121D86121FD479CF
:1050B00016125A50120BE57408121D50E9F50C70C7
:1050C0000B125A4C120837800F750C018508828527
:1050D00009831251E1125CC4850C080251A27402CA
:1050E000121D86AC82AD83850C82850D83125A56C3
:1050F000120AC58A108B11AC10AD11EC4D604385BE
:105100000C82850D83A3A3121FD475102F75110374
:105110007810121FBD7510307511037810121FBD65
:105120007408121D86121FD47916125A50120BE5FC
:105130007408121D50E9F509700B125A4C12083D03
:10514000800F750901850C82850D831251E1125C77
:10515000C4850908804C851882851983AC82AD838B
:10516000120BAF803A851882851983AC82AD831209
:105170000BB5802B851882851983AC82AD83120B09
:10518000BB801C851882851983AC82AD83120BC14C
:10519000800D851882851983AC82AD83120BC7E917
:1051A000F508E50860298E828F83A3E06414601FF0
:1051B000850E82850F83E090032F1251EB12650953
:1051C000900330125CC4E508A31251F3120819EEE3
:1051D000FAEFFB120B43025BB0F50CEF3400F50D58
:1051E0002212650D85188285198322F08518828523
:1051F000198322F07C2F7D03850A82850B83125A46
:105200005A2274EE121DAA74FC121D3A8A0A8B0BE4
:105210008C0E8D0FEA2405F508EB3400F5097C159A
:105220007D0079007A2F7B0312171FE5082402F511
:105230000CE5091251DC8518828519838582108559
:1052400083117810121FBD850882850983A3A3A34B
:10525000A3125706121FBDE5082405F510E5093411
:1052600000F5117810121FBD850C82850D83125A2E
:1052700060120ABF7406121D508A108B11AE10AF57
:1052800011E50A2402F50AE50B125CABEE4F700340
:105290000253C880177402121D86125A56888289DA
:1052A00083EAF0A3EBF090032FE004F090032FE0EB
:1052B000C3940540030253C8E4F510F511781012A9
:1052C0001FBD7510187511037810121FBD751019C8
:1052D0007511037810121FBD7406121D86121FD49B
:1052E0007910EEFCEFFD125A50120BE57408121DF6
:1052F00050E9705E850882850983A3A3A3A3A3A3B5
:10530000A3E0F8900318E0687048125706121FBD1A
:105310007C197D03E5082408FAE5093400FB12171F
:10532000197402121D50E960298E828F83A3A3A3F2
:10533000A3125A5690032FE0F51074027810121D34
:105340002774302510F58274033511F583EAF0A334
:10535000EBF07402121D868582108583117810127D
:105360001FBD7402121D86121FD4850C82850D8309
:1053700012651E120ACB7404121D508A108B11AED6
:1053800010AF1190032FE0F5107511007402781022
:10539000121D27742F2510F874033511F98882899E
:1053A00083A3124EF4700302528CE82403F8E9340C
:1053B00000F9EE4F60030252958882898374FFF0F2
:1053C000A3F090032FE004F090032FE0600A125A3C
:1053D0004C12082B7900800B850882850983125CAA
:1053E000BB790A025BB074EA121DAA74FE121D3A60
:1053F0008C128D13EA2405F50CEB126688124E66AA
:10540000750800750900EA2402F510EB3400F51167
:1054100085188285198385820A85830B780A121F75
:10542000BD850C82850D83A3A3A3A31255C8121FAB
:10543000BDE50C2405F50AE50D125CAB780A121FD8
:10544000BD850C82850D8312651C120ABF7406127D
:105450001D508A0A8B0BEA450B7003025579EA242A
:1054600004F50EEB1255BE124E668A828B83A3A3FF
:10547000A3E0F9851082851183125A56120AADE90C
:10548000F5096003025579E4F514F5157814121F37
:10549000BD7514187515037814121FBD7514197590
:1054A00015037814121FBD7406121D86121FD479BD
:1054B00013AC0AAD0B851082851183125A56120B5C
:1054C000E57408121D50E9F509600302557990034F
:1054D00018E0F8E5087009E02402900330F0801726
:1054E000900330E0FCE82402FAE43400FBEA6C703C
:1054F00001EB600302557D850882AA821256FD9455
:10550000141256F55073850E82850F83E0C0E07447
:10551000312A1255B5D0E0F00508850E82850F833B
:10552000A3E0C0E085080A7431250A1255B5D0E021
:10553000F005089003181255C8121FBD7C197D0391
:1055400085080A7431250AFA74033400FB12170720
:105550007402121D50900318E02508F50874FF6EC0
:10556000700374FF6F6012EE24010EEF3400FFE54C
:1055700008C394145003025410E5086013125941F3
:10558000851082851183125A5612083179008014D1
:10559000E509700375090A851282851383EEF0A36D
:1055A000EFF0A9097402121D507F0E021E7C8508BF
:1055B0000C7431250CF58274033400F58322340019
:1055C000F50F850E82F5832212624B2274EE121DB6
:1055D000AA74FE121D3A8C0E8D0FEA2405F50CEB11
:1055E0001251DC750B0090032FE4F0F50AEA240257
:1055F000F508EB3400F509804990032FE0FA900399
:1056000018E0F81256FD94171256F5400D90032F2E
:10561000E0F87416C398900318F0125706121FBDD5
:105620007C197D0374302AFA74033400FB121707C7
:105630007402121D50900318E0F890032FE028F038
:10564000050AE50C2416F582E50D1255B9E0F8E5DA
:105650000AC39840030256DE90032FE0C39416500D
:105660007DE50AC333F8E433F9E50C28FEE50D398E
:10567000FF851882851983AC82AD838E828F831259
:105680005A56120AC58A108B11AC10AD11EC4D7030
:1056900005750B018043E4F510F5117810121FBD5C
:1056A0007510187511037810121FBD75101975113A
:1056B000037810121FBD7406121D86121FD47916AE
:1056C000850882850983125A56120BE57408121D4B
:1056D00050E9F50B70030255F9125CB780107C2F6E
:1056E0007D03850882850983125A56120843A90B47
:1056F0007402025BB2E99400C365D03322EA28F851
:10570000E43400F9E822E0F51075110078102274F5
:10571000EA121DAA74FC121D3A8A0C8B0D8C128D94
:1057200013EA2405F50AEB125CAB75080075090055
:10573000E50A2402F510E50B3400F5117402121D80
:105740008685820E85830F780E121FBD850A82859D
:105750000B83A3A3A3A31261F7121FBDE50A2405BF
:10576000F50EE50B3400F50F780E121FBD85108283
:10577000851183125CB1125A50120ABF7406121DB1
:10578000508A0E8B0FAE0EAF0FE50C2402F50EE51E
:105790000D3400F50F80408882898374FFF005087E
:1057A0001255AE74FFF00508900318E0F50C750D66
:1057B00000780C121FBD7C197D0385080C743125FF
:1057C0000CFA74033400FB1217077402121D509078
:1057D0000318E02508F508EE4F60718E828F83A3D1
:1057E000A3A3E0F9850E82850F83125A56120AADE3
:1057F000E9F509EE24041251D9E97044E4F514F5F1
:10580000157814121FBD7514187515037814121F1E
:10581000BD7514197515037814121FBD7408121D77
:1058200086121FD47911EEFCEFFD850E82850F8361
:10583000125A56120BE57408121D50E9F50960273B
:10584000850C82850D83125937125CC4E5087003FC
:1058500002591D125941850E82850F83125A561224
:1058600008497900025932850882AA82EA90031811
:105870007009E02404900330F08022E0F8900330B7
:10588000E0F514E82404FCE43400FDEC6514700138
:10589000ED70C01256FD94121256F550B6850C826A
:1058A000850D83E0C0E074312A1255B5D0E0F005D3
:1058B00008850C82850D83A3E0C0E01255AED0E0D0
:1058C00012595385820C85830D780C121FBD740408
:1058D000121D86121FD485108285118312651E1237
:1058E0000ACB7404121D508A0C8B0DAE0CAF0D85C3
:1058F000080C7431250CF874033400F9EE4F700372
:10590000025797851882851983E088828983125906
:1059100053A3E0C0E01255AED0E00257A5E50970F0
:105920000375090A850A82850B83125937125CC4F4
:10593000A90974040255A612650D85128285138388
:1059400022900330E0F5F0E5088490032FF07C2FDF
:105950007D0322F005088518828519832274EC12D4
:105960001DAA74FE121D3A8A088B098C0E8D0FEA4F
:105970002405FEEB3400FF851882851983AC82ADC7
:10598000838E828F83125A56120AC58A0A8B0BEEB7
:1059900024181251D9EA450B7003025A27125B9959
:1059A0005032851882851983125A56120BD98A10E3
:1059B0008B11EA4511606B7912AC0AAD0B85088238
:1059C000850983125A56851082851183121DA8E914
:1059D000F50A7058E4F50AF50B780A121FBD8E829D
:1059E0008F83A3A3E0F50A780A121FBDEE240312E9
:1059F0005CA8780A121FBD8E828F83125A60120B28
:105A0000EB7406121D50E9F50A7021850C82850D94
:105A100083E0701F850882850983125A5612084F49
:105A20008011750A0E8009750A018004E50A600379
:105A3000125CB7850C82850D83E0600479008002DA
:105A4000A90A7402121D507F0C021E7C7C2F7D035C
:105A5000850A82850B83125A5A22E0FAA3E0FB22C0
:105A6000E0FCA3E0FD850882850983125A5A22745E
:105A7000EE121DAA74FE121D3A8A088B098C0C8D39
:105A80000DEA2405FEEB3400FF750E0085188285B3
:105A90001983AC82AD838E828F83125A56120AC547
:105AA0008A0A8B0BEA450B7003025B85125B9950E7
:105AB00035851882851983125A56120BD98A0E8B96
:105AC0000FEA450F605E7912AC0AAD0B850882853E
:105AD0000983125A56850E82850F83121DA8E9F597
:105AE0000E6003025B88850882850983125D9FAA88
:105AF0000AFB120BCD8A108B11A810A911E849706E
:105B00001E7AFF7BFF120BCD8A108B11A810A911F2
:105B1000E849606C88828983E50AF0A3E50BF0759B
:105B20000A008007750E0E805F050A900315E0FAE3
