:020000040000FA
:0600000002011A0228AF04
:03002B0002305E42
:0300330002303662
:030053000229225D
:03006B00022FDD84
:03007B000230054B
:1000830002271BE5C754F84401F5C7790122000094
:100093000080FB120086B90003020104E479217891
:1000A30008B800028004F709D8FCE479297802B87B
:1000B30000028004F709D8FCE4900281788A790869
:1000C3008002F0A3D8FCD9FA781A90014A7A01BACF
:1000D30000028007E493A3F608DAF97A0A7B0A9010
:1000E300014B78B079078015E493A3AD82AE838A80
:1000F300828B83F0A3AA82AB838D828E83D8E9D9C6
:10010300E775827F7583FF740112012C75829175E7
:100113008300740012012C75D00075813F7518811E
:10012300751902759F00020096C09FF59FE473D076
:100133009F22D083D082C09FE493C0E0740193C018
:10014300E0740293F59F220112416363656C2E20D4
:1001530044617461000A416363656C2E20436F6ED2
:10016300662E000A0A416363656C2E20506572692E
:100173006F6400020784010000CC83020384010042
:10018300000A0A10A5810100008302020184030012
:100193000086020217840100000B0A020384010097
:1001A30000170A1025810300008C02021784010046
:1001B30000180A020384010000250A103581030098
:1001C30000260A021784010000270A124261726F97
:1001D3006D2E2044617461000A4261726F6D2E209E
:1001E300436F6E662E00024261726F6D2E20436173
:1001F3006C6962722E000A0A4261726F6D2E205082
:100203006572696F6400020784010000C9830203F9
:10021300840100008D0A10A5800100008F020201F5
:100223008403000093020217840100008E0A020374
:10023300840100009A0A10F5800300009902021756
:10024300840100009B0A020384010000B80A10D550
:1002530080030000B90A021784010000BA0A0203EE
:1002630084010000A80A10C5800100009A0202015F
:1002730084030000AA02021784010000A90A1101E5
:1002830099010F12640401020784010000C0830274
:100293000384010000450B020F84010000460B029A
:1002A3000184030000B90202F383010000470BFF3E
:1002B3000000B4000028002800283075A000A0002A
:1002C300A000A00000080008E001F00010001000EA
:1002D30010001000100010005000500050001000DB
:1002E3001000D0070000000000000F00010005000F
:1002F300307507001000010081FF00000000FF823D
:100303000AA00A880AFF02020208025000A00000A5
:1003130000E803020784010000CF83020384010085
:1003230000C80B02FF83010000F1020203840100F5
:1003330000C90B02FD8301000007030203840100CF
:1003430000CA0B02FB8301000009030203840100BE
:1003530000CB0B02F9830800000A030203840100A7
:1003630000CC0B02F783010000CD0BFF0100FF203F
:10037300020784010000D283020384010000310CD0
:1003830002F583000000000002018403000057030C
:100393006A106A106A106A106A106A106A106A108A
:1003A3006A106A106A106A106A10FE121613F812A5
:1003B30012436F6E6E2E20506172616D730008439D
:1003C3006F6E6E2E20506172616D732052657100E5
:1003D30008446973636F6E6E6563742052657100C0
:1003E300020784010000DB83020384010000720C16
:1003F3001055820100008007020184030000860774
:10040300021784010000730C020384010000800CB6
:100413001065820200008C07021784010000810C22
:10042300020384010000920C1075820200009407FD
:10043300021784010000930C02020202020202026C
:1004430002010D0000001001020784010000BA83BD
:10045300020384010000FA0C02E383010000950704
:10046300020384010000FB0C02E1830100004683C8
:10047300020384010000FC0C02E7830100005083A7
:10048300020384010000FE0C02E983010000818065
:10049300020384010000FF0C02EB8301000055837B
:1004A300020384010000FD0C02ED830100004B8375
:1004B300020384010000000D02EF8301000093801A
:1004C300020384010000010D021584010000D5829E
:1004D300020384010000020D02F183010000030DF9
:1004E30001E803053F100A124779726F20446174D3
:1004F30061000A4779726F20436F6E662E000A0A05
:100503004779726F20506572696F64000207840136
:100513000000D583020384010000A90D1045810169
:10052300000059080201840300005F0802178401D8
:100533000000AA0D020384010000B40D10658103BD
:1005430000006508021784010000B50D0203840151
:100553000000C00D109581030000C10D0217840136
:100563000000C20D03800000807000618012487596
:100573006D69642E2044617461000A48756D696475
:100583002E20436F6E662E000A0A48756D69642E2D
:1005930020506572696F6400020784010000D883EC
:1005A3000203840100002F0E10E581010000F10811
:1005B300020184030000F508021784010000300ED5
:1005C3000203840100003C0E101582030000FB08A7
:1005D3000217840100003D0E0203840100004A0E4D
:1005E3001085820300004B0E0217840100004C0E9D
:1005F3001254656D702E2044617461000A54656D58
:10060300702E20436F6E662E000A1E54656D702E89
:1006130020506572696F6400020784010000DE8365
:10062300020384010000B20E10C582010000FE081F
:100633000201840300000209021784010000B30EC3
:10064300020384010000BE0E10B5820300000809F6
:10065300021784010000BF0E020384010000CB0EC9
:1006630010A582030000CC0E021784010000CD0EFA
:10067300124D61676E2E2044617461000A4D6167FB
:100683006E2E20436F6E662E000A0A4D61676E2E32
:1006930020506572696F6400020784010000BD8306
:1006A300020384010000320F10B5810100000B0921
:1006B3000201840300001109021784010000330FB3
:1006C3000203840100003E0F108581030000170917
:1006D3000217840100003F0F0203840100004B0F47
:1006E3001075810300004C0F0217840100004D0FA9
:1006F300FFFFFF0001307503020106000000000048
:1007030000000000000000000000000000000000E6
:1007130000000000000000FFFF0600800CE8030A51
:100723000953656E736F725461670512500020039D
:10073300020A0402010603020F18544920424C45E1
:100743002053656E736F722054616700D007E8030E
:10075300E803E803E803E8039A190000CA19D0196B
:10076300D619E219DC19E819EE19F419FA19104B24
:100773006579205072657373205374617465000248
:100783000784010000C683020384010000301002C5
:100793000B84000000F809020184030000F9090238
:1007A300178401000031100254657374204461748E
:1007B30061000A5465737420436F6E6669670002B3
:1007C3000784010000C38302038401000069101041
:1007D300E580030000010A0217840100006A100289
:1007E3000384010000741010B580030000090A029D
:1007F30017840100007510120135C9C703120135B2
:1008030019C80312013542C803120135F4C8031293
:1008130001355DC90312013569CA0312013532CCB2
:1008230003120135D79B03120135279C03120135AF
:10083300509C031201356A9D03120135FD9D03127D
:100843000135469F0312013513A10312013560FBE5
:100853000212013596FB02120135A9FB0212013582
:1008630017FC021201353AFC0212013545FD021252
:10087300013548FE02120135CDFE02120135DAFFC1
:1008830002120135DD8104120135F48104120135B0
:100893002582041201356082041201358A82041212
:1008A3000135B48204120135CB8204120135E28290
:1008B30004120135F9820412013522830412013531
:1008C3003583041201354B83041201355E83041210
:1008D3000135858304120135BDE802120135C1E9F2
:1008E30002120135F9E9021201351CEA021201353F
:1008F30027EA021201354AEA0212013559EB0212C4
:1009030001352EEC02120135A9EC0212013531ED4D
:10091300021201356CED02120135A3ED021201350D
:1009230031EE021201350AEF021201356AEF0212AB
:10093300013575EF02120135F4EF02120135F7EFBD
:1009430002120135FAEF0212013589F00212013564
:100953008CF002120135BCF002120135E6F00212EE
:100963000135D4F10212013586F20212013574B059
:10097300031201359CB003120135CAB003120135CD
:1009830001B1031201355FB103120135AAB103129C
:100993000135F5B10312013535B2031201357BB2CE
:1009A30003120135A9B20312013566B303120135EF
:1009B30070B3031201357DB303120135B0B30312D3
:1009C30001357CB40312013588B403120135A0B498
:1009D30003120135AAB4031201354B9404120135F5
:1009E3005994041201357194041201358994041247
:1009F3000135008002120135AC80021201352781D6
:100A03000212013548820212013584820212013535
:100A13002D830212013514840212013578850212E6
:100A23000135CF8502120135508602120135408708
:100A3300021201358D870212013513880212013526
:100A4300458802120135598A021201359B8A021226
:100A53000135B98A021201353C8B02120135108C23
:100A630002120135D88C02120135008F03120135B1
:100A7300D38F031201357C9003120135CF900312FB
:100A830001357F91031201350B9203120135F79261
:100A930003120135269303120135399403120135EC
:100AA3008194031201355695031201359295031271
:100AB3000135AE95031201358498041201352CE1FA
:100AC3000312013542E10312013568E103120135D6
:100AD30084E2031201358EE203120135C3E30312EC
:100AE3000135BBE40312013550A10312013580A285
:100AF30003120135B3A203120135FDA2031201351E
:100B0300C4A403120135F9E60112013563E70112AA
:100B13000135C2E801120135D2E801120135FFE8BF
:100B23000112013556E901120135FFE901120135C0
:100B330006EB01120135D0EB0112013530ED011244
:100B4300013573ED0112013518EE0112013565EE21
:100B5300011201358BEE0112013599F001120135B5
:100B63009EF001120135A3F201120135F0F20112D8
:100B7300013563F30112013596F30112013538F49F
:100B830001120135E1F40112013519F501120135A4
:100B93001CF50112013564F501120135A4F50112AA
:100BA3000135FBF50112013532F4031201354AF424
:100BB3000312013592F403120135A8F4031201352F
:100BC300EFF40312013503F60312013590F6031215
:100BD3000135DBF603120135BC4D00120135C84D5A
:100BE30000120135034E00120135484E0012013543
:100BF300084F001201358E4F00120135F34F0012DA
:100C030001351F500012013558500012013596521C
:100C1300001201357A540012013560560012013575
:100C2300A35700120135F15900120135035B00127D
:100C330001354E5C001201355E5D001201357B5DAE
:100C430000120135B65D00120135D85D0012013581
:100C53003B5E00120135FC62001201359163001204
:100C63000135E263001201350964001201355B644A
:100C730000120135796400120135D3640012013585
:100C8300BC6500120135326700120135B6670012E8
:100C9300013577A60312013581A603120135C4A6D7
:100CA30003120135DFA6031201356FA703120135C5
:100CB30097A703120135D4A7031201350BA803121A
:100CC300013534A803120135A9A803120135BEA8C2
:100CD30003120135D3A80312013504A90312013508
:100CE30018A9031201353DA90312013577A903128F
:100CF3000135A3A903120135DBA9031201353AAA71
:100D030003120135B9AA0312013502AB03120135EF
:100D13002CAB0312013557AB031201354692041273
:100D2300013575C602120135A3C602120135F1C79A
:100D330002120135D1C802120135F0C80212013581
:100D43006DC902120135B0C90212013506CB021278
:100D53000135C7CB021201354ECE02120135EFCE5B
:100D630002120135E5CF02120135E2D0021201353C
:100D73003CD202120135C7D2021201353D8D041255
:100D83000135A68D04120135FA8D04120135218E29
:100D930004120135528E041201356FCC0312013552
:100DA300DCCC0312013523CD031201353BCE0312F4
:100DB300013537CF031201351AD003120135F7F28B
:100DC3000212013539F3021201350BF40212013517
:100DD300E4F402120135DEF502120135C0F6021207
:100DE300013529F702120135DFF70212013553F8F5
:100DF30002120135BFF802120135E8F8021201357B
:100E030062F902120135FBF90212013560FA02128E
:100E1300013575FA02120135BBFA02120135D4FA13
:100E23000212013539FB021201353CFB0212013576
:100E330052EE031201357AEE03120135B8EE0312B6
:100E4300013576EF03120135DDEF03120135F9EFBA
:100E53000312013521F00312013551F0031201355C
:100E630060F003120135DDF00312013503F10312C3
:100E73000135C1D6011201359FD801120135D1DAEE
:100E8300011201350DDB011201353ADB0112013587
:100E930024DC011201356FDC01120135BADC0112C9
:100EA3000135CCDC011201350CDD0112013541DDC8
:100EB300011201358FDD01120135BEDD011201354D
:100EC300E1DD011201352EDE01120135B3DE01121F
:100ED3000135CDE0011201350CE3011201354DE37B
:100EE30001120135EFE40112013530E5011201353C
:100EF300A3E501120135F4E501120135CFE6011234
:100F0300013560B9021201355EBA02120135F7C02C
:100F13000212013518C302120135E3C4021201356E
:100F23004BC602120135198401120135C88401121E
:100F33000135F584011201353B85011201357186B6
:100F4300011201359F8601120135358801120135E1
:100F5300AF8801120135CA88011201354589011292
:100F630001359F8A01120135FF8B01120135058D71
:100F730001120135668E011201357F8E0112013592
:100F8300DD8E01120135CB8F01120135FE8F011267
:100F930001356E9001120135E8900112013532914D
:100FA30001120135FC9101120135D1920112013573
:100FB300B093011201353B9401120135A99401123A
:100FC30001351D950112013548950112013507962A
:100FD300011201356C970112013589970112013510
:100FE300A89701120135999801120135BE98011293
:100FF3000135E89801120135639901120135BD9954
:1010030001120135269B01120135D49B01120135D2
:10101300159C011201358CAB02120135DAAB0212B9
:101023000135E6AB02120135C4AC02120135F5AC51
:101033000212013526AD02120135A6AD02120135A9
:10104300DEAD0212013530AE021201356DAE021271
:1010530001358AB002120135B0B2021201359BB4D8
:101063000212013585B602120135F07F00120135F7
:10107300459C01120135759C011201354EA30112E5
:101083000135D3A401120135D0AA01120135B8AB41
:1010930001120135F5AB0112013518AC011201350E
:1010A30049AC0112013552AC011201355CAC01129D
:1010B30001354AAD0112013540AE011201351D68FB
:1010C300001201351C6C00120135226C001201352F
:1010D3005D73001201357678001201355EDD03126F
:1010E3000135F4DD031201350ADE0312013580DE1A
:1010F30003120135F4DE0312013532DF0312013529
:10110300A6DF031201351FE00312013528E00312A5
:10111300013534E00312013549E00312013587E05C
:10112300031201359DE003120135FCE00312013582
:10113300DCD003120135E9D00312013503D10312C8
:10114300013542D10312013580D103120135E5D1B6
:1011530003120135FAD10312013505D20312013509
:1011630012D20312013529D20312013537D20312E9
:10117300013542D2031201354ED2031201355DD23D
:101183000312013568D2031201358BD203120135E4
:1011930032D30312013542D3031201355CD3031258
:1011A300013579D30312013595D303120135BAD32F
:1011B30003120135C5D303120135DAD30312013506
:1011C300EED3031201354FD40312013555D4031264
:1011D30001355BD40312013561D40312013579D48F
:1011E30003120135ACD403120135629D021201359D
:1011F300E69D02120135959E02120135F49F0212FB
:10120300013515A20212013501A30212013536A3DD
:101213000212013558A30212013507A40212013547
:10122300FFA50212013528A602120135BAA6021241
:101233000135ECA602120135F9A60212013550A7B9
:101243000212013576A702120135E3A90212013514
:10125300E6AA021201353EAB02120135F18E0212EB
:101263000135FB8F02120135E29002120135EC9039
:10127300021201350E91021201351A910212013543
:10128300B39202120135E29202120135FE93021269
:101293000135579402120135BD95021201359C9612
:1012A30002120135F89602120135659702120135D3
:1012B300A09702120135DF9702120135989A0212A4
:1012C3000135B29A021201353E9B021201354C9B45
:1012D30002120135A59B02120135B39B021201359F
:1012E300269C021201358A9C02120135D49C0212FB
:1012F300013548D3021201356AD30212013590D564
:1013030002120135A5D802120135BDD902120135E9
:1013130070DA0212013552DB021201353E850412E6
:101323000135638504120135D5850412013586879D
:10133300031201358F870312013598870312013594
:101343006F8803120135208A03120135568A03126E
:101353000135908A03120135C68A03120135008BC9
:1013630003120135348B03120135608B03120135EF
:10137300A98B03120135E38B031201352C8C031265
:101383000135848C03120135B98C03120135148D98
:10139300031201354E8D031201359F8D0312013562
:1013A300D58D031201350F8E031201353D8E0312C5
:1013B3000135608E031201359C9604120135C896DF
:1013C300041201352397041201352D9704120135B8
:1013D3003D970412013529D50312013579D503123E
:1013E300013596D50312013565D603120135E6D6CC
:1013F30003120135B9D70312013537D90312013569
:101403002396031201354896031201358096031281
:101413000135EA9704120135943000120135A633E1
:10142300001201355A3500120135FF35001201351E
:10143300A2360012013559370012013588370012E0
:101443000135443C00120135D63C00120135123EF1
:10145300001201357A3E001201352E3F001201358C
:10146300E441001201351E42001201358842001288
:101473000135E542001201354243001201359F4315
:10148300001201358A4400120135D044001201359F
:101493001B45001201353E450012013581460012FD
:1014A30001359546001201359E4700120135DD478F
:1014B3000012013509480012013558480012013560
:1014C300794800120135B74800120135FE4A00126F
:1014D30001353F4B00120135DD4B001201354F4CF6
:1014E30000120135884D001201357DBE031201350E
:1014F300CDBE03120135F6BE03120135A8BF031298
:10150300013511C0031201351DC103120135E6C2B5
:1015130003120135008004120135108004120135D5
:10152300558004120135338104120135CB81041235
:1015330001355F93041201353B94041201359783FF
:1015430004120135CA8304120135E88304120135FC
:101553007D84041201359A84041201352C8504120A
:1015630001350899041201351491041201352491AF
:1015730004120135389104120135409204120135E9
:1015830051EB03120135F5EB0312013537EE03126C
:10159300013573F9031201358DF903120135F0F9A1
:1015A300031201355EFA0312013514FB03120135F0
:1015B30033FB0312013543FB0312013582FB031294
:1015C3000135BFFB03120135848804120135BE883F
:1015D300041201353189041201357B890412013566
:1015E300BA8904120135CC8904120135018A041227
:1015F3000135E3860412013532870412013564870D
:1016030004120135F687041201357288041201357C
:101613000FE80312013523E8031201354CE80312E6
:10162300013575E8031201353DE90312013588E9F7
:10163300031201353FEB03120135258A04120135EC
:10164300588A04120135D48A04120135F48A04122B
:101653000135598B04120135A18B04120135A48B7A
:10166300041201357FAB0312013598AB0312013528
:101673002DAC031201351EAD03120135D4AF031295
:10168300013514B00312013556B003120135D1FBF5
:1016930003120135E2FB031201352BFC0312013562
:1016A30057FC0312013577FC0312013516FD0312B3
:1016B3000135E9FD03120135B28B04120135018CAA
:1016C30004120135898C04120135108D0412013581
:1016D300F87F001201354BF10312013578F3031241
:1016E3000135E4F3031201352FF403120135D7B9A1
:1016F3000312013527BA0312013550BA031201351B
:1017030002BB031201356BBB0312013577BC031215
:10171300013540BE0312013531B50312013581B5E0
:1017230003120135AAB5031201355CB60312013564
:10173300C5B603120135D1B7031201359AB90312A5
:10174300013523C30312013573C3031201359CC34F
:10175300031201354EC403120135B7C40312013518
:10176300C3C5031201358CC703120135988E0412C9
:101773000135C98E04120135F38E04120135138F1E
:1017830004120135718F04120135008003120135F3
:10179300158003120135718003120135DC800312B9
:1017A30001352481031201358E8103120135B7817E
:1017B30003120135C5810312013527820312013556
:1017C3006582031201358082031201351B830312E4
:1017D3000135C083031201354384031201357C8430
:1017E300031201350785031201355E8503120135A6
:1017F300BC8503120135CE8503120135F48503122E
:101803000135FD8503120135528703120135FBFDB6
:101813000312013562FE031201350DFF0312013578
:1018230083FF03120135C5E403120135F8E4031203
:101833000135F6E50312013548E703120135DA8F66
:1018430004120135B890041201352C7D00120135C4
:10185300717D00120135B77D00120135807F0012C2
:1018630001352295041201353D95041201354D953C
:1018730004120135A495041201354797041201356A
:1018830076DE0212013552DF0212013599DF0212B0
:101893000135D6DF0212013544E0021201359EE024
:1018A300021201350EE102120135DEE102120135A9
:1018B300CDE20212013551E302120135EDE40212C9
:1018C300013578E50212013508E602120135A1E679
:1018D30002120135B8E602120135EBE702120135B7
:1018E30041E802120135E8F60112013508F7011249
:1018F30001357EF801120135CCF801120135ECF8FF
:101903000112013554F901120135D6F901120135DD
:101913001CFA01120135A8FA01120135F1FE011278
:1019230001356EFF0112013558B001120135FFB4C4
:1019330001120135F0B70112013519B80112013551
:1019430030B80112013559B8011201350BB9011232
:101953000135EABA011201353CBC0112013588C1D7
:1019630001120135C1C10112013505C20112013550
:1019730011C301120135CFC301120135CAC60112C9
:101983000135D1CA0112013503CB011201352ECB2A
:101993000112013522CC01120135A5CC011201350A
:1019A3007DCD01120135A8CD01120135D3CD011230
:1019B3000135FECD0112013529CE0112013560CE6C
:1019C300011201358BCE01120135B6CE011201355C
:1019D3005DCF0112013502D001120135A9D00112E8
:1019E30001354ED101120135F7D1011201359ED2D5
:1019F3000112013546D30112013513D40112013509
:101A03009FD401120135E4D40112013513D501121B
:101A13000135CCD50112013505F70312013555F710
:101A230003120135B8F7031201357EF803120135AD
:101A330036F903120135F0950412013567D9031203
:101A43000135B7D903120135E0D90312013578DA2C
:101A530003120135CFDA03120135D4DB031201354A
:101A630021DD03120135C47F00120135DBFF03E0E2
:101A730066701008A3E066700A08A3E066700408A5
:101A8300A3E06622C3E7960809E7960809E79608E4
:101A930009E79622C3E09608A3E09608A3E0960818
:101AA300A3E09622C008C3E096F50808A3E0964297
:101AB3000808A3E096420808A3E09645087001D3FE
:101AC300D00822080808EAC0E0EBC0E086F0E7A4EB
:101AD300FA180986F0E7A42AFA180986F0E7A42A77
:101AE300FA180986F0E7A42AFA1986F0E7A4FBE5B9
:101AF300F02AFA190886F0E7A42BFBE5F03AFA1965
:101B03000886F0E7A42BFBE5F03AFA18180986F0EB
:101B1300E7A4C5F02BFBE43AFA1908E7C5F0C6A41D
:101B230026F6E5F03BFBE43AFA1886F0E7A4F6E57F
:101B3300F00826F6E43B08F6E43A08F6D0E0FBD0DA
:101B4300E0FA22E4CFC0E0E4CEC0E0E4CDC0E0E4BC
:101B5300CCC0E075F020E626F608E633F608E63357
:101B6300F608E633F6181818EC33FCED33FDEE33C4
:101B7300FEEF33FFC3EC9709ED9709EE9709EF9753
:101B8300191919400FFFEC97FC09ED97FD09EE9722
:101B9300FE191906D5F0BFECF709EDF709EEF709C1
:101BA300EFF7191919D0E0FCD0E0FDD0E0FED0E04A
:101BB300FF226016080808C6C313C618C613C61842
:101BC300C613C618C613C6D5E0EA2270090808086A
:101BD300226016181818C6C333C608C633C608C60B
:101BE30033C608C633C6D5E0EA22E627F60809E677
:101BF30037F60809E637F60809E637F622E026F64F
:101C030008A3E036F608A3E036F608A3E036F6228A
:101C1300E026F008A3E036F008A3E036F008A3E0DE
:101C230036F022C3E697F60809E697F60809E69721
:101C3300F60809E697F622C3E096F008A3E096F0CB
:101C430008A3E096F008A3E096F022E657F6080909
:101C5300E657F60809E657F60809E657F622E0566E
:101C6300F608A3E056F608A3E056F608A3E056F6F6
:101C730022E056F008A3E056F008A3E056F008A3CC
:101C8300E056F022E0F608A3E0F608A3E0F608A386
:101C9300E0F622E6F008A3E6F008A3E6F008A3E6E0
:101CA300F022E0FAA3E0FBA3E0FCA3E0FD22EAF0CC
:101CB300A3EBF0A3ECF0A3EDF022E0F8A3E0F9A38B
:101CC300E0FAA3E0FB22E8F0A3E9F0A3EAF0A3EB38
:101CD300F022CAC0E0E6F0A308DAFAD0E0FA22CA9A
:101CE300C0E0E0A3C582CCC582C583CDC583F0A384
:101CF300C582CCC582C583CDC583DAE6D0E0CA22CE
:101D0300C3E498F8E499F9121D448026C3E49AFACF
:101D1300E49BFBE920E7E9121D44E498F8E499F910
:101D230022C3E498F8E499F9121D44E498F8E4997D
:101D3300F9C3E49AFAE49BFB22EB20E7CFE920E71F
:101D4300E0B90010BB0008E88AF084F8AAF022E4A6
:101D5300FBC8FA22EB70227B10C833C8C933C933DE
:101D63005007C39AC3DBF280069A50012ADBEAC804
:101D730033F4C8C933F4C9FA2275F008E4C833C888
:101D8300C933C933C99AC99B5004C92AC93BD5F081
:101D9300ECFBC833F4C8E4C9FA22600D08C6A2E715
:101DA30013C618C613C6D5E0F322600C08C6C313C6
:101DB300C618C613C6D5E0F422700422600D18C6F7
:101DC300C333C608C633C6D5E0F41822251810AFAE
:101DD30008F518400C15198008F51840021519D29A
:101DE300AF2200C0D0251810AF08F518500C051904
:101DF3008008F51850020519D2AFD0D0222518F566
:101E03008210AF08F518400C15198008F518400228
:101E13001519D2AF851983222518F582E43519F5F2
:101E230083222518F8E43519F9222518FAE435191F
:101E3300FB222518FCE43519FD22E4732518C5821D
:101E4300C0E0E51934FFC583C0E0E518C3958224DB
:101E5300F810AF0885831985821880088583198552
:101E63008218D2AFCEF0A3E520F0A37808E608F0FD
:101E7300A3DEFAEFF0A3E58124FAF8E608F0A3E67F
:101E830008F0A3E608F0A30808E608F0A3E608F0C4
:101E9300A315811581D0E0FED0E0F81581158115D9
:101EA30081E8C0E0EEC0E0222518C582C0E0E51954
:101EB30034FFC583C0E0E518C3958224F910AF0849
:101EC3008583198582188008858319858218D2AF86
:101ED300CEF0A3E520F0A37808E608F0A3DEFAEF3E
:101EE300F0A3E58124FBF8E608F0A3E608F0A308D5
:101EF30008E608F0A3E608F0A315811581D0E0FEFB
:101F0300D0E0F815811581E8C0E0EEC0E022851924
:101F130083851882E0A3FEE0A3F5207808E0A3F60A
:101F230008DFFAE0A3FFE0A3C0E0E0A3C0E0E0A382
:101F3300C0E0E0A3C0E0E0A3C0E010AF08858218D2
:101F43008583198008858218858319D2AFD083D001
:101F530082020132851983851882E0A3FEE0A3F58E
:101F6300207808E0A3F608DFFAE0A3FFE0A3C0E0CF
:101F7300E0A3C0E0E0A3C0E0E0A3C0E010AF0885A9
:101F830082188583198008858218858319D2AFD07A
:101F930083D08222C0D02518C582C0E0E51934FF62
:101FA300C583C0E0E518C3958224F310AF08858389
:101FB300198582188008858319858218D2AFC8F0E5
:101FC300A3E9F0A3EAF0A3EBF0A37908E709F0A3F0
:101FD300D8FAECF0A3EDF0A3EEF0A3EFF0A3D0E07A
:101FE300F0A3D0E0F0A3D0E0F0A3E520F0A3E5F068
:101FF300F0A322851983851882E0C0E0A3E0F9A34A
:10200300E0FAA3E0FBA37808E0F608A3DFFAE0FC1C
:10201300A3E0FDA3E0FEA3E0FFA3E0C0E0A3E0C0D4
:10202300E0A3E0F5D0A3E0F520A3E0A3F5F010AF23
:10203300088583198582188008858319858218D2BB
:10204300AFD082D083D0E0F8D0E03274048006743D
:102053000280027401C0E0F404121E00D0E0121CDE
:10206300D5227404800474028000CCC0E0EDC0E08B
:10207300E518C39CCCAD1950011D10AF068C188D0B
:102083001980068C188D19D2AF121CE2D0E0FDD056
:10209300E0FC22D083D082E9C0E0E493A3C386F0BE
:1020A300C5F095F0F908E493A386F0C5F095F070B8
:1020B3000BE493A3C3994005E9048002A3E475F0FC
:1020C30002A42582F582E5F03583F583D0E0F9E4B7
:1020D30093A3C0E0E493C0E022D083D082ECC0E0BD
:1020E300EDC0E0E493A3FCE493A3FDED4C600D127B
:1020F3002128EC24FFFCED34FFFD80EFE493A3FCE7
:10210300E493A3FDED4C600D122167EC24FFFCED7D
:1021130034FFFD80EFD0E0FDD0E0FCE493A3C0E00A
:10212300E493C0E022C0E0C3E4939608740193965D
:1021330018400FE4936670080874019366187000E2
:102143007019A3A3C3E49396087401939618A3A3E9
:10215300400DD0E0D0E0D0E0022118A3A3A3A3A3B5
:10216300A3D0E022C0E0C0F088F0E49366700808D2
:1021730074019366187000A8F0A3A3700BD0F0D07D
:0F218300E0D0E0D0E0022118A3A3D0F0D0E022FA
:1021940074F5121EABEAFEEBFFEE2434F8EF3400C4
:1021A400F988088909EE2435F582EF3400F583E0D7
:1021B400F8EE2437F582EF3400F583E0F50AEC8578
:1021C4000AF0A4FCAAF0850AF0EDA42AFDE82CF894
:1021D400E43DF97A257B00121D44EA8508828509CD
:1021E40083F0F8740758F97401B900028004C3330A
:1021F400D9FCFAE8131313541FF8EE28F8EF34004F
:10220400F9E8245DF582E93400F583E05A6008EECC
:102214002434F582EF802CEE2434F582EF3400F57B
:1022240083E0C0E0EE2436F582EF3400F583E0F578
:10223400F0D0E084A8F0EE28F8EF3400F9E8243870
:10224400F582E93400F583E0F97F04021F5774F541
:10225400121EABEAFEEBFFEE2434F582EF3400F5F8
:1022640083E0C0E0EE2435F582EF3400F583D0E05E
:10227400F08E828F83A3A3A3A3A3A3A3C082C0834E
:102284008E828F83A3A3A3A3A3E0F8A3E0F9D08352
:10229400D082E0C398F508A3E099F509EE247FF510
:1022A40082EF3400F583E064017069EE2480F582E6
:1022B400EF3400F583E0F8A3E0F98E828F83A3A3C3
:1022C400A3A3A3A3A3E0FCA3E0FD8E828F83A3A317
:1022D400A3A3A3E0FAA3E0FBC3EA9CEB9D5010C3C5
:1022E400EC98ED99402EC3EA98EB995027800EC3E1
:1022F400EA98EB994007C3EC98ED9940177C1A7D56
:1023040005EEFAEFFB120FC8EE247FF582EF3400DE
:10231400F583E4F0EE2434F8EF3400F9E8FCE9FD49
:10232400EE2435F582EF3400F583E0F8EE2437F53A
:1023340082EF3400F583E0F50AE508850AF0A4F598
:1023440008AAF0850AF0E509A42AF509E82508F8A1
:10235400E43509F97A257B00121D44EA8C828D83C9
:10236400F0F8740758F97401B900028004C333D932
:10237400FCFAE8131313541FF8EE28F8EF3400F9AD
:10238400E8245DF582E93400F583E05A6008EE2420
:1023940034F582EF802CEE2434F582EF3400F5839B
:1023A400E0C0E0EE2436F582EF3400F583E0F5F08A
:1023B400D0E084A8F0EE28F8EF3400F9E82438F5EA
:1023C40082E93400F583E0F9122FCF02224DC08256
:1023D400C083851882851983E0F8A3E0F9C3EA9CD9
:1023E400EB9D5010C3EC98ED99401BC3EA98EB9910
:1023F4005014800EC3EA98EB994007C3EC98ED990A
:102404004004790180027900D083D08222EAC39CFF
:10241400FAEB9DFB2274EF121EAB9003E0E064081C
:102424006005E06407702A9061C8E0602490040E9F
:10243400E0F4601DE0F875F003A4C8AAF02AF9746A
:102444001028FE740439FF8E828F83A3A3A3E07047
:1024540003022549906060E0C0E0EE2468F582EF55
:102464003400F583D0E0F0750C83750D0575080014
:10247400750900E5D914F50AE5D95403F50E60177A
:102484007403650E605CE50A6010EE2467F582EF64
:102494003400F583E0700302252E90057EE064018C
:1024A400602AEE2482F582EF3400F583E06004783C
:1024B4000480027800850A08E508C398FA95E0FBD1
:1024C400120E848A088B09EA450970051211CC8022
:1024D40074EE2482F582EF3400F583E070048A0CF4
:1024E4008B0DE50A6012850C82850D83F50BE5D909
:1024F400F0A3150BE50B70F6EE2482F582EF3400A1
:10250400F583E0604474FC250AF50A780C12205225
:10251400AC0AA90EEEFAEFFB1210647402121DE568
:10252400E97026AA08AB09121814793D8E828F83AC
:10253400A3A3A3A3E0FA7B00120D58EEFAEFFB125B
:102544000FE0121076790080747403650E6056856E
:102554000A107511007810122052AC0CAD0DAA08A7
:10256400AB091210407402121DE5EE2468F582EFE7
:102574003400F583E064807004747F8001E0F50C1E
:10258400780C122056E50EF50C780C122056A90A88
:10259400AC08AD0990040EE0FA7B00120D1C740225
:1025A400121DE580139003E0E06408600BAC0CADF1
:1025B4000DEEFAEFFB1210D01211D879017F0A0246
:1025C4001F5774F5121EAB74FC121DCFEAFEEBFF0D
:1025D4008908A2AFE433F509C2AF806AEE2463F838
:1025E400EF3400F97A007B00A2AFE433F50AC2AFFE
:1025F40088828983E0FCA3E0FDEC4D603A888289FF
:1026040083E0FAA3E0FB8A828B83E0FCA3E0FD88ED
:10261400828983ECF0A3EDF08A828B83E4F0A3F04B
:1026240088828983E0FCA3E0FDEC4D700A888289EE
:1026340083A3A3E4F0A3F0E50AA2E092AF12181476
:10264400900521E004F0EE2463F582EF3400F58375
:10265400E0F8A3E0F9E849603DEE2463F582EF3445
:1026640000F583E02402FAA3E03400FBEA2402F537
:102674000AEB3400F50B780A1220528A828B83E02D
:10268400FCA3E0F9EEFAEFFB1210047402121DE54C
:10269400E970030225E0900521E06063900522E0E3
:1026A400F8900521E0C398500C74026508705090AE
:1026B4000523E0604A8E828F83A3A3A3A3E0851839
:1026C40082851983F0A3E4F0900521E0F8740212E6
:1026D4001E1BE8F0A3E4F0900521E0F8900520E04B
:1026E40028F07402121E1BAC82AD838518828519F2
:1026F40083AA82AB837901120D28900521E4F0E5C9
:1027040009A2E092AF7404121DE502224D000000FC
:102714008521878522C622C0E0C0D0E8C0E0E9C098
:10272400E0EAC0E0EBC0E0ECC0E0EDC0E0EEC0E009
:10273400C008C009C00AC00BC082C083C0F0A2AFE9
:10274400E433FEC2AF759B00906182E0A2E05012B8
:10275400E591A2E0500C7591FE740165217003129D
:102764002419E0A2E55051E591A2E5504B7591DFA3
:102774009003E0E064076005E06408702374016579
:10278400217035790190040EE0FA75F003A4CAA80B
:10279400F028FB74102AFA74043BFB1225C6801837
:1027A400E0640D7013900402E004F064287002E405
:1027B400F07A00E0F91211DE906182E0A2E64003B3
:1027C400022862E591A2E640030228627591BF9057
:1027D40003E0E0640570081211061211128003125E
:1027E400110C75210012116CE99003E1F0790012CB
:1027F4001160120F387A017B009003DFE0F91217A1
:10280400E4907803E064427055900582E014F0701F
:102814004DC2AF12281A00782AD0E0F618D0E0F69C
:10282400E59F540770057509FF800375097FC4C0CF
:10283400E07829E6F50808E65509F509740B7808E7
:10284400121DADD0E02508F8906270E0A2E740F8D0
:10285400E8C333906272F0906270E0D2E0F090616D
:1028640081E0A2E35009E5E9A2E3500375E9F7A387
:10287400E0A2E75009E591A2E7500375917FEEA22B
:10288400E092AFD0F0D083D082D00BD00AD009D060
:1028940008D0E0FED0E0FDD0E0FCD0E0FBD0E0FAD0
:1028A400D0E0F9D0E0F8D0D0D0E032C0E0C0D0C061
:1028B40082C083906183E0A2E05009E5BFA2E050AA
:1028C4000375BFFEE0A2E15009E5BFA2E150037524
:1028D400BFFDE0A2E25009E5BFA2E2500375BFFBD1
:1028E400E0A2E35009E5BFA2E3500375BFF7E0A2FD
:1028F400E45009E5BFA2E4500375BFEFE0A2E55040
:1029040009E5BFA2E5500375BFDFE0A2E65009E583
:10291400BFA2E6500375BFBFD083D0828088C0E0D9
:10292400C0D0E8C0E0E9C0E0EAC0E0EBC0E0ECC041
:10293400E0EDC0E0C0F0E5A7A2E6500FE5A1A2E6F5
:10294400500953A7BF75A1BF122987E5A7A2E55077
:102954000CE5A1A2E5500653A7DF75A1DFE5A7A208
:10296400E15009E5A1A2E1500375A1FDE5A7A2E2AA
:10297400500CE5A1A2E2500653A7FB75A1FBD0F0D1
:1029840002289874F8121EAB7521019003E0E064EC
:102994000670151210948A828B83A3A3A3A3A3A306
:1029A400E0FAA3E0FB1210F4A2AFE433FED2AF903E
:1029B40003E6E0640170187A207B009003DFE0F9FD
:1029C40012190A7A207B009003DFE0F91217EA90CB
:1029D4006182E0D2E6F090057FE0602185C6228026
:1029E400169003E5E064017008E5C654F84405F563
:1029F400C653BEFC1227147401652160E4EEA2E004
:102A040092AF7F01021F57008E238F248582288571
:102A14008327851882851983E0CEA3E0CF85288299
:102A2400852783EBC9EAC8EDCBECCA75F010C3E87F
:102A340033C8E933C9EA33CAEB33CBC3EA9EF5267C
:102A4400EB9FF525B35004AB25AA26EC33CCED332C
:102A5400CDD5F0DAAE23AF242274E9121EAB74F89C
:102A6400121DCF851882851983ECF0A3EDF08A0836
:102A74008B099003E0E024F7C39405500675080120
:102A8400022BF41210948A0A8B0BAE0AAF0BEE4F92
:102A94007003022BF1AC08AD097402121E1BAA824A
:102AA400AB831211248E828F83A3A3750CFF750D43
:102AB400FF750EFF750F00780C121C617402121E54
:102AC4001B7510FF7511FF7512FF75130078101236
:102AD4001C61780C7910121A87502A780C7910121C
:102AE4001C267508017509C8750A00750B0078085D
:102AF400790C121A875052850C08850D09850E0A27
:102B0400850F0B80507514017515C875160075175F
:102B14000085100885110985120A85130B78087938
:102B24000C121C2678147908121A87401C750800A8
:102B3400750900750A00750B0178087910121C26B6
:102B44007808790C121BED800C7508017509007565
:102B54000A00750B0074097808121BCE750C19F560
:102B64000DF50EF50F7808790C121B468E828F83B3
:102B7400A3A3A3A3A3A3E0F8A3E0F97AD07B031251
:102B84001D44880C890DE4F50EF50F7808790C12B4
:102B94001BED7406121E1BE0F8A3E0F97AD07B0348
:102BA400121D44E8FA8A0CE4F50D7808790C121A1F
:102BB4008750077808790C121C269003E0E064081B
:102BC400600AE064066005E06405702D750C0D78FC
:102BD4000C7908121A874021750CF4750DFF750ED7
:102BE400FF750FFF7808790C121BED800C75080037
:102BF400750900750A00750B00851882851983E034
:102C0400F8A3E0F58388827808121C967408121DD4
:102C1400E57F10021F5774F7121EAB121136900590
:102C24007DE064017010906245E4F0A3F053F4F386
:102C340043FE0C5390F31210E2E5C654804449F568
:102C4400C6E59E547F644970F8906185740FF090D6
:102C5400057BE0F47002A3E0604E90057CE0600820
:102C640014601B14602E80407508017509009005DE
:102C74007BE07808121DBCE508F45280802A7508B0
:102C84000175090090057BE07808121DBCE508F485
:102C94005290801475080175090090057BE078084E
:102CA400121DBCE508F452A079007F02021F57747C
:102CB400F7121EABE9FEEAFF74016E700C7A807B9A
:102CC400009003DFE0F91217E490308CE493F46091
:102CD40008E493F9120F2C800953C680E59E547FB3
:102CE40070FA1210E890057DE064017003120F4A37
:102CF40090057BE0F47002A3E0604B90057CE060FB
:102D04000814601A14602C803D7508017509009040
:102D1400057BE07808121DBCE50842808028750810
:102D24000175090090057BE07808121DBCE5084296
:102D340090801375080175090090057BE0780812EE
:102D44001DBCE50842A01211361210948A088B09A2
:102D5400A808A909E8496015E5E170FCE82414F520
:102D640082E93400F583E0F46003E0F5E174016F77
:102D7400700A7A019003DFE0F912186E022CAE7427
:102D8400ED121EAB8A088B098C0A8D0B7413121E6C
:102D94001B780C121C877808790C121A877510019D
:102DA4007511C875120075130050127808790C1249
:102DB4001C2678107908121A8750168010780C791E
:102DC40008121C267810790C121A874004790180A5
:102DD4000279007F0C021F5774ED121EAB8A088B18
:102DE400098C0A8D0B7413121E1B780C121C877825
:102DF4000C7908121A8740117808790C121C26AA3B
:102E040008AB09AC0AAD0B80227510007511007572
:102E140012007513017810790C121C2678107908A9
:102E2400121BEDAA10AB11AC12AD1380A68A828BD3
:102E3400837508FF7509FF750AFF750B0078081282
:102E44001C747F04021F5774F5121EAB8C828D8391
:102E54007808121C878A828B837808121C3AEA2429
:102E640004F8EB3400F98C828D83A3A3A3A3E0FCC4
:102E7400A3E0FD88828983C3E09CF0A3E09DF088F1
:102E8400828983C3E09420A3E0944E40268A828BF7
:102E9400837508FF7509FF750AFF750BFF78081223
:102EA4001C138A828B83A3A3A3A3E02420F0A3E0B2
:102EB400344EF0022E3174F5121EABE9FE90053546
:102EC400E0FAA3E0FBEEC333F8E433F9740528F524
:102ED40082748239F583E02AF508A3E03BF509788A
:102EE400081220527A407B427C0F7D00122A0C7417
:102EF40002121DE58A088B098C0A8D0B7410780860
:102F0400121BB5AA08AB097F04021F5774F1121EE5
:102F1400AB8A0C8B0D8C0E8D0F740F121E1BE0FAF6
:102F2400A3E0FB7411121E1BE0F508A3E0F5097879
:102F340008122052EA2401F508EB3400F509E4F5FF
:102F44000AF50B780C7908121AC67508717509020E
:102F5400780C7908121AC6AA0CAB0DAC0EAD0F1280
:102F64002A0C7402121DE58B09EA450960047A01F2
:102F740080027A00EC2AFCED3400FD7413121E1B4F
:102F8400E0F8A3E0F9E8FEE9FFECF8EDF97A717BEB
:102F940002121D44880889098E828F837808121CC6
:102FA40096ECF8EDF97A717B02121D448A088B09BC
:102FB40074057808121DBC8E828F83A3A3A3A3E596
:102FC40008F0A3E509F07F08021F57C082C083E917
:102FD400906000F0D083D08222C0E074F2121F9778
:102FE400A2AFE433FED2AFE589A2E0500312165239
:102FF400758900C2C5EEF8EEA2E092AF7F01021F10
:10300400F6C0E074F2121F97A2AFE433FED2AFE52C
:103014008AA2E64006E58AA2E75003121652758A90
:1030240000758A00C2EBEEF8EEA2E092AF7F0102D7
:103034001FF6C0E0C0D0E8C0E0E9C0E0A2AFE433CE
:10304400F8D2AF758B00C2E8E8F9E8A2E092AFD0FD
:10305400E0F9D0E0F8D0D0D0E032C0E0C0D0E8C091
:10306400E0E9C0E0A2AFE433F8D2AFC2C7751A00FA
:10307400E8F9E8A2E092AFD0E0F9D0E0F8D0D0D0FF
:10308400E032C2AF02000022FFFFFFFFFFFFFFFF9D
:1030940074F0121E3F74F8121DCF8A0E8B0FE9FFD5
:1030A4008C0C8D0D7E00850E08850F097808122082
:1030B400960004107233DC30FF301E31413164312C
:1030C4008731B831DB31F2312232D332F63219335F
:1030D4004733723372334B3274016F7019850C822B
:1030E400850D83E0C39403500D850C82850D83E028
:1030F400900DA2F080027E1802339A74026F70154C
:10310400850C82850D83E0F8A3E0F9900DA3E8F027
:10311400A3E9F080027E1802339A74016F70198556
:103124000C82850D83E0C39402500D850C82850DBD
:1031340083E090079EF080027E1802339A74016F38
:103144007019850C82850D83E0C39405500D850CA0
:1031540082850D83E090079FF080027E1802339AE7
:1031640074016F7019850C82850D83E0C39402503D
:103174000D850C82850D83E09007A0F080027E18F7
:1031840002339A74106F7027750810750900780857
:10319400122052AC0CAD0D7AA17B07121790740269
:1031A400121DE58A088B0985088285098380027EC1
:1031B4001802339A74016F7019850C82850D83E0AF
:1031C400C39402500D850C82850D83E09007B1F005
:1031D40080027E1802339A74016F700D850C82850B
:1031E4000D83E0900DA6F080027E1802339A7404D9
:1031F4006F702690838E7808121C87850C82850D4B
:10320400837808121A975011850C82850D83121C3D
:10321400BD9007B3121CC980027E1802339AEF7066
:1032240021120AD0E97013121490E9F509795012A9
:1032340018E0E9F50812147E800A9008467401F03B
:1032440080027E1802339A74076F707E75080675C3
:1032540009007808122052850C82850D83A3AC8264
:10326400AD837404121E2D1217967402121DE58587
:103274001882851983EAF0A3EBF07C007D007402C8
:10328400121E2D850C82850D83E0F9121424E9F5B4
:103294000AE50AC3940A502E120AD0E97015A90A45
:1032A400121496E9F50979501218E0E9F508121498
:1032B4007E8019A80A7900744728F582740839F5C4
:1032C400837401F080067E0280027E1802339A74B1
:1032D400016F7019850C82850D83E0C39402500D33
:1032E400850C82850D83E09007B2F080027E18027F
:1032F400339A74016F7019850C82850D83E0C39431
:103304000A500D850C82850D83E0900DA5F0800296
:103314007E1802339A74016F7025850C82850D83A3
:10332400E0C394074019850C82850D83E0C3941192
:10333400500D850C82850D83E0900DA7F080577E9B
:1033440018805374016F7022900845E0F508850CCD
:1033540082850D83E0900845F0E5087039900845B2
:10336400E06401703112147E802C7E188028C3E53D
:103374000E9427E50F9400501B74026F7016850C91
:1033840082850D83E0FCA3E0FDAA0EAB0F12096E4B
:10339400E9FE80027E02EEF97408121DE57F080240
:1033A4001F1174F0121E3F74D7121DCFE9C0E085BF
:1033B4001882851983D0E0F07401121E1BEAF0A371
:1033C400EBF08C0E8D0F9083407403121E3574063F
:1033D400121CE27403121E357401121E1BE0FAA3C0
:1033E400E0FB851882851983E0F9121424E9FEEEC6
:1033F400C3940A4003023535EEF9121460E9FF90D4
:103404000DA2E064027004740180027400F508786F
:1034140008122056743A121E1BE0FDEFFCEEF9AAC6
:103424000EAB0F1214D27401121DE57C147D0079C9
:10343400007415121E2D1217A88A088B0985080A14
:1034440085090B7415121E357A1075F006EEA42446
:1034540024F91218DAE9703C7C1079FF7415121EF5
:103464002D121808E9702D7425121E1BAC82AD8331
:103474007A0475F006EEA42425F91218DAE9F508A1
:103484007415121E35EFA2E0E433F9AA0EAB0F1245
:1034940009F8E9F87409121E357A0C74702EF912C1
:1034A40018DAE970797409121E2D12145475080083
:1034B400E508C394045067A8087900E875F003A4EC
:1034C400C8AAF075F000A42AFA75F003E9A42AF951
:1034D4007409121E1BE58228F50CE58339F50D8568
:1034E4000C82850D83E0F8A3E0F9E849602C850C93
:1034F40082850D83A3A3E0F50A750B00780A1220D8
:1035040052850C82850D83E0FCA3E0FDAA0EAB0F6F
:10351400120C5C7402121DE5E9F805088092EFA212
:10352400E1500E90079DE0F9AA0EAB0F120C62E970
:10353400F87439121E1BE06404700F900DA2E0644D
:10354400027007AA0EAB0F1214CC79007429121D55
:10355400E57F08021F1174F2121E3F890B8A088B43
:1035640009ECFEEDFF750A0AE50B600B1460081404
:10357400604114605F807DAA08AB09121472E9F5FA
:103584000AE50AC3940A506CEE4F6068750C067520
:103594000D00780C122052AC08AD09EEFAEFFB12C4
:1035A40017907402121DE58A0C8B0D850C82850D13
:1035B400838041AA08AB0912146CE9F50AE50AC331
:1035C400940A5030EE4F602CEEFAEFFBA90A121465
:1035D40066E98020AA08AB09121478E9F50AE50A1D
:1035E400C3940A500FEE4F600BEEFAEFFBA90A12D8
:1035F4001466E9F8A90A7F06021F1174F2121E3F2D
:103604008A0C8B0DE9FF7E1574FF650C700474FF42
:10361400650D702A750800E508C3940A5014EFFC80
:103624007A027B00A908121442E960027E000508B0
:1036340080E5EF60627ABA7B14120E668059AA0C98
:10364400AB0D120E488A088B0985080A85090BE51B
:103654000A450B60407C007D00E50A2405FAE43548
:103664000BFB850A82850B83A3A3A3A3E0F91214A1
:1036740024E9F508E508C3940A500EEFFC7A027BAE
:1036840000A908121442E97E00EF600BAA0AAB0BF2
:103694001214BA80027E14EEF97F06021F1174F030
:1036A400121E3F74FE121DCF851882851983EAF01D
:1036B400A3EBF08C0A8D0B7412121E1BE0F50EA303
:1036C400E0F50F7E15851882851983E064FF700488
:1036D400A3E064FF701D7F00EFC3940A506BAC0E2F
:1036E400AD0FAA0AAB0BEFF9121448E960027E0091
:1036F4000F80E5851882851983E0FAA3E0FB120E9A
:10370400488A0C8B0D850C08850D09E50845096070
:10371400367C007D00E5082405FAE43509FB8508BC
:1037240082850983A3A3A3A3E0F9121424E9FFEF7C
:10373400C3940A5014AC0EAD0FAA0AAB0BEFF912E6
:103744001448E97E0080027E14EEF97402121DE52D
:103754007F08021F1174F7121E3FEAFEEBFF900769
:10376400B7EEF0A3EFF090079DE0FC7D007A267B96
:103774000012096EE9F50890079DE0F9120BD87F55
:1037840001021F1174F2121E3F74EC121DCF8A0A3B
:103794008B0B850A82850B83A3A3E024FA700302B2
:1037A4003BD024FD7003023A4414700302387814A9
:1037B400601024FD70030239EC147003023A88028D
:1037C4003C38AE0AAF0B9007B7E0F8A3E0F9E8493C
:1037D40060669007B7E0F8A3E0F5838882E0F8A379
:1037E400E0F9E8496052EE240CF582E43FF583E009
:1037F400F5087808122056EE240BF582E43FF58391
:10380400E0F98E828F83A3A3A3A3A3A3A3A3A3E01E
:10381400FCA3E0FDEE2403FAE43FFB9007B7E0F8D5
:10382400A3E0F5838882E0F8A3E0F5838882121E82
:103834003D7401121DE580398E828F83A3A3A3A357
:10384400A3A3A3A3A31220699007B3121CA5120A71
:103854000A7402121DE5E9601879018E828F83A330
:10386400A3A3A3A3A3A3A3A3E0FAA3E0FB120A04C4
:10387400E9023C38AE0AAF0B8E828F83A3E060036B
:1038840002399A8E828F83A3A3A3A3A3E0A2E0406C
:103894000302399A900851E0F8A3E0F9E84960037B
:1038A40002399A7C0E7D007900AA18AB191217A868
:1038B4008A088B09AA08AB09EE240CF582E43FF5CB
:1038C40083E0F8A3E0F9E849603675080675090055
:1038D4007808122052EE240CF582E43FF583E024AC
:1038E40010FCA3E03400FD7402121E2D1217907414
:1038F40002121DE58A088B09850882850983804F99
:103904008E828F83A3A3A3E0FAA3E0FB120E488A5E
:103914000C8B0D850C08850D09E5084509602D758E
:103924000C06750D00780C122052E5082405FCE401
:103934003509FD7402121E2D1217907402121DE532
:103944008A0C8B0D850C82850D838003023C388E96
:10395400828F83A3A3A3A3A3E0A2E25004D2F080A6
:1039640002C2F0A2F0E433F87900740C121E1BE0DA
:1039740048F0A3E049F0EEFCEFFDAA18AB191214CD
:103984005AE970127A027B0090079DE0F91217E45D
:10399400E97900023C3A9007B7E0F8A3E0F9E84976
:1039A40060439007B7E0F8A3E0F5838882A3A3E01F
:1039B400F8A3E0F9E849602D8E828F83A3E0FC79B7
:1039C400018E828F83A3A3A3E0FAA3E0FB9007B741
:1039D400E0F8A3E0F5838882A3A3E0F8A3E0F583ED
:1039E4008882121E3D023C38AE0AAF0B9007B7E046
:1039F400F8A3E0F9E84960459007B7E0F8A3E0F5DB
:103A0400838882A3A3E0F8A3E0F9E849602F850A3C
:103A140082850B83A3E0FC79028E828F83A3A3A308
:103A2400E0FAA3E0FB9007B7E0F8A3E0F58388820F
:103A3400A3A3E0F8A3E0F5838882121E3D023C387C
:103A4400850A08850B097C007D00E5082404FAE456
:103A54003509FB850882850983A3A3A3E0F9121421
:103A640024E9FEEEC3940A5018E508240AFCE43560
:103A740009FD7A0475F006EEA42425F91218D4E998
:103A8400F8023C38AE0AAF0B9007B2E06019900D13
:103A9400A5E0F98E828F83A3A3A3E0FAA3E0FB122F
:103AA4000A04E9F8023C38900DA2E0701679058EFC
:103AB400828F83A3A3A3E0FAA3E0FB120A04E9F82C
:103AC400023C388E828F83A3A3A3E0FAA3E0FB1207
:103AD4000E488A0C8B0D850C08850D098E828F8308
:103AE400A3A3A3A3A3A3A3E0A2E05072E5084509FE
:103AF4006069850882850983A3A3A3A3E0605F8E20
:103B0400828F83A3A3A3A3A3A3A3A3A3E0F8A3E007
:103B1400F9E8C4540FF87900E85401F8E95400F9BD
:103B2400E8A2E04039740E121E35E5082405FAE4D3
:103B34003509FB850882850983A3A3A3A3E0F912B1
:103B44001424E9701979038E828F83A3A3A3E0FA66
:103B5400A3E0FB120A04E9F8023C38023C38EE24E4
:103B640005FCE43FFD850882850983A3A3A3A3E0A4
:103B7400F98E828F83A3A3A3E0FAA3E0FB1214C6F9
:103B84009007B7E0F8A3E0F9E849603E9007B7E092
:103B9400F8A3E0F5838882A3A3E0F8A3E0F9E84959
:103BA40060287C0079008E828F83A3A3A3E0FAA30C
:103BB400E0FB9007B7E0F8A3E0F5838882A3A3E0D5
:103BC400F8A3E0F5838882121E3D8068120AD0E9CA
:103BD4007062900846E06401701A121490E9FE9035
:103BE40008467400F07C0A7D0079007A477B08124D
:103BF40017A880367E00EEC3940A502EEEF87900A2
:103C0400744728F582740839F583E064017018EE6E
:103C1400F9121496E9FAEEF87900744728F58274DB
:103C24000839F5837400F00E80CC79501218E0E95D
:103C3400FE12147E79017414121DE57F06021F1111
:103C440074F5121E3F74F2121DCF8908EAFEEBFFD1
:103C54008C09AC18AD197A0E75F006E508A4242079
:103C6400F91218DAE9705F7C0679FFAA18AB191209
:103C74001808E97051740C121E1BE0F8A3E0F9E86F
:103C8400F50AE5096005EE420A8004EEF4520AA83A
:103C94000A7900740C121E1BE0687003A3E06960CB
:103CA40021A80A7900740C121E1BE8F0A3E9F0ACF9
:103CB40018AD197A0E75F006E508A42420F9121837
:103CC400D4E9790180027900740E121DE57F0302A4
:103CD4001F1174F0121E3F74E6121DCF89098A0E5B
:103CE4008B0FECFEEDFF740C121E357A0E75F00688
:103CF400E509A42420F91218DAE96003023E067CDF
:103D04000679FF740C121E2D121808E96003023E96
:103D140006AC18AD197A0C74702509F91218DAE991
:103D24006003023E02750800AA18AB19121454E588
:103D34000E450F702E7C0C7900AA18AB19121808C6
:103D4400E96003023DE87C0C7D007900AA18AB19F8
:103D54001217A88A0A8B0B850A82850B83750801C2
:103D6400023DE8AC18AD19AA0EAB0F12144E8A0C22
:103D74008B0D850C0A850D0BE50A450B7030EE4F53
:103D8400601BAC18AD197A007B0012144E8A0C8BA0
:103D94000DA80CA90D880A890BE8497004790080E4
:103DA40063850A82850B83E50EF0A3E50FF0850A8F
:103DB40082850B83A3A3E0F87900EE687002EF69B3
:103DC4006022EEC0E0850A82850B83A3A3D0E0F0D5
:103DD400EE4F700D850A82850B837400F0A3740086
:103DE400F0750801E5086016AA18AB19121454AC52
:103DF40018AD197A0C74702509F91218D4E97901EF
:103E040080027900741A121DE57F08021F1174F7ED
:103E1400121E3FEAFEEBFF7A00EAC39404504EEA16
:103E2400F87900E875F003A4C8ABF075F000A42B92
:103E3400FB75F003E9A42BF9EC28F582ED39F58341
:103E4400E06E7003A3E06F7021EAF87900E875F082
:103E540003A4C8AAF075F000A42AFA75F003E9A433
:103E64002AF9EC28FAED39FB80070A80AC7A007B4A
:103E7400007F01021F1174F7121E3F7C00ECC394F3
:103E8400044003023F29ECF87900E875F003A4C864
:103E9400ADF075F000A42DFD75F003E9A42DF9EA49
:103EA40028F582EB39F583E0F4FEA3E0F4FFECF8A7
:103EB4007900E875F003A4C8ADF075F000A42DFDF9
:103EC40075F003E9A42DF9EA28F582EB39F583EEC0
:103ED400F0A3EFF0ECF87900E875F003A4C8ADF0B6
:103EE40075F000A42DFD75F003E9A42DF9EA28F579
:103EF40082EB39F583A3A3E0F4C0E0ECF87900E8A1
:103F040075F003A4C8ADF075F000A42DFD75F003A1
:103F1400E9A42DF9EA28F582EB39F583A3A3D0E0CF
:103F2400F00C023E817F01021F1174F0121E3F74D7
:103F3400F4121DCFEAFEEBFF8C088D09900851E0C6
:103F4400F8A3E0F9E849702CEE4F6006E50845094E
:103F5400700579010241DAEEFAEFFB121472E9906E
:103F64000DA8F0900DA8E0C3940A4008121484E947
:103F7400900DA8F0900DA8E0C3940A40030241D824
:103F8400900851E0F8A3E0F9E8496003024024EE08
:103F9400FCEFFD7A0E75F006900DA8E0A42420F93C
:103FA4001218D4E9F50B7C0C7D0079FFAA18AB1923
:103FB4001217A88A0C8B0D850C0E850D0FAC18AD4D
:103FC400197A0C900DA8E02470F91218D4E9F50AB6
:103FD400750C0E750D00780C122052EEFCEFFD905E
:103FE4000DA8E0F87900E875F00EA4C8AAF075F001
:103FF40000A42AFA75F00EE9A42AF974B928FA740F
:104004000739FB1217907402121DE58A0C8B0DA858
:104014000CA90D900851E508F0A3E509F00241D47C
:10402400900851E0F8A3E0C82406F582C83400F5EE
:1040340083E0F8A3E0F9E8496043900851E0F8A36D
:10404400E0C82406F582C83400F583E0FCA3E0FD53
:104054007A1B75F006900DA8E0A42421F91218D457
:10406400E9F8900851E0F9A3E0C92406F582C934BF
:1040740000F5837400F0A37400F00241D490085159
:10408400E0F8A3E0C8240AF582C83400F583E0F818
:10409400A3E0F9E8496043900851E0F8A3E0C8249C
:1040A4000AF582C83400F583E0FCA3E0FD7A1B75B1
:1040B400F006900DA8E0A42422F91218D4E9F8908F
:1040C4000851E0F9A3E0C9240AF582C93400F58354
:1040D4007400F0A37400F00241D4900851E0F8A3F6
:1040E400E0C8240CF582C83400F583E0F8A3E0F9B5
:1040F400E8496043900851E0F8A3E0C8240CF58235
:10410400C83400F583E0FCA3E0FD7A1075F0069056
:104114000DA8E0A42423F91218D4E9F8900851E07A
:10412400F9A3E0C9240CF582C93400F5837400F0C6
:10413400A37400F00241D4900851E0F8A3E0C8242D
:1041440008F582C83400F583E0F8A3E0F9E8496093
:104154006F900851E0F8A3E0C82408F582C8340041
:10416400F583E0FCA3E0FD7A1075F006900DA8E05D
:10417400A42424F91218D4E9F50A900851E0F8A30C
:10418400E0C82408F582C83400F583E02410FCA3B9
:10419400E03400FD7A0475F006900DA8E0A424250F
:1041A400F91218D4E9F8900851E0F9A3E0C92408F9
:1041B400F582C93400F5837400F0A37400F0801014
:1041C400900845E060031214D81214C079018006E7
:1041D400790080027901740C121DE57F08021F1119
:1041E40074F7121E3F74F2121DCFE9FEAC18AD191C
:1041F4007A0E75F006EEA42420F91218DAE9700E8E
:10420400740C121E1BE0F8A3E0F9E8F980027900AF
:10421400740E121DE57F01021F1174F4121E3F7407
:10422400F2121DCF8909EAFEEBFFE509C3940A5097
:1042340004EE4F700479028041AC18AD197A0E7502
:10424400F006E509A42420F91218DAE9F508E508CE
:104254007026750A06750B00780A12205274021231
:104264001E35EEFAEFFB1217907402121DE58A0A4E
:104274008B0B850A82850B83A908740E121DE57FBA
:1042840004021F1174F4121E3FEAFEEBFF750800CE
:10429400E508C3940A5043750A06750B00780A12A0
:1042A4002052EEFCEFFDA8087900E875F00EA4C8D2
:1042B400AAF075F000A42AFA75F00EE9A42AF9749C
:1042C400BF28FA740739FB1217A27402121DE5E91C
:1042D4006004A9088006050880B6790A7F04021FD5
:1042E4001174F4121E3FEAFEEBFF750800E508C3E3
:1042F400940A5043750A06750B00780A122052EE90
:10430400FCEFFDA8087900E875F00EA4C8AAF075C2
:10431400F000A42AFA75F00EE9A42AF974B928FA6F
:10432400740739FB1217A27402121DE5E96004A98F
:10433400088006050880B6790A7F04021F1174F705
:10434400121E3F74F0121DCFEAFEEBFF750800E564
:1043540008C3940A5039AC18AD197A1075F006E503
:1043640008A42423F91218DAE970207C1079FFAA32
:1043740018AB19121808E97012EEFCEFFDAA18AB7D
:10438400191209DAE97004A9088006050880C079C1
:104394000A7410121DE57F01021F1174F4121E3FEE
:1043A400750800E508C3940A4003024479A8087913
:1043B40000E875F00EA4C8AAF075F000A42AFA75F6
:1043C400F00EE9A42AF974B928FC740739FD7A0EB1
:1043D40075F006E508A42420F91218DAE97003023E
:1043E40044747C067D0079FFAA087B00EA75F00E10
:1043F400A4CAA8F075F000A428F875F00EEBA42860
:10440400FB74B92AFA74073BFB1217A88A0A8B0BB0
:10441400AE0AAF0B7C067D0079FFAA087B00EA7523
:10442400F00EA4CAA8F075F000A428F875F00EEBFD
:10443400A428FB74BF2AFA74073BFB1217A88A0A44
:104444008B0BAC0AAD0BA8087900E875F00EA4C874
:10445400AAF075F000A42AFA75F00EE9A42AF974FA
:10446400C528F582740739F5837400F0A37400F04D
:1044740005080243A7900845E060031214D81214FB
:10448400C07F04021F1174F7121E3F7E00EEC39416
:104494000A50327C0679FFEEFA7B00EA75F00EA42E
:1044A400CAA8F075F000A428F875F00EEBA428FB58
:1044B40074B92AFA74073BFB121808E96004EEF990
:1044C40080050E80C8790A7F01021F1174F7121E3D
:1044D4003F7E007F00EFC3940A50357C0679FFC904
:1044E400FDC9EFF87900E875F00EA4C8AAF075F0DC
:1044F40000A42AFA75F00EE9A42AF974B928FA740A
:104504000739FBCDF9CD121808E970010E0F80C5EB
:10451400EEF97F01021F1174F7121E3F7E007F0027
:10452400EFC3940A500DEE700AEFF9121496E9FEE7
:104534000F80EDEEF97F01021F1174F0121E3F741B
:10454400C9121DCFE9FE900DA8E06E701D7A017BA3
:104554000090079DE0F91217EAE97A027B009007C0
:104564009DE0F91217EAE91214E47429121E357A4F
:104574000E75F006EEA42420F91218DAE96003029D
:1045840046727C0679FF7429121E2D121808E96000
:10459400030246727C0E7D0079FF7429121E2D12CF
:1045A40017A8851882851983EAF0A3EBF07C1B7D9C
:1045B4000079FF740E121E2D1217A88A0A8B0B8520
:1045C4000A0E850B0F7C0C7D0079FF7402121E2DE0
:1045D4001217A88A0C8B0D850C0A850D0B742912F1
:1045E4001E357A0E75F006EEA42420F91218D4E9CB
:1045F400F508740E121E357A1B75F006EEA42421FC
:10460400F91218D4E94208740E121E357A1B75F09B
:1046140006EEA42422F91218D4E94208740E121EDC
:10462400357A1075F006EEA42423F91218D4E94261
:1046340008740E121E357A1075F006EEA42424F9BF
:104644001218D4E94208740E121E357A0475F00665
:10465400EEA42425F91218D4E942087402121E3576
:104664007A0C74702EF91218D4E942088003750884
:1046740000A9087437121DE57F08021F1174F71290
:104684001E3FE9FEEE90079DF012147E7F01021F8B
:104694001174F2121E3F890AEAFEEBFFEE5400F891
:1046A400EF5480F9E849603590079DE0F91217CC82
:1046B4008A0C8B0DA80CA90D88088909E849601299
:1046C400AA08AB091214A8E96008AA08AB091217D2
:1046D400BAE9EE6400FAEF6480FB024799EE5402F3
:1046E400602D7C007D007A007B0012145AE960186A
:1046F4007A017B0090079DE0F91217E4E9EE640269
:10470400FAEF6400FB0247997A027B00024799EEB4
:10471400A2E0507D900851E0F8A3E0F5838882A3DD
:10472400A3A3E0FAA3E0FB1214DEE9605E9007B7EE
:10473400E0F8A3E0F9E84960459007B7E0F8A3E0A2
:10474400F5838882A3A3E0F8A3E0F9E849602F7C0D
:10475400007901900851E0F8A3E0F5838882A3A3CF
:10476400A3E0FAA3E0FB9007B7E0F8A3E0F58388A1
:1047740082A3A3E0F8A3E0F5838882121E3D1214FD
:10478400E4EE6401FAEF6400FB800A7A017B0080A6
:10479400047A007B007F06021F1174F7121E3FEAA1
:1047A400FEEBFF7508018E828F83E02450601314A2
:1047B400601924E1701CEEFAEFFB12143CE9F508D1
:1047C4008010EEFAEFFB1214AE8007EEFAEFFB1244
:1047D40014B4A9087F01021F1174F7121E3FEAFEE8
:1047E400EBFF8E828F83A3A3A3A3E0641E701179D1
:1047F400008E828F83A3A3E0FAA3E0FB12142AE9BC
:104804007F01021F1174F6121E3F8A088B09850866
:1048140082850983A3A3A3A3E07034AE08AF098EF5
:10482400828F83A3A3A3A3A3A3A31220698E828F41
:1048340083A3A3A3A3A3E0FCA3E0FD8E828F83A3A1
:10484400A3E0FAA3E0FB1214307402121DE5E97F21
:1048540002021F1174F7121E3FEAFEEBFF90079D40
:10486400E0F98E828F83A3E0FAA3E0FB120C62E9E5
:104874007F01021F11C082C08374FF121DCF121466
:104884008AE9C39402400B8518828519837402F067
:104894008009851882851983740AF0AC18AD197AD9
:1048A400017905120AE8E97401121DE5D083D0826A
:1048B40002013274F2121E3F74E8121DCF8A088B73
:1048C40009E9FE8C0A8D0B7C187D007900AA18ABCF
:1048D400191217A88A0C8B0DAC0CAD0D85188285A6
:1048E4001983E508F0A3E509F090079FE0C0E074A0
:1048F40002121E1BD0E0F09007A0E0C0E074031287
:104904001E1BD0E0F0900DA7E0C0E07417121E1B30
:10491400D0E0F07415121E1BE054FEFAA3E054FF1D
:10492400FB900DA6E0A2E0E433F87900EA48F8EB46
:1049340049F97415121E1BE8F0A3E9F0900DA6E0E6
:10494400A2E15004D2F08002C2F07415121E1BE0E2
:1049540054FDFAA3E054FFFBA2F0E433F87900E835
:1049640028F8E933F9EA48F8EB49F97415121E1BE3
:10497400E8F0A3E9F0900DA6E0A2E35004D2F080A1
:1049840002C2F07415121E1BE054F7FAA3E054FFA0
:10499400FBA2F0E433F50C750D007403780C121DC2
:1049A400BCEA450CF8EB450DF97415121E1BE8F032
:1049B400A3E9F0900DA6E0A2E45004D2F08002C274
:1049C400F07415121E1BE054EFFAA3E054FFFBA28F
:1049D400F0E433F50C750D007404780C121DBCEA78
:1049E400450CF8EB450DF97415121E1BE8F0A3E90C
:1049F400F0900DA6E0A2E55004D2F08002C2F0745B
:104A040015121E1BE054DFFAA3E054FFFBA2F0E4EE
:104A140033F50C750D007405780C121DBCEA450CB9
:104A2400F8EB450DF97415121E1BE8F0A3E9F0909C
:104A34000DA6E0A2E25004D2F08002C2F074151276
:104A44001E1BE054FBFAA3E054FFFBA2F0E433F591
:104A54000C750D007402780C121DBCEA450CF8EBC1
:104A6400450DF97415121E1BE8F0A3E9F09007A098
:104A7400E0602A750C10750D00780C1220527CA190
:104A84007D077406121E1BAA82AB83121790740250
:104A9400121DE58A0C8B0D850C82850D839007B160
:104AA400E06011EE600E7415121E1BE04402F0A3C8
:104AB400E04400F09007B1E06006780179008004DA
:104AC400780079007414121E1BE048F090079EE0F1
:104AD4006006780479008004780079007414121E4A
:104AE4001BE048F0AC0AAD0BAA18AB191209FEE999
:104AF4007418121DE57F06021F1174F7121E3FEA97
:104B0400FEEBFF7508009007B1E0600678017900BC
:104B1400800478007900E8420890079EE0600678F7
:104B2400047900800478007900E84208A908EEFAC4
:104B3400EFFB120AB8E97F01021F1174F2121E3F43
:104B440074E3121DCF8A0C8B0DE9FF8C0A8D097456
:104B54002B121E1BE0F50874086509700A75F0062F
:104B6400EFA42422FE800875F006EFA42421FE7C25
:104B74001B7D0079007402121E2D1217A88518825D
:104B8400851983EAF0A3EBF07402121E357A1BEE4A
:104B9400F91218DAE97038741C121E1BE0C394076A
:104BA400402D741C121E1BE0C394115022E508F51D
:104BB4000B780B1220567403121E35E50AA2E0E4AA
:104BC40033F9AA0CAB0D120A107401121DE5E97435
:104BD4001D121DE57F06021F1174F7121E3F120CF1
:104BE400DAE97E00EEC3940A505C7C0679FFC9FDC5
:104BF400C9EEF87900E875F00EA4C8AAF075F000C3
:104C0400A42AFA75F00EE9A42AF974B928FA7407EB
:104C140039FBCDF9CD121808E97028EEF87900E8CF
:104C240075F00EA4C8AAF075F000A42AFA75F00E67
:104C3400E9A42AF974B928FA740739FB7900120C2B
:104C4400E0E9F80E809E7F01021F1174F6121E3FE8
:104C540074FD121DCFEAFEEBFF900853E0F8A3E0C9
:104C6400F9E8497039750855750908780812205211
:104C74007508027509007808122052750801750933
:104C84008478081220527CFF7DFF7A017B00120B8E
:104C94002A7406121DE5900853EAF0A3EBF090087D
:104CA40053E0F8A3E0F9E8497003024D6CE4F50819
:104CB400F50978081220527404121E2588088909FF
:104CC40078081220527404121E258808890978086D
:104CD4001220529008551220697902900853E0FC82
:104CE400A3E0FDEEFAEFFB120C507408121DE5E987
:104CF400704A851882851983E0FA7B007401121EBC
:104D04001BE0F87900E4C8F9EA28F508EB39F5095D
:104D1400E508450960267808122052900853E0F807
:104D2400A3E0F5838882A3A3A3A3E0FCA3E0FDEEA4
:104D3400FAEFFB1214307402121DE5E9E4F508F5EC
:104D44000978081220529008551220697CFF7DFFD3
:104D5400900853E0FAA3E0FB120B367404121DE52D
:104D6400900853EAF0A3EBF0900853E0F8A3E0F9BD
:104D7400E84970047901800279007403121DE57F0B
:104D840002021F11C082C083900851E0F8A3E0F929
:104D9400E8496017900851E0FAA3E0FB1217BAE95A
:104DA400F89008517400F0A37400F0900DA8740AF0
:104DB400F0D083D082020132C082C083E9900C30EB
:104DC400F002504B74F7121E3FE990031FF07C571A
:104DD4007D037AFF7BFF120C6890032074FFF0A31D
:104DE400F0A3E4F0A3F07905120BF090031FE0F9AF
:104DF400120B127A867B0C120E367F01021F11747D
:104E0400F4121E3F8A088B09EB5480603090031F14
:104E1400E0F91217CC8A0A8B0BAE0AAF0BEE4F6087
:104E2400138E828F83E064B07003120C08EEFAEFE5
:104E3400FB1217BAAA08E5096480FB80047A007B98
:104E44000002501A74F2121E3F74FC121DCFEAFEC7
:104E5400EBFFEE4F60387402121E1BEEF0A3EF124C
:104E6400527FECF0A3ED12527FAA82AB83120B0C9B
:104E7400E9F50870737412121E1B125E33E50A45BD
:104E84000B60658E828F83124EF6EE4F70057508A7
:104E94000280557A067B001218568A0C8B0DA80CDA
:104EA400A90DE8497005750813803D88828983E45B
:104EB400124F00A3A3EEF0A3EF1262CCE50AF0A315
:104EC400E50BF0900325124F889003256017E0FC52
:104ED400A3E08003EAFCEBFD8C828D83124F887083
:104EE400F38C828D83125D58A9087404121DE502A7
:104EF40064CEA3A3A3A3E0FEA3E0FF22F0A3F08863
:104F04008289832274F2121E3F890AE975F017A47C
:104F1400FEAFF0900324E4F0900322124F88600A5D
:104F240012185C900322E4F0A3F0EEFAEFFB1218DF
:104F3400568A088B09EA4509602FEEFCEFFD7900DB
:104F44001217A8900322E508F0A3E509F07B00807E
:104F540008124F72E4F0A3F00BEBC3950A40F2E59C
:104F64000A900324F07900800279130264CEEB7571
:104F7400F017A4F8A9F0900322E028FAA3E0398AF4
:104F840082F58322125AEEEA4B2274F4121E3F7504
:104F94000800750900740C121E1B1262A0FEE9FFC2
:104FA400800CE5082401F508E5093400F509C3E59A
:104FB400089CE5099D503285080A85090B7403781D
:104FC4000A121DBCEA250AF8EB350BF9888289839D
:104FD400A3A3A3A3A3A3125E33EE650A7003EF6534
:104FE4000B70BFE8FAE9FB80047A007B0080277429
:104FF400F4121E3F7900EAA2E0501B7508FE750901
:105004008278081220527C047D007A327B0C120BC9
:10501400EA7402121DE57F04021F11C082C083904E
:105024000325125052601C88828983A3A3E06A700E
:1050340003A3E06B8882898370E8A3A3A3A3125A15
:10504400EA80047A007B00D083D0820201321265A8
:10505400A1E8492274EE121E3F74FC121DCFEAFE31
:10506400EBFF851882851983E4F0A3F0EE24021285
:105074005D3CEE240512526DEE2404F50EEF12563B
:1050840052E024FE603924FC604624FE605224FE73
:10509400605E24FE700302517224FE70030251EA22
:1050A40024FE70030251F924FE700302520824FC0A
:1050B400700302521724FE700302522602526390B8
:1050C400033E7417F0A3E412528712088A02526353
:1050D400851882851983AC82AD83120C0E0252337B
:1050E400851882851983AC82AD83120C1402523365
:1050F400850C08850D097402121E1BAC82AD8385D4
:105104000882850983125AEA120B308A0C8B0DAC83
:105114000CAD0DEC4D6042E4F50CF50D780C12204D
:1051240052750C3E750D03780C122052750C3F75A8
:105134000D03780C1220527408121E1B1220697978
:1051440016125AE4120C507408121DE5E9F50C709D
:105154000B125AE01208A2800F750C018508828593
:105164000983125275125D58850C08025236740276
:10517400121E1BAC82AD83850C82850D83125AEA04
:10518400120B308A108B11AC10AD11EC4D604385BD
:105194000C82850D83A3A312206975103E7511033B
:1051A400781012205275103F751103781012205296
:1051B4007408121E1B1220697916125AE4120C503C
:1051C4007408121DE5E9F509700B125AE01208A8DB
:1051D400800F750901850C82850D83125275125D4D
:1051E40058850908804C851882851983AC82AD8363
:1051F400120C1A803A851882851983AC82AD831209
:105204000C20802B851882851983AC82AD83120C07
:1052140026801C851882851983AC82AD83120C2CE0
:10522400800D851882851983AC82AD83120C32E916
:10523400F508E50860298E828F83A3E06414601F5B
:10524400850E82850F83E090033E12527F12659D86
:1052540090033F125D58E508A3125287120884EEAA
:10526400FAEFFB120BAE025C44F50CEF3400F50DC3
:10527400221265A185188285198322F085188285FA
:10528400198322F07C3E7D03850A82850B83125AA2
:10529400EE2274EE121E3F74FC121DCF8A0A8B0B91
:1052A4008C0E8D0FEA2405F508EB3400F5097C1506
:1052B4007D0079007A3E7B031217A8E5082402F5E5
:1052C4000CE5091252708518828519838582108530
:1052D40083117810122052850882850983A3A3A321
:1052E400A312579A122052E5082405F510E5093453
:1052F40000F5117810122052850C82850D83125A04
:10530400F4120B2A7406121DE58A108B11AE10AF2D
:1053140011E50A2402F50AE50B125D3FEE4F700316
:1053240002545C80177402121E1B125AEA88828986
:1053340083EAF0A3EBF090033EE004F090033EE038
:10534400C39405400302545CE4F510F5117810127F
:1053540020527510277511037810122052751028E9
:1053640075110378101220527406121E1B12206944
:105374007910EEFCEFFD125AE4120C507408121D61
:10538400E5E9705E850882850983A3A3A3A3A3A38B
:10539400A3E0F8900327E068704812579A1220524D
:1053A4007C287D03E5082408FAE5093400FB12177C
:1053B400A27402121DE5E960298E828F83A3A3A340
:1053C400A3125AEA90033EE0F51074027810121DFD
:1053D400BC743F2510F58274033511F583EAF0A3FC
:1053E400EBF07402121E1B85821085831178101253
:1053F40020527402121E1B122069850C82850D83B3
:105404001265B2120B367404121DE58A108B11AEAC
:1054140010AF1190033EE0F510751100740278107E
:10542400121DBC743E2510F874033511F988828965
:1054340083A3124F887003025320E82403F8E9344D
:1054440000F9EE4F60030253298882898374FFF0C8
:10545400A3F090033EE004F090033EE0600A125A89
:10546400E01208967900800B850882850983125D15
:105474004F790A025C4474EA121E3F74FE121DCF77
:105484008C128D13EA2405F50CEB12671C124EFAEC
:10549400750800750900EA2402F510EB3400F511D3
:1054A40085188285198385820A85830B780A1220E0
:1054B40052850C82850D83A3A3A3A312565C1220EC
:1054C40052E50C2405F50AE50D125D3F780A122019
:1054D40052850C82850D831265B0120B2A74061254
:1054E4001DE58A0A8B0BEA450B700302560DEA246C
:1054F40004F50EEB125652124EFA8A828B83A3A342
:10550400A3E0F9851082851183125AEA120B18E977
:10551400F509600302560DE4F514F515781412200C
:1055240052751427751503781412205275142875B2
:10553400150378141220527406121E1B1220697966
:1055440013AC0AAD0B851082851183125AEA120C32
:10555400507408121DE5E9F509600302560D900325
:1055640027E0F8E5087009E0240290033FF0801773
:1055740090033FE0FCE82402FAE43400FBEA6C7098
:1055840001EB6003025611850882AA821257919496
:10559400141257895073850E82850F83E0C0E0741E
:1055A400402A125649D0E0F00508850E82850F8303
:1055B400A3E0C0E085080A7440250A125649D0E0E9
:1055C400F0050890032712565C1220527C287D03B4
:1055D40085080A7440250AFA74033400FB121790F4
:1055E4007402121DE5900327E02508F50874FF6E88
:1055F400700374FF6F6012EE24010EEF3400FFE5B8
:1056040008C3941450030254A4E50860131259D536
:10561400851082851183125AEA12089C790080143D
:10562400E509700375090A851282851383EEF0A3D8
:10563400EFF0A9097402121DE57F0E021F118508FF
:105644000C7440250CF58274033400F58322340075
:10565400F50F850E82F583221262DF2274EE121E8C
:105664003F74FE121DCF8C0E8D0FEA2405F50CEB52
:10567400125270750B0090033EE4F0F50AEA24021E
:10568400F508EB3400F509804990033EE0FA9003F5
:1056940027E0F81257919417125789400D90033E52
:1056A400E0F87416C398900327F012579A12205208
:1056B4007C287D03743F2AFA74033400FB1217908C
:1056C4007402121DE5900327E0F890033EE028F0F1
:1056D400050AE50C2416F582E50D12564DE0F8E5B1
:1056E4000AC398400302577290033EE0C3941650D5
:1056F4007DE50AC333F8E433F9E50C28FEE50D39FA
:10570400FF851882851983AC82AD838E828F8312C4
:105714005AEA120B308A108B11AC10AD11EC4D709B
:1057240005750B018043E4F510F511781012205231
:1057340075102775110378101220527510287511F1
:105744000378101220527406121E1B122069791657
:10575400850882850983125AEA120C507408121DB6
:10576400E5E9F50B700302568D125D4B80107C3E0B
:105774007D03850882850983125AEA1208AEA90BB3
:105784007402025C46E99400C365D03322EA28F827
:10579400E43400F9E822E0F5107511007810227461
:1057A400EA121E3F74FC121DCF8A0C8B0D8C128DD5
:1057B40013EA2405F50AEB125D3F7508007509002C
:1057C400E50A2402F510E50B3400F5117402121EEB
:1057D4001B85820E85830F780E122052850A8285DE
:1057E4000B83A3A3A3A312628B122052E50A240500
:1057F400F50EE50B3400F50F780E12205285108259
:10580400851183125D45125AE4120B2A7406121D87
:10581400E58A0E8B0FAE0EAF0FE50C2402F50EE5F4
:105824000D3400F50F80408882898374FFF00508E9
:1058340012564274FFF00508900327E0F50C750D2D
:1058440000780C1220527C287D0385080C744025B6
:105854000CFA74033400FB1217907402121DE590C5
:105864000327E02508F508EE4F60718E828F83A32D
:10587400A3A3E0F9850E82850F83125AEA120B184E
:10588400E9F509EE240412526DE97044E4F514F5C7
:1058940015781412205275142775150378141220E4
:1058A4005275142875150378141220527408121EA8
:1058B4001B1220697911EEFCEFFD850E82850F83A2
:1058C400125AEA120C507408121DE5E9F509602712
:1058D400850C82850D831259CB125D58E50870033F
:1058E4000259B11259D5850E82850F83125AEA12D4
:1058F40008B479000259C6850882AA82EA9003276F
:105904007009E0240490033FF08022E0F890033F04
:10591400E0F514E82404FCE43400FDEC65147001A3
:10592400ED70C0125791941212578950B6850C82AB
:10593400850D83E0C0E074402A125649D0E0F0059A
:1059440008850C82850D83A3E0C0E0125642D0E0A6
:105954001259E785820C85830D780C122052740449
:10596400121E1B1220698510828511831265B212E2
:105974000B367404121DE58A0C8B0DAE0CAF0D852D
:10598400080C7440250CF874033400F9EE4F7003CE
:1059940002582B851882851983E0888289831259DD
:1059A400E7A3E0C0E0125642D0E0025839E509709E
:1059B4000375090A850A82850B831259CB125D5837
:1059C400A909740402563A1265A1851282851383CB
:1059D4002290033FE0F5F0E5088490033EF07C3E1E
:1059E4007D0322F005088518828519832274EC1240
:1059F4001E3F74FE121DCF8A088B098C0E8D0FEA90
:105A04002405FEEB3400FF851882851983AC82AD32
:105A1400838E828F83125AEA120B308A0A8B0BEE22
:105A2400241812526DEA450B7003025ABB125C2D06
:105A34005032851882851983125AEA120C448A104E
:105A44008B11EA4511606B7912AC0AAD0B850882A3
:105A5400850983125AEA851082851183121E3DE955
:105A6400F50A7058E4F50AF50B780A1220528E8272
:105A74008F83A3A3E0F50A780A122052EE240312BE
:105A84005D3C780A1220528E828F83125AF4120CD3
:105A9400567406121DE5E9F50A7021850C82850D00
:105AA40083E0701F850882850983125AEA1208BAB6
:105AB4008011750A0E8009750A018004E50A6003E5
:105AC400125D4B850C82850D83E0600479008002B1
:105AD400A90A7402121DE57F0C021F117C3E7D038E
:105AE400850A82850B83125AEE22E0FAA3E0FB2298
:105AF400E0FCA3E0FD850882850983125AEE227436
:105B0400EE121E3F74FE121DCF8A088B098C0C8D79
:105B14000DEA2405FEEB3400FF750E00851882851E
:105B24001983AC82AD838E828F83125AEA120B30B2
